{"abi":[{"type":"constructor","inputs":[{"name":"_mmrRoot","type":"bytes32","internalType":"bytes32"},{"name":"_tokenizedBitcoin","type":"address","internalType":"address"},{"name":"_circuitVerificationKey","type":"bytes32","internalType":"bytes32"},{"name":"_verifier","type":"address","internalType":"address"},{"name":"_feeRouter","type":"address","internalType":"address"},{"name":"_takerFeeBips","type":"uint16","internalType":"uint16"},{"name":"_tipBlockLeaf","type":"tuple","internalType":"struct BlockLeaf","components":[{"name":"blockHash","type":"bytes32","internalType":"bytes32"},{"name":"height","type":"uint32","internalType":"uint32"},{"name":"cumulativeChainwork","type":"uint256","internalType":"uint256"}]}],"stateMutability":"nonpayable"},{"type":"function","name":"accumulatedFees","inputs":[],"outputs":[{"name":"","type":"uint256","internalType":"uint256"}],"stateMutability":"view"},{"type":"function","name":"addHypernode","inputs":[{"name":"_hypernode","type":"address","internalType":"address"}],"outputs":[],"stateMutability":"nonpayable"},{"type":"function","name":"adminSetFeeRouter","inputs":[{"name":"_feeRouter","type":"address","internalType":"address"}],"outputs":[],"stateMutability":"nonpayable"},{"type":"function","name":"adminSetTakerFeeBips","inputs":[{"name":"_takerFeeBips","type":"uint16","internalType":"uint16"}],"outputs":[],"stateMutability":"nonpayable"},{"type":"function","name":"auctionHashes","inputs":[{"name":"","type":"uint256","internalType":"uint256"}],"outputs":[{"name":"","type":"bytes32","internalType":"bytes32"}],"stateMutability":"view"},{"type":"function","name":"blockFinalityTime","inputs":[],"outputs":[{"name":"","type":"uint32","internalType":"uint32"}],"stateMutability":"view"},{"type":"function","name":"cancelOwnershipHandover","inputs":[],"outputs":[],"stateMutability":"payable"},{"type":"function","name":"checkpoints","inputs":[{"name":"","type":"bytes32","internalType":"bytes32"}],"outputs":[{"name":"height","type":"uint32","internalType":"uint32"},{"name":"cumulativeChainwork","type":"uint256","internalType":"uint256"}],"stateMutability":"view"},{"type":"function","name":"circuitVerificationKey","inputs":[],"outputs":[{"name":"","type":"bytes32","internalType":"bytes32"}],"stateMutability":"view"},{"type":"function","name":"claimAuction","inputs":[{"name":"auction","type":"tuple","internalType":"struct DutchAuction","components":[{"name":"index","type":"uint256","internalType":"uint256"},{"name":"baseCreateOrderParams","type":"tuple","internalType":"struct BaseCreateOrderParams","components":[{"name":"owner","type":"address","internalType":"address"},{"name":"bitcoinScriptPubKey","type":"bytes","internalType":"bytes"},{"name":"salt","type":"bytes32","internalType":"bytes32"},{"name":"confirmationBlocks","type":"uint8","internalType":"uint8"},{"name":"safeBlockLeaf","type":"tuple","internalType":"struct BlockLeaf","components":[{"name":"blockHash","type":"bytes32","internalType":"bytes32"},{"name":"height","type":"uint32","internalType":"uint32"},{"name":"cumulativeChainwork","type":"uint256","internalType":"uint256"}]}]},{"name":"dutchAuctionParams","type":"tuple","internalType":"struct DutchAuctionParams","components":[{"name":"startBtcOut","type":"uint256","internalType":"uint256"},{"name":"endBtcOut","type":"uint256","internalType":"uint256"},{"name":"decayBlocks","type":"uint256","internalType":"uint256"},{"name":"deadline","type":"uint256","internalType":"uint256"},{"name":"fillerWhitelistContract","type":"address","internalType":"address"}]},{"name":"depositAmount","type":"uint256","internalType":"uint256"},{"name":"startBlock","type":"uint256","internalType":"uint256"},{"name":"startTimestamp","type":"uint256","internalType":"uint256"},{"name":"state","type":"uint8","internalType":"enum DutchAuctionState"}]},{"name":"fillerAuthData","type":"bytes","internalType":"bytes"},{"name":"safeBlockSiblings","type":"bytes32[]","internalType":"bytes32[]"},{"name":"safeBlockPeaks","type":"bytes32[]","internalType":"bytes32[]"}],"outputs":[],"stateMutability":"nonpayable"},{"type":"function","name":"completeOwnershipHandover","inputs":[{"name":"pendingOwner","type":"address","internalType":"address"}],"outputs":[],"stateMutability":"payable"},{"type":"function","name":"eip712Domain","inputs":[],"outputs":[{"name":"fields","type":"bytes1","internalType":"bytes1"},{"name":"name","type":"string","internalType":"string"},{"name":"version","type":"string","internalType":"string"},{"name":"chainId","type":"uint256","internalType":"uint256"},{"name":"verifyingContract","type":"address","internalType":"address"},{"name":"salt","type":"bytes32","internalType":"bytes32"},{"name":"extensions","type":"uint256[]","internalType":"uint256[]"}],"stateMutability":"view"},{"type":"function","name":"feeRouter","inputs":[],"outputs":[{"name":"","type":"address","internalType":"address"}],"stateMutability":"view"},{"type":"function","name":"getTotalOrders","inputs":[],"outputs":[{"name":"","type":"uint256","internalType":"uint256"}],"stateMutability":"view"},{"type":"function","name":"getTotalPayments","inputs":[],"outputs":[{"name":"","type":"uint256","internalType":"uint256"}],"stateMutability":"view"},{"type":"function","name":"hypernodes","inputs":[{"name":"","type":"address","internalType":"address"}],"outputs":[{"name":"","type":"bool","internalType":"bool"}],"stateMutability":"view"},{"type":"function","name":"lightClientHeight","inputs":[],"outputs":[{"name":"","type":"uint32","internalType":"uint32"}],"stateMutability":"view"},{"type":"function","name":"mmrRoot","inputs":[],"outputs":[{"name":"","type":"bytes32","internalType":"bytes32"}],"stateMutability":"view"},{"type":"function","name":"orderHashes","inputs":[{"name":"","type":"uint256","internalType":"uint256"}],"outputs":[{"name":"","type":"bytes32","internalType":"bytes32"}],"stateMutability":"view"},{"type":"function","name":"owner","inputs":[],"outputs":[{"name":"result","type":"address","internalType":"address"}],"stateMutability":"view"},{"type":"function","name":"ownershipHandoverExpiresAt","inputs":[{"name":"pendingOwner","type":"address","internalType":"address"}],"outputs":[{"name":"result","type":"uint256","internalType":"uint256"}],"stateMutability":"view"},{"type":"function","name":"paymentHashes","inputs":[{"name":"","type":"uint256","internalType":"uint256"}],"outputs":[{"name":"","type":"bytes32","internalType":"bytes32"}],"stateMutability":"view"},{"type":"function","name":"refundAuction","inputs":[{"name":"auction","type":"tuple","internalType":"struct DutchAuction","components":[{"name":"index","type":"uint256","internalType":"uint256"},{"name":"baseCreateOrderParams","type":"tuple","internalType":"struct BaseCreateOrderParams","components":[{"name":"owner","type":"address","internalType":"address"},{"name":"bitcoinScriptPubKey","type":"bytes","internalType":"bytes"},{"name":"salt","type":"bytes32","internalType":"bytes32"},{"name":"confirmationBlocks","type":"uint8","internalType":"uint8"},{"name":"safeBlockLeaf","type":"tuple","internalType":"struct BlockLeaf","components":[{"name":"blockHash","type":"bytes32","internalType":"bytes32"},{"name":"height","type":"uint32","internalType":"uint32"},{"name":"cumulativeChainwork","type":"uint256","internalType":"uint256"}]}]},{"name":"dutchAuctionParams","type":"tuple","internalType":"struct DutchAuctionParams","components":[{"name":"startBtcOut","type":"uint256","internalType":"uint256"},{"name":"endBtcOut","type":"uint256","internalType":"uint256"},{"name":"decayBlocks","type":"uint256","internalType":"uint256"},{"name":"deadline","type":"uint256","internalType":"uint256"},{"name":"fillerWhitelistContract","type":"address","internalType":"address"}]},{"name":"depositAmount","type":"uint256","internalType":"uint256"},{"name":"startBlock","type":"uint256","internalType":"uint256"},{"name":"startTimestamp","type":"uint256","internalType":"uint256"},{"name":"state","type":"uint8","internalType":"enum DutchAuctionState"}]}],"outputs":[],"stateMutability":"nonpayable"},{"type":"function","name":"refundOrder","inputs":[{"name":"order","type":"tuple","internalType":"struct Order","components":[{"name":"index","type":"uint256","internalType":"uint256"},{"name":"timestamp","type":"uint64","internalType":"uint64"},{"name":"unlockTimestamp","type":"uint64","internalType":"uint64"},{"name":"amount","type":"uint256","internalType":"uint256"},{"name":"takerFee","type":"uint256","internalType":"uint256"},{"name":"expectedSats","type":"uint64","internalType":"uint64"},{"name":"bitcoinScriptPubKey","type":"bytes","internalType":"bytes"},{"name":"designatedReceiver","type":"address","internalType":"address"},{"name":"owner","type":"address","internalType":"address"},{"name":"salt","type":"bytes32","internalType":"bytes32"},{"name":"confirmationBlocks","type":"uint8","internalType":"uint8"},{"name":"safeBitcoinBlockHeight","type":"uint64","internalType":"uint64"},{"name":"state","type":"uint8","internalType":"enum OrderState"}]}],"outputs":[],"stateMutability":"nonpayable"},{"type":"function","name":"removeHypernode","inputs":[{"name":"_hypernode","type":"address","internalType":"address"}],"outputs":[],"stateMutability":"nonpayable"},{"type":"function","name":"renounceOwnership","inputs":[],"outputs":[],"stateMutability":"payable"},{"type":"function","name":"requestOwnershipHandover","inputs":[],"outputs":[],"stateMutability":"payable"},{"type":"function","name":"settleOrders","inputs":[{"name":"settleOrderParams","type":"tuple[]","internalType":"struct SettleOrderParams[]","components":[{"name":"order","type":"tuple","internalType":"struct Order","components":[{"name":"index","type":"uint256","internalType":"uint256"},{"name":"timestamp","type":"uint64","internalType":"uint64"},{"name":"unlockTimestamp","type":"uint64","internalType":"uint64"},{"name":"amount","type":"uint256","internalType":"uint256"},{"name":"takerFee","type":"uint256","internalType":"uint256"},{"name":"expectedSats","type":"uint64","internalType":"uint64"},{"name":"bitcoinScriptPubKey","type":"bytes","internalType":"bytes"},{"name":"designatedReceiver","type":"address","internalType":"address"},{"name":"owner","type":"address","internalType":"address"},{"name":"salt","type":"bytes32","internalType":"bytes32"},{"name":"confirmationBlocks","type":"uint8","internalType":"uint8"},{"name":"safeBitcoinBlockHeight","type":"uint64","internalType":"uint64"},{"name":"state","type":"uint8","internalType":"enum OrderState"}]},{"name":"payment","type":"tuple","internalType":"struct Payment","components":[{"name":"index","type":"uint256","internalType":"uint256"},{"name":"orderIndex","type":"uint256","internalType":"uint256"},{"name":"orderHash","type":"bytes32","internalType":"bytes32"},{"name":"paymentBitcoinBlockLeaf","type":"tuple","internalType":"struct BlockLeaf","components":[{"name":"blockHash","type":"bytes32","internalType":"bytes32"},{"name":"height","type":"uint32","internalType":"uint32"},{"name":"cumulativeChainwork","type":"uint256","internalType":"uint256"}]},{"name":"challengeExpiryTimestamp","type":"uint64","internalType":"uint64"},{"name":"state","type":"uint8","internalType":"enum PaymentState"}]},{"name":"paymentBitcoinBlockSiblings","type":"bytes32[]","internalType":"bytes32[]"},{"name":"paymentBitcoinBlockPeaks","type":"bytes32[]","internalType":"bytes32[]"},{"name":"tipBlockHeight","type":"uint32","internalType":"uint32"}]}],"outputs":[],"stateMutability":"nonpayable"},{"type":"function","name":"startAuction","inputs":[{"name":"depositAmount","type":"uint256","internalType":"uint256"},{"name":"auctionParams","type":"tuple","internalType":"struct DutchAuctionParams","components":[{"name":"startBtcOut","type":"uint256","internalType":"uint256"},{"name":"endBtcOut","type":"uint256","internalType":"uint256"},{"name":"decayBlocks","type":"uint256","internalType":"uint256"},{"name":"deadline","type":"uint256","internalType":"uint256"},{"name":"fillerWhitelistContract","type":"address","internalType":"address"}]},{"name":"baseCreateOrderParams","type":"tuple","internalType":"struct BaseCreateOrderParams","components":[{"name":"owner","type":"address","internalType":"address"},{"name":"bitcoinScriptPubKey","type":"bytes","internalType":"bytes"},{"name":"salt","type":"bytes32","internalType":"bytes32"},{"name":"confirmationBlocks","type":"uint8","internalType":"uint8"},{"name":"safeBlockLeaf","type":"tuple","internalType":"struct BlockLeaf","components":[{"name":"blockHash","type":"bytes32","internalType":"bytes32"},{"name":"height","type":"uint32","internalType":"uint32"},{"name":"cumulativeChainwork","type":"uint256","internalType":"uint256"}]}]}],"outputs":[],"stateMutability":"nonpayable"},{"type":"function","name":"submitPaymentProofs","inputs":[{"name":"paymentParams","type":"tuple[]","internalType":"struct SubmitPaymentProofParams[]","components":[{"name":"paymentBitcoinTxid","type":"bytes32","internalType":"bytes32"},{"name":"order","type":"tuple","internalType":"struct Order","components":[{"name":"index","type":"uint256","internalType":"uint256"},{"name":"timestamp","type":"uint64","internalType":"uint64"},{"name":"unlockTimestamp","type":"uint64","internalType":"uint64"},{"name":"amount","type":"uint256","internalType":"uint256"},{"name":"takerFee","type":"uint256","internalType":"uint256"},{"name":"expectedSats","type":"uint64","internalType":"uint64"},{"name":"bitcoinScriptPubKey","type":"bytes","internalType":"bytes"},{"name":"designatedReceiver","type":"address","internalType":"address"},{"name":"owner","type":"address","internalType":"address"},{"name":"salt","type":"bytes32","internalType":"bytes32"},{"name":"confirmationBlocks","type":"uint8","internalType":"uint8"},{"name":"safeBitcoinBlockHeight","type":"uint64","internalType":"uint64"},{"name":"state","type":"uint8","internalType":"enum OrderState"}]},{"name":"paymentBitcoinBlockLeaf","type":"tuple","internalType":"struct BlockLeaf","components":[{"name":"blockHash","type":"bytes32","internalType":"bytes32"},{"name":"height","type":"uint32","internalType":"uint32"},{"name":"cumulativeChainwork","type":"uint256","internalType":"uint256"}]},{"name":"paymentBitcoinBlockSiblings","type":"bytes32[]","internalType":"bytes32[]"},{"name":"paymentBitcoinBlockPeaks","type":"bytes32[]","internalType":"bytes32[]"}]},{"name":"blockProofParams","type":"tuple","internalType":"struct BlockProofParams","components":[{"name":"priorMmrRoot","type":"bytes32","internalType":"bytes32"},{"name":"newMmrRoot","type":"bytes32","internalType":"bytes32"},{"name":"compressedBlockLeaves","type":"bytes","internalType":"bytes"},{"name":"tipBlockLeaf","type":"tuple","internalType":"struct BlockLeaf","components":[{"name":"blockHash","type":"bytes32","internalType":"bytes32"},{"name":"height","type":"uint32","internalType":"uint32"},{"name":"cumulativeChainwork","type":"uint256","internalType":"uint256"}]}]},{"name":"proof","type":"bytes","internalType":"bytes"}],"outputs":[],"stateMutability":"nonpayable"},{"type":"function","name":"submitPaymentProofsOnly","inputs":[{"name":"paymentParams","type":"tuple[]","internalType":"struct SubmitPaymentProofParams[]","components":[{"name":"paymentBitcoinTxid","type":"bytes32","internalType":"bytes32"},{"name":"order","type":"tuple","internalType":"struct Order","components":[{"name":"index","type":"uint256","internalType":"uint256"},{"name":"timestamp","type":"uint64","internalType":"uint64"},{"name":"unlockTimestamp","type":"uint64","internalType":"uint64"},{"name":"amount","type":"uint256","internalType":"uint256"},{"name":"takerFee","type":"uint256","internalType":"uint256"},{"name":"expectedSats","type":"uint64","internalType":"uint64"},{"name":"bitcoinScriptPubKey","type":"bytes","internalType":"bytes"},{"name":"designatedReceiver","type":"address","internalType":"address"},{"name":"owner","type":"address","internalType":"address"},{"name":"salt","type":"bytes32","internalType":"bytes32"},{"name":"confirmationBlocks","type":"uint8","internalType":"uint8"},{"name":"safeBitcoinBlockHeight","type":"uint64","internalType":"uint64"},{"name":"state","type":"uint8","internalType":"enum OrderState"}]},{"name":"paymentBitcoinBlockLeaf","type":"tuple","internalType":"struct BlockLeaf","components":[{"name":"blockHash","type":"bytes32","internalType":"bytes32"},{"name":"height","type":"uint32","internalType":"uint32"},{"name":"cumulativeChainwork","type":"uint256","internalType":"uint256"}]},{"name":"paymentBitcoinBlockSiblings","type":"bytes32[]","internalType":"bytes32[]"},{"name":"paymentBitcoinBlockPeaks","type":"bytes32[]","internalType":"bytes32[]"}]},{"name":"proof","type":"bytes","internalType":"bytes"}],"outputs":[],"stateMutability":"nonpayable"},{"type":"function","name":"takerFeeBips","inputs":[],"outputs":[{"name":"","type":"uint16","internalType":"uint16"}],"stateMutability":"view"},{"type":"function","name":"tokenizedBitcoin","inputs":[],"outputs":[{"name":"","type":"address","internalType":"address"}],"stateMutability":"view"},{"type":"function","name":"transferOwnership","inputs":[{"name":"newOwner","type":"address","internalType":"address"}],"outputs":[],"stateMutability":"payable"},{"type":"function","name":"updateLightClient","inputs":[{"name":"blockProofParams","type":"tuple","internalType":"struct BlockProofParams","components":[{"name":"priorMmrRoot","type":"bytes32","internalType":"bytes32"},{"name":"newMmrRoot","type":"bytes32","internalType":"bytes32"},{"name":"compressedBlockLeaves","type":"bytes","internalType":"bytes"},{"name":"tipBlockLeaf","type":"tuple","internalType":"struct BlockLeaf","components":[{"name":"blockHash","type":"bytes32","internalType":"bytes32"},{"name":"height","type":"uint32","internalType":"uint32"},{"name":"cumulativeChainwork","type":"uint256","internalType":"uint256"}]}]},{"name":"proof","type":"bytes","internalType":"bytes"}],"outputs":[],"stateMutability":"nonpayable"},{"type":"function","name":"verifier","inputs":[],"outputs":[{"name":"","type":"address","internalType":"address"}],"stateMutability":"view"},{"type":"function","name":"verifyBlockInclusion","inputs":[{"name":"blockLeaf","type":"tuple","internalType":"struct BlockLeaf","components":[{"name":"blockHash","type":"bytes32","internalType":"bytes32"},{"name":"height","type":"uint32","internalType":"uint32"},{"name":"cumulativeChainwork","type":"uint256","internalType":"uint256"}]},{"name":"siblings","type":"bytes32[]","internalType":"bytes32[]"},{"name":"peaks","type":"bytes32[]","internalType":"bytes32[]"}],"outputs":[],"stateMutability":"view"},{"type":"function","name":"verifyProof","inputs":[{"name":"proofPublicInput","type":"tuple","internalType":"struct ProofPublicInput","components":[{"name":"proofType","type":"uint8","internalType":"enum ProofType"},{"name":"payments","type":"tuple[]","internalType":"struct PaymentPublicInput[]","components":[{"name":"paymentBitcoinTxid","type":"bytes32","internalType":"bytes32"},{"name":"paymentBitcoinBlockHash","type":"bytes32","internalType":"bytes32"},{"name":"orderHash","type":"bytes32","internalType":"bytes32"}]},{"name":"lightClient","type":"tuple","internalType":"struct LightClientPublicInput","components":[{"name":"priorMmrRoot","type":"bytes32","internalType":"bytes32"},{"name":"newMmrRoot","type":"bytes32","internalType":"bytes32"},{"name":"compressedLeavesHash","type":"bytes32","internalType":"bytes32"},{"name":"tipBlockLeaf","type":"tuple","internalType":"struct BlockLeaf","components":[{"name":"blockHash","type":"bytes32","internalType":"bytes32"},{"name":"height","type":"uint32","internalType":"uint32"},{"name":"cumulativeChainwork","type":"uint256","internalType":"uint256"}]}]}]},{"name":"proof","type":"bytes","internalType":"bytes"}],"outputs":[],"stateMutability":"view"},{"type":"function","name":"withdrawFees","inputs":[],"outputs":[],"stateMutability":"nonpayable"},{"type":"event","name":"AuctionUpdated","inputs":[{"name":"auction","type":"tuple","indexed":false,"internalType":"struct DutchAuction","components":[{"name":"index","type":"uint256","internalType":"uint256"},{"name":"baseCreateOrderParams","type":"tuple","internalType":"struct BaseCreateOrderParams","components":[{"name":"owner","type":"address","internalType":"address"},{"name":"bitcoinScriptPubKey","type":"bytes","internalType":"bytes"},{"name":"salt","type":"bytes32","internalType":"bytes32"},{"name":"confirmationBlocks","type":"uint8","internalType":"uint8"},{"name":"safeBlockLeaf","type":"tuple","internalType":"struct BlockLeaf","components":[{"name":"blockHash","type":"bytes32","internalType":"bytes32"},{"name":"height","type":"uint32","internalType":"uint32"},{"name":"cumulativeChainwork","type":"uint256","internalType":"uint256"}]}]},{"name":"dutchAuctionParams","type":"tuple","internalType":"struct DutchAuctionParams","components":[{"name":"startBtcOut","type":"uint256","internalType":"uint256"},{"name":"endBtcOut","type":"uint256","internalType":"uint256"},{"name":"decayBlocks","type":"uint256","internalType":"uint256"},{"name":"deadline","type":"uint256","internalType":"uint256"},{"name":"fillerWhitelistContract","type":"address","internalType":"address"}]},{"name":"depositAmount","type":"uint256","internalType":"uint256"},{"name":"startBlock","type":"uint256","internalType":"uint256"},{"name":"startTimestamp","type":"uint256","internalType":"uint256"},{"name":"state","type":"uint8","internalType":"enum DutchAuctionState"}]}],"anonymous":false},{"type":"event","name":"BitcoinLightClientUpdated","inputs":[{"name":"priorMmrRoot","type":"bytes32","indexed":false,"internalType":"bytes32"},{"name":"newMmrRoot","type":"bytes32","indexed":false,"internalType":"bytes32"}],"anonymous":false},{"type":"event","name":"OrderCreated","inputs":[{"name":"order","type":"tuple","indexed":false,"internalType":"struct Order","components":[{"name":"index","type":"uint256","internalType":"uint256"},{"name":"timestamp","type":"uint64","internalType":"uint64"},{"name":"unlockTimestamp","type":"uint64","internalType":"uint64"},{"name":"amount","type":"uint256","internalType":"uint256"},{"name":"takerFee","type":"uint256","internalType":"uint256"},{"name":"expectedSats","type":"uint64","internalType":"uint64"},{"name":"bitcoinScriptPubKey","type":"bytes","internalType":"bytes"},{"name":"designatedReceiver","type":"address","internalType":"address"},{"name":"owner","type":"address","internalType":"address"},{"name":"salt","type":"bytes32","internalType":"bytes32"},{"name":"confirmationBlocks","type":"uint8","internalType":"uint8"},{"name":"safeBitcoinBlockHeight","type":"uint64","internalType":"uint64"},{"name":"state","type":"uint8","internalType":"enum OrderState"}]}],"anonymous":false},{"type":"event","name":"OrderRefunded","inputs":[{"name":"order","type":"tuple","indexed":false,"internalType":"struct Order","components":[{"name":"index","type":"uint256","internalType":"uint256"},{"name":"timestamp","type":"uint64","internalType":"uint64"},{"name":"unlockTimestamp","type":"uint64","internalType":"uint64"},{"name":"amount","type":"uint256","internalType":"uint256"},{"name":"takerFee","type":"uint256","internalType":"uint256"},{"name":"expectedSats","type":"uint64","internalType":"uint64"},{"name":"bitcoinScriptPubKey","type":"bytes","internalType":"bytes"},{"name":"designatedReceiver","type":"address","internalType":"address"},{"name":"owner","type":"address","internalType":"address"},{"name":"salt","type":"bytes32","internalType":"bytes32"},{"name":"confirmationBlocks","type":"uint8","internalType":"uint8"},{"name":"safeBitcoinBlockHeight","type":"uint64","internalType":"uint64"},{"name":"state","type":"uint8","internalType":"enum OrderState"}]}],"anonymous":false},{"type":"event","name":"OrdersSettled","inputs":[{"name":"orders","type":"tuple[]","indexed":false,"internalType":"struct Order[]","components":[{"name":"index","type":"uint256","internalType":"uint256"},{"name":"timestamp","type":"uint64","internalType":"uint64"},{"name":"unlockTimestamp","type":"uint64","internalType":"uint64"},{"name":"amount","type":"uint256","internalType":"uint256"},{"name":"takerFee","type":"uint256","internalType":"uint256"},{"name":"expectedSats","type":"uint64","internalType":"uint64"},{"name":"bitcoinScriptPubKey","type":"bytes","internalType":"bytes"},{"name":"designatedReceiver","type":"address","internalType":"address"},{"name":"owner","type":"address","internalType":"address"},{"name":"salt","type":"bytes32","internalType":"bytes32"},{"name":"confirmationBlocks","type":"uint8","internalType":"uint8"},{"name":"safeBitcoinBlockHeight","type":"uint64","internalType":"uint64"},{"name":"state","type":"uint8","internalType":"enum OrderState"}]},{"name":"payments","type":"tuple[]","indexed":false,"internalType":"struct Payment[]","components":[{"name":"index","type":"uint256","internalType":"uint256"},{"name":"orderIndex","type":"uint256","internalType":"uint256"},{"name":"orderHash","type":"bytes32","internalType":"bytes32"},{"name":"paymentBitcoinBlockLeaf","type":"tuple","internalType":"struct BlockLeaf","components":[{"name":"blockHash","type":"bytes32","internalType":"bytes32"},{"name":"height","type":"uint32","internalType":"uint32"},{"name":"cumulativeChainwork","type":"uint256","internalType":"uint256"}]},{"name":"challengeExpiryTimestamp","type":"uint64","internalType":"uint64"},{"name":"state","type":"uint8","internalType":"enum PaymentState"}]}],"anonymous":false},{"type":"event","name":"OwnershipHandoverCanceled","inputs":[{"name":"pendingOwner","type":"address","indexed":true,"internalType":"address"}],"anonymous":false},{"type":"event","name":"OwnershipHandoverRequested","inputs":[{"name":"pendingOwner","type":"address","indexed":true,"internalType":"address"}],"anonymous":false},{"type":"event","name":"OwnershipTransferred","inputs":[{"name":"oldOwner","type":"address","indexed":true,"internalType":"address"},{"name":"newOwner","type":"address","indexed":true,"internalType":"address"}],"anonymous":false},{"type":"event","name":"PaymentsCreated","inputs":[{"name":"payments","type":"tuple[]","indexed":false,"internalType":"struct Payment[]","components":[{"name":"index","type":"uint256","internalType":"uint256"},{"name":"orderIndex","type":"uint256","internalType":"uint256"},{"name":"orderHash","type":"bytes32","internalType":"bytes32"},{"name":"paymentBitcoinBlockLeaf","type":"tuple","internalType":"struct BlockLeaf","components":[{"name":"blockHash","type":"bytes32","internalType":"bytes32"},{"name":"height","type":"uint32","internalType":"uint32"},{"name":"cumulativeChainwork","type":"uint256","internalType":"uint256"}]},{"name":"challengeExpiryTimestamp","type":"uint64","internalType":"uint64"},{"name":"state","type":"uint8","internalType":"enum PaymentState"}]}],"anonymous":false},{"type":"error","name":"AlreadyInitialized","inputs":[]},{"type":"error","name":"AuctionExpired","inputs":[]},{"type":"error","name":"AuctionNotExpired","inputs":[]},{"type":"error","name":"AuctionNotLive","inputs":[]},{"type":"error","name":"BlockNotConfirmed","inputs":[]},{"type":"error","name":"BlockNotInChain","inputs":[]},{"type":"error","name":"ChainworkTooLow","inputs":[]},{"type":"error","name":"CheckpointNotEstablished","inputs":[]},{"type":"error","name":"DepositAmountTooLow","inputs":[]},{"type":"error","name":"DutchAuctionDoesNotExist","inputs":[]},{"type":"error","name":"FillerNotWhitelisted","inputs":[]},{"type":"error","name":"InvalidAuctionRange","inputs":[]},{"type":"error","name":"InvalidConfirmations","inputs":[]},{"type":"error","name":"InvalidDeadline","inputs":[]},{"type":"error","name":"InvalidDecimals","inputs":[{"name":"actual","type":"uint8","internalType":"uint8"},{"name":"expected","type":"uint8","internalType":"uint8"}]},{"type":"error","name":"InvalidOrderHash","inputs":[{"name":"actual","type":"bytes32","internalType":"bytes32"},{"name":"expected","type":"bytes32","internalType":"bytes32"}]},{"type":"error","name":"InvalidScriptPubKey","inputs":[]},{"type":"error","name":"InvalidTickSize","inputs":[]},{"type":"error","name":"NewOwnerIsZeroAddress","inputs":[]},{"type":"error","name":"NoFeeToWithdraw","inputs":[]},{"type":"error","name":"NoHandoverRequest","inputs":[]},{"type":"error","name":"NoPaymentsToSubmit","inputs":[]},{"type":"error","name":"NotEnoughConfirmationBlocks","inputs":[]},{"type":"error","name":"NotHypernode","inputs":[]},{"type":"error","name":"OrderDoesNotExist","inputs":[]},{"type":"error","name":"OrderNotLive","inputs":[]},{"type":"error","name":"OrderStillActive","inputs":[]},{"type":"error","name":"PaymentDoesNotExist","inputs":[]},{"type":"error","name":"PaymentNotProved","inputs":[]},{"type":"error","name":"SatOutputTooLow","inputs":[]},{"type":"error","name":"StillInChallengePeriod","inputs":[]},{"type":"error","name":"Unauthorized","inputs":[]}],"bytecode":{"object":"0x6101a080604052346103505780613951803803809161001e828561037b565b8339810103610120811261035057815161003a6020840161039e565b60408401519061004c6060860161039e565b926100596080870161039e565b9560a08101519561ffff871687036103505760609060bf1901126103505760405190606082016001600160401b038111838210176103675760405260c0810151825260e081015163ffffffff8116810361035057604061010063ffffffff936020860193845201519301928352306080524660a05260a06040516100de60408261037b565b600c815260208101906b5269667445786368616e676560a01b82526040519161010860408461037b565b60058352602083019164302e302e3160d81b8352519020915190208160c0528060e052604051917f8b73c3c69bb8fe3d512ecc4cf759cc79239f7b179b0ffacaa9a75d522b39400f8352602083015260408201524660608201523060808201522061010052835f555116905160405192604084019284841060018060401b03851117610367576001936040528452602084019182525f528160205263ffffffff60405f2093511663ffffffff198454161783555191015533638b78c6d81955335f7f8be0079c531659141344cd1fd0a4f28419497f9722a3daafe3b4186f6b6457e08180a360405163313ce56760e01b81526020816004816001600160a01b0386165afa801561035c575f9061031b575b60ff915016600881036103045750610120526101405261016052600580546001600160b01b0319166001600160a01b039093169290921760a09190911b61ffff60a01b1617905560405161359e90816103b3823960805181610680015260a0518161065d015260c0518161084c015260e051816108720152610100518161063a015261012051818181610ca901528181610ed4015281816114c40152818161161a01528181611b340152611bb4015261014051818181611bfe0152612400015261016051818181611c530152612315015261018051818181610467015281816117710152612ce90152f35b63047e54d360e31b5f52600452600860245260445ffd5b506020813d602011610354575b816103356020938361037b565b81010312610350575160ff811681036103505760ff90610219565b5f80fd5b3d9150610328565b6040513d5f823e3d90fd5b634e487b7160e01b5f52604160045260245ffd5b601f909101601f19168101906001600160401b0382119082101761036757604052565b51906001600160a01b03821682036103505756fe6080806040526004361015610012575f80fd5b5f3560e01c9081630cd01d8e14611e5f575080631127a80b14611e365780631ea7ec0414611ccb5780632569296214611c825780632b7ac3f314611c3e578063375f16a714611c215780633d7b22b314611be7578063476343ee14611b84578063481c85f114611a6157806354d1f13d14611a1d578063587f5ed714611a00578063592b6649146118ee57806366e143ca14611795578063694a9d9914611755578063708f29a614611738578063715018a6146116ef5780637dd9cb31146115065780637e025807146113d957806384b0196e146113025780638da5cb5b146112d65780639a73f4f5146112b2578063a24462ea14611222578063a743e65e14610e4e578063bb85e18914610d1b578063c286befa14610cd8578063c829854214610c94578063cc38cd7d14610c5a578063cd9f63e314610c16578063d21ddc6114610bfa578063df69558c14610bd1578063e58e0fe314610b89578063eb5e91ff14610b50578063ef29ac8e14610b0f578063f04e283e14610ac2578063f29ebf6114610a9a578063f2fde38b14610a5d578063f3bbbeef14610a25578063fb9f0532146101ff5763fee81cf4146101c9575f80fd5b346101fb5760203660031901126101fb576101e2611e98565b63389a75e1600c525f52602080600c2054604051908152f35b5f80fd5b346101fb5760803660031901126101fb576004356001600160401b0381116101fb5761022f903690600401612164565b6024356001600160401b0381116101fb5761024e9036906004016120c0565b906044356001600160401b0381116101fb5761026e903690600401612232565b91906064356001600160401b0381116101fb5761028f903690600401612232565b939061029a84612b60565b6102a48551611eee565b90549060031b1c03610a165760c0840195600187516102c2816122ed565b6102cb816122ed565b1480156109f9575b6109ea57604085019060608251015142116109db578151608001516001600160a01b031680610937575b5050610329906080860151610317604083510151826127d1565b91519060208251920151924391613285565b916103806020860151926103716060880151966040519561034987611f84565b86526020860194338652604087019889526001600160401b0360608801981688523691612286565b97608085019889523691612286565b9560a08301968752600254966103946129b4565b5061ffff60055460a01c1691865183155f14610909576001905b106108fa576103e86001600160401b03875116106108eb57600260ff60608751015116106108dc576103e4602086510151613328565b156108cd576103fd9160808651015191519051916128b2565b84518181029181830414901517156108aa5761271090049060ff60608451015116620f42406001600160401b0361049c61049761049261045d6104496104446107e061313e565b6131a3565b6064866104558361315f565b1604906131e4565b61048c63ffffffff7f000000000000000000000000000000000000000000000000000000000000000016613180565b906131e4565b6131c4565b612c77565b160460011b906801fffffffffffffffe67fffffffffffffffe8316921682036108aa5780156108be5764e8d4a51000810281810464e8d4a51000036108aa578070ffffffffffffffffffffffffffffffffff1060071b81811c68ffffffffffffffffff1060061b1781811c64ffffffffff1060051b1781811c62ffffff1060041b1760b56201000083831c019160011c1b0260121c8082040160011c8082040160011c8082040160011c8082040160011c8082040160011c8082040160011c8082040160011c8080920410900380630336c1000290630336c1008204036108aa57620f4240900463087fc03001908163087fc030116108aa5780629d78800290629d78808204036108aa576105b0916127d1565b620f42408101908181116108aa57620f423f019081116108aa576001600160401b03620f4240603c920416026001600160401b0381169081036108aa57836001600160401b0361060f816106086106179582976131e4565b16426127d1565b169751613204565b945184516020810151935190516001600160a01b039081169591169392909116907f00000000000000000000000000000000000000000000000000000000000000008a467f000000000000000000000000000000000000000000000000000000000000000014307f000000000000000000000000000000000000000000000000000000000000000014161561081c575b875160409081015181519384526020840152820152606090205b95519663ffffffff6020608060ff60608c0151169a0151015116986040519b6106e98d611f9f565b8c526001600160401b03421660208d015260408c015260608b015260808a015260a089015260c088015260e08701526101008601526101208501526101408401526101608301525f61018083015261074082612fa1565b9160025493600160401b851015610808577fadadc1b62a250c6ad69315c6cbfb680b0f6b50d733bdcdffb4d73e6e22b0a6ac6107dd6001936107c9610803976107b18a887ff8b9da109a8a429429945d6f1c38f3af7b160026a3e9200e7cebae483c6a8c639c016002556002611f1e565b90919082549060031b91821b915f19901b1916179055565b6040519182916020835260208301906127de565b0390a1526107f76107ed82612b60565b6107b18351611eee565b604051918291826124a9565b0390a1005b634e487b7160e01b5f52604160045260245ffd5b50506106c18a60a06040517f8b73c3c69bb8fe3d512ecc4cf759cc79239f7b179b0ffacaa9a75d522b39400f81527f000000000000000000000000000000000000000000000000000000000000000060208201527f000000000000000000000000000000000000000000000000000000000000000060408201524660608201523060808201522091506106a7565b634e487b7160e01b5f52601160045260245ffd5b6311ed5d1f60e31b5f5260045ffd5b63fad7db0760e01b5f5260045ffd5b63bdf8f2b360e01b5f5260045ffd5b63fde5943160e01b5f5260045ffd5b6355fcd02760e01b5f5260045ffd5b836127100161ffff81116108aa5761ffff5f1991160161ffff81116108aa578461ffff8092160416906103ae565b610967916020916040518080958194631f0a8fa760e01b8352336004840152604060248401526044830190612262565b03915afa9081156109d0575f91610995575b50156109865787806102fd565b63754760cb60e11b5f5260045ffd5b90506020813d6020116109c8575b816109b060209383611fd6565b810103126101fb575180151581036101fb5788610979565b3d91506109a3565b6040513d5f823e3d90fd5b630129799f60e21b5f5260045ffd5b6358fd8d1160e01b5f5260045ffd5b5060028751610a07816122ed565b610a10816122ed565b146102d3565b634df2e8a360e01b5f5260045ffd5b346101fb5760203660031901126101fb576004356007548110156101fb57610a4e602091611eee565b90549060031b1c604051908152f35b60203660031901126101fb57610a71611e98565b610a79612f0b565b8060601b15610a8d57610a8b90612f27565b005b637448fbae5f526004601cfd5b346101fb575f3660031901126101fb576005546040516001600160a01b039091168152602090f35b60203660031901126101fb57610ad6611e98565b610ade612f0b565b63389a75e1600c52805f526020600c209081544211610b02575f610a8b9255612f27565b636f5e88185f526004601cfd5b346101fb5760203660031901126101fb57610b28611e98565b610b30612f0b565b6001600160a01b03165f908152600660205260409020805460ff19169055005b346101fb5760203660031901126101fb576004355f5260016020526040805f20600163ffffffff82541691015482519182526020820152f35b346101fb5760203660031901126101fb5760043561ffff811681036101fb57610bb0612f0b565b6005805461ffff60a01b191660a09290921b61ffff60a01b16919091179055005b346101fb5760203660031901126101fb576004356002548110156101fb57610a4e602091611f06565b346101fb575f3660031901126101fb5760205f54604051908152f35b346101fb5760203660031901126101fb57610c2f611e98565b610c37612f0b565b6001600160a01b03165f908152600660205260409020805460ff19166001179055005b346101fb575f3660031901126101fb576020610c865f545f52600160205263ffffffff60405f20541690565b63ffffffff60405191168152f35b346101fb575f3660031901126101fb576040517f00000000000000000000000000000000000000000000000000000000000000006001600160a01b03168152602090f35b346101fb5760203660031901126101fb57610cf1611e98565b610cf9612f0b565b600580546001600160a01b0319166001600160a01b0392909216919091179055005b346101fb5760403660031901126101fb576004356001600160401b0381116101fb57610d4b903690600401612232565b906024356001600160401b0381116101fb57610d6b90369060040161204e565b92335f52600660205260ff60405f20541615610e3f577ffcc0bf5af37d2416462f15b1eb9168c1d1741ed5c3ec7905490d015c611dba2b93610dcd610e2b9261080395610dc85f545f52600160205263ffffffff60405f20541690565b612c95565b604094919451610ddc81611f33565b5f81525f60208201525f604082015260405190610df882611f4e565b5f82525f60208301525f6040830152606082015260405191610e1983611f33565b5f83526020830152604082015261230b565b604051918291602083526020830190612660565b631ad0d2eb60e01b5f5260045ffd5b346101fb5760203660031901126101fb576004356001600160401b0381116101fb57610e7e903690600401612232565b90335f52600660205260ff60405f20541615610e3f57610e9d8261293a565b90610ea783611ff7565b92610eb56040519485611fd6565b808452601f19610ec482611ff7565b015f5b81811061120b57505f92917f00000000000000000000000000000000000000000000000000000000000000009150835b818110610f9d578686610f0c876004546127d1565b60045560405190604082016040835283518091526060830190602060608260051b8601019501915f905b828210610f72577fd796dafe969ef61dd39d8f2109f42e67c96ad6baac6a79895e7e75d7261da5fd86806108038a898382036020850152612660565b90919295602080610f8f600193605f198a82030186528a516127de565b980192019201909291610f36565b6020610faa828487612a14565b01610fc7610fc0610fbb3684612aa4565b61311c565b9135611ec2565b90549060031b1c036111fc57610100610fe1828487612a14565b013560028110156101fb576111ed576001600160401b0361100e60e0611008848689612a14565b0161269e565b1642106111de5761103161102c611026838588612a14565b80612a37565b612f64565b606061103e838588612a14565b013581036111ba57506001906110bb61106436608061105e85888b612a14565b0161200e565b848761107f611074868484612a14565b610120810190612a4d565b9060ff6110b46101406110ae6110268b6110a661109d828c8c612a14565b85810190612a4d565b9a9099612a14565b01612a82565b169461308a565b6110d96110c9828588612a14565b6110d4369180612a37565b6126c6565b826101808201526110f66110ec82612fa1565b6107b18351611f06565b611100828a612a90565b5261110b8189612a90565b5061116861112636602061112085888b612a14565b01612aa4565b968360a08901526111506111398961311c565b6107b16020611149878a8d612a14565b0135611ec2565b608061116061102685888b612a14565b0135906127d1565b9561119e61118560e061117f61102686898c612a14565b016127bd565b606061119561102686898c612a14565b01359087612b0f565b6111a88289612a90565b526111b38188612a90565b5001610ef7565b60606111c7838588612a14565b0135638f83aff160e01b5f5260045260245260445ffd5b632d5c37f560e21b5f5260045ffd5b6304261aed60e21b5f5260045ffd5b636f8e482b60e11b5f5260045ffd5b6020906112166129b4565b82828901015201610ec7565b346101fb57366003190160a081126101fb576060136101fb5760405161124781611f33565b600435815260243563ffffffff811681036101fb57602082015260443560408201526064356001600160401b0381116101fb576112889036906004016122d2565b90608435916001600160401b0383116101fb576112ac610a8b9336906004016122d2565b916128b2565b346101fb575f3660031901126101fb57602061ffff60055460a01c16604051908152f35b346101fb575f3660031901126101fb57638b78c6d819546040516001600160a01b039091168152602090f35b346101fb575f3660031901126101fb5761137b60406113888151916113278184611fd6565b600c83526b5269667445786368616e676560a01b6020840152805161134c8282611fd6565b6005815264302e302e3160d81b60208201528151948594600f60f81b865260e0602087015260e0860190612262565b9184830390850152612262565b4660608301523060808301525f60a083015281810360c083015260206060519182815201906080905f5b8181106113c0575050500390f35b82518452859450602093840193909201916001016113b2565b346101fb5760203660031901126101fb576004356001600160401b0381116101fb57806004016101a060031983360301126101fb5761141781612f64565b5061018482013560038110156101fb57611430816122ed565b6114f7576001600160401b036114486044840161269e565b1642106114e8577f401ceec6722e041e3a2bf9967184263dd4108d58dc1bf32cdc3db346840ecec8916107c96114826108039336906126c6565b9160026101808401526114a161149784612fa1565b6107b18551611f06565b6114c16114b161010483016127bd565b91606460848201359101356127d1565b907f0000000000000000000000000000000000000000000000000000000000000000612b0f565b631ef96db360e21b5f5260045ffd5b6352bfa29d60e01b5f5260045ffd5b346101fb5760e03660031901126101fb5760043560a03660231901126101fb576040519061153382611fbb565b602435825260443560208301908152606435604084019081526084356060850190815290939160a4356001600160a01b03811681036101fb57608084015260c435946001600160401b0386116101fb5760e060031987360301126101fb5751156116e0578251905110156116d1575142116116c2576115c860075493604051946115bc86611f69565b855236906004016120ec565b602084015260408301528060608301524360808301524260a08301525f60c08301526115f382612b60565b60075490600160401b821015610808576107b182600161161894016007556007611f1e565b7f000000000000000000000000000000000000000000000000000000000000000060405191606052306040523360601b602c526323b872dd60601b600c5260205f6064601c82855af1908160015f511416156116a4575b7ff8b9da109a8a429429945d6f1c38f3af7b160026a3e9200e7cebae483c6a8c638380610803875f60605282604052826124a9565b3b153d1710156116b557828061166f565b637939f4245f526004601cfd5b631da7447960e21b5f5260045ffd5b63c85c889b60e01b5f5260045ffd5b63747a60fb60e01b5f5260045ffd5b5f3660031901126101fb57611702612f0b565b5f638b78c6d819547f8be0079c531659141344cd1fd0a4f28419497f9722a3daafe3b4186f6b6457e08280a35f638b78c6d81955005b346101fb575f3660031901126101fb576020600354604051908152f35b346101fb575f3660031901126101fb57602060405163ffffffff7f0000000000000000000000000000000000000000000000000000000000000000168152f35b346101fb5760603660031901126101fb576004356001600160401b0381116101fb576117c5903690600401612232565b6024356001600160401b0381116101fb57806004019260c060031983360301126101fb576044356001600160401b0381116101fb5761180890369060040161204e565b90335f52600660205260ff60405f20541615610e3f5760248401359580356064860161183e611837368361200e565b8a84612b89565b60848701359063ffffffff821682036101fb577ffcc0bf5af37d2416462f15b1eb9168c1d1741ed5c3ec7905490d015c611dba2b996118a161189a6044966118906108039d610e2b9c6118c998612c95565b98909c01906125a4565b369161207b565b6020815191012090604051946118b686611f4e565b855260208501526040840152369061200e565b6060820152604051916118db83611f33565b600283526020830152604082015261230b565b346101fb5760403660031901126101fb576004356001600160401b0381116101fb578060040160c060031983360301126101fb576024356001600160401b0381116101fb5761194190369060040161204e565b91335f52600660205260ff60405f20541615610e3f57803561198761189a60248701359360446064890198611980611979368c61200e565b8888612b89565b01906125a4565b8051602091909101206040519261199f602085611fd6565b5f84525f805b8181106119e9575050956119c491610a8b97604051946118b686611f4e565b6060820152604051916119d683611f33565b600183526020830152604082015261230b565b6020906119f46125d6565b828289010152016119a5565b346101fb575f3660031901126101fb576020600454604051908152f35b5f3660031901126101fb5763389a75e1600c52335f525f6020600c2055337ffa7b8eab7da67f412cc9575ed43464468f9bfbae89d1675917346ca6d8fe3c925f80a2005b346101fb5760203660031901126101fb576004356001600160401b0381116101fb57611a91903690600401612164565b611a9a81612b60565b611aa48251611eee565b90549060031b1c03610a165760c0810160018151611ac1816122ed565b611aca816122ed565b148015611b67575b6109ea576060604083015101514210611b58577ff8b9da109a8a429429945d6f1c38f3af7b160026a3e9200e7cebae483c6a8c639160026108039252611b1a6107ed82612b60565b60208101515160608201516107f7916001600160a01b03167f0000000000000000000000000000000000000000000000000000000000000000612b0f565b639eafe1b760e01b5f5260045ffd5b5060028151611b75816122ed565b611b7e816122ed565b14611ad2565b346101fb575f3660031901126101fb576004548015611bd8575f600455600554610a8b91906001600160a01b03167f0000000000000000000000000000000000000000000000000000000000000000612b0f565b630c5214e560e31b5f5260045ffd5b346101fb575f3660031901126101fb5760206040517f00000000000000000000000000000000000000000000000000000000000000008152f35b346101fb575f3660031901126101fb576020600254604051908152f35b346101fb575f3660031901126101fb576040517f00000000000000000000000000000000000000000000000000000000000000006001600160a01b03168152602090f35b5f3660031901126101fb5763389a75e1600c52335f526202a30042016020600c2055337fdbf36a107da19e49527a7176a1babf963b4b0ff8cde35ee35d6cd8f1f9ac7e1d5f80a2005b346101fb5760403660031901126101fb576004356001600160401b0381116101fb57803603906101006003198301126101fb5760405191611d0b83611f33565b816004013560038110156101fb57835260248201356001600160401b0381116101fb578201366023820112156101fb576004810135611d4981611ff7565b91611d576040519384611fd6565b818352602060046060828601940283010101903682116101fb57602401915b818310611dfa57505050602084015260c0604319909101126101fb57611dc760405191611da283611f4e565b60448101358352606481013560208401526084810135604084015260a436910161200e565b60608201526040820152602435906001600160401b0382116101fb57611df4610a8b92369060040161204e565b9161230b565b6060833603126101fb576020606091604051611e1581611f33565b85358152828601358382015260408601356040820152815201920191611d76565b346101fb5760203660031901126101fb576004356003548110156101fb57610a4e602091611ec2565b346101fb5760203660031901126101fb576020906001600160a01b03611e83611e98565b165f526006825260ff60405f20541615158152f35b600435906001600160a01b03821682036101fb57565b35906001600160a01b03821682036101fb57565b600354811015611eda5760035f5260205f2001905f90565b634e487b7160e01b5f52603260045260245ffd5b600754811015611eda5760075f5260205f2001905f90565b600254811015611eda5760025f5260205f2001905f90565b8054821015611eda575f5260205f2001905f90565b606081019081106001600160401b0382111761080857604052565b608081019081106001600160401b0382111761080857604052565b60e081019081106001600160401b0382111761080857604052565b60c081019081106001600160401b0382111761080857604052565b6101a081019081106001600160401b0382111761080857604052565b60a081019081106001600160401b0382111761080857604052565b90601f801991011681019081106001600160401b0382111761080857604052565b6001600160401b0381116108085760051b60200190565b91908260609103126101fb5760405161202681611f33565b809280358252602081013563ffffffff811681036101fb576020830152604090810135910152565b9181601f840112156101fb578235916001600160401b0383116101fb57602083818601950101116101fb57565b9291926001600160401b03821161080857604051916120a4601f8201601f191660200184611fd6565b8294818452818301116101fb578281602093845f960137010152565b9080601f830112156101fb578160206120db9335910161207b565b90565b359060ff821682036101fb57565b919060e0838203126101fb576040519061210582611fbb565b819361211081611eae565b83526020810135916001600160401b0383116101fb5760808261213983839661215f96016120c0565b602087015260408101356040870152612154606082016120de565b60608701520161200e565b910152565b91908281039261016084126101fb576040519161218083611f69565b82948235845260208301356001600160401b0381116101fb5760a0926121a79185016120ec565b6020850152603f1901126101fb57610140906040516121c581611fbb565b60408201358152606082013560208201526080820135604082015260a082013560608201526121f660c08301611eae565b6080820152604084015260e08101356060840152610100810135608084015261012081013560a084015201359060038210156101fb5760c00152565b9181601f840112156101fb578235916001600160401b0383116101fb576020808501948460051b0101116101fb57565b805180835260209291819084018484015e5f828201840152601f01601f1916010190565b92919061229281611ff7565b936122a06040519586611fd6565b602085838152019160051b81019283116101fb57905b8282106122c257505050565b81358152602091820191016122b6565b9080601f830112156101fb578160206120db93359101612286565b600311156122f757565b634e487b7160e01b5f52602160045260245ffd5b9060018060a01b037f000000000000000000000000000000000000000000000000000000000000000016604051926020808501528361014081018251612350816122ed565b604083015260208301519061010060608401528151809152602061016084019201905f5b818110612477575050506123cc606060406123da95015180516080860152602081015160a0860152604081015160c0860152015160e0840190604080918051845263ffffffff60208201511660208501520151910152565b03601f198101855284611fd6565b803b156101fb5761243560205f9486946040519788968795869463020a49e360e51b86527f00000000000000000000000000000000000000000000000000000000000000006004870152606060248701526064860190612262565b84810360031901604486015281815292858401378181018401889052601f01601f1916010301915afa80156109d05761246b5750565b5f61247591611fd6565b565b919493509160206060600192604088518051835284810151858401520151604082015201950191019187939492612374565b602081528151602082015261016060c060208401519382604085015260018060a01b0385511661018085015261253760806124f5602088015160e06101a0890152610260880190612262565b6040808901516101c0890152606089015160ff166101e089015291909701518051610200880152602081015163ffffffff166102208801520151610240860152565b60408101518051606086015260208101516080860152604081015160a0860152606081015183860152608060018060a01b039101511660e08501526060810151610100850152608081015161012085015260a081015161014085015201519161259f836122ed565b015290565b903590601e19813603018212156101fb57018035906001600160401b0382116101fb576020019181360383136101fb57565b604051906125e382611f33565b5f6040838281528260208201520152565b60a09080518352602081015160208401526040810151604084015261263b60608201516060850190604080918051845263ffffffff60208201511660208501520151910152565b6001600160401b0360808201511660c084015201519060028210156122f75760e00152565b90602080835192838152019201905f5b81811061267d5750505090565b90919260206101008261269360019488516125f4565b019401929101612670565b356001600160401b03811681036101fb5790565b35906001600160401b03821682036101fb57565b91906101a0838203126101fb57604051906126e082611f9f565b8193803583526126f2602082016126b2565b6020840152612703604082016126b2565b6040840152606081013560608401526080810135608084015261272860a082016126b2565b60a084015260c08101356001600160401b0381116101fb576101809261274f9183016120c0565b60c084015261276060e08201611eae565b60e08401526127726101008201611eae565b61010084015261012081013561012084015261279161014082016120de565b6101408401526127a461016082016126b2565b61016084015201359060038210156101fb576101800152565b356001600160a01b03811681036101fb5790565b919082018092116108aa57565b90815181526001600160401b0360208301511660208201526001600160401b03604083015116604082015260608201516060820152608082015160808201526001600160401b0360a08301511660a08201526101808061284f60c08501516101a060c08601526101a0850190612262565b9360018060a01b0360e08201511660e085015260018060a01b036101008201511661010085015261012081015161012085015260ff610140820151166101408501526001600160401b036101608201511661016085015201519161259f836122ed565b9063ffffffff6128e583516020850194604084875116910151919091606092604051928352602083015260408201522090565b92511692600163ffffffff61290a5f545f52600160205263ffffffff60405f20541690565b16019163ffffffff83116108aa57612924945f5494612fbe565b1561292b57565b632814065160e01b5f5260045ffd5b9061294482611ff7565b6129516040519182611fd6565b8281528092612962601f1991611ff7565b01905f5b82811061297257505050565b60209060405161298181611f84565b5f81525f838201525f60408201526129976125d6565b60608201525f60808201525f60a082015282828501015201612966565b604051906129c182611f9f565b5f610180838281528260208201528260408201528260608201528260808201528260a0820152606060c08201528260e0820152826101008201528261012082015282610140820152826101608201520152565b9190811015611eda5760051b8101359061017e19813603018212156101fb570190565b90359061019e19813603018212156101fb570190565b903590601e19813603018212156101fb57018035906001600160401b0382116101fb57602001918160051b360383136101fb57565b3560ff811681036101fb5790565b8051821015611eda5760209160051b010190565b919091610100818403126101fb5760e060405191612ac183611f84565b612ae783958235855260208301356020860152604083013560408601526060830161200e565b6060840152612af860c082016126b2565b608084015201359060028210156101fb5760a00152565b919060145260345263a9059cbb60601b5f5260205f6044601082855af1908160015f51141615612b42575b50505f603452565b3b153d171015612b53575f80612b3a565b6390b8ec185f526004601cfd5b604051612b8381612b756020820194856124a9565b03601f198101835282611fd6565b51902090565b9190915f54808414612c7157815f526001602052600160405f20015415612c62575f526001602052600160405f20015491604081019283511115612c5357602063ffffffff91015116915192604051604081018181106001600160401b03821117610808577f4ecbd24cd7522746649cae9ac63fd99619cc85837ae3447a114bbbc3a8043496956040956001928752835260208301908152835f528160205263ffffffff865f2093511663ffffffff1984541617835551910155805f5582519182526020820152a1565b6307800bf560e21b5f5260045ffd5b63e1965c6560e01b5f5260045ffd5b50505050565b6001600160401b035f19911601906001600160401b0382116108aa57565b90918015612efc5792612ca784611ff7565b92612cb56040519485611fd6565b848452601f19612cc486611ff7565b015f5b818110612edf5750508390612cdb8661293a565b91600354905f9463ffffffff7f000000000000000000000000000000000000000000000000000000000000000016955b89811015612ed357612d1d81856127d1565b8160051b86013560de19873603018112156101fb578601602081018b6001600160401b03612de7610160611008612d5761102c8789612a37565b95612d8e8a60408a0197604051612d6d81611f33565b8b358152893560208201528a6040820152612d888383612a90565b52612a90565b50612dd68882612da160a0830183612a4d565b612dc16101406110ae612db960c08896980186612a4d565b969095612a37565b9360ff612dce368e61200e565b95169461308a565b612de08189612a37565b3597612a37565b1663ffffffff8d1603916001600160401b0383116108aa576001600160401b03612e4b81620f42408f612e42610497610492859361048c612e3c612e30610444612e6d9f61313e565b6064886104558361315f565b91613180565b160416426127d1565b169360405195612e5a87611f84565b865260208601526040850152369061200e565b606083015260808201525f60a0820152612e878288612a90565b52612e928187612a90565b50612ea6612ea08288612a90565b5161311c565b90600354600160401b811015610808576001926107b18285612ecd94016003556003611f1e565b01612d0b565b50955095505050935050565b602090612eed9794976125d6565b82828901015201959295612cc7565b630b35156b60e31b5f5260045ffd5b638b78c6d819543303612f1a57565b6382b429005f526004601cfd5b60018060a01b031680638b78c6d819547f8be0079c531659141344cd1fd0a4f28419497f9722a3daafe3b4186f6b6457e05f80a3638b78c6d81955565b612f82612f79612f7436846126c6565b612fa1565b91356002611f1e565b90549060031b1c8103612f925790565b635dcaf2d760e01b5f5260045ffd5b604051612b8381612b7560208201946020865260408301906127de565b939591929490955f945b845186101561301a57600188811c98811603612ffd57612fe88686612a90565b515f52602052600160405f20955b0194612fc8565b6130078686612a90565b51905f52602052600160405f2095612ff6565b95929650925092505f935f5b8251811015613080578161303a8285612a90565b511461304857600101613026565b50509091925060015b156130795761305f90613211565b9081156130795763ffffffff165f5260205260405f201490565b5050505f90565b5050909192613051565b949391926130a06130a8926130af953691612286565b923691612286565b90846128b2565b63ffffffff60206130d05f545f52600160205263ffffffff60405f20541690565b930151169063ffffffff5f1991160163ffffffff81116108aa5763ffffffff160163ffffffff81116108aa5763ffffffff80911691161061310d57565b630a47293560e31b5f5260045ffd5b60405161312d6020820180936125f4565b6101008152612b8361012082611fd6565b6001600160401b031661a34802906001600160401b0382169182036108aa57565b6001600160401b03600a911602906001600160401b0382169182036108aa57565b6001600160401b03620f4240911602906001600160401b0382169182036108aa57565b6001600160401b0363036eaa48911601906001600160401b0382116108aa57565b6001600160401b03620f4240911601906001600160401b0382116108aa57565b906001600160401b03809116911601906001600160401b0382116108aa57565b919082039182116108aa57565b80518015613267575f1981019081116108aa5761322e9082612a90565b519080515f1981019081116108aa57805b61324857505090565b5f1901916132568383612a90565b515f526020528160405f209261323f565b50505f90565b81810392915f1380158285131691841216176108aa57565b9091939293828110156132fd57906132a0816132a693613204565b92613204565b9083808412156132ea576132c2936132bd9161326d565b613305565b600160ff1b81146108aa575f03905b5f82820192831291129080158216911516176108aa5790565b6132bd906132f79461326d565b906132d1565b505050905090565b818102918115918304141782021561331b570490565b63ad251c275f526004601cfd5b80516016811461352657601781146134af57601981146133de5760221461334e57505f90565b805115611eda576020810180516001600160f81b03191680156133c057605160f81b1461337b5750505f90565b815115611eda57516001600160f81b031916605160f81b14908161339d575090565b8091505160011015611eda57602101516001600160f81b031916600160fd1b1490565b50815115611eda57516001600160f81b03191615908161339d575090565b50805115611eda5760208101516001600160f81b031916603b60f91b149081613488575b81613461575b8161343a575b81613417575090565b8091505160181015611eda57603801516001600160f81b031916602b60fa1b1490565b8091505160171015611eda5760378101516001600160f81b031916601160fb1b149061340e565b8091505160021015611eda5760228101516001600160f81b031916600560fa1b1490613408565b8091505160011015611eda5760218101516001600160f81b03191660a960f81b1490613402565b50805115611eda5760208101516001600160f81b03191660a960f81b1490816134ff575b816134dc575090565b8091505160161015611eda57603601516001600160f81b031916608760f81b1490565b8091505160011015611eda5760218101516001600160f81b031916600560fa1b14906134d3565b15611eda5760208101516001600160f81b031916159081613545575090565b8091505160011015611eda57602101516001600160f81b031916600560fa1b149056fea2646970667358221220d5bcd0a8636dd1ae4c63bc5836807594528adf6353643f6fcf0ea69fee766c4164736f6c634300081c0033","linkReferences":{}},"methodIdentifiers":{"accumulatedFees()":"587f5ed7","addHypernode(address)":"cd9f63e3","adminSetFeeRouter(address)":"c286befa","adminSetTakerFeeBips(uint16)":"e58e0fe3","auctionHashes(uint256)":"f3bbbeef","blockFinalityTime()":"694a9d99","cancelOwnershipHandover()":"54d1f13d","checkpoints(bytes32)":"eb5e91ff","circuitVerificationKey()":"3d7b22b3","claimAuction((uint256,(address,bytes,bytes32,uint8,(bytes32,uint32,uint256)),(uint256,uint256,uint256,uint256,address),uint256,uint256,uint256,uint8),bytes,bytes32[],bytes32[])":"fb9f0532","completeOwnershipHandover(address)":"f04e283e","eip712Domain()":"84b0196e","feeRouter()":"f29ebf61","getTotalOrders()":"375f16a7","getTotalPayments()":"708f29a6","hypernodes(address)":"0cd01d8e","lightClientHeight()":"cc38cd7d","mmrRoot()":"d21ddc61","orderHashes(uint256)":"df69558c","owner()":"8da5cb5b","ownershipHandoverExpiresAt(address)":"fee81cf4","paymentHashes(uint256)":"1127a80b","refundAuction((uint256,(address,bytes,bytes32,uint8,(bytes32,uint32,uint256)),(uint256,uint256,uint256,uint256,address),uint256,uint256,uint256,uint8))":"481c85f1","refundOrder((uint256,uint64,uint64,uint256,uint256,uint64,bytes,address,address,bytes32,uint8,uint64,uint8))":"7e025807","removeHypernode(address)":"ef29ac8e","renounceOwnership()":"715018a6","requestOwnershipHandover()":"25692962","settleOrders(((uint256,uint64,uint64,uint256,uint256,uint64,bytes,address,address,bytes32,uint8,uint64,uint8),(uint256,uint256,bytes32,(bytes32,uint32,uint256),uint64,uint8),bytes32[],bytes32[],uint32)[])":"a743e65e","startAuction(uint256,(uint256,uint256,uint256,uint256,address),(address,bytes,bytes32,uint8,(bytes32,uint32,uint256)))":"7dd9cb31","submitPaymentProofs((bytes32,(uint256,uint64,uint64,uint256,uint256,uint64,bytes,address,address,bytes32,uint8,uint64,uint8),(bytes32,uint32,uint256),bytes32[],bytes32[])[],(bytes32,bytes32,bytes,(bytes32,uint32,uint256)),bytes)":"66e143ca","submitPaymentProofsOnly((bytes32,(uint256,uint64,uint64,uint256,uint256,uint64,bytes,address,address,bytes32,uint8,uint64,uint8),(bytes32,uint32,uint256),bytes32[],bytes32[])[],bytes)":"bb85e189","takerFeeBips()":"9a73f4f5","tokenizedBitcoin()":"c8298542","transferOwnership(address)":"f2fde38b","updateLightClient((bytes32,bytes32,bytes,(bytes32,uint32,uint256)),bytes)":"592b6649","verifier()":"2b7ac3f3","verifyBlockInclusion((bytes32,uint32,uint256),bytes32[],bytes32[])":"a24462ea","verifyProof((uint8,(bytes32,bytes32,bytes32)[],(bytes32,bytes32,bytes32,(bytes32,uint32,uint256))),bytes)":"1ea7ec04","withdrawFees()":"476343ee"},"storageLayout":{"storage":[{"astId":53833,"contract":"src/BTCDutchAuctionHouse.sol:BTCDutchAuctionHouse","label":"mmrRoot","offset":0,"slot":"0","type":"t_bytes32"},{"astId":53838,"contract":"src/BTCDutchAuctionHouse.sol:BTCDutchAuctionHouse","label":"checkpoints","offset":0,"slot":"1","type":"t_mapping(t_bytes32,t_struct(Checkpoint)55400_storage)"},{"astId":54247,"contract":"src/BTCDutchAuctionHouse.sol:BTCDutchAuctionHouse","label":"orderHashes","offset":0,"slot":"2","type":"t_array(t_bytes32)dyn_storage"},{"astId":54250,"contract":"src/BTCDutchAuctionHouse.sol:BTCDutchAuctionHouse","label":"paymentHashes","offset":0,"slot":"3","type":"t_array(t_bytes32)dyn_storage"},{"astId":54252,"contract":"src/BTCDutchAuctionHouse.sol:BTCDutchAuctionHouse","label":"accumulatedFees","offset":0,"slot":"4","type":"t_uint256"},{"astId":54254,"contract":"src/BTCDutchAuctionHouse.sol:BTCDutchAuctionHouse","label":"feeRouter","offset":0,"slot":"5","type":"t_address"},{"astId":54256,"contract":"src/BTCDutchAuctionHouse.sol:BTCDutchAuctionHouse","label":"takerFeeBips","offset":20,"slot":"5","type":"t_uint16"},{"astId":54260,"contract":"src/BTCDutchAuctionHouse.sol:BTCDutchAuctionHouse","label":"hypernodes","offset":0,"slot":"6","type":"t_mapping(t_address,t_bool)"},{"astId":53492,"contract":"src/BTCDutchAuctionHouse.sol:BTCDutchAuctionHouse","label":"auctionHashes","offset":0,"slot":"7","type":"t_array(t_bytes32)dyn_storage"}],"types":{"t_address":{"encoding":"inplace","label":"address","numberOfBytes":"20"},"t_array(t_bytes32)dyn_storage":{"encoding":"dynamic_array","label":"bytes32[]","numberOfBytes":"32","base":"t_bytes32"},"t_bool":{"encoding":"inplace","label":"bool","numberOfBytes":"1"},"t_bytes32":{"encoding":"inplace","label":"bytes32","numberOfBytes":"32"},"t_mapping(t_address,t_bool)":{"encoding":"mapping","key":"t_address","label":"mapping(address => bool)","numberOfBytes":"32","value":"t_bool"},"t_mapping(t_bytes32,t_struct(Checkpoint)55400_storage)":{"encoding":"mapping","key":"t_bytes32","label":"mapping(bytes32 => struct Checkpoint)","numberOfBytes":"32","value":"t_struct(Checkpoint)55400_storage"},"t_struct(Checkpoint)55400_storage":{"encoding":"inplace","label":"struct Checkpoint","numberOfBytes":"64","members":[{"astId":55397,"contract":"src/BTCDutchAuctionHouse.sol:BTCDutchAuctionHouse","label":"height","offset":0,"slot":"0","type":"t_uint32"},{"astId":55399,"contract":"src/BTCDutchAuctionHouse.sol:BTCDutchAuctionHouse","label":"cumulativeChainwork","offset":0,"slot":"1","type":"t_uint256"}]},"t_uint16":{"encoding":"inplace","label":"uint16","numberOfBytes":"2"},"t_uint256":{"encoding":"inplace","label":"uint256","numberOfBytes":"32"},"t_uint32":{"encoding":"inplace","label":"uint32","numberOfBytes":"4"}}},"id":69}