{"abi":[{"type":"constructor","inputs":[{"name":"_mmrRoot","type":"bytes32","internalType":"bytes32"},{"name":"_syntheticBitcoin","type":"address","internalType":"address"},{"name":"_circuitVerificationKey","type":"bytes32","internalType":"bytes32"},{"name":"_verifier","type":"address","internalType":"address"},{"name":"_feeRouter","type":"address","internalType":"address"},{"name":"_takerFeeBips","type":"uint16","internalType":"uint16"},{"name":"_tipBlockLeaf","type":"tuple","internalType":"struct BlockLeaf","components":[{"name":"blockHash","type":"bytes32","internalType":"bytes32"},{"name":"height","type":"uint32","internalType":"uint32"},{"name":"cumulativeChainwork","type":"uint256","internalType":"uint256"}]}],"stateMutability":"nonpayable"},{"type":"function","name":"accumulatedFees","inputs":[],"outputs":[{"name":"","type":"uint256","internalType":"uint256"}],"stateMutability":"view"},{"type":"function","name":"adminSetFeeRouter","inputs":[{"name":"_feeRouter","type":"address","internalType":"address"}],"outputs":[],"stateMutability":"nonpayable"},{"type":"function","name":"adminSetTakerFeeBips","inputs":[{"name":"_takerFeeBips","type":"uint16","internalType":"uint16"}],"outputs":[],"stateMutability":"nonpayable"},{"type":"function","name":"auctionHashes","inputs":[{"name":"","type":"uint256","internalType":"uint256"}],"outputs":[{"name":"","type":"bytes32","internalType":"bytes32"}],"stateMutability":"view"},{"type":"function","name":"cancelOwnershipHandover","inputs":[],"outputs":[],"stateMutability":"payable"},{"type":"function","name":"checkpoints","inputs":[{"name":"","type":"bytes32","internalType":"bytes32"}],"outputs":[{"name":"established","type":"bool","internalType":"bool"},{"name":"tipBlockLeaf","type":"tuple","internalType":"struct BlockLeaf","components":[{"name":"blockHash","type":"bytes32","internalType":"bytes32"},{"name":"height","type":"uint32","internalType":"uint32"},{"name":"cumulativeChainwork","type":"uint256","internalType":"uint256"}]}],"stateMutability":"view"},{"type":"function","name":"circuitVerificationKey","inputs":[],"outputs":[{"name":"","type":"bytes32","internalType":"bytes32"}],"stateMutability":"view"},{"type":"function","name":"completeOwnershipHandover","inputs":[{"name":"pendingOwner","type":"address","internalType":"address"}],"outputs":[],"stateMutability":"payable"},{"type":"function","name":"eip712Domain","inputs":[],"outputs":[{"name":"fields","type":"bytes1","internalType":"bytes1"},{"name":"name","type":"string","internalType":"string"},{"name":"version","type":"string","internalType":"string"},{"name":"chainId","type":"uint256","internalType":"uint256"},{"name":"verifyingContract","type":"address","internalType":"address"},{"name":"salt","type":"bytes32","internalType":"bytes32"},{"name":"extensions","type":"uint256[]","internalType":"uint256[]"}],"stateMutability":"view"},{"type":"function","name":"feeRouter","inputs":[],"outputs":[{"name":"","type":"address","internalType":"address"}],"stateMutability":"view"},{"type":"function","name":"fillAuction","inputs":[{"name":"auction","type":"tuple","internalType":"struct DutchAuction","components":[{"name":"index","type":"uint256","internalType":"uint256"},{"name":"baseCreateOrderParams","type":"tuple","internalType":"struct BaseCreateOrderParams","components":[{"name":"owner","type":"address","internalType":"address"},{"name":"bitcoinScriptPubKey","type":"bytes","internalType":"bytes"},{"name":"salt","type":"bytes32","internalType":"bytes32"},{"name":"confirmationBlocks","type":"uint8","internalType":"uint8"},{"name":"safeBlockLeaf","type":"tuple","internalType":"struct BlockLeaf","components":[{"name":"blockHash","type":"bytes32","internalType":"bytes32"},{"name":"height","type":"uint32","internalType":"uint32"},{"name":"cumulativeChainwork","type":"uint256","internalType":"uint256"}]}]},{"name":"dutchAuctionParams","type":"tuple","internalType":"struct DutchAuctionParams","components":[{"name":"startBtcOut","type":"uint256","internalType":"uint256"},{"name":"endBtcOut","type":"uint256","internalType":"uint256"},{"name":"decayBlocks","type":"uint256","internalType":"uint256"},{"name":"deadline","type":"uint256","internalType":"uint256"},{"name":"fillerWhitelistContract","type":"address","internalType":"address"}]},{"name":"depositAmount","type":"uint256","internalType":"uint256"},{"name":"startBlock","type":"uint256","internalType":"uint256"},{"name":"startTimestamp","type":"uint256","internalType":"uint256"},{"name":"state","type":"uint8","internalType":"enum DutchAuctionState"}]},{"name":"fillerAuthData","type":"bytes","internalType":"bytes"},{"name":"safeBlockSiblings","type":"bytes32[]","internalType":"bytes32[]"},{"name":"safeBlockPeaks","type":"bytes32[]","internalType":"bytes32[]"}],"outputs":[],"stateMutability":"nonpayable"},{"type":"function","name":"getTotalOrders","inputs":[],"outputs":[{"name":"","type":"uint256","internalType":"uint256"}],"stateMutability":"view"},{"type":"function","name":"getTotalPayments","inputs":[],"outputs":[{"name":"","type":"uint256","internalType":"uint256"}],"stateMutability":"view"},{"type":"function","name":"lightClientHeight","inputs":[],"outputs":[{"name":"","type":"uint32","internalType":"uint32"}],"stateMutability":"view"},{"type":"function","name":"mmrRoot","inputs":[],"outputs":[{"name":"","type":"bytes32","internalType":"bytes32"}],"stateMutability":"view"},{"type":"function","name":"orderHashes","inputs":[{"name":"","type":"uint256","internalType":"uint256"}],"outputs":[{"name":"","type":"bytes32","internalType":"bytes32"}],"stateMutability":"view"},{"type":"function","name":"owner","inputs":[],"outputs":[{"name":"result","type":"address","internalType":"address"}],"stateMutability":"view"},{"type":"function","name":"ownershipHandoverExpiresAt","inputs":[{"name":"pendingOwner","type":"address","internalType":"address"}],"outputs":[{"name":"result","type":"uint256","internalType":"uint256"}],"stateMutability":"view"},{"type":"function","name":"paymentHashes","inputs":[{"name":"","type":"uint256","internalType":"uint256"}],"outputs":[{"name":"","type":"bytes32","internalType":"bytes32"}],"stateMutability":"view"},{"type":"function","name":"refundAuction","inputs":[{"name":"auction","type":"tuple","internalType":"struct DutchAuction","components":[{"name":"index","type":"uint256","internalType":"uint256"},{"name":"baseCreateOrderParams","type":"tuple","internalType":"struct BaseCreateOrderParams","components":[{"name":"owner","type":"address","internalType":"address"},{"name":"bitcoinScriptPubKey","type":"bytes","internalType":"bytes"},{"name":"salt","type":"bytes32","internalType":"bytes32"},{"name":"confirmationBlocks","type":"uint8","internalType":"uint8"},{"name":"safeBlockLeaf","type":"tuple","internalType":"struct BlockLeaf","components":[{"name":"blockHash","type":"bytes32","internalType":"bytes32"},{"name":"height","type":"uint32","internalType":"uint32"},{"name":"cumulativeChainwork","type":"uint256","internalType":"uint256"}]}]},{"name":"dutchAuctionParams","type":"tuple","internalType":"struct DutchAuctionParams","components":[{"name":"startBtcOut","type":"uint256","internalType":"uint256"},{"name":"endBtcOut","type":"uint256","internalType":"uint256"},{"name":"decayBlocks","type":"uint256","internalType":"uint256"},{"name":"deadline","type":"uint256","internalType":"uint256"},{"name":"fillerWhitelistContract","type":"address","internalType":"address"}]},{"name":"depositAmount","type":"uint256","internalType":"uint256"},{"name":"startBlock","type":"uint256","internalType":"uint256"},{"name":"startTimestamp","type":"uint256","internalType":"uint256"},{"name":"state","type":"uint8","internalType":"enum DutchAuctionState"}]}],"outputs":[],"stateMutability":"nonpayable"},{"type":"function","name":"refundOrder","inputs":[{"name":"order","type":"tuple","internalType":"struct Order","components":[{"name":"index","type":"uint256","internalType":"uint256"},{"name":"timestamp","type":"uint64","internalType":"uint64"},{"name":"unlockTimestamp","type":"uint64","internalType":"uint64"},{"name":"amount","type":"uint256","internalType":"uint256"},{"name":"takerFee","type":"uint256","internalType":"uint256"},{"name":"expectedSats","type":"uint64","internalType":"uint64"},{"name":"bitcoinScriptPubKey","type":"bytes","internalType":"bytes"},{"name":"designatedReceiver","type":"address","internalType":"address"},{"name":"owner","type":"address","internalType":"address"},{"name":"salt","type":"bytes32","internalType":"bytes32"},{"name":"confirmationBlocks","type":"uint8","internalType":"uint8"},{"name":"safeBitcoinBlockHeight","type":"uint64","internalType":"uint64"}]}],"outputs":[],"stateMutability":"nonpayable"},{"type":"function","name":"renounceOwnership","inputs":[],"outputs":[],"stateMutability":"payable"},{"type":"function","name":"requestOwnershipHandover","inputs":[],"outputs":[],"stateMutability":"payable"},{"type":"function","name":"serializeLightClientPublicInput","inputs":[{"name":"input","type":"tuple","internalType":"struct LightClientPublicInput","components":[{"name":"priorMmrRoot","type":"bytes32","internalType":"bytes32"},{"name":"newMmrRoot","type":"bytes32","internalType":"bytes32"},{"name":"compressedLeavesHash","type":"bytes32","internalType":"bytes32"},{"name":"tipBlockLeaf","type":"tuple","internalType":"struct BlockLeaf","components":[{"name":"blockHash","type":"bytes32","internalType":"bytes32"},{"name":"height","type":"uint32","internalType":"uint32"},{"name":"cumulativeChainwork","type":"uint256","internalType":"uint256"}]}]}],"outputs":[{"name":"","type":"bytes","internalType":"bytes"}],"stateMutability":"pure"},{"type":"function","name":"settleOrders","inputs":[{"name":"settleOrderParams","type":"tuple[]","internalType":"struct SettleOrderParams[]","components":[{"name":"order","type":"tuple","internalType":"struct Order","components":[{"name":"index","type":"uint256","internalType":"uint256"},{"name":"timestamp","type":"uint64","internalType":"uint64"},{"name":"unlockTimestamp","type":"uint64","internalType":"uint64"},{"name":"amount","type":"uint256","internalType":"uint256"},{"name":"takerFee","type":"uint256","internalType":"uint256"},{"name":"expectedSats","type":"uint64","internalType":"uint64"},{"name":"bitcoinScriptPubKey","type":"bytes","internalType":"bytes"},{"name":"designatedReceiver","type":"address","internalType":"address"},{"name":"owner","type":"address","internalType":"address"},{"name":"salt","type":"bytes32","internalType":"bytes32"},{"name":"confirmationBlocks","type":"uint8","internalType":"uint8"},{"name":"safeBitcoinBlockHeight","type":"uint64","internalType":"uint64"}]},{"name":"payment","type":"tuple","internalType":"struct Payment","components":[{"name":"index","type":"uint256","internalType":"uint256"},{"name":"orderHash","type":"bytes32","internalType":"bytes32"},{"name":"paymentBitcoinBlockLeaf","type":"tuple","internalType":"struct BlockLeaf","components":[{"name":"blockHash","type":"bytes32","internalType":"bytes32"},{"name":"height","type":"uint32","internalType":"uint32"},{"name":"cumulativeChainwork","type":"uint256","internalType":"uint256"}]},{"name":"challengeExpiryTimestamp","type":"uint64","internalType":"uint64"},{"name":"state","type":"uint8","internalType":"enum PaymentState"}]},{"name":"paymentBitcoinBlockSiblings","type":"bytes32[]","internalType":"bytes32[]"},{"name":"paymentBitcoinBlockPeaks","type":"bytes32[]","internalType":"bytes32[]"},{"name":"tipBlockHeight","type":"uint32","internalType":"uint32"}]}],"outputs":[],"stateMutability":"nonpayable"},{"type":"function","name":"startAuction","inputs":[{"name":"depositAmount","type":"uint256","internalType":"uint256"},{"name":"auctionParams","type":"tuple","internalType":"struct DutchAuctionParams","components":[{"name":"startBtcOut","type":"uint256","internalType":"uint256"},{"name":"endBtcOut","type":"uint256","internalType":"uint256"},{"name":"decayBlocks","type":"uint256","internalType":"uint256"},{"name":"deadline","type":"uint256","internalType":"uint256"},{"name":"fillerWhitelistContract","type":"address","internalType":"address"}]},{"name":"baseCreateOrderParams","type":"tuple","internalType":"struct BaseCreateOrderParams","components":[{"name":"owner","type":"address","internalType":"address"},{"name":"bitcoinScriptPubKey","type":"bytes","internalType":"bytes"},{"name":"salt","type":"bytes32","internalType":"bytes32"},{"name":"confirmationBlocks","type":"uint8","internalType":"uint8"},{"name":"safeBlockLeaf","type":"tuple","internalType":"struct BlockLeaf","components":[{"name":"blockHash","type":"bytes32","internalType":"bytes32"},{"name":"height","type":"uint32","internalType":"uint32"},{"name":"cumulativeChainwork","type":"uint256","internalType":"uint256"}]}]}],"outputs":[],"stateMutability":"nonpayable"},{"type":"function","name":"submitPaymentProofs","inputs":[{"name":"paymentParams","type":"tuple[]","internalType":"struct SubmitPaymentProofParams[]","components":[{"name":"paymentBitcoinTxid","type":"bytes32","internalType":"bytes32"},{"name":"order","type":"tuple","internalType":"struct Order","components":[{"name":"index","type":"uint256","internalType":"uint256"},{"name":"timestamp","type":"uint64","internalType":"uint64"},{"name":"unlockTimestamp","type":"uint64","internalType":"uint64"},{"name":"amount","type":"uint256","internalType":"uint256"},{"name":"takerFee","type":"uint256","internalType":"uint256"},{"name":"expectedSats","type":"uint64","internalType":"uint64"},{"name":"bitcoinScriptPubKey","type":"bytes","internalType":"bytes"},{"name":"designatedReceiver","type":"address","internalType":"address"},{"name":"owner","type":"address","internalType":"address"},{"name":"salt","type":"bytes32","internalType":"bytes32"},{"name":"confirmationBlocks","type":"uint8","internalType":"uint8"},{"name":"safeBitcoinBlockHeight","type":"uint64","internalType":"uint64"}]},{"name":"paymentBitcoinBlockLeaf","type":"tuple","internalType":"struct BlockLeaf","components":[{"name":"blockHash","type":"bytes32","internalType":"bytes32"},{"name":"height","type":"uint32","internalType":"uint32"},{"name":"cumulativeChainwork","type":"uint256","internalType":"uint256"}]},{"name":"paymentBitcoinBlockSiblings","type":"bytes32[]","internalType":"bytes32[]"},{"name":"paymentBitcoinBlockPeaks","type":"bytes32[]","internalType":"bytes32[]"}]},{"name":"proof","type":"bytes","internalType":"bytes"}],"outputs":[],"stateMutability":"nonpayable"},{"type":"function","name":"submitPaymentProofs","inputs":[{"name":"paymentParams","type":"tuple[]","internalType":"struct SubmitPaymentProofParams[]","components":[{"name":"paymentBitcoinTxid","type":"bytes32","internalType":"bytes32"},{"name":"order","type":"tuple","internalType":"struct Order","components":[{"name":"index","type":"uint256","internalType":"uint256"},{"name":"timestamp","type":"uint64","internalType":"uint64"},{"name":"unlockTimestamp","type":"uint64","internalType":"uint64"},{"name":"amount","type":"uint256","internalType":"uint256"},{"name":"takerFee","type":"uint256","internalType":"uint256"},{"name":"expectedSats","type":"uint64","internalType":"uint64"},{"name":"bitcoinScriptPubKey","type":"bytes","internalType":"bytes"},{"name":"designatedReceiver","type":"address","internalType":"address"},{"name":"owner","type":"address","internalType":"address"},{"name":"salt","type":"bytes32","internalType":"bytes32"},{"name":"confirmationBlocks","type":"uint8","internalType":"uint8"},{"name":"safeBitcoinBlockHeight","type":"uint64","internalType":"uint64"}]},{"name":"paymentBitcoinBlockLeaf","type":"tuple","internalType":"struct BlockLeaf","components":[{"name":"blockHash","type":"bytes32","internalType":"bytes32"},{"name":"height","type":"uint32","internalType":"uint32"},{"name":"cumulativeChainwork","type":"uint256","internalType":"uint256"}]},{"name":"paymentBitcoinBlockSiblings","type":"bytes32[]","internalType":"bytes32[]"},{"name":"paymentBitcoinBlockPeaks","type":"bytes32[]","internalType":"bytes32[]"}]},{"name":"blockProofParams","type":"tuple","internalType":"struct BlockProofParams","components":[{"name":"priorMmrRoot","type":"bytes32","internalType":"bytes32"},{"name":"newMmrRoot","type":"bytes32","internalType":"bytes32"},{"name":"compressedBlockLeaves","type":"bytes","internalType":"bytes"},{"name":"tipBlockLeaf","type":"tuple","internalType":"struct BlockLeaf","components":[{"name":"blockHash","type":"bytes32","internalType":"bytes32"},{"name":"height","type":"uint32","internalType":"uint32"},{"name":"cumulativeChainwork","type":"uint256","internalType":"uint256"}]}]},{"name":"proof","type":"bytes","internalType":"bytes"}],"outputs":[],"stateMutability":"nonpayable"},{"type":"function","name":"syntheticBitcoin","inputs":[],"outputs":[{"name":"","type":"address","internalType":"address"}],"stateMutability":"view"},{"type":"function","name":"takerFeeBips","inputs":[],"outputs":[{"name":"","type":"uint16","internalType":"uint16"}],"stateMutability":"view"},{"type":"function","name":"transferOwnership","inputs":[{"name":"newOwner","type":"address","internalType":"address"}],"outputs":[],"stateMutability":"payable"},{"type":"function","name":"updateLightClient","inputs":[{"name":"blockProofParams","type":"tuple","internalType":"struct BlockProofParams","components":[{"name":"priorMmrRoot","type":"bytes32","internalType":"bytes32"},{"name":"newMmrRoot","type":"bytes32","internalType":"bytes32"},{"name":"compressedBlockLeaves","type":"bytes","internalType":"bytes"},{"name":"tipBlockLeaf","type":"tuple","internalType":"struct BlockLeaf","components":[{"name":"blockHash","type":"bytes32","internalType":"bytes32"},{"name":"height","type":"uint32","internalType":"uint32"},{"name":"cumulativeChainwork","type":"uint256","internalType":"uint256"}]}]},{"name":"proof","type":"bytes","internalType":"bytes"}],"outputs":[],"stateMutability":"nonpayable"},{"type":"function","name":"verifier","inputs":[],"outputs":[{"name":"","type":"address","internalType":"address"}],"stateMutability":"view"},{"type":"function","name":"verifyBlockInclusion","inputs":[{"name":"blockLeaf","type":"tuple","internalType":"struct BlockLeaf","components":[{"name":"blockHash","type":"bytes32","internalType":"bytes32"},{"name":"height","type":"uint32","internalType":"uint32"},{"name":"cumulativeChainwork","type":"uint256","internalType":"uint256"}]},{"name":"siblings","type":"bytes32[]","internalType":"bytes32[]"},{"name":"peaks","type":"bytes32[]","internalType":"bytes32[]"}],"outputs":[],"stateMutability":"view"},{"type":"function","name":"verifyProof","inputs":[{"name":"proofPublicInput","type":"tuple","internalType":"struct ProofPublicInput","components":[{"name":"proofType","type":"uint8","internalType":"enum ProofType"},{"name":"payments","type":"tuple[]","internalType":"struct PaymentPublicInput[]","components":[{"name":"paymentBitcoinTxid","type":"bytes32","internalType":"bytes32"},{"name":"paymentBitcoinBlockHash","type":"bytes32","internalType":"bytes32"},{"name":"orderHash","type":"bytes32","internalType":"bytes32"}]},{"name":"lightClient","type":"tuple","internalType":"struct LightClientPublicInput","components":[{"name":"priorMmrRoot","type":"bytes32","internalType":"bytes32"},{"name":"newMmrRoot","type":"bytes32","internalType":"bytes32"},{"name":"compressedLeavesHash","type":"bytes32","internalType":"bytes32"},{"name":"tipBlockLeaf","type":"tuple","internalType":"struct BlockLeaf","components":[{"name":"blockHash","type":"bytes32","internalType":"bytes32"},{"name":"height","type":"uint32","internalType":"uint32"},{"name":"cumulativeChainwork","type":"uint256","internalType":"uint256"}]}]}]},{"name":"proof","type":"bytes","internalType":"bytes"}],"outputs":[],"stateMutability":"view"},{"type":"function","name":"withdrawFees","inputs":[],"outputs":[],"stateMutability":"nonpayable"},{"type":"event","name":"AuctionUpdated","inputs":[{"name":"auction","type":"tuple","indexed":false,"internalType":"struct DutchAuction","components":[{"name":"index","type":"uint256","internalType":"uint256"},{"name":"baseCreateOrderParams","type":"tuple","internalType":"struct BaseCreateOrderParams","components":[{"name":"owner","type":"address","internalType":"address"},{"name":"bitcoinScriptPubKey","type":"bytes","internalType":"bytes"},{"name":"salt","type":"bytes32","internalType":"bytes32"},{"name":"confirmationBlocks","type":"uint8","internalType":"uint8"},{"name":"safeBlockLeaf","type":"tuple","internalType":"struct BlockLeaf","components":[{"name":"blockHash","type":"bytes32","internalType":"bytes32"},{"name":"height","type":"uint32","internalType":"uint32"},{"name":"cumulativeChainwork","type":"uint256","internalType":"uint256"}]}]},{"name":"dutchAuctionParams","type":"tuple","internalType":"struct DutchAuctionParams","components":[{"name":"startBtcOut","type":"uint256","internalType":"uint256"},{"name":"endBtcOut","type":"uint256","internalType":"uint256"},{"name":"decayBlocks","type":"uint256","internalType":"uint256"},{"name":"deadline","type":"uint256","internalType":"uint256"},{"name":"fillerWhitelistContract","type":"address","internalType":"address"}]},{"name":"depositAmount","type":"uint256","internalType":"uint256"},{"name":"startBlock","type":"uint256","internalType":"uint256"},{"name":"startTimestamp","type":"uint256","internalType":"uint256"},{"name":"state","type":"uint8","internalType":"enum DutchAuctionState"}]}],"anonymous":false},{"type":"event","name":"BitcoinLightClientUpdated","inputs":[{"name":"priorMmrRoot","type":"bytes32","indexed":false,"internalType":"bytes32"},{"name":"newMmrRoot","type":"bytes32","indexed":false,"internalType":"bytes32"}],"anonymous":false},{"type":"event","name":"OrdersUpdated","inputs":[{"name":"orders","type":"tuple[]","indexed":false,"internalType":"struct Order[]","components":[{"name":"index","type":"uint256","internalType":"uint256"},{"name":"timestamp","type":"uint64","internalType":"uint64"},{"name":"unlockTimestamp","type":"uint64","internalType":"uint64"},{"name":"amount","type":"uint256","internalType":"uint256"},{"name":"takerFee","type":"uint256","internalType":"uint256"},{"name":"expectedSats","type":"uint64","internalType":"uint64"},{"name":"bitcoinScriptPubKey","type":"bytes","internalType":"bytes"},{"name":"designatedReceiver","type":"address","internalType":"address"},{"name":"owner","type":"address","internalType":"address"},{"name":"salt","type":"bytes32","internalType":"bytes32"},{"name":"confirmationBlocks","type":"uint8","internalType":"uint8"},{"name":"safeBitcoinBlockHeight","type":"uint64","internalType":"uint64"}]},{"name":"context","type":"uint8","indexed":false,"internalType":"enum OrderUpdateContext"}],"anonymous":false},{"type":"event","name":"OwnershipHandoverCanceled","inputs":[{"name":"pendingOwner","type":"address","indexed":true,"internalType":"address"}],"anonymous":false},{"type":"event","name":"OwnershipHandoverRequested","inputs":[{"name":"pendingOwner","type":"address","indexed":true,"internalType":"address"}],"anonymous":false},{"type":"event","name":"OwnershipTransferred","inputs":[{"name":"oldOwner","type":"address","indexed":true,"internalType":"address"},{"name":"newOwner","type":"address","indexed":true,"internalType":"address"}],"anonymous":false},{"type":"event","name":"PaymentsUpdated","inputs":[{"name":"payments","type":"tuple[]","indexed":false,"internalType":"struct Payment[]","components":[{"name":"index","type":"uint256","internalType":"uint256"},{"name":"orderHash","type":"bytes32","internalType":"bytes32"},{"name":"paymentBitcoinBlockLeaf","type":"tuple","internalType":"struct BlockLeaf","components":[{"name":"blockHash","type":"bytes32","internalType":"bytes32"},{"name":"height","type":"uint32","internalType":"uint32"},{"name":"cumulativeChainwork","type":"uint256","internalType":"uint256"}]},{"name":"challengeExpiryTimestamp","type":"uint64","internalType":"uint64"},{"name":"state","type":"uint8","internalType":"enum PaymentState"}]},{"name":"context","type":"uint8","indexed":false,"internalType":"enum PaymentUpdateContext"}],"anonymous":false},{"type":"error","name":"AlreadyInitialized","inputs":[]},{"type":"error","name":"AuctionAlreadyFilled","inputs":[]},{"type":"error","name":"AuctionAlreadyWithdrawn","inputs":[]},{"type":"error","name":"AuctionExpired","inputs":[]},{"type":"error","name":"AuctionNotExpired","inputs":[]},{"type":"error","name":"BlockNotConfirmed","inputs":[]},{"type":"error","name":"BlockNotInChain","inputs":[]},{"type":"error","name":"ChainworkTooLow","inputs":[]},{"type":"error","name":"CheckpointNotEstablished","inputs":[]},{"type":"error","name":"DepositAmountTooLow","inputs":[]},{"type":"error","name":"DutchAuctionDoesNotExist","inputs":[]},{"type":"error","name":"FillerNotWhitelisted","inputs":[]},{"type":"error","name":"InvalidDeadline","inputs":[]},{"type":"error","name":"InvalidDecimals","inputs":[{"name":"actual","type":"uint8","internalType":"uint8"},{"name":"expected","type":"uint8","internalType":"uint8"}]},{"type":"error","name":"InvalidOrderHash","inputs":[{"name":"actual","type":"bytes32","internalType":"bytes32"},{"name":"expected","type":"bytes32","internalType":"bytes32"}]},{"type":"error","name":"InvalidScriptPubKey","inputs":[]},{"type":"error","name":"InvalidStartBtcOut","inputs":[]},{"type":"error","name":"InvalidTickSize","inputs":[]},{"type":"error","name":"NewOwnerIsZeroAddress","inputs":[]},{"type":"error","name":"NoFeeToWithdraw","inputs":[]},{"type":"error","name":"NoHandoverRequest","inputs":[]},{"type":"error","name":"NoPaymentsToSubmit","inputs":[]},{"type":"error","name":"NotEnoughConfirmationBlocks","inputs":[]},{"type":"error","name":"OrderDoesNotExist","inputs":[]},{"type":"error","name":"OrderNotLive","inputs":[]},{"type":"error","name":"OrderStillActive","inputs":[]},{"type":"error","name":"PaymentDoesNotExist","inputs":[]},{"type":"error","name":"PaymentNotProved","inputs":[]},{"type":"error","name":"SatOutputTooLow","inputs":[]},{"type":"error","name":"StillInChallengePeriod","inputs":[]},{"type":"error","name":"Unauthorized","inputs":[]}],"bytecode":{"object":"0x6101808060405234610351578061373c803803809161001e828561037c565b833981010361012081126103515781519161003b6020820161039f565b60408201519061004d6060840161039f565b9261005a6080820161039f565b9560a08201519561ffff871687036103515760609060bf1901126103515760405191606083016001600160401b038111848210176103685760405260c0810151835260e08101519063ffffffff821682036103515761010091602085015201516040830152306080524660a05260a06040516100d760408261037c565b600c815260208101906b5269667445786368616e676560a01b82526040519161010160408461037c565b60058352602083019164302e302e3160d81b8352519020915190208160c0528060e052604051917f8b73c3c69bb8fe3d512ecc4cf759cc79239f7b179b0ffacaa9a75d522b39400f8352602083015260408201524660608201523060808201522061010052805f5560405191604083019083821060018060401b0383111761036857600392604092835260018552602085019182525f526001602052815f209351151560ff8019865416911617845551805160018501556002840163ffffffff60208301511663ffffffff19825416179055015191015533638b78c6d81955335f7f8be0079c531659141344cd1fd0a4f28419497f9722a3daafe3b4186f6b6457e08180a360405163313ce56760e01b81526020816004816001600160a01b0386165afa801561035d575f9061031c575b60ff915016600881036103055750610120526101405261016052600580546001600160b01b0319166001600160a01b039093169290921760a09190911b61ffff60a01b1617905560405161338890816103b482396080518161080d015260a051816107ea015260c05181610a4b015260e05181610a71015261010051816107c7015261012051818181610dde015281816110890152818161143f015281816114b1015281816115540152611c12015261014051818181611925015261255201526101605181818161197a01526124a00152f35b63047e54d360e31b5f52600452600860245260445ffd5b506020813d602011610355575b816103366020938361037c565b81010312610351575160ff811681036103515760ff90610232565b5f80fd5b3d9150610329565b6040513d5f823e3d90fd5b634e487b7160e01b5f52604160045260245ffd5b601f909101601f19168101906001600160401b0382119082101761036857604052565b51906001600160a01b03821682036103515756fe60806040526004361015610011575f80fd5b5f3560e01c80631127a80b14611cf85780631993d45414611b5d5780631ea7ec04146119f257806325692962146119a95780632b7ac3f314611965578063375f16a7146119485780633d7b22b31461190e5780634570a573146114e4578063476343ee14611481578063481c85f11461134957806354d1f13d14611305578063587f5ed7146112e8578063592b6649146111eb578063708f29a6146111ce578063715018a6146111855780637c2301a6146111085780637dd9cb3114610f3457806384b0196e14610e5d5780638da5cb5b14610e315780639a73f4f514610e0d578063a0d9e24114610dc9578063a24462ea14610d39578063be8cc7ee14610c3b578063c286befa14610bf8578063c6da418614610548578063cc38cd7d1461050b578063d21ddc61146104ef578063df69558c146104c6578063e58e0fe31461047e578063eb5e91ff1461041b578063f04e283e146103ce578063f29ebf61146103a6578063f2fde38b14610369578063f3bbbeef14610331578063f5364364146101db5763fee81cf4146101a5575f80fd5b346101d75760203660031901126101d7576101be611f06565b63389a75e1600c525f52602080600c2054604051908152f35b5f80fd5b346101d75760603660031901126101d7576004356001600160401b0381116101d75761020b903690600401611ed6565b6024356001600160401b0381116101d757806004019260c060031983360301126101d7576044356001600160401b0381116101d75761024e903690600401611ea9565b90853595602485013596606486016102706102693683611e69565b8a84612b64565b60848701359063ffffffff821682036101d7577f5c35180c5b92fc495184f0a3363ce073073d6116f2960f867c3806435a40e933996102d36102cc6044966102c261032c9d6103209c6102fb98612d9d565b98909c019061291d565b3691611f30565b6020815191012090604051946102e886611da9565b8552602085015260408401523690611e69565b60608201526040519161030d83611d8e565b6002835260208301526040820152612496565b604051918291826127d3565b0390a1005b346101d75760203660031901126101d7576004356006548110156101d75761035a602091611d61565b90549060031b1c604051908152f35b60203660031901126101d75761037d611f06565b610385612c78565b8060601b156103995761039790612c94565b005b637448fbae5f526004601cfd5b346101d7575f3660031901126101d7576005546040516001600160a01b039091168152602090f35b60203660031901126101d7576103e2611f06565b6103ea612c78565b63389a75e1600c52805f526020600c20908154421161040e575f6103979255612c94565b636f5e88185f526004601cfd5b346101d75760203660031901126101d7576004355f526001602052608060405f2061047c610450600160ff8454169301612172565b60405192151583526020830190604080918051845263ffffffff60208201511660208501520151910152565bf35b346101d75760203660031901126101d75760043561ffff811681036101d7576104a5612c78565b6005805461ffff60a01b191660a09290921b61ffff60a01b16919091179055005b346101d75760203660031901126101d7576004356002548110156101d75761035a602091611d49565b346101d7575f3660031901126101d75760205f54604051908152f35b346101d7575f3660031901126101d757602061053a5f545f52600160205263ffffffff600260405f2001541690565b63ffffffff60405191168152f35b346101d75760803660031901126101d7576004356001600160401b0381116101d757610578903690600401612019565b6024356001600160401b0381116101d757610597903690600401611f75565b906044356001600160401b0381116101d7576105b7903690600401611ed6565b91906064356001600160401b0381116101d7576105d8903690600401611ed6565b9390916105e484612b4f565b6105ee8551611d61565b90549060031b1c03610be95760c08401956001875161060c81612446565b61061581612446565b14610bda5760408501906060825101514211610bcb578151608001516001600160a01b031680610b27575b505061066c90608086015161065a604083510151826122bb565b9151906020825192015192439161306f565b9160208501516060860151946040519360c08501908582106001600160401b03831117610a07576106d5936106c69260405286526020860194338652604087019889526001600160401b036060880198168852369161210b565b9760808501988952369161210b565b9560a08301968752600254966106e96122c8565b5061ffff60055460a01c1691865183155f14610af9576001905b10610aea576103e86001600160401b0387511610610adb57600260ff6060875101511610610acc57610739602086510151613112565b15610abd5761075291608086510151915190519161294f565b8451818102918183041490151715610aa95761271090049060ff60608451015116611c200263ffffffff8116908103610aa9576107a4836001600160401b0361079c8194426122bb565b169751612fee565b945184516020810151935190516001600160a01b039081169591169392909116907f00000000000000000000000000000000000000000000000000000000000000008a467f000000000000000000000000000000000000000000000000000000000000000014307f0000000000000000000000000000000000000000000000000000000000000000141615610a1b575b875160409081015181519384526020840152820152606090205b95519663ffffffff6020608060ff60608c0151169a0151015116986040519b6108768d611ddf565b8c526001600160401b03421660208d015260408c015260608b015260808a015260a089015260c088015260e08701526101008601526101208501526101408401526101608301526108c682612a17565b60025490600160401b821015610a07576108eb82600161090394016002556002611d79565b90919082549060031b91821b915f19901b1916179055565b61090b612321565b9161091583612361565b5261091f82612361565b50604051604081016040825283518091526060820190602060608260051b8501019501915f905b8282106109dc57505050507ff8b9da109a8a429429945d6f1c38f3af7b160026a3e9200e7cebae483c6a8c63937f3310fbf3c1854748017a4d2421aba183759f0ed6f8fdecf46a7505ba01a5a953828061032c965f602060019701520390a1526109bc6109b282612b4f565b6108eb8351611d61565b60405191829182612822565b634e487b7160e01b5f52602160045260245ffd5b909192956020806109f9600193605f198982030186528a51612382565b980192019201909291610946565b634e487b7160e01b5f52604160045260245ffd5b505061084e8a60a06040517f8b73c3c69bb8fe3d512ecc4cf759cc79239f7b179b0ffacaa9a75d522b39400f81527f000000000000000000000000000000000000000000000000000000000000000060208201527f00000000000000000000000000000000000000000000000000000000000000006040820152466060820152306080820152209150610834565b634e487b7160e01b5f52601160045260245ffd5b63fad7db0760e01b5f5260045ffd5b63bdf8f2b360e01b5f5260045ffd5b63fde5943160e01b5f5260045ffd5b6355fcd02760e01b5f5260045ffd5b836127100161ffff8111610aa95761ffff5f1991160161ffff8111610aa9578461ffff809216041690610703565b610b57916020916040518080958194631f0a8fa760e01b83523360048401526040602484015260448301906120e7565b03915afa908115610bc0575f91610b85575b5015610b76578780610640565b63754760cb60e11b5f5260045ffd5b90506020813d602011610bb8575b81610ba060209383611e31565b810103126101d7575180151581036101d75788610b69565b3d9150610b93565b6040513d5f823e3d90fd5b630129799f60e21b5f5260045ffd5b63ab2e1f8760e01b5f5260045ffd5b634df2e8a360e01b5f5260045ffd5b346101d75760203660031901126101d757610c11611f06565b610c19612c78565b600580546001600160a01b0319166001600160a01b0392909216919091179055005b346101d75760403660031901126101d7576004356001600160401b0381116101d757610c6b903690600401611ed6565b602435916001600160401b0383116101d75761032061032c92610cdb610cb67f5c35180c5b92fc495184f0a3363ce073073d6116f2960f867c3806435a40e933963690600401611ea9565b929094610cd65f545f52600160205263ffffffff600260405f2001541690565b612d9d565b604094919451610cea81611d8e565b5f81525f60208201525f604082015260405190610d0682611da9565b5f82525f60208301525f6040830152606082015260405191610d2783611d8e565b5f835260208301526040820152612496565b346101d757366003190160a081126101d7576060136101d757604051610d5e81611d8e565b600435815260243563ffffffff811681036101d757602082015260443560408201526064356001600160401b0381116101d757610d9f903690600401612157565b90608435916001600160401b0383116101d757610dc3610397933690600401612157565b9161294f565b346101d7575f3660031901126101d7576040517f00000000000000000000000000000000000000000000000000000000000000006001600160a01b03168152602090f35b346101d7575f3660031901126101d757602061ffff60055460a01c16604051908152f35b346101d7575f3660031901126101d757638b78c6d819546040516001600160a01b039091168152602090f35b346101d7575f3660031901126101d757610ed66040610ee3815191610e828184611e31565b600c83526b5269667445786368616e676560a01b60208401528051610ea78282611e31565b6005815264302e302e3160d81b60208201528151948594600f60f81b865260e0602087015260e08601906120e7565b91848303908501526120e7565b4660608301523060808301525f60a083015281810360c083015260206060519182815201906080905f5b818110610f1b575050500390f35b8251845285945060209384019390920191600101610f0d565b346101d75760e03660031901126101d75760043560a03660231901126101d757604051610f6081611dfb565b602435815260443560208201908152606435604083019081526084356060840190815290929160a4356001600160a01b03811681036101d757608084015260c435936001600160401b0385116101d75760e060031986360301126101d75751156110f9578251905110156110ea575142116110db57610ff56006549260405193610fe985611dc4565b84523690600401611fa1565b602083015260408201528160608201524360808201524260a08201525f60c082015261102081612b4f565b60065491600160401b831015610a07576109bc61106a926108eb8560017ff8b9da109a8a429429945d6f1c38f3af7b160026a3e9200e7cebae483c6a8c6397016006556006611d79565b0390a160609081523060405233901b602c526323b872dd60601b600c527f000000000000000000000000000000000000000000000000000000000000000060205f6064601c82855af1908160015f511416156110c257005b3b153d1710156110ce57005b637939f4245f526004601cfd5b631da7447960e21b5f5260045ffd5b6365da293b60e11b5f5260045ffd5b63747a60fb60e01b5f5260045ffd5b346101d75760c03660031901126101d75761118160405161112881611da9565b600435815260243560208201526044356040820152611148366064611e69565b606082015261115e604051916020830190612450565b60c0815261116d60e082611e31565b6040519182916020835260208301906120e7565b0390f35b5f3660031901126101d757611198612c78565b5f638b78c6d819547f8be0079c531659141344cd1fd0a4f28419497f9722a3daafe3b4186f6b6457e08280a35f638b78c6d81955005b346101d7575f3660031901126101d7576020600354604051908152f35b346101d75760403660031901126101d7576004356001600160401b0381116101d7578060040160c060031983360301126101d7576024356001600160401b0381116101d75761123e903690600401611ea9565b91803561126f6102cc60248701359360446064890198611268611261368c611e69565b8888612b64565b019061291d565b80516020919091012060405192611287602085611e31565b5f84525f805b8181106112d1575050956112ac9161039797604051946102e886611da9565b6060820152604051916112be83611d8e565b6001835260208301526040820152612496565b6020906112dc6125f9565b8282890101520161128d565b346101d7575f3660031901126101d7576020600454604051908152f35b5f3660031901126101d75763389a75e1600c52335f525f6020600c2055337ffa7b8eab7da67f412cc9575ed43464468f9bfbae89d1675917346ca6d8fe3c925f80a2005b346101d75760203660031901126101d7576004356001600160401b0381116101d757611379903690600401612019565b61138281612b4f565b61138c8251611d61565b90549060031b1c03610be95760c0810190600182516113aa81612446565b6113b381612446565b14610bda57600282516113c581612446565b6113ce81612446565b1461147257606060408201510151421061146357600261039792526113f56109b282612b4f565b7ff8b9da109a8a429429945d6f1c38f3af7b160026a3e9200e7cebae483c6a8c63604051806114248482612822565b0390a1602081015151606090910151906001600160a01b03167f0000000000000000000000000000000000000000000000000000000000000000612a48565b639eafe1b760e01b5f5260045ffd5b63063d8c8960e51b5f5260045ffd5b346101d7575f3660031901126101d75760045480156114d5575f60045560055461039791906001600160a01b03167f0000000000000000000000000000000000000000000000000000000000000000612a48565b630c5214e560e31b5f5260045ffd5b346101d75760203660031901126101d7576004356001600160401b0381116101d757611514903690600401611ed6565b9061151e82612617565b9061152883611e52565b926115366040519485611e31565b808452601f1961154582611e52565b015f5b8181106118f75750505f7f0000000000000000000000000000000000000000000000000000000000000000905b828110611677578585604051604081016040825282518091526020606083019301905f5b81811061165757505050807f5c35180c5b92fc495184f0a3363ce073073d6116f2960f867c3806435a40e93392600160208301520390a1604051604081016040825282518091526060820190602060608260051b8501019401915f905b82821061162c57600160208601527f3310fbf3c1854748017a4d2421aba183759f0ed6f8fdecf46a7505ba01a5a95385870386a1005b90919294602080611649600193605f198982030186528951612382565b9701920192019092916115f6565b909193602060e08261166c6001948951612771565b019501929101611599565b602061168482858761268b565b016116a161169a6116953684612711565b612b2e565b9135611d1d565b90549060031b1c036118e85760e06116ba82858761268b565b013560028110156101d7576116ce816126ae565b6118d9576001600160401b036116f060c06116ea84878961268b565b016121a0565b1642106118ca5761171361170e61170883868861268b565b806126b8565b6129da565b604061172083868861268b565b013581036118a6575060019061179f61174636606061174085898b61268b565b01611e69565b858761176161175686848461268b565b6101008101906126ce565b9060ff6117986101406117926117088b61178a61177f828c8c61268b565b6101208101906126ce565b9a909961268b565b01612703565b1694612a99565b6117bd6117ad82868861268b565b6117b83691806126b8565b6121c8565b5f60608201525f60808201526117df6117d582612a17565b6108eb8351611d49565b6117e9828961236e565b526117f4818861236e565b5061180c36602061180684888a61268b565b01612711565b82608082015261183561181e82612b2e565b6108eb602061182e868a8c61268b565b0135611d1d565b611852608061184861170885898b61268b565b01356004546122bb565b60045561188a61187160e061186b611708868a8c61268b565b016122a7565b6060611881611708868a8c61268b565b01359086612a48565b611894828861236e565b5261189f818761236e565b5001611575565b60406118b383868861268b565b0135638f83aff160e01b5f5260045260245260445ffd5b632d5c37f560e21b5f5260045ffd5b6304261aed60e21b5f5260045ffd5b636f8e482b60e11b5f5260045ffd5b6020906119026122c8565b82828901015201611548565b346101d7575f3660031901126101d75760206040517f00000000000000000000000000000000000000000000000000000000000000008152f35b346101d7575f3660031901126101d7576020600254604051908152f35b346101d7575f3660031901126101d7576040517f00000000000000000000000000000000000000000000000000000000000000006001600160a01b03168152602090f35b5f3660031901126101d75763389a75e1600c52335f526202a30042016020600c2055337fdbf36a107da19e49527a7176a1babf963b4b0ff8cde35ee35d6cd8f1f9ac7e1d5f80a2005b346101d75760403660031901126101d7576004356001600160401b0381116101d757803603906101006003198301126101d75760405191611a3283611d8e565b816004013560038110156101d757835260248201356001600160401b0381116101d7578201366023820112156101d7576004810135611a7081611e52565b91611a7e6040519384611e31565b818352602060046060828601940283010101903682116101d757602401915b818310611b2157505050602084015260c0604319909101126101d757611aee60405191611ac983611da9565b60448101358352606481013560208401526084810135604084015260a4369101611e69565b60608201526040820152602435906001600160401b0382116101d757611b1b610397923690600401611ea9565b91612496565b6060833603126101d7576020606091604051611b3c81611d8e565b85358152828601358382015260408601356040820152815201920191611a9d565b346101d75760203660031901126101d7576004356001600160401b0381116101d7578060040161018060031983360301126101d757611b9b816129da565b506064820135918215611ce9576001600160401b03611bbc604483016121a0565b164210611cda57611c0f611bd4611c369336906121c8565b935f60608601525f6080860152611bf7611bed86612a17565b6108eb8751611d49565b6084611c0661010485016122a7565b930135906122bb565b907f0000000000000000000000000000000000000000000000000000000000000000612a48565b611c3e612321565b90611c4882612361565b52611c5281612361565b50604051604081016040825282518091526060820190602060608260051b8501019401915f905b828210611caf57600260208601527f3310fbf3c1854748017a4d2421aba183759f0ed6f8fdecf46a7505ba01a5a95385870386a1005b90919294602080611ccc600193605f198982030186528951612382565b970192019201909291611c79565b631ef96db360e21b5f5260045ffd5b6352bfa29d60e01b5f5260045ffd5b346101d75760203660031901126101d7576004356003548110156101d75761035a6020915b600354811015611d355760035f5260205f2001905f90565b634e487b7160e01b5f52603260045260245ffd5b600254811015611d355760025f5260205f2001905f90565b600654811015611d355760065f5260205f2001905f90565b8054821015611d35575f5260205f2001905f90565b606081019081106001600160401b03821117610a0757604052565b608081019081106001600160401b03821117610a0757604052565b60e081019081106001600160401b03821117610a0757604052565b61018081019081106001600160401b03821117610a0757604052565b60a081019081106001600160401b03821117610a0757604052565b604081019081106001600160401b03821117610a0757604052565b90601f801991011681019081106001600160401b03821117610a0757604052565b6001600160401b038111610a075760051b60200190565b91908260609103126101d757604051611e8181611d8e565b809280358252602081013563ffffffff811681036101d7576020830152604090810135910152565b9181601f840112156101d7578235916001600160401b0383116101d757602083818601950101116101d757565b9181601f840112156101d7578235916001600160401b0383116101d7576020808501948460051b0101116101d757565b600435906001600160a01b03821682036101d757565b35906001600160a01b03821682036101d757565b9291926001600160401b038211610a075760405191611f59601f8201601f191660200184611e31565b8294818452818301116101d7578281602093845f960137010152565b9080601f830112156101d757816020611f9093359101611f30565b90565b359060ff821682036101d757565b919060e0838203126101d75760405190611fba82611dfb565b8193611fc581611f1c565b83526020810135916001600160401b0383116101d757608082611fee8383966120149601611f75565b60208701526040810135604087015261200960608201611f93565b606087015201611e69565b910152565b91908281039261016084126101d7576040519161203583611dc4565b82948235845260208301356001600160401b0381116101d75760a09261205c918501611fa1565b6020850152603f1901126101d7576101409060405161207a81611dfb565b60408201358152606082013560208201526080820135604082015260a082013560608201526120ab60c08301611f1c565b6080820152604084015260e08101356060840152610100810135608084015261012081013560a084015201359060038210156101d75760c00152565b805180835260209291819084018484015e5f828201840152601f01601f1916010190565b92919061211781611e52565b936121256040519586611e31565b602085838152019160051b81019283116101d757905b82821061214757505050565b813581526020918201910161213b565b9080601f830112156101d757816020611f909335910161210b565b9060405161217f81611d8e565b6040600282948054845263ffffffff60018201541660208501520154910152565b356001600160401b03811681036101d75790565b35906001600160401b03821682036101d757565b919091610180818403126101d757604051906121e382611ddf565b8193813583526121f5602083016121b4565b6020840152612206604083016121b4565b6040840152606082013560608401526080820135608084015261222b60a083016121b4565b60a084015260c0820135906001600160401b0382116101d75782612259610160949261201494869401611f75565b60c086015261226a60e08201611f1c565b60e086015261227c6101008201611f1c565b61010086015261012081013561012086015261229b6101408201611f93565b610140860152016121b4565b356001600160a01b03811681036101d75790565b91908201809211610aa957565b604051906122d582611ddf565b5f610160838281528260208201528260408201528260608201528260808201528260a0820152606060c08201528260e08201528261010082015282610120820152826101408201520152565b604080519091906123328382611e31565b6001815291601f1901825f5b82811061234a57505050565b6020906123556122c8565b8282850101520161233e565b805115611d355760200190565b8051821015611d355760209160051b010190565b90815181526001600160401b0360208301511660208201526001600160401b03604083015116604082015260608201516060820152608082015160808201526001600160401b0360a08301511660a08201526101606001600160401b03816123fb60c086015161018060c08701526101808601906120e7565b9460018060a01b0360e08201511660e086015260018060a01b036101008201511661010086015261012081015161012086015260ff6101408201511661014086015201511691015290565b600311156109c857565b90606080612494938051845260208101516020850152604081015160408501520151910190604080918051845263ffffffff60208201511660208501520151910152565b565b9060018060a01b037f0000000000000000000000000000000000000000000000000000000000000000166040519260208085015283610140810182516124db81612446565b604083015260208301519061010060608401528151809152602061016084019201905f5b8181106125c75750505061251e604061252c9401516080840190612450565b03601f198101855284611e31565b803b156101d75761258760205f9486946040519788968795869463020a49e360e51b86527f000000000000000000000000000000000000000000000000000000000000000060048701526060602487015260648601906120e7565b84810360031901604486015281815292858401378181018401889052601f01601f1916010301915afa8015610bc0576125bd5750565b5f61249491611e31565b9194935091602060606001926040885180518352848101518584015201516040820152019501910191879394926124ff565b6040519061260682611d8e565b5f6040838281528260208201520152565b9061262182611e52565b61262e6040519182611e31565b828152809261263f601f1991611e52565b01905f5b82811061264f57505050565b60209060405161265e81611dfb565b5f81525f8382015261266e6125f9565b60408201525f60608201525f608082015282828501015201612643565b9190811015611d355760051b8101359061015e19813603018212156101d7570190565b600211156109c857565b90359061017e19813603018212156101d7570190565b903590601e19813603018212156101d757018035906001600160401b0382116101d757602001918160051b360383136101d757565b3560ff811681036101d75790565b91909160e0818403126101d75760c06040519161272d83611dfb565b6127498395823585526020830135602086015260408301611e69565b604084015261275a60a082016121b4565b606084015201359060028210156101d75760800152565b608060c09180518452602081015160208501526127b060408201516040860190604080918051845263ffffffff60208201511660208501520151910152565b6001600160401b0360608201511660a08501520151916127cf836126ae565b0152565b9190604083016040845281518091526020606085019201905f5b8181106128025750919391505060205f910152565b909192602060e0826128176001948851612771565b0194019291016127ed565b602081528151602082015261016060c060208401519382604085015260018060a01b038551166101808501526128b0608061286e602088015160e06101a08901526102608801906120e7565b6040808901516101c0890152606089015160ff166101e089015291909701518051610200880152602081015163ffffffff166102208801520151610240860152565b60408101518051606086015260208101516080860152604081015160a0860152606081015183860152608060018060a01b039101511660e08501526060810151610100850152608081015161012085015260a081015161014085015201519161291883612446565b015290565b903590601e19813603018212156101d757018035906001600160401b0382116101d7576020019181360383136101d757565b9063ffffffff61298283516020850194604084875116910151919091606092604051928352602083015260408201522090565b92511692600163ffffffff6129aa5f545f52600160205263ffffffff600260405f2001541690565b16019163ffffffff8311610aa9576129c4945f5494612cd1565b156129cb57565b632814065160e01b5f5260045ffd5b6129f86129ef6129ea36846121c8565b612a17565b91356002611d79565b90549060031b1c8103612a085790565b635dcaf2d760e01b5f5260045ffd5b604051612a4281612a346020820194602086526040830190612382565b03601f198101835282611e31565b51902090565b919060145260345263a9059cbb60601b5f5260205f6044601082855af1908160015f51141615612a7b575b50505f603452565b3b153d171015612a8c575f80612a73565b6390b8ec185f526004601cfd5b94939192612aaf612ab792612abe95369161210b565b92369161210b565b908461294f565b63ffffffff6020612ae25f545f52600160205263ffffffff600260405f2001541690565b930151169063ffffffff5f1991160163ffffffff8111610aa95763ffffffff160163ffffffff8111610aa95763ffffffff809116911610612b1f57565b630a47293560e31b5f5260045ffd5b604051612b3f602082018093612771565b60e08152612a4261010082611e31565b604051612a4281612a34602082019485612822565b9190915f54808414612c7257815f52600160205260405f20612b9d600160405192612b8e84611e16565b60ff8154161515845201612172565b60208201525115612c63575f526001602052600360405f20015460408301511115612c54577f4ecbd24cd7522746649cae9ac63fd99619cc85837ae3447a114bbbc3a804349692604092600384805192612bf684611e16565b6001845260208401908152845f526001602052815f209351151560ff8019865416911617845551805160018501556002840163ffffffff60208301511663ffffffff198254161790550151910155805f5582519182526020820152a1565b6307800bf560e21b5f5260045ffd5b63e1965c6560e01b5f5260045ffd5b50505050565b638b78c6d819543303612c8757565b6382b429005f526004601cfd5b60018060a01b031680638b78c6d819547f8be0079c531659141344cd1fd0a4f28419497f9722a3daafe3b4186f6b6457e05f80a3638b78c6d81955565b939591929490955f945b8451861015612d2d57600188811c98811603612d1057612cfb868661236e565b515f52602052600160405f20955b0194612cdb565b612d1a868661236e565b51905f52602052600160405f2095612d09565b95929650925092505f935f5b8251811015612d935781612d4d828561236e565b5114612d5b57600101612d39565b50509091925060015b15612d8c57612d7290612ffb565b908115612d8c5763ffffffff165f5260205260405f201490565b5050505f90565b5050909192612d64565b9091928315612fdf57612daf84611e52565b90612dbd6040519283611e31565b848252601f19612dcc86611e52565b015f5b818110612fc85750508190612de386612617565b91600354915f5b88811015612fbd57612dfc81856122bb565b8160051b89013560de198a3603018112156101d7578901876001600160401b03612eba6101606116ea60208601612e3661170e82896126b8565b96612e6d8a6040830198604051612e4c81611d8e565b843581528a3560208201528b6040820152612e67838361236e565b5261236e565b50612eb587612e7f60a08401846126ce565b90612e8d60c08601866126ce565b92909160ff612ead612ea56101406117928c8c6126b8565b963690611e69565b951694612a99565b6126b8565b1663ffffffff8b16036001600160401b038111610aa9576001600160401b03166085026001600160401b038116908103610aa95761e3b3016001600160401b038111610aa9576001600160401b036103e88161012c9316041601906001600160401b038211610aa9576001600160401b03612f3a81612f579416426122bb565b169260405194612f4986611dfb565b855260208501523690611e69565b604083015260608201525f6080820152612f71828761236e565b52612f7c818661236e565b50612f90612f8a828761236e565b51612b2e565b90600354600160401b811015610a07576001926108eb8285612fb794016003556003611d79565b01612dea565b509450945050935050565b602090612fd36125f9565b82828701015201612dcf565b630b35156b60e31b5f5260045ffd5b91908203918211610aa957565b80518015613051575f198101908111610aa957613018908261236e565b519080515f198101908111610aa957805b61303257505090565b5f190191613040838361236e565b515f526020528160405f2092613029565b50505f90565b81810392915f138015828513169184121617610aa957565b9091939293828110156130e7579061308a8161309093612fee565b92612fee565b9083808412156130d4576130ac936130a791613057565b6130ef565b600160ff1b8114610aa9575f03905b5f8282019283129112908015821691151617610aa95790565b6130a7906130e194613057565b906130bb565b505050905090565b8181029181159183041417820215613105570490565b63ad251c275f526004601cfd5b805160168114613310576017811461329957601981146131c85760221461313857505f90565b805115611d35576020810180516001600160f81b03191680156131aa57605160f81b146131655750505f90565b815115611d3557516001600160f81b031916605160f81b149081613187575090565b8091505160011015611d3557602101516001600160f81b031916600160fd1b1490565b50815115611d3557516001600160f81b031916159081613187575090565b50805115611d355760208101516001600160f81b031916603b60f91b149081613272575b8161324b575b81613224575b81613201575090565b8091505160181015611d3557603801516001600160f81b031916602b60fa1b1490565b8091505160171015611d355760378101516001600160f81b031916601160fb1b14906131f8565b8091505160021015611d355760228101516001600160f81b031916600560fa1b14906131f2565b8091505160011015611d355760218101516001600160f81b03191660a960f81b14906131ec565b50805115611d355760208101516001600160f81b03191660a960f81b1490816132e9575b816132c6575090565b8091505160161015611d3557603601516001600160f81b031916608760f81b1490565b8091505160011015611d355760218101516001600160f81b031916600560fa1b14906132bd565b15611d355760208101516001600160f81b03191615908161332f575090565b8091505160011015611d3557602101516001600160f81b031916600560fa1b149056fea2646970667358221220958cee9b8e6d7eccac1c0943c6d3c4ba706f07a5390fbadbee9e1cc07779c77b64736f6c634300081c0033","linkReferences":{}},"methodIdentifiers":{"accumulatedFees()":"587f5ed7","adminSetFeeRouter(address)":"c286befa","adminSetTakerFeeBips(uint16)":"e58e0fe3","auctionHashes(uint256)":"f3bbbeef","cancelOwnershipHandover()":"54d1f13d","checkpoints(bytes32)":"eb5e91ff","circuitVerificationKey()":"3d7b22b3","completeOwnershipHandover(address)":"f04e283e","eip712Domain()":"84b0196e","feeRouter()":"f29ebf61","fillAuction((uint256,(address,bytes,bytes32,uint8,(bytes32,uint32,uint256)),(uint256,uint256,uint256,uint256,address),uint256,uint256,uint256,uint8),bytes,bytes32[],bytes32[])":"c6da4186","getTotalOrders()":"375f16a7","getTotalPayments()":"708f29a6","lightClientHeight()":"cc38cd7d","mmrRoot()":"d21ddc61","orderHashes(uint256)":"df69558c","owner()":"8da5cb5b","ownershipHandoverExpiresAt(address)":"fee81cf4","paymentHashes(uint256)":"1127a80b","refundAuction((uint256,(address,bytes,bytes32,uint8,(bytes32,uint32,uint256)),(uint256,uint256,uint256,uint256,address),uint256,uint256,uint256,uint8))":"481c85f1","refundOrder((uint256,uint64,uint64,uint256,uint256,uint64,bytes,address,address,bytes32,uint8,uint64))":"1993d454","renounceOwnership()":"715018a6","requestOwnershipHandover()":"25692962","serializeLightClientPublicInput((bytes32,bytes32,bytes32,(bytes32,uint32,uint256)))":"7c2301a6","settleOrders(((uint256,uint64,uint64,uint256,uint256,uint64,bytes,address,address,bytes32,uint8,uint64),(uint256,bytes32,(bytes32,uint32,uint256),uint64,uint8),bytes32[],bytes32[],uint32)[])":"4570a573","startAuction(uint256,(uint256,uint256,uint256,uint256,address),(address,bytes,bytes32,uint8,(bytes32,uint32,uint256)))":"7dd9cb31","submitPaymentProofs((bytes32,(uint256,uint64,uint64,uint256,uint256,uint64,bytes,address,address,bytes32,uint8,uint64),(bytes32,uint32,uint256),bytes32[],bytes32[])[],(bytes32,bytes32,bytes,(bytes32,uint32,uint256)),bytes)":"f5364364","submitPaymentProofs((bytes32,(uint256,uint64,uint64,uint256,uint256,uint64,bytes,address,address,bytes32,uint8,uint64),(bytes32,uint32,uint256),bytes32[],bytes32[])[],bytes)":"be8cc7ee","syntheticBitcoin()":"a0d9e241","takerFeeBips()":"9a73f4f5","transferOwnership(address)":"f2fde38b","updateLightClient((bytes32,bytes32,bytes,(bytes32,uint32,uint256)),bytes)":"592b6649","verifier()":"2b7ac3f3","verifyBlockInclusion((bytes32,uint32,uint256),bytes32[],bytes32[])":"a24462ea","verifyProof((uint8,(bytes32,bytes32,bytes32)[],(bytes32,bytes32,bytes32,(bytes32,uint32,uint256))),bytes)":"1ea7ec04","withdrawFees()":"476343ee"},"storageLayout":{"storage":[{"astId":44668,"contract":"src/BTCDutchAuctionHouse.sol:BTCDutchAuctionHouse","label":"mmrRoot","offset":0,"slot":"0","type":"t_bytes32"},{"astId":44673,"contract":"src/BTCDutchAuctionHouse.sol:BTCDutchAuctionHouse","label":"checkpoints","offset":0,"slot":"1","type":"t_mapping(t_bytes32,t_struct(BitcoinCheckpoint)46324_storage)"},{"astId":45163,"contract":"src/BTCDutchAuctionHouse.sol:BTCDutchAuctionHouse","label":"orderHashes","offset":0,"slot":"2","type":"t_array(t_bytes32)dyn_storage"},{"astId":45166,"contract":"src/BTCDutchAuctionHouse.sol:BTCDutchAuctionHouse","label":"paymentHashes","offset":0,"slot":"3","type":"t_array(t_bytes32)dyn_storage"},{"astId":45168,"contract":"src/BTCDutchAuctionHouse.sol:BTCDutchAuctionHouse","label":"accumulatedFees","offset":0,"slot":"4","type":"t_uint256"},{"astId":45170,"contract":"src/BTCDutchAuctionHouse.sol:BTCDutchAuctionHouse","label":"feeRouter","offset":0,"slot":"5","type":"t_address"},{"astId":45172,"contract":"src/BTCDutchAuctionHouse.sol:BTCDutchAuctionHouse","label":"takerFeeBips","offset":20,"slot":"5","type":"t_uint16"},{"astId":44329,"contract":"src/BTCDutchAuctionHouse.sol:BTCDutchAuctionHouse","label":"auctionHashes","offset":0,"slot":"6","type":"t_array(t_bytes32)dyn_storage"}],"types":{"t_address":{"encoding":"inplace","label":"address","numberOfBytes":"20"},"t_array(t_bytes32)dyn_storage":{"encoding":"dynamic_array","label":"bytes32[]","numberOfBytes":"32","base":"t_bytes32"},"t_bool":{"encoding":"inplace","label":"bool","numberOfBytes":"1"},"t_bytes32":{"encoding":"inplace","label":"bytes32","numberOfBytes":"32"},"t_mapping(t_bytes32,t_struct(BitcoinCheckpoint)46324_storage)":{"encoding":"mapping","key":"t_bytes32","label":"mapping(bytes32 => struct BitcoinCheckpoint)","numberOfBytes":"32","value":"t_struct(BitcoinCheckpoint)46324_storage"},"t_struct(BitcoinCheckpoint)46324_storage":{"encoding":"inplace","label":"struct BitcoinCheckpoint","numberOfBytes":"128","members":[{"astId":46320,"contract":"src/BTCDutchAuctionHouse.sol:BTCDutchAuctionHouse","label":"established","offset":0,"slot":"0","type":"t_bool"},{"astId":46323,"contract":"src/BTCDutchAuctionHouse.sol:BTCDutchAuctionHouse","label":"tipBlockLeaf","offset":0,"slot":"1","type":"t_struct(BlockLeaf)46318_storage"}]},"t_struct(BlockLeaf)46318_storage":{"encoding":"inplace","label":"struct BlockLeaf","numberOfBytes":"96","members":[{"astId":46313,"contract":"src/BTCDutchAuctionHouse.sol:BTCDutchAuctionHouse","label":"blockHash","offset":0,"slot":"0","type":"t_bytes32"},{"astId":46315,"contract":"src/BTCDutchAuctionHouse.sol:BTCDutchAuctionHouse","label":"height","offset":0,"slot":"1","type":"t_uint32"},{"astId":46317,"contract":"src/BTCDutchAuctionHouse.sol:BTCDutchAuctionHouse","label":"cumulativeChainwork","offset":0,"slot":"2","type":"t_uint256"}]},"t_uint16":{"encoding":"inplace","label":"uint16","numberOfBytes":"2"},"t_uint256":{"encoding":"inplace","label":"uint256","numberOfBytes":"32"},"t_uint32":{"encoding":"inplace","label":"uint32","numberOfBytes":"4"}}},"id":38}