{"abi":[{"type":"constructor","inputs":[{"name":"_mmrRoot","type":"bytes32","internalType":"bytes32"},{"name":"_syntheticBitcoin","type":"address","internalType":"address"},{"name":"_circuitVerificationKey","type":"bytes32","internalType":"bytes32"},{"name":"_verifier","type":"address","internalType":"address"},{"name":"_feeRouter","type":"address","internalType":"address"},{"name":"_takerFeeBips","type":"uint16","internalType":"uint16"},{"name":"_tipBlockLeaf","type":"tuple","internalType":"struct BlockLeaf","components":[{"name":"blockHash","type":"bytes32","internalType":"bytes32"},{"name":"height","type":"uint32","internalType":"uint32"},{"name":"cumulativeChainwork","type":"uint256","internalType":"uint256"}]}],"stateMutability":"nonpayable"},{"type":"function","name":"accumulatedFees","inputs":[],"outputs":[{"name":"","type":"uint256","internalType":"uint256"}],"stateMutability":"view"},{"type":"function","name":"adminSetFeeRouter","inputs":[{"name":"_feeRouter","type":"address","internalType":"address"}],"outputs":[],"stateMutability":"nonpayable"},{"type":"function","name":"adminSetTakerFeeBips","inputs":[{"name":"_takerFeeBips","type":"uint16","internalType":"uint16"}],"outputs":[],"stateMutability":"nonpayable"},{"type":"function","name":"auctionHashes","inputs":[{"name":"","type":"uint256","internalType":"uint256"}],"outputs":[{"name":"","type":"bytes32","internalType":"bytes32"}],"stateMutability":"view"},{"type":"function","name":"cancelOwnershipHandover","inputs":[],"outputs":[],"stateMutability":"payable"},{"type":"function","name":"checkpoints","inputs":[{"name":"","type":"bytes32","internalType":"bytes32"}],"outputs":[{"name":"established","type":"bool","internalType":"bool"},{"name":"tipBlockLeaf","type":"tuple","internalType":"struct BlockLeaf","components":[{"name":"blockHash","type":"bytes32","internalType":"bytes32"},{"name":"height","type":"uint32","internalType":"uint32"},{"name":"cumulativeChainwork","type":"uint256","internalType":"uint256"}]}],"stateMutability":"view"},{"type":"function","name":"circuitVerificationKey","inputs":[],"outputs":[{"name":"","type":"bytes32","internalType":"bytes32"}],"stateMutability":"view"},{"type":"function","name":"claimAuction","inputs":[{"name":"auction","type":"tuple","internalType":"struct DutchAuction","components":[{"name":"index","type":"uint256","internalType":"uint256"},{"name":"baseCreateOrderParams","type":"tuple","internalType":"struct BaseCreateOrderParams","components":[{"name":"owner","type":"address","internalType":"address"},{"name":"bitcoinScriptPubKey","type":"bytes","internalType":"bytes"},{"name":"salt","type":"bytes32","internalType":"bytes32"},{"name":"confirmationBlocks","type":"uint8","internalType":"uint8"},{"name":"safeBlockLeaf","type":"tuple","internalType":"struct BlockLeaf","components":[{"name":"blockHash","type":"bytes32","internalType":"bytes32"},{"name":"height","type":"uint32","internalType":"uint32"},{"name":"cumulativeChainwork","type":"uint256","internalType":"uint256"}]}]},{"name":"dutchAuctionParams","type":"tuple","internalType":"struct DutchAuctionParams","components":[{"name":"startBtcOut","type":"uint256","internalType":"uint256"},{"name":"endBtcOut","type":"uint256","internalType":"uint256"},{"name":"decayBlocks","type":"uint256","internalType":"uint256"},{"name":"deadline","type":"uint256","internalType":"uint256"},{"name":"fillerWhitelistContract","type":"address","internalType":"address"}]},{"name":"depositAmount","type":"uint256","internalType":"uint256"},{"name":"startBlock","type":"uint256","internalType":"uint256"},{"name":"startTimestamp","type":"uint256","internalType":"uint256"},{"name":"state","type":"uint8","internalType":"enum DutchAuctionState"}]},{"name":"fillerAuthData","type":"bytes","internalType":"bytes"},{"name":"safeBlockSiblings","type":"bytes32[]","internalType":"bytes32[]"},{"name":"safeBlockPeaks","type":"bytes32[]","internalType":"bytes32[]"}],"outputs":[],"stateMutability":"nonpayable"},{"type":"function","name":"completeOwnershipHandover","inputs":[{"name":"pendingOwner","type":"address","internalType":"address"}],"outputs":[],"stateMutability":"payable"},{"type":"function","name":"eip712Domain","inputs":[],"outputs":[{"name":"fields","type":"bytes1","internalType":"bytes1"},{"name":"name","type":"string","internalType":"string"},{"name":"version","type":"string","internalType":"string"},{"name":"chainId","type":"uint256","internalType":"uint256"},{"name":"verifyingContract","type":"address","internalType":"address"},{"name":"salt","type":"bytes32","internalType":"bytes32"},{"name":"extensions","type":"uint256[]","internalType":"uint256[]"}],"stateMutability":"view"},{"type":"function","name":"feeRouter","inputs":[],"outputs":[{"name":"","type":"address","internalType":"address"}],"stateMutability":"view"},{"type":"function","name":"getTotalOrders","inputs":[],"outputs":[{"name":"","type":"uint256","internalType":"uint256"}],"stateMutability":"view"},{"type":"function","name":"getTotalPayments","inputs":[],"outputs":[{"name":"","type":"uint256","internalType":"uint256"}],"stateMutability":"view"},{"type":"function","name":"lightClientHeight","inputs":[],"outputs":[{"name":"","type":"uint32","internalType":"uint32"}],"stateMutability":"view"},{"type":"function","name":"mmrRoot","inputs":[],"outputs":[{"name":"","type":"bytes32","internalType":"bytes32"}],"stateMutability":"view"},{"type":"function","name":"orderHashes","inputs":[{"name":"","type":"uint256","internalType":"uint256"}],"outputs":[{"name":"","type":"bytes32","internalType":"bytes32"}],"stateMutability":"view"},{"type":"function","name":"owner","inputs":[],"outputs":[{"name":"result","type":"address","internalType":"address"}],"stateMutability":"view"},{"type":"function","name":"ownershipHandoverExpiresAt","inputs":[{"name":"pendingOwner","type":"address","internalType":"address"}],"outputs":[{"name":"result","type":"uint256","internalType":"uint256"}],"stateMutability":"view"},{"type":"function","name":"paymentHashes","inputs":[{"name":"","type":"uint256","internalType":"uint256"}],"outputs":[{"name":"","type":"bytes32","internalType":"bytes32"}],"stateMutability":"view"},{"type":"function","name":"refundAuction","inputs":[{"name":"auction","type":"tuple","internalType":"struct DutchAuction","components":[{"name":"index","type":"uint256","internalType":"uint256"},{"name":"baseCreateOrderParams","type":"tuple","internalType":"struct BaseCreateOrderParams","components":[{"name":"owner","type":"address","internalType":"address"},{"name":"bitcoinScriptPubKey","type":"bytes","internalType":"bytes"},{"name":"salt","type":"bytes32","internalType":"bytes32"},{"name":"confirmationBlocks","type":"uint8","internalType":"uint8"},{"name":"safeBlockLeaf","type":"tuple","internalType":"struct BlockLeaf","components":[{"name":"blockHash","type":"bytes32","internalType":"bytes32"},{"name":"height","type":"uint32","internalType":"uint32"},{"name":"cumulativeChainwork","type":"uint256","internalType":"uint256"}]}]},{"name":"dutchAuctionParams","type":"tuple","internalType":"struct DutchAuctionParams","components":[{"name":"startBtcOut","type":"uint256","internalType":"uint256"},{"name":"endBtcOut","type":"uint256","internalType":"uint256"},{"name":"decayBlocks","type":"uint256","internalType":"uint256"},{"name":"deadline","type":"uint256","internalType":"uint256"},{"name":"fillerWhitelistContract","type":"address","internalType":"address"}]},{"name":"depositAmount","type":"uint256","internalType":"uint256"},{"name":"startBlock","type":"uint256","internalType":"uint256"},{"name":"startTimestamp","type":"uint256","internalType":"uint256"},{"name":"state","type":"uint8","internalType":"enum DutchAuctionState"}]}],"outputs":[],"stateMutability":"nonpayable"},{"type":"function","name":"refundOrder","inputs":[{"name":"order","type":"tuple","internalType":"struct Order","components":[{"name":"index","type":"uint256","internalType":"uint256"},{"name":"timestamp","type":"uint64","internalType":"uint64"},{"name":"unlockTimestamp","type":"uint64","internalType":"uint64"},{"name":"amount","type":"uint256","internalType":"uint256"},{"name":"takerFee","type":"uint256","internalType":"uint256"},{"name":"expectedSats","type":"uint64","internalType":"uint64"},{"name":"bitcoinScriptPubKey","type":"bytes","internalType":"bytes"},{"name":"designatedReceiver","type":"address","internalType":"address"},{"name":"owner","type":"address","internalType":"address"},{"name":"salt","type":"bytes32","internalType":"bytes32"},{"name":"confirmationBlocks","type":"uint8","internalType":"uint8"},{"name":"safeBitcoinBlockHeight","type":"uint64","internalType":"uint64"},{"name":"state","type":"uint8","internalType":"enum OrderState"}]}],"outputs":[],"stateMutability":"nonpayable"},{"type":"function","name":"renounceOwnership","inputs":[],"outputs":[],"stateMutability":"payable"},{"type":"function","name":"requestOwnershipHandover","inputs":[],"outputs":[],"stateMutability":"payable"},{"type":"function","name":"serializeLightClientPublicInput","inputs":[{"name":"input","type":"tuple","internalType":"struct LightClientPublicInput","components":[{"name":"priorMmrRoot","type":"bytes32","internalType":"bytes32"},{"name":"newMmrRoot","type":"bytes32","internalType":"bytes32"},{"name":"compressedLeavesHash","type":"bytes32","internalType":"bytes32"},{"name":"tipBlockLeaf","type":"tuple","internalType":"struct BlockLeaf","components":[{"name":"blockHash","type":"bytes32","internalType":"bytes32"},{"name":"height","type":"uint32","internalType":"uint32"},{"name":"cumulativeChainwork","type":"uint256","internalType":"uint256"}]}]}],"outputs":[{"name":"","type":"bytes","internalType":"bytes"}],"stateMutability":"pure"},{"type":"function","name":"settleOrders","inputs":[{"name":"settleOrderParams","type":"tuple[]","internalType":"struct SettleOrderParams[]","components":[{"name":"order","type":"tuple","internalType":"struct Order","components":[{"name":"index","type":"uint256","internalType":"uint256"},{"name":"timestamp","type":"uint64","internalType":"uint64"},{"name":"unlockTimestamp","type":"uint64","internalType":"uint64"},{"name":"amount","type":"uint256","internalType":"uint256"},{"name":"takerFee","type":"uint256","internalType":"uint256"},{"name":"expectedSats","type":"uint64","internalType":"uint64"},{"name":"bitcoinScriptPubKey","type":"bytes","internalType":"bytes"},{"name":"designatedReceiver","type":"address","internalType":"address"},{"name":"owner","type":"address","internalType":"address"},{"name":"salt","type":"bytes32","internalType":"bytes32"},{"name":"confirmationBlocks","type":"uint8","internalType":"uint8"},{"name":"safeBitcoinBlockHeight","type":"uint64","internalType":"uint64"},{"name":"state","type":"uint8","internalType":"enum OrderState"}]},{"name":"payment","type":"tuple","internalType":"struct Payment","components":[{"name":"index","type":"uint256","internalType":"uint256"},{"name":"orderIndex","type":"uint256","internalType":"uint256"},{"name":"orderHash","type":"bytes32","internalType":"bytes32"},{"name":"paymentBitcoinBlockLeaf","type":"tuple","internalType":"struct BlockLeaf","components":[{"name":"blockHash","type":"bytes32","internalType":"bytes32"},{"name":"height","type":"uint32","internalType":"uint32"},{"name":"cumulativeChainwork","type":"uint256","internalType":"uint256"}]},{"name":"challengeExpiryTimestamp","type":"uint64","internalType":"uint64"},{"name":"state","type":"uint8","internalType":"enum PaymentState"}]},{"name":"paymentBitcoinBlockSiblings","type":"bytes32[]","internalType":"bytes32[]"},{"name":"paymentBitcoinBlockPeaks","type":"bytes32[]","internalType":"bytes32[]"},{"name":"tipBlockHeight","type":"uint32","internalType":"uint32"}]}],"outputs":[],"stateMutability":"nonpayable"},{"type":"function","name":"startAuction","inputs":[{"name":"depositAmount","type":"uint256","internalType":"uint256"},{"name":"auctionParams","type":"tuple","internalType":"struct DutchAuctionParams","components":[{"name":"startBtcOut","type":"uint256","internalType":"uint256"},{"name":"endBtcOut","type":"uint256","internalType":"uint256"},{"name":"decayBlocks","type":"uint256","internalType":"uint256"},{"name":"deadline","type":"uint256","internalType":"uint256"},{"name":"fillerWhitelistContract","type":"address","internalType":"address"}]},{"name":"baseCreateOrderParams","type":"tuple","internalType":"struct BaseCreateOrderParams","components":[{"name":"owner","type":"address","internalType":"address"},{"name":"bitcoinScriptPubKey","type":"bytes","internalType":"bytes"},{"name":"salt","type":"bytes32","internalType":"bytes32"},{"name":"confirmationBlocks","type":"uint8","internalType":"uint8"},{"name":"safeBlockLeaf","type":"tuple","internalType":"struct BlockLeaf","components":[{"name":"blockHash","type":"bytes32","internalType":"bytes32"},{"name":"height","type":"uint32","internalType":"uint32"},{"name":"cumulativeChainwork","type":"uint256","internalType":"uint256"}]}]}],"outputs":[],"stateMutability":"nonpayable"},{"type":"function","name":"submitPaymentProofs","inputs":[{"name":"paymentParams","type":"tuple[]","internalType":"struct SubmitPaymentProofParams[]","components":[{"name":"paymentBitcoinTxid","type":"bytes32","internalType":"bytes32"},{"name":"order","type":"tuple","internalType":"struct Order","components":[{"name":"index","type":"uint256","internalType":"uint256"},{"name":"timestamp","type":"uint64","internalType":"uint64"},{"name":"unlockTimestamp","type":"uint64","internalType":"uint64"},{"name":"amount","type":"uint256","internalType":"uint256"},{"name":"takerFee","type":"uint256","internalType":"uint256"},{"name":"expectedSats","type":"uint64","internalType":"uint64"},{"name":"bitcoinScriptPubKey","type":"bytes","internalType":"bytes"},{"name":"designatedReceiver","type":"address","internalType":"address"},{"name":"owner","type":"address","internalType":"address"},{"name":"salt","type":"bytes32","internalType":"bytes32"},{"name":"confirmationBlocks","type":"uint8","internalType":"uint8"},{"name":"safeBitcoinBlockHeight","type":"uint64","internalType":"uint64"},{"name":"state","type":"uint8","internalType":"enum OrderState"}]},{"name":"paymentBitcoinBlockLeaf","type":"tuple","internalType":"struct BlockLeaf","components":[{"name":"blockHash","type":"bytes32","internalType":"bytes32"},{"name":"height","type":"uint32","internalType":"uint32"},{"name":"cumulativeChainwork","type":"uint256","internalType":"uint256"}]},{"name":"paymentBitcoinBlockSiblings","type":"bytes32[]","internalType":"bytes32[]"},{"name":"paymentBitcoinBlockPeaks","type":"bytes32[]","internalType":"bytes32[]"}]},{"name":"blockProofParams","type":"tuple","internalType":"struct BlockProofParams","components":[{"name":"priorMmrRoot","type":"bytes32","internalType":"bytes32"},{"name":"newMmrRoot","type":"bytes32","internalType":"bytes32"},{"name":"compressedBlockLeaves","type":"bytes","internalType":"bytes"},{"name":"tipBlockLeaf","type":"tuple","internalType":"struct BlockLeaf","components":[{"name":"blockHash","type":"bytes32","internalType":"bytes32"},{"name":"height","type":"uint32","internalType":"uint32"},{"name":"cumulativeChainwork","type":"uint256","internalType":"uint256"}]}]},{"name":"proof","type":"bytes","internalType":"bytes"}],"outputs":[],"stateMutability":"nonpayable"},{"type":"function","name":"submitPaymentProofs","inputs":[{"name":"paymentParams","type":"tuple[]","internalType":"struct SubmitPaymentProofParams[]","components":[{"name":"paymentBitcoinTxid","type":"bytes32","internalType":"bytes32"},{"name":"order","type":"tuple","internalType":"struct Order","components":[{"name":"index","type":"uint256","internalType":"uint256"},{"name":"timestamp","type":"uint64","internalType":"uint64"},{"name":"unlockTimestamp","type":"uint64","internalType":"uint64"},{"name":"amount","type":"uint256","internalType":"uint256"},{"name":"takerFee","type":"uint256","internalType":"uint256"},{"name":"expectedSats","type":"uint64","internalType":"uint64"},{"name":"bitcoinScriptPubKey","type":"bytes","internalType":"bytes"},{"name":"designatedReceiver","type":"address","internalType":"address"},{"name":"owner","type":"address","internalType":"address"},{"name":"salt","type":"bytes32","internalType":"bytes32"},{"name":"confirmationBlocks","type":"uint8","internalType":"uint8"},{"name":"safeBitcoinBlockHeight","type":"uint64","internalType":"uint64"},{"name":"state","type":"uint8","internalType":"enum OrderState"}]},{"name":"paymentBitcoinBlockLeaf","type":"tuple","internalType":"struct BlockLeaf","components":[{"name":"blockHash","type":"bytes32","internalType":"bytes32"},{"name":"height","type":"uint32","internalType":"uint32"},{"name":"cumulativeChainwork","type":"uint256","internalType":"uint256"}]},{"name":"paymentBitcoinBlockSiblings","type":"bytes32[]","internalType":"bytes32[]"},{"name":"paymentBitcoinBlockPeaks","type":"bytes32[]","internalType":"bytes32[]"}]},{"name":"proof","type":"bytes","internalType":"bytes"}],"outputs":[],"stateMutability":"nonpayable"},{"type":"function","name":"syntheticBitcoin","inputs":[],"outputs":[{"name":"","type":"address","internalType":"address"}],"stateMutability":"view"},{"type":"function","name":"takerFeeBips","inputs":[],"outputs":[{"name":"","type":"uint16","internalType":"uint16"}],"stateMutability":"view"},{"type":"function","name":"transferOwnership","inputs":[{"name":"newOwner","type":"address","internalType":"address"}],"outputs":[],"stateMutability":"payable"},{"type":"function","name":"updateLightClient","inputs":[{"name":"blockProofParams","type":"tuple","internalType":"struct BlockProofParams","components":[{"name":"priorMmrRoot","type":"bytes32","internalType":"bytes32"},{"name":"newMmrRoot","type":"bytes32","internalType":"bytes32"},{"name":"compressedBlockLeaves","type":"bytes","internalType":"bytes"},{"name":"tipBlockLeaf","type":"tuple","internalType":"struct BlockLeaf","components":[{"name":"blockHash","type":"bytes32","internalType":"bytes32"},{"name":"height","type":"uint32","internalType":"uint32"},{"name":"cumulativeChainwork","type":"uint256","internalType":"uint256"}]}]},{"name":"proof","type":"bytes","internalType":"bytes"}],"outputs":[],"stateMutability":"nonpayable"},{"type":"function","name":"verifier","inputs":[],"outputs":[{"name":"","type":"address","internalType":"address"}],"stateMutability":"view"},{"type":"function","name":"verifyBlockInclusion","inputs":[{"name":"blockLeaf","type":"tuple","internalType":"struct BlockLeaf","components":[{"name":"blockHash","type":"bytes32","internalType":"bytes32"},{"name":"height","type":"uint32","internalType":"uint32"},{"name":"cumulativeChainwork","type":"uint256","internalType":"uint256"}]},{"name":"siblings","type":"bytes32[]","internalType":"bytes32[]"},{"name":"peaks","type":"bytes32[]","internalType":"bytes32[]"}],"outputs":[],"stateMutability":"view"},{"type":"function","name":"verifyProof","inputs":[{"name":"proofPublicInput","type":"tuple","internalType":"struct ProofPublicInput","components":[{"name":"proofType","type":"uint8","internalType":"enum ProofType"},{"name":"payments","type":"tuple[]","internalType":"struct PaymentPublicInput[]","components":[{"name":"paymentBitcoinTxid","type":"bytes32","internalType":"bytes32"},{"name":"paymentBitcoinBlockHash","type":"bytes32","internalType":"bytes32"},{"name":"orderHash","type":"bytes32","internalType":"bytes32"}]},{"name":"lightClient","type":"tuple","internalType":"struct LightClientPublicInput","components":[{"name":"priorMmrRoot","type":"bytes32","internalType":"bytes32"},{"name":"newMmrRoot","type":"bytes32","internalType":"bytes32"},{"name":"compressedLeavesHash","type":"bytes32","internalType":"bytes32"},{"name":"tipBlockLeaf","type":"tuple","internalType":"struct BlockLeaf","components":[{"name":"blockHash","type":"bytes32","internalType":"bytes32"},{"name":"height","type":"uint32","internalType":"uint32"},{"name":"cumulativeChainwork","type":"uint256","internalType":"uint256"}]}]}]},{"name":"proof","type":"bytes","internalType":"bytes"}],"outputs":[],"stateMutability":"view"},{"type":"function","name":"withdrawFees","inputs":[],"outputs":[],"stateMutability":"nonpayable"},{"type":"event","name":"AuctionUpdated","inputs":[{"name":"auction","type":"tuple","indexed":false,"internalType":"struct DutchAuction","components":[{"name":"index","type":"uint256","internalType":"uint256"},{"name":"baseCreateOrderParams","type":"tuple","internalType":"struct BaseCreateOrderParams","components":[{"name":"owner","type":"address","internalType":"address"},{"name":"bitcoinScriptPubKey","type":"bytes","internalType":"bytes"},{"name":"salt","type":"bytes32","internalType":"bytes32"},{"name":"confirmationBlocks","type":"uint8","internalType":"uint8"},{"name":"safeBlockLeaf","type":"tuple","internalType":"struct BlockLeaf","components":[{"name":"blockHash","type":"bytes32","internalType":"bytes32"},{"name":"height","type":"uint32","internalType":"uint32"},{"name":"cumulativeChainwork","type":"uint256","internalType":"uint256"}]}]},{"name":"dutchAuctionParams","type":"tuple","internalType":"struct DutchAuctionParams","components":[{"name":"startBtcOut","type":"uint256","internalType":"uint256"},{"name":"endBtcOut","type":"uint256","internalType":"uint256"},{"name":"decayBlocks","type":"uint256","internalType":"uint256"},{"name":"deadline","type":"uint256","internalType":"uint256"},{"name":"fillerWhitelistContract","type":"address","internalType":"address"}]},{"name":"depositAmount","type":"uint256","internalType":"uint256"},{"name":"startBlock","type":"uint256","internalType":"uint256"},{"name":"startTimestamp","type":"uint256","internalType":"uint256"},{"name":"state","type":"uint8","internalType":"enum DutchAuctionState"}]}],"anonymous":false},{"type":"event","name":"BitcoinLightClientUpdated","inputs":[{"name":"priorMmrRoot","type":"bytes32","indexed":false,"internalType":"bytes32"},{"name":"newMmrRoot","type":"bytes32","indexed":false,"internalType":"bytes32"}],"anonymous":false},{"type":"event","name":"OrderCreated","inputs":[{"name":"order","type":"tuple","indexed":false,"internalType":"struct Order","components":[{"name":"index","type":"uint256","internalType":"uint256"},{"name":"timestamp","type":"uint64","internalType":"uint64"},{"name":"unlockTimestamp","type":"uint64","internalType":"uint64"},{"name":"amount","type":"uint256","internalType":"uint256"},{"name":"takerFee","type":"uint256","internalType":"uint256"},{"name":"expectedSats","type":"uint64","internalType":"uint64"},{"name":"bitcoinScriptPubKey","type":"bytes","internalType":"bytes"},{"name":"designatedReceiver","type":"address","internalType":"address"},{"name":"owner","type":"address","internalType":"address"},{"name":"salt","type":"bytes32","internalType":"bytes32"},{"name":"confirmationBlocks","type":"uint8","internalType":"uint8"},{"name":"safeBitcoinBlockHeight","type":"uint64","internalType":"uint64"},{"name":"state","type":"uint8","internalType":"enum OrderState"}]}],"anonymous":false},{"type":"event","name":"OrderRefunded","inputs":[{"name":"order","type":"tuple","indexed":false,"internalType":"struct Order","components":[{"name":"index","type":"uint256","internalType":"uint256"},{"name":"timestamp","type":"uint64","internalType":"uint64"},{"name":"unlockTimestamp","type":"uint64","internalType":"uint64"},{"name":"amount","type":"uint256","internalType":"uint256"},{"name":"takerFee","type":"uint256","internalType":"uint256"},{"name":"expectedSats","type":"uint64","internalType":"uint64"},{"name":"bitcoinScriptPubKey","type":"bytes","internalType":"bytes"},{"name":"designatedReceiver","type":"address","internalType":"address"},{"name":"owner","type":"address","internalType":"address"},{"name":"salt","type":"bytes32","internalType":"bytes32"},{"name":"confirmationBlocks","type":"uint8","internalType":"uint8"},{"name":"safeBitcoinBlockHeight","type":"uint64","internalType":"uint64"},{"name":"state","type":"uint8","internalType":"enum OrderState"}]}],"anonymous":false},{"type":"event","name":"OrdersSettled","inputs":[{"name":"orders","type":"tuple[]","indexed":false,"internalType":"struct Order[]","components":[{"name":"index","type":"uint256","internalType":"uint256"},{"name":"timestamp","type":"uint64","internalType":"uint64"},{"name":"unlockTimestamp","type":"uint64","internalType":"uint64"},{"name":"amount","type":"uint256","internalType":"uint256"},{"name":"takerFee","type":"uint256","internalType":"uint256"},{"name":"expectedSats","type":"uint64","internalType":"uint64"},{"name":"bitcoinScriptPubKey","type":"bytes","internalType":"bytes"},{"name":"designatedReceiver","type":"address","internalType":"address"},{"name":"owner","type":"address","internalType":"address"},{"name":"salt","type":"bytes32","internalType":"bytes32"},{"name":"confirmationBlocks","type":"uint8","internalType":"uint8"},{"name":"safeBitcoinBlockHeight","type":"uint64","internalType":"uint64"},{"name":"state","type":"uint8","internalType":"enum OrderState"}]},{"name":"payments","type":"tuple[]","indexed":false,"internalType":"struct Payment[]","components":[{"name":"index","type":"uint256","internalType":"uint256"},{"name":"orderIndex","type":"uint256","internalType":"uint256"},{"name":"orderHash","type":"bytes32","internalType":"bytes32"},{"name":"paymentBitcoinBlockLeaf","type":"tuple","internalType":"struct BlockLeaf","components":[{"name":"blockHash","type":"bytes32","internalType":"bytes32"},{"name":"height","type":"uint32","internalType":"uint32"},{"name":"cumulativeChainwork","type":"uint256","internalType":"uint256"}]},{"name":"challengeExpiryTimestamp","type":"uint64","internalType":"uint64"},{"name":"state","type":"uint8","internalType":"enum PaymentState"}]}],"anonymous":false},{"type":"event","name":"OwnershipHandoverCanceled","inputs":[{"name":"pendingOwner","type":"address","indexed":true,"internalType":"address"}],"anonymous":false},{"type":"event","name":"OwnershipHandoverRequested","inputs":[{"name":"pendingOwner","type":"address","indexed":true,"internalType":"address"}],"anonymous":false},{"type":"event","name":"OwnershipTransferred","inputs":[{"name":"oldOwner","type":"address","indexed":true,"internalType":"address"},{"name":"newOwner","type":"address","indexed":true,"internalType":"address"}],"anonymous":false},{"type":"event","name":"PaymentsCreated","inputs":[{"name":"payments","type":"tuple[]","indexed":false,"internalType":"struct Payment[]","components":[{"name":"index","type":"uint256","internalType":"uint256"},{"name":"orderIndex","type":"uint256","internalType":"uint256"},{"name":"orderHash","type":"bytes32","internalType":"bytes32"},{"name":"paymentBitcoinBlockLeaf","type":"tuple","internalType":"struct BlockLeaf","components":[{"name":"blockHash","type":"bytes32","internalType":"bytes32"},{"name":"height","type":"uint32","internalType":"uint32"},{"name":"cumulativeChainwork","type":"uint256","internalType":"uint256"}]},{"name":"challengeExpiryTimestamp","type":"uint64","internalType":"uint64"},{"name":"state","type":"uint8","internalType":"enum PaymentState"}]}],"anonymous":false},{"type":"error","name":"AlreadyInitialized","inputs":[]},{"type":"error","name":"AuctionExpired","inputs":[]},{"type":"error","name":"AuctionNotExpired","inputs":[]},{"type":"error","name":"AuctionNotLive","inputs":[]},{"type":"error","name":"BlockNotConfirmed","inputs":[]},{"type":"error","name":"BlockNotInChain","inputs":[]},{"type":"error","name":"ChainworkTooLow","inputs":[]},{"type":"error","name":"CheckpointNotEstablished","inputs":[]},{"type":"error","name":"DepositAmountTooLow","inputs":[]},{"type":"error","name":"DutchAuctionDoesNotExist","inputs":[]},{"type":"error","name":"FillerNotWhitelisted","inputs":[]},{"type":"error","name":"InvalidDeadline","inputs":[]},{"type":"error","name":"InvalidDecimals","inputs":[{"name":"actual","type":"uint8","internalType":"uint8"},{"name":"expected","type":"uint8","internalType":"uint8"}]},{"type":"error","name":"InvalidOrderHash","inputs":[{"name":"actual","type":"bytes32","internalType":"bytes32"},{"name":"expected","type":"bytes32","internalType":"bytes32"}]},{"type":"error","name":"InvalidScriptPubKey","inputs":[]},{"type":"error","name":"InvalidStartBtcOut","inputs":[]},{"type":"error","name":"InvalidTickSize","inputs":[]},{"type":"error","name":"NewOwnerIsZeroAddress","inputs":[]},{"type":"error","name":"NoFeeToWithdraw","inputs":[]},{"type":"error","name":"NoHandoverRequest","inputs":[]},{"type":"error","name":"NoPaymentsToSubmit","inputs":[]},{"type":"error","name":"NotEnoughConfirmationBlocks","inputs":[]},{"type":"error","name":"OrderDoesNotExist","inputs":[]},{"type":"error","name":"OrderNotLive","inputs":[]},{"type":"error","name":"OrderStillActive","inputs":[]},{"type":"error","name":"PaymentDoesNotExist","inputs":[]},{"type":"error","name":"PaymentNotProved","inputs":[]},{"type":"error","name":"SatOutputTooLow","inputs":[]},{"type":"error","name":"StillInChallengePeriod","inputs":[]},{"type":"error","name":"Unauthorized","inputs":[]}],"bytecode":{"object":"0x61018080604052346103515780613628803803809161001e828561037c565b833981010361012081126103515781519161003b6020820161039f565b60408201519061004d6060840161039f565b9261005a6080820161039f565b9560a08201519561ffff871687036103515760609060bf1901126103515760405191606083016001600160401b038111848210176103685760405260c0810151835260e08101519063ffffffff821682036103515761010091602085015201516040830152306080524660a05260a06040516100d760408261037c565b600c815260208101906b5269667445786368616e676560a01b82526040519161010160408461037c565b60058352602083019164302e302e3160d81b8352519020915190208160c0528060e052604051917f8b73c3c69bb8fe3d512ecc4cf759cc79239f7b179b0ffacaa9a75d522b39400f8352602083015260408201524660608201523060808201522061010052805f5560405191604083019083821060018060401b0383111761036857600392604092835260018552602085019182525f526001602052815f209351151560ff8019865416911617845551805160018501556002840163ffffffff60208301511663ffffffff19825416179055015191015533638b78c6d81955335f7f8be0079c531659141344cd1fd0a4f28419497f9722a3daafe3b4186f6b6457e08180a360405163313ce56760e01b81526020816004816001600160a01b0386165afa801561035d575f9061031c575b60ff915016600881036103055750610120526101405261016052600580546001600160b01b0319166001600160a01b039093169290921760a09190911b61ffff60a01b1617905560405161327490816103b4823960805181610494015260a05181610471015260c05181610660015260e051816106860152610100518161044e015261012051818181610c0701528181610ffa0152818161123b01528181611391015281816118bf015261193f01526101405181818161198901526121a40152610160518181816119de01526120f20152f35b63047e54d360e31b5f52600452600860245260445ffd5b506020813d602011610355575b816103366020938361037c565b81010312610351575160ff811681036103515760ff90610232565b5f80fd5b3d9150610329565b6040513d5f823e3d90fd5b634e487b7160e01b5f52604160045260245ffd5b601f909101601f19168101906001600160401b0382119082101761036857604052565b51906001600160a01b03821682036103515756fe60806040526004361015610011575f80fd5b5f3560e01c80631127a80b14611bc15780631ea7ec0414611a565780632569296214611a0d5780632b7ac3f3146119c9578063375f16a7146119ac5780633d7b22b314611972578063476343ee1461190f578063481c85f1146117ec57806354d1f13d146117a8578063587f5ed71461178b578063592b66491461168e57806366e143ca14611549578063708f29a61461152c578063715018a6146114e35780637c2301a6146114665780637dd9cb311461127d5780637e0258071461115057806384b0196e146110795780638da5cb5b1461104d5780639a73f4f514611029578063a0d9e24114610fe5578063a24462ea14610f55578063a743e65e14610b96578063c286befa14610b53578063cc38cd7d14610b16578063d1a897a714610a04578063d21ddc61146109e8578063df69558c146109bf578063e58e0fe314610977578063eb5e91ff14610914578063f04e283e146108c7578063f29ebf611461089f578063f2fde38b14610862578063f3bbbeef1461082a578063fb9f0532146101db5763fee81cf4146101a5575f80fd5b346101d75760203660031901126101d7576101be611dba565b63389a75e1600c525f52602080600c2054604051908152f35b5f80fd5b346101d75760803660031901126101d7576004356001600160401b0381116101d75761020b903690600401611ecd565b6024356001600160401b0381116101d75761022a903690600401611e29565b906044356001600160401b0381116101d75761024a903690600401611f9b565b91906064356001600160401b0381116101d75761026b903690600401611f9b565b939061027684612905565b6102808551611c12565b90549060031b1c0361081b5760c08401956001875161029e81612084565b6102a781612084565b1480156107fe575b6107ef57604085019060608251015142116107e0578151608001516001600160a01b03168061073c575b50506103059060808601516102f360408351015182612573565b91519060208251920151924391612f5b565b9161035c60208601519261034d6060880151966040519561032587611ca8565b86526020860194338652604087019889526001600160401b0360608801981688523691611fef565b97608085019889523691611fef565b9560a0830196875260025496610370612759565b5061ffff60055460a01c1691865183155f1461070e576001905b106106ff576103e86001600160401b03875116106106f057600260ff60608751015116106106e1576103c0602086510151612ffe565b156106d2576103d9916080865101519151905191612654565b84518181029181830414901517156106be5761271090049060ff60608451015116611c200263ffffffff81169081036106be5761042b836001600160401b03610423819442612573565b169751612eda565b945184516020810151935190516001600160a01b039081169591169392909116907f00000000000000000000000000000000000000000000000000000000000000008a467f000000000000000000000000000000000000000000000000000000000000000014307f0000000000000000000000000000000000000000000000000000000000000000141615610630575b875160409081015181519384526020840152820152606090205b95519663ffffffff6020608060ff60608c0151169a0151015116986040519b6104fd8d611cc3565b8c526001600160401b03421660208d015260408c015260608b015260808a015260a089015260c088015260e08701526101008601526101208501526101408401526101608301525f61018083015261055482612d3a565b9160025493600160401b85101561061c577fadadc1b62a250c6ad69315c6cbfb680b0f6b50d733bdcdffb4d73e6e22b0a6ac6105f16001936105dd610617976105c58a887ff8b9da109a8a429429945d6f1c38f3af7b160026a3e9200e7cebae483c6a8c639c016002556002611c42565b90919082549060031b91821b915f19901b1916179055565b604051918291602083526020830190612580565b0390a15261060b61060182612905565b6105c58351611c12565b6040519182918261224b565b0390a1005b634e487b7160e01b5f52604160045260245ffd5b50506104d58a60a06040517f8b73c3c69bb8fe3d512ecc4cf759cc79239f7b179b0ffacaa9a75d522b39400f81527f000000000000000000000000000000000000000000000000000000000000000060208201527f000000000000000000000000000000000000000000000000000000000000000060408201524660608201523060808201522091506104bb565b634e487b7160e01b5f52601160045260245ffd5b63fad7db0760e01b5f5260045ffd5b63bdf8f2b360e01b5f5260045ffd5b63fde5943160e01b5f5260045ffd5b6355fcd02760e01b5f5260045ffd5b836127100161ffff81116106be5761ffff5f1991160161ffff81116106be578461ffff80921604169061038a565b61076c916020916040518080958194631f0a8fa760e01b8352336004840152604060248401526044830190611fcb565b03915afa9081156107d5575f9161079a575b501561078b5787806102d9565b63754760cb60e11b5f5260045ffd5b90506020813d6020116107cd575b816107b560209383611d15565b810103126101d7575180151581036101d7578861077e565b3d91506107a8565b6040513d5f823e3d90fd5b630129799f60e21b5f5260045ffd5b6358fd8d1160e01b5f5260045ffd5b506002875161080c81612084565b61081581612084565b146102af565b634df2e8a360e01b5f5260045ffd5b346101d75760203660031901126101d7576004356006548110156101d757610853602091611c12565b90549060031b1c604051908152f35b60203660031901126101d757610876611dba565b61087e612ca4565b8060601b156108925761089090612cc0565b005b637448fbae5f526004601cfd5b346101d7575f3660031901126101d7576005546040516001600160a01b039091168152602090f35b60203660031901126101d7576108db611dba565b6108e3612ca4565b63389a75e1600c52805f526020600c209081544211610907575f6108909255612cc0565b636f5e88185f526004601cfd5b346101d75760203660031901126101d7576004355f526001602052608060405f20610975610949600160ff8454169301612056565b60405192151583526020830190604080918051845263ffffffff60208201511660208501520151910152565bf35b346101d75760203660031901126101d75760043561ffff811681036101d75761099e612ca4565b6005805461ffff60a01b191660a09290921b61ffff60a01b16919091179055005b346101d75760203660031901126101d7576004356002548110156101d757610853602091611c2a565b346101d7575f3660031901126101d75760205f54604051908152f35b346101d75760403660031901126101d7576004356001600160401b0381116101d757610a34903690600401611f9b565b602435916001600160401b0383116101d757610b0261061792610aa4610a7f7ffcc0bf5af37d2416462f15b1eb9168c1d1741ed5c3ec7905490d015c611dba2b963690600401611d8d565b929094610a9f5f545f52600160205263ffffffff600260405f2001541690565b612a42565b604094919451610ab381611c57565b5f81525f60208201525f604082015260405190610acf82611c72565b5f82525f60208301525f6040830152606082015260405191610af083611c57565b5f8352602083015260408201526120e8565b604051918291602083526020830190612402565b346101d7575f3660031901126101d7576020610b455f545f52600160205263ffffffff600260405f2001541690565b63ffffffff60405191168152f35b346101d75760203660031901126101d757610b6c611dba565b610b74612ca4565b600580546001600160a01b0319166001600160a01b0392909216919091179055005b346101d75760203660031901126101d7576004356001600160401b0381116101d757610bc6903690600401611f9b565b90610bd0826126df565b90610bda83611d36565b92610be86040519485611d15565b808452601f19610bf782611d36565b015f5b818110610f3e57505f92917f00000000000000000000000000000000000000000000000000000000000000009150835b818110610cd0578686610c3f87600454612573565b60045560405190604082016040835283518091526060830190602060608260051b8601019501915f905b828210610ca5577fd796dafe969ef61dd39d8f2109f42e67c96ad6baac6a79895e7e75d7261da5fd86806106178a898382036020850152612402565b90919295602080610cc2600193605f198a82030186528a51612580565b980192019201909291610c69565b6020610cdd8284876127b9565b01610cfa610cf3610cee3684612849565b612eb8565b9135611be6565b90549060031b1c03610f2f57610100610d148284876127b9565b013560028110156101d757610f20576001600160401b03610d4160e0610d3b8486896127b9565b01612440565b164210610f1157610d64610d5f610d598385886127b9565b806127dc565b612cfd565b6060610d718385886127b9565b01358103610eed5750600190610dee610d97366080610d9185888b6127b9565b01611d4d565b8487610db2610da78684846127b9565b6101208101906127f2565b9060ff610de7610140610de1610d598b610dd9610dd0828c8c6127b9565b858101906127f2565b9a90996127b9565b01612827565b1694612e23565b610e0c610dfc8285886127b9565b610e073691806127dc565b612468565b82610180820152610e29610e1f82612d3a565b6105c58351611c2a565b610e33828a612835565b52610e3e8189612835565b50610e9b610e59366020610e5385888b6127b9565b01612849565b968360a0890152610e83610e6c89612eb8565b6105c56020610e7c878a8d6127b9565b0135611be6565b6080610e93610d5985888b6127b9565b013590612573565b95610ed1610eb860e0610eb2610d5986898c6127b9565b0161255f565b6060610ec8610d5986898c6127b9565b013590876128b4565b610edb8289612835565b52610ee68188612835565b5001610c2a565b6060610efa8385886127b9565b0135638f83aff160e01b5f5260045260245260445ffd5b632d5c37f560e21b5f5260045ffd5b6304261aed60e21b5f5260045ffd5b636f8e482b60e11b5f5260045ffd5b602090610f49612759565b82828901015201610bfa565b346101d757366003190160a081126101d7576060136101d757604051610f7a81611c57565b600435815260243563ffffffff811681036101d757602082015260443560408201526064356001600160401b0381116101d757610fbb90369060040161203b565b90608435916001600160401b0383116101d757610fdf61089093369060040161203b565b91612654565b346101d7575f3660031901126101d7576040517f00000000000000000000000000000000000000000000000000000000000000006001600160a01b03168152602090f35b346101d7575f3660031901126101d757602061ffff60055460a01c16604051908152f35b346101d7575f3660031901126101d757638b78c6d819546040516001600160a01b039091168152602090f35b346101d7575f3660031901126101d7576110f260406110ff81519161109e8184611d15565b600c83526b5269667445786368616e676560a01b602084015280516110c38282611d15565b6005815264302e302e3160d81b60208201528151948594600f60f81b865260e0602087015260e0860190611fcb565b9184830390850152611fcb565b4660608301523060808301525f60a083015281810360c083015260206060519182815201906080905f5b818110611137575050500390f35b8251845285945060209384019390920191600101611129565b346101d75760203660031901126101d7576004356001600160401b0381116101d757806004016101a060031983360301126101d75761118e81612cfd565b5061018482013560038110156101d7576111a781612084565b61126e576001600160401b036111bf60448401612440565b16421061125f577f401ceec6722e041e3a2bf9967184263dd4108d58dc1bf32cdc3db346840ecec8916105dd6111f9610617933690612468565b91600261018084015261121861120e84612d3a565b6105c58551611c2a565b611238611228610104830161255f565b9160646084820135910135612573565b907f00000000000000000000000000000000000000000000000000000000000000006128b4565b631ef96db360e21b5f5260045ffd5b6352bfa29d60e01b5f5260045ffd5b346101d75760e03660031901126101d75760043560a03660231901126101d757604051906112aa82611cdf565b602435825260443560208301908152606435604084019081526084356060850190815290939160a4356001600160a01b03811681036101d757608084015260c435946001600160401b0386116101d75760e060031987360301126101d757511561145757825190511015611448575142116114395761133f600654936040519461133386611c8d565b85523690600401611e55565b602084015260408301528060608301524360808301524260a08301525f60c083015261136a82612905565b60065490600160401b82101561061c576105c582600161138f94016006556006611c42565b7f000000000000000000000000000000000000000000000000000000000000000060405191606052306040523360601b602c526323b872dd60601b600c5260205f6064601c82855af1908160015f5114161561141b575b7ff8b9da109a8a429429945d6f1c38f3af7b160026a3e9200e7cebae483c6a8c638380610617875f606052826040528261224b565b3b153d17101561142c5782806113e6565b637939f4245f526004601cfd5b631da7447960e21b5f5260045ffd5b6365da293b60e11b5f5260045ffd5b63747a60fb60e01b5f5260045ffd5b346101d75760c03660031901126101d7576114df60405161148681611c72565b6004358152602435602082015260443560408201526114a6366064611d4d565b60608201526114bc6040519160208301906120a2565b60c081526114cb60e082611d15565b604051918291602083526020830190611fcb565b0390f35b5f3660031901126101d7576114f6612ca4565b5f638b78c6d819547f8be0079c531659141344cd1fd0a4f28419497f9722a3daafe3b4186f6b6457e08280a35f638b78c6d81955005b346101d7575f3660031901126101d7576020600354604051908152f35b346101d75760603660031901126101d7576004356001600160401b0381116101d757611579903690600401611f9b565b6024356001600160401b0381116101d757806004019260c060031983360301126101d7576044356001600160401b0381116101d7576115bc903690600401611d8d565b90853595602485013596606486016115de6115d73683611d4d565b8a8461292e565b60848701359063ffffffff821682036101d7577ffcc0bf5af37d2416462f15b1eb9168c1d1741ed5c3ec7905490d015c611dba2b9961164161163a6044966116306106179d610b029c61166998612a42565b98909c0190612346565b3691611de4565b60208151910120906040519461165686611c72565b8552602085015260408401523690611d4d565b60608201526040519161167b83611c57565b60028352602083015260408201526120e8565b346101d75760403660031901126101d7576004356001600160401b0381116101d7578060040160c060031983360301126101d7576024356001600160401b0381116101d7576116e1903690600401611d8d565b91803561171261163a6024870135936044606489019861170b611704368c611d4d565b888861292e565b0190612346565b8051602091909101206040519261172a602085611d15565b5f84525f805b8181106117745750509561174f91610890976040519461165686611c72565b60608201526040519161176183611c57565b60018352602083015260408201526120e8565b60209061177f612378565b82828901015201611730565b346101d7575f3660031901126101d7576020600454604051908152f35b5f3660031901126101d75763389a75e1600c52335f525f6020600c2055337ffa7b8eab7da67f412cc9575ed43464468f9bfbae89d1675917346ca6d8fe3c925f80a2005b346101d75760203660031901126101d7576004356001600160401b0381116101d75761181c903690600401611ecd565b61182581612905565b61182f8251611c12565b90549060031b1c0361081b5760c081016001815161184c81612084565b61185581612084565b1480156118f2575b6107ef5760606040830151015142106118e3577ff8b9da109a8a429429945d6f1c38f3af7b160026a3e9200e7cebae483c6a8c6391600261061792526118a561060182612905565b602081015151606082015161060b916001600160a01b03167f00000000000000000000000000000000000000000000000000000000000000006128b4565b639eafe1b760e01b5f5260045ffd5b506002815161190081612084565b61190981612084565b1461185d565b346101d7575f3660031901126101d7576004548015611963575f60045560055461089091906001600160a01b03167f00000000000000000000000000000000000000000000000000000000000000006128b4565b630c5214e560e31b5f5260045ffd5b346101d7575f3660031901126101d75760206040517f00000000000000000000000000000000000000000000000000000000000000008152f35b346101d7575f3660031901126101d7576020600254604051908152f35b346101d7575f3660031901126101d7576040517f00000000000000000000000000000000000000000000000000000000000000006001600160a01b03168152602090f35b5f3660031901126101d75763389a75e1600c52335f526202a30042016020600c2055337fdbf36a107da19e49527a7176a1babf963b4b0ff8cde35ee35d6cd8f1f9ac7e1d5f80a2005b346101d75760403660031901126101d7576004356001600160401b0381116101d757803603906101006003198301126101d75760405191611a9683611c57565b816004013560038110156101d757835260248201356001600160401b0381116101d7578201366023820112156101d7576004810135611ad481611d36565b91611ae26040519384611d15565b818352602060046060828601940283010101903682116101d757602401915b818310611b8557505050602084015260c0604319909101126101d757611b5260405191611b2d83611c72565b60448101358352606481013560208401526084810135604084015260a4369101611d4d565b60608201526040820152602435906001600160401b0382116101d757611b7f610890923690600401611d8d565b916120e8565b6060833603126101d7576020606091604051611ba081611c57565b85358152828601358382015260408601356040820152815201920191611b01565b346101d75760203660031901126101d7576004356003548110156101d7576108536020915b600354811015611bfe5760035f5260205f2001905f90565b634e487b7160e01b5f52603260045260245ffd5b600654811015611bfe5760065f5260205f2001905f90565b600254811015611bfe5760025f5260205f2001905f90565b8054821015611bfe575f5260205f2001905f90565b606081019081106001600160401b0382111761061c57604052565b608081019081106001600160401b0382111761061c57604052565b60e081019081106001600160401b0382111761061c57604052565b60c081019081106001600160401b0382111761061c57604052565b6101a081019081106001600160401b0382111761061c57604052565b60a081019081106001600160401b0382111761061c57604052565b604081019081106001600160401b0382111761061c57604052565b90601f801991011681019081106001600160401b0382111761061c57604052565b6001600160401b03811161061c5760051b60200190565b91908260609103126101d757604051611d6581611c57565b809280358252602081013563ffffffff811681036101d7576020830152604090810135910152565b9181601f840112156101d7578235916001600160401b0383116101d757602083818601950101116101d757565b600435906001600160a01b03821682036101d757565b35906001600160a01b03821682036101d757565b9291926001600160401b03821161061c5760405191611e0d601f8201601f191660200184611d15565b8294818452818301116101d7578281602093845f960137010152565b9080601f830112156101d757816020611e4493359101611de4565b90565b359060ff821682036101d757565b919060e0838203126101d75760405190611e6e82611cdf565b8193611e7981611dd0565b83526020810135916001600160401b0383116101d757608082611ea2838396611ec89601611e29565b602087015260408101356040870152611ebd60608201611e47565b606087015201611d4d565b910152565b91908281039261016084126101d75760405191611ee983611c8d565b82948235845260208301356001600160401b0381116101d75760a092611f10918501611e55565b6020850152603f1901126101d75761014090604051611f2e81611cdf565b60408201358152606082013560208201526080820135604082015260a08201356060820152611f5f60c08301611dd0565b6080820152604084015260e08101356060840152610100810135608084015261012081013560a084015201359060038210156101d75760c00152565b9181601f840112156101d7578235916001600160401b0383116101d7576020808501948460051b0101116101d757565b805180835260209291819084018484015e5f828201840152601f01601f1916010190565b929190611ffb81611d36565b936120096040519586611d15565b602085838152019160051b81019283116101d757905b82821061202b57505050565b813581526020918201910161201f565b9080601f830112156101d757816020611e4493359101611fef565b9060405161206381611c57565b6040600282948054845263ffffffff60018201541660208501520154910152565b6003111561208e57565b634e487b7160e01b5f52602160045260245ffd5b906060806120e6938051845260208101516020850152604081015160408501520151910190604080918051845263ffffffff60208201511660208501520151910152565b565b9060018060a01b037f00000000000000000000000000000000000000000000000000000000000000001660405192602080850152836101408101825161212d81612084565b604083015260208301519061010060608401528151809152602061016084019201905f5b81811061221957505050612170604061217e94015160808401906120a2565b03601f198101855284611d15565b803b156101d7576121d960205f9486946040519788968795869463020a49e360e51b86527f00000000000000000000000000000000000000000000000000000000000000006004870152606060248701526064860190611fcb565b84810360031901604486015281815292858401378181018401889052601f01601f1916010301915afa80156107d55761220f5750565b5f6120e691611d15565b919493509160206060600192604088518051835284810151858401520151604082015201950191019187939492612151565b602081528151602082015261016060c060208401519382604085015260018060a01b038551166101808501526122d96080612297602088015160e06101a0890152610260880190611fcb565b6040808901516101c0890152606089015160ff166101e089015291909701518051610200880152602081015163ffffffff166102208801520151610240860152565b60408101518051606086015260208101516080860152604081015160a0860152606081015183860152608060018060a01b039101511660e08501526060810151610100850152608081015161012085015260a081015161014085015201519161234183612084565b015290565b903590601e19813603018212156101d757018035906001600160401b0382116101d7576020019181360383136101d757565b6040519061238582611c57565b5f6040838281528260208201520152565b60a0908051835260208101516020840152604081015160408401526123dd60608201516060850190604080918051845263ffffffff60208201511660208501520151910152565b6001600160401b0360808201511660c0840152015190600282101561208e5760e00152565b90602080835192838152019201905f5b81811061241f5750505090565b9091926020610100826124356001948851612396565b019401929101612412565b356001600160401b03811681036101d75790565b35906001600160401b03821682036101d757565b91906101a0838203126101d7576040519061248282611cc3565b81938035835261249460208201612454565b60208401526124a560408201612454565b604084015260608101356060840152608081013560808401526124ca60a08201612454565b60a084015260c08101356001600160401b0381116101d757610180926124f1918301611e29565b60c084015261250260e08201611dd0565b60e08401526125146101008201611dd0565b6101008401526101208101356101208401526125336101408201611e47565b6101408401526125466101608201612454565b61016084015201359060038210156101d7576101800152565b356001600160a01b03811681036101d75790565b919082018092116106be57565b90815181526001600160401b0360208301511660208201526001600160401b03604083015116604082015260608201516060820152608082015160808201526001600160401b0360a08301511660a0820152610180806125f160c08501516101a060c08601526101a0850190611fcb565b9360018060a01b0360e08201511660e085015260018060a01b036101008201511661010085015261012081015161012085015260ff610140820151166101408501526001600160401b036101608201511661016085015201519161234183612084565b9063ffffffff61268783516020850194604084875116910151919091606092604051928352602083015260408201522090565b92511692600163ffffffff6126af5f545f52600160205263ffffffff600260405f2001541690565b16019163ffffffff83116106be576126c9945f5494612d57565b156126d057565b632814065160e01b5f5260045ffd5b906126e982611d36565b6126f66040519182611d15565b8281528092612707601f1991611d36565b01905f5b82811061271757505050565b60209060405161272681611ca8565b5f81525f838201525f604082015261273c612378565b60608201525f60808201525f60a08201528282850101520161270b565b6040519061276682611cc3565b5f610180838281528260208201528260408201528260608201528260808201528260a0820152606060c08201528260e0820152826101008201528261012082015282610140820152826101608201520152565b9190811015611bfe5760051b8101359061017e19813603018212156101d7570190565b90359061019e19813603018212156101d7570190565b903590601e19813603018212156101d757018035906001600160401b0382116101d757602001918160051b360383136101d757565b3560ff811681036101d75790565b8051821015611bfe5760209160051b010190565b919091610100818403126101d75760e06040519161286683611ca8565b61288c839582358552602083013560208601526040830135604086015260608301611d4d565b606084015261289d60c08201612454565b608084015201359060028210156101d75760a00152565b919060145260345263a9059cbb60601b5f5260205f6044601082855af1908160015f511416156128e7575b50505f603452565b3b153d1710156128f8575f806128df565b6390b8ec185f526004601cfd5b6040516129288161291a60208201948561224b565b03601f198101835282611d15565b51902090565b9190915f54808414612a3c57815f52600160205260405f2061296760016040519261295884611cfa565b60ff8154161515845201612056565b60208201525115612a2d575f526001602052600360405f20015460408301511115612a1e577f4ecbd24cd7522746649cae9ac63fd99619cc85837ae3447a114bbbc3a8043496926040926003848051926129c084611cfa565b6001845260208401908152845f526001602052815f209351151560ff8019865416911617845551805160018501556002840163ffffffff60208301511663ffffffff198254161790550151910155805f5582519182526020820152a1565b6307800bf560e21b5f5260045ffd5b63e1965c6560e01b5f5260045ffd5b50505050565b9192908315612c9557612a5484611d36565b91612a626040519384611d15565b848352601f19612a7186611d36565b015f5b818110612c7e5750508290612a88866126df565b91600354915f5b88811015612c7357612aa18185612573565b8160051b87013560de19883603018112156101d757870160208101896001600160401b03612b6b610160610d3b612adb610d5f87896127dc565b95612b128a60408a0197604051612af181611c57565b8b358152893560208201528a6040820152612b0c8383612835565b52612835565b50612b5a8882612b2560a08301836127f2565b612b45610140610de1612b3d60c088969801866127f2565b9690956127dc565b9360ff612b52368e611d4d565b951694612e23565b612b6481896127dc565b35976127dc565b1663ffffffff8d16036001600160401b0381116106be576001600160401b03166085026001600160401b0381169081036106be5761e3b3016001600160401b0381116106be576001600160401b036103e88161012c9316041601916001600160401b0383116106be576001600160401b03612beb81612c0d951642612573565b169360405195612bfa87611ca8565b8652602086015260408501523690611d4d565b606083015260808201525f60a0820152612c278287612835565b52612c328186612835565b50612c46612c408287612835565b51612eb8565b90600354600160401b81101561061c576001926105c58285612c6d94016003556003611c42565b01612a8f565b509450945050935050565b602090612c89612378565b82828801015201612a74565b630b35156b60e31b5f5260045ffd5b638b78c6d819543303612cb357565b6382b429005f526004601cfd5b60018060a01b031680638b78c6d819547f8be0079c531659141344cd1fd0a4f28419497f9722a3daafe3b4186f6b6457e05f80a3638b78c6d81955565b612d1b612d12612d0d3684612468565b612d3a565b91356002611c42565b90549060031b1c8103612d2b5790565b635dcaf2d760e01b5f5260045ffd5b6040516129288161291a6020820194602086526040830190612580565b939591929490955f945b8451861015612db357600188811c98811603612d9657612d818686612835565b515f52602052600160405f20955b0194612d61565b612da08686612835565b51905f52602052600160405f2095612d8f565b95929650925092505f935f5b8251811015612e195781612dd38285612835565b5114612de157600101612dbf565b50509091925060015b15612e1257612df890612ee7565b908115612e125763ffffffff165f5260205260405f201490565b5050505f90565b5050909192612dea565b94939192612e39612e4192612e48953691611fef565b923691611fef565b9084612654565b63ffffffff6020612e6c5f545f52600160205263ffffffff600260405f2001541690565b930151169063ffffffff5f1991160163ffffffff81116106be5763ffffffff160163ffffffff81116106be5763ffffffff809116911610612ea957565b630a47293560e31b5f5260045ffd5b604051612ec9602082018093612396565b610100815261292861012082611d15565b919082039182116106be57565b80518015612f3d575f1981019081116106be57612f049082612835565b519080515f1981019081116106be57805b612f1e57505090565b5f190191612f2c8383612835565b515f526020528160405f2092612f15565b50505f90565b81810392915f1380158285131691841216176106be57565b909193929382811015612fd35790612f7681612f7c93612eda565b92612eda565b908380841215612fc057612f9893612f9391612f43565b612fdb565b600160ff1b81146106be575f03905b5f82820192831291129080158216911516176106be5790565b612f9390612fcd94612f43565b90612fa7565b505050905090565b8181029181159183041417820215612ff1570490565b63ad251c275f526004601cfd5b8051601681146131fc576017811461318557601981146130b45760221461302457505f90565b805115611bfe576020810180516001600160f81b031916801561309657605160f81b146130515750505f90565b815115611bfe57516001600160f81b031916605160f81b149081613073575090565b8091505160011015611bfe57602101516001600160f81b031916600160fd1b1490565b50815115611bfe57516001600160f81b031916159081613073575090565b50805115611bfe5760208101516001600160f81b031916603b60f91b14908161315e575b81613137575b81613110575b816130ed575090565b8091505160181015611bfe57603801516001600160f81b031916602b60fa1b1490565b8091505160171015611bfe5760378101516001600160f81b031916601160fb1b14906130e4565b8091505160021015611bfe5760228101516001600160f81b031916600560fa1b14906130de565b8091505160011015611bfe5760218101516001600160f81b03191660a960f81b14906130d8565b50805115611bfe5760208101516001600160f81b03191660a960f81b1490816131d5575b816131b2575090565b8091505160161015611bfe57603601516001600160f81b031916608760f81b1490565b8091505160011015611bfe5760218101516001600160f81b031916600560fa1b14906131a9565b15611bfe5760208101516001600160f81b03191615908161321b575090565b8091505160011015611bfe57602101516001600160f81b031916600560fa1b149056fea264697066735822122011e22345b560b2993f22039ca2106f1a47e069246430f690f18582c30629af6b64736f6c634300081c0033","linkReferences":{}},"methodIdentifiers":{"accumulatedFees()":"587f5ed7","adminSetFeeRouter(address)":"c286befa","adminSetTakerFeeBips(uint16)":"e58e0fe3","auctionHashes(uint256)":"f3bbbeef","cancelOwnershipHandover()":"54d1f13d","checkpoints(bytes32)":"eb5e91ff","circuitVerificationKey()":"3d7b22b3","claimAuction((uint256,(address,bytes,bytes32,uint8,(bytes32,uint32,uint256)),(uint256,uint256,uint256,uint256,address),uint256,uint256,uint256,uint8),bytes,bytes32[],bytes32[])":"fb9f0532","completeOwnershipHandover(address)":"f04e283e","eip712Domain()":"84b0196e","feeRouter()":"f29ebf61","getTotalOrders()":"375f16a7","getTotalPayments()":"708f29a6","lightClientHeight()":"cc38cd7d","mmrRoot()":"d21ddc61","orderHashes(uint256)":"df69558c","owner()":"8da5cb5b","ownershipHandoverExpiresAt(address)":"fee81cf4","paymentHashes(uint256)":"1127a80b","refundAuction((uint256,(address,bytes,bytes32,uint8,(bytes32,uint32,uint256)),(uint256,uint256,uint256,uint256,address),uint256,uint256,uint256,uint8))":"481c85f1","refundOrder((uint256,uint64,uint64,uint256,uint256,uint64,bytes,address,address,bytes32,uint8,uint64,uint8))":"7e025807","renounceOwnership()":"715018a6","requestOwnershipHandover()":"25692962","serializeLightClientPublicInput((bytes32,bytes32,bytes32,(bytes32,uint32,uint256)))":"7c2301a6","settleOrders(((uint256,uint64,uint64,uint256,uint256,uint64,bytes,address,address,bytes32,uint8,uint64,uint8),(uint256,uint256,bytes32,(bytes32,uint32,uint256),uint64,uint8),bytes32[],bytes32[],uint32)[])":"a743e65e","startAuction(uint256,(uint256,uint256,uint256,uint256,address),(address,bytes,bytes32,uint8,(bytes32,uint32,uint256)))":"7dd9cb31","submitPaymentProofs((bytes32,(uint256,uint64,uint64,uint256,uint256,uint64,bytes,address,address,bytes32,uint8,uint64,uint8),(bytes32,uint32,uint256),bytes32[],bytes32[])[],(bytes32,bytes32,bytes,(bytes32,uint32,uint256)),bytes)":"66e143ca","submitPaymentProofs((bytes32,(uint256,uint64,uint64,uint256,uint256,uint64,bytes,address,address,bytes32,uint8,uint64,uint8),(bytes32,uint32,uint256),bytes32[],bytes32[])[],bytes)":"d1a897a7","syntheticBitcoin()":"a0d9e241","takerFeeBips()":"9a73f4f5","transferOwnership(address)":"f2fde38b","updateLightClient((bytes32,bytes32,bytes,(bytes32,uint32,uint256)),bytes)":"592b6649","verifier()":"2b7ac3f3","verifyBlockInclusion((bytes32,uint32,uint256),bytes32[],bytes32[])":"a24462ea","verifyProof((uint8,(bytes32,bytes32,bytes32)[],(bytes32,bytes32,bytes32,(bytes32,uint32,uint256))),bytes)":"1ea7ec04","withdrawFees()":"476343ee"},"storageLayout":{"storage":[{"astId":44670,"contract":"src/BTCDutchAuctionHouse.sol:BTCDutchAuctionHouse","label":"mmrRoot","offset":0,"slot":"0","type":"t_bytes32"},{"astId":44675,"contract":"src/BTCDutchAuctionHouse.sol:BTCDutchAuctionHouse","label":"checkpoints","offset":0,"slot":"1","type":"t_mapping(t_bytes32,t_struct(BitcoinCheckpoint)46193_storage)"},{"astId":45082,"contract":"src/BTCDutchAuctionHouse.sol:BTCDutchAuctionHouse","label":"orderHashes","offset":0,"slot":"2","type":"t_array(t_bytes32)dyn_storage"},{"astId":45085,"contract":"src/BTCDutchAuctionHouse.sol:BTCDutchAuctionHouse","label":"paymentHashes","offset":0,"slot":"3","type":"t_array(t_bytes32)dyn_storage"},{"astId":45087,"contract":"src/BTCDutchAuctionHouse.sol:BTCDutchAuctionHouse","label":"accumulatedFees","offset":0,"slot":"4","type":"t_uint256"},{"astId":45089,"contract":"src/BTCDutchAuctionHouse.sol:BTCDutchAuctionHouse","label":"feeRouter","offset":0,"slot":"5","type":"t_address"},{"astId":45091,"contract":"src/BTCDutchAuctionHouse.sol:BTCDutchAuctionHouse","label":"takerFeeBips","offset":20,"slot":"5","type":"t_uint16"},{"astId":44329,"contract":"src/BTCDutchAuctionHouse.sol:BTCDutchAuctionHouse","label":"auctionHashes","offset":0,"slot":"6","type":"t_array(t_bytes32)dyn_storage"}],"types":{"t_address":{"encoding":"inplace","label":"address","numberOfBytes":"20"},"t_array(t_bytes32)dyn_storage":{"encoding":"dynamic_array","label":"bytes32[]","numberOfBytes":"32","base":"t_bytes32"},"t_bool":{"encoding":"inplace","label":"bool","numberOfBytes":"1"},"t_bytes32":{"encoding":"inplace","label":"bytes32","numberOfBytes":"32"},"t_mapping(t_bytes32,t_struct(BitcoinCheckpoint)46193_storage)":{"encoding":"mapping","key":"t_bytes32","label":"mapping(bytes32 => struct BitcoinCheckpoint)","numberOfBytes":"32","value":"t_struct(BitcoinCheckpoint)46193_storage"},"t_struct(BitcoinCheckpoint)46193_storage":{"encoding":"inplace","label":"struct BitcoinCheckpoint","numberOfBytes":"128","members":[{"astId":46189,"contract":"src/BTCDutchAuctionHouse.sol:BTCDutchAuctionHouse","label":"established","offset":0,"slot":"0","type":"t_bool"},{"astId":46192,"contract":"src/BTCDutchAuctionHouse.sol:BTCDutchAuctionHouse","label":"tipBlockLeaf","offset":0,"slot":"1","type":"t_struct(BlockLeaf)46187_storage"}]},"t_struct(BlockLeaf)46187_storage":{"encoding":"inplace","label":"struct BlockLeaf","numberOfBytes":"96","members":[{"astId":46182,"contract":"src/BTCDutchAuctionHouse.sol:BTCDutchAuctionHouse","label":"blockHash","offset":0,"slot":"0","type":"t_bytes32"},{"astId":46184,"contract":"src/BTCDutchAuctionHouse.sol:BTCDutchAuctionHouse","label":"height","offset":0,"slot":"1","type":"t_uint32"},{"astId":46186,"contract":"src/BTCDutchAuctionHouse.sol:BTCDutchAuctionHouse","label":"cumulativeChainwork","offset":0,"slot":"2","type":"t_uint256"}]},"t_uint16":{"encoding":"inplace","label":"uint16","numberOfBytes":"2"},"t_uint256":{"encoding":"inplace","label":"uint256","numberOfBytes":"32"},"t_uint32":{"encoding":"inplace","label":"uint32","numberOfBytes":"4"}}},"id":38}