{"abi":[{"type":"constructor","inputs":[{"name":"_mmrRoot","type":"bytes32","internalType":"bytes32"},{"name":"_depositToken","type":"address","internalType":"address"},{"name":"_circuitVerificationKey","type":"bytes32","internalType":"bytes32"},{"name":"_verifier","type":"address","internalType":"address"},{"name":"_feeRouter","type":"address","internalType":"address"},{"name":"_takerFeeBips","type":"uint16","internalType":"uint16"},{"name":"_tipBlockLeaf","type":"tuple","internalType":"struct BlockLeaf","components":[{"name":"blockHash","type":"bytes32","internalType":"bytes32"},{"name":"height","type":"uint32","internalType":"uint32"},{"name":"cumulativeChainwork","type":"uint256","internalType":"uint256"}]}],"stateMutability":"nonpayable"},{"type":"function","name":"CIRCUIT_VERIFICATION_KEY","inputs":[],"outputs":[{"name":"","type":"bytes32","internalType":"bytes32"}],"stateMutability":"view"},{"type":"function","name":"ERC20_BTC","inputs":[],"outputs":[{"name":"","type":"address","internalType":"address"}],"stateMutability":"view"},{"type":"function","name":"MIN_CONFIRMATION_BLOCKS","inputs":[],"outputs":[{"name":"","type":"uint8","internalType":"uint8"}],"stateMutability":"view"},{"type":"function","name":"MIN_OUTPUT_SATS","inputs":[],"outputs":[{"name":"","type":"uint16","internalType":"uint16"}],"stateMutability":"view"},{"type":"function","name":"VERIFIER","inputs":[],"outputs":[{"name":"","type":"address","internalType":"address"}],"stateMutability":"view"},{"type":"function","name":"accumulatedFeeBalance","inputs":[],"outputs":[{"name":"","type":"uint256","internalType":"uint256"}],"stateMutability":"view"},{"type":"function","name":"adminSetFeeRouterAddress","inputs":[{"name":"_feeRouter","type":"address","internalType":"address"}],"outputs":[],"stateMutability":"nonpayable"},{"type":"function","name":"adminSetTakerFeeBips","inputs":[{"name":"_takerFeeBips","type":"uint16","internalType":"uint16"}],"outputs":[],"stateMutability":"nonpayable"},{"type":"function","name":"auctionHashes","inputs":[{"name":"","type":"uint256","internalType":"uint256"}],"outputs":[{"name":"","type":"bytes32","internalType":"bytes32"}],"stateMutability":"view"},{"type":"function","name":"cancelOwnershipHandover","inputs":[],"outputs":[],"stateMutability":"payable"},{"type":"function","name":"checkpoints","inputs":[{"name":"","type":"bytes32","internalType":"bytes32"}],"outputs":[{"name":"established","type":"bool","internalType":"bool"},{"name":"tipBlockLeaf","type":"tuple","internalType":"struct BlockLeaf","components":[{"name":"blockHash","type":"bytes32","internalType":"bytes32"},{"name":"height","type":"uint32","internalType":"uint32"},{"name":"cumulativeChainwork","type":"uint256","internalType":"uint256"}]}],"stateMutability":"view"},{"type":"function","name":"completeOwnershipHandover","inputs":[{"name":"pendingOwner","type":"address","internalType":"address"}],"outputs":[],"stateMutability":"payable"},{"type":"function","name":"eip712Domain","inputs":[],"outputs":[{"name":"fields","type":"bytes1","internalType":"bytes1"},{"name":"name","type":"string","internalType":"string"},{"name":"version","type":"string","internalType":"string"},{"name":"chainId","type":"uint256","internalType":"uint256"},{"name":"verifyingContract","type":"address","internalType":"address"},{"name":"salt","type":"bytes32","internalType":"bytes32"},{"name":"extensions","type":"uint256[]","internalType":"uint256[]"}],"stateMutability":"view"},{"type":"function","name":"feeRouterAddress","inputs":[],"outputs":[{"name":"","type":"address","internalType":"address"}],"stateMutability":"view"},{"type":"function","name":"fillAuction","inputs":[{"name":"auction","type":"tuple","internalType":"struct DutchAuction","components":[{"name":"auctionIndex","type":"uint256","internalType":"uint256"},{"name":"baseDepositParams","type":"tuple","internalType":"struct BaseDepositLiquidityParams","components":[{"name":"depositOwnerAddress","type":"address","internalType":"address"},{"name":"btcPayoutScriptPubKey","type":"bytes25","internalType":"bytes25"},{"name":"depositSalt","type":"bytes32","internalType":"bytes32"},{"name":"confirmationBlocks","type":"uint8","internalType":"uint8"},{"name":"safeBlockLeaf","type":"tuple","internalType":"struct BlockLeaf","components":[{"name":"blockHash","type":"bytes32","internalType":"bytes32"},{"name":"height","type":"uint32","internalType":"uint32"},{"name":"cumulativeChainwork","type":"uint256","internalType":"uint256"}]}]},{"name":"dutchAuctionParams","type":"tuple","internalType":"struct DutchAuctionParams","components":[{"name":"startBtcOut","type":"uint256","internalType":"uint256"},{"name":"endBtcOut","type":"uint256","internalType":"uint256"},{"name":"decayBlocks","type":"uint256","internalType":"uint256"},{"name":"deadline","type":"uint256","internalType":"uint256"},{"name":"fillerWhitelistContract","type":"address","internalType":"address"}]},{"name":"depositAmount","type":"uint256","internalType":"uint256"},{"name":"startBlock","type":"uint256","internalType":"uint256"},{"name":"startTimestamp","type":"uint256","internalType":"uint256"},{"name":"state","type":"uint8","internalType":"enum DutchAuctionState"}]},{"name":"fillerAuthData","type":"bytes","internalType":"bytes"},{"name":"safeBlockSiblings","type":"bytes32[]","internalType":"bytes32[]"},{"name":"safeBlockPeaks","type":"bytes32[]","internalType":"bytes32[]"}],"outputs":[],"stateMutability":"nonpayable"},{"type":"function","name":"getLightClientHeight","inputs":[],"outputs":[{"name":"","type":"uint32","internalType":"uint32"}],"stateMutability":"view"},{"type":"function","name":"getSwapHashesLength","inputs":[],"outputs":[{"name":"","type":"uint256","internalType":"uint256"}],"stateMutability":"view"},{"type":"function","name":"getVaultHashesLength","inputs":[],"outputs":[{"name":"","type":"uint256","internalType":"uint256"}],"stateMutability":"view"},{"type":"function","name":"mmrRoot","inputs":[],"outputs":[{"name":"","type":"bytes32","internalType":"bytes32"}],"stateMutability":"view"},{"type":"function","name":"owner","inputs":[],"outputs":[{"name":"result","type":"address","internalType":"address"}],"stateMutability":"view"},{"type":"function","name":"ownershipHandoverExpiresAt","inputs":[{"name":"pendingOwner","type":"address","internalType":"address"}],"outputs":[{"name":"result","type":"uint256","internalType":"uint256"}],"stateMutability":"view"},{"type":"function","name":"payoutToFeeRouter","inputs":[],"outputs":[],"stateMutability":"nonpayable"},{"type":"function","name":"releaseLiquidityBatch","inputs":[{"name":"paramsArray","type":"tuple[]","internalType":"struct ReleaseLiquidityParams[]","components":[{"name":"swap","type":"tuple","internalType":"struct ProposedSwap","components":[{"name":"swapIndex","type":"uint256","internalType":"uint256"},{"name":"depositVaultHash","type":"bytes32","internalType":"bytes32"},{"name":"swapBitcoinBlockLeaf","type":"tuple","internalType":"struct BlockLeaf","components":[{"name":"blockHash","type":"bytes32","internalType":"bytes32"},{"name":"height","type":"uint32","internalType":"uint32"},{"name":"cumulativeChainwork","type":"uint256","internalType":"uint256"}]},{"name":"confirmationBlocks","type":"uint8","internalType":"uint8"},{"name":"liquidityUnlockTimestamp","type":"uint64","internalType":"uint64"},{"name":"specifiedPayoutAddress","type":"address","internalType":"address"},{"name":"totalSwapOutput","type":"uint256","internalType":"uint256"},{"name":"takerFee","type":"uint256","internalType":"uint256"},{"name":"state","type":"uint8","internalType":"enum SwapState"}]},{"name":"bitcoinSwapBlockSiblings","type":"bytes32[]","internalType":"bytes32[]"},{"name":"bitcoinSwapBlockPeaks","type":"bytes32[]","internalType":"bytes32[]"},{"name":"utilizedVault","type":"tuple","internalType":"struct DepositVault","components":[{"name":"vaultIndex","type":"uint256","internalType":"uint256"},{"name":"depositTimestamp","type":"uint64","internalType":"uint64"},{"name":"depositUnlockTimestamp","type":"uint64","internalType":"uint64"},{"name":"vaultAmount","type":"uint256","internalType":"uint256"},{"name":"takerFee","type":"uint256","internalType":"uint256"},{"name":"expectedSats","type":"uint64","internalType":"uint64"},{"name":"btcPayoutScriptPubKey","type":"bytes25","internalType":"bytes25"},{"name":"specifiedPayoutAddress","type":"address","internalType":"address"},{"name":"ownerAddress","type":"address","internalType":"address"},{"name":"salt","type":"bytes32","internalType":"bytes32"},{"name":"confirmationBlocks","type":"uint8","internalType":"uint8"},{"name":"attestedBitcoinBlockHeight","type":"uint64","internalType":"uint64"}]},{"name":"tipBlockHeight","type":"uint32","internalType":"uint32"}]}],"outputs":[],"stateMutability":"nonpayable"},{"type":"function","name":"renounceOwnership","inputs":[],"outputs":[],"stateMutability":"payable"},{"type":"function","name":"requestOwnershipHandover","inputs":[],"outputs":[],"stateMutability":"payable"},{"type":"function","name":"serializeLightClientPublicInput","inputs":[{"name":"input","type":"tuple","internalType":"struct LightClientPublicInput","components":[{"name":"previousMmrRoot","type":"bytes32","internalType":"bytes32"},{"name":"newMmrRoot","type":"bytes32","internalType":"bytes32"},{"name":"compressedLeavesHash","type":"bytes32","internalType":"bytes32"},{"name":"tipBlockLeaf","type":"tuple","internalType":"struct BlockLeaf","components":[{"name":"blockHash","type":"bytes32","internalType":"bytes32"},{"name":"height","type":"uint32","internalType":"uint32"},{"name":"cumulativeChainwork","type":"uint256","internalType":"uint256"}]}]}],"outputs":[{"name":"","type":"bytes","internalType":"bytes"}],"stateMutability":"pure"},{"type":"function","name":"startAuction","inputs":[{"name":"depositAmount","type":"uint256","internalType":"uint256"},{"name":"auctionParams","type":"tuple","internalType":"struct DutchAuctionParams","components":[{"name":"startBtcOut","type":"uint256","internalType":"uint256"},{"name":"endBtcOut","type":"uint256","internalType":"uint256"},{"name":"decayBlocks","type":"uint256","internalType":"uint256"},{"name":"deadline","type":"uint256","internalType":"uint256"},{"name":"fillerWhitelistContract","type":"address","internalType":"address"}]},{"name":"baseDepositParams","type":"tuple","internalType":"struct BaseDepositLiquidityParams","components":[{"name":"depositOwnerAddress","type":"address","internalType":"address"},{"name":"btcPayoutScriptPubKey","type":"bytes25","internalType":"bytes25"},{"name":"depositSalt","type":"bytes32","internalType":"bytes32"},{"name":"confirmationBlocks","type":"uint8","internalType":"uint8"},{"name":"safeBlockLeaf","type":"tuple","internalType":"struct BlockLeaf","components":[{"name":"blockHash","type":"bytes32","internalType":"bytes32"},{"name":"height","type":"uint32","internalType":"uint32"},{"name":"cumulativeChainwork","type":"uint256","internalType":"uint256"}]}]}],"outputs":[],"stateMutability":"nonpayable"},{"type":"function","name":"submitBatchSwapProof","inputs":[{"name":"swapParams","type":"tuple[]","internalType":"struct SubmitSwapProofParams[]","components":[{"name":"swapBitcoinTxid","type":"bytes32","internalType":"bytes32"},{"name":"vault","type":"tuple","internalType":"struct DepositVault","components":[{"name":"vaultIndex","type":"uint256","internalType":"uint256"},{"name":"depositTimestamp","type":"uint64","internalType":"uint64"},{"name":"depositUnlockTimestamp","type":"uint64","internalType":"uint64"},{"name":"vaultAmount","type":"uint256","internalType":"uint256"},{"name":"takerFee","type":"uint256","internalType":"uint256"},{"name":"expectedSats","type":"uint64","internalType":"uint64"},{"name":"btcPayoutScriptPubKey","type":"bytes25","internalType":"bytes25"},{"name":"specifiedPayoutAddress","type":"address","internalType":"address"},{"name":"ownerAddress","type":"address","internalType":"address"},{"name":"salt","type":"bytes32","internalType":"bytes32"},{"name":"confirmationBlocks","type":"uint8","internalType":"uint8"},{"name":"attestedBitcoinBlockHeight","type":"uint64","internalType":"uint64"}]},{"name":"swapBitcoinBlockLeaf","type":"tuple","internalType":"struct BlockLeaf","components":[{"name":"blockHash","type":"bytes32","internalType":"bytes32"},{"name":"height","type":"uint32","internalType":"uint32"},{"name":"cumulativeChainwork","type":"uint256","internalType":"uint256"}]},{"name":"swapBitcoinBlockSiblings","type":"bytes32[]","internalType":"bytes32[]"},{"name":"swapBitcoinBlockPeaks","type":"bytes32[]","internalType":"bytes32[]"}]},{"name":"proof","type":"bytes","internalType":"bytes"}],"outputs":[],"stateMutability":"nonpayable"},{"type":"function","name":"submitBatchSwapProofWithLightClientUpdate","inputs":[{"name":"swapParams","type":"tuple[]","internalType":"struct SubmitSwapProofParams[]","components":[{"name":"swapBitcoinTxid","type":"bytes32","internalType":"bytes32"},{"name":"vault","type":"tuple","internalType":"struct DepositVault","components":[{"name":"vaultIndex","type":"uint256","internalType":"uint256"},{"name":"depositTimestamp","type":"uint64","internalType":"uint64"},{"name":"depositUnlockTimestamp","type":"uint64","internalType":"uint64"},{"name":"vaultAmount","type":"uint256","internalType":"uint256"},{"name":"takerFee","type":"uint256","internalType":"uint256"},{"name":"expectedSats","type":"uint64","internalType":"uint64"},{"name":"btcPayoutScriptPubKey","type":"bytes25","internalType":"bytes25"},{"name":"specifiedPayoutAddress","type":"address","internalType":"address"},{"name":"ownerAddress","type":"address","internalType":"address"},{"name":"salt","type":"bytes32","internalType":"bytes32"},{"name":"confirmationBlocks","type":"uint8","internalType":"uint8"},{"name":"attestedBitcoinBlockHeight","type":"uint64","internalType":"uint64"}]},{"name":"swapBitcoinBlockLeaf","type":"tuple","internalType":"struct BlockLeaf","components":[{"name":"blockHash","type":"bytes32","internalType":"bytes32"},{"name":"height","type":"uint32","internalType":"uint32"},{"name":"cumulativeChainwork","type":"uint256","internalType":"uint256"}]},{"name":"swapBitcoinBlockSiblings","type":"bytes32[]","internalType":"bytes32[]"},{"name":"swapBitcoinBlockPeaks","type":"bytes32[]","internalType":"bytes32[]"}]},{"name":"blockProofParams","type":"tuple","internalType":"struct BlockProofParams","components":[{"name":"priorMmrRoot","type":"bytes32","internalType":"bytes32"},{"name":"newMmrRoot","type":"bytes32","internalType":"bytes32"},{"name":"compressedBlockLeaves","type":"bytes","internalType":"bytes"},{"name":"tipBlockLeaf","type":"tuple","internalType":"struct BlockLeaf","components":[{"name":"blockHash","type":"bytes32","internalType":"bytes32"},{"name":"height","type":"uint32","internalType":"uint32"},{"name":"cumulativeChainwork","type":"uint256","internalType":"uint256"}]}]},{"name":"proof","type":"bytes","internalType":"bytes"}],"outputs":[],"stateMutability":"nonpayable"},{"type":"function","name":"swapHashes","inputs":[{"name":"","type":"uint256","internalType":"uint256"}],"outputs":[{"name":"","type":"bytes32","internalType":"bytes32"}],"stateMutability":"view"},{"type":"function","name":"takerFeeBips","inputs":[],"outputs":[{"name":"","type":"uint16","internalType":"uint16"}],"stateMutability":"view"},{"type":"function","name":"transferOwnership","inputs":[{"name":"newOwner","type":"address","internalType":"address"}],"outputs":[],"stateMutability":"payable"},{"type":"function","name":"updateLightClient","inputs":[{"name":"blockProofParams","type":"tuple","internalType":"struct BlockProofParams","components":[{"name":"priorMmrRoot","type":"bytes32","internalType":"bytes32"},{"name":"newMmrRoot","type":"bytes32","internalType":"bytes32"},{"name":"compressedBlockLeaves","type":"bytes","internalType":"bytes"},{"name":"tipBlockLeaf","type":"tuple","internalType":"struct BlockLeaf","components":[{"name":"blockHash","type":"bytes32","internalType":"bytes32"},{"name":"height","type":"uint32","internalType":"uint32"},{"name":"cumulativeChainwork","type":"uint256","internalType":"uint256"}]}]},{"name":"proof","type":"bytes","internalType":"bytes"}],"outputs":[],"stateMutability":"nonpayable"},{"type":"function","name":"vaultHashes","inputs":[{"name":"","type":"uint256","internalType":"uint256"}],"outputs":[{"name":"","type":"bytes32","internalType":"bytes32"}],"stateMutability":"view"},{"type":"function","name":"verifyZkProof","inputs":[{"name":"proofPublicInput","type":"tuple","internalType":"struct ProofPublicInput","components":[{"name":"proofType","type":"uint8","internalType":"enum ProofType"},{"name":"swaps","type":"tuple[]","internalType":"struct SwapPublicInput[]","components":[{"name":"swapBitcoinTxid","type":"bytes32","internalType":"bytes32"},{"name":"swapBitcoinBlockHash","type":"bytes32","internalType":"bytes32"},{"name":"depositVaultHash","type":"bytes32","internalType":"bytes32"}]},{"name":"lightClient","type":"tuple","internalType":"struct LightClientPublicInput","components":[{"name":"previousMmrRoot","type":"bytes32","internalType":"bytes32"},{"name":"newMmrRoot","type":"bytes32","internalType":"bytes32"},{"name":"compressedLeavesHash","type":"bytes32","internalType":"bytes32"},{"name":"tipBlockLeaf","type":"tuple","internalType":"struct BlockLeaf","components":[{"name":"blockHash","type":"bytes32","internalType":"bytes32"},{"name":"height","type":"uint32","internalType":"uint32"},{"name":"cumulativeChainwork","type":"uint256","internalType":"uint256"}]}]}]},{"name":"proof","type":"bytes","internalType":"bytes"}],"outputs":[],"stateMutability":"view"},{"type":"function","name":"withdrawFromExpiredAuction","inputs":[{"name":"auction","type":"tuple","internalType":"struct DutchAuction","components":[{"name":"auctionIndex","type":"uint256","internalType":"uint256"},{"name":"baseDepositParams","type":"tuple","internalType":"struct BaseDepositLiquidityParams","components":[{"name":"depositOwnerAddress","type":"address","internalType":"address"},{"name":"btcPayoutScriptPubKey","type":"bytes25","internalType":"bytes25"},{"name":"depositSalt","type":"bytes32","internalType":"bytes32"},{"name":"confirmationBlocks","type":"uint8","internalType":"uint8"},{"name":"safeBlockLeaf","type":"tuple","internalType":"struct BlockLeaf","components":[{"name":"blockHash","type":"bytes32","internalType":"bytes32"},{"name":"height","type":"uint32","internalType":"uint32"},{"name":"cumulativeChainwork","type":"uint256","internalType":"uint256"}]}]},{"name":"dutchAuctionParams","type":"tuple","internalType":"struct DutchAuctionParams","components":[{"name":"startBtcOut","type":"uint256","internalType":"uint256"},{"name":"endBtcOut","type":"uint256","internalType":"uint256"},{"name":"decayBlocks","type":"uint256","internalType":"uint256"},{"name":"deadline","type":"uint256","internalType":"uint256"},{"name":"fillerWhitelistContract","type":"address","internalType":"address"}]},{"name":"depositAmount","type":"uint256","internalType":"uint256"},{"name":"startBlock","type":"uint256","internalType":"uint256"},{"name":"startTimestamp","type":"uint256","internalType":"uint256"},{"name":"state","type":"uint8","internalType":"enum DutchAuctionState"}]}],"outputs":[],"stateMutability":"nonpayable"},{"type":"function","name":"withdrawLiquidity","inputs":[{"name":"vault","type":"tuple","internalType":"struct DepositVault","components":[{"name":"vaultIndex","type":"uint256","internalType":"uint256"},{"name":"depositTimestamp","type":"uint64","internalType":"uint64"},{"name":"depositUnlockTimestamp","type":"uint64","internalType":"uint64"},{"name":"vaultAmount","type":"uint256","internalType":"uint256"},{"name":"takerFee","type":"uint256","internalType":"uint256"},{"name":"expectedSats","type":"uint64","internalType":"uint64"},{"name":"btcPayoutScriptPubKey","type":"bytes25","internalType":"bytes25"},{"name":"specifiedPayoutAddress","type":"address","internalType":"address"},{"name":"ownerAddress","type":"address","internalType":"address"},{"name":"salt","type":"bytes32","internalType":"bytes32"},{"name":"confirmationBlocks","type":"uint8","internalType":"uint8"},{"name":"attestedBitcoinBlockHeight","type":"uint64","internalType":"uint64"}]}],"outputs":[],"stateMutability":"nonpayable"},{"type":"event","name":"AuctionUpdated","inputs":[{"name":"auction","type":"tuple","indexed":false,"internalType":"struct DutchAuction","components":[{"name":"auctionIndex","type":"uint256","internalType":"uint256"},{"name":"baseDepositParams","type":"tuple","internalType":"struct BaseDepositLiquidityParams","components":[{"name":"depositOwnerAddress","type":"address","internalType":"address"},{"name":"btcPayoutScriptPubKey","type":"bytes25","internalType":"bytes25"},{"name":"depositSalt","type":"bytes32","internalType":"bytes32"},{"name":"confirmationBlocks","type":"uint8","internalType":"uint8"},{"name":"safeBlockLeaf","type":"tuple","internalType":"struct BlockLeaf","components":[{"name":"blockHash","type":"bytes32","internalType":"bytes32"},{"name":"height","type":"uint32","internalType":"uint32"},{"name":"cumulativeChainwork","type":"uint256","internalType":"uint256"}]}]},{"name":"dutchAuctionParams","type":"tuple","internalType":"struct DutchAuctionParams","components":[{"name":"startBtcOut","type":"uint256","internalType":"uint256"},{"name":"endBtcOut","type":"uint256","internalType":"uint256"},{"name":"decayBlocks","type":"uint256","internalType":"uint256"},{"name":"deadline","type":"uint256","internalType":"uint256"},{"name":"fillerWhitelistContract","type":"address","internalType":"address"}]},{"name":"depositAmount","type":"uint256","internalType":"uint256"},{"name":"startBlock","type":"uint256","internalType":"uint256"},{"name":"startTimestamp","type":"uint256","internalType":"uint256"},{"name":"state","type":"uint8","internalType":"enum DutchAuctionState"}]}],"anonymous":false},{"type":"event","name":"BitcoinLightClientUpdated","inputs":[{"name":"priorMmrRoot","type":"bytes32","indexed":false,"internalType":"bytes32"},{"name":"newMmrRoot","type":"bytes32","indexed":false,"internalType":"bytes32"},{"name":"compressedBlockLeaves","type":"bytes","indexed":false,"internalType":"bytes"}],"anonymous":false},{"type":"event","name":"OwnershipHandoverCanceled","inputs":[{"name":"pendingOwner","type":"address","indexed":true,"internalType":"address"}],"anonymous":false},{"type":"event","name":"OwnershipHandoverRequested","inputs":[{"name":"pendingOwner","type":"address","indexed":true,"internalType":"address"}],"anonymous":false},{"type":"event","name":"OwnershipTransferred","inputs":[{"name":"oldOwner","type":"address","indexed":true,"internalType":"address"},{"name":"newOwner","type":"address","indexed":true,"internalType":"address"}],"anonymous":false},{"type":"event","name":"SwapsUpdated","inputs":[{"name":"swaps","type":"tuple[]","indexed":false,"internalType":"struct ProposedSwap[]","components":[{"name":"swapIndex","type":"uint256","internalType":"uint256"},{"name":"depositVaultHash","type":"bytes32","internalType":"bytes32"},{"name":"swapBitcoinBlockLeaf","type":"tuple","internalType":"struct BlockLeaf","components":[{"name":"blockHash","type":"bytes32","internalType":"bytes32"},{"name":"height","type":"uint32","internalType":"uint32"},{"name":"cumulativeChainwork","type":"uint256","internalType":"uint256"}]},{"name":"confirmationBlocks","type":"uint8","internalType":"uint8"},{"name":"liquidityUnlockTimestamp","type":"uint64","internalType":"uint64"},{"name":"specifiedPayoutAddress","type":"address","internalType":"address"},{"name":"totalSwapOutput","type":"uint256","internalType":"uint256"},{"name":"takerFee","type":"uint256","internalType":"uint256"},{"name":"state","type":"uint8","internalType":"enum SwapState"}]},{"name":"context","type":"uint8","indexed":false,"internalType":"enum SwapUpdateContext"}],"anonymous":false},{"type":"event","name":"VaultsUpdated","inputs":[{"name":"vaults","type":"tuple[]","indexed":false,"internalType":"struct DepositVault[]","components":[{"name":"vaultIndex","type":"uint256","internalType":"uint256"},{"name":"depositTimestamp","type":"uint64","internalType":"uint64"},{"name":"depositUnlockTimestamp","type":"uint64","internalType":"uint64"},{"name":"vaultAmount","type":"uint256","internalType":"uint256"},{"name":"takerFee","type":"uint256","internalType":"uint256"},{"name":"expectedSats","type":"uint64","internalType":"uint64"},{"name":"btcPayoutScriptPubKey","type":"bytes25","internalType":"bytes25"},{"name":"specifiedPayoutAddress","type":"address","internalType":"address"},{"name":"ownerAddress","type":"address","internalType":"address"},{"name":"salt","type":"bytes32","internalType":"bytes32"},{"name":"confirmationBlocks","type":"uint8","internalType":"uint8"},{"name":"attestedBitcoinBlockHeight","type":"uint64","internalType":"uint64"}]},{"name":"context","type":"uint8","indexed":false,"internalType":"enum VaultUpdateContext"}],"anonymous":false},{"type":"error","name":"AlreadyInitialized","inputs":[]},{"type":"error","name":"AuctionAlreadyFilled","inputs":[]},{"type":"error","name":"AuctionAlreadyWithdrawn","inputs":[]},{"type":"error","name":"AuctionExpired","inputs":[]},{"type":"error","name":"AuctionNotExpired","inputs":[]},{"type":"error","name":"BlockNotConfirmed","inputs":[]},{"type":"error","name":"BlockNotInChain","inputs":[]},{"type":"error","name":"ChainworkTooLow","inputs":[]},{"type":"error","name":"CheckpointNotEstablished","inputs":[]},{"type":"error","name":"DepositAmountTooLow","inputs":[]},{"type":"error","name":"DepositStillLocked","inputs":[]},{"type":"error","name":"DepositVaultDoesNotExist","inputs":[]},{"type":"error","name":"DutchAuctionDoesNotExist","inputs":[]},{"type":"error","name":"EmptyDepositVault","inputs":[]},{"type":"error","name":"FillerNotWhitelisted","inputs":[]},{"type":"error","name":"InvalidDeadline","inputs":[]},{"type":"error","name":"InvalidDepositTokenDecimals","inputs":[{"name":"actual","type":"uint8","internalType":"uint8"},{"name":"expected","type":"uint8","internalType":"uint8"}]},{"type":"error","name":"InvalidScriptPubKey","inputs":[]},{"type":"error","name":"InvalidStartBtcOut","inputs":[]},{"type":"error","name":"InvalidTickSize","inputs":[]},{"type":"error","name":"InvalidVaultHash","inputs":[{"name":"actual","type":"bytes32","internalType":"bytes32"},{"name":"expected","type":"bytes32","internalType":"bytes32"}]},{"type":"error","name":"NewOwnerIsZeroAddress","inputs":[]},{"type":"error","name":"NoFeeToPay","inputs":[]},{"type":"error","name":"NoHandoverRequest","inputs":[]},{"type":"error","name":"NoSwapsToSubmit","inputs":[]},{"type":"error","name":"NotEnoughConfirmationBlocks","inputs":[]},{"type":"error","name":"SatOutputTooLow","inputs":[]},{"type":"error","name":"StillInChallengePeriod","inputs":[]},{"type":"error","name":"SwapDoesNotExist","inputs":[]},{"type":"error","name":"SwapNotProved","inputs":[]},{"type":"error","name":"Unauthorized","inputs":[]}],"bytecode":{"object":"0x61018080604052346103515780613728803803809161001e828561037c565b833981010361012081126103515781519161003b6020820161039f565b60408201519061004d6060840161039f565b9261005a6080820161039f565b9560a08201519561ffff871687036103515760609060bf1901126103515760405191606083016001600160401b038111848210176103685760405260c0810151835260e08101519063ffffffff821682036103515761010091602085015201516040830152306080524660a05260a06040516100d760408261037c565b600c815260208101906b5269667445786368616e676560a01b82526040519161010160408461037c565b60058352602083019164302e302e3160d81b8352519020915190208160c0528060e052604051917f8b73c3c69bb8fe3d512ecc4cf759cc79239f7b179b0ffacaa9a75d522b39400f8352602083015260408201524660608201523060808201522061010052805f5560405191604083019083821060018060401b0383111761036857600392604092835260018552602085019182525f526001602052815f209351151560ff8019865416911617845551805160018501556002840163ffffffff60208301511663ffffffff19825416179055015191015533638b78c6d81955335f7f8be0079c531659141344cd1fd0a4f28419497f9722a3daafe3b4186f6b6457e08180a360405163313ce56760e01b81526020816004816001600160a01b0386165afa801561035d575f9061031c575b60ff915016600881036103055750610120526101405261016052600580546001600160b01b0319166001600160a01b039093169290921760a09190911b61ffff60a01b1617905560405161337490816103b4823960805181610e21015260a05181610dfe015260c05181610ffd015260e0518161102301526101005181610ddb01526101205181818161039d015281816106b001528181610a21015281816113c8015281816116640152611aab0152610140518181816111ed0152612296015261016051818181611bc601526121e50152f35b63124c032f60e31b5f52600452600860245260445ffd5b506020813d602011610355575b816103366020938361037c565b81010312610351575160ff811681036103515760ff90610232565b5f80fd5b3d9150610329565b6040513d5f823e3d90fd5b634e487b7160e01b5f52604160045260245ffd5b601f909101601f19168101906001600160401b0382119082101761036857604052565b51906001600160a01b03821682036103515756fe6080806040526004361015610012575f80fd5b5f3560e01c90816303af626a14611d605750806307a2ec5214611bf557806308c84e7014611bb15780631cbeebeb14611b745780632569296214611b2b578063333f871a14611b02578063428f29b814611ada578063473d175d14611a965780635377d5ee14611a5357806354d1f13d14611a0f57806357c9b72c146119f45780635861af00146115f4578063592b6649146114ed57806365e99ad8146114d0578063715018a6146114875780637c2301a61461140a57806381cc5222146112e757806384b0196e146112105780638d5ca052146111d65780638da5cb5b146111aa57806396f1836e14610b495780639a73f4f514610b25578063a47f96cc14610b09578063c190c164146108cd578063ca18100d146108b0578063d21ddc6114610894578063da33019314610743578063e07a68d7146104f1578063e58e0fe3146104a9578063e5e78e0214610480578063eb5e91ff1461041d578063f04e283e146103d0578063f23a94a91461036d578063f2fde38b14610330578063f3bbbeef146102f8578063fee81cf4146102c65763ffa8ea94146101b3575f80fd5b346102c25760403660031901126102c2576004356001600160401b0381116102c2576101e3903690600401611f79565b602435916001600160401b0383116102c2576102b16102bd9261025361022e7fdc0391168b5903ca02f8020523ba62927809fd9d25baf94fcb8bb339e0c8f731963690600401611eb1565b92909461024e5f545f52600160205263ffffffff600260405f2001541690565b612cbe565b60409491945161026281611d7a565b5f81525f60208201525f60408201526040519061027e82611d95565b5f82525f60208301525f604083015260608201526040519161029f83611d7a565b5f8352602083015260408201526121da565b60405191829182612732565b0390a1005b5f80fd5b346102c25760203660031901126102c2576102df611f4f565b63389a75e1600c525f52602080600c2054604051908152f35b346102c25760203660031901126102c2576004356006548110156102c257610321602091611f22565b90549060031b1c604051908152f35b60203660031901126102c257610344611f4f565b61034c61298c565b8060601b156103605761035e90612c5e565b005b637448fbae5f526004601cfd5b346102c2575f3660031901126102c25760045480156103c1575f60045560055461035e91906001600160a01b03167f0000000000000000000000000000000000000000000000000000000000000000612adf565b630fbcad4560e21b5f5260045ffd5b60203660031901126102c2576103e4611f4f565b6103ec61298c565b63389a75e1600c52805f526020600c209081544211610410575f61035e9255612c5e565b636f5e88185f526004601cfd5b346102c25760203660031901126102c2576004355f526001602052608060405f2061047e610452600160ff845416930161213c565b60405192151583526020830190604080918051845263ffffffff60208201511660208501520151910152565bf35b346102c25760203660031901126102c2576004356002548110156102c257610321602091611f0a565b346102c25760203660031901126102c25760043561ffff811681036102c2576104d061298c565b6005805461ffff60a01b191660a09290921b61ffff60a01b16919091179055005b346102c2576101a03660031901126102c25760043560a03660231901126102c25760405161051e81611de7565b6024358152604435602082019081526064356040830190815260843560608401908152919060a4356001600160a01b03811681036102c257608085015260e03660c31901126102c2575115610734578251905110156107255751421161071657600654906040519161058f83611dcc565b825260405161059d81611de7565b60c4356001600160a01b03811681036102c257815260e43566ffffffffffffff19811681036102c25760208201526101043560408201526101243560ff811681036102c25760608201526105f336610144611e71565b6080820152602083015260408201528160608201524360808201524260a08201525f60c082015261062381612c9b565b60065491600160401b831015610702576106856106919261066d8560017f0bfe03e5791d340f90503a4b1d247439e12cd4ae6d96521c98b5e9b306120d7097016006556006611f3a565b90919082549060031b91821b915f19901b1916179055565b60405191829182612858565b0390a160609081523060405233901b602c526323b872dd60601b600c527f000000000000000000000000000000000000000000000000000000000000000060205f6064601c82855af1908160015f511416156106e957005b3b153d1710156106f557005b637939f4245f526004601cfd5b634e487b7160e01b5f52604160045260245ffd5b631da7447960e21b5f5260045ffd5b6365da293b60e11b5f5260045ffd5b63747a60fb60e01b5f5260045ffd5b346102c25760603660031901126102c2576004356001600160401b0381116102c257610773903690600401611f79565b602435916001600160401b0383116102c257826004019060c060031985360301126102c2576044356001600160401b0381116102c2576107b7903690600401611eb1565b9083359560248101359660648201608460448401936107ec6107d9868b612826565b908d6107e53688611e71565b9088612b30565b01359063ffffffff821682036102c2577fdc0391168b5903ca02f8020523ba62927809fd9d25baf94fcb8bb339e0c8f731996108476108406108386102bd9c6102b19b61086f97612cbe565b97909b612826565b36916120f7565b60208151910120906040519461085c86611d95565b8552602085015260408401523690611e71565b60608201526040519161088183611d7a565b60028352602083015260408201526121da565b346102c2575f3660031901126102c25760205f54604051908152f35b346102c2575f3660031901126102c2576020600454604051908152f35b346102c257366003190161018081126102c2576108e86129e5565b506064358015610afa57604435916001600160401b0383168084036102c2574210610aeb57610180136102c2576040519161092283611db0565b60043583526024356001600160401b03811681036102c25760208401526040830152606082019080825260843591608084019280845260a4356001600160401b03811681036102c25760a086015260c43566ffffffffffffff19811681036102c25760c086015260e4356001600160a01b03811681036102c25760e086015261010435926001600160a01b03841684036102c25783610100870152610124356101208701526101443560ff811681036102c25761014087015261016435926001600160401b03841684036102c257610a45955f8092610a1e966101608b01525252610a19610a0f87612a95565b61066d8851611f0a565b612683565b907f0000000000000000000000000000000000000000000000000000000000000000612adf565b610a4d61242d565b90610a57826125c7565b52610a61816125c7565b50604051604081016040825282518091526020606083019301905f5b818110610aca57505050807fbcf83654bbe8d2d5a003763444fb50a895b7721b0239dcd314d345f8a3cdfb1992600160208301520390a1005b634e487b7160e01b5f52602160045260245ffd5b909193602061018082610ae06001948951612780565b019501929101610a7d565b6301b512a960e21b5f5260045ffd5b637941e9ad60e01b5f5260045ffd5b346102c2575f3660031901126102c25760206040516103e88152f35b346102c2575f3660031901126102c257602061ffff60055460a01c16604051908152f35b346102c2576102803660031901126102c257610b6436611ff0565b610224356001600160401b0381116102c257366023820112156102c257610b959036906024816004013591016120f7565b90610244356001600160401b0381116102c257610bb6903690600401611f79565b9190610264356001600160401b0381116102c257610bd8903690600401611f79565b939091610be484612c9b565b610bee8551611f22565b90549060031b1c0361119b5760c084019560018751610c0c8161216a565b610c158161216a565b1461118c576040850190606082510151421161117d578151608001516001600160a01b0316806110d9575b5050610c6c906080860151610c5a60408351015182612683565b91519060208251920151924391612ffa565b9160208501516060860151946040519360c08501908582106001600160401b0383111761070257610cd593610cc69260405286526020860194338652604087019889526001600160401b0360608801981688523691612940565b97608085019889523691612940565b9560a0830196875260025496610ce96123d5565b5061ffff60055460a01c1691865183155f146110ab576001905b1061109c576103e86001600160401b038751161061108d57600260ff606087510151161061107e57610d4366ffffffffffffff1960208751015116613169565b1561106f57610d5c916080865101519151905191612f4a565b845181810291818304149015171561105b5761271090049060ff60608451015116611c200263ffffffff811690810361105b57610dae836001600160401b03610da6819442612683565b169751612fd5565b945184516020810151935190516001600160a01b039081169591169366ffffffffffffff191692909116907f00000000000000000000000000000000000000000000000000000000000000008a467f000000000000000000000000000000000000000000000000000000000000000014307f0000000000000000000000000000000000000000000000000000000000000000141615610fcd575b875160409081015181519384526020840152820152606090205b95519663ffffffff6020608060ff60608c0151169a0151015116986040519b610e8a8d611db0565b8c526001600160401b03421660208d015260408c015260608b015260808a015260a089015260c088015260e0870152610100860152610120850152610140840152610160830152610eda82612a95565b60025490600160401b8210156107025761066d826001610eff94016002556002611f3a565b610f0761242d565b91610f11836125c7565b52610f1b826125c7565b50604051604081016040825283518091526020606083019401905f5b818110610fac575050507f0bfe03e5791d340f90503a4b1d247439e12cd4ae6d96521c98b5e9b306120d70937fbcf83654bbe8d2d5a003763444fb50a895b7721b0239dcd314d345f8a3cdfb1982806102bd965f602060019701520390a152610685610fa282612c9b565b61066d8351611f22565b909194602061018082610fc26001948a51612780565b019601929101610f37565b5050610e628a60a06040517f8b73c3c69bb8fe3d512ecc4cf759cc79239f7b179b0ffacaa9a75d522b39400f81527f000000000000000000000000000000000000000000000000000000000000000060208201527f00000000000000000000000000000000000000000000000000000000000000006040820152466060820152306080820152209150610e48565b634e487b7160e01b5f52601160045260245ffd5b63fad7db0760e01b5f5260045ffd5b63bdf8f2b360e01b5f5260045ffd5b63fde5943160e01b5f5260045ffd5b6355fcd02760e01b5f5260045ffd5b836127100161ffff811161105b5761ffff5f1991160161ffff811161105b578461ffff809216041690610d03565b611109916020916040518080958194631f0a8fa760e01b8352336004840152604060248401526044830190611fa9565b03915afa908115611172575f91611137575b5015611128578780610c40565b63754760cb60e11b5f5260045ffd5b90506020813d60201161116a575b8161115260209383611e39565b810103126102c2575180151581036102c2578861111b565b3d9150611145565b6040513d5f823e3d90fd5b630129799f60e21b5f5260045ffd5b63ab2e1f8760e01b5f5260045ffd5b634df2e8a360e01b5f5260045ffd5b346102c2575f3660031901126102c257638b78c6d819546040516001600160a01b039091168152602090f35b346102c2575f3660031901126102c25760206040517f00000000000000000000000000000000000000000000000000000000000000008152f35b346102c2575f3660031901126102c25761128960406112968151916112358184611e39565b600c83526b5269667445786368616e676560a01b6020840152805161125a8282611e39565b6005815264302e302e3160d81b60208201528151948594600f60f81b865260e0602087015260e0860190611fa9565b9184830390850152611fa9565b4660608301523060808301525f60a083015281810360c083015260206060519182815201906080905f5b8181106112ce575050500390f35b82518452859450602093840193909201916001016112c0565b346102c2576102203660031901126102c25761130236611ff0565b61130b81612c9b565b6113158251611f22565b90549060031b1c0361119b5760c0810190600182516113338161216a565b61133c8161216a565b1461118c576002825161134e8161216a565b6113578161216a565b146113fb5760606040820151015142106113ec57600261035e925261137e610fa282612c9b565b7f0bfe03e5791d340f90503a4b1d247439e12cd4ae6d96521c98b5e9b306120d70604051806113ad8482612858565b0390a1602081015151606090910151906001600160a01b03167f0000000000000000000000000000000000000000000000000000000000000000612adf565b639eafe1b760e01b5f5260045ffd5b63063d8c8960e51b5f5260045ffd5b346102c25760c03660031901126102c25761148360405161142a81611d95565b60043581526024356020820152604435604082015261144a366064611e71565b6060820152611460604051916020830190612174565b60c0815261146f60e082611e39565b604051918291602083526020830190611fa9565b0390f35b5f3660031901126102c25761149a61298c565b5f638b78c6d819547f8be0079c531659141344cd1fd0a4f28419497f9722a3daafe3b4186f6b6457e08280a35f638b78c6d81955005b346102c2575f3660031901126102c2576020600254604051908152f35b346102c25760403660031901126102c2576004356001600160401b0381116102c257806004019060c060031982360301126102c2576024356001600160401b0381116102c257611541903690600401611eb1565b91604481016115536108408287612826565b6020815191012061158461157287359360646024870135960198612826565b9061157d368a611e71565b8686612b30565b60405192611593602085611e39565b5f84525f805b8181106115dd575050956115b89161035e976040519461085c86611d95565b6060820152604051916115ca83611d7a565b60018352602083015260408201526121da565b6020906115e861232a565b82828901015201611599565b346102c25760203660031901126102c2576004356001600160401b0381116102c257611624903690600401611f79565b9061162e82612348565b9061163883611e5a565b926116466040519485611e39565b808452601f1961165582611e5a565b015f5b8181106119dd5750505f7f0000000000000000000000000000000000000000000000000000000000000000905b82811061177557858560405190604082016040835281518091526020606084019201905f5b8181106117545760016020860152857fdc0391168b5903ca02f8020523ba62927809fd9d25baf94fcb8bb339e0c8f73186860387a1604051604081016040825282518091526020606083019301905f5b81811061173357505050807fbcf83654bbe8d2d5a003763444fb50a895b7721b0239dcd314d345f8a3cdfb1992600260208301520390a1005b9091936020610180826117496001948951612780565b0195019291016116fa565b90919260206101608261176a60019488516126a4565b0194019291016116aa565b61178081848661246d565b61179c61179561179036846125e8565b612abd565b9135611ede565b90549060031b1c036119ce576101406117b682858761246d565b013560038110156102c2576001906117cd8161216a565b036119bf576001600160401b036117f060c06117ea84878961246d565b01612490565b1642106119b05761180e6101a061180883868861246d565b016129a8565b602061181b83868861246d565b0135810361198c575060019061189661184136604061183b85898b61246d565b01611e71565b858761185c61185186848461246d565b6101608101906124a4565b9060ff61188f60a06118898a611881611876828b8b61246d565b6101808101906124a4565b99909861246d565b016124d9565b1694612a00565b6118ae366101a06118a884888a61246d565b016124fb565b5f60608201525f60808201526118d06118c682612a95565b61066d8351611f0a565b6118da82896125d4565b526118e581886125d4565b506118fa366118f583878961246d565b6125e8565b600261010082015261192261190e82612abd565b61066d61191c85898b61246d565b35611ede565b61193d61012061193384888a61246d565b0135600454612683565b60045561197061195960e061195385898b61246d565b01612690565b61010061196785898b61246d565b01359086612adf565b61197a82886125d4565b5261198581876125d4565b5001611685565b602061199983868861246d565b013563046aaf4f60e51b5f5260045260245260445ffd5b632d5c37f560e21b5f5260045ffd5b6322fc5d4360e21b5f5260045ffd5b631a40316d60e01b5f5260045ffd5b6020906119e86123d5565b82828901015201611658565b346102c2575f3660031901126102c257602060405160028152f35b5f3660031901126102c25763389a75e1600c52335f525f6020600c2055337ffa7b8eab7da67f412cc9575ed43464468f9bfbae89d1675917346ca6d8fe3c925f80a2005b346102c25760203660031901126102c257611a6c611f4f565b611a7461298c565b600580546001600160a01b0319166001600160a01b0392909216919091179055005b346102c2575f3660031901126102c2576040517f00000000000000000000000000000000000000000000000000000000000000006001600160a01b03168152602090f35b346102c2575f3660031901126102c2576005546040516001600160a01b039091168152602090f35b346102c25760203660031901126102c2576004356003548110156102c257610321602091611ede565b5f3660031901126102c25763389a75e1600c52335f526202a30042016020600c2055337fdbf36a107da19e49527a7176a1babf963b4b0ff8cde35ee35d6cd8f1f9ac7e1d5f80a2005b346102c2575f3660031901126102c2576020611ba35f545f52600160205263ffffffff600260405f2001541690565b63ffffffff60405191168152f35b346102c2575f3660031901126102c2576040517f00000000000000000000000000000000000000000000000000000000000000006001600160a01b03168152602090f35b346102c25760403660031901126102c2576004356001600160401b0381116102c257803603906101006003198301126102c25760405191611c3583611d7a565b816004013560038110156102c257835260248201356001600160401b0381116102c2578201366023820112156102c2576004810135611c7381611e5a565b91611c816040519384611e39565b818352602060046060828601940283010101903682116102c257602401915b818310611d2457505050602084015260c0604319909101126102c257611cf160405191611ccc83611d95565b60448101358352606481013560208401526084810135604084015260a4369101611e71565b60608201526040820152602435906001600160401b0382116102c257611d1e61035e923690600401611eb1565b916121da565b6060833603126102c2576020606091604051611d3f81611d7a565b85358152828601358382015260408601356040820152815201920191611ca0565b346102c2575f3660031901126102c2576020906003548152f35b606081019081106001600160401b0382111761070257604052565b608081019081106001600160401b0382111761070257604052565b61018081019081106001600160401b0382111761070257604052565b60e081019081106001600160401b0382111761070257604052565b60a081019081106001600160401b0382111761070257604052565b61012081019081106001600160401b0382111761070257604052565b604081019081106001600160401b0382111761070257604052565b90601f801991011681019081106001600160401b0382111761070257604052565b6001600160401b0381116107025760051b60200190565b91908260609103126102c257604051611e8981611d7a565b809280358252602081013563ffffffff811681036102c2576020830152604090810135910152565b9181601f840112156102c2578235916001600160401b0383116102c257602083818601950101116102c257565b600354811015611ef65760035f5260205f2001905f90565b634e487b7160e01b5f52603260045260245ffd5b600254811015611ef65760025f5260205f2001905f90565b600654811015611ef65760065f5260205f2001905f90565b8054821015611ef6575f5260205f2001905f90565b600435906001600160a01b03821682036102c257565b35906001600160a01b03821682036102c257565b9181601f840112156102c2578235916001600160401b0383116102c2576020808501948460051b0101116102c257565b805180835260209291819084018484015e5f828201840152601f01601f1916010190565b359066ffffffffffffff19821682036102c257565b359060ff821682036102c257565b906102206003198301126102c25760405161200a81611dcc565b80926004358252602460e0818303126102c25761206d8260806040519361203085611de7565b61203981611f65565b855261204760208201611fcd565b60208601526040810135604086015261206260608201611fe2565b606086015201611e71565b6080820152602083015260a0610104809203126102c2576120be60806040519261209684611de7565b8035845260208101356020850152604081013560408501526060810135606085015201611f65565b608082015260408201526101a43560608201526101c43560808201526101e43560a0820152610204359060038210156102c25760c00152565b9291926001600160401b0382116107025760405191612120601f8201601f191660200184611e39565b8294818452818301116102c2578281602093845f960137010152565b9060405161214981611d7a565b6040600282948054845263ffffffff60018201541660208501520154910152565b60031115610ab657565b906060806121b8938051845260208101516020850152604081015160408501520151910190604080918051845263ffffffff60208201511660208501520151910152565b565b908060209392818452848401375f828201840152601f01601f1916010190565b909160018060a01b037f0000000000000000000000000000000000000000000000000000000000000000166040519260208085015283610140810182516122208161216a565b604083015260208301519061010060608401528151809152602061016084019201905f5b8181106122f85750505061226360406122719401516080840190612174565b03601f198101855284611e39565b803b156102c2576122cb5f936122dd6040519687958694859463020a49e360e51b86527f00000000000000000000000000000000000000000000000000000000000000006004870152606060248701526064860190611fa9565b848103600319016044860152916121ba565b03915afa8015611172576122ee5750565b5f6121b891611e39565b919493509160206060600192604088518051835284810151858401520151604082015201950191019187939492612244565b6040519061233782611d7a565b5f6040838281528260208201520152565b9061235282611e5a565b61235f6040519182611e39565b8281528092612370601f1991611e5a565b01905f5b82811061238057505050565b60209060405161238f81611e02565b5f81525f8382015261239f61232a565b60408201525f60608201525f60808201525f60a08201525f60c08201525f60e08201525f61010082015282828501015201612374565b604051906123e282611db0565b5f610160838281528260208201528260408201528260608201528260808201528260a08201528260c08201528260e08201528261010082015282610120820152826101408201520152565b6040805190919061243e8382611e39565b6001815291601f1901825f5b82811061245657505050565b6020906124616123d5565b8282850101520161244a565b9190811015611ef65760051b8101359061033e19813603018212156102c2570190565b356001600160401b03811681036102c25790565b903590601e19813603018212156102c257018035906001600160401b0382116102c257602001918160051b360383136102c257565b3560ff811681036102c25790565b35906001600160401b03821682036102c257565b9190826101809103126102c25760405161251481611db0565b6101606125c28183958035855261252d602082016124e7565b602086015261253e604082016124e7565b6040860152606081013560608601526080810135608086015261256360a082016124e7565b60a086015261257460c08201611fcd565b60c086015261258560e08201611f65565b60e08601526125976101008201611f65565b6101008601526101208101356101208601526125b66101408201611fe2565b610140860152016124e7565b910152565b805115611ef65760200190565b8051821015611ef65760209160051b010190565b919091610160818403126102c2576101406040519161260683611e02565b6126228395823585526020830135602086015260408301611e71565b604084015261263360a08201611fe2565b606084015261264460c082016124e7565b608084015261265560e08201611f65565b60a084015261010081013560c084015261012081013560e084015201359060038210156102c2576101000152565b9190820180921161105b57565b356001600160a01b03811681036102c25790565b80518252602080820151818401526040808301518051828601529182015163ffffffff16606085015201516080830152610140906101009060ff60608201511660a08501526001600160401b0360808201511660c085015260018060a01b0360a08201511660e085015260c08101518285015260e081015161012085015201519161272e8361216a565b0152565b9190604083016040845281518091526020606085019201905f5b81811061275f5750505060205f91930152565b90919260206101608261277560019488516126a4565b01940192910161274c565b6001600160401b0361016080928051855282602082015116602086015282604082015116604086015260608101516060860152608081015160808601528260a08201511660a086015266ffffffffffffff1960c08201511660c086015260018060a01b0360e08201511660e086015260018060a01b036101008201511661010086015261012081015161012086015260ff61014082015116610140860152015116910152565b903590601e19813603018212156102c257018035906001600160401b0382116102c2576020019181360383136102c257565b91909161020060c0610220830194805184526128d36080602083015160018060a01b03815116602088015266ffffffffffffff1960208201511660408801526040810151606088015260ff60608201511682880152015160a0860190604080918051845263ffffffff60208201511660208501520151910152565b60408181015180516101008701526020810151610120870152908101516101408601526060808201516101608701526080918201516001600160a01b03166101808701528201516101a08601528101516101c085015260a08101516101e085015201519161272e8361216a565b92919061294c81611e5a565b9361295a6040519586611e39565b602085838152019160051b81019283116102c257905b82821061297c57505050565b8135815260209182019101612970565b638b78c6d81954330361299b57565b6382b429005f526004601cfd5b6129c66129bd6129b836846124fb565b612a95565b91356002611f3a565b90549060031b1c81036129d65790565b63cd1d240d60e01b5f5260045ffd5b6129f36129b83660046124fb565b6129c66004356002611f3a565b94939192612a16612a1e92612a25953691612940565b923691612940565b9084612f4a565b63ffffffff6020612a495f545f52600160205263ffffffff600260405f2001541690565b930151169063ffffffff5f1991160163ffffffff811161105b5763ffffffff160163ffffffff811161105b5763ffffffff809116911610612a8657565b630a47293560e31b5f5260045ffd5b604051612aa6602082018093612780565b6101808152612ab76101a082611e39565b51902090565b604051612ace6020820180936126a4565b6101608152612ab761018082611e39565b919060145260345263a9059cbb60601b5f5260205f6044601082855af1908160015f51141615612b12575b50505f603452565b3b153d171015612b23575f80612b0a565b6390b8ec185f526004601cfd5b9190925f54808514612c5657835f52600160205260405f20612b69600160405192612b5a84611e1e565b60ff815416151584520161213c565b60208201525115612c47575f526001602052600360405f20015460408301511115612c38577f6768baae39ee0e687f7c44f7006a147b15ffb56031969140096fe95461eea2fd94612c339260036040805192612bc484611e1e565b6001845260208401908152885f526001602052815f209351151560ff8019865416911617845551805160018501556002840163ffffffff60208301511663ffffffff198254161790550151910155845f55604051948594855260208501526060604085015260608401916121ba565b0390a1565b6307800bf560e21b5f5260045ffd5b63e1965c6560e01b5f5260045ffd5b505050505050565b60018060a01b031680638b78c6d819547f8be0079c531659141344cd1fd0a4f28419497f9722a3daafe3b4186f6b6457e05f80a3638b78c6d81955565b604051612ab781612cb0602082019485612858565b03601f198101835282611e39565b9192908315612f3b57612cd084611e5a565b91612cde6040519384611e39565b848352601f19612ced86611e5a565b015f5b818110612f245750508290612d0486612348565b91600354915f5b88811015612f1957612d1d8185612683565b8160051b87013561023e19883603018112156102c2578701612d41602082016129a8565b906101a0810191604051612d5481611d7a565b8235815283356020820152816040820152612d6f868d6125d4565b52612d7a858c6125d4565b50612dc9612dc4612d8f6102008501856124a4565b9190612d9f6102208701876124a4565b90610160880194612daf866124d9565b9360ff612dbc368d611e71565b951694612a00565b6124d9565b928c63ffffffff6001600160401b03612de56101808701612490565b169116036001600160401b03811161105b576001600160401b03166085026001600160401b03811690810361105b5761e3b3016001600160401b03811161105b576001600160401b036103e88161012c93160416016001600160401b03811161105b5760a094612e8f6001600160401b03612e648160ff951642612683565b1693612e736101008801612690565b9560405199612e818b611e02565b8a5260208a01523690611e71565b60408801521660608601526080850152600180841b031682840152608081013560c0840152013560e08201526001610100820152612ecd82876125d4565b52612ed881866125d4565b50612eec612ee682876125d4565b51612abd565b90600354600160401b8110156107025760019261066d8285612f1394016003556003611f3a565b01612d0b565b509450945050935050565b602090612f2f61232a565b82828801015201612cf0565b6308d98c4f60e01b5f5260045ffd5b9063ffffffff612f7d83516020850194604084875116910151919091606092604051928352602083015260408201522090565b92511692600163ffffffff612fa55f545f52600160205263ffffffff600260405f2001541690565b16019163ffffffff831161105b57612fbf945f549461307a565b15612fc657565b632814065160e01b5f5260045ffd5b9190820391821161105b57565b81810392915f13801582851316918412161761105b57565b90919392938281101561307257906130158161301b93612fd5565b92612fd5565b90838084121561305f576130379361303291612fe2565b613146565b600160ff1b811461105b575f03905b5f828201928312911290801582169115161761105b5790565b6130329061306c94612fe2565b90613046565b505050905090565b939591929490955f945b84518610156130d657600188811c988116036130b9576130a486866125d4565b515f52602052600160405f20955b0194613084565b6130c386866125d4565b51905f52602052600160405f20956130b2565b95929650925092505f935f5b825181101561313c57816130f682856125d4565b5114613104576001016130e2565b50509091925060015b156131355761311b906132e2565b9081156131355763ffffffff165f5260205260405f201490565b5050505f90565b505090919261310d565b818102918115918304141782021561315c570490565b63ad251c275f526004601cfd5b5f81901a60f81b6001600160f81b031916806131c4575069ffffffffffffffffffff19165f81901a60f81b6001600160f81b0319161590816131a9575090565b60011a60f81b6001600160f81b031916600560fa1b14919050565b60a960f81b810361323d575068ffffffffffffffffff19165f81901a60f81b6001600160f81b03191660a960f81b14908161321e575b81613203575090565b60161a60f81b6001600160f81b031916608760f81b14919050565b600181901a60f81b6001600160f81b031916600560fa1b1491506131fa565b603b60f91b14908161324f5750505f90565b816132c3575b816132a4575b81613285575b8161326a575090565b60181a60f81b6001600160f81b031916602b60fa1b14919050565b601781901a60f81b6001600160f81b031916601160fb1b149150613261565b600281901a60f81b6001600160f81b031916600560fa1b14915061325b565b600181901a60f81b6001600160f81b03191660a960f81b149150613255565b80518015613338575f19810190811161105b576132ff90826125d4565b519080515f19810190811161105b57805b61331957505090565b5f19019161332783836125d4565b515f526020528160405f2092613310565b50505f9056fea2646970667358221220007a43fb921154b0b3c192c2e4dff9f4b2a3ae91dd8daa25e29a2c51eac7f91364736f6c634300081c0033","linkReferences":{}},"methodIdentifiers":{"CIRCUIT_VERIFICATION_KEY()":"8d5ca052","ERC20_BTC()":"473d175d","MIN_CONFIRMATION_BLOCKS()":"57c9b72c","MIN_OUTPUT_SATS()":"a47f96cc","VERIFIER()":"08c84e70","accumulatedFeeBalance()":"ca18100d","adminSetFeeRouterAddress(address)":"5377d5ee","adminSetTakerFeeBips(uint16)":"e58e0fe3","auctionHashes(uint256)":"f3bbbeef","cancelOwnershipHandover()":"54d1f13d","checkpoints(bytes32)":"eb5e91ff","completeOwnershipHandover(address)":"f04e283e","eip712Domain()":"84b0196e","feeRouterAddress()":"428f29b8","fillAuction((uint256,(address,bytes25,bytes32,uint8,(bytes32,uint32,uint256)),(uint256,uint256,uint256,uint256,address),uint256,uint256,uint256,uint8),bytes,bytes32[],bytes32[])":"96f1836e","getLightClientHeight()":"1cbeebeb","getSwapHashesLength()":"03af626a","getVaultHashesLength()":"65e99ad8","mmrRoot()":"d21ddc61","owner()":"8da5cb5b","ownershipHandoverExpiresAt(address)":"fee81cf4","payoutToFeeRouter()":"f23a94a9","releaseLiquidityBatch(((uint256,bytes32,(bytes32,uint32,uint256),uint8,uint64,address,uint256,uint256,uint8),bytes32[],bytes32[],(uint256,uint64,uint64,uint256,uint256,uint64,bytes25,address,address,bytes32,uint8,uint64),uint32)[])":"5861af00","renounceOwnership()":"715018a6","requestOwnershipHandover()":"25692962","serializeLightClientPublicInput((bytes32,bytes32,bytes32,(bytes32,uint32,uint256)))":"7c2301a6","startAuction(uint256,(uint256,uint256,uint256,uint256,address),(address,bytes25,bytes32,uint8,(bytes32,uint32,uint256)))":"e07a68d7","submitBatchSwapProof((bytes32,(uint256,uint64,uint64,uint256,uint256,uint64,bytes25,address,address,bytes32,uint8,uint64),(bytes32,uint32,uint256),bytes32[],bytes32[])[],bytes)":"ffa8ea94","submitBatchSwapProofWithLightClientUpdate((bytes32,(uint256,uint64,uint64,uint256,uint256,uint64,bytes25,address,address,bytes32,uint8,uint64),(bytes32,uint32,uint256),bytes32[],bytes32[])[],(bytes32,bytes32,bytes,(bytes32,uint32,uint256)),bytes)":"da330193","swapHashes(uint256)":"333f871a","takerFeeBips()":"9a73f4f5","transferOwnership(address)":"f2fde38b","updateLightClient((bytes32,bytes32,bytes,(bytes32,uint32,uint256)),bytes)":"592b6649","vaultHashes(uint256)":"e5e78e02","verifyZkProof((uint8,(bytes32,bytes32,bytes32)[],(bytes32,bytes32,bytes32,(bytes32,uint32,uint256))),bytes)":"07a2ec52","withdrawFromExpiredAuction((uint256,(address,bytes25,bytes32,uint8,(bytes32,uint32,uint256)),(uint256,uint256,uint256,uint256,address),uint256,uint256,uint256,uint8))":"81cc5222","withdrawLiquidity((uint256,uint64,uint64,uint256,uint256,uint64,bytes25,address,address,bytes32,uint8,uint64))":"c190c164"},"storageLayout":{"storage":[{"astId":45806,"contract":"src/BTCDutchAuctionHouse.sol:BTCDutchAuctionHouse","label":"mmrRoot","offset":0,"slot":"0","type":"t_bytes32"},{"astId":45811,"contract":"src/BTCDutchAuctionHouse.sol:BTCDutchAuctionHouse","label":"checkpoints","offset":0,"slot":"1","type":"t_mapping(t_bytes32,t_struct(BitcoinCheckpoint)47430_storage)"},{"astId":46220,"contract":"src/BTCDutchAuctionHouse.sol:BTCDutchAuctionHouse","label":"vaultHashes","offset":0,"slot":"2","type":"t_array(t_bytes32)dyn_storage"},{"astId":46223,"contract":"src/BTCDutchAuctionHouse.sol:BTCDutchAuctionHouse","label":"swapHashes","offset":0,"slot":"3","type":"t_array(t_bytes32)dyn_storage"},{"astId":46225,"contract":"src/BTCDutchAuctionHouse.sol:BTCDutchAuctionHouse","label":"accumulatedFeeBalance","offset":0,"slot":"4","type":"t_uint256"},{"astId":46227,"contract":"src/BTCDutchAuctionHouse.sol:BTCDutchAuctionHouse","label":"feeRouterAddress","offset":0,"slot":"5","type":"t_address"},{"astId":46229,"contract":"src/BTCDutchAuctionHouse.sol:BTCDutchAuctionHouse","label":"takerFeeBips","offset":20,"slot":"5","type":"t_uint16"},{"astId":45470,"contract":"src/BTCDutchAuctionHouse.sol:BTCDutchAuctionHouse","label":"auctionHashes","offset":0,"slot":"6","type":"t_array(t_bytes32)dyn_storage"}],"types":{"t_address":{"encoding":"inplace","label":"address","numberOfBytes":"20"},"t_array(t_bytes32)dyn_storage":{"encoding":"dynamic_array","label":"bytes32[]","numberOfBytes":"32","base":"t_bytes32"},"t_bool":{"encoding":"inplace","label":"bool","numberOfBytes":"1"},"t_bytes32":{"encoding":"inplace","label":"bytes32","numberOfBytes":"32"},"t_mapping(t_bytes32,t_struct(BitcoinCheckpoint)47430_storage)":{"encoding":"mapping","key":"t_bytes32","label":"mapping(bytes32 => struct BitcoinCheckpoint)","numberOfBytes":"32","value":"t_struct(BitcoinCheckpoint)47430_storage"},"t_struct(BitcoinCheckpoint)47430_storage":{"encoding":"inplace","label":"struct BitcoinCheckpoint","numberOfBytes":"128","members":[{"astId":47426,"contract":"src/BTCDutchAuctionHouse.sol:BTCDutchAuctionHouse","label":"established","offset":0,"slot":"0","type":"t_bool"},{"astId":47429,"contract":"src/BTCDutchAuctionHouse.sol:BTCDutchAuctionHouse","label":"tipBlockLeaf","offset":0,"slot":"1","type":"t_struct(BlockLeaf)47423_storage"}]},"t_struct(BlockLeaf)47423_storage":{"encoding":"inplace","label":"struct BlockLeaf","numberOfBytes":"96","members":[{"astId":47418,"contract":"src/BTCDutchAuctionHouse.sol:BTCDutchAuctionHouse","label":"blockHash","offset":0,"slot":"0","type":"t_bytes32"},{"astId":47420,"contract":"src/BTCDutchAuctionHouse.sol:BTCDutchAuctionHouse","label":"height","offset":0,"slot":"1","type":"t_uint32"},{"astId":47422,"contract":"src/BTCDutchAuctionHouse.sol:BTCDutchAuctionHouse","label":"cumulativeChainwork","offset":0,"slot":"2","type":"t_uint256"}]},"t_uint16":{"encoding":"inplace","label":"uint16","numberOfBytes":"2"},"t_uint256":{"encoding":"inplace","label":"uint256","numberOfBytes":"32"},"t_uint32":{"encoding":"inplace","label":"uint32","numberOfBytes":"4"}}},"id":45}