{"abi":[{"type":"constructor","inputs":[{"name":"_mmrRoot","type":"bytes32","internalType":"bytes32"},{"name":"_syntheticBitcoin","type":"address","internalType":"address"},{"name":"_circuitVerificationKey","type":"bytes32","internalType":"bytes32"},{"name":"_verifier","type":"address","internalType":"address"},{"name":"_feeRouter","type":"address","internalType":"address"},{"name":"_takerFeeBips","type":"uint16","internalType":"uint16"},{"name":"_tipBlockLeaf","type":"tuple","internalType":"struct BlockLeaf","components":[{"name":"blockHash","type":"bytes32","internalType":"bytes32"},{"name":"height","type":"uint32","internalType":"uint32"},{"name":"cumulativeChainwork","type":"uint256","internalType":"uint256"}]}],"stateMutability":"nonpayable"},{"type":"function","name":"accumulatedFees","inputs":[],"outputs":[{"name":"","type":"uint256","internalType":"uint256"}],"stateMutability":"view"},{"type":"function","name":"adminSetFeeRouter","inputs":[{"name":"_feeRouter","type":"address","internalType":"address"}],"outputs":[],"stateMutability":"nonpayable"},{"type":"function","name":"adminSetTakerFeeBips","inputs":[{"name":"_takerFeeBips","type":"uint16","internalType":"uint16"}],"outputs":[],"stateMutability":"nonpayable"},{"type":"function","name":"auctionHashes","inputs":[{"name":"","type":"uint256","internalType":"uint256"}],"outputs":[{"name":"","type":"bytes32","internalType":"bytes32"}],"stateMutability":"view"},{"type":"function","name":"cancelOwnershipHandover","inputs":[],"outputs":[],"stateMutability":"payable"},{"type":"function","name":"checkpoints","inputs":[{"name":"","type":"bytes32","internalType":"bytes32"}],"outputs":[{"name":"established","type":"bool","internalType":"bool"},{"name":"tipBlockLeaf","type":"tuple","internalType":"struct BlockLeaf","components":[{"name":"blockHash","type":"bytes32","internalType":"bytes32"},{"name":"height","type":"uint32","internalType":"uint32"},{"name":"cumulativeChainwork","type":"uint256","internalType":"uint256"}]}],"stateMutability":"view"},{"type":"function","name":"circuitVerificationKey","inputs":[],"outputs":[{"name":"","type":"bytes32","internalType":"bytes32"}],"stateMutability":"view"},{"type":"function","name":"claimAuction","inputs":[{"name":"auction","type":"tuple","internalType":"struct DutchAuction","components":[{"name":"index","type":"uint256","internalType":"uint256"},{"name":"baseCreateOrderParams","type":"tuple","internalType":"struct BaseCreateOrderParams","components":[{"name":"owner","type":"address","internalType":"address"},{"name":"bitcoinScriptPubKey","type":"bytes","internalType":"bytes"},{"name":"salt","type":"bytes32","internalType":"bytes32"},{"name":"confirmationBlocks","type":"uint8","internalType":"uint8"},{"name":"safeBlockLeaf","type":"tuple","internalType":"struct BlockLeaf","components":[{"name":"blockHash","type":"bytes32","internalType":"bytes32"},{"name":"height","type":"uint32","internalType":"uint32"},{"name":"cumulativeChainwork","type":"uint256","internalType":"uint256"}]}]},{"name":"dutchAuctionParams","type":"tuple","internalType":"struct DutchAuctionParams","components":[{"name":"startBtcOut","type":"uint256","internalType":"uint256"},{"name":"endBtcOut","type":"uint256","internalType":"uint256"},{"name":"decayBlocks","type":"uint256","internalType":"uint256"},{"name":"deadline","type":"uint256","internalType":"uint256"},{"name":"fillerWhitelistContract","type":"address","internalType":"address"}]},{"name":"depositAmount","type":"uint256","internalType":"uint256"},{"name":"startBlock","type":"uint256","internalType":"uint256"},{"name":"startTimestamp","type":"uint256","internalType":"uint256"},{"name":"state","type":"uint8","internalType":"enum DutchAuctionState"}]},{"name":"fillerAuthData","type":"bytes","internalType":"bytes"},{"name":"safeBlockSiblings","type":"bytes32[]","internalType":"bytes32[]"},{"name":"safeBlockPeaks","type":"bytes32[]","internalType":"bytes32[]"}],"outputs":[],"stateMutability":"nonpayable"},{"type":"function","name":"completeOwnershipHandover","inputs":[{"name":"pendingOwner","type":"address","internalType":"address"}],"outputs":[],"stateMutability":"payable"},{"type":"function","name":"eip712Domain","inputs":[],"outputs":[{"name":"fields","type":"bytes1","internalType":"bytes1"},{"name":"name","type":"string","internalType":"string"},{"name":"version","type":"string","internalType":"string"},{"name":"chainId","type":"uint256","internalType":"uint256"},{"name":"verifyingContract","type":"address","internalType":"address"},{"name":"salt","type":"bytes32","internalType":"bytes32"},{"name":"extensions","type":"uint256[]","internalType":"uint256[]"}],"stateMutability":"view"},{"type":"function","name":"feeRouter","inputs":[],"outputs":[{"name":"","type":"address","internalType":"address"}],"stateMutability":"view"},{"type":"function","name":"getTotalOrders","inputs":[],"outputs":[{"name":"","type":"uint256","internalType":"uint256"}],"stateMutability":"view"},{"type":"function","name":"getTotalPayments","inputs":[],"outputs":[{"name":"","type":"uint256","internalType":"uint256"}],"stateMutability":"view"},{"type":"function","name":"lightClientHeight","inputs":[],"outputs":[{"name":"","type":"uint32","internalType":"uint32"}],"stateMutability":"view"},{"type":"function","name":"mmrRoot","inputs":[],"outputs":[{"name":"","type":"bytes32","internalType":"bytes32"}],"stateMutability":"view"},{"type":"function","name":"orderHashes","inputs":[{"name":"","type":"uint256","internalType":"uint256"}],"outputs":[{"name":"","type":"bytes32","internalType":"bytes32"}],"stateMutability":"view"},{"type":"function","name":"owner","inputs":[],"outputs":[{"name":"result","type":"address","internalType":"address"}],"stateMutability":"view"},{"type":"function","name":"ownershipHandoverExpiresAt","inputs":[{"name":"pendingOwner","type":"address","internalType":"address"}],"outputs":[{"name":"result","type":"uint256","internalType":"uint256"}],"stateMutability":"view"},{"type":"function","name":"paymentHashes","inputs":[{"name":"","type":"uint256","internalType":"uint256"}],"outputs":[{"name":"","type":"bytes32","internalType":"bytes32"}],"stateMutability":"view"},{"type":"function","name":"refundAuction","inputs":[{"name":"auction","type":"tuple","internalType":"struct DutchAuction","components":[{"name":"index","type":"uint256","internalType":"uint256"},{"name":"baseCreateOrderParams","type":"tuple","internalType":"struct BaseCreateOrderParams","components":[{"name":"owner","type":"address","internalType":"address"},{"name":"bitcoinScriptPubKey","type":"bytes","internalType":"bytes"},{"name":"salt","type":"bytes32","internalType":"bytes32"},{"name":"confirmationBlocks","type":"uint8","internalType":"uint8"},{"name":"safeBlockLeaf","type":"tuple","internalType":"struct BlockLeaf","components":[{"name":"blockHash","type":"bytes32","internalType":"bytes32"},{"name":"height","type":"uint32","internalType":"uint32"},{"name":"cumulativeChainwork","type":"uint256","internalType":"uint256"}]}]},{"name":"dutchAuctionParams","type":"tuple","internalType":"struct DutchAuctionParams","components":[{"name":"startBtcOut","type":"uint256","internalType":"uint256"},{"name":"endBtcOut","type":"uint256","internalType":"uint256"},{"name":"decayBlocks","type":"uint256","internalType":"uint256"},{"name":"deadline","type":"uint256","internalType":"uint256"},{"name":"fillerWhitelistContract","type":"address","internalType":"address"}]},{"name":"depositAmount","type":"uint256","internalType":"uint256"},{"name":"startBlock","type":"uint256","internalType":"uint256"},{"name":"startTimestamp","type":"uint256","internalType":"uint256"},{"name":"state","type":"uint8","internalType":"enum DutchAuctionState"}]}],"outputs":[],"stateMutability":"nonpayable"},{"type":"function","name":"refundOrder","inputs":[{"name":"order","type":"tuple","internalType":"struct Order","components":[{"name":"index","type":"uint256","internalType":"uint256"},{"name":"timestamp","type":"uint64","internalType":"uint64"},{"name":"unlockTimestamp","type":"uint64","internalType":"uint64"},{"name":"amount","type":"uint256","internalType":"uint256"},{"name":"takerFee","type":"uint256","internalType":"uint256"},{"name":"expectedSats","type":"uint64","internalType":"uint64"},{"name":"bitcoinScriptPubKey","type":"bytes","internalType":"bytes"},{"name":"designatedReceiver","type":"address","internalType":"address"},{"name":"owner","type":"address","internalType":"address"},{"name":"salt","type":"bytes32","internalType":"bytes32"},{"name":"confirmationBlocks","type":"uint8","internalType":"uint8"},{"name":"safeBitcoinBlockHeight","type":"uint64","internalType":"uint64"},{"name":"state","type":"uint8","internalType":"enum OrderState"}]}],"outputs":[],"stateMutability":"nonpayable"},{"type":"function","name":"renounceOwnership","inputs":[],"outputs":[],"stateMutability":"payable"},{"type":"function","name":"requestOwnershipHandover","inputs":[],"outputs":[],"stateMutability":"payable"},{"type":"function","name":"settleOrders","inputs":[{"name":"settleOrderParams","type":"tuple[]","internalType":"struct SettleOrderParams[]","components":[{"name":"order","type":"tuple","internalType":"struct Order","components":[{"name":"index","type":"uint256","internalType":"uint256"},{"name":"timestamp","type":"uint64","internalType":"uint64"},{"name":"unlockTimestamp","type":"uint64","internalType":"uint64"},{"name":"amount","type":"uint256","internalType":"uint256"},{"name":"takerFee","type":"uint256","internalType":"uint256"},{"name":"expectedSats","type":"uint64","internalType":"uint64"},{"name":"bitcoinScriptPubKey","type":"bytes","internalType":"bytes"},{"name":"designatedReceiver","type":"address","internalType":"address"},{"name":"owner","type":"address","internalType":"address"},{"name":"salt","type":"bytes32","internalType":"bytes32"},{"name":"confirmationBlocks","type":"uint8","internalType":"uint8"},{"name":"safeBitcoinBlockHeight","type":"uint64","internalType":"uint64"},{"name":"state","type":"uint8","internalType":"enum OrderState"}]},{"name":"payment","type":"tuple","internalType":"struct Payment","components":[{"name":"index","type":"uint256","internalType":"uint256"},{"name":"orderIndex","type":"uint256","internalType":"uint256"},{"name":"orderHash","type":"bytes32","internalType":"bytes32"},{"name":"paymentBitcoinBlockLeaf","type":"tuple","internalType":"struct BlockLeaf","components":[{"name":"blockHash","type":"bytes32","internalType":"bytes32"},{"name":"height","type":"uint32","internalType":"uint32"},{"name":"cumulativeChainwork","type":"uint256","internalType":"uint256"}]},{"name":"challengeExpiryTimestamp","type":"uint64","internalType":"uint64"},{"name":"state","type":"uint8","internalType":"enum PaymentState"}]},{"name":"paymentBitcoinBlockSiblings","type":"bytes32[]","internalType":"bytes32[]"},{"name":"paymentBitcoinBlockPeaks","type":"bytes32[]","internalType":"bytes32[]"},{"name":"tipBlockHeight","type":"uint32","internalType":"uint32"}]}],"outputs":[],"stateMutability":"nonpayable"},{"type":"function","name":"startAuction","inputs":[{"name":"depositAmount","type":"uint256","internalType":"uint256"},{"name":"auctionParams","type":"tuple","internalType":"struct DutchAuctionParams","components":[{"name":"startBtcOut","type":"uint256","internalType":"uint256"},{"name":"endBtcOut","type":"uint256","internalType":"uint256"},{"name":"decayBlocks","type":"uint256","internalType":"uint256"},{"name":"deadline","type":"uint256","internalType":"uint256"},{"name":"fillerWhitelistContract","type":"address","internalType":"address"}]},{"name":"baseCreateOrderParams","type":"tuple","internalType":"struct BaseCreateOrderParams","components":[{"name":"owner","type":"address","internalType":"address"},{"name":"bitcoinScriptPubKey","type":"bytes","internalType":"bytes"},{"name":"salt","type":"bytes32","internalType":"bytes32"},{"name":"confirmationBlocks","type":"uint8","internalType":"uint8"},{"name":"safeBlockLeaf","type":"tuple","internalType":"struct BlockLeaf","components":[{"name":"blockHash","type":"bytes32","internalType":"bytes32"},{"name":"height","type":"uint32","internalType":"uint32"},{"name":"cumulativeChainwork","type":"uint256","internalType":"uint256"}]}]}],"outputs":[],"stateMutability":"nonpayable"},{"type":"function","name":"submitPaymentProofs","inputs":[{"name":"paymentParams","type":"tuple[]","internalType":"struct SubmitPaymentProofParams[]","components":[{"name":"paymentBitcoinTxid","type":"bytes32","internalType":"bytes32"},{"name":"order","type":"tuple","internalType":"struct Order","components":[{"name":"index","type":"uint256","internalType":"uint256"},{"name":"timestamp","type":"uint64","internalType":"uint64"},{"name":"unlockTimestamp","type":"uint64","internalType":"uint64"},{"name":"amount","type":"uint256","internalType":"uint256"},{"name":"takerFee","type":"uint256","internalType":"uint256"},{"name":"expectedSats","type":"uint64","internalType":"uint64"},{"name":"bitcoinScriptPubKey","type":"bytes","internalType":"bytes"},{"name":"designatedReceiver","type":"address","internalType":"address"},{"name":"owner","type":"address","internalType":"address"},{"name":"salt","type":"bytes32","internalType":"bytes32"},{"name":"confirmationBlocks","type":"uint8","internalType":"uint8"},{"name":"safeBitcoinBlockHeight","type":"uint64","internalType":"uint64"},{"name":"state","type":"uint8","internalType":"enum OrderState"}]},{"name":"paymentBitcoinBlockLeaf","type":"tuple","internalType":"struct BlockLeaf","components":[{"name":"blockHash","type":"bytes32","internalType":"bytes32"},{"name":"height","type":"uint32","internalType":"uint32"},{"name":"cumulativeChainwork","type":"uint256","internalType":"uint256"}]},{"name":"paymentBitcoinBlockSiblings","type":"bytes32[]","internalType":"bytes32[]"},{"name":"paymentBitcoinBlockPeaks","type":"bytes32[]","internalType":"bytes32[]"}]},{"name":"blockProofParams","type":"tuple","internalType":"struct BlockProofParams","components":[{"name":"priorMmrRoot","type":"bytes32","internalType":"bytes32"},{"name":"newMmrRoot","type":"bytes32","internalType":"bytes32"},{"name":"compressedBlockLeaves","type":"bytes","internalType":"bytes"},{"name":"tipBlockLeaf","type":"tuple","internalType":"struct BlockLeaf","components":[{"name":"blockHash","type":"bytes32","internalType":"bytes32"},{"name":"height","type":"uint32","internalType":"uint32"},{"name":"cumulativeChainwork","type":"uint256","internalType":"uint256"}]}]},{"name":"proof","type":"bytes","internalType":"bytes"}],"outputs":[],"stateMutability":"nonpayable"},{"type":"function","name":"submitPaymentProofs","inputs":[{"name":"paymentParams","type":"tuple[]","internalType":"struct SubmitPaymentProofParams[]","components":[{"name":"paymentBitcoinTxid","type":"bytes32","internalType":"bytes32"},{"name":"order","type":"tuple","internalType":"struct Order","components":[{"name":"index","type":"uint256","internalType":"uint256"},{"name":"timestamp","type":"uint64","internalType":"uint64"},{"name":"unlockTimestamp","type":"uint64","internalType":"uint64"},{"name":"amount","type":"uint256","internalType":"uint256"},{"name":"takerFee","type":"uint256","internalType":"uint256"},{"name":"expectedSats","type":"uint64","internalType":"uint64"},{"name":"bitcoinScriptPubKey","type":"bytes","internalType":"bytes"},{"name":"designatedReceiver","type":"address","internalType":"address"},{"name":"owner","type":"address","internalType":"address"},{"name":"salt","type":"bytes32","internalType":"bytes32"},{"name":"confirmationBlocks","type":"uint8","internalType":"uint8"},{"name":"safeBitcoinBlockHeight","type":"uint64","internalType":"uint64"},{"name":"state","type":"uint8","internalType":"enum OrderState"}]},{"name":"paymentBitcoinBlockLeaf","type":"tuple","internalType":"struct BlockLeaf","components":[{"name":"blockHash","type":"bytes32","internalType":"bytes32"},{"name":"height","type":"uint32","internalType":"uint32"},{"name":"cumulativeChainwork","type":"uint256","internalType":"uint256"}]},{"name":"paymentBitcoinBlockSiblings","type":"bytes32[]","internalType":"bytes32[]"},{"name":"paymentBitcoinBlockPeaks","type":"bytes32[]","internalType":"bytes32[]"}]},{"name":"proof","type":"bytes","internalType":"bytes"}],"outputs":[],"stateMutability":"nonpayable"},{"type":"function","name":"syntheticBitcoin","inputs":[],"outputs":[{"name":"","type":"address","internalType":"address"}],"stateMutability":"view"},{"type":"function","name":"takerFeeBips","inputs":[],"outputs":[{"name":"","type":"uint16","internalType":"uint16"}],"stateMutability":"view"},{"type":"function","name":"transferOwnership","inputs":[{"name":"newOwner","type":"address","internalType":"address"}],"outputs":[],"stateMutability":"payable"},{"type":"function","name":"updateLightClient","inputs":[{"name":"blockProofParams","type":"tuple","internalType":"struct BlockProofParams","components":[{"name":"priorMmrRoot","type":"bytes32","internalType":"bytes32"},{"name":"newMmrRoot","type":"bytes32","internalType":"bytes32"},{"name":"compressedBlockLeaves","type":"bytes","internalType":"bytes"},{"name":"tipBlockLeaf","type":"tuple","internalType":"struct BlockLeaf","components":[{"name":"blockHash","type":"bytes32","internalType":"bytes32"},{"name":"height","type":"uint32","internalType":"uint32"},{"name":"cumulativeChainwork","type":"uint256","internalType":"uint256"}]}]},{"name":"proof","type":"bytes","internalType":"bytes"}],"outputs":[],"stateMutability":"nonpayable"},{"type":"function","name":"verifier","inputs":[],"outputs":[{"name":"","type":"address","internalType":"address"}],"stateMutability":"view"},{"type":"function","name":"verifyBlockInclusion","inputs":[{"name":"blockLeaf","type":"tuple","internalType":"struct BlockLeaf","components":[{"name":"blockHash","type":"bytes32","internalType":"bytes32"},{"name":"height","type":"uint32","internalType":"uint32"},{"name":"cumulativeChainwork","type":"uint256","internalType":"uint256"}]},{"name":"siblings","type":"bytes32[]","internalType":"bytes32[]"},{"name":"peaks","type":"bytes32[]","internalType":"bytes32[]"}],"outputs":[],"stateMutability":"view"},{"type":"function","name":"verifyProof","inputs":[{"name":"proofPublicInput","type":"tuple","internalType":"struct ProofPublicInput","components":[{"name":"proofType","type":"uint8","internalType":"enum ProofType"},{"name":"payments","type":"tuple[]","internalType":"struct PaymentPublicInput[]","components":[{"name":"paymentBitcoinTxid","type":"bytes32","internalType":"bytes32"},{"name":"paymentBitcoinBlockHash","type":"bytes32","internalType":"bytes32"},{"name":"orderHash","type":"bytes32","internalType":"bytes32"}]},{"name":"lightClient","type":"tuple","internalType":"struct LightClientPublicInput","components":[{"name":"priorMmrRoot","type":"bytes32","internalType":"bytes32"},{"name":"newMmrRoot","type":"bytes32","internalType":"bytes32"},{"name":"compressedLeavesHash","type":"bytes32","internalType":"bytes32"},{"name":"tipBlockLeaf","type":"tuple","internalType":"struct BlockLeaf","components":[{"name":"blockHash","type":"bytes32","internalType":"bytes32"},{"name":"height","type":"uint32","internalType":"uint32"},{"name":"cumulativeChainwork","type":"uint256","internalType":"uint256"}]}]}]},{"name":"proof","type":"bytes","internalType":"bytes"}],"outputs":[],"stateMutability":"view"},{"type":"function","name":"withdrawFees","inputs":[],"outputs":[],"stateMutability":"nonpayable"},{"type":"event","name":"AuctionUpdated","inputs":[{"name":"auction","type":"tuple","indexed":false,"internalType":"struct DutchAuction","components":[{"name":"index","type":"uint256","internalType":"uint256"},{"name":"baseCreateOrderParams","type":"tuple","internalType":"struct BaseCreateOrderParams","components":[{"name":"owner","type":"address","internalType":"address"},{"name":"bitcoinScriptPubKey","type":"bytes","internalType":"bytes"},{"name":"salt","type":"bytes32","internalType":"bytes32"},{"name":"confirmationBlocks","type":"uint8","internalType":"uint8"},{"name":"safeBlockLeaf","type":"tuple","internalType":"struct BlockLeaf","components":[{"name":"blockHash","type":"bytes32","internalType":"bytes32"},{"name":"height","type":"uint32","internalType":"uint32"},{"name":"cumulativeChainwork","type":"uint256","internalType":"uint256"}]}]},{"name":"dutchAuctionParams","type":"tuple","internalType":"struct DutchAuctionParams","components":[{"name":"startBtcOut","type":"uint256","internalType":"uint256"},{"name":"endBtcOut","type":"uint256","internalType":"uint256"},{"name":"decayBlocks","type":"uint256","internalType":"uint256"},{"name":"deadline","type":"uint256","internalType":"uint256"},{"name":"fillerWhitelistContract","type":"address","internalType":"address"}]},{"name":"depositAmount","type":"uint256","internalType":"uint256"},{"name":"startBlock","type":"uint256","internalType":"uint256"},{"name":"startTimestamp","type":"uint256","internalType":"uint256"},{"name":"state","type":"uint8","internalType":"enum DutchAuctionState"}]}],"anonymous":false},{"type":"event","name":"BitcoinLightClientUpdated","inputs":[{"name":"priorMmrRoot","type":"bytes32","indexed":false,"internalType":"bytes32"},{"name":"newMmrRoot","type":"bytes32","indexed":false,"internalType":"bytes32"}],"anonymous":false},{"type":"event","name":"OrderCreated","inputs":[{"name":"order","type":"tuple","indexed":false,"internalType":"struct Order","components":[{"name":"index","type":"uint256","internalType":"uint256"},{"name":"timestamp","type":"uint64","internalType":"uint64"},{"name":"unlockTimestamp","type":"uint64","internalType":"uint64"},{"name":"amount","type":"uint256","internalType":"uint256"},{"name":"takerFee","type":"uint256","internalType":"uint256"},{"name":"expectedSats","type":"uint64","internalType":"uint64"},{"name":"bitcoinScriptPubKey","type":"bytes","internalType":"bytes"},{"name":"designatedReceiver","type":"address","internalType":"address"},{"name":"owner","type":"address","internalType":"address"},{"name":"salt","type":"bytes32","internalType":"bytes32"},{"name":"confirmationBlocks","type":"uint8","internalType":"uint8"},{"name":"safeBitcoinBlockHeight","type":"uint64","internalType":"uint64"},{"name":"state","type":"uint8","internalType":"enum OrderState"}]}],"anonymous":false},{"type":"event","name":"OrderRefunded","inputs":[{"name":"order","type":"tuple","indexed":false,"internalType":"struct Order","components":[{"name":"index","type":"uint256","internalType":"uint256"},{"name":"timestamp","type":"uint64","internalType":"uint64"},{"name":"unlockTimestamp","type":"uint64","internalType":"uint64"},{"name":"amount","type":"uint256","internalType":"uint256"},{"name":"takerFee","type":"uint256","internalType":"uint256"},{"name":"expectedSats","type":"uint64","internalType":"uint64"},{"name":"bitcoinScriptPubKey","type":"bytes","internalType":"bytes"},{"name":"designatedReceiver","type":"address","internalType":"address"},{"name":"owner","type":"address","internalType":"address"},{"name":"salt","type":"bytes32","internalType":"bytes32"},{"name":"confirmationBlocks","type":"uint8","internalType":"uint8"},{"name":"safeBitcoinBlockHeight","type":"uint64","internalType":"uint64"},{"name":"state","type":"uint8","internalType":"enum OrderState"}]}],"anonymous":false},{"type":"event","name":"OrdersSettled","inputs":[{"name":"orders","type":"tuple[]","indexed":false,"internalType":"struct Order[]","components":[{"name":"index","type":"uint256","internalType":"uint256"},{"name":"timestamp","type":"uint64","internalType":"uint64"},{"name":"unlockTimestamp","type":"uint64","internalType":"uint64"},{"name":"amount","type":"uint256","internalType":"uint256"},{"name":"takerFee","type":"uint256","internalType":"uint256"},{"name":"expectedSats","type":"uint64","internalType":"uint64"},{"name":"bitcoinScriptPubKey","type":"bytes","internalType":"bytes"},{"name":"designatedReceiver","type":"address","internalType":"address"},{"name":"owner","type":"address","internalType":"address"},{"name":"salt","type":"bytes32","internalType":"bytes32"},{"name":"confirmationBlocks","type":"uint8","internalType":"uint8"},{"name":"safeBitcoinBlockHeight","type":"uint64","internalType":"uint64"},{"name":"state","type":"uint8","internalType":"enum OrderState"}]},{"name":"payments","type":"tuple[]","indexed":false,"internalType":"struct Payment[]","components":[{"name":"index","type":"uint256","internalType":"uint256"},{"name":"orderIndex","type":"uint256","internalType":"uint256"},{"name":"orderHash","type":"bytes32","internalType":"bytes32"},{"name":"paymentBitcoinBlockLeaf","type":"tuple","internalType":"struct BlockLeaf","components":[{"name":"blockHash","type":"bytes32","internalType":"bytes32"},{"name":"height","type":"uint32","internalType":"uint32"},{"name":"cumulativeChainwork","type":"uint256","internalType":"uint256"}]},{"name":"challengeExpiryTimestamp","type":"uint64","internalType":"uint64"},{"name":"state","type":"uint8","internalType":"enum PaymentState"}]}],"anonymous":false},{"type":"event","name":"OwnershipHandoverCanceled","inputs":[{"name":"pendingOwner","type":"address","indexed":true,"internalType":"address"}],"anonymous":false},{"type":"event","name":"OwnershipHandoverRequested","inputs":[{"name":"pendingOwner","type":"address","indexed":true,"internalType":"address"}],"anonymous":false},{"type":"event","name":"OwnershipTransferred","inputs":[{"name":"oldOwner","type":"address","indexed":true,"internalType":"address"},{"name":"newOwner","type":"address","indexed":true,"internalType":"address"}],"anonymous":false},{"type":"event","name":"PaymentsCreated","inputs":[{"name":"payments","type":"tuple[]","indexed":false,"internalType":"struct Payment[]","components":[{"name":"index","type":"uint256","internalType":"uint256"},{"name":"orderIndex","type":"uint256","internalType":"uint256"},{"name":"orderHash","type":"bytes32","internalType":"bytes32"},{"name":"paymentBitcoinBlockLeaf","type":"tuple","internalType":"struct BlockLeaf","components":[{"name":"blockHash","type":"bytes32","internalType":"bytes32"},{"name":"height","type":"uint32","internalType":"uint32"},{"name":"cumulativeChainwork","type":"uint256","internalType":"uint256"}]},{"name":"challengeExpiryTimestamp","type":"uint64","internalType":"uint64"},{"name":"state","type":"uint8","internalType":"enum PaymentState"}]}],"anonymous":false},{"type":"error","name":"AlreadyInitialized","inputs":[]},{"type":"error","name":"AuctionExpired","inputs":[]},{"type":"error","name":"AuctionNotExpired","inputs":[]},{"type":"error","name":"AuctionNotLive","inputs":[]},{"type":"error","name":"BlockNotConfirmed","inputs":[]},{"type":"error","name":"BlockNotInChain","inputs":[]},{"type":"error","name":"ChainworkTooLow","inputs":[]},{"type":"error","name":"CheckpointNotEstablished","inputs":[]},{"type":"error","name":"DepositAmountTooLow","inputs":[]},{"type":"error","name":"DutchAuctionDoesNotExist","inputs":[]},{"type":"error","name":"FillerNotWhitelisted","inputs":[]},{"type":"error","name":"InvalidDeadline","inputs":[]},{"type":"error","name":"InvalidDecimals","inputs":[{"name":"actual","type":"uint8","internalType":"uint8"},{"name":"expected","type":"uint8","internalType":"uint8"}]},{"type":"error","name":"InvalidOrderHash","inputs":[{"name":"actual","type":"bytes32","internalType":"bytes32"},{"name":"expected","type":"bytes32","internalType":"bytes32"}]},{"type":"error","name":"InvalidScriptPubKey","inputs":[]},{"type":"error","name":"InvalidStartBtcOut","inputs":[]},{"type":"error","name":"InvalidTickSize","inputs":[]},{"type":"error","name":"NewOwnerIsZeroAddress","inputs":[]},{"type":"error","name":"NoFeeToWithdraw","inputs":[]},{"type":"error","name":"NoHandoverRequest","inputs":[]},{"type":"error","name":"NoPaymentsToSubmit","inputs":[]},{"type":"error","name":"NotEnoughConfirmationBlocks","inputs":[]},{"type":"error","name":"OrderDoesNotExist","inputs":[]},{"type":"error","name":"OrderNotLive","inputs":[]},{"type":"error","name":"OrderStillActive","inputs":[]},{"type":"error","name":"PaymentDoesNotExist","inputs":[]},{"type":"error","name":"PaymentNotProved","inputs":[]},{"type":"error","name":"SatOutputTooLow","inputs":[]},{"type":"error","name":"StillInChallengePeriod","inputs":[]},{"type":"error","name":"Unauthorized","inputs":[]}],"bytecode":{"object":"0x61018080604052346103515780613595803803809161001e828561037c565b833981010361012081126103515781519161003b6020820161039f565b60408201519061004d6060840161039f565b9261005a6080820161039f565b9560a08201519561ffff871687036103515760609060bf1901126103515760405191606083016001600160401b038111848210176103685760405260c0810151835260e08101519063ffffffff821682036103515761010091602085015201516040830152306080524660a05260a06040516100d760408261037c565b600c815260208101906b5269667445786368616e676560a01b82526040519161010160408461037c565b60058352602083019164302e302e3160d81b8352519020915190208160c0528060e052604051917f8b73c3c69bb8fe3d512ecc4cf759cc79239f7b179b0ffacaa9a75d522b39400f8352602083015260408201524660608201523060808201522061010052805f5560405191604083019083821060018060401b0383111761036857600392604092835260018552602085019182525f526001602052815f209351151560ff8019865416911617845551805160018501556002840163ffffffff60208301511663ffffffff19825416179055015191015533638b78c6d81955335f7f8be0079c531659141344cd1fd0a4f28419497f9722a3daafe3b4186f6b6457e08180a360405163313ce56760e01b81526020816004816001600160a01b0386165afa801561035d575f9061031c575b60ff915016600881036103055750610120526101405261016052600580546001600160b01b0319166001600160a01b039093169290921760a09190911b61ffff60a01b161790556040516131e190816103b4823960805181610489015260a05181610466015260c05181610655015260e0518161067b01526101005181610443015261012051818181610bfc01528181610fef01528181611230015281816113860152818161183701526118b7015261014051818181611901015261210f01526101605181818161195601526120240152f35b63047e54d360e31b5f52600452600860245260445ffd5b506020813d602011610355575b816103366020938361037c565b81010312610351575160ff811681036103515760ff90610232565b5f80fd5b3d9150610329565b6040513d5f823e3d90fd5b634e487b7160e01b5f52604160045260245ffd5b601f909101601f19168101906001600160401b0382119082101761036857604052565b51906001600160a01b03821682036103515756fe60806040526004361015610011575f80fd5b5f3560e01c80631127a80b14611b395780631ea7ec04146119ce57806325692962146119855780632b7ac3f314611941578063375f16a7146119245780633d7b22b3146118ea578063476343ee14611887578063481c85f11461176457806354d1f13d14611720578063587f5ed714611703578063592b66491461160657806366e143ca146114c1578063708f29a6146114a4578063715018a61461145b5780637dd9cb31146112725780637e0258071461114557806384b0196e1461106e5780638da5cb5b146110425780639a73f4f51461101e578063a0d9e24114610fda578063a24462ea14610f4a578063a743e65e14610b8b578063c286befa14610b48578063cc38cd7d14610b0b578063d1a897a7146109f9578063d21ddc61146109dd578063df69558c146109b4578063e58e0fe31461096c578063eb5e91ff14610909578063f04e283e146108bc578063f29ebf6114610894578063f2fde38b14610857578063f3bbbeef1461081f578063fb9f0532146101d05763fee81cf41461019a575f80fd5b346101cc5760203660031901126101cc576101b3611d32565b63389a75e1600c525f52602080600c2054604051908152f35b5f80fd5b346101cc5760803660031901126101cc576004356001600160401b0381116101cc57610200903690600401611e45565b6024356001600160401b0381116101cc5761021f903690600401611da1565b906044356001600160401b0381116101cc5761023f903690600401611f13565b91906064356001600160401b0381116101cc57610260903690600401611f13565b939061026b84612872565b6102758551611b8a565b90549060031b1c036108105760c08401956001875161029381611ffc565b61029c81611ffc565b1480156107f3575b6107e457604085019060608251015142116107d5578151608001516001600160a01b031680610731575b50506102fa9060808601516102e8604083510151826124e0565b91519060208251920151924391612ec8565b916103516020860151926103426060880151966040519561031a87611c20565b86526020860194338652604087019889526001600160401b0360608801981688523691611f67565b97608085019889523691611f67565b9560a08301968752600254966103656126c6565b5061ffff60055460a01c1691865183155f14610703576001905b106106f4576103e86001600160401b03875116106106e557600260ff60608751015116106106d6576103b5602086510151612f6b565b156106c7576103ce9160808651015191519051916125c1565b84518181029181830414901517156106b35761271090049060ff60608451015116611c200263ffffffff81169081036106b357610420836001600160401b036104188194426124e0565b169751612e47565b945184516020810151935190516001600160a01b039081169591169392909116907f00000000000000000000000000000000000000000000000000000000000000008a467f000000000000000000000000000000000000000000000000000000000000000014307f0000000000000000000000000000000000000000000000000000000000000000141615610625575b875160409081015181519384526020840152820152606090205b95519663ffffffff6020608060ff60608c0151169a0151015116986040519b6104f28d611c3b565b8c526001600160401b03421660208d015260408c015260608b015260808a015260a089015260c088015260e08701526101008601526101208501526101408401526101608301525f61018083015261054982612ca7565b9160025493600160401b851015610611577fadadc1b62a250c6ad69315c6cbfb680b0f6b50d733bdcdffb4d73e6e22b0a6ac6105e66001936105d261060c976105ba8a887ff8b9da109a8a429429945d6f1c38f3af7b160026a3e9200e7cebae483c6a8c639c016002556002611bba565b90919082549060031b91821b915f19901b1916179055565b6040519182916020835260208301906124ed565b0390a1526106006105f682612872565b6105ba8351611b8a565b604051918291826121b8565b0390a1005b634e487b7160e01b5f52604160045260245ffd5b50506104ca8a60a06040517f8b73c3c69bb8fe3d512ecc4cf759cc79239f7b179b0ffacaa9a75d522b39400f81527f000000000000000000000000000000000000000000000000000000000000000060208201527f000000000000000000000000000000000000000000000000000000000000000060408201524660608201523060808201522091506104b0565b634e487b7160e01b5f52601160045260245ffd5b63fad7db0760e01b5f5260045ffd5b63bdf8f2b360e01b5f5260045ffd5b63fde5943160e01b5f5260045ffd5b6355fcd02760e01b5f5260045ffd5b836127100161ffff81116106b35761ffff5f1991160161ffff81116106b3578461ffff80921604169061037f565b610761916020916040518080958194631f0a8fa760e01b8352336004840152604060248401526044830190611f43565b03915afa9081156107ca575f9161078f575b50156107805787806102ce565b63754760cb60e11b5f5260045ffd5b90506020813d6020116107c2575b816107aa60209383611c8d565b810103126101cc575180151581036101cc5788610773565b3d915061079d565b6040513d5f823e3d90fd5b630129799f60e21b5f5260045ffd5b6358fd8d1160e01b5f5260045ffd5b506002875161080181611ffc565b61080a81611ffc565b146102a4565b634df2e8a360e01b5f5260045ffd5b346101cc5760203660031901126101cc576004356006548110156101cc57610848602091611b8a565b90549060031b1c604051908152f35b60203660031901126101cc5761086b611d32565b610873612c11565b8060601b156108875761088590612c2d565b005b637448fbae5f526004601cfd5b346101cc575f3660031901126101cc576005546040516001600160a01b039091168152602090f35b60203660031901126101cc576108d0611d32565b6108d8612c11565b63389a75e1600c52805f526020600c2090815442116108fc575f6108859255612c2d565b636f5e88185f526004601cfd5b346101cc5760203660031901126101cc576004355f526001602052608060405f2061096a61093e600160ff8454169301611fce565b60405192151583526020830190604080918051845263ffffffff60208201511660208501520151910152565bf35b346101cc5760203660031901126101cc5760043561ffff811681036101cc57610993612c11565b6005805461ffff60a01b191660a09290921b61ffff60a01b16919091179055005b346101cc5760203660031901126101cc576004356002548110156101cc57610848602091611ba2565b346101cc575f3660031901126101cc5760205f54604051908152f35b346101cc5760403660031901126101cc576004356001600160401b0381116101cc57610a29903690600401611f13565b602435916001600160401b0383116101cc57610af761060c92610a99610a747ffcc0bf5af37d2416462f15b1eb9168c1d1741ed5c3ec7905490d015c611dba2b963690600401611d05565b929094610a945f545f52600160205263ffffffff600260405f2001541690565b6129af565b604094919451610aa881611bcf565b5f81525f60208201525f604082015260405190610ac482611bea565b5f82525f60208301525f6040830152606082015260405191610ae583611bcf565b5f83526020830152604082015261201a565b60405191829160208352602083019061236f565b346101cc575f3660031901126101cc576020610b3a5f545f52600160205263ffffffff600260405f2001541690565b63ffffffff60405191168152f35b346101cc5760203660031901126101cc57610b61611d32565b610b69612c11565b600580546001600160a01b0319166001600160a01b0392909216919091179055005b346101cc5760203660031901126101cc576004356001600160401b0381116101cc57610bbb903690600401611f13565b90610bc58261264c565b90610bcf83611cae565b92610bdd6040519485611c8d565b808452601f19610bec82611cae565b015f5b818110610f3357505f92917f00000000000000000000000000000000000000000000000000000000000000009150835b818110610cc5578686610c34876004546124e0565b60045560405190604082016040835283518091526060830190602060608260051b8601019501915f905b828210610c9a577fd796dafe969ef61dd39d8f2109f42e67c96ad6baac6a79895e7e75d7261da5fd868061060c8a89838203602085015261236f565b90919295602080610cb7600193605f198a82030186528a516124ed565b980192019201909291610c5e565b6020610cd2828487612726565b01610cef610ce8610ce336846127b6565b612e25565b9135611b5e565b90549060031b1c03610f2457610100610d09828487612726565b013560028110156101cc57610f15576001600160401b03610d3660e0610d30848689612726565b016123ad565b164210610f0657610d59610d54610d4e838588612726565b80612749565b612c6a565b6060610d66838588612726565b01358103610ee25750600190610de3610d8c366080610d8685888b612726565b01611cc5565b8487610da7610d9c868484612726565b61012081019061275f565b9060ff610ddc610140610dd6610d4e8b610dce610dc5828c8c612726565b8581019061275f565b9a9099612726565b01612794565b1694612d90565b610e01610df1828588612726565b610dfc369180612749565b6123d5565b82610180820152610e1e610e1482612ca7565b6105ba8351611ba2565b610e28828a6127a2565b52610e3381896127a2565b50610e90610e4e366020610e4885888b612726565b016127b6565b968360a0890152610e78610e6189612e25565b6105ba6020610e71878a8d612726565b0135611b5e565b6080610e88610d4e85888b612726565b0135906124e0565b95610ec6610ead60e0610ea7610d4e86898c612726565b016124cc565b6060610ebd610d4e86898c612726565b01359087612821565b610ed082896127a2565b52610edb81886127a2565b5001610c1f565b6060610eef838588612726565b0135638f83aff160e01b5f5260045260245260445ffd5b632d5c37f560e21b5f5260045ffd5b6304261aed60e21b5f5260045ffd5b636f8e482b60e11b5f5260045ffd5b602090610f3e6126c6565b82828901015201610bef565b346101cc57366003190160a081126101cc576060136101cc57604051610f6f81611bcf565b600435815260243563ffffffff811681036101cc57602082015260443560408201526064356001600160401b0381116101cc57610fb0903690600401611fb3565b90608435916001600160401b0383116101cc57610fd4610885933690600401611fb3565b916125c1565b346101cc575f3660031901126101cc576040517f00000000000000000000000000000000000000000000000000000000000000006001600160a01b03168152602090f35b346101cc575f3660031901126101cc57602061ffff60055460a01c16604051908152f35b346101cc575f3660031901126101cc57638b78c6d819546040516001600160a01b039091168152602090f35b346101cc575f3660031901126101cc576110e760406110f48151916110938184611c8d565b600c83526b5269667445786368616e676560a01b602084015280516110b88282611c8d565b6005815264302e302e3160d81b60208201528151948594600f60f81b865260e0602087015260e0860190611f43565b9184830390850152611f43565b4660608301523060808301525f60a083015281810360c083015260206060519182815201906080905f5b81811061112c575050500390f35b825184528594506020938401939092019160010161111e565b346101cc5760203660031901126101cc576004356001600160401b0381116101cc57806004016101a060031983360301126101cc5761118381612c6a565b5061018482013560038110156101cc5761119c81611ffc565b611263576001600160401b036111b4604484016123ad565b164210611254577f401ceec6722e041e3a2bf9967184263dd4108d58dc1bf32cdc3db346840ecec8916105d26111ee61060c9336906123d5565b91600261018084015261120d61120384612ca7565b6105ba8551611ba2565b61122d61121d61010483016124cc565b91606460848201359101356124e0565b907f0000000000000000000000000000000000000000000000000000000000000000612821565b631ef96db360e21b5f5260045ffd5b6352bfa29d60e01b5f5260045ffd5b346101cc5760e03660031901126101cc5760043560a03660231901126101cc576040519061129f82611c57565b602435825260443560208301908152606435604084019081526084356060850190815290939160a4356001600160a01b03811681036101cc57608084015260c435946001600160401b0386116101cc5760e060031987360301126101cc57511561144c5782519051101561143d5751421161142e57611334600654936040519461132886611c05565b85523690600401611dcd565b602084015260408301528060608301524360808301524260a08301525f60c083015261135f82612872565b60065490600160401b821015610611576105ba82600161138494016006556006611bba565b7f000000000000000000000000000000000000000000000000000000000000000060405191606052306040523360601b602c526323b872dd60601b600c5260205f6064601c82855af1908160015f51141615611410575b7ff8b9da109a8a429429945d6f1c38f3af7b160026a3e9200e7cebae483c6a8c63838061060c875f60605282604052826121b8565b3b153d1710156114215782806113db565b637939f4245f526004601cfd5b631da7447960e21b5f5260045ffd5b6365da293b60e11b5f5260045ffd5b63747a60fb60e01b5f5260045ffd5b5f3660031901126101cc5761146e612c11565b5f638b78c6d819547f8be0079c531659141344cd1fd0a4f28419497f9722a3daafe3b4186f6b6457e08280a35f638b78c6d81955005b346101cc575f3660031901126101cc576020600354604051908152f35b346101cc5760603660031901126101cc576004356001600160401b0381116101cc576114f1903690600401611f13565b6024356001600160401b0381116101cc57806004019260c060031983360301126101cc576044356001600160401b0381116101cc57611534903690600401611d05565b908535956024850135966064860161155661154f3683611cc5565b8a8461289b565b60848701359063ffffffff821682036101cc577ffcc0bf5af37d2416462f15b1eb9168c1d1741ed5c3ec7905490d015c611dba2b996115b96115b26044966115a861060c9d610af79c6115e1986129af565b98909c01906122b3565b3691611d5c565b6020815191012090604051946115ce86611bea565b8552602085015260408401523690611cc5565b6060820152604051916115f383611bcf565b600283526020830152604082015261201a565b346101cc5760403660031901126101cc576004356001600160401b0381116101cc578060040160c060031983360301126101cc576024356001600160401b0381116101cc57611659903690600401611d05565b91803561168a6115b26024870135936044606489019861168361167c368c611cc5565b888861289b565b01906122b3565b805160209190910120604051926116a2602085611c8d565b5f84525f805b8181106116ec575050956116c79161088597604051946115ce86611bea565b6060820152604051916116d983611bcf565b600183526020830152604082015261201a565b6020906116f76122e5565b828289010152016116a8565b346101cc575f3660031901126101cc576020600454604051908152f35b5f3660031901126101cc5763389a75e1600c52335f525f6020600c2055337ffa7b8eab7da67f412cc9575ed43464468f9bfbae89d1675917346ca6d8fe3c925f80a2005b346101cc5760203660031901126101cc576004356001600160401b0381116101cc57611794903690600401611e45565b61179d81612872565b6117a78251611b8a565b90549060031b1c036108105760c08101600181516117c481611ffc565b6117cd81611ffc565b14801561186a575b6107e457606060408301510151421061185b577ff8b9da109a8a429429945d6f1c38f3af7b160026a3e9200e7cebae483c6a8c6391600261060c925261181d6105f682612872565b6020810151516060820151610600916001600160a01b03167f0000000000000000000000000000000000000000000000000000000000000000612821565b639eafe1b760e01b5f5260045ffd5b506002815161187881611ffc565b61188181611ffc565b146117d5565b346101cc575f3660031901126101cc5760045480156118db575f60045560055461088591906001600160a01b03167f0000000000000000000000000000000000000000000000000000000000000000612821565b630c5214e560e31b5f5260045ffd5b346101cc575f3660031901126101cc5760206040517f00000000000000000000000000000000000000000000000000000000000000008152f35b346101cc575f3660031901126101cc576020600254604051908152f35b346101cc575f3660031901126101cc576040517f00000000000000000000000000000000000000000000000000000000000000006001600160a01b03168152602090f35b5f3660031901126101cc5763389a75e1600c52335f526202a30042016020600c2055337fdbf36a107da19e49527a7176a1babf963b4b0ff8cde35ee35d6cd8f1f9ac7e1d5f80a2005b346101cc5760403660031901126101cc576004356001600160401b0381116101cc57803603906101006003198301126101cc5760405191611a0e83611bcf565b816004013560038110156101cc57835260248201356001600160401b0381116101cc578201366023820112156101cc576004810135611a4c81611cae565b91611a5a6040519384611c8d565b818352602060046060828601940283010101903682116101cc57602401915b818310611afd57505050602084015260c0604319909101126101cc57611aca60405191611aa583611bea565b60448101358352606481013560208401526084810135604084015260a4369101611cc5565b60608201526040820152602435906001600160401b0382116101cc57611af7610885923690600401611d05565b9161201a565b6060833603126101cc576020606091604051611b1881611bcf565b85358152828601358382015260408601356040820152815201920191611a79565b346101cc5760203660031901126101cc576004356003548110156101cc576108486020915b600354811015611b765760035f5260205f2001905f90565b634e487b7160e01b5f52603260045260245ffd5b600654811015611b765760065f5260205f2001905f90565b600254811015611b765760025f5260205f2001905f90565b8054821015611b76575f5260205f2001905f90565b606081019081106001600160401b0382111761061157604052565b608081019081106001600160401b0382111761061157604052565b60e081019081106001600160401b0382111761061157604052565b60c081019081106001600160401b0382111761061157604052565b6101a081019081106001600160401b0382111761061157604052565b60a081019081106001600160401b0382111761061157604052565b604081019081106001600160401b0382111761061157604052565b90601f801991011681019081106001600160401b0382111761061157604052565b6001600160401b0381116106115760051b60200190565b91908260609103126101cc57604051611cdd81611bcf565b809280358252602081013563ffffffff811681036101cc576020830152604090810135910152565b9181601f840112156101cc578235916001600160401b0383116101cc57602083818601950101116101cc57565b600435906001600160a01b03821682036101cc57565b35906001600160a01b03821682036101cc57565b9291926001600160401b0382116106115760405191611d85601f8201601f191660200184611c8d565b8294818452818301116101cc578281602093845f960137010152565b9080601f830112156101cc57816020611dbc93359101611d5c565b90565b359060ff821682036101cc57565b919060e0838203126101cc5760405190611de682611c57565b8193611df181611d48565b83526020810135916001600160401b0383116101cc57608082611e1a838396611e409601611da1565b602087015260408101356040870152611e3560608201611dbf565b606087015201611cc5565b910152565b91908281039261016084126101cc5760405191611e6183611c05565b82948235845260208301356001600160401b0381116101cc5760a092611e88918501611dcd565b6020850152603f1901126101cc5761014090604051611ea681611c57565b60408201358152606082013560208201526080820135604082015260a08201356060820152611ed760c08301611d48565b6080820152604084015260e08101356060840152610100810135608084015261012081013560a084015201359060038210156101cc5760c00152565b9181601f840112156101cc578235916001600160401b0383116101cc576020808501948460051b0101116101cc57565b805180835260209291819084018484015e5f828201840152601f01601f1916010190565b929190611f7381611cae565b93611f816040519586611c8d565b602085838152019160051b81019283116101cc57905b828210611fa357505050565b8135815260209182019101611f97565b9080601f830112156101cc57816020611dbc93359101611f67565b90604051611fdb81611bcf565b6040600282948054845263ffffffff60018201541660208501520154910152565b6003111561200657565b634e487b7160e01b5f52602160045260245ffd5b9060018060a01b037f00000000000000000000000000000000000000000000000000000000000000001660405192602080850152836101408101825161205f81611ffc565b604083015260208301519061010060608401528151809152602061016084019201905f5b818110612186575050506120db606060406120e995015180516080860152602081015160a0860152604081015160c0860152015160e0840190604080918051845263ffffffff60208201511660208501520151910152565b03601f198101855284611c8d565b803b156101cc5761214460205f9486946040519788968795869463020a49e360e51b86527f00000000000000000000000000000000000000000000000000000000000000006004870152606060248701526064860190611f43565b84810360031901604486015281815292858401378181018401889052601f01601f1916010301915afa80156107ca5761217a5750565b5f61218491611c8d565b565b919493509160206060600192604088518051835284810151858401520151604082015201950191019187939492612083565b602081528151602082015261016060c060208401519382604085015260018060a01b038551166101808501526122466080612204602088015160e06101a0890152610260880190611f43565b6040808901516101c0890152606089015160ff166101e089015291909701518051610200880152602081015163ffffffff166102208801520151610240860152565b60408101518051606086015260208101516080860152604081015160a0860152606081015183860152608060018060a01b039101511660e08501526060810151610100850152608081015161012085015260a08101516101408501520151916122ae83611ffc565b015290565b903590601e19813603018212156101cc57018035906001600160401b0382116101cc576020019181360383136101cc57565b604051906122f282611bcf565b5f6040838281528260208201520152565b60a09080518352602081015160208401526040810151604084015261234a60608201516060850190604080918051845263ffffffff60208201511660208501520151910152565b6001600160401b0360808201511660c084015201519060028210156120065760e00152565b90602080835192838152019201905f5b81811061238c5750505090565b9091926020610100826123a26001948851612303565b01940192910161237f565b356001600160401b03811681036101cc5790565b35906001600160401b03821682036101cc57565b91906101a0838203126101cc57604051906123ef82611c3b565b819380358352612401602082016123c1565b6020840152612412604082016123c1565b6040840152606081013560608401526080810135608084015261243760a082016123c1565b60a084015260c08101356001600160401b0381116101cc576101809261245e918301611da1565b60c084015261246f60e08201611d48565b60e08401526124816101008201611d48565b6101008401526101208101356101208401526124a06101408201611dbf565b6101408401526124b361016082016123c1565b61016084015201359060038210156101cc576101800152565b356001600160a01b03811681036101cc5790565b919082018092116106b357565b90815181526001600160401b0360208301511660208201526001600160401b03604083015116604082015260608201516060820152608082015160808201526001600160401b0360a08301511660a08201526101808061255e60c08501516101a060c08601526101a0850190611f43565b9360018060a01b0360e08201511660e085015260018060a01b036101008201511661010085015261012081015161012085015260ff610140820151166101408501526001600160401b03610160820151166101608501520151916122ae83611ffc565b9063ffffffff6125f483516020850194604084875116910151919091606092604051928352602083015260408201522090565b92511692600163ffffffff61261c5f545f52600160205263ffffffff600260405f2001541690565b16019163ffffffff83116106b357612636945f5494612cc4565b1561263d57565b632814065160e01b5f5260045ffd5b9061265682611cae565b6126636040519182611c8d565b8281528092612674601f1991611cae565b01905f5b82811061268457505050565b60209060405161269381611c20565b5f81525f838201525f60408201526126a96122e5565b60608201525f60808201525f60a082015282828501015201612678565b604051906126d382611c3b565b5f610180838281528260208201528260408201528260608201528260808201528260a0820152606060c08201528260e0820152826101008201528261012082015282610140820152826101608201520152565b9190811015611b765760051b8101359061017e19813603018212156101cc570190565b90359061019e19813603018212156101cc570190565b903590601e19813603018212156101cc57018035906001600160401b0382116101cc57602001918160051b360383136101cc57565b3560ff811681036101cc5790565b8051821015611b765760209160051b010190565b919091610100818403126101cc5760e0604051916127d383611c20565b6127f9839582358552602083013560208601526040830135604086015260608301611cc5565b606084015261280a60c082016123c1565b608084015201359060028210156101cc5760a00152565b919060145260345263a9059cbb60601b5f5260205f6044601082855af1908160015f51141615612854575b50505f603452565b3b153d171015612865575f8061284c565b6390b8ec185f526004601cfd5b604051612895816128876020820194856121b8565b03601f198101835282611c8d565b51902090565b9190915f548084146129a957815f52600160205260405f206128d46001604051926128c584611c72565b60ff8154161515845201611fce565b6020820152511561299a575f526001602052600360405f2001546040830151111561298b577f4ecbd24cd7522746649cae9ac63fd99619cc85837ae3447a114bbbc3a80434969260409260038480519261292d84611c72565b6001845260208401908152845f526001602052815f209351151560ff8019865416911617845551805160018501556002840163ffffffff60208301511663ffffffff198254161790550151910155805f5582519182526020820152a1565b6307800bf560e21b5f5260045ffd5b63e1965c6560e01b5f5260045ffd5b50505050565b9192908315612c02576129c184611cae565b916129cf6040519384611c8d565b848352601f196129de86611cae565b015f5b818110612beb57505082906129f58661264c565b91600354915f5b88811015612be057612a0e81856124e0565b8160051b87013560de19883603018112156101cc57870160208101896001600160401b03612ad8610160610d30612a48610d548789612749565b95612a7f8a60408a0197604051612a5e81611bcf565b8b358152893560208201528a6040820152612a7983836127a2565b526127a2565b50612ac78882612a9260a083018361275f565b612ab2610140610dd6612aaa60c0889698018661275f565b969095612749565b9360ff612abf368e611cc5565b951694612d90565b612ad18189612749565b3597612749565b1663ffffffff8d16036001600160401b0381116106b3576001600160401b03166085026001600160401b0381169081036106b35761e3b3016001600160401b0381116106b3576001600160401b036103e88161012c9316041601916001600160401b0383116106b3576001600160401b03612b5881612b7a9516426124e0565b169360405195612b6787611c20565b8652602086015260408501523690611cc5565b606083015260808201525f60a0820152612b9482876127a2565b52612b9f81866127a2565b50612bb3612bad82876127a2565b51612e25565b90600354600160401b811015610611576001926105ba8285612bda94016003556003611bba565b016129fc565b509450945050935050565b602090612bf66122e5565b828288010152016129e1565b630b35156b60e31b5f5260045ffd5b638b78c6d819543303612c2057565b6382b429005f526004601cfd5b60018060a01b031680638b78c6d819547f8be0079c531659141344cd1fd0a4f28419497f9722a3daafe3b4186f6b6457e05f80a3638b78c6d81955565b612c88612c7f612c7a36846123d5565b612ca7565b91356002611bba565b90549060031b1c8103612c985790565b635dcaf2d760e01b5f5260045ffd5b6040516128958161288760208201946020865260408301906124ed565b939591929490955f945b8451861015612d2057600188811c98811603612d0357612cee86866127a2565b515f52602052600160405f20955b0194612cce565b612d0d86866127a2565b51905f52602052600160405f2095612cfc565b95929650925092505f935f5b8251811015612d865781612d4082856127a2565b5114612d4e57600101612d2c565b50509091925060015b15612d7f57612d6590612e54565b908115612d7f5763ffffffff165f5260205260405f201490565b5050505f90565b5050909192612d57565b94939192612da6612dae92612db5953691611f67565b923691611f67565b90846125c1565b63ffffffff6020612dd95f545f52600160205263ffffffff600260405f2001541690565b930151169063ffffffff5f1991160163ffffffff81116106b35763ffffffff160163ffffffff81116106b35763ffffffff809116911610612e1657565b630a47293560e31b5f5260045ffd5b604051612e36602082018093612303565b610100815261289561012082611c8d565b919082039182116106b357565b80518015612eaa575f1981019081116106b357612e7190826127a2565b519080515f1981019081116106b357805b612e8b57505090565b5f190191612e9983836127a2565b515f526020528160405f2092612e82565b50505f90565b81810392915f1380158285131691841216176106b357565b909193929382811015612f405790612ee381612ee993612e47565b92612e47565b908380841215612f2d57612f0593612f0091612eb0565b612f48565b600160ff1b81146106b3575f03905b5f82820192831291129080158216911516176106b35790565b612f0090612f3a94612eb0565b90612f14565b505050905090565b8181029181159183041417820215612f5e570490565b63ad251c275f526004601cfd5b80516016811461316957601781146130f2576019811461302157602214612f9157505f90565b805115611b76576020810180516001600160f81b031916801561300357605160f81b14612fbe5750505f90565b815115611b7657516001600160f81b031916605160f81b149081612fe0575090565b8091505160011015611b7657602101516001600160f81b031916600160fd1b1490565b50815115611b7657516001600160f81b031916159081612fe0575090565b50805115611b765760208101516001600160f81b031916603b60f91b1490816130cb575b816130a4575b8161307d575b8161305a575090565b8091505160181015611b7657603801516001600160f81b031916602b60fa1b1490565b8091505160171015611b765760378101516001600160f81b031916601160fb1b1490613051565b8091505160021015611b765760228101516001600160f81b031916600560fa1b149061304b565b8091505160011015611b765760218101516001600160f81b03191660a960f81b1490613045565b50805115611b765760208101516001600160f81b03191660a960f81b149081613142575b8161311f575090565b8091505160161015611b7657603601516001600160f81b031916608760f81b1490565b8091505160011015611b765760218101516001600160f81b031916600560fa1b1490613116565b15611b765760208101516001600160f81b031916159081613188575090565b8091505160011015611b7657602101516001600160f81b031916600560fa1b149056fea2646970667358221220dea8de4add51d218a77fb7f38ecb45063484ec93520d5f8241ad621e1d73dd5e64736f6c634300081c0033","linkReferences":{}},"methodIdentifiers":{"accumulatedFees()":"587f5ed7","adminSetFeeRouter(address)":"c286befa","adminSetTakerFeeBips(uint16)":"e58e0fe3","auctionHashes(uint256)":"f3bbbeef","cancelOwnershipHandover()":"54d1f13d","checkpoints(bytes32)":"eb5e91ff","circuitVerificationKey()":"3d7b22b3","claimAuction((uint256,(address,bytes,bytes32,uint8,(bytes32,uint32,uint256)),(uint256,uint256,uint256,uint256,address),uint256,uint256,uint256,uint8),bytes,bytes32[],bytes32[])":"fb9f0532","completeOwnershipHandover(address)":"f04e283e","eip712Domain()":"84b0196e","feeRouter()":"f29ebf61","getTotalOrders()":"375f16a7","getTotalPayments()":"708f29a6","lightClientHeight()":"cc38cd7d","mmrRoot()":"d21ddc61","orderHashes(uint256)":"df69558c","owner()":"8da5cb5b","ownershipHandoverExpiresAt(address)":"fee81cf4","paymentHashes(uint256)":"1127a80b","refundAuction((uint256,(address,bytes,bytes32,uint8,(bytes32,uint32,uint256)),(uint256,uint256,uint256,uint256,address),uint256,uint256,uint256,uint8))":"481c85f1","refundOrder((uint256,uint64,uint64,uint256,uint256,uint64,bytes,address,address,bytes32,uint8,uint64,uint8))":"7e025807","renounceOwnership()":"715018a6","requestOwnershipHandover()":"25692962","settleOrders(((uint256,uint64,uint64,uint256,uint256,uint64,bytes,address,address,bytes32,uint8,uint64,uint8),(uint256,uint256,bytes32,(bytes32,uint32,uint256),uint64,uint8),bytes32[],bytes32[],uint32)[])":"a743e65e","startAuction(uint256,(uint256,uint256,uint256,uint256,address),(address,bytes,bytes32,uint8,(bytes32,uint32,uint256)))":"7dd9cb31","submitPaymentProofs((bytes32,(uint256,uint64,uint64,uint256,uint256,uint64,bytes,address,address,bytes32,uint8,uint64,uint8),(bytes32,uint32,uint256),bytes32[],bytes32[])[],(bytes32,bytes32,bytes,(bytes32,uint32,uint256)),bytes)":"66e143ca","submitPaymentProofs((bytes32,(uint256,uint64,uint64,uint256,uint256,uint64,bytes,address,address,bytes32,uint8,uint64,uint8),(bytes32,uint32,uint256),bytes32[],bytes32[])[],bytes)":"d1a897a7","syntheticBitcoin()":"a0d9e241","takerFeeBips()":"9a73f4f5","transferOwnership(address)":"f2fde38b","updateLightClient((bytes32,bytes32,bytes,(bytes32,uint32,uint256)),bytes)":"592b6649","verifier()":"2b7ac3f3","verifyBlockInclusion((bytes32,uint32,uint256),bytes32[],bytes32[])":"a24462ea","verifyProof((uint8,(bytes32,bytes32,bytes32)[],(bytes32,bytes32,bytes32,(bytes32,uint32,uint256))),bytes)":"1ea7ec04","withdrawFees()":"476343ee"},"storageLayout":{"storage":[{"astId":44670,"contract":"src/BTCDutchAuctionHouse.sol:BTCDutchAuctionHouse","label":"mmrRoot","offset":0,"slot":"0","type":"t_bytes32"},{"astId":44675,"contract":"src/BTCDutchAuctionHouse.sol:BTCDutchAuctionHouse","label":"checkpoints","offset":0,"slot":"1","type":"t_mapping(t_bytes32,t_struct(BitcoinCheckpoint)46179_storage)"},{"astId":45082,"contract":"src/BTCDutchAuctionHouse.sol:BTCDutchAuctionHouse","label":"orderHashes","offset":0,"slot":"2","type":"t_array(t_bytes32)dyn_storage"},{"astId":45085,"contract":"src/BTCDutchAuctionHouse.sol:BTCDutchAuctionHouse","label":"paymentHashes","offset":0,"slot":"3","type":"t_array(t_bytes32)dyn_storage"},{"astId":45087,"contract":"src/BTCDutchAuctionHouse.sol:BTCDutchAuctionHouse","label":"accumulatedFees","offset":0,"slot":"4","type":"t_uint256"},{"astId":45089,"contract":"src/BTCDutchAuctionHouse.sol:BTCDutchAuctionHouse","label":"feeRouter","offset":0,"slot":"5","type":"t_address"},{"astId":45091,"contract":"src/BTCDutchAuctionHouse.sol:BTCDutchAuctionHouse","label":"takerFeeBips","offset":20,"slot":"5","type":"t_uint16"},{"astId":44329,"contract":"src/BTCDutchAuctionHouse.sol:BTCDutchAuctionHouse","label":"auctionHashes","offset":0,"slot":"6","type":"t_array(t_bytes32)dyn_storage"}],"types":{"t_address":{"encoding":"inplace","label":"address","numberOfBytes":"20"},"t_array(t_bytes32)dyn_storage":{"encoding":"dynamic_array","label":"bytes32[]","numberOfBytes":"32","base":"t_bytes32"},"t_bool":{"encoding":"inplace","label":"bool","numberOfBytes":"1"},"t_bytes32":{"encoding":"inplace","label":"bytes32","numberOfBytes":"32"},"t_mapping(t_bytes32,t_struct(BitcoinCheckpoint)46179_storage)":{"encoding":"mapping","key":"t_bytes32","label":"mapping(bytes32 => struct BitcoinCheckpoint)","numberOfBytes":"32","value":"t_struct(BitcoinCheckpoint)46179_storage"},"t_struct(BitcoinCheckpoint)46179_storage":{"encoding":"inplace","label":"struct BitcoinCheckpoint","numberOfBytes":"128","members":[{"astId":46175,"contract":"src/BTCDutchAuctionHouse.sol:BTCDutchAuctionHouse","label":"established","offset":0,"slot":"0","type":"t_bool"},{"astId":46178,"contract":"src/BTCDutchAuctionHouse.sol:BTCDutchAuctionHouse","label":"tipBlockLeaf","offset":0,"slot":"1","type":"t_struct(BlockLeaf)46173_storage"}]},"t_struct(BlockLeaf)46173_storage":{"encoding":"inplace","label":"struct BlockLeaf","numberOfBytes":"96","members":[{"astId":46168,"contract":"src/BTCDutchAuctionHouse.sol:BTCDutchAuctionHouse","label":"blockHash","offset":0,"slot":"0","type":"t_bytes32"},{"astId":46170,"contract":"src/BTCDutchAuctionHouse.sol:BTCDutchAuctionHouse","label":"height","offset":0,"slot":"1","type":"t_uint32"},{"astId":46172,"contract":"src/BTCDutchAuctionHouse.sol:BTCDutchAuctionHouse","label":"cumulativeChainwork","offset":0,"slot":"2","type":"t_uint256"}]},"t_uint16":{"encoding":"inplace","label":"uint16","numberOfBytes":"2"},"t_uint256":{"encoding":"inplace","label":"uint256","numberOfBytes":"32"},"t_uint32":{"encoding":"inplace","label":"uint32","numberOfBytes":"4"}}},"id":38}