{"abi":[{"type":"constructor","inputs":[{"name":"_mmrRoot","type":"bytes32","internalType":"bytes32"},{"name":"_syntheticBitcoin","type":"address","internalType":"address"},{"name":"_circuitVerificationKey","type":"bytes32","internalType":"bytes32"},{"name":"_verifier","type":"address","internalType":"address"},{"name":"_feeRouter","type":"address","internalType":"address"},{"name":"_takerFeeBips","type":"uint16","internalType":"uint16"},{"name":"_tipBlockLeaf","type":"tuple","internalType":"struct BlockLeaf","components":[{"name":"blockHash","type":"bytes32","internalType":"bytes32"},{"name":"height","type":"uint32","internalType":"uint32"},{"name":"cumulativeChainwork","type":"uint256","internalType":"uint256"}]}],"stateMutability":"nonpayable"},{"type":"function","name":"accumulatedFees","inputs":[],"outputs":[{"name":"","type":"uint256","internalType":"uint256"}],"stateMutability":"view"},{"type":"function","name":"adminSetFeeRouter","inputs":[{"name":"_feeRouter","type":"address","internalType":"address"}],"outputs":[],"stateMutability":"nonpayable"},{"type":"function","name":"adminSetTakerFeeBips","inputs":[{"name":"_takerFeeBips","type":"uint16","internalType":"uint16"}],"outputs":[],"stateMutability":"nonpayable"},{"type":"function","name":"auctionHashes","inputs":[{"name":"","type":"uint256","internalType":"uint256"}],"outputs":[{"name":"","type":"bytes32","internalType":"bytes32"}],"stateMutability":"view"},{"type":"function","name":"cancelOwnershipHandover","inputs":[],"outputs":[],"stateMutability":"payable"},{"type":"function","name":"checkpoints","inputs":[{"name":"","type":"bytes32","internalType":"bytes32"}],"outputs":[{"name":"blockHash","type":"bytes32","internalType":"bytes32"},{"name":"height","type":"uint32","internalType":"uint32"},{"name":"cumulativeChainwork","type":"uint256","internalType":"uint256"}],"stateMutability":"view"},{"type":"function","name":"circuitVerificationKey","inputs":[],"outputs":[{"name":"","type":"bytes32","internalType":"bytes32"}],"stateMutability":"view"},{"type":"function","name":"claimAuction","inputs":[{"name":"auction","type":"tuple","internalType":"struct DutchAuction","components":[{"name":"index","type":"uint256","internalType":"uint256"},{"name":"baseCreateOrderParams","type":"tuple","internalType":"struct BaseCreateOrderParams","components":[{"name":"owner","type":"address","internalType":"address"},{"name":"bitcoinScriptPubKey","type":"bytes","internalType":"bytes"},{"name":"salt","type":"bytes32","internalType":"bytes32"},{"name":"confirmationBlocks","type":"uint8","internalType":"uint8"},{"name":"safeBlockLeaf","type":"tuple","internalType":"struct BlockLeaf","components":[{"name":"blockHash","type":"bytes32","internalType":"bytes32"},{"name":"height","type":"uint32","internalType":"uint32"},{"name":"cumulativeChainwork","type":"uint256","internalType":"uint256"}]}]},{"name":"dutchAuctionParams","type":"tuple","internalType":"struct DutchAuctionParams","components":[{"name":"startBtcOut","type":"uint256","internalType":"uint256"},{"name":"endBtcOut","type":"uint256","internalType":"uint256"},{"name":"decayBlocks","type":"uint256","internalType":"uint256"},{"name":"deadline","type":"uint256","internalType":"uint256"},{"name":"fillerWhitelistContract","type":"address","internalType":"address"}]},{"name":"depositAmount","type":"uint256","internalType":"uint256"},{"name":"startBlock","type":"uint256","internalType":"uint256"},{"name":"startTimestamp","type":"uint256","internalType":"uint256"},{"name":"state","type":"uint8","internalType":"enum DutchAuctionState"}]},{"name":"fillerAuthData","type":"bytes","internalType":"bytes"},{"name":"safeBlockSiblings","type":"bytes32[]","internalType":"bytes32[]"},{"name":"safeBlockPeaks","type":"bytes32[]","internalType":"bytes32[]"}],"outputs":[],"stateMutability":"nonpayable"},{"type":"function","name":"completeOwnershipHandover","inputs":[{"name":"pendingOwner","type":"address","internalType":"address"}],"outputs":[],"stateMutability":"payable"},{"type":"function","name":"eip712Domain","inputs":[],"outputs":[{"name":"fields","type":"bytes1","internalType":"bytes1"},{"name":"name","type":"string","internalType":"string"},{"name":"version","type":"string","internalType":"string"},{"name":"chainId","type":"uint256","internalType":"uint256"},{"name":"verifyingContract","type":"address","internalType":"address"},{"name":"salt","type":"bytes32","internalType":"bytes32"},{"name":"extensions","type":"uint256[]","internalType":"uint256[]"}],"stateMutability":"view"},{"type":"function","name":"feeRouter","inputs":[],"outputs":[{"name":"","type":"address","internalType":"address"}],"stateMutability":"view"},{"type":"function","name":"getTotalOrders","inputs":[],"outputs":[{"name":"","type":"uint256","internalType":"uint256"}],"stateMutability":"view"},{"type":"function","name":"getTotalPayments","inputs":[],"outputs":[{"name":"","type":"uint256","internalType":"uint256"}],"stateMutability":"view"},{"type":"function","name":"lightClientHeight","inputs":[],"outputs":[{"name":"","type":"uint32","internalType":"uint32"}],"stateMutability":"view"},{"type":"function","name":"mmrRoot","inputs":[],"outputs":[{"name":"","type":"bytes32","internalType":"bytes32"}],"stateMutability":"view"},{"type":"function","name":"orderHashes","inputs":[{"name":"","type":"uint256","internalType":"uint256"}],"outputs":[{"name":"","type":"bytes32","internalType":"bytes32"}],"stateMutability":"view"},{"type":"function","name":"owner","inputs":[],"outputs":[{"name":"result","type":"address","internalType":"address"}],"stateMutability":"view"},{"type":"function","name":"ownershipHandoverExpiresAt","inputs":[{"name":"pendingOwner","type":"address","internalType":"address"}],"outputs":[{"name":"result","type":"uint256","internalType":"uint256"}],"stateMutability":"view"},{"type":"function","name":"paymentHashes","inputs":[{"name":"","type":"uint256","internalType":"uint256"}],"outputs":[{"name":"","type":"bytes32","internalType":"bytes32"}],"stateMutability":"view"},{"type":"function","name":"refundAuction","inputs":[{"name":"auction","type":"tuple","internalType":"struct DutchAuction","components":[{"name":"index","type":"uint256","internalType":"uint256"},{"name":"baseCreateOrderParams","type":"tuple","internalType":"struct BaseCreateOrderParams","components":[{"name":"owner","type":"address","internalType":"address"},{"name":"bitcoinScriptPubKey","type":"bytes","internalType":"bytes"},{"name":"salt","type":"bytes32","internalType":"bytes32"},{"name":"confirmationBlocks","type":"uint8","internalType":"uint8"},{"name":"safeBlockLeaf","type":"tuple","internalType":"struct BlockLeaf","components":[{"name":"blockHash","type":"bytes32","internalType":"bytes32"},{"name":"height","type":"uint32","internalType":"uint32"},{"name":"cumulativeChainwork","type":"uint256","internalType":"uint256"}]}]},{"name":"dutchAuctionParams","type":"tuple","internalType":"struct DutchAuctionParams","components":[{"name":"startBtcOut","type":"uint256","internalType":"uint256"},{"name":"endBtcOut","type":"uint256","internalType":"uint256"},{"name":"decayBlocks","type":"uint256","internalType":"uint256"},{"name":"deadline","type":"uint256","internalType":"uint256"},{"name":"fillerWhitelistContract","type":"address","internalType":"address"}]},{"name":"depositAmount","type":"uint256","internalType":"uint256"},{"name":"startBlock","type":"uint256","internalType":"uint256"},{"name":"startTimestamp","type":"uint256","internalType":"uint256"},{"name":"state","type":"uint8","internalType":"enum DutchAuctionState"}]}],"outputs":[],"stateMutability":"nonpayable"},{"type":"function","name":"refundOrder","inputs":[{"name":"order","type":"tuple","internalType":"struct Order","components":[{"name":"index","type":"uint256","internalType":"uint256"},{"name":"timestamp","type":"uint64","internalType":"uint64"},{"name":"unlockTimestamp","type":"uint64","internalType":"uint64"},{"name":"amount","type":"uint256","internalType":"uint256"},{"name":"takerFee","type":"uint256","internalType":"uint256"},{"name":"expectedSats","type":"uint64","internalType":"uint64"},{"name":"bitcoinScriptPubKey","type":"bytes","internalType":"bytes"},{"name":"designatedReceiver","type":"address","internalType":"address"},{"name":"owner","type":"address","internalType":"address"},{"name":"salt","type":"bytes32","internalType":"bytes32"},{"name":"confirmationBlocks","type":"uint8","internalType":"uint8"},{"name":"safeBitcoinBlockHeight","type":"uint64","internalType":"uint64"},{"name":"state","type":"uint8","internalType":"enum OrderState"}]}],"outputs":[],"stateMutability":"nonpayable"},{"type":"function","name":"renounceOwnership","inputs":[],"outputs":[],"stateMutability":"payable"},{"type":"function","name":"requestOwnershipHandover","inputs":[],"outputs":[],"stateMutability":"payable"},{"type":"function","name":"settleOrders","inputs":[{"name":"settleOrderParams","type":"tuple[]","internalType":"struct SettleOrderParams[]","components":[{"name":"order","type":"tuple","internalType":"struct Order","components":[{"name":"index","type":"uint256","internalType":"uint256"},{"name":"timestamp","type":"uint64","internalType":"uint64"},{"name":"unlockTimestamp","type":"uint64","internalType":"uint64"},{"name":"amount","type":"uint256","internalType":"uint256"},{"name":"takerFee","type":"uint256","internalType":"uint256"},{"name":"expectedSats","type":"uint64","internalType":"uint64"},{"name":"bitcoinScriptPubKey","type":"bytes","internalType":"bytes"},{"name":"designatedReceiver","type":"address","internalType":"address"},{"name":"owner","type":"address","internalType":"address"},{"name":"salt","type":"bytes32","internalType":"bytes32"},{"name":"confirmationBlocks","type":"uint8","internalType":"uint8"},{"name":"safeBitcoinBlockHeight","type":"uint64","internalType":"uint64"},{"name":"state","type":"uint8","internalType":"enum OrderState"}]},{"name":"payment","type":"tuple","internalType":"struct Payment","components":[{"name":"index","type":"uint256","internalType":"uint256"},{"name":"orderIndex","type":"uint256","internalType":"uint256"},{"name":"orderHash","type":"bytes32","internalType":"bytes32"},{"name":"paymentBitcoinBlockLeaf","type":"tuple","internalType":"struct BlockLeaf","components":[{"name":"blockHash","type":"bytes32","internalType":"bytes32"},{"name":"height","type":"uint32","internalType":"uint32"},{"name":"cumulativeChainwork","type":"uint256","internalType":"uint256"}]},{"name":"challengeExpiryTimestamp","type":"uint64","internalType":"uint64"},{"name":"state","type":"uint8","internalType":"enum PaymentState"}]},{"name":"paymentBitcoinBlockSiblings","type":"bytes32[]","internalType":"bytes32[]"},{"name":"paymentBitcoinBlockPeaks","type":"bytes32[]","internalType":"bytes32[]"},{"name":"tipBlockHeight","type":"uint32","internalType":"uint32"}]}],"outputs":[],"stateMutability":"nonpayable"},{"type":"function","name":"startAuction","inputs":[{"name":"depositAmount","type":"uint256","internalType":"uint256"},{"name":"auctionParams","type":"tuple","internalType":"struct DutchAuctionParams","components":[{"name":"startBtcOut","type":"uint256","internalType":"uint256"},{"name":"endBtcOut","type":"uint256","internalType":"uint256"},{"name":"decayBlocks","type":"uint256","internalType":"uint256"},{"name":"deadline","type":"uint256","internalType":"uint256"},{"name":"fillerWhitelistContract","type":"address","internalType":"address"}]},{"name":"baseCreateOrderParams","type":"tuple","internalType":"struct BaseCreateOrderParams","components":[{"name":"owner","type":"address","internalType":"address"},{"name":"bitcoinScriptPubKey","type":"bytes","internalType":"bytes"},{"name":"salt","type":"bytes32","internalType":"bytes32"},{"name":"confirmationBlocks","type":"uint8","internalType":"uint8"},{"name":"safeBlockLeaf","type":"tuple","internalType":"struct BlockLeaf","components":[{"name":"blockHash","type":"bytes32","internalType":"bytes32"},{"name":"height","type":"uint32","internalType":"uint32"},{"name":"cumulativeChainwork","type":"uint256","internalType":"uint256"}]}]}],"outputs":[],"stateMutability":"nonpayable"},{"type":"function","name":"submitPaymentProofs","inputs":[{"name":"paymentParams","type":"tuple[]","internalType":"struct SubmitPaymentProofParams[]","components":[{"name":"paymentBitcoinTxid","type":"bytes32","internalType":"bytes32"},{"name":"order","type":"tuple","internalType":"struct Order","components":[{"name":"index","type":"uint256","internalType":"uint256"},{"name":"timestamp","type":"uint64","internalType":"uint64"},{"name":"unlockTimestamp","type":"uint64","internalType":"uint64"},{"name":"amount","type":"uint256","internalType":"uint256"},{"name":"takerFee","type":"uint256","internalType":"uint256"},{"name":"expectedSats","type":"uint64","internalType":"uint64"},{"name":"bitcoinScriptPubKey","type":"bytes","internalType":"bytes"},{"name":"designatedReceiver","type":"address","internalType":"address"},{"name":"owner","type":"address","internalType":"address"},{"name":"salt","type":"bytes32","internalType":"bytes32"},{"name":"confirmationBlocks","type":"uint8","internalType":"uint8"},{"name":"safeBitcoinBlockHeight","type":"uint64","internalType":"uint64"},{"name":"state","type":"uint8","internalType":"enum OrderState"}]},{"name":"paymentBitcoinBlockLeaf","type":"tuple","internalType":"struct BlockLeaf","components":[{"name":"blockHash","type":"bytes32","internalType":"bytes32"},{"name":"height","type":"uint32","internalType":"uint32"},{"name":"cumulativeChainwork","type":"uint256","internalType":"uint256"}]},{"name":"paymentBitcoinBlockSiblings","type":"bytes32[]","internalType":"bytes32[]"},{"name":"paymentBitcoinBlockPeaks","type":"bytes32[]","internalType":"bytes32[]"}]},{"name":"blockProofParams","type":"tuple","internalType":"struct BlockProofParams","components":[{"name":"priorMmrRoot","type":"bytes32","internalType":"bytes32"},{"name":"newMmrRoot","type":"bytes32","internalType":"bytes32"},{"name":"compressedBlockLeaves","type":"bytes","internalType":"bytes"},{"name":"tipBlockLeaf","type":"tuple","internalType":"struct BlockLeaf","components":[{"name":"blockHash","type":"bytes32","internalType":"bytes32"},{"name":"height","type":"uint32","internalType":"uint32"},{"name":"cumulativeChainwork","type":"uint256","internalType":"uint256"}]}]},{"name":"proof","type":"bytes","internalType":"bytes"}],"outputs":[],"stateMutability":"nonpayable"},{"type":"function","name":"submitPaymentProofsOnly","inputs":[{"name":"paymentParams","type":"tuple[]","internalType":"struct SubmitPaymentProofParams[]","components":[{"name":"paymentBitcoinTxid","type":"bytes32","internalType":"bytes32"},{"name":"order","type":"tuple","internalType":"struct Order","components":[{"name":"index","type":"uint256","internalType":"uint256"},{"name":"timestamp","type":"uint64","internalType":"uint64"},{"name":"unlockTimestamp","type":"uint64","internalType":"uint64"},{"name":"amount","type":"uint256","internalType":"uint256"},{"name":"takerFee","type":"uint256","internalType":"uint256"},{"name":"expectedSats","type":"uint64","internalType":"uint64"},{"name":"bitcoinScriptPubKey","type":"bytes","internalType":"bytes"},{"name":"designatedReceiver","type":"address","internalType":"address"},{"name":"owner","type":"address","internalType":"address"},{"name":"salt","type":"bytes32","internalType":"bytes32"},{"name":"confirmationBlocks","type":"uint8","internalType":"uint8"},{"name":"safeBitcoinBlockHeight","type":"uint64","internalType":"uint64"},{"name":"state","type":"uint8","internalType":"enum OrderState"}]},{"name":"paymentBitcoinBlockLeaf","type":"tuple","internalType":"struct BlockLeaf","components":[{"name":"blockHash","type":"bytes32","internalType":"bytes32"},{"name":"height","type":"uint32","internalType":"uint32"},{"name":"cumulativeChainwork","type":"uint256","internalType":"uint256"}]},{"name":"paymentBitcoinBlockSiblings","type":"bytes32[]","internalType":"bytes32[]"},{"name":"paymentBitcoinBlockPeaks","type":"bytes32[]","internalType":"bytes32[]"}]},{"name":"proof","type":"bytes","internalType":"bytes"}],"outputs":[],"stateMutability":"nonpayable"},{"type":"function","name":"syntheticBitcoin","inputs":[],"outputs":[{"name":"","type":"address","internalType":"address"}],"stateMutability":"view"},{"type":"function","name":"takerFeeBips","inputs":[],"outputs":[{"name":"","type":"uint16","internalType":"uint16"}],"stateMutability":"view"},{"type":"function","name":"transferOwnership","inputs":[{"name":"newOwner","type":"address","internalType":"address"}],"outputs":[],"stateMutability":"payable"},{"type":"function","name":"updateLightClient","inputs":[{"name":"blockProofParams","type":"tuple","internalType":"struct BlockProofParams","components":[{"name":"priorMmrRoot","type":"bytes32","internalType":"bytes32"},{"name":"newMmrRoot","type":"bytes32","internalType":"bytes32"},{"name":"compressedBlockLeaves","type":"bytes","internalType":"bytes"},{"name":"tipBlockLeaf","type":"tuple","internalType":"struct BlockLeaf","components":[{"name":"blockHash","type":"bytes32","internalType":"bytes32"},{"name":"height","type":"uint32","internalType":"uint32"},{"name":"cumulativeChainwork","type":"uint256","internalType":"uint256"}]}]},{"name":"proof","type":"bytes","internalType":"bytes"}],"outputs":[],"stateMutability":"nonpayable"},{"type":"function","name":"verifier","inputs":[],"outputs":[{"name":"","type":"address","internalType":"address"}],"stateMutability":"view"},{"type":"function","name":"verifyBlockInclusion","inputs":[{"name":"blockLeaf","type":"tuple","internalType":"struct BlockLeaf","components":[{"name":"blockHash","type":"bytes32","internalType":"bytes32"},{"name":"height","type":"uint32","internalType":"uint32"},{"name":"cumulativeChainwork","type":"uint256","internalType":"uint256"}]},{"name":"siblings","type":"bytes32[]","internalType":"bytes32[]"},{"name":"peaks","type":"bytes32[]","internalType":"bytes32[]"}],"outputs":[],"stateMutability":"view"},{"type":"function","name":"verifyProof","inputs":[{"name":"proofPublicInput","type":"tuple","internalType":"struct ProofPublicInput","components":[{"name":"proofType","type":"uint8","internalType":"enum ProofType"},{"name":"payments","type":"tuple[]","internalType":"struct PaymentPublicInput[]","components":[{"name":"paymentBitcoinTxid","type":"bytes32","internalType":"bytes32"},{"name":"paymentBitcoinBlockHash","type":"bytes32","internalType":"bytes32"},{"name":"orderHash","type":"bytes32","internalType":"bytes32"}]},{"name":"lightClient","type":"tuple","internalType":"struct LightClientPublicInput","components":[{"name":"priorMmrRoot","type":"bytes32","internalType":"bytes32"},{"name":"newMmrRoot","type":"bytes32","internalType":"bytes32"},{"name":"compressedLeavesHash","type":"bytes32","internalType":"bytes32"},{"name":"tipBlockLeaf","type":"tuple","internalType":"struct BlockLeaf","components":[{"name":"blockHash","type":"bytes32","internalType":"bytes32"},{"name":"height","type":"uint32","internalType":"uint32"},{"name":"cumulativeChainwork","type":"uint256","internalType":"uint256"}]}]}]},{"name":"proof","type":"bytes","internalType":"bytes"}],"outputs":[],"stateMutability":"view"},{"type":"function","name":"withdrawFees","inputs":[],"outputs":[],"stateMutability":"nonpayable"},{"type":"event","name":"AuctionUpdated","inputs":[{"name":"auction","type":"tuple","indexed":false,"internalType":"struct DutchAuction","components":[{"name":"index","type":"uint256","internalType":"uint256"},{"name":"baseCreateOrderParams","type":"tuple","internalType":"struct BaseCreateOrderParams","components":[{"name":"owner","type":"address","internalType":"address"},{"name":"bitcoinScriptPubKey","type":"bytes","internalType":"bytes"},{"name":"salt","type":"bytes32","internalType":"bytes32"},{"name":"confirmationBlocks","type":"uint8","internalType":"uint8"},{"name":"safeBlockLeaf","type":"tuple","internalType":"struct BlockLeaf","components":[{"name":"blockHash","type":"bytes32","internalType":"bytes32"},{"name":"height","type":"uint32","internalType":"uint32"},{"name":"cumulativeChainwork","type":"uint256","internalType":"uint256"}]}]},{"name":"dutchAuctionParams","type":"tuple","internalType":"struct DutchAuctionParams","components":[{"name":"startBtcOut","type":"uint256","internalType":"uint256"},{"name":"endBtcOut","type":"uint256","internalType":"uint256"},{"name":"decayBlocks","type":"uint256","internalType":"uint256"},{"name":"deadline","type":"uint256","internalType":"uint256"},{"name":"fillerWhitelistContract","type":"address","internalType":"address"}]},{"name":"depositAmount","type":"uint256","internalType":"uint256"},{"name":"startBlock","type":"uint256","internalType":"uint256"},{"name":"startTimestamp","type":"uint256","internalType":"uint256"},{"name":"state","type":"uint8","internalType":"enum DutchAuctionState"}]}],"anonymous":false},{"type":"event","name":"BitcoinLightClientUpdated","inputs":[{"name":"priorMmrRoot","type":"bytes32","indexed":false,"internalType":"bytes32"},{"name":"newMmrRoot","type":"bytes32","indexed":false,"internalType":"bytes32"}],"anonymous":false},{"type":"event","name":"OrderCreated","inputs":[{"name":"order","type":"tuple","indexed":false,"internalType":"struct Order","components":[{"name":"index","type":"uint256","internalType":"uint256"},{"name":"timestamp","type":"uint64","internalType":"uint64"},{"name":"unlockTimestamp","type":"uint64","internalType":"uint64"},{"name":"amount","type":"uint256","internalType":"uint256"},{"name":"takerFee","type":"uint256","internalType":"uint256"},{"name":"expectedSats","type":"uint64","internalType":"uint64"},{"name":"bitcoinScriptPubKey","type":"bytes","internalType":"bytes"},{"name":"designatedReceiver","type":"address","internalType":"address"},{"name":"owner","type":"address","internalType":"address"},{"name":"salt","type":"bytes32","internalType":"bytes32"},{"name":"confirmationBlocks","type":"uint8","internalType":"uint8"},{"name":"safeBitcoinBlockHeight","type":"uint64","internalType":"uint64"},{"name":"state","type":"uint8","internalType":"enum OrderState"}]}],"anonymous":false},{"type":"event","name":"OrderRefunded","inputs":[{"name":"order","type":"tuple","indexed":false,"internalType":"struct Order","components":[{"name":"index","type":"uint256","internalType":"uint256"},{"name":"timestamp","type":"uint64","internalType":"uint64"},{"name":"unlockTimestamp","type":"uint64","internalType":"uint64"},{"name":"amount","type":"uint256","internalType":"uint256"},{"name":"takerFee","type":"uint256","internalType":"uint256"},{"name":"expectedSats","type":"uint64","internalType":"uint64"},{"name":"bitcoinScriptPubKey","type":"bytes","internalType":"bytes"},{"name":"designatedReceiver","type":"address","internalType":"address"},{"name":"owner","type":"address","internalType":"address"},{"name":"salt","type":"bytes32","internalType":"bytes32"},{"name":"confirmationBlocks","type":"uint8","internalType":"uint8"},{"name":"safeBitcoinBlockHeight","type":"uint64","internalType":"uint64"},{"name":"state","type":"uint8","internalType":"enum OrderState"}]}],"anonymous":false},{"type":"event","name":"OrdersSettled","inputs":[{"name":"orders","type":"tuple[]","indexed":false,"internalType":"struct Order[]","components":[{"name":"index","type":"uint256","internalType":"uint256"},{"name":"timestamp","type":"uint64","internalType":"uint64"},{"name":"unlockTimestamp","type":"uint64","internalType":"uint64"},{"name":"amount","type":"uint256","internalType":"uint256"},{"name":"takerFee","type":"uint256","internalType":"uint256"},{"name":"expectedSats","type":"uint64","internalType":"uint64"},{"name":"bitcoinScriptPubKey","type":"bytes","internalType":"bytes"},{"name":"designatedReceiver","type":"address","internalType":"address"},{"name":"owner","type":"address","internalType":"address"},{"name":"salt","type":"bytes32","internalType":"bytes32"},{"name":"confirmationBlocks","type":"uint8","internalType":"uint8"},{"name":"safeBitcoinBlockHeight","type":"uint64","internalType":"uint64"},{"name":"state","type":"uint8","internalType":"enum OrderState"}]},{"name":"payments","type":"tuple[]","indexed":false,"internalType":"struct Payment[]","components":[{"name":"index","type":"uint256","internalType":"uint256"},{"name":"orderIndex","type":"uint256","internalType":"uint256"},{"name":"orderHash","type":"bytes32","internalType":"bytes32"},{"name":"paymentBitcoinBlockLeaf","type":"tuple","internalType":"struct BlockLeaf","components":[{"name":"blockHash","type":"bytes32","internalType":"bytes32"},{"name":"height","type":"uint32","internalType":"uint32"},{"name":"cumulativeChainwork","type":"uint256","internalType":"uint256"}]},{"name":"challengeExpiryTimestamp","type":"uint64","internalType":"uint64"},{"name":"state","type":"uint8","internalType":"enum PaymentState"}]}],"anonymous":false},{"type":"event","name":"OwnershipHandoverCanceled","inputs":[{"name":"pendingOwner","type":"address","indexed":true,"internalType":"address"}],"anonymous":false},{"type":"event","name":"OwnershipHandoverRequested","inputs":[{"name":"pendingOwner","type":"address","indexed":true,"internalType":"address"}],"anonymous":false},{"type":"event","name":"OwnershipTransferred","inputs":[{"name":"oldOwner","type":"address","indexed":true,"internalType":"address"},{"name":"newOwner","type":"address","indexed":true,"internalType":"address"}],"anonymous":false},{"type":"event","name":"PaymentsCreated","inputs":[{"name":"payments","type":"tuple[]","indexed":false,"internalType":"struct Payment[]","components":[{"name":"index","type":"uint256","internalType":"uint256"},{"name":"orderIndex","type":"uint256","internalType":"uint256"},{"name":"orderHash","type":"bytes32","internalType":"bytes32"},{"name":"paymentBitcoinBlockLeaf","type":"tuple","internalType":"struct BlockLeaf","components":[{"name":"blockHash","type":"bytes32","internalType":"bytes32"},{"name":"height","type":"uint32","internalType":"uint32"},{"name":"cumulativeChainwork","type":"uint256","internalType":"uint256"}]},{"name":"challengeExpiryTimestamp","type":"uint64","internalType":"uint64"},{"name":"state","type":"uint8","internalType":"enum PaymentState"}]}],"anonymous":false},{"type":"error","name":"AlreadyInitialized","inputs":[]},{"type":"error","name":"AuctionExpired","inputs":[]},{"type":"error","name":"AuctionNotExpired","inputs":[]},{"type":"error","name":"AuctionNotLive","inputs":[]},{"type":"error","name":"BlockNotConfirmed","inputs":[]},{"type":"error","name":"BlockNotInChain","inputs":[]},{"type":"error","name":"ChainworkTooLow","inputs":[]},{"type":"error","name":"CheckpointNotEstablished","inputs":[]},{"type":"error","name":"DepositAmountTooLow","inputs":[]},{"type":"error","name":"DutchAuctionDoesNotExist","inputs":[]},{"type":"error","name":"FillerNotWhitelisted","inputs":[]},{"type":"error","name":"InvalidDeadline","inputs":[]},{"type":"error","name":"InvalidDecimals","inputs":[{"name":"actual","type":"uint8","internalType":"uint8"},{"name":"expected","type":"uint8","internalType":"uint8"}]},{"type":"error","name":"InvalidOrderHash","inputs":[{"name":"actual","type":"bytes32","internalType":"bytes32"},{"name":"expected","type":"bytes32","internalType":"bytes32"}]},{"type":"error","name":"InvalidScriptPubKey","inputs":[]},{"type":"error","name":"InvalidStartBtcOut","inputs":[]},{"type":"error","name":"InvalidTickSize","inputs":[]},{"type":"error","name":"NewOwnerIsZeroAddress","inputs":[]},{"type":"error","name":"NoFeeToWithdraw","inputs":[]},{"type":"error","name":"NoHandoverRequest","inputs":[]},{"type":"error","name":"NoPaymentsToSubmit","inputs":[]},{"type":"error","name":"NotEnoughConfirmationBlocks","inputs":[]},{"type":"error","name":"OrderDoesNotExist","inputs":[]},{"type":"error","name":"OrderNotLive","inputs":[]},{"type":"error","name":"OrderStillActive","inputs":[]},{"type":"error","name":"PaymentDoesNotExist","inputs":[]},{"type":"error","name":"PaymentNotProved","inputs":[]},{"type":"error","name":"SatOutputTooLow","inputs":[]},{"type":"error","name":"StillInChallengePeriod","inputs":[]},{"type":"error","name":"Unauthorized","inputs":[]}],"bytecode":{"object":"0x6101808060405234610312578061349f803803809161001e828561033d565b8339810103610120811261031257815161003a60208401610360565b60408401519061004c60608601610360565b9261005960808701610360565b9560a08101519561ffff871687036103125760609060bf1901126103125760405191606083016001600160401b038111848210176103295760405260c0820151835260e082015163ffffffff81168103610312576101006002936020860192835201519160408501928352306080524660a05260a06040516100dc60408261033d565b600c815260208101906b5269667445786368616e676560a01b82526040519161010660408461033d565b60058352602083019164302e302e3160d81b8352519020915190208160c0528060e052604051917f8b73c3c69bb8fe3d512ecc4cf759cc79239f7b179b0ffacaa9a75d522b39400f8352602083015260408201524660608201523060808201522061010052805f555f52600160205260405f209351845563ffffffff6001850191511663ffffffff198254161790555191015533638b78c6d81955335f7f8be0079c531659141344cd1fd0a4f28419497f9722a3daafe3b4186f6b6457e08180a360405163313ce56760e01b81526020816004816001600160a01b0386165afa801561031e575f906102dd575b60ff915016600881036102c65750610120526101405261016052600580546001600160b01b0319166001600160a01b039093169290921760a09190911b61ffff60a01b1617905560405161312a9081610375823960805181610489015260a05181610466015260c05181610655015260e0518161067b01526101005181610443015261012051818181610be001528181610fd3015281816112140152818161136a0152818161181b015261189b0152610140518181816118e501526120aa01526101605181818161193a0152611fbf0152f35b63047e54d360e31b5f52600452600860245260445ffd5b506020813d602011610316575b816102f76020938361033d565b81010312610312575160ff811681036103125760ff906101f3565b5f80fd5b3d91506102ea565b6040513d5f823e3d90fd5b634e487b7160e01b5f52604160045260245ffd5b601f909101601f19168101906001600160401b0382119082101761032957604052565b51906001600160a01b03821682036103125756fe60806040526004361015610011575f80fd5b5f3560e01c80631127a80b14611b1d5780631ea7ec04146119b257806325692962146119695780632b7ac3f314611925578063375f16a7146119085780633d7b22b3146118ce578063476343ee1461186b578063481c85f11461174857806354d1f13d14611704578063587f5ed7146116e7578063592b6649146115ea57806366e143ca146114a5578063708f29a614611488578063715018a61461143f5780637dd9cb31146112565780637e0258071461112957806384b0196e146110525780638da5cb5b146110265780639a73f4f514611002578063a0d9e24114610fbe578063a24462ea14610f2e578063a743e65e14610b6f578063bb85e18914610a5d578063c286befa14610a1a578063cc38cd7d146109dd578063d21ddc61146109c1578063df69558c14610998578063e58e0fe314610950578063eb5e91ff14610909578063f04e283e146108bc578063f29ebf6114610894578063f2fde38b14610857578063f3bbbeef1461081f578063fb9f0532146101d05763fee81cf41461019a575f80fd5b346101cc5760203660031901126101cc576101b3611cfb565b63389a75e1600c525f52602080600c2054604051908152f35b5f80fd5b346101cc5760803660031901126101cc576004356001600160401b0381116101cc57610200903690600401611e0e565b6024356001600160401b0381116101cc5761021f903690600401611d6a565b906044356001600160401b0381116101cc5761023f903690600401611edc565b91906064356001600160401b0381116101cc57610260903690600401611edc565b939061026b8461280d565b6102758551611b6e565b90549060031b1c036108105760c08401956001875161029381611f97565b61029c81611f97565b1480156107f3575b6107e457604085019060608251015142116107d5578151608001516001600160a01b031680610731575b50506102fa9060808601516102e86040835101518261247b565b91519060208251920151924391612e11565b916103516020860151926103426060880151966040519561031a87611c04565b86526020860194338652604087019889526001600160401b0360608801981688523691611f30565b97608085019889523691611f30565b9560a0830196875260025496610365612661565b5061ffff60055460a01c1691865183155f14610703576001905b106106f4576103e86001600160401b03875116106106e557600260ff60608751015116106106d6576103b5602086510151612eb4565b156106c7576103ce91608086510151915190519161255c565b84518181029181830414901517156106b35761271090049060ff60608451015116611c200263ffffffff81169081036106b357610420836001600160401b0361041881944261247b565b169751612d90565b945184516020810151935190516001600160a01b039081169591169392909116907f00000000000000000000000000000000000000000000000000000000000000008a467f000000000000000000000000000000000000000000000000000000000000000014307f0000000000000000000000000000000000000000000000000000000000000000141615610625575b875160409081015181519384526020840152820152606090205b95519663ffffffff6020608060ff60608c0151169a0151015116986040519b6104f28d611c1f565b8c526001600160401b03421660208d015260408c015260608b015260808a015260a089015260c088015260e08701526101008601526101208501526101408401526101608301525f61018083015261054982612bf0565b9160025493600160401b851015610611577fadadc1b62a250c6ad69315c6cbfb680b0f6b50d733bdcdffb4d73e6e22b0a6ac6105e66001936105d261060c976105ba8a887ff8b9da109a8a429429945d6f1c38f3af7b160026a3e9200e7cebae483c6a8c639c016002556002611b9e565b90919082549060031b91821b915f19901b1916179055565b604051918291602083526020830190612488565b0390a1526106006105f68261280d565b6105ba8351611b6e565b60405191829182612153565b0390a1005b634e487b7160e01b5f52604160045260245ffd5b50506104ca8a60a06040517f8b73c3c69bb8fe3d512ecc4cf759cc79239f7b179b0ffacaa9a75d522b39400f81527f000000000000000000000000000000000000000000000000000000000000000060208201527f000000000000000000000000000000000000000000000000000000000000000060408201524660608201523060808201522091506104b0565b634e487b7160e01b5f52601160045260245ffd5b63fad7db0760e01b5f5260045ffd5b63bdf8f2b360e01b5f5260045ffd5b63fde5943160e01b5f5260045ffd5b6355fcd02760e01b5f5260045ffd5b836127100161ffff81116106b35761ffff5f1991160161ffff81116106b3578461ffff80921604169061037f565b610761916020916040518080958194631f0a8fa760e01b8352336004840152604060248401526044830190611f0c565b03915afa9081156107ca575f9161078f575b50156107805787806102ce565b63754760cb60e11b5f5260045ffd5b90506020813d6020116107c2575b816107aa60209383611c56565b810103126101cc575180151581036101cc5788610773565b3d915061079d565b6040513d5f823e3d90fd5b630129799f60e21b5f5260045ffd5b6358fd8d1160e01b5f5260045ffd5b506002875161080181611f97565b61080a81611f97565b146102a4565b634df2e8a360e01b5f5260045ffd5b346101cc5760203660031901126101cc576004356006548110156101cc57610848602091611b6e565b90549060031b1c604051908152f35b60203660031901126101cc5761086b611cfb565b610873612b5a565b8060601b156108875761088590612b76565b005b637448fbae5f526004601cfd5b346101cc575f3660031901126101cc576005546040516001600160a01b039091168152602090f35b60203660031901126101cc576108d0611cfb565b6108d8612b5a565b63389a75e1600c52805f526020600c2090815442116108fc575f6108859255612b76565b636f5e88185f526004601cfd5b346101cc5760203660031901126101cc576004355f526001602052606060405f20805490600263ffffffff6001830154169101549060405192835260208301526040820152f35b346101cc5760203660031901126101cc5760043561ffff811681036101cc57610977612b5a565b6005805461ffff60a01b191660a09290921b61ffff60a01b16919091179055005b346101cc5760203660031901126101cc576004356002548110156101cc57610848602091611b86565b346101cc575f3660031901126101cc5760205f54604051908152f35b346101cc575f3660031901126101cc576020610a0c5f545f52600160205263ffffffff600160405f2001541690565b63ffffffff60405191168152f35b346101cc5760203660031901126101cc57610a33611cfb565b610a3b612b5a565b600580546001600160a01b0319166001600160a01b0392909216919091179055005b346101cc5760403660031901126101cc576004356001600160401b0381116101cc57610a8d903690600401611edc565b602435916001600160401b0383116101cc57610b5b61060c92610afd610ad87ffcc0bf5af37d2416462f15b1eb9168c1d1741ed5c3ec7905490d015c611dba2b963690600401611cce565b929094610af85f545f52600160205263ffffffff600160405f2001541690565b6128f8565b604094919451610b0c81611bb3565b5f81525f60208201525f604082015260405190610b2882611bce565b5f82525f60208301525f6040830152606082015260405191610b4983611bb3565b5f835260208301526040820152611fb5565b60405191829160208352602083019061230a565b346101cc5760203660031901126101cc576004356001600160401b0381116101cc57610b9f903690600401611edc565b90610ba9826125e7565b90610bb383611c77565b92610bc16040519485611c56565b808452601f19610bd082611c77565b015f5b818110610f1757505f92917f00000000000000000000000000000000000000000000000000000000000000009150835b818110610ca9578686610c188760045461247b565b60045560405190604082016040835283518091526060830190602060608260051b8601019501915f905b828210610c7e577fd796dafe969ef61dd39d8f2109f42e67c96ad6baac6a79895e7e75d7261da5fd868061060c8a89838203602085015261230a565b90919295602080610c9b600193605f198a82030186528a51612488565b980192019201909291610c42565b6020610cb68284876126c1565b01610cd3610ccc610cc73684612751565b612d6e565b9135611b42565b90549060031b1c03610f0857610100610ced8284876126c1565b013560028110156101cc57610ef9576001600160401b03610d1a60e0610d148486896126c1565b01612348565b164210610eea57610d3d610d38610d328385886126c1565b806126e4565b612bb3565b6060610d4a8385886126c1565b01358103610ec65750600190610dc7610d70366080610d6a85888b6126c1565b01611c8e565b8487610d8b610d808684846126c1565b6101208101906126fa565b9060ff610dc0610140610dba610d328b610db2610da9828c8c6126c1565b858101906126fa565b9a90996126c1565b0161272f565b1694612cd9565b610de5610dd58285886126c1565b610de03691806126e4565b612370565b82610180820152610e02610df882612bf0565b6105ba8351611b86565b610e0c828a61273d565b52610e17818961273d565b50610e74610e32366020610e2c85888b6126c1565b01612751565b968360a0890152610e5c610e4589612d6e565b6105ba6020610e55878a8d6126c1565b0135611b42565b6080610e6c610d3285888b6126c1565b01359061247b565b95610eaa610e9160e0610e8b610d3286898c6126c1565b01612467565b6060610ea1610d3286898c6126c1565b013590876127bc565b610eb4828961273d565b52610ebf818861273d565b5001610c03565b6060610ed38385886126c1565b0135638f83aff160e01b5f5260045260245260445ffd5b632d5c37f560e21b5f5260045ffd5b6304261aed60e21b5f5260045ffd5b636f8e482b60e11b5f5260045ffd5b602090610f22612661565b82828901015201610bd3565b346101cc57366003190160a081126101cc576060136101cc57604051610f5381611bb3565b600435815260243563ffffffff811681036101cc57602082015260443560408201526064356001600160401b0381116101cc57610f94903690600401611f7c565b90608435916001600160401b0383116101cc57610fb8610885933690600401611f7c565b9161255c565b346101cc575f3660031901126101cc576040517f00000000000000000000000000000000000000000000000000000000000000006001600160a01b03168152602090f35b346101cc575f3660031901126101cc57602061ffff60055460a01c16604051908152f35b346101cc575f3660031901126101cc57638b78c6d819546040516001600160a01b039091168152602090f35b346101cc575f3660031901126101cc576110cb60406110d88151916110778184611c56565b600c83526b5269667445786368616e676560a01b6020840152805161109c8282611c56565b6005815264302e302e3160d81b60208201528151948594600f60f81b865260e0602087015260e0860190611f0c565b9184830390850152611f0c565b4660608301523060808301525f60a083015281810360c083015260206060519182815201906080905f5b818110611110575050500390f35b8251845285945060209384019390920191600101611102565b346101cc5760203660031901126101cc576004356001600160401b0381116101cc57806004016101a060031983360301126101cc5761116781612bb3565b5061018482013560038110156101cc5761118081611f97565b611247576001600160401b0361119860448401612348565b164210611238577f401ceec6722e041e3a2bf9967184263dd4108d58dc1bf32cdc3db346840ecec8916105d26111d261060c933690612370565b9160026101808401526111f16111e784612bf0565b6105ba8551611b86565b6112116112016101048301612467565b916064608482013591013561247b565b907f00000000000000000000000000000000000000000000000000000000000000006127bc565b631ef96db360e21b5f5260045ffd5b6352bfa29d60e01b5f5260045ffd5b346101cc5760e03660031901126101cc5760043560a03660231901126101cc576040519061128382611c3b565b602435825260443560208301908152606435604084019081526084356060850190815290939160a4356001600160a01b03811681036101cc57608084015260c435946001600160401b0386116101cc5760e060031987360301126101cc575115611430578251905110156114215751421161141257611318600654936040519461130c86611be9565b85523690600401611d96565b602084015260408301528060608301524360808301524260a08301525f60c08301526113438261280d565b60065490600160401b821015610611576105ba82600161136894016006556006611b9e565b7f000000000000000000000000000000000000000000000000000000000000000060405191606052306040523360601b602c526323b872dd60601b600c5260205f6064601c82855af1908160015f511416156113f4575b7ff8b9da109a8a429429945d6f1c38f3af7b160026a3e9200e7cebae483c6a8c63838061060c875f6060528260405282612153565b3b153d1710156114055782806113bf565b637939f4245f526004601cfd5b631da7447960e21b5f5260045ffd5b6365da293b60e11b5f5260045ffd5b63747a60fb60e01b5f5260045ffd5b5f3660031901126101cc57611452612b5a565b5f638b78c6d819547f8be0079c531659141344cd1fd0a4f28419497f9722a3daafe3b4186f6b6457e08280a35f638b78c6d81955005b346101cc575f3660031901126101cc576020600354604051908152f35b346101cc5760603660031901126101cc576004356001600160401b0381116101cc576114d5903690600401611edc565b6024356001600160401b0381116101cc57806004019260c060031983360301126101cc576044356001600160401b0381116101cc57611518903690600401611cce565b908535956024850135966064860161153a6115333683611c8e565b8a84612836565b60848701359063ffffffff821682036101cc577ffcc0bf5af37d2416462f15b1eb9168c1d1741ed5c3ec7905490d015c611dba2b9961159d61159660449661158c61060c9d610b5b9c6115c5986128f8565b98909c019061224e565b3691611d25565b6020815191012090604051946115b286611bce565b8552602085015260408401523690611c8e565b6060820152604051916115d783611bb3565b6002835260208301526040820152611fb5565b346101cc5760403660031901126101cc576004356001600160401b0381116101cc578060040160c060031983360301126101cc576024356001600160401b0381116101cc5761163d903690600401611cce565b91803561166e61159660248701359360446064890198611667611660368c611c8e565b8888612836565b019061224e565b80516020919091012060405192611686602085611c56565b5f84525f805b8181106116d0575050956116ab9161088597604051946115b286611bce565b6060820152604051916116bd83611bb3565b6001835260208301526040820152611fb5565b6020906116db612280565b8282890101520161168c565b346101cc575f3660031901126101cc576020600454604051908152f35b5f3660031901126101cc5763389a75e1600c52335f525f6020600c2055337ffa7b8eab7da67f412cc9575ed43464468f9bfbae89d1675917346ca6d8fe3c925f80a2005b346101cc5760203660031901126101cc576004356001600160401b0381116101cc57611778903690600401611e0e565b6117818161280d565b61178b8251611b6e565b90549060031b1c036108105760c08101600181516117a881611f97565b6117b181611f97565b14801561184e575b6107e457606060408301510151421061183f577ff8b9da109a8a429429945d6f1c38f3af7b160026a3e9200e7cebae483c6a8c6391600261060c92526118016105f68261280d565b6020810151516060820151610600916001600160a01b03167f00000000000000000000000000000000000000000000000000000000000000006127bc565b639eafe1b760e01b5f5260045ffd5b506002815161185c81611f97565b61186581611f97565b146117b9565b346101cc575f3660031901126101cc5760045480156118bf575f60045560055461088591906001600160a01b03167f00000000000000000000000000000000000000000000000000000000000000006127bc565b630c5214e560e31b5f5260045ffd5b346101cc575f3660031901126101cc5760206040517f00000000000000000000000000000000000000000000000000000000000000008152f35b346101cc575f3660031901126101cc576020600254604051908152f35b346101cc575f3660031901126101cc576040517f00000000000000000000000000000000000000000000000000000000000000006001600160a01b03168152602090f35b5f3660031901126101cc5763389a75e1600c52335f526202a30042016020600c2055337fdbf36a107da19e49527a7176a1babf963b4b0ff8cde35ee35d6cd8f1f9ac7e1d5f80a2005b346101cc5760403660031901126101cc576004356001600160401b0381116101cc57803603906101006003198301126101cc57604051916119f283611bb3565b816004013560038110156101cc57835260248201356001600160401b0381116101cc578201366023820112156101cc576004810135611a3081611c77565b91611a3e6040519384611c56565b818352602060046060828601940283010101903682116101cc57602401915b818310611ae157505050602084015260c0604319909101126101cc57611aae60405191611a8983611bce565b60448101358352606481013560208401526084810135604084015260a4369101611c8e565b60608201526040820152602435906001600160401b0382116101cc57611adb610885923690600401611cce565b91611fb5565b6060833603126101cc576020606091604051611afc81611bb3565b85358152828601358382015260408601356040820152815201920191611a5d565b346101cc5760203660031901126101cc576004356003548110156101cc576108486020915b600354811015611b5a5760035f5260205f2001905f90565b634e487b7160e01b5f52603260045260245ffd5b600654811015611b5a5760065f5260205f2001905f90565b600254811015611b5a5760025f5260205f2001905f90565b8054821015611b5a575f5260205f2001905f90565b606081019081106001600160401b0382111761061157604052565b608081019081106001600160401b0382111761061157604052565b60e081019081106001600160401b0382111761061157604052565b60c081019081106001600160401b0382111761061157604052565b6101a081019081106001600160401b0382111761061157604052565b60a081019081106001600160401b0382111761061157604052565b90601f801991011681019081106001600160401b0382111761061157604052565b6001600160401b0381116106115760051b60200190565b91908260609103126101cc57604051611ca681611bb3565b809280358252602081013563ffffffff811681036101cc576020830152604090810135910152565b9181601f840112156101cc578235916001600160401b0383116101cc57602083818601950101116101cc57565b600435906001600160a01b03821682036101cc57565b35906001600160a01b03821682036101cc57565b9291926001600160401b0382116106115760405191611d4e601f8201601f191660200184611c56565b8294818452818301116101cc578281602093845f960137010152565b9080601f830112156101cc57816020611d8593359101611d25565b90565b359060ff821682036101cc57565b919060e0838203126101cc5760405190611daf82611c3b565b8193611dba81611d11565b83526020810135916001600160401b0383116101cc57608082611de3838396611e099601611d6a565b602087015260408101356040870152611dfe60608201611d88565b606087015201611c8e565b910152565b91908281039261016084126101cc5760405191611e2a83611be9565b82948235845260208301356001600160401b0381116101cc5760a092611e51918501611d96565b6020850152603f1901126101cc5761014090604051611e6f81611c3b565b60408201358152606082013560208201526080820135604082015260a08201356060820152611ea060c08301611d11565b6080820152604084015260e08101356060840152610100810135608084015261012081013560a084015201359060038210156101cc5760c00152565b9181601f840112156101cc578235916001600160401b0383116101cc576020808501948460051b0101116101cc57565b805180835260209291819084018484015e5f828201840152601f01601f1916010190565b929190611f3c81611c77565b93611f4a6040519586611c56565b602085838152019160051b81019283116101cc57905b828210611f6c57505050565b8135815260209182019101611f60565b9080601f830112156101cc57816020611d8593359101611f30565b60031115611fa157565b634e487b7160e01b5f52602160045260245ffd5b9060018060a01b037f000000000000000000000000000000000000000000000000000000000000000016604051926020808501528361014081018251611ffa81611f97565b604083015260208301519061010060608401528151809152602061016084019201905f5b818110612121575050506120766060604061208495015180516080860152602081015160a0860152604081015160c0860152015160e0840190604080918051845263ffffffff60208201511660208501520151910152565b03601f198101855284611c56565b803b156101cc576120df60205f9486946040519788968795869463020a49e360e51b86527f00000000000000000000000000000000000000000000000000000000000000006004870152606060248701526064860190611f0c565b84810360031901604486015281815292858401378181018401889052601f01601f1916010301915afa80156107ca576121155750565b5f61211f91611c56565b565b91949350916020606060019260408851805183528481015185840152015160408201520195019101918793949261201e565b602081528151602082015261016060c060208401519382604085015260018060a01b038551166101808501526121e1608061219f602088015160e06101a0890152610260880190611f0c565b6040808901516101c0890152606089015160ff166101e089015291909701518051610200880152602081015163ffffffff166102208801520151610240860152565b60408101518051606086015260208101516080860152604081015160a0860152606081015183860152608060018060a01b039101511660e08501526060810151610100850152608081015161012085015260a081015161014085015201519161224983611f97565b015290565b903590601e19813603018212156101cc57018035906001600160401b0382116101cc576020019181360383136101cc57565b6040519061228d82611bb3565b5f6040838281528260208201520152565b60a0908051835260208101516020840152604081015160408401526122e560608201516060850190604080918051845263ffffffff60208201511660208501520151910152565b6001600160401b0360808201511660c08401520151906002821015611fa15760e00152565b90602080835192838152019201905f5b8181106123275750505090565b90919260206101008261233d600194885161229e565b01940192910161231a565b356001600160401b03811681036101cc5790565b35906001600160401b03821682036101cc57565b91906101a0838203126101cc576040519061238a82611c1f565b81938035835261239c6020820161235c565b60208401526123ad6040820161235c565b604084015260608101356060840152608081013560808401526123d260a0820161235c565b60a084015260c08101356001600160401b0381116101cc57610180926123f9918301611d6a565b60c084015261240a60e08201611d11565b60e084015261241c6101008201611d11565b61010084015261012081013561012084015261243b6101408201611d88565b61014084015261244e610160820161235c565b61016084015201359060038210156101cc576101800152565b356001600160a01b03811681036101cc5790565b919082018092116106b357565b90815181526001600160401b0360208301511660208201526001600160401b03604083015116604082015260608201516060820152608082015160808201526001600160401b0360a08301511660a0820152610180806124f960c08501516101a060c08601526101a0850190611f0c565b9360018060a01b0360e08201511660e085015260018060a01b036101008201511661010085015261012081015161012085015260ff610140820151166101408501526001600160401b036101608201511661016085015201519161224983611f97565b9063ffffffff61258f83516020850194604084875116910151919091606092604051928352602083015260408201522090565b92511692600163ffffffff6125b75f545f52600160205263ffffffff600160405f2001541690565b16019163ffffffff83116106b3576125d1945f5494612c0d565b156125d857565b632814065160e01b5f5260045ffd5b906125f182611c77565b6125fe6040519182611c56565b828152809261260f601f1991611c77565b01905f5b82811061261f57505050565b60209060405161262e81611c04565b5f81525f838201525f6040820152612644612280565b60608201525f60808201525f60a082015282828501015201612613565b6040519061266e82611c1f565b5f610180838281528260208201528260408201528260608201528260808201528260a0820152606060c08201528260e0820152826101008201528261012082015282610140820152826101608201520152565b9190811015611b5a5760051b8101359061017e19813603018212156101cc570190565b90359061019e19813603018212156101cc570190565b903590601e19813603018212156101cc57018035906001600160401b0382116101cc57602001918160051b360383136101cc57565b3560ff811681036101cc5790565b8051821015611b5a5760209160051b010190565b919091610100818403126101cc5760e06040519161276e83611c04565b612794839582358552602083013560208601526040830135604086015260608301611c8e565b60608401526127a560c0820161235c565b608084015201359060028210156101cc5760a00152565b919060145260345263a9059cbb60601b5f5260205f6044601082855af1908160015f511416156127ef575b50505f603452565b3b153d171015612800575f806127e7565b6390b8ec185f526004601cfd5b60405161283081612822602082019485612153565b03601f198101835282611c56565b51902090565b5f548083146128f257815f52600160205260405f2054156128e3575f526001602052600260405f200154916040840192835111156128d4577f4ecbd24cd7522746649cae9ac63fd99619cc85837ae3447a114bbbc3a8043496936002604094835f526001602052855f20928051845563ffffffff6020600186019201511663ffffffff1982541617905551910155805f5582519182526020820152a1565b6307800bf560e21b5f5260045ffd5b63e1965c6560e01b5f5260045ffd5b50505050565b9192908315612b4b5761290a84611c77565b916129186040519384611c56565b848352601f1961292786611c77565b015f5b818110612b34575050829061293e866125e7565b91600354915f5b88811015612b2957612957818561247b565b8160051b87013560de19883603018112156101cc57870160208101896001600160401b03612a21610160610d14612991610d3887896126e4565b956129c88a60408a01976040516129a781611bb3565b8b358152893560208201528a60408201526129c2838361273d565b5261273d565b50612a1088826129db60a08301836126fa565b6129fb610140610dba6129f360c088969801866126fa565b9690956126e4565b9360ff612a08368e611c8e565b951694612cd9565b612a1a81896126e4565b35976126e4565b1663ffffffff8d16036001600160401b0381116106b3576001600160401b03166085026001600160401b0381169081036106b35761e3b3016001600160401b0381116106b3576001600160401b036103e88161012c9316041601916001600160401b0383116106b3576001600160401b03612aa181612ac395164261247b565b169360405195612ab087611c04565b8652602086015260408501523690611c8e565b606083015260808201525f60a0820152612add828761273d565b52612ae8818661273d565b50612afc612af6828761273d565b51612d6e565b90600354600160401b811015610611576001926105ba8285612b2394016003556003611b9e565b01612945565b509450945050935050565b602090612b3f612280565b8282880101520161292a565b630b35156b60e31b5f5260045ffd5b638b78c6d819543303612b6957565b6382b429005f526004601cfd5b60018060a01b031680638b78c6d819547f8be0079c531659141344cd1fd0a4f28419497f9722a3daafe3b4186f6b6457e05f80a3638b78c6d81955565b612bd1612bc8612bc33684612370565b612bf0565b91356002611b9e565b90549060031b1c8103612be15790565b635dcaf2d760e01b5f5260045ffd5b604051612830816128226020820194602086526040830190612488565b939591929490955f945b8451861015612c6957600188811c98811603612c4c57612c37868661273d565b515f52602052600160405f20955b0194612c17565b612c56868661273d565b51905f52602052600160405f2095612c45565b95929650925092505f935f5b8251811015612ccf5781612c89828561273d565b5114612c9757600101612c75565b50509091925060015b15612cc857612cae90612d9d565b908115612cc85763ffffffff165f5260205260405f201490565b5050505f90565b5050909192612ca0565b94939192612cef612cf792612cfe953691611f30565b923691611f30565b908461255c565b63ffffffff6020612d225f545f52600160205263ffffffff600160405f2001541690565b930151169063ffffffff5f1991160163ffffffff81116106b35763ffffffff160163ffffffff81116106b35763ffffffff809116911610612d5f57565b630a47293560e31b5f5260045ffd5b604051612d7f60208201809361229e565b610100815261283061012082611c56565b919082039182116106b357565b80518015612df3575f1981019081116106b357612dba908261273d565b519080515f1981019081116106b357805b612dd457505090565b5f190191612de2838361273d565b515f526020528160405f2092612dcb565b50505f90565b81810392915f1380158285131691841216176106b357565b909193929382811015612e895790612e2c81612e3293612d90565b92612d90565b908380841215612e7657612e4e93612e4991612df9565b612e91565b600160ff1b81146106b3575f03905b5f82820192831291129080158216911516176106b35790565b612e4990612e8394612df9565b90612e5d565b505050905090565b8181029181159183041417820215612ea7570490565b63ad251c275f526004601cfd5b8051601681146130b2576017811461303b5760198114612f6a57602214612eda57505f90565b805115611b5a576020810180516001600160f81b0319168015612f4c57605160f81b14612f075750505f90565b815115611b5a57516001600160f81b031916605160f81b149081612f29575090565b8091505160011015611b5a57602101516001600160f81b031916600160fd1b1490565b50815115611b5a57516001600160f81b031916159081612f29575090565b50805115611b5a5760208101516001600160f81b031916603b60f91b149081613014575b81612fed575b81612fc6575b81612fa3575090565b8091505160181015611b5a57603801516001600160f81b031916602b60fa1b1490565b8091505160171015611b5a5760378101516001600160f81b031916601160fb1b1490612f9a565b8091505160021015611b5a5760228101516001600160f81b031916600560fa1b1490612f94565b8091505160011015611b5a5760218101516001600160f81b03191660a960f81b1490612f8e565b50805115611b5a5760208101516001600160f81b03191660a960f81b14908161308b575b81613068575090565b8091505160161015611b5a57603601516001600160f81b031916608760f81b1490565b8091505160011015611b5a5760218101516001600160f81b031916600560fa1b149061305f565b15611b5a5760208101516001600160f81b0319161590816130d1575090565b8091505160011015611b5a57602101516001600160f81b031916600560fa1b149056fea264697066735822122092550b197d93dc6298cd544e86125fa8908ef5f05f39fc1a01268aaafe0568c764736f6c634300081c0033","linkReferences":{}},"methodIdentifiers":{"accumulatedFees()":"587f5ed7","adminSetFeeRouter(address)":"c286befa","adminSetTakerFeeBips(uint16)":"e58e0fe3","auctionHashes(uint256)":"f3bbbeef","cancelOwnershipHandover()":"54d1f13d","checkpoints(bytes32)":"eb5e91ff","circuitVerificationKey()":"3d7b22b3","claimAuction((uint256,(address,bytes,bytes32,uint8,(bytes32,uint32,uint256)),(uint256,uint256,uint256,uint256,address),uint256,uint256,uint256,uint8),bytes,bytes32[],bytes32[])":"fb9f0532","completeOwnershipHandover(address)":"f04e283e","eip712Domain()":"84b0196e","feeRouter()":"f29ebf61","getTotalOrders()":"375f16a7","getTotalPayments()":"708f29a6","lightClientHeight()":"cc38cd7d","mmrRoot()":"d21ddc61","orderHashes(uint256)":"df69558c","owner()":"8da5cb5b","ownershipHandoverExpiresAt(address)":"fee81cf4","paymentHashes(uint256)":"1127a80b","refundAuction((uint256,(address,bytes,bytes32,uint8,(bytes32,uint32,uint256)),(uint256,uint256,uint256,uint256,address),uint256,uint256,uint256,uint8))":"481c85f1","refundOrder((uint256,uint64,uint64,uint256,uint256,uint64,bytes,address,address,bytes32,uint8,uint64,uint8))":"7e025807","renounceOwnership()":"715018a6","requestOwnershipHandover()":"25692962","settleOrders(((uint256,uint64,uint64,uint256,uint256,uint64,bytes,address,address,bytes32,uint8,uint64,uint8),(uint256,uint256,bytes32,(bytes32,uint32,uint256),uint64,uint8),bytes32[],bytes32[],uint32)[])":"a743e65e","startAuction(uint256,(uint256,uint256,uint256,uint256,address),(address,bytes,bytes32,uint8,(bytes32,uint32,uint256)))":"7dd9cb31","submitPaymentProofs((bytes32,(uint256,uint64,uint64,uint256,uint256,uint64,bytes,address,address,bytes32,uint8,uint64,uint8),(bytes32,uint32,uint256),bytes32[],bytes32[])[],(bytes32,bytes32,bytes,(bytes32,uint32,uint256)),bytes)":"66e143ca","submitPaymentProofsOnly((bytes32,(uint256,uint64,uint64,uint256,uint256,uint64,bytes,address,address,bytes32,uint8,uint64,uint8),(bytes32,uint32,uint256),bytes32[],bytes32[])[],bytes)":"bb85e189","syntheticBitcoin()":"a0d9e241","takerFeeBips()":"9a73f4f5","transferOwnership(address)":"f2fde38b","updateLightClient((bytes32,bytes32,bytes,(bytes32,uint32,uint256)),bytes)":"592b6649","verifier()":"2b7ac3f3","verifyBlockInclusion((bytes32,uint32,uint256),bytes32[],bytes32[])":"a24462ea","verifyProof((uint8,(bytes32,bytes32,bytes32)[],(bytes32,bytes32,bytes32,(bytes32,uint32,uint256))),bytes)":"1ea7ec04","withdrawFees()":"476343ee"},"storageLayout":{"storage":[{"astId":44669,"contract":"src/BTCDutchAuctionHouse.sol:BTCDutchAuctionHouse","label":"mmrRoot","offset":0,"slot":"0","type":"t_bytes32"},{"astId":44674,"contract":"src/BTCDutchAuctionHouse.sol:BTCDutchAuctionHouse","label":"checkpoints","offset":0,"slot":"1","type":"t_mapping(t_bytes32,t_struct(BlockLeaf)46163_storage)"},{"astId":45072,"contract":"src/BTCDutchAuctionHouse.sol:BTCDutchAuctionHouse","label":"orderHashes","offset":0,"slot":"2","type":"t_array(t_bytes32)dyn_storage"},{"astId":45075,"contract":"src/BTCDutchAuctionHouse.sol:BTCDutchAuctionHouse","label":"paymentHashes","offset":0,"slot":"3","type":"t_array(t_bytes32)dyn_storage"},{"astId":45077,"contract":"src/BTCDutchAuctionHouse.sol:BTCDutchAuctionHouse","label":"accumulatedFees","offset":0,"slot":"4","type":"t_uint256"},{"astId":45079,"contract":"src/BTCDutchAuctionHouse.sol:BTCDutchAuctionHouse","label":"feeRouter","offset":0,"slot":"5","type":"t_address"},{"astId":45081,"contract":"src/BTCDutchAuctionHouse.sol:BTCDutchAuctionHouse","label":"takerFeeBips","offset":20,"slot":"5","type":"t_uint16"},{"astId":44329,"contract":"src/BTCDutchAuctionHouse.sol:BTCDutchAuctionHouse","label":"auctionHashes","offset":0,"slot":"6","type":"t_array(t_bytes32)dyn_storage"}],"types":{"t_address":{"encoding":"inplace","label":"address","numberOfBytes":"20"},"t_array(t_bytes32)dyn_storage":{"encoding":"dynamic_array","label":"bytes32[]","numberOfBytes":"32","base":"t_bytes32"},"t_bytes32":{"encoding":"inplace","label":"bytes32","numberOfBytes":"32"},"t_mapping(t_bytes32,t_struct(BlockLeaf)46163_storage)":{"encoding":"mapping","key":"t_bytes32","label":"mapping(bytes32 => struct BlockLeaf)","numberOfBytes":"32","value":"t_struct(BlockLeaf)46163_storage"},"t_struct(BlockLeaf)46163_storage":{"encoding":"inplace","label":"struct BlockLeaf","numberOfBytes":"96","members":[{"astId":46158,"contract":"src/BTCDutchAuctionHouse.sol:BTCDutchAuctionHouse","label":"blockHash","offset":0,"slot":"0","type":"t_bytes32"},{"astId":46160,"contract":"src/BTCDutchAuctionHouse.sol:BTCDutchAuctionHouse","label":"height","offset":0,"slot":"1","type":"t_uint32"},{"astId":46162,"contract":"src/BTCDutchAuctionHouse.sol:BTCDutchAuctionHouse","label":"cumulativeChainwork","offset":0,"slot":"2","type":"t_uint256"}]},"t_uint16":{"encoding":"inplace","label":"uint16","numberOfBytes":"2"},"t_uint256":{"encoding":"inplace","label":"uint256","numberOfBytes":"32"},"t_uint32":{"encoding":"inplace","label":"uint32","numberOfBytes":"4"}}},"id":38}