{"abi":[{"type":"constructor","inputs":[{"name":"_mmrRoot","type":"bytes32","internalType":"bytes32"},{"name":"_tokenizedBitcoin","type":"address","internalType":"address"},{"name":"_circuitVerificationKey","type":"bytes32","internalType":"bytes32"},{"name":"_verifier","type":"address","internalType":"address"},{"name":"_feeRouter","type":"address","internalType":"address"},{"name":"_takerFeeBips","type":"uint16","internalType":"uint16"},{"name":"_tipBlockLeaf","type":"tuple","internalType":"struct BlockLeaf","components":[{"name":"blockHash","type":"bytes32","internalType":"bytes32"},{"name":"height","type":"uint32","internalType":"uint32"},{"name":"cumulativeChainwork","type":"uint256","internalType":"uint256"}]}],"stateMutability":"nonpayable"},{"type":"function","name":"accumulatedFees","inputs":[],"outputs":[{"name":"","type":"uint256","internalType":"uint256"}],"stateMutability":"view"},{"type":"function","name":"addHypernode","inputs":[{"name":"_hypernode","type":"address","internalType":"address"}],"outputs":[],"stateMutability":"nonpayable"},{"type":"function","name":"adminSetFeeRouter","inputs":[{"name":"_feeRouter","type":"address","internalType":"address"}],"outputs":[],"stateMutability":"nonpayable"},{"type":"function","name":"adminSetTakerFeeBips","inputs":[{"name":"_takerFeeBips","type":"uint16","internalType":"uint16"}],"outputs":[],"stateMutability":"nonpayable"},{"type":"function","name":"auctionHashes","inputs":[{"name":"","type":"uint256","internalType":"uint256"}],"outputs":[{"name":"","type":"bytes32","internalType":"bytes32"}],"stateMutability":"view"},{"type":"function","name":"blockFinalityTime","inputs":[],"outputs":[{"name":"","type":"uint32","internalType":"uint32"}],"stateMutability":"view"},{"type":"function","name":"cancelOwnershipHandover","inputs":[],"outputs":[],"stateMutability":"payable"},{"type":"function","name":"checkpoints","inputs":[{"name":"","type":"bytes32","internalType":"bytes32"}],"outputs":[{"name":"height","type":"uint32","internalType":"uint32"},{"name":"cumulativeChainwork","type":"uint256","internalType":"uint256"}],"stateMutability":"view"},{"type":"function","name":"circuitVerificationKey","inputs":[],"outputs":[{"name":"","type":"bytes32","internalType":"bytes32"}],"stateMutability":"view"},{"type":"function","name":"claimAuction","inputs":[{"name":"auction","type":"tuple","internalType":"struct DutchAuction","components":[{"name":"index","type":"uint256","internalType":"uint256"},{"name":"baseCreateOrderParams","type":"tuple","internalType":"struct BaseCreateOrderParams","components":[{"name":"owner","type":"address","internalType":"address"},{"name":"bitcoinScriptPubKey","type":"bytes","internalType":"bytes"},{"name":"salt","type":"bytes32","internalType":"bytes32"},{"name":"confirmationBlocks","type":"uint8","internalType":"uint8"},{"name":"safeBlockLeaf","type":"tuple","internalType":"struct BlockLeaf","components":[{"name":"blockHash","type":"bytes32","internalType":"bytes32"},{"name":"height","type":"uint32","internalType":"uint32"},{"name":"cumulativeChainwork","type":"uint256","internalType":"uint256"}]}]},{"name":"dutchAuctionParams","type":"tuple","internalType":"struct DutchAuctionParams","components":[{"name":"startBtcOut","type":"uint256","internalType":"uint256"},{"name":"endBtcOut","type":"uint256","internalType":"uint256"},{"name":"decayBlocks","type":"uint256","internalType":"uint256"},{"name":"deadline","type":"uint256","internalType":"uint256"},{"name":"fillerWhitelistContract","type":"address","internalType":"address"}]},{"name":"depositAmount","type":"uint256","internalType":"uint256"},{"name":"startBlock","type":"uint256","internalType":"uint256"},{"name":"startTimestamp","type":"uint256","internalType":"uint256"},{"name":"state","type":"uint8","internalType":"enum DutchAuctionState"}]},{"name":"fillerAuthData","type":"bytes","internalType":"bytes"},{"name":"safeBlockSiblings","type":"bytes32[]","internalType":"bytes32[]"},{"name":"safeBlockPeaks","type":"bytes32[]","internalType":"bytes32[]"}],"outputs":[],"stateMutability":"nonpayable"},{"type":"function","name":"completeOwnershipHandover","inputs":[{"name":"pendingOwner","type":"address","internalType":"address"}],"outputs":[],"stateMutability":"payable"},{"type":"function","name":"eip712Domain","inputs":[],"outputs":[{"name":"fields","type":"bytes1","internalType":"bytes1"},{"name":"name","type":"string","internalType":"string"},{"name":"version","type":"string","internalType":"string"},{"name":"chainId","type":"uint256","internalType":"uint256"},{"name":"verifyingContract","type":"address","internalType":"address"},{"name":"salt","type":"bytes32","internalType":"bytes32"},{"name":"extensions","type":"uint256[]","internalType":"uint256[]"}],"stateMutability":"view"},{"type":"function","name":"feeRouter","inputs":[],"outputs":[{"name":"","type":"address","internalType":"address"}],"stateMutability":"view"},{"type":"function","name":"getTotalOrders","inputs":[],"outputs":[{"name":"","type":"uint256","internalType":"uint256"}],"stateMutability":"view"},{"type":"function","name":"getTotalPayments","inputs":[],"outputs":[{"name":"","type":"uint256","internalType":"uint256"}],"stateMutability":"view"},{"type":"function","name":"hypernodes","inputs":[{"name":"","type":"address","internalType":"address"}],"outputs":[{"name":"","type":"bool","internalType":"bool"}],"stateMutability":"view"},{"type":"function","name":"lightClientHeight","inputs":[],"outputs":[{"name":"","type":"uint32","internalType":"uint32"}],"stateMutability":"view"},{"type":"function","name":"mmrRoot","inputs":[],"outputs":[{"name":"","type":"bytes32","internalType":"bytes32"}],"stateMutability":"view"},{"type":"function","name":"orderHashes","inputs":[{"name":"","type":"uint256","internalType":"uint256"}],"outputs":[{"name":"","type":"bytes32","internalType":"bytes32"}],"stateMutability":"view"},{"type":"function","name":"owner","inputs":[],"outputs":[{"name":"result","type":"address","internalType":"address"}],"stateMutability":"view"},{"type":"function","name":"ownershipHandoverExpiresAt","inputs":[{"name":"pendingOwner","type":"address","internalType":"address"}],"outputs":[{"name":"result","type":"uint256","internalType":"uint256"}],"stateMutability":"view"},{"type":"function","name":"paymentHashes","inputs":[{"name":"","type":"uint256","internalType":"uint256"}],"outputs":[{"name":"","type":"bytes32","internalType":"bytes32"}],"stateMutability":"view"},{"type":"function","name":"refundAuction","inputs":[{"name":"auction","type":"tuple","internalType":"struct DutchAuction","components":[{"name":"index","type":"uint256","internalType":"uint256"},{"name":"baseCreateOrderParams","type":"tuple","internalType":"struct BaseCreateOrderParams","components":[{"name":"owner","type":"address","internalType":"address"},{"name":"bitcoinScriptPubKey","type":"bytes","internalType":"bytes"},{"name":"salt","type":"bytes32","internalType":"bytes32"},{"name":"confirmationBlocks","type":"uint8","internalType":"uint8"},{"name":"safeBlockLeaf","type":"tuple","internalType":"struct BlockLeaf","components":[{"name":"blockHash","type":"bytes32","internalType":"bytes32"},{"name":"height","type":"uint32","internalType":"uint32"},{"name":"cumulativeChainwork","type":"uint256","internalType":"uint256"}]}]},{"name":"dutchAuctionParams","type":"tuple","internalType":"struct DutchAuctionParams","components":[{"name":"startBtcOut","type":"uint256","internalType":"uint256"},{"name":"endBtcOut","type":"uint256","internalType":"uint256"},{"name":"decayBlocks","type":"uint256","internalType":"uint256"},{"name":"deadline","type":"uint256","internalType":"uint256"},{"name":"fillerWhitelistContract","type":"address","internalType":"address"}]},{"name":"depositAmount","type":"uint256","internalType":"uint256"},{"name":"startBlock","type":"uint256","internalType":"uint256"},{"name":"startTimestamp","type":"uint256","internalType":"uint256"},{"name":"state","type":"uint8","internalType":"enum DutchAuctionState"}]}],"outputs":[],"stateMutability":"nonpayable"},{"type":"function","name":"refundOrder","inputs":[{"name":"order","type":"tuple","internalType":"struct Order","components":[{"name":"index","type":"uint256","internalType":"uint256"},{"name":"timestamp","type":"uint64","internalType":"uint64"},{"name":"unlockTimestamp","type":"uint64","internalType":"uint64"},{"name":"amount","type":"uint256","internalType":"uint256"},{"name":"takerFee","type":"uint256","internalType":"uint256"},{"name":"expectedSats","type":"uint64","internalType":"uint64"},{"name":"bitcoinScriptPubKey","type":"bytes","internalType":"bytes"},{"name":"designatedReceiver","type":"address","internalType":"address"},{"name":"owner","type":"address","internalType":"address"},{"name":"salt","type":"bytes32","internalType":"bytes32"},{"name":"confirmationBlocks","type":"uint8","internalType":"uint8"},{"name":"safeBitcoinBlockHeight","type":"uint64","internalType":"uint64"},{"name":"state","type":"uint8","internalType":"enum OrderState"}]}],"outputs":[],"stateMutability":"nonpayable"},{"type":"function","name":"removeHypernode","inputs":[{"name":"_hypernode","type":"address","internalType":"address"}],"outputs":[],"stateMutability":"nonpayable"},{"type":"function","name":"renounceOwnership","inputs":[],"outputs":[],"stateMutability":"payable"},{"type":"function","name":"requestOwnershipHandover","inputs":[],"outputs":[],"stateMutability":"payable"},{"type":"function","name":"settleOrders","inputs":[{"name":"settleOrderParams","type":"tuple[]","internalType":"struct SettleOrderParams[]","components":[{"name":"order","type":"tuple","internalType":"struct Order","components":[{"name":"index","type":"uint256","internalType":"uint256"},{"name":"timestamp","type":"uint64","internalType":"uint64"},{"name":"unlockTimestamp","type":"uint64","internalType":"uint64"},{"name":"amount","type":"uint256","internalType":"uint256"},{"name":"takerFee","type":"uint256","internalType":"uint256"},{"name":"expectedSats","type":"uint64","internalType":"uint64"},{"name":"bitcoinScriptPubKey","type":"bytes","internalType":"bytes"},{"name":"designatedReceiver","type":"address","internalType":"address"},{"name":"owner","type":"address","internalType":"address"},{"name":"salt","type":"bytes32","internalType":"bytes32"},{"name":"confirmationBlocks","type":"uint8","internalType":"uint8"},{"name":"safeBitcoinBlockHeight","type":"uint64","internalType":"uint64"},{"name":"state","type":"uint8","internalType":"enum OrderState"}]},{"name":"payment","type":"tuple","internalType":"struct Payment","components":[{"name":"index","type":"uint256","internalType":"uint256"},{"name":"orderIndex","type":"uint256","internalType":"uint256"},{"name":"orderHash","type":"bytes32","internalType":"bytes32"},{"name":"paymentBitcoinBlockLeaf","type":"tuple","internalType":"struct BlockLeaf","components":[{"name":"blockHash","type":"bytes32","internalType":"bytes32"},{"name":"height","type":"uint32","internalType":"uint32"},{"name":"cumulativeChainwork","type":"uint256","internalType":"uint256"}]},{"name":"challengeExpiryTimestamp","type":"uint64","internalType":"uint64"},{"name":"state","type":"uint8","internalType":"enum PaymentState"}]},{"name":"paymentBitcoinBlockSiblings","type":"bytes32[]","internalType":"bytes32[]"},{"name":"paymentBitcoinBlockPeaks","type":"bytes32[]","internalType":"bytes32[]"},{"name":"tipBlockHeight","type":"uint32","internalType":"uint32"}]}],"outputs":[],"stateMutability":"nonpayable"},{"type":"function","name":"startAuction","inputs":[{"name":"depositAmount","type":"uint256","internalType":"uint256"},{"name":"auctionParams","type":"tuple","internalType":"struct DutchAuctionParams","components":[{"name":"startBtcOut","type":"uint256","internalType":"uint256"},{"name":"endBtcOut","type":"uint256","internalType":"uint256"},{"name":"decayBlocks","type":"uint256","internalType":"uint256"},{"name":"deadline","type":"uint256","internalType":"uint256"},{"name":"fillerWhitelistContract","type":"address","internalType":"address"}]},{"name":"baseCreateOrderParams","type":"tuple","internalType":"struct BaseCreateOrderParams","components":[{"name":"owner","type":"address","internalType":"address"},{"name":"bitcoinScriptPubKey","type":"bytes","internalType":"bytes"},{"name":"salt","type":"bytes32","internalType":"bytes32"},{"name":"confirmationBlocks","type":"uint8","internalType":"uint8"},{"name":"safeBlockLeaf","type":"tuple","internalType":"struct BlockLeaf","components":[{"name":"blockHash","type":"bytes32","internalType":"bytes32"},{"name":"height","type":"uint32","internalType":"uint32"},{"name":"cumulativeChainwork","type":"uint256","internalType":"uint256"}]}]}],"outputs":[],"stateMutability":"nonpayable"},{"type":"function","name":"submitPaymentProofs","inputs":[{"name":"paymentParams","type":"tuple[]","internalType":"struct SubmitPaymentProofParams[]","components":[{"name":"paymentBitcoinTxid","type":"bytes32","internalType":"bytes32"},{"name":"order","type":"tuple","internalType":"struct Order","components":[{"name":"index","type":"uint256","internalType":"uint256"},{"name":"timestamp","type":"uint64","internalType":"uint64"},{"name":"unlockTimestamp","type":"uint64","internalType":"uint64"},{"name":"amount","type":"uint256","internalType":"uint256"},{"name":"takerFee","type":"uint256","internalType":"uint256"},{"name":"expectedSats","type":"uint64","internalType":"uint64"},{"name":"bitcoinScriptPubKey","type":"bytes","internalType":"bytes"},{"name":"designatedReceiver","type":"address","internalType":"address"},{"name":"owner","type":"address","internalType":"address"},{"name":"salt","type":"bytes32","internalType":"bytes32"},{"name":"confirmationBlocks","type":"uint8","internalType":"uint8"},{"name":"safeBitcoinBlockHeight","type":"uint64","internalType":"uint64"},{"name":"state","type":"uint8","internalType":"enum OrderState"}]},{"name":"paymentBitcoinBlockLeaf","type":"tuple","internalType":"struct BlockLeaf","components":[{"name":"blockHash","type":"bytes32","internalType":"bytes32"},{"name":"height","type":"uint32","internalType":"uint32"},{"name":"cumulativeChainwork","type":"uint256","internalType":"uint256"}]},{"name":"paymentBitcoinBlockSiblings","type":"bytes32[]","internalType":"bytes32[]"},{"name":"paymentBitcoinBlockPeaks","type":"bytes32[]","internalType":"bytes32[]"}]},{"name":"blockProofParams","type":"tuple","internalType":"struct BlockProofParams","components":[{"name":"priorMmrRoot","type":"bytes32","internalType":"bytes32"},{"name":"newMmrRoot","type":"bytes32","internalType":"bytes32"},{"name":"compressedBlockLeaves","type":"bytes","internalType":"bytes"},{"name":"tipBlockLeaf","type":"tuple","internalType":"struct BlockLeaf","components":[{"name":"blockHash","type":"bytes32","internalType":"bytes32"},{"name":"height","type":"uint32","internalType":"uint32"},{"name":"cumulativeChainwork","type":"uint256","internalType":"uint256"}]}]},{"name":"proof","type":"bytes","internalType":"bytes"}],"outputs":[],"stateMutability":"nonpayable"},{"type":"function","name":"submitPaymentProofsOnly","inputs":[{"name":"paymentParams","type":"tuple[]","internalType":"struct SubmitPaymentProofParams[]","components":[{"name":"paymentBitcoinTxid","type":"bytes32","internalType":"bytes32"},{"name":"order","type":"tuple","internalType":"struct Order","components":[{"name":"index","type":"uint256","internalType":"uint256"},{"name":"timestamp","type":"uint64","internalType":"uint64"},{"name":"unlockTimestamp","type":"uint64","internalType":"uint64"},{"name":"amount","type":"uint256","internalType":"uint256"},{"name":"takerFee","type":"uint256","internalType":"uint256"},{"name":"expectedSats","type":"uint64","internalType":"uint64"},{"name":"bitcoinScriptPubKey","type":"bytes","internalType":"bytes"},{"name":"designatedReceiver","type":"address","internalType":"address"},{"name":"owner","type":"address","internalType":"address"},{"name":"salt","type":"bytes32","internalType":"bytes32"},{"name":"confirmationBlocks","type":"uint8","internalType":"uint8"},{"name":"safeBitcoinBlockHeight","type":"uint64","internalType":"uint64"},{"name":"state","type":"uint8","internalType":"enum OrderState"}]},{"name":"paymentBitcoinBlockLeaf","type":"tuple","internalType":"struct BlockLeaf","components":[{"name":"blockHash","type":"bytes32","internalType":"bytes32"},{"name":"height","type":"uint32","internalType":"uint32"},{"name":"cumulativeChainwork","type":"uint256","internalType":"uint256"}]},{"name":"paymentBitcoinBlockSiblings","type":"bytes32[]","internalType":"bytes32[]"},{"name":"paymentBitcoinBlockPeaks","type":"bytes32[]","internalType":"bytes32[]"}]},{"name":"proof","type":"bytes","internalType":"bytes"}],"outputs":[],"stateMutability":"nonpayable"},{"type":"function","name":"takerFeeBips","inputs":[],"outputs":[{"name":"","type":"uint16","internalType":"uint16"}],"stateMutability":"view"},{"type":"function","name":"tokenizedBitcoin","inputs":[],"outputs":[{"name":"","type":"address","internalType":"address"}],"stateMutability":"view"},{"type":"function","name":"transferOwnership","inputs":[{"name":"newOwner","type":"address","internalType":"address"}],"outputs":[],"stateMutability":"payable"},{"type":"function","name":"updateLightClient","inputs":[{"name":"blockProofParams","type":"tuple","internalType":"struct BlockProofParams","components":[{"name":"priorMmrRoot","type":"bytes32","internalType":"bytes32"},{"name":"newMmrRoot","type":"bytes32","internalType":"bytes32"},{"name":"compressedBlockLeaves","type":"bytes","internalType":"bytes"},{"name":"tipBlockLeaf","type":"tuple","internalType":"struct BlockLeaf","components":[{"name":"blockHash","type":"bytes32","internalType":"bytes32"},{"name":"height","type":"uint32","internalType":"uint32"},{"name":"cumulativeChainwork","type":"uint256","internalType":"uint256"}]}]},{"name":"proof","type":"bytes","internalType":"bytes"}],"outputs":[],"stateMutability":"nonpayable"},{"type":"function","name":"verifier","inputs":[],"outputs":[{"name":"","type":"address","internalType":"address"}],"stateMutability":"view"},{"type":"function","name":"verifyBlockInclusion","inputs":[{"name":"blockLeaf","type":"tuple","internalType":"struct BlockLeaf","components":[{"name":"blockHash","type":"bytes32","internalType":"bytes32"},{"name":"height","type":"uint32","internalType":"uint32"},{"name":"cumulativeChainwork","type":"uint256","internalType":"uint256"}]},{"name":"siblings","type":"bytes32[]","internalType":"bytes32[]"},{"name":"peaks","type":"bytes32[]","internalType":"bytes32[]"}],"outputs":[],"stateMutability":"view"},{"type":"function","name":"verifyProof","inputs":[{"name":"proofPublicInput","type":"tuple","internalType":"struct ProofPublicInput","components":[{"name":"proofType","type":"uint8","internalType":"enum ProofType"},{"name":"payments","type":"tuple[]","internalType":"struct PaymentPublicInput[]","components":[{"name":"paymentBitcoinTxid","type":"bytes32","internalType":"bytes32"},{"name":"paymentBitcoinBlockHash","type":"bytes32","internalType":"bytes32"},{"name":"orderHash","type":"bytes32","internalType":"bytes32"}]},{"name":"lightClient","type":"tuple","internalType":"struct LightClientPublicInput","components":[{"name":"priorMmrRoot","type":"bytes32","internalType":"bytes32"},{"name":"newMmrRoot","type":"bytes32","internalType":"bytes32"},{"name":"compressedLeavesHash","type":"bytes32","internalType":"bytes32"},{"name":"tipBlockLeaf","type":"tuple","internalType":"struct BlockLeaf","components":[{"name":"blockHash","type":"bytes32","internalType":"bytes32"},{"name":"height","type":"uint32","internalType":"uint32"},{"name":"cumulativeChainwork","type":"uint256","internalType":"uint256"}]}]}]},{"name":"proof","type":"bytes","internalType":"bytes"}],"outputs":[],"stateMutability":"view"},{"type":"function","name":"withdrawFees","inputs":[],"outputs":[],"stateMutability":"nonpayable"},{"type":"event","name":"AuctionUpdated","inputs":[{"name":"auction","type":"tuple","indexed":false,"internalType":"struct DutchAuction","components":[{"name":"index","type":"uint256","internalType":"uint256"},{"name":"baseCreateOrderParams","type":"tuple","internalType":"struct BaseCreateOrderParams","components":[{"name":"owner","type":"address","internalType":"address"},{"name":"bitcoinScriptPubKey","type":"bytes","internalType":"bytes"},{"name":"salt","type":"bytes32","internalType":"bytes32"},{"name":"confirmationBlocks","type":"uint8","internalType":"uint8"},{"name":"safeBlockLeaf","type":"tuple","internalType":"struct BlockLeaf","components":[{"name":"blockHash","type":"bytes32","internalType":"bytes32"},{"name":"height","type":"uint32","internalType":"uint32"},{"name":"cumulativeChainwork","type":"uint256","internalType":"uint256"}]}]},{"name":"dutchAuctionParams","type":"tuple","internalType":"struct DutchAuctionParams","components":[{"name":"startBtcOut","type":"uint256","internalType":"uint256"},{"name":"endBtcOut","type":"uint256","internalType":"uint256"},{"name":"decayBlocks","type":"uint256","internalType":"uint256"},{"name":"deadline","type":"uint256","internalType":"uint256"},{"name":"fillerWhitelistContract","type":"address","internalType":"address"}]},{"name":"depositAmount","type":"uint256","internalType":"uint256"},{"name":"startBlock","type":"uint256","internalType":"uint256"},{"name":"startTimestamp","type":"uint256","internalType":"uint256"},{"name":"state","type":"uint8","internalType":"enum DutchAuctionState"}]}],"anonymous":false},{"type":"event","name":"BitcoinLightClientUpdated","inputs":[{"name":"priorMmrRoot","type":"bytes32","indexed":false,"internalType":"bytes32"},{"name":"newMmrRoot","type":"bytes32","indexed":false,"internalType":"bytes32"}],"anonymous":false},{"type":"event","name":"OrderCreated","inputs":[{"name":"order","type":"tuple","indexed":false,"internalType":"struct Order","components":[{"name":"index","type":"uint256","internalType":"uint256"},{"name":"timestamp","type":"uint64","internalType":"uint64"},{"name":"unlockTimestamp","type":"uint64","internalType":"uint64"},{"name":"amount","type":"uint256","internalType":"uint256"},{"name":"takerFee","type":"uint256","internalType":"uint256"},{"name":"expectedSats","type":"uint64","internalType":"uint64"},{"name":"bitcoinScriptPubKey","type":"bytes","internalType":"bytes"},{"name":"designatedReceiver","type":"address","internalType":"address"},{"name":"owner","type":"address","internalType":"address"},{"name":"salt","type":"bytes32","internalType":"bytes32"},{"name":"confirmationBlocks","type":"uint8","internalType":"uint8"},{"name":"safeBitcoinBlockHeight","type":"uint64","internalType":"uint64"},{"name":"state","type":"uint8","internalType":"enum OrderState"}]}],"anonymous":false},{"type":"event","name":"OrderRefunded","inputs":[{"name":"order","type":"tuple","indexed":false,"internalType":"struct Order","components":[{"name":"index","type":"uint256","internalType":"uint256"},{"name":"timestamp","type":"uint64","internalType":"uint64"},{"name":"unlockTimestamp","type":"uint64","internalType":"uint64"},{"name":"amount","type":"uint256","internalType":"uint256"},{"name":"takerFee","type":"uint256","internalType":"uint256"},{"name":"expectedSats","type":"uint64","internalType":"uint64"},{"name":"bitcoinScriptPubKey","type":"bytes","internalType":"bytes"},{"name":"designatedReceiver","type":"address","internalType":"address"},{"name":"owner","type":"address","internalType":"address"},{"name":"salt","type":"bytes32","internalType":"bytes32"},{"name":"confirmationBlocks","type":"uint8","internalType":"uint8"},{"name":"safeBitcoinBlockHeight","type":"uint64","internalType":"uint64"},{"name":"state","type":"uint8","internalType":"enum OrderState"}]}],"anonymous":false},{"type":"event","name":"OrdersSettled","inputs":[{"name":"orders","type":"tuple[]","indexed":false,"internalType":"struct Order[]","components":[{"name":"index","type":"uint256","internalType":"uint256"},{"name":"timestamp","type":"uint64","internalType":"uint64"},{"name":"unlockTimestamp","type":"uint64","internalType":"uint64"},{"name":"amount","type":"uint256","internalType":"uint256"},{"name":"takerFee","type":"uint256","internalType":"uint256"},{"name":"expectedSats","type":"uint64","internalType":"uint64"},{"name":"bitcoinScriptPubKey","type":"bytes","internalType":"bytes"},{"name":"designatedReceiver","type":"address","internalType":"address"},{"name":"owner","type":"address","internalType":"address"},{"name":"salt","type":"bytes32","internalType":"bytes32"},{"name":"confirmationBlocks","type":"uint8","internalType":"uint8"},{"name":"safeBitcoinBlockHeight","type":"uint64","internalType":"uint64"},{"name":"state","type":"uint8","internalType":"enum OrderState"}]},{"name":"payments","type":"tuple[]","indexed":false,"internalType":"struct Payment[]","components":[{"name":"index","type":"uint256","internalType":"uint256"},{"name":"orderIndex","type":"uint256","internalType":"uint256"},{"name":"orderHash","type":"bytes32","internalType":"bytes32"},{"name":"paymentBitcoinBlockLeaf","type":"tuple","internalType":"struct BlockLeaf","components":[{"name":"blockHash","type":"bytes32","internalType":"bytes32"},{"name":"height","type":"uint32","internalType":"uint32"},{"name":"cumulativeChainwork","type":"uint256","internalType":"uint256"}]},{"name":"challengeExpiryTimestamp","type":"uint64","internalType":"uint64"},{"name":"state","type":"uint8","internalType":"enum PaymentState"}]}],"anonymous":false},{"type":"event","name":"OwnershipHandoverCanceled","inputs":[{"name":"pendingOwner","type":"address","indexed":true,"internalType":"address"}],"anonymous":false},{"type":"event","name":"OwnershipHandoverRequested","inputs":[{"name":"pendingOwner","type":"address","indexed":true,"internalType":"address"}],"anonymous":false},{"type":"event","name":"OwnershipTransferred","inputs":[{"name":"oldOwner","type":"address","indexed":true,"internalType":"address"},{"name":"newOwner","type":"address","indexed":true,"internalType":"address"}],"anonymous":false},{"type":"event","name":"PaymentsCreated","inputs":[{"name":"payments","type":"tuple[]","indexed":false,"internalType":"struct Payment[]","components":[{"name":"index","type":"uint256","internalType":"uint256"},{"name":"orderIndex","type":"uint256","internalType":"uint256"},{"name":"orderHash","type":"bytes32","internalType":"bytes32"},{"name":"paymentBitcoinBlockLeaf","type":"tuple","internalType":"struct BlockLeaf","components":[{"name":"blockHash","type":"bytes32","internalType":"bytes32"},{"name":"height","type":"uint32","internalType":"uint32"},{"name":"cumulativeChainwork","type":"uint256","internalType":"uint256"}]},{"name":"challengeExpiryTimestamp","type":"uint64","internalType":"uint64"},{"name":"state","type":"uint8","internalType":"enum PaymentState"}]}],"anonymous":false},{"type":"error","name":"AlreadyInitialized","inputs":[]},{"type":"error","name":"AuctionExpired","inputs":[]},{"type":"error","name":"AuctionNotExpired","inputs":[]},{"type":"error","name":"AuctionNotLive","inputs":[]},{"type":"error","name":"BlockNotConfirmed","inputs":[]},{"type":"error","name":"BlockNotInChain","inputs":[]},{"type":"error","name":"ChainworkTooLow","inputs":[]},{"type":"error","name":"CheckpointNotEstablished","inputs":[]},{"type":"error","name":"DepositAmountTooLow","inputs":[]},{"type":"error","name":"DutchAuctionDoesNotExist","inputs":[{"name":"index","type":"uint256","internalType":"uint256"}]},{"type":"error","name":"FillerNotWhitelisted","inputs":[]},{"type":"error","name":"InvalidAuctionRange","inputs":[]},{"type":"error","name":"InvalidConfirmations","inputs":[]},{"type":"error","name":"InvalidDeadline","inputs":[]},{"type":"error","name":"InvalidDecimals","inputs":[{"name":"actual","type":"uint8","internalType":"uint8"},{"name":"expected","type":"uint8","internalType":"uint8"}]},{"type":"error","name":"InvalidOrderHash","inputs":[{"name":"actual","type":"bytes32","internalType":"bytes32"},{"name":"expected","type":"bytes32","internalType":"bytes32"}]},{"type":"error","name":"InvalidProof","inputs":[]},{"type":"error","name":"InvalidScriptPubKey","inputs":[]},{"type":"error","name":"InvalidTickSize","inputs":[]},{"type":"error","name":"NewOwnerIsZeroAddress","inputs":[]},{"type":"error","name":"NoFeeToWithdraw","inputs":[]},{"type":"error","name":"NoHandoverRequest","inputs":[]},{"type":"error","name":"NoPaymentsToSubmit","inputs":[]},{"type":"error","name":"NotEnoughConfirmationBlocks","inputs":[]},{"type":"error","name":"NotHypernode","inputs":[]},{"type":"error","name":"OrderDoesNotExist","inputs":[{"name":"index","type":"uint256","internalType":"uint256"}]},{"type":"error","name":"OrderNotLive","inputs":[]},{"type":"error","name":"OrderStillActive","inputs":[]},{"type":"error","name":"PaymentDoesNotExist","inputs":[{"name":"index","type":"uint256","internalType":"uint256"}]},{"type":"error","name":"PaymentNotProved","inputs":[]},{"type":"error","name":"SatOutputTooLow","inputs":[]},{"type":"error","name":"StillInChallengePeriod","inputs":[]},{"type":"error","name":"Unauthorized","inputs":[]}],"bytecode":{"object":"0x6101a08060405234610350578061397e803803809161001e828561037b565b8339810103610120811261035057815161003a6020840161039e565b60408401519061004c6060860161039e565b926100596080870161039e565b9560a08101519561ffff871687036103505760609060bf1901126103505760405190606082016001600160401b038111838210176103675760405260c0810151825260e081015163ffffffff8116810361035057604061010063ffffffff936020860193845201519301928352306080524660a05260a06040516100de60408261037b565b600c815260208101906b5269667445786368616e676560a01b82526040519161010860408461037b565b60058352602083019164302e302e3160d81b8352519020915190208160c0528060e052604051917f8b73c3c69bb8fe3d512ecc4cf759cc79239f7b179b0ffacaa9a75d522b39400f8352602083015260408201524660608201523060808201522061010052835f555116905160405192604084019284841060018060401b03851117610367576001936040528452602084019182525f528160205263ffffffff60405f2093511663ffffffff198454161783555191015533638b78c6d81955335f7f8be0079c531659141344cd1fd0a4f28419497f9722a3daafe3b4186f6b6457e08180a360405163313ce56760e01b81526020816004816001600160a01b0386165afa801561035c575f9061031b575b60ff915016600881036103045750610120526101405261016052600580546001600160b01b0319166001600160a01b039093169290921760a09190911b61ffff60a01b161790556040516135cb90816103b382396080518161066b015260a05181610648015260c05181610837015260e0518161085d01526101005181610625015261012051818181610c8501528181610eb0015281816114a6015281816115fc01528181611b010152611b81015261014051818181611bcb01526123d4015261016051818181611c2001526122ea015261018051818181610452015281816117530152612d110152f35b63047e54d360e31b5f52600452600860245260445ffd5b506020813d602011610354575b816103356020938361037b565b81010312610350575160ff811681036103505760ff90610219565b5f80fd5b3d9150610328565b6040513d5f823e3d90fd5b634e487b7160e01b5f52604160045260245ffd5b601f909101601f19168101906001600160401b0382119082101761036757604052565b51906001600160a01b03821682036103505756fe6080806040526004361015610012575f80fd5b5f3560e01c9081630cd01d8e14611e2c575080631127a80b14611e035780631ea7ec0414611c985780632569296214611c4f5780632b7ac3f314611c0b578063375f16a714611bee5780633d7b22b314611bb4578063476343ee14611b51578063481c85f114611a4357806354d1f13d146119ff578063587f5ed7146119e2578063592b6649146118d057806366e143ca14611777578063694a9d9914611737578063708f29a61461171a578063715018a6146116d15780637dd9cb31146114e85780637e025807146113bb57806384b0196e146112e45780638da5cb5b146112b85780639a73f4f514611294578063a24462ea14611204578063a743e65e14610e2a578063bb85e18914610cf7578063c286befa14610cb4578063c829854214610c70578063cc38cd7d14610c36578063cd9f63e314610bf2578063d21ddc6114610bd6578063df69558c14610bad578063e58e0fe314610b65578063eb5e91ff14610b2c578063ef29ac8e14610aeb578063f04e283e14610a9e578063f29ebf6114610a76578063f2fde38b14610a39578063f3bbbeef14610a01578063fb9f0532146101ff5763fee81cf4146101c9575f80fd5b346101fb5760203660031901126101fb576101e2611e65565b63389a75e1600c525f52602080600c2054604051908152f35b5f80fd5b346101fb5760803660031901126101fb576004356001600160401b0381116101fb5761022f903690600401612131565b6024356001600160401b0381116101fb5761024e90369060040161208d565b906044356001600160401b0381116101fb5761026e9036906004016121ff565b91906064356001600160401b0381116101fb5761028f9036906004016121ff565b939061029a84612b4e565b5060c0840195600187516102ad816122ba565b6102b6816122ba565b1480156109e4575b6109d557604085019060608251015142116109c6578151608001516001600160a01b031680610922575b5050610314906080860151610302604083510151826127bf565b915190602082519201519243916132b2565b9161036b60208601519261035c6060880151966040519561033487611f51565b86526020860194338652604087019889526001600160401b0360608801981688523691612253565b97608085019889523691612253565b9560a083019687526002549661037f6129a2565b5061ffff60055460a01c1691865183155f146108f4576001905b106108e5576103e86001600160401b03875116106108d657600260ff60608751015116106108c7576103cf602086510151613355565b156108b8576103e89160808651015191519051916128a0565b84518181029181830414901517156108955761271090049060ff60608451015116620f42406001600160401b0361048761048261047d61044861043461042f6107e061316b565b6131d0565b6064866104408361318c565b160490613211565b61047763ffffffff7f0000000000000000000000000000000000000000000000000000000000000000166131ad565b90613211565b6131f1565b612c9f565b160460011b906801fffffffffffffffe67fffffffffffffffe8316921682036108955780156108a95764e8d4a51000810281810464e8d4a5100003610895578070ffffffffffffffffffffffffffffffffff1060071b81811c68ffffffffffffffffff1060061b1781811c64ffffffffff1060051b1781811c62ffffff1060041b1760b56201000083831c019160011c1b0260121c8082040160011c8082040160011c8082040160011c8082040160011c8082040160011c8082040160011c8082040160011c8080920410900380630336c1000290630336c10082040361089557620f4240900463087fc03001908163087fc030116108955780629d78800290629d78808204036108955761059b916127bf565b620f424081019081811161089557620f423f01908111610895576001600160401b03620f4240603c920416026001600160401b03811690810361089557836001600160401b036105fa816105f3610602958297613211565b16426127bf565b169751613231565b945184516020810151935190516001600160a01b039081169591169392909116907f00000000000000000000000000000000000000000000000000000000000000008a467f000000000000000000000000000000000000000000000000000000000000000014307f0000000000000000000000000000000000000000000000000000000000000000141615610807575b875160409081015181519384526020840152820152606090205b95519663ffffffff6020608060ff60608c0151169a0151015116986040519b6106d48d611f6c565b8c526001600160401b03421660208d015260408c015260608b015260808a015260a089015260c088015260e08701526101008601526101208501526101408401526101608301525f61018083015261072b82612fce565b9160025493600160401b8510156107f3577fadadc1b62a250c6ad69315c6cbfb680b0f6b50d733bdcdffb4d73e6e22b0a6ac6107c86001936107b46107ee9761079c8a887ff8b9da109a8a429429945d6f1c38f3af7b160026a3e9200e7cebae483c6a8c639c016002556002611eeb565b90919082549060031b91821b915f19901b1916179055565b6040519182916020835260208301906127cc565b0390a1526107e26107d882612b88565b61079c8351611ebb565b60405191829182612497565b0390a1005b634e487b7160e01b5f52604160045260245ffd5b50506106ac8a60a06040517f8b73c3c69bb8fe3d512ecc4cf759cc79239f7b179b0ffacaa9a75d522b39400f81527f000000000000000000000000000000000000000000000000000000000000000060208201527f00000000000000000000000000000000000000000000000000000000000000006040820152466060820152306080820152209150610692565b634e487b7160e01b5f52601160045260245ffd5b6311ed5d1f60e31b5f5260045ffd5b63fad7db0760e01b5f5260045ffd5b63bdf8f2b360e01b5f5260045ffd5b63fde5943160e01b5f5260045ffd5b6355fcd02760e01b5f5260045ffd5b836127100161ffff81116108955761ffff5f1991160161ffff8111610895578461ffff809216041690610399565b610952916020916040518080958194631f0a8fa760e01b835233600484015260406024840152604483019061222f565b03915afa9081156109bb575f91610980575b50156109715787806102e8565b63754760cb60e11b5f5260045ffd5b90506020813d6020116109b3575b8161099b60209383611fa3565b810103126101fb575180151581036101fb5788610964565b3d915061098e565b6040513d5f823e3d90fd5b630129799f60e21b5f5260045ffd5b6358fd8d1160e01b5f5260045ffd5b50600287516109f2816122ba565b6109fb816122ba565b146102be565b346101fb5760203660031901126101fb576004356007548110156101fb57610a2a602091611ebb565b90549060031b1c604051908152f35b60203660031901126101fb57610a4d611e65565b610a55612f33565b8060601b15610a6957610a6790612f4f565b005b637448fbae5f526004601cfd5b346101fb575f3660031901126101fb576005546040516001600160a01b039091168152602090f35b60203660031901126101fb57610ab2611e65565b610aba612f33565b63389a75e1600c52805f526020600c209081544211610ade575f610a679255612f4f565b636f5e88185f526004601cfd5b346101fb5760203660031901126101fb57610b04611e65565b610b0c612f33565b6001600160a01b03165f908152600660205260409020805460ff19169055005b346101fb5760203660031901126101fb576004355f5260016020526040805f20600163ffffffff82541691015482519182526020820152f35b346101fb5760203660031901126101fb5760043561ffff811681036101fb57610b8c612f33565b6005805461ffff60a01b191660a09290921b61ffff60a01b16919091179055005b346101fb5760203660031901126101fb576004356002548110156101fb57610a2a602091611ed3565b346101fb575f3660031901126101fb5760205f54604051908152f35b346101fb5760203660031901126101fb57610c0b611e65565b610c13612f33565b6001600160a01b03165f908152600660205260409020805460ff19166001179055005b346101fb575f3660031901126101fb576020610c625f545f52600160205263ffffffff60405f20541690565b63ffffffff60405191168152f35b346101fb575f3660031901126101fb576040517f00000000000000000000000000000000000000000000000000000000000000006001600160a01b03168152602090f35b346101fb5760203660031901126101fb57610ccd611e65565b610cd5612f33565b600580546001600160a01b0319166001600160a01b0392909216919091179055005b346101fb5760403660031901126101fb576004356001600160401b0381116101fb57610d279036906004016121ff565b906024356001600160401b0381116101fb57610d4790369060040161201b565b92335f52600660205260ff60405f20541615610e1b577ffcc0bf5af37d2416462f15b1eb9168c1d1741ed5c3ec7905490d015c611dba2b93610da9610e07926107ee95610da45f545f52600160205263ffffffff60405f20541690565b612cbd565b604094919451610db881611f00565b5f81525f60208201525f604082015260405190610dd482611f1b565b5f82525f60208301525f6040830152606082015260405191610df583611f00565b5f8352602083015260408201526122d8565b60405191829160208352602083019061264e565b631ad0d2eb60e01b5f5260045ffd5b346101fb5760203660031901126101fb576004356001600160401b0381116101fb57610e5a9036906004016121ff565b90335f52600660205260ff60405f20541615610e1b57610e7982612928565b90610e8383611fc4565b92610e916040519485611fa3565b808452601f19610ea082611fc4565b015f5b8181106111ed57505f92917f00000000000000000000000000000000000000000000000000000000000000009150835b818110610f79578686610ee8876004546127bf565b60045560405190604082016040835283518091526060830190602060608260051b8601019501915f905b828210610f4e577fd796dafe969ef61dd39d8f2109f42e67c96ad6baac6a79895e7e75d7261da5fd86806107ee8a89838203602085015261264e565b90919295602080610f6b600193605f198a82030186528a516127cc565b980192019201909291610f12565b6020610f86828487612a02565b01610f99610f943683612a92565b613149565b903590610fa582611e8f565b90549060031b1c036111db5750610100610fc0828487612a02565b013560028110156101fb576111cc576001600160401b03610fed60e0610fe7848689612a02565b0161268c565b1642106111bd5761101061100b611005838588612a02565b80612a25565b612f8c565b606061101d838588612a02565b01358103611199575060019061109a61104336608061103d85888b612a02565b01611fdb565b848761105e611053868484612a02565b610120810190612a3b565b9060ff61109361014061108d6110058b61108561107c828c8c612a02565b85810190612a3b565b9a9099612a02565b01612a70565b16946130b7565b6110b86110a8828588612a02565b6110b3369180612a25565b6126b4565b826101808201526110d56110cb82612fce565b61079c8351611ed3565b6110df828a612a7e565b526110ea8189612a7e565b506111476111053660206110ff85888b612a02565b01612a92565b968360a089015261112f61111889613149565b61079c6020611128878a8d612a02565b0135611e8f565b608061113f61100585888b612a02565b0135906127bf565b9561117d61116460e061115e61100586898c612a02565b016127ab565b606061117461100586898c612a02565b01359087612afd565b6111878289612a7e565b526111928188612a7e565b5001610ed3565b60606111a6838588612a02565b0135638f83aff160e01b5f5260045260245260445ffd5b632d5c37f560e21b5f5260045ffd5b6304261aed60e21b5f5260045ffd5b632ed2f48360e01b5f5260045260245ffd5b6020906111f86129a2565b82828901015201610ea3565b346101fb57366003190160a081126101fb576060136101fb5760405161122981611f00565b600435815260243563ffffffff811681036101fb57602082015260443560408201526064356001600160401b0381116101fb5761126a90369060040161229f565b90608435916001600160401b0383116101fb5761128e610a6793369060040161229f565b916128a0565b346101fb575f3660031901126101fb57602061ffff60055460a01c16604051908152f35b346101fb575f3660031901126101fb57638b78c6d819546040516001600160a01b039091168152602090f35b346101fb575f3660031901126101fb5761135d604061136a8151916113098184611fa3565b600c83526b5269667445786368616e676560a01b6020840152805161132e8282611fa3565b6005815264302e302e3160d81b60208201528151948594600f60f81b865260e0602087015260e086019061222f565b918483039085015261222f565b4660608301523060808301525f60a083015281810360c083015260206060519182815201906080905f5b8181106113a2575050500390f35b8251845285945060209384019390920191600101611394565b346101fb5760203660031901126101fb576004356001600160401b0381116101fb57806004016101a060031983360301126101fb576113f981612f8c565b5061018482013560038110156101fb57611412816122ba565b6114d9576001600160401b0361142a6044840161268c565b1642106114ca577f401ceec6722e041e3a2bf9967184263dd4108d58dc1bf32cdc3db346840ecec8916107b46114646107ee9336906126b4565b91600261018084015261148361147984612fce565b61079c8551611ed3565b6114a361149361010483016127ab565b91606460848201359101356127bf565b907f0000000000000000000000000000000000000000000000000000000000000000612afd565b631ef96db360e21b5f5260045ffd5b6352bfa29d60e01b5f5260045ffd5b346101fb5760e03660031901126101fb5760043560a03660231901126101fb576040519061151582611f88565b602435825260443560208301908152606435604084019081526084356060850190815290939160a4356001600160a01b03811681036101fb57608084015260c435946001600160401b0386116101fb5760e060031987360301126101fb5751156116c2578251905110156116b3575142116116a4576115aa600754936040519461159e86611f36565b855236906004016120b9565b602084015260408301528060608301524360808301524260a08301525f60c08301526115d582612b88565b60075490600160401b8210156107f35761079c8260016115fa94016007556007611eeb565b7f000000000000000000000000000000000000000000000000000000000000000060405191606052306040523360601b602c526323b872dd60601b600c5260205f6064601c82855af1908160015f51141615611686575b7ff8b9da109a8a429429945d6f1c38f3af7b160026a3e9200e7cebae483c6a8c6383806107ee875f6060528260405282612497565b3b153d171015611697578280611651565b637939f4245f526004601cfd5b631da7447960e21b5f5260045ffd5b63c85c889b60e01b5f5260045ffd5b63747a60fb60e01b5f5260045ffd5b5f3660031901126101fb576116e4612f33565b5f638b78c6d819547f8be0079c531659141344cd1fd0a4f28419497f9722a3daafe3b4186f6b6457e08280a35f638b78c6d81955005b346101fb575f3660031901126101fb576020600354604051908152f35b346101fb575f3660031901126101fb57602060405163ffffffff7f0000000000000000000000000000000000000000000000000000000000000000168152f35b346101fb5760603660031901126101fb576004356001600160401b0381116101fb576117a79036906004016121ff565b6024356001600160401b0381116101fb57806004019260c060031983360301126101fb576044356001600160401b0381116101fb576117ea90369060040161201b565b90335f52600660205260ff60405f20541615610e1b576024840135958035606486016118206118193683611fdb565b8a84612bb1565b60848701359063ffffffff821682036101fb577ffcc0bf5af37d2416462f15b1eb9168c1d1741ed5c3ec7905490d015c611dba2b9961188361187c6044966118726107ee9d610e079c6118ab98612cbd565b98909c0190612592565b3691612048565b60208151910120906040519461189886611f1b565b8552602085015260408401523690611fdb565b6060820152604051916118bd83611f00565b60028352602083015260408201526122d8565b346101fb5760403660031901126101fb576004356001600160401b0381116101fb578060040160c060031983360301126101fb576024356001600160401b0381116101fb5761192390369060040161201b565b91335f52600660205260ff60405f20541615610e1b57803561196961187c6024870135936044606489019861196261195b368c611fdb565b8888612bb1565b0190612592565b80516020919091012060405192611981602085611fa3565b5f84525f805b8181106119cb575050956119a691610a67976040519461189886611f1b565b6060820152604051916119b883611f00565b60018352602083015260408201526122d8565b6020906119d66125c4565b82828901015201611987565b346101fb575f3660031901126101fb576020600454604051908152f35b5f3660031901126101fb5763389a75e1600c52335f525f6020600c2055337ffa7b8eab7da67f412cc9575ed43464468f9bfbae89d1675917346ca6d8fe3c925f80a2005b346101fb5760203660031901126101fb576004356001600160401b0381116101fb57611a73903690600401612131565b611a7c81612b4e565b5060c0810160018151611a8e816122ba565b611a97816122ba565b148015611b34575b6109d5576060604083015101514210611b25577ff8b9da109a8a429429945d6f1c38f3af7b160026a3e9200e7cebae483c6a8c639160026107ee9252611ae76107d882612b88565b60208101515160608201516107e2916001600160a01b03167f0000000000000000000000000000000000000000000000000000000000000000612afd565b639eafe1b760e01b5f5260045ffd5b5060028151611b42816122ba565b611b4b816122ba565b14611a9f565b346101fb575f3660031901126101fb576004548015611ba5575f600455600554610a6791906001600160a01b03167f0000000000000000000000000000000000000000000000000000000000000000612afd565b630c5214e560e31b5f5260045ffd5b346101fb575f3660031901126101fb5760206040517f00000000000000000000000000000000000000000000000000000000000000008152f35b346101fb575f3660031901126101fb576020600254604051908152f35b346101fb575f3660031901126101fb576040517f00000000000000000000000000000000000000000000000000000000000000006001600160a01b03168152602090f35b5f3660031901126101fb5763389a75e1600c52335f526202a30042016020600c2055337fdbf36a107da19e49527a7176a1babf963b4b0ff8cde35ee35d6cd8f1f9ac7e1d5f80a2005b346101fb5760403660031901126101fb576004356001600160401b0381116101fb57803603906101006003198301126101fb5760405191611cd883611f00565b816004013560038110156101fb57835260248201356001600160401b0381116101fb578201366023820112156101fb576004810135611d1681611fc4565b91611d246040519384611fa3565b818352602060046060828601940283010101903682116101fb57602401915b818310611dc757505050602084015260c0604319909101126101fb57611d9460405191611d6f83611f1b565b60448101358352606481013560208401526084810135604084015260a4369101611fdb565b60608201526040820152602435906001600160401b0382116101fb57611dc1610a6792369060040161201b565b916122d8565b6060833603126101fb576020606091604051611de281611f00565b85358152828601358382015260408601356040820152815201920191611d43565b346101fb5760203660031901126101fb576004356003548110156101fb57610a2a602091611e8f565b346101fb5760203660031901126101fb576020906001600160a01b03611e50611e65565b165f526006825260ff60405f20541615158152f35b600435906001600160a01b03821682036101fb57565b35906001600160a01b03821682036101fb57565b600354811015611ea75760035f5260205f2001905f90565b634e487b7160e01b5f52603260045260245ffd5b600754811015611ea75760075f5260205f2001905f90565b600254811015611ea75760025f5260205f2001905f90565b8054821015611ea7575f5260205f2001905f90565b606081019081106001600160401b038211176107f357604052565b608081019081106001600160401b038211176107f357604052565b60e081019081106001600160401b038211176107f357604052565b60c081019081106001600160401b038211176107f357604052565b6101a081019081106001600160401b038211176107f357604052565b60a081019081106001600160401b038211176107f357604052565b90601f801991011681019081106001600160401b038211176107f357604052565b6001600160401b0381116107f35760051b60200190565b91908260609103126101fb57604051611ff381611f00565b809280358252602081013563ffffffff811681036101fb576020830152604090810135910152565b9181601f840112156101fb578235916001600160401b0383116101fb57602083818601950101116101fb57565b9291926001600160401b0382116107f35760405191612071601f8201601f191660200184611fa3565b8294818452818301116101fb578281602093845f960137010152565b9080601f830112156101fb578160206120a893359101612048565b90565b359060ff821682036101fb57565b919060e0838203126101fb57604051906120d282611f88565b81936120dd81611e7b565b83526020810135916001600160401b0383116101fb5760808261210683839661212c960161208d565b602087015260408101356040870152612121606082016120ab565b606087015201611fdb565b910152565b91908281039261016084126101fb576040519161214d83611f36565b82948235845260208301356001600160401b0381116101fb5760a0926121749185016120b9565b6020850152603f1901126101fb576101409060405161219281611f88565b60408201358152606082013560208201526080820135604082015260a082013560608201526121c360c08301611e7b565b6080820152604084015260e08101356060840152610100810135608084015261012081013560a084015201359060038210156101fb5760c00152565b9181601f840112156101fb578235916001600160401b0383116101fb576020808501948460051b0101116101fb57565b805180835260209291819084018484015e5f828201840152601f01601f1916010190565b92919061225f81611fc4565b9361226d6040519586611fa3565b602085838152019160051b81019283116101fb57905b82821061228f57505050565b8135815260209182019101612283565b9080601f830112156101fb578160206120a893359101612253565b600311156122c457565b634e487b7160e01b5f52602160045260245ffd5b60405160208082015281515f949391927f00000000000000000000000000000000000000000000000000000000000000006001600160a01b0316918490610140820190612324816122ba565b604083015260208301519061010060608401528151809152602061016084019201905f5b818110612465575050506123a0606060406123ae95015180516080860152602081015160a0860152604081015160c0860152015160e0840190604080918051845263ffffffff60208201511660208501520151910152565b03601f198101855284611fa3565b803b156101fb5761240960205f9486946040519788968795869463020a49e360e51b86527f0000000000000000000000000000000000000000000000000000000000000000600487015260606024870152606486019061222f565b84810360031901604486015281815292858401378181018401889052601f01601f1916010301915afa9081612450575b5061244d576309bde33960e01b8152600490fd5b50565b61245d9192505f90611fa3565b5f905f612439565b919493509160206060600192604088518051835284810151858401520151604082015201950191019187939492612348565b602081528151602082015261016060c060208401519382604085015260018060a01b0385511661018085015261252560806124e3602088015160e06101a089015261026088019061222f565b6040808901516101c0890152606089015160ff166101e089015291909701518051610200880152602081015163ffffffff166102208801520151610240860152565b60408101518051606086015260208101516080860152604081015160a0860152606081015183860152608060018060a01b039101511660e08501526060810151610100850152608081015161012085015260a081015161014085015201519161258d836122ba565b015290565b903590601e19813603018212156101fb57018035906001600160401b0382116101fb576020019181360383136101fb57565b604051906125d182611f00565b5f6040838281528260208201520152565b60a09080518352602081015160208401526040810151604084015261262960608201516060850190604080918051845263ffffffff60208201511660208501520151910152565b6001600160401b0360808201511660c084015201519060028210156122c45760e00152565b90602080835192838152019201905f5b81811061266b5750505090565b90919260206101008261268160019488516125e2565b01940192910161265e565b356001600160401b03811681036101fb5790565b35906001600160401b03821682036101fb57565b91906101a0838203126101fb57604051906126ce82611f6c565b8193803583526126e0602082016126a0565b60208401526126f1604082016126a0565b6040840152606081013560608401526080810135608084015261271660a082016126a0565b60a084015260c08101356001600160401b0381116101fb576101809261273d91830161208d565b60c084015261274e60e08201611e7b565b60e08401526127606101008201611e7b565b61010084015261012081013561012084015261277f61014082016120ab565b61014084015261279261016082016126a0565b61016084015201359060038210156101fb576101800152565b356001600160a01b03811681036101fb5790565b9190820180921161089557565b90815181526001600160401b0360208301511660208201526001600160401b03604083015116604082015260608201516060820152608082015160808201526001600160401b0360a08301511660a08201526101808061283d60c08501516101a060c08601526101a085019061222f565b9360018060a01b0360e08201511660e085015260018060a01b036101008201511661010085015261012081015161012085015260ff610140820151166101408501526001600160401b036101608201511661016085015201519161258d836122ba565b9063ffffffff6128d383516020850194604084875116910151919091606092604051928352602083015260408201522090565b92511692600163ffffffff6128f85f545f52600160205263ffffffff60405f20541690565b16019163ffffffff831161089557612912945f5494612feb565b1561291957565b632814065160e01b5f5260045ffd5b9061293282611fc4565b61293f6040519182611fa3565b8281528092612950601f1991611fc4565b01905f5b82811061296057505050565b60209060405161296f81611f51565b5f81525f838201525f60408201526129856125c4565b60608201525f60808201525f60a082015282828501015201612954565b604051906129af82611f6c565b5f610180838281528260208201528260408201528260608201528260808201528260a0820152606060c08201528260e0820152826101008201528261012082015282610140820152826101608201520152565b9190811015611ea75760051b8101359061017e19813603018212156101fb570190565b90359061019e19813603018212156101fb570190565b903590601e19813603018212156101fb57018035906001600160401b0382116101fb57602001918160051b360383136101fb57565b3560ff811681036101fb5790565b8051821015611ea75760209160051b010190565b919091610100818403126101fb5760e060405191612aaf83611f51565b612ad5839582358552602083013560208601526040830135604086015260608301611fdb565b6060840152612ae660c082016126a0565b608084015201359060028210156101fb5760a00152565b919060145260345263a9059cbb60601b5f5260205f6044601082855af1908160015f51141615612b30575b50505f603452565b3b153d171015612b41575f80612b28565b6390b8ec185f526004601cfd5b612b5781612b88565b90612b6481516007611eeb565b90549060031b1c8203612b75575090565b51631ee9d36f60e31b5f5260045260245ffd5b604051612bab81612b9d602082019485612497565b03601f198101835282611fa3565b51902090565b9190915f54808414612c9957815f526001602052600160405f20015415612c8a575f526001602052600160405f20015491604081019283511115612c7b57602063ffffffff91015116915192604051604081018181106001600160401b038211176107f3577f4ecbd24cd7522746649cae9ac63fd99619cc85837ae3447a114bbbc3a8043496956040956001928752835260208301908152835f528160205263ffffffff865f2093511663ffffffff1984541617835551910155805f5582519182526020820152a1565b6307800bf560e21b5f5260045ffd5b63e1965c6560e01b5f5260045ffd5b50505050565b6001600160401b035f19911601906001600160401b03821161089557565b90918015612f245792612ccf84611fc4565b92612cdd6040519485611fa3565b848452601f19612cec86611fc4565b015f5b818110612f075750508390612d0386612928565b91600354905f9463ffffffff7f000000000000000000000000000000000000000000000000000000000000000016955b89811015612efb57612d4581856127bf565b8160051b86013560de19873603018112156101fb578601602081018b6001600160401b03612e0f610160610fe7612d7f61100b8789612a25565b95612db68a60408a0197604051612d9581611f00565b8b358152893560208201528a6040820152612db08383612a7e565b52612a7e565b50612dfe8882612dc960a0830183612a3b565b612de961014061108d612de160c08896980186612a3b565b969095612a25565b9360ff612df6368e611fdb565b9516946130b7565b612e088189612a25565b3597612a25565b1663ffffffff8d1603916001600160401b038311610895576001600160401b03612e7381620f42408f612e6a61048261047d8593610477612e64612e5861042f612e959f61316b565b6064886104408361318c565b916131ad565b160416426127bf565b169360405195612e8287611f51565b8652602086015260408501523690611fdb565b606083015260808201525f60a0820152612eaf8288612a7e565b52612eba8187612a7e565b50612ece612ec88288612a7e565b51613149565b90600354600160401b8110156107f35760019261079c8285612ef594016003556003611eeb565b01612d33565b50955095505050935050565b602090612f159794976125c4565b82828901015201959295612cef565b630b35156b60e31b5f5260045ffd5b638b78c6d819543303612f4257565b6382b429005f526004601cfd5b60018060a01b031680638b78c6d819547f8be0079c531659141344cd1fd0a4f28419497f9722a3daafe3b4186f6b6457e05f80a3638b78c6d81955565b612f9e612f9936836126b4565b612fce565b9035612fab816002611eeb565b90549060031b1c8203612fbc575090565b6366ac690f60e01b5f5260045260245ffd5b604051612bab81612b9d60208201946020865260408301906127cc565b939591929490955f945b845186101561304757600188811c9881160361302a576130158686612a7e565b515f52602052600160405f20955b0194612ff5565b6130348686612a7e565b51905f52602052600160405f2095613023565b95929650925092505f935f5b82518110156130ad57816130678285612a7e565b511461307557600101613053565b50509091925060015b156130a65761308c9061323e565b9081156130a65763ffffffff165f5260205260405f201490565b5050505f90565b505090919261307e565b949391926130cd6130d5926130dc953691612253565b923691612253565b90846128a0565b63ffffffff60206130fd5f545f52600160205263ffffffff60405f20541690565b930151169063ffffffff5f1991160163ffffffff81116108955763ffffffff160163ffffffff81116108955763ffffffff80911691161061313a57565b630a47293560e31b5f5260045ffd5b60405161315a6020820180936125e2565b6101008152612bab61012082611fa3565b6001600160401b031661a34802906001600160401b03821691820361089557565b6001600160401b03600a911602906001600160401b03821691820361089557565b6001600160401b03620f4240911602906001600160401b03821691820361089557565b6001600160401b0363036eaa48911601906001600160401b03821161089557565b6001600160401b03620f4240911601906001600160401b03821161089557565b906001600160401b03809116911601906001600160401b03821161089557565b9190820391821161089557565b80518015613294575f1981019081116108955761325b9082612a7e565b519080515f19810190811161089557805b61327557505090565b5f1901916132838383612a7e565b515f526020528160405f209261326c565b50505f90565b81810392915f13801582851316918412161761089557565b90919392938281101561332a57906132cd816132d393613231565b92613231565b908380841215613317576132ef936132ea9161329a565b613332565b600160ff1b8114610895575f03905b5f82820192831291129080158216911516176108955790565b6132ea906133249461329a565b906132fe565b505050905090565b8181029181159183041417820215613348570490565b63ad251c275f526004601cfd5b80516016811461355357601781146134dc576019811461340b5760221461337b57505f90565b805115611ea7576020810180516001600160f81b03191680156133ed57605160f81b146133a85750505f90565b815115611ea757516001600160f81b031916605160f81b1490816133ca575090565b8091505160011015611ea757602101516001600160f81b031916600160fd1b1490565b50815115611ea757516001600160f81b0319161590816133ca575090565b50805115611ea75760208101516001600160f81b031916603b60f91b1490816134b5575b8161348e575b81613467575b81613444575090565b8091505160181015611ea757603801516001600160f81b031916602b60fa1b1490565b8091505160171015611ea75760378101516001600160f81b031916601160fb1b149061343b565b8091505160021015611ea75760228101516001600160f81b031916600560fa1b1490613435565b8091505160011015611ea75760218101516001600160f81b03191660a960f81b149061342f565b50805115611ea75760208101516001600160f81b03191660a960f81b14908161352c575b81613509575090565b8091505160161015611ea757603601516001600160f81b031916608760f81b1490565b8091505160011015611ea75760218101516001600160f81b031916600560fa1b1490613500565b15611ea75760208101516001600160f81b031916159081613572575090565b8091505160011015611ea757602101516001600160f81b031916600560fa1b149056fea26469706673582212208f1e851fe61c154aa851b009da411ce172d5abe3249794088f12e1746f2c6e4764736f6c634300081c0033","linkReferences":{}},"methodIdentifiers":{"accumulatedFees()":"587f5ed7","addHypernode(address)":"cd9f63e3","adminSetFeeRouter(address)":"c286befa","adminSetTakerFeeBips(uint16)":"e58e0fe3","auctionHashes(uint256)":"f3bbbeef","blockFinalityTime()":"694a9d99","cancelOwnershipHandover()":"54d1f13d","checkpoints(bytes32)":"eb5e91ff","circuitVerificationKey()":"3d7b22b3","claimAuction((uint256,(address,bytes,bytes32,uint8,(bytes32,uint32,uint256)),(uint256,uint256,uint256,uint256,address),uint256,uint256,uint256,uint8),bytes,bytes32[],bytes32[])":"fb9f0532","completeOwnershipHandover(address)":"f04e283e","eip712Domain()":"84b0196e","feeRouter()":"f29ebf61","getTotalOrders()":"375f16a7","getTotalPayments()":"708f29a6","hypernodes(address)":"0cd01d8e","lightClientHeight()":"cc38cd7d","mmrRoot()":"d21ddc61","orderHashes(uint256)":"df69558c","owner()":"8da5cb5b","ownershipHandoverExpiresAt(address)":"fee81cf4","paymentHashes(uint256)":"1127a80b","refundAuction((uint256,(address,bytes,bytes32,uint8,(bytes32,uint32,uint256)),(uint256,uint256,uint256,uint256,address),uint256,uint256,uint256,uint8))":"481c85f1","refundOrder((uint256,uint64,uint64,uint256,uint256,uint64,bytes,address,address,bytes32,uint8,uint64,uint8))":"7e025807","removeHypernode(address)":"ef29ac8e","renounceOwnership()":"715018a6","requestOwnershipHandover()":"25692962","settleOrders(((uint256,uint64,uint64,uint256,uint256,uint64,bytes,address,address,bytes32,uint8,uint64,uint8),(uint256,uint256,bytes32,(bytes32,uint32,uint256),uint64,uint8),bytes32[],bytes32[],uint32)[])":"a743e65e","startAuction(uint256,(uint256,uint256,uint256,uint256,address),(address,bytes,bytes32,uint8,(bytes32,uint32,uint256)))":"7dd9cb31","submitPaymentProofs((bytes32,(uint256,uint64,uint64,uint256,uint256,uint64,bytes,address,address,bytes32,uint8,uint64,uint8),(bytes32,uint32,uint256),bytes32[],bytes32[])[],(bytes32,bytes32,bytes,(bytes32,uint32,uint256)),bytes)":"66e143ca","submitPaymentProofsOnly((bytes32,(uint256,uint64,uint64,uint256,uint256,uint64,bytes,address,address,bytes32,uint8,uint64,uint8),(bytes32,uint32,uint256),bytes32[],bytes32[])[],bytes)":"bb85e189","takerFeeBips()":"9a73f4f5","tokenizedBitcoin()":"c8298542","transferOwnership(address)":"f2fde38b","updateLightClient((bytes32,bytes32,bytes,(bytes32,uint32,uint256)),bytes)":"592b6649","verifier()":"2b7ac3f3","verifyBlockInclusion((bytes32,uint32,uint256),bytes32[],bytes32[])":"a24462ea","verifyProof((uint8,(bytes32,bytes32,bytes32)[],(bytes32,bytes32,bytes32,(bytes32,uint32,uint256))),bytes)":"1ea7ec04","withdrawFees()":"476343ee"},"storageLayout":{"storage":[{"astId":53523,"contract":"src/BTCDutchAuctionHouse.sol:BTCDutchAuctionHouse","label":"mmrRoot","offset":0,"slot":"0","type":"t_bytes32"},{"astId":53528,"contract":"src/BTCDutchAuctionHouse.sol:BTCDutchAuctionHouse","label":"checkpoints","offset":0,"slot":"1","type":"t_mapping(t_bytes32,t_struct(Checkpoint)55097_storage)"},{"astId":53937,"contract":"src/BTCDutchAuctionHouse.sol:BTCDutchAuctionHouse","label":"orderHashes","offset":0,"slot":"2","type":"t_array(t_bytes32)dyn_storage"},{"astId":53940,"contract":"src/BTCDutchAuctionHouse.sol:BTCDutchAuctionHouse","label":"paymentHashes","offset":0,"slot":"3","type":"t_array(t_bytes32)dyn_storage"},{"astId":53942,"contract":"src/BTCDutchAuctionHouse.sol:BTCDutchAuctionHouse","label":"accumulatedFees","offset":0,"slot":"4","type":"t_uint256"},{"astId":53944,"contract":"src/BTCDutchAuctionHouse.sol:BTCDutchAuctionHouse","label":"feeRouter","offset":0,"slot":"5","type":"t_address"},{"astId":53946,"contract":"src/BTCDutchAuctionHouse.sol:BTCDutchAuctionHouse","label":"takerFeeBips","offset":20,"slot":"5","type":"t_uint16"},{"astId":53950,"contract":"src/BTCDutchAuctionHouse.sol:BTCDutchAuctionHouse","label":"hypernodes","offset":0,"slot":"6","type":"t_mapping(t_address,t_bool)"},{"astId":53182,"contract":"src/BTCDutchAuctionHouse.sol:BTCDutchAuctionHouse","label":"auctionHashes","offset":0,"slot":"7","type":"t_array(t_bytes32)dyn_storage"}],"types":{"t_address":{"encoding":"inplace","label":"address","numberOfBytes":"20"},"t_array(t_bytes32)dyn_storage":{"encoding":"dynamic_array","label":"bytes32[]","numberOfBytes":"32","base":"t_bytes32"},"t_bool":{"encoding":"inplace","label":"bool","numberOfBytes":"1"},"t_bytes32":{"encoding":"inplace","label":"bytes32","numberOfBytes":"32"},"t_mapping(t_address,t_bool)":{"encoding":"mapping","key":"t_address","label":"mapping(address => bool)","numberOfBytes":"32","value":"t_bool"},"t_mapping(t_bytes32,t_struct(Checkpoint)55097_storage)":{"encoding":"mapping","key":"t_bytes32","label":"mapping(bytes32 => struct Checkpoint)","numberOfBytes":"32","value":"t_struct(Checkpoint)55097_storage"},"t_struct(Checkpoint)55097_storage":{"encoding":"inplace","label":"struct Checkpoint","numberOfBytes":"64","members":[{"astId":55094,"contract":"src/BTCDutchAuctionHouse.sol:BTCDutchAuctionHouse","label":"height","offset":0,"slot":"0","type":"t_uint32"},{"astId":55096,"contract":"src/BTCDutchAuctionHouse.sol:BTCDutchAuctionHouse","label":"cumulativeChainwork","offset":0,"slot":"1","type":"t_uint256"}]},"t_uint16":{"encoding":"inplace","label":"uint16","numberOfBytes":"2"},"t_uint256":{"encoding":"inplace","label":"uint256","numberOfBytes":"32"},"t_uint32":{"encoding":"inplace","label":"uint32","numberOfBytes":"4"}}},"id":67}