{"abi":[{"type":"constructor","inputs":[{"name":"_mmrRoot","type":"bytes32","internalType":"bytes32"},{"name":"_syntheticBitcoin","type":"address","internalType":"address"},{"name":"_circuitVerificationKey","type":"bytes32","internalType":"bytes32"},{"name":"_verifier","type":"address","internalType":"address"},{"name":"_feeRouter","type":"address","internalType":"address"},{"name":"_takerFeeBips","type":"uint16","internalType":"uint16"},{"name":"_tipBlockLeaf","type":"tuple","internalType":"struct BlockLeaf","components":[{"name":"blockHash","type":"bytes32","internalType":"bytes32"},{"name":"height","type":"uint32","internalType":"uint32"},{"name":"cumulativeChainwork","type":"uint256","internalType":"uint256"}]}],"stateMutability":"nonpayable"},{"type":"function","name":"accumulatedFees","inputs":[],"outputs":[{"name":"","type":"uint256","internalType":"uint256"}],"stateMutability":"view"},{"type":"function","name":"adminSetFeeRouter","inputs":[{"name":"_feeRouter","type":"address","internalType":"address"}],"outputs":[],"stateMutability":"nonpayable"},{"type":"function","name":"adminSetTakerFeeBips","inputs":[{"name":"_takerFeeBips","type":"uint16","internalType":"uint16"}],"outputs":[],"stateMutability":"nonpayable"},{"type":"function","name":"auctionHashes","inputs":[{"name":"","type":"uint256","internalType":"uint256"}],"outputs":[{"name":"","type":"bytes32","internalType":"bytes32"}],"stateMutability":"view"},{"type":"function","name":"cancelOwnershipHandover","inputs":[],"outputs":[],"stateMutability":"payable"},{"type":"function","name":"checkpoints","inputs":[{"name":"","type":"bytes32","internalType":"bytes32"}],"outputs":[{"name":"height","type":"uint32","internalType":"uint32"},{"name":"cumulativeChainwork","type":"uint256","internalType":"uint256"}],"stateMutability":"view"},{"type":"function","name":"circuitVerificationKey","inputs":[],"outputs":[{"name":"","type":"bytes32","internalType":"bytes32"}],"stateMutability":"view"},{"type":"function","name":"claimAuction","inputs":[{"name":"auction","type":"tuple","internalType":"struct DutchAuction","components":[{"name":"index","type":"uint256","internalType":"uint256"},{"name":"baseCreateOrderParams","type":"tuple","internalType":"struct BaseCreateOrderParams","components":[{"name":"owner","type":"address","internalType":"address"},{"name":"bitcoinScriptPubKey","type":"bytes","internalType":"bytes"},{"name":"salt","type":"bytes32","internalType":"bytes32"},{"name":"confirmationBlocks","type":"uint8","internalType":"uint8"},{"name":"safeBlockLeaf","type":"tuple","internalType":"struct BlockLeaf","components":[{"name":"blockHash","type":"bytes32","internalType":"bytes32"},{"name":"height","type":"uint32","internalType":"uint32"},{"name":"cumulativeChainwork","type":"uint256","internalType":"uint256"}]}]},{"name":"dutchAuctionParams","type":"tuple","internalType":"struct DutchAuctionParams","components":[{"name":"startBtcOut","type":"uint256","internalType":"uint256"},{"name":"endBtcOut","type":"uint256","internalType":"uint256"},{"name":"decayBlocks","type":"uint256","internalType":"uint256"},{"name":"deadline","type":"uint256","internalType":"uint256"},{"name":"fillerWhitelistContract","type":"address","internalType":"address"}]},{"name":"depositAmount","type":"uint256","internalType":"uint256"},{"name":"startBlock","type":"uint256","internalType":"uint256"},{"name":"startTimestamp","type":"uint256","internalType":"uint256"},{"name":"state","type":"uint8","internalType":"enum DutchAuctionState"}]},{"name":"fillerAuthData","type":"bytes","internalType":"bytes"},{"name":"safeBlockSiblings","type":"bytes32[]","internalType":"bytes32[]"},{"name":"safeBlockPeaks","type":"bytes32[]","internalType":"bytes32[]"}],"outputs":[],"stateMutability":"nonpayable"},{"type":"function","name":"completeOwnershipHandover","inputs":[{"name":"pendingOwner","type":"address","internalType":"address"}],"outputs":[],"stateMutability":"payable"},{"type":"function","name":"eip712Domain","inputs":[],"outputs":[{"name":"fields","type":"bytes1","internalType":"bytes1"},{"name":"name","type":"string","internalType":"string"},{"name":"version","type":"string","internalType":"string"},{"name":"chainId","type":"uint256","internalType":"uint256"},{"name":"verifyingContract","type":"address","internalType":"address"},{"name":"salt","type":"bytes32","internalType":"bytes32"},{"name":"extensions","type":"uint256[]","internalType":"uint256[]"}],"stateMutability":"view"},{"type":"function","name":"feeRouter","inputs":[],"outputs":[{"name":"","type":"address","internalType":"address"}],"stateMutability":"view"},{"type":"function","name":"getTotalOrders","inputs":[],"outputs":[{"name":"","type":"uint256","internalType":"uint256"}],"stateMutability":"view"},{"type":"function","name":"getTotalPayments","inputs":[],"outputs":[{"name":"","type":"uint256","internalType":"uint256"}],"stateMutability":"view"},{"type":"function","name":"lightClientHeight","inputs":[],"outputs":[{"name":"","type":"uint32","internalType":"uint32"}],"stateMutability":"view"},{"type":"function","name":"mmrRoot","inputs":[],"outputs":[{"name":"","type":"bytes32","internalType":"bytes32"}],"stateMutability":"view"},{"type":"function","name":"orderHashes","inputs":[{"name":"","type":"uint256","internalType":"uint256"}],"outputs":[{"name":"","type":"bytes32","internalType":"bytes32"}],"stateMutability":"view"},{"type":"function","name":"owner","inputs":[],"outputs":[{"name":"result","type":"address","internalType":"address"}],"stateMutability":"view"},{"type":"function","name":"ownershipHandoverExpiresAt","inputs":[{"name":"pendingOwner","type":"address","internalType":"address"}],"outputs":[{"name":"result","type":"uint256","internalType":"uint256"}],"stateMutability":"view"},{"type":"function","name":"paymentHashes","inputs":[{"name":"","type":"uint256","internalType":"uint256"}],"outputs":[{"name":"","type":"bytes32","internalType":"bytes32"}],"stateMutability":"view"},{"type":"function","name":"refundAuction","inputs":[{"name":"auction","type":"tuple","internalType":"struct DutchAuction","components":[{"name":"index","type":"uint256","internalType":"uint256"},{"name":"baseCreateOrderParams","type":"tuple","internalType":"struct BaseCreateOrderParams","components":[{"name":"owner","type":"address","internalType":"address"},{"name":"bitcoinScriptPubKey","type":"bytes","internalType":"bytes"},{"name":"salt","type":"bytes32","internalType":"bytes32"},{"name":"confirmationBlocks","type":"uint8","internalType":"uint8"},{"name":"safeBlockLeaf","type":"tuple","internalType":"struct BlockLeaf","components":[{"name":"blockHash","type":"bytes32","internalType":"bytes32"},{"name":"height","type":"uint32","internalType":"uint32"},{"name":"cumulativeChainwork","type":"uint256","internalType":"uint256"}]}]},{"name":"dutchAuctionParams","type":"tuple","internalType":"struct DutchAuctionParams","components":[{"name":"startBtcOut","type":"uint256","internalType":"uint256"},{"name":"endBtcOut","type":"uint256","internalType":"uint256"},{"name":"decayBlocks","type":"uint256","internalType":"uint256"},{"name":"deadline","type":"uint256","internalType":"uint256"},{"name":"fillerWhitelistContract","type":"address","internalType":"address"}]},{"name":"depositAmount","type":"uint256","internalType":"uint256"},{"name":"startBlock","type":"uint256","internalType":"uint256"},{"name":"startTimestamp","type":"uint256","internalType":"uint256"},{"name":"state","type":"uint8","internalType":"enum DutchAuctionState"}]}],"outputs":[],"stateMutability":"nonpayable"},{"type":"function","name":"refundOrder","inputs":[{"name":"order","type":"tuple","internalType":"struct Order","components":[{"name":"index","type":"uint256","internalType":"uint256"},{"name":"timestamp","type":"uint64","internalType":"uint64"},{"name":"unlockTimestamp","type":"uint64","internalType":"uint64"},{"name":"amount","type":"uint256","internalType":"uint256"},{"name":"takerFee","type":"uint256","internalType":"uint256"},{"name":"expectedSats","type":"uint64","internalType":"uint64"},{"name":"bitcoinScriptPubKey","type":"bytes","internalType":"bytes"},{"name":"designatedReceiver","type":"address","internalType":"address"},{"name":"owner","type":"address","internalType":"address"},{"name":"salt","type":"bytes32","internalType":"bytes32"},{"name":"confirmationBlocks","type":"uint8","internalType":"uint8"},{"name":"safeBitcoinBlockHeight","type":"uint64","internalType":"uint64"},{"name":"state","type":"uint8","internalType":"enum OrderState"}]}],"outputs":[],"stateMutability":"nonpayable"},{"type":"function","name":"renounceOwnership","inputs":[],"outputs":[],"stateMutability":"payable"},{"type":"function","name":"requestOwnershipHandover","inputs":[],"outputs":[],"stateMutability":"payable"},{"type":"function","name":"settleOrders","inputs":[{"name":"settleOrderParams","type":"tuple[]","internalType":"struct SettleOrderParams[]","components":[{"name":"order","type":"tuple","internalType":"struct Order","components":[{"name":"index","type":"uint256","internalType":"uint256"},{"name":"timestamp","type":"uint64","internalType":"uint64"},{"name":"unlockTimestamp","type":"uint64","internalType":"uint64"},{"name":"amount","type":"uint256","internalType":"uint256"},{"name":"takerFee","type":"uint256","internalType":"uint256"},{"name":"expectedSats","type":"uint64","internalType":"uint64"},{"name":"bitcoinScriptPubKey","type":"bytes","internalType":"bytes"},{"name":"designatedReceiver","type":"address","internalType":"address"},{"name":"owner","type":"address","internalType":"address"},{"name":"salt","type":"bytes32","internalType":"bytes32"},{"name":"confirmationBlocks","type":"uint8","internalType":"uint8"},{"name":"safeBitcoinBlockHeight","type":"uint64","internalType":"uint64"},{"name":"state","type":"uint8","internalType":"enum OrderState"}]},{"name":"payment","type":"tuple","internalType":"struct Payment","components":[{"name":"index","type":"uint256","internalType":"uint256"},{"name":"orderIndex","type":"uint256","internalType":"uint256"},{"name":"orderHash","type":"bytes32","internalType":"bytes32"},{"name":"paymentBitcoinBlockLeaf","type":"tuple","internalType":"struct BlockLeaf","components":[{"name":"blockHash","type":"bytes32","internalType":"bytes32"},{"name":"height","type":"uint32","internalType":"uint32"},{"name":"cumulativeChainwork","type":"uint256","internalType":"uint256"}]},{"name":"challengeExpiryTimestamp","type":"uint64","internalType":"uint64"},{"name":"state","type":"uint8","internalType":"enum PaymentState"}]},{"name":"paymentBitcoinBlockSiblings","type":"bytes32[]","internalType":"bytes32[]"},{"name":"paymentBitcoinBlockPeaks","type":"bytes32[]","internalType":"bytes32[]"},{"name":"tipBlockHeight","type":"uint32","internalType":"uint32"}]}],"outputs":[],"stateMutability":"nonpayable"},{"type":"function","name":"startAuction","inputs":[{"name":"depositAmount","type":"uint256","internalType":"uint256"},{"name":"auctionParams","type":"tuple","internalType":"struct DutchAuctionParams","components":[{"name":"startBtcOut","type":"uint256","internalType":"uint256"},{"name":"endBtcOut","type":"uint256","internalType":"uint256"},{"name":"decayBlocks","type":"uint256","internalType":"uint256"},{"name":"deadline","type":"uint256","internalType":"uint256"},{"name":"fillerWhitelistContract","type":"address","internalType":"address"}]},{"name":"baseCreateOrderParams","type":"tuple","internalType":"struct BaseCreateOrderParams","components":[{"name":"owner","type":"address","internalType":"address"},{"name":"bitcoinScriptPubKey","type":"bytes","internalType":"bytes"},{"name":"salt","type":"bytes32","internalType":"bytes32"},{"name":"confirmationBlocks","type":"uint8","internalType":"uint8"},{"name":"safeBlockLeaf","type":"tuple","internalType":"struct BlockLeaf","components":[{"name":"blockHash","type":"bytes32","internalType":"bytes32"},{"name":"height","type":"uint32","internalType":"uint32"},{"name":"cumulativeChainwork","type":"uint256","internalType":"uint256"}]}]}],"outputs":[],"stateMutability":"nonpayable"},{"type":"function","name":"submitPaymentProofs","inputs":[{"name":"paymentParams","type":"tuple[]","internalType":"struct SubmitPaymentProofParams[]","components":[{"name":"paymentBitcoinTxid","type":"bytes32","internalType":"bytes32"},{"name":"order","type":"tuple","internalType":"struct Order","components":[{"name":"index","type":"uint256","internalType":"uint256"},{"name":"timestamp","type":"uint64","internalType":"uint64"},{"name":"unlockTimestamp","type":"uint64","internalType":"uint64"},{"name":"amount","type":"uint256","internalType":"uint256"},{"name":"takerFee","type":"uint256","internalType":"uint256"},{"name":"expectedSats","type":"uint64","internalType":"uint64"},{"name":"bitcoinScriptPubKey","type":"bytes","internalType":"bytes"},{"name":"designatedReceiver","type":"address","internalType":"address"},{"name":"owner","type":"address","internalType":"address"},{"name":"salt","type":"bytes32","internalType":"bytes32"},{"name":"confirmationBlocks","type":"uint8","internalType":"uint8"},{"name":"safeBitcoinBlockHeight","type":"uint64","internalType":"uint64"},{"name":"state","type":"uint8","internalType":"enum OrderState"}]},{"name":"paymentBitcoinBlockLeaf","type":"tuple","internalType":"struct BlockLeaf","components":[{"name":"blockHash","type":"bytes32","internalType":"bytes32"},{"name":"height","type":"uint32","internalType":"uint32"},{"name":"cumulativeChainwork","type":"uint256","internalType":"uint256"}]},{"name":"paymentBitcoinBlockSiblings","type":"bytes32[]","internalType":"bytes32[]"},{"name":"paymentBitcoinBlockPeaks","type":"bytes32[]","internalType":"bytes32[]"}]},{"name":"blockProofParams","type":"tuple","internalType":"struct BlockProofParams","components":[{"name":"priorMmrRoot","type":"bytes32","internalType":"bytes32"},{"name":"newMmrRoot","type":"bytes32","internalType":"bytes32"},{"name":"compressedBlockLeaves","type":"bytes","internalType":"bytes"},{"name":"tipBlockLeaf","type":"tuple","internalType":"struct BlockLeaf","components":[{"name":"blockHash","type":"bytes32","internalType":"bytes32"},{"name":"height","type":"uint32","internalType":"uint32"},{"name":"cumulativeChainwork","type":"uint256","internalType":"uint256"}]}]},{"name":"proof","type":"bytes","internalType":"bytes"}],"outputs":[],"stateMutability":"nonpayable"},{"type":"function","name":"submitPaymentProofsOnly","inputs":[{"name":"paymentParams","type":"tuple[]","internalType":"struct SubmitPaymentProofParams[]","components":[{"name":"paymentBitcoinTxid","type":"bytes32","internalType":"bytes32"},{"name":"order","type":"tuple","internalType":"struct Order","components":[{"name":"index","type":"uint256","internalType":"uint256"},{"name":"timestamp","type":"uint64","internalType":"uint64"},{"name":"unlockTimestamp","type":"uint64","internalType":"uint64"},{"name":"amount","type":"uint256","internalType":"uint256"},{"name":"takerFee","type":"uint256","internalType":"uint256"},{"name":"expectedSats","type":"uint64","internalType":"uint64"},{"name":"bitcoinScriptPubKey","type":"bytes","internalType":"bytes"},{"name":"designatedReceiver","type":"address","internalType":"address"},{"name":"owner","type":"address","internalType":"address"},{"name":"salt","type":"bytes32","internalType":"bytes32"},{"name":"confirmationBlocks","type":"uint8","internalType":"uint8"},{"name":"safeBitcoinBlockHeight","type":"uint64","internalType":"uint64"},{"name":"state","type":"uint8","internalType":"enum OrderState"}]},{"name":"paymentBitcoinBlockLeaf","type":"tuple","internalType":"struct BlockLeaf","components":[{"name":"blockHash","type":"bytes32","internalType":"bytes32"},{"name":"height","type":"uint32","internalType":"uint32"},{"name":"cumulativeChainwork","type":"uint256","internalType":"uint256"}]},{"name":"paymentBitcoinBlockSiblings","type":"bytes32[]","internalType":"bytes32[]"},{"name":"paymentBitcoinBlockPeaks","type":"bytes32[]","internalType":"bytes32[]"}]},{"name":"proof","type":"bytes","internalType":"bytes"}],"outputs":[],"stateMutability":"nonpayable"},{"type":"function","name":"syntheticBitcoin","inputs":[],"outputs":[{"name":"","type":"address","internalType":"address"}],"stateMutability":"view"},{"type":"function","name":"takerFeeBips","inputs":[],"outputs":[{"name":"","type":"uint16","internalType":"uint16"}],"stateMutability":"view"},{"type":"function","name":"transferOwnership","inputs":[{"name":"newOwner","type":"address","internalType":"address"}],"outputs":[],"stateMutability":"payable"},{"type":"function","name":"updateLightClient","inputs":[{"name":"blockProofParams","type":"tuple","internalType":"struct BlockProofParams","components":[{"name":"priorMmrRoot","type":"bytes32","internalType":"bytes32"},{"name":"newMmrRoot","type":"bytes32","internalType":"bytes32"},{"name":"compressedBlockLeaves","type":"bytes","internalType":"bytes"},{"name":"tipBlockLeaf","type":"tuple","internalType":"struct BlockLeaf","components":[{"name":"blockHash","type":"bytes32","internalType":"bytes32"},{"name":"height","type":"uint32","internalType":"uint32"},{"name":"cumulativeChainwork","type":"uint256","internalType":"uint256"}]}]},{"name":"proof","type":"bytes","internalType":"bytes"}],"outputs":[],"stateMutability":"nonpayable"},{"type":"function","name":"verifier","inputs":[],"outputs":[{"name":"","type":"address","internalType":"address"}],"stateMutability":"view"},{"type":"function","name":"verifyBlockInclusion","inputs":[{"name":"blockLeaf","type":"tuple","internalType":"struct BlockLeaf","components":[{"name":"blockHash","type":"bytes32","internalType":"bytes32"},{"name":"height","type":"uint32","internalType":"uint32"},{"name":"cumulativeChainwork","type":"uint256","internalType":"uint256"}]},{"name":"siblings","type":"bytes32[]","internalType":"bytes32[]"},{"name":"peaks","type":"bytes32[]","internalType":"bytes32[]"}],"outputs":[],"stateMutability":"view"},{"type":"function","name":"verifyProof","inputs":[{"name":"proofPublicInput","type":"tuple","internalType":"struct ProofPublicInput","components":[{"name":"proofType","type":"uint8","internalType":"enum ProofType"},{"name":"payments","type":"tuple[]","internalType":"struct PaymentPublicInput[]","components":[{"name":"paymentBitcoinTxid","type":"bytes32","internalType":"bytes32"},{"name":"paymentBitcoinBlockHash","type":"bytes32","internalType":"bytes32"},{"name":"orderHash","type":"bytes32","internalType":"bytes32"}]},{"name":"lightClient","type":"tuple","internalType":"struct LightClientPublicInput","components":[{"name":"priorMmrRoot","type":"bytes32","internalType":"bytes32"},{"name":"newMmrRoot","type":"bytes32","internalType":"bytes32"},{"name":"compressedLeavesHash","type":"bytes32","internalType":"bytes32"},{"name":"tipBlockLeaf","type":"tuple","internalType":"struct BlockLeaf","components":[{"name":"blockHash","type":"bytes32","internalType":"bytes32"},{"name":"height","type":"uint32","internalType":"uint32"},{"name":"cumulativeChainwork","type":"uint256","internalType":"uint256"}]}]}]},{"name":"proof","type":"bytes","internalType":"bytes"}],"outputs":[],"stateMutability":"view"},{"type":"function","name":"withdrawFees","inputs":[],"outputs":[],"stateMutability":"nonpayable"},{"type":"event","name":"AuctionUpdated","inputs":[{"name":"auction","type":"tuple","indexed":false,"internalType":"struct DutchAuction","components":[{"name":"index","type":"uint256","internalType":"uint256"},{"name":"baseCreateOrderParams","type":"tuple","internalType":"struct BaseCreateOrderParams","components":[{"name":"owner","type":"address","internalType":"address"},{"name":"bitcoinScriptPubKey","type":"bytes","internalType":"bytes"},{"name":"salt","type":"bytes32","internalType":"bytes32"},{"name":"confirmationBlocks","type":"uint8","internalType":"uint8"},{"name":"safeBlockLeaf","type":"tuple","internalType":"struct BlockLeaf","components":[{"name":"blockHash","type":"bytes32","internalType":"bytes32"},{"name":"height","type":"uint32","internalType":"uint32"},{"name":"cumulativeChainwork","type":"uint256","internalType":"uint256"}]}]},{"name":"dutchAuctionParams","type":"tuple","internalType":"struct DutchAuctionParams","components":[{"name":"startBtcOut","type":"uint256","internalType":"uint256"},{"name":"endBtcOut","type":"uint256","internalType":"uint256"},{"name":"decayBlocks","type":"uint256","internalType":"uint256"},{"name":"deadline","type":"uint256","internalType":"uint256"},{"name":"fillerWhitelistContract","type":"address","internalType":"address"}]},{"name":"depositAmount","type":"uint256","internalType":"uint256"},{"name":"startBlock","type":"uint256","internalType":"uint256"},{"name":"startTimestamp","type":"uint256","internalType":"uint256"},{"name":"state","type":"uint8","internalType":"enum DutchAuctionState"}]}],"anonymous":false},{"type":"event","name":"BitcoinLightClientUpdated","inputs":[{"name":"priorMmrRoot","type":"bytes32","indexed":false,"internalType":"bytes32"},{"name":"newMmrRoot","type":"bytes32","indexed":false,"internalType":"bytes32"}],"anonymous":false},{"type":"event","name":"OrderCreated","inputs":[{"name":"order","type":"tuple","indexed":false,"internalType":"struct Order","components":[{"name":"index","type":"uint256","internalType":"uint256"},{"name":"timestamp","type":"uint64","internalType":"uint64"},{"name":"unlockTimestamp","type":"uint64","internalType":"uint64"},{"name":"amount","type":"uint256","internalType":"uint256"},{"name":"takerFee","type":"uint256","internalType":"uint256"},{"name":"expectedSats","type":"uint64","internalType":"uint64"},{"name":"bitcoinScriptPubKey","type":"bytes","internalType":"bytes"},{"name":"designatedReceiver","type":"address","internalType":"address"},{"name":"owner","type":"address","internalType":"address"},{"name":"salt","type":"bytes32","internalType":"bytes32"},{"name":"confirmationBlocks","type":"uint8","internalType":"uint8"},{"name":"safeBitcoinBlockHeight","type":"uint64","internalType":"uint64"},{"name":"state","type":"uint8","internalType":"enum OrderState"}]}],"anonymous":false},{"type":"event","name":"OrderRefunded","inputs":[{"name":"order","type":"tuple","indexed":false,"internalType":"struct Order","components":[{"name":"index","type":"uint256","internalType":"uint256"},{"name":"timestamp","type":"uint64","internalType":"uint64"},{"name":"unlockTimestamp","type":"uint64","internalType":"uint64"},{"name":"amount","type":"uint256","internalType":"uint256"},{"name":"takerFee","type":"uint256","internalType":"uint256"},{"name":"expectedSats","type":"uint64","internalType":"uint64"},{"name":"bitcoinScriptPubKey","type":"bytes","internalType":"bytes"},{"name":"designatedReceiver","type":"address","internalType":"address"},{"name":"owner","type":"address","internalType":"address"},{"name":"salt","type":"bytes32","internalType":"bytes32"},{"name":"confirmationBlocks","type":"uint8","internalType":"uint8"},{"name":"safeBitcoinBlockHeight","type":"uint64","internalType":"uint64"},{"name":"state","type":"uint8","internalType":"enum OrderState"}]}],"anonymous":false},{"type":"event","name":"OrdersSettled","inputs":[{"name":"orders","type":"tuple[]","indexed":false,"internalType":"struct Order[]","components":[{"name":"index","type":"uint256","internalType":"uint256"},{"name":"timestamp","type":"uint64","internalType":"uint64"},{"name":"unlockTimestamp","type":"uint64","internalType":"uint64"},{"name":"amount","type":"uint256","internalType":"uint256"},{"name":"takerFee","type":"uint256","internalType":"uint256"},{"name":"expectedSats","type":"uint64","internalType":"uint64"},{"name":"bitcoinScriptPubKey","type":"bytes","internalType":"bytes"},{"name":"designatedReceiver","type":"address","internalType":"address"},{"name":"owner","type":"address","internalType":"address"},{"name":"salt","type":"bytes32","internalType":"bytes32"},{"name":"confirmationBlocks","type":"uint8","internalType":"uint8"},{"name":"safeBitcoinBlockHeight","type":"uint64","internalType":"uint64"},{"name":"state","type":"uint8","internalType":"enum OrderState"}]},{"name":"payments","type":"tuple[]","indexed":false,"internalType":"struct Payment[]","components":[{"name":"index","type":"uint256","internalType":"uint256"},{"name":"orderIndex","type":"uint256","internalType":"uint256"},{"name":"orderHash","type":"bytes32","internalType":"bytes32"},{"name":"paymentBitcoinBlockLeaf","type":"tuple","internalType":"struct BlockLeaf","components":[{"name":"blockHash","type":"bytes32","internalType":"bytes32"},{"name":"height","type":"uint32","internalType":"uint32"},{"name":"cumulativeChainwork","type":"uint256","internalType":"uint256"}]},{"name":"challengeExpiryTimestamp","type":"uint64","internalType":"uint64"},{"name":"state","type":"uint8","internalType":"enum PaymentState"}]}],"anonymous":false},{"type":"event","name":"OwnershipHandoverCanceled","inputs":[{"name":"pendingOwner","type":"address","indexed":true,"internalType":"address"}],"anonymous":false},{"type":"event","name":"OwnershipHandoverRequested","inputs":[{"name":"pendingOwner","type":"address","indexed":true,"internalType":"address"}],"anonymous":false},{"type":"event","name":"OwnershipTransferred","inputs":[{"name":"oldOwner","type":"address","indexed":true,"internalType":"address"},{"name":"newOwner","type":"address","indexed":true,"internalType":"address"}],"anonymous":false},{"type":"event","name":"PaymentsCreated","inputs":[{"name":"payments","type":"tuple[]","indexed":false,"internalType":"struct Payment[]","components":[{"name":"index","type":"uint256","internalType":"uint256"},{"name":"orderIndex","type":"uint256","internalType":"uint256"},{"name":"orderHash","type":"bytes32","internalType":"bytes32"},{"name":"paymentBitcoinBlockLeaf","type":"tuple","internalType":"struct BlockLeaf","components":[{"name":"blockHash","type":"bytes32","internalType":"bytes32"},{"name":"height","type":"uint32","internalType":"uint32"},{"name":"cumulativeChainwork","type":"uint256","internalType":"uint256"}]},{"name":"challengeExpiryTimestamp","type":"uint64","internalType":"uint64"},{"name":"state","type":"uint8","internalType":"enum PaymentState"}]}],"anonymous":false},{"type":"error","name":"AlreadyInitialized","inputs":[]},{"type":"error","name":"AuctionExpired","inputs":[]},{"type":"error","name":"AuctionNotExpired","inputs":[]},{"type":"error","name":"AuctionNotLive","inputs":[]},{"type":"error","name":"BlockNotConfirmed","inputs":[]},{"type":"error","name":"BlockNotInChain","inputs":[]},{"type":"error","name":"ChainworkTooLow","inputs":[]},{"type":"error","name":"CheckpointNotEstablished","inputs":[]},{"type":"error","name":"DepositAmountTooLow","inputs":[]},{"type":"error","name":"DutchAuctionDoesNotExist","inputs":[]},{"type":"error","name":"FillerNotWhitelisted","inputs":[]},{"type":"error","name":"InvalidAuctionRange","inputs":[]},{"type":"error","name":"InvalidDeadline","inputs":[]},{"type":"error","name":"InvalidDecimals","inputs":[{"name":"actual","type":"uint8","internalType":"uint8"},{"name":"expected","type":"uint8","internalType":"uint8"}]},{"type":"error","name":"InvalidOrderHash","inputs":[{"name":"actual","type":"bytes32","internalType":"bytes32"},{"name":"expected","type":"bytes32","internalType":"bytes32"}]},{"type":"error","name":"InvalidScriptPubKey","inputs":[]},{"type":"error","name":"InvalidTickSize","inputs":[]},{"type":"error","name":"NewOwnerIsZeroAddress","inputs":[]},{"type":"error","name":"NoFeeToWithdraw","inputs":[]},{"type":"error","name":"NoHandoverRequest","inputs":[]},{"type":"error","name":"NoPaymentsToSubmit","inputs":[]},{"type":"error","name":"NotEnoughConfirmationBlocks","inputs":[]},{"type":"error","name":"OrderDoesNotExist","inputs":[]},{"type":"error","name":"OrderNotLive","inputs":[]},{"type":"error","name":"OrderStillActive","inputs":[]},{"type":"error","name":"PaymentDoesNotExist","inputs":[]},{"type":"error","name":"PaymentNotProved","inputs":[]},{"type":"error","name":"SatOutputTooLow","inputs":[]},{"type":"error","name":"StillInChallengePeriod","inputs":[]},{"type":"error","name":"Unauthorized","inputs":[]}],"bytecode":{"object":"0x610180806040523461033857806134d7803803809161001e8285610363565b8339810103610120811261033857815161003a60208401610386565b60408401519061004c60608601610386565b9261005960808701610386565b9560a08101519561ffff871687036103385760609060bf1901126103385760405190606082016001600160401b0381118382101761034f5760405260c0810151825260e081015163ffffffff8116810361033857604061010063ffffffff936020860193845201519301928352306080524660a05260a06040516100de604082610363565b600c815260208101906b5269667445786368616e676560a01b825260405191610108604084610363565b60058352602083019164302e302e3160d81b8352519020915190208160c0528060e052604051917f8b73c3c69bb8fe3d512ecc4cf759cc79239f7b179b0ffacaa9a75d522b39400f8352602083015260408201524660608201523060808201522061010052835f555116905160405192604084019284841060018060401b0385111761034f576001936040528452602084019182525f528160205263ffffffff60405f2093511663ffffffff198454161783555191015533638b78c6d81955335f7f8be0079c531659141344cd1fd0a4f28419497f9722a3daafe3b4186f6b6457e08180a360405163313ce56760e01b81526020816004816001600160a01b0386165afa8015610344575f90610303575b60ff915016600881036102ec5750610120526101405261016052600580546001600160b01b0319166001600160a01b039093169290921760a09190911b61ffff60a01b1617905560405161313c908161039b823960805181610489015260a05181610466015260c05181610655015260e0518161067b01526101005181610443015261012051818181610bcc01528181610fbf01528181611200015281816113560152818161180701526118870152610140518181816118d101526120960152610160518181816119260152611fab0152f35b63047e54d360e31b5f52600452600860245260445ffd5b506020813d60201161033c575b8161031d60209383610363565b81010312610338575160ff811681036103385760ff90610219565b5f80fd5b3d9150610310565b6040513d5f823e3d90fd5b634e487b7160e01b5f52604160045260245ffd5b601f909101601f19168101906001600160401b0382119082101761034f57604052565b51906001600160a01b03821682036103385756fe60806040526004361015610011575f80fd5b5f3560e01c80631127a80b14611b095780631ea7ec041461199e57806325692962146119555780632b7ac3f314611911578063375f16a7146118f45780633d7b22b3146118ba578063476343ee14611857578063481c85f11461173457806354d1f13d146116f0578063587f5ed7146116d3578063592b6649146115d657806366e143ca14611491578063708f29a614611474578063715018a61461142b5780637dd9cb31146112425780637e0258071461111557806384b0196e1461103e5780638da5cb5b146110125780639a73f4f514610fee578063a0d9e24114610faa578063a24462ea14610f1a578063a743e65e14610b5b578063bb85e18914610a4c578063c286befa14610a09578063cc38cd7d146109cf578063d21ddc61146109b3578063df69558c1461098a578063e58e0fe314610942578063eb5e91ff14610909578063f04e283e146108bc578063f29ebf6114610894578063f2fde38b14610857578063f3bbbeef1461081f578063fb9f0532146101d05763fee81cf41461019a575f80fd5b346101cc5760203660031901126101cc576101b3611ce7565b63389a75e1600c525f52602080600c2054604051908152f35b5f80fd5b346101cc5760803660031901126101cc576004356001600160401b0381116101cc57610200903690600401611dfa565b6024356001600160401b0381116101cc5761021f903690600401611d56565b906044356001600160401b0381116101cc5761023f903690600401611ec8565b91906064356001600160401b0381116101cc57610260903690600401611ec8565b939061026b846127f6565b6102758551611b5a565b90549060031b1c036108105760c08401956001875161029381611f83565b61029c81611f83565b1480156107f3575b6107e457604085019060608251015142116107d5578151608001516001600160a01b031680610731575b50506102fa9060808601516102e860408351015182612467565b91519060208251920151924391612e23565b916103516020860151926103426060880151966040519561031a87611bf0565b86526020860194338652604087019889526001600160401b0360608801981688523691611f1c565b97608085019889523691611f1c565b9560a083019687526002549661036561264a565b5061ffff60055460a01c1691865183155f14610703576001905b106106f4576103e86001600160401b03875116106106e557600260ff60608751015116106106d6576103b5602086510151612ec6565b156106c7576103ce916080865101519151905191612548565b84518181029181830414901517156106b35761271090049060ff60608451015116611c200263ffffffff81169081036106b357610420836001600160401b03610418819442612467565b169751612da2565b945184516020810151935190516001600160a01b039081169591169392909116907f00000000000000000000000000000000000000000000000000000000000000008a467f000000000000000000000000000000000000000000000000000000000000000014307f0000000000000000000000000000000000000000000000000000000000000000141615610625575b875160409081015181519384526020840152820152606090205b95519663ffffffff6020608060ff60608c0151169a0151015116986040519b6104f28d611c0b565b8c526001600160401b03421660208d015260408c015260608b015260808a015260a089015260c088015260e08701526101008601526101208501526101408401526101608301525f61018083015261054982612c05565b9160025493600160401b851015610611577fadadc1b62a250c6ad69315c6cbfb680b0f6b50d733bdcdffb4d73e6e22b0a6ac6105e66001936105d261060c976105ba8a887ff8b9da109a8a429429945d6f1c38f3af7b160026a3e9200e7cebae483c6a8c639c016002556002611b8a565b90919082549060031b91821b915f19901b1916179055565b604051918291602083526020830190612474565b0390a1526106006105f6826127f6565b6105ba8351611b5a565b6040519182918261213f565b0390a1005b634e487b7160e01b5f52604160045260245ffd5b50506104ca8a60a06040517f8b73c3c69bb8fe3d512ecc4cf759cc79239f7b179b0ffacaa9a75d522b39400f81527f000000000000000000000000000000000000000000000000000000000000000060208201527f000000000000000000000000000000000000000000000000000000000000000060408201524660608201523060808201522091506104b0565b634e487b7160e01b5f52601160045260245ffd5b63fad7db0760e01b5f5260045ffd5b63bdf8f2b360e01b5f5260045ffd5b63fde5943160e01b5f5260045ffd5b6355fcd02760e01b5f5260045ffd5b836127100161ffff81116106b35761ffff5f1991160161ffff81116106b3578461ffff80921604169061037f565b610761916020916040518080958194631f0a8fa760e01b8352336004840152604060248401526044830190611ef8565b03915afa9081156107ca575f9161078f575b50156107805787806102ce565b63754760cb60e11b5f5260045ffd5b90506020813d6020116107c2575b816107aa60209383611c42565b810103126101cc575180151581036101cc5788610773565b3d915061079d565b6040513d5f823e3d90fd5b630129799f60e21b5f5260045ffd5b6358fd8d1160e01b5f5260045ffd5b506002875161080181611f83565b61080a81611f83565b146102a4565b634df2e8a360e01b5f5260045ffd5b346101cc5760203660031901126101cc576004356006548110156101cc57610848602091611b5a565b90549060031b1c604051908152f35b60203660031901126101cc5761086b611ce7565b610873612b6f565b8060601b156108875761088590612b8b565b005b637448fbae5f526004601cfd5b346101cc575f3660031901126101cc576005546040516001600160a01b039091168152602090f35b60203660031901126101cc576108d0611ce7565b6108d8612b6f565b63389a75e1600c52805f526020600c2090815442116108fc575f6108859255612b8b565b636f5e88185f526004601cfd5b346101cc5760203660031901126101cc576004355f5260016020526040805f20600163ffffffff82541691015482519182526020820152f35b346101cc5760203660031901126101cc5760043561ffff811681036101cc57610969612b6f565b6005805461ffff60a01b191660a09290921b61ffff60a01b16919091179055005b346101cc5760203660031901126101cc576004356002548110156101cc57610848602091611b72565b346101cc575f3660031901126101cc5760205f54604051908152f35b346101cc575f3660031901126101cc5760206109fb5f545f52600160205263ffffffff60405f20541690565b63ffffffff60405191168152f35b346101cc5760203660031901126101cc57610a22611ce7565b610a2a612b6f565b600580546001600160a01b0319166001600160a01b0392909216919091179055005b346101cc5760403660031901126101cc576004356001600160401b0381116101cc57610a7c903690600401611ec8565b602435916001600160401b0383116101cc57610b4761060c92610ae9610ac77ffcc0bf5af37d2416462f15b1eb9168c1d1741ed5c3ec7905490d015c611dba2b963690600401611cba565b929094610ae45f545f52600160205263ffffffff60405f20541690565b61290d565b604094919451610af881611b9f565b5f81525f60208201525f604082015260405190610b1482611bba565b5f82525f60208301525f6040830152606082015260405191610b3583611b9f565b5f835260208301526040820152611fa1565b6040519182916020835260208301906122f6565b346101cc5760203660031901126101cc576004356001600160401b0381116101cc57610b8b903690600401611ec8565b90610b95826125d0565b90610b9f83611c63565b92610bad6040519485611c42565b808452601f19610bbc82611c63565b015f5b818110610f0357505f92917f00000000000000000000000000000000000000000000000000000000000000009150835b818110610c95578686610c0487600454612467565b60045560405190604082016040835283518091526060830190602060608260051b8601019501915f905b828210610c6a577fd796dafe969ef61dd39d8f2109f42e67c96ad6baac6a79895e7e75d7261da5fd868061060c8a8983820360208501526122f6565b90919295602080610c87600193605f198a82030186528a51612474565b980192019201909291610c2e565b6020610ca28284876126aa565b01610cbf610cb8610cb3368461273a565b612d80565b9135611b2e565b90549060031b1c03610ef457610100610cd98284876126aa565b013560028110156101cc57610ee5576001600160401b03610d0660e0610d008486896126aa565b01612334565b164210610ed657610d29610d24610d1e8385886126aa565b806126cd565b612bc8565b6060610d368385886126aa565b01358103610eb25750600190610db3610d5c366080610d5685888b6126aa565b01611c7a565b8487610d77610d6c8684846126aa565b6101208101906126e3565b9060ff610dac610140610da6610d1e8b610d9e610d95828c8c6126aa565b858101906126e3565b9a90996126aa565b01612718565b1694612cee565b610dd1610dc18285886126aa565b610dcc3691806126cd565b61235c565b82610180820152610dee610de482612c05565b6105ba8351611b72565b610df8828a612726565b52610e038189612726565b50610e60610e1e366020610e1885888b6126aa565b0161273a565b968360a0890152610e48610e3189612d80565b6105ba6020610e41878a8d6126aa565b0135611b2e565b6080610e58610d1e85888b6126aa565b013590612467565b95610e96610e7d60e0610e77610d1e86898c6126aa565b01612453565b6060610e8d610d1e86898c6126aa565b013590876127a5565b610ea08289612726565b52610eab8188612726565b5001610bef565b6060610ebf8385886126aa565b0135638f83aff160e01b5f5260045260245260445ffd5b632d5c37f560e21b5f5260045ffd5b6304261aed60e21b5f5260045ffd5b636f8e482b60e11b5f5260045ffd5b602090610f0e61264a565b82828901015201610bbf565b346101cc57366003190160a081126101cc576060136101cc57604051610f3f81611b9f565b600435815260243563ffffffff811681036101cc57602082015260443560408201526064356001600160401b0381116101cc57610f80903690600401611f68565b90608435916001600160401b0383116101cc57610fa4610885933690600401611f68565b91612548565b346101cc575f3660031901126101cc576040517f00000000000000000000000000000000000000000000000000000000000000006001600160a01b03168152602090f35b346101cc575f3660031901126101cc57602061ffff60055460a01c16604051908152f35b346101cc575f3660031901126101cc57638b78c6d819546040516001600160a01b039091168152602090f35b346101cc575f3660031901126101cc576110b760406110c48151916110638184611c42565b600c83526b5269667445786368616e676560a01b602084015280516110888282611c42565b6005815264302e302e3160d81b60208201528151948594600f60f81b865260e0602087015260e0860190611ef8565b9184830390850152611ef8565b4660608301523060808301525f60a083015281810360c083015260206060519182815201906080905f5b8181106110fc575050500390f35b82518452859450602093840193909201916001016110ee565b346101cc5760203660031901126101cc576004356001600160401b0381116101cc57806004016101a060031983360301126101cc5761115381612bc8565b5061018482013560038110156101cc5761116c81611f83565b611233576001600160401b0361118460448401612334565b164210611224577f401ceec6722e041e3a2bf9967184263dd4108d58dc1bf32cdc3db346840ecec8916105d26111be61060c93369061235c565b9160026101808401526111dd6111d384612c05565b6105ba8551611b72565b6111fd6111ed6101048301612453565b9160646084820135910135612467565b907f00000000000000000000000000000000000000000000000000000000000000006127a5565b631ef96db360e21b5f5260045ffd5b6352bfa29d60e01b5f5260045ffd5b346101cc5760e03660031901126101cc5760043560a03660231901126101cc576040519061126f82611c27565b602435825260443560208301908152606435604084019081526084356060850190815290939160a4356001600160a01b03811681036101cc57608084015260c435946001600160401b0386116101cc5760e060031987360301126101cc57511561141c5782519051101561140d575142116113fe5761130460065493604051946112f886611bd5565b85523690600401611d82565b602084015260408301528060608301524360808301524260a08301525f60c083015261132f826127f6565b60065490600160401b821015610611576105ba82600161135494016006556006611b8a565b7f000000000000000000000000000000000000000000000000000000000000000060405191606052306040523360601b602c526323b872dd60601b600c5260205f6064601c82855af1908160015f511416156113e0575b7ff8b9da109a8a429429945d6f1c38f3af7b160026a3e9200e7cebae483c6a8c63838061060c875f606052826040528261213f565b3b153d1710156113f15782806113ab565b637939f4245f526004601cfd5b631da7447960e21b5f5260045ffd5b63c85c889b60e01b5f5260045ffd5b63747a60fb60e01b5f5260045ffd5b5f3660031901126101cc5761143e612b6f565b5f638b78c6d819547f8be0079c531659141344cd1fd0a4f28419497f9722a3daafe3b4186f6b6457e08280a35f638b78c6d81955005b346101cc575f3660031901126101cc576020600354604051908152f35b346101cc5760603660031901126101cc576004356001600160401b0381116101cc576114c1903690600401611ec8565b6024356001600160401b0381116101cc57806004019260c060031983360301126101cc576044356001600160401b0381116101cc57611504903690600401611cba565b908535956024850135966064860161152661151f3683611c7a565b8a8461281f565b60848701359063ffffffff821682036101cc577ffcc0bf5af37d2416462f15b1eb9168c1d1741ed5c3ec7905490d015c611dba2b9961158961158260449661157861060c9d610b479c6115b19861290d565b98909c019061223a565b3691611d11565b60208151910120906040519461159e86611bba565b8552602085015260408401523690611c7a565b6060820152604051916115c383611b9f565b6002835260208301526040820152611fa1565b346101cc5760403660031901126101cc576004356001600160401b0381116101cc578060040160c060031983360301126101cc576024356001600160401b0381116101cc57611629903690600401611cba565b91803561165a6115826024870135936044606489019861165361164c368c611c7a565b888861281f565b019061223a565b80516020919091012060405192611672602085611c42565b5f84525f805b8181106116bc5750509561169791610885976040519461159e86611bba565b6060820152604051916116a983611b9f565b6001835260208301526040820152611fa1565b6020906116c761226c565b82828901015201611678565b346101cc575f3660031901126101cc576020600454604051908152f35b5f3660031901126101cc5763389a75e1600c52335f525f6020600c2055337ffa7b8eab7da67f412cc9575ed43464468f9bfbae89d1675917346ca6d8fe3c925f80a2005b346101cc5760203660031901126101cc576004356001600160401b0381116101cc57611764903690600401611dfa565b61176d816127f6565b6117778251611b5a565b90549060031b1c036108105760c081016001815161179481611f83565b61179d81611f83565b14801561183a575b6107e457606060408301510151421061182b577ff8b9da109a8a429429945d6f1c38f3af7b160026a3e9200e7cebae483c6a8c6391600261060c92526117ed6105f6826127f6565b6020810151516060820151610600916001600160a01b03167f00000000000000000000000000000000000000000000000000000000000000006127a5565b639eafe1b760e01b5f5260045ffd5b506002815161184881611f83565b61185181611f83565b146117a5565b346101cc575f3660031901126101cc5760045480156118ab575f60045560055461088591906001600160a01b03167f00000000000000000000000000000000000000000000000000000000000000006127a5565b630c5214e560e31b5f5260045ffd5b346101cc575f3660031901126101cc5760206040517f00000000000000000000000000000000000000000000000000000000000000008152f35b346101cc575f3660031901126101cc576020600254604051908152f35b346101cc575f3660031901126101cc576040517f00000000000000000000000000000000000000000000000000000000000000006001600160a01b03168152602090f35b5f3660031901126101cc5763389a75e1600c52335f526202a30042016020600c2055337fdbf36a107da19e49527a7176a1babf963b4b0ff8cde35ee35d6cd8f1f9ac7e1d5f80a2005b346101cc5760403660031901126101cc576004356001600160401b0381116101cc57803603906101006003198301126101cc57604051916119de83611b9f565b816004013560038110156101cc57835260248201356001600160401b0381116101cc578201366023820112156101cc576004810135611a1c81611c63565b91611a2a6040519384611c42565b818352602060046060828601940283010101903682116101cc57602401915b818310611acd57505050602084015260c0604319909101126101cc57611a9a60405191611a7583611bba565b60448101358352606481013560208401526084810135604084015260a4369101611c7a565b60608201526040820152602435906001600160401b0382116101cc57611ac7610885923690600401611cba565b91611fa1565b6060833603126101cc576020606091604051611ae881611b9f565b85358152828601358382015260408601356040820152815201920191611a49565b346101cc5760203660031901126101cc576004356003548110156101cc576108486020915b600354811015611b465760035f5260205f2001905f90565b634e487b7160e01b5f52603260045260245ffd5b600654811015611b465760065f5260205f2001905f90565b600254811015611b465760025f5260205f2001905f90565b8054821015611b46575f5260205f2001905f90565b606081019081106001600160401b0382111761061157604052565b608081019081106001600160401b0382111761061157604052565b60e081019081106001600160401b0382111761061157604052565b60c081019081106001600160401b0382111761061157604052565b6101a081019081106001600160401b0382111761061157604052565b60a081019081106001600160401b0382111761061157604052565b90601f801991011681019081106001600160401b0382111761061157604052565b6001600160401b0381116106115760051b60200190565b91908260609103126101cc57604051611c9281611b9f565b809280358252602081013563ffffffff811681036101cc576020830152604090810135910152565b9181601f840112156101cc578235916001600160401b0383116101cc57602083818601950101116101cc57565b600435906001600160a01b03821682036101cc57565b35906001600160a01b03821682036101cc57565b9291926001600160401b0382116106115760405191611d3a601f8201601f191660200184611c42565b8294818452818301116101cc578281602093845f960137010152565b9080601f830112156101cc57816020611d7193359101611d11565b90565b359060ff821682036101cc57565b919060e0838203126101cc5760405190611d9b82611c27565b8193611da681611cfd565b83526020810135916001600160401b0383116101cc57608082611dcf838396611df59601611d56565b602087015260408101356040870152611dea60608201611d74565b606087015201611c7a565b910152565b91908281039261016084126101cc5760405191611e1683611bd5565b82948235845260208301356001600160401b0381116101cc5760a092611e3d918501611d82565b6020850152603f1901126101cc5761014090604051611e5b81611c27565b60408201358152606082013560208201526080820135604082015260a08201356060820152611e8c60c08301611cfd565b6080820152604084015260e08101356060840152610100810135608084015261012081013560a084015201359060038210156101cc5760c00152565b9181601f840112156101cc578235916001600160401b0383116101cc576020808501948460051b0101116101cc57565b805180835260209291819084018484015e5f828201840152601f01601f1916010190565b929190611f2881611c63565b93611f366040519586611c42565b602085838152019160051b81019283116101cc57905b828210611f5857505050565b8135815260209182019101611f4c565b9080601f830112156101cc57816020611d7193359101611f1c565b60031115611f8d57565b634e487b7160e01b5f52602160045260245ffd5b9060018060a01b037f000000000000000000000000000000000000000000000000000000000000000016604051926020808501528361014081018251611fe681611f83565b604083015260208301519061010060608401528151809152602061016084019201905f5b81811061210d575050506120626060604061207095015180516080860152602081015160a0860152604081015160c0860152015160e0840190604080918051845263ffffffff60208201511660208501520151910152565b03601f198101855284611c42565b803b156101cc576120cb60205f9486946040519788968795869463020a49e360e51b86527f00000000000000000000000000000000000000000000000000000000000000006004870152606060248701526064860190611ef8565b84810360031901604486015281815292858401378181018401889052601f01601f1916010301915afa80156107ca576121015750565b5f61210b91611c42565b565b91949350916020606060019260408851805183528481015185840152015160408201520195019101918793949261200a565b602081528151602082015261016060c060208401519382604085015260018060a01b038551166101808501526121cd608061218b602088015160e06101a0890152610260880190611ef8565b6040808901516101c0890152606089015160ff166101e089015291909701518051610200880152602081015163ffffffff166102208801520151610240860152565b60408101518051606086015260208101516080860152604081015160a0860152606081015183860152608060018060a01b039101511660e08501526060810151610100850152608081015161012085015260a081015161014085015201519161223583611f83565b015290565b903590601e19813603018212156101cc57018035906001600160401b0382116101cc576020019181360383136101cc57565b6040519061227982611b9f565b5f6040838281528260208201520152565b60a0908051835260208101516020840152604081015160408401526122d160608201516060850190604080918051845263ffffffff60208201511660208501520151910152565b6001600160401b0360808201511660c08401520151906002821015611f8d5760e00152565b90602080835192838152019201905f5b8181106123135750505090565b909192602061010082612329600194885161228a565b019401929101612306565b356001600160401b03811681036101cc5790565b35906001600160401b03821682036101cc57565b91906101a0838203126101cc576040519061237682611c0b565b81938035835261238860208201612348565b602084015261239960408201612348565b604084015260608101356060840152608081013560808401526123be60a08201612348565b60a084015260c08101356001600160401b0381116101cc57610180926123e5918301611d56565b60c08401526123f660e08201611cfd565b60e08401526124086101008201611cfd565b6101008401526101208101356101208401526124276101408201611d74565b61014084015261243a6101608201612348565b61016084015201359060038210156101cc576101800152565b356001600160a01b03811681036101cc5790565b919082018092116106b357565b90815181526001600160401b0360208301511660208201526001600160401b03604083015116604082015260608201516060820152608082015160808201526001600160401b0360a08301511660a0820152610180806124e560c08501516101a060c08601526101a0850190611ef8565b9360018060a01b0360e08201511660e085015260018060a01b036101008201511661010085015261012081015161012085015260ff610140820151166101408501526001600160401b036101608201511661016085015201519161223583611f83565b9063ffffffff61257b83516020850194604084875116910151919091606092604051928352602083015260408201522090565b92511692600163ffffffff6125a05f545f52600160205263ffffffff60405f20541690565b16019163ffffffff83116106b3576125ba945f5494612c22565b156125c157565b632814065160e01b5f5260045ffd5b906125da82611c63565b6125e76040519182611c42565b82815280926125f8601f1991611c63565b01905f5b82811061260857505050565b60209060405161261781611bf0565b5f81525f838201525f604082015261262d61226c565b60608201525f60808201525f60a0820152828285010152016125fc565b6040519061265782611c0b565b5f610180838281528260208201528260408201528260608201528260808201528260a0820152606060c08201528260e0820152826101008201528261012082015282610140820152826101608201520152565b9190811015611b465760051b8101359061017e19813603018212156101cc570190565b90359061019e19813603018212156101cc570190565b903590601e19813603018212156101cc57018035906001600160401b0382116101cc57602001918160051b360383136101cc57565b3560ff811681036101cc5790565b8051821015611b465760209160051b010190565b919091610100818403126101cc5760e06040519161275783611bf0565b61277d839582358552602083013560208601526040830135604086015260608301611c7a565b606084015261278e60c08201612348565b608084015201359060028210156101cc5760a00152565b919060145260345263a9059cbb60601b5f5260205f6044601082855af1908160015f511416156127d8575b50505f603452565b3b153d1710156127e9575f806127d0565b6390b8ec185f526004601cfd5b6040516128198161280b60208201948561213f565b03601f198101835282611c42565b51902090565b9190915f5480841461290757815f526001602052600160405f200154156128f8575f526001602052600160405f200154916040810192835111156128e957602063ffffffff91015116915192604051604081018181106001600160401b03821117610611577f4ecbd24cd7522746649cae9ac63fd99619cc85837ae3447a114bbbc3a8043496956040956001928752835260208301908152835f528160205263ffffffff865f2093511663ffffffff1984541617835551910155805f5582519182526020820152a1565b6307800bf560e21b5f5260045ffd5b63e1965c6560e01b5f5260045ffd5b50505050565b9192908315612b605761291f84611c63565b9161292d6040519384611c42565b848352601f1961293c86611c63565b015f5b818110612b495750508290612953866125d0565b91600354915f5b88811015612b3e5761296c8185612467565b8160051b87013560de19883603018112156101cc57870160208101896001600160401b03612a36610160610d006129a6610d2487896126cd565b956129dd8a60408a01976040516129bc81611b9f565b8b358152893560208201528a60408201526129d78383612726565b52612726565b50612a2588826129f060a08301836126e3565b612a10610140610da6612a0860c088969801866126e3565b9690956126cd565b9360ff612a1d368e611c7a565b951694612cee565b612a2f81896126cd565b35976126cd565b1663ffffffff8d16036001600160401b0381116106b3576001600160401b03166085026001600160401b0381169081036106b35761e3b3016001600160401b0381116106b3576001600160401b036103e88161012c9316041601916001600160401b0383116106b3576001600160401b03612ab681612ad8951642612467565b169360405195612ac587611bf0565b8652602086015260408501523690611c7a565b606083015260808201525f60a0820152612af28287612726565b52612afd8186612726565b50612b11612b0b8287612726565b51612d80565b90600354600160401b811015610611576001926105ba8285612b3894016003556003611b8a565b0161295a565b509450945050935050565b602090612b5461226c565b8282880101520161293f565b630b35156b60e31b5f5260045ffd5b638b78c6d819543303612b7e57565b6382b429005f526004601cfd5b60018060a01b031680638b78c6d819547f8be0079c531659141344cd1fd0a4f28419497f9722a3daafe3b4186f6b6457e05f80a3638b78c6d81955565b612be6612bdd612bd8368461235c565b612c05565b91356002611b8a565b90549060031b1c8103612bf65790565b635dcaf2d760e01b5f5260045ffd5b6040516128198161280b6020820194602086526040830190612474565b939591929490955f945b8451861015612c7e57600188811c98811603612c6157612c4c8686612726565b515f52602052600160405f20955b0194612c2c565b612c6b8686612726565b51905f52602052600160405f2095612c5a565b95929650925092505f935f5b8251811015612ce45781612c9e8285612726565b5114612cac57600101612c8a565b50509091925060015b15612cdd57612cc390612daf565b908115612cdd5763ffffffff165f5260205260405f201490565b5050505f90565b5050909192612cb5565b94939192612d04612d0c92612d13953691611f1c565b923691611f1c565b9084612548565b63ffffffff6020612d345f545f52600160205263ffffffff60405f20541690565b930151169063ffffffff5f1991160163ffffffff81116106b35763ffffffff160163ffffffff81116106b35763ffffffff809116911610612d7157565b630a47293560e31b5f5260045ffd5b604051612d9160208201809361228a565b610100815261281961012082611c42565b919082039182116106b357565b80518015612e05575f1981019081116106b357612dcc9082612726565b519080515f1981019081116106b357805b612de657505090565b5f190191612df48383612726565b515f526020528160405f2092612ddd565b50505f90565b81810392915f1380158285131691841216176106b357565b909193929382811015612e9b5790612e3e81612e4493612da2565b92612da2565b908380841215612e8857612e6093612e5b91612e0b565b612ea3565b600160ff1b81146106b3575f03905b5f82820192831291129080158216911516176106b35790565b612e5b90612e9594612e0b565b90612e6f565b505050905090565b8181029181159183041417820215612eb9570490565b63ad251c275f526004601cfd5b8051601681146130c4576017811461304d5760198114612f7c57602214612eec57505f90565b805115611b46576020810180516001600160f81b0319168015612f5e57605160f81b14612f195750505f90565b815115611b4657516001600160f81b031916605160f81b149081612f3b575090565b8091505160011015611b4657602101516001600160f81b031916600160fd1b1490565b50815115611b4657516001600160f81b031916159081612f3b575090565b50805115611b465760208101516001600160f81b031916603b60f91b149081613026575b81612fff575b81612fd8575b81612fb5575090565b8091505160181015611b4657603801516001600160f81b031916602b60fa1b1490565b8091505160171015611b465760378101516001600160f81b031916601160fb1b1490612fac565b8091505160021015611b465760228101516001600160f81b031916600560fa1b1490612fa6565b8091505160011015611b465760218101516001600160f81b03191660a960f81b1490612fa0565b50805115611b465760208101516001600160f81b03191660a960f81b14908161309d575b8161307a575090565b8091505160161015611b4657603601516001600160f81b031916608760f81b1490565b8091505160011015611b465760218101516001600160f81b031916600560fa1b1490613071565b15611b465760208101516001600160f81b0319161590816130e3575090565b8091505160011015611b4657602101516001600160f81b031916600560fa1b149056fea2646970667358221220e3598af4fa9a93b52ff2952d77f09f081eb05b336fd49a003d91190105f8f6f864736f6c634300081c0033","linkReferences":{}},"methodIdentifiers":{"accumulatedFees()":"587f5ed7","adminSetFeeRouter(address)":"c286befa","adminSetTakerFeeBips(uint16)":"e58e0fe3","auctionHashes(uint256)":"f3bbbeef","cancelOwnershipHandover()":"54d1f13d","checkpoints(bytes32)":"eb5e91ff","circuitVerificationKey()":"3d7b22b3","claimAuction((uint256,(address,bytes,bytes32,uint8,(bytes32,uint32,uint256)),(uint256,uint256,uint256,uint256,address),uint256,uint256,uint256,uint8),bytes,bytes32[],bytes32[])":"fb9f0532","completeOwnershipHandover(address)":"f04e283e","eip712Domain()":"84b0196e","feeRouter()":"f29ebf61","getTotalOrders()":"375f16a7","getTotalPayments()":"708f29a6","lightClientHeight()":"cc38cd7d","mmrRoot()":"d21ddc61","orderHashes(uint256)":"df69558c","owner()":"8da5cb5b","ownershipHandoverExpiresAt(address)":"fee81cf4","paymentHashes(uint256)":"1127a80b","refundAuction((uint256,(address,bytes,bytes32,uint8,(bytes32,uint32,uint256)),(uint256,uint256,uint256,uint256,address),uint256,uint256,uint256,uint8))":"481c85f1","refundOrder((uint256,uint64,uint64,uint256,uint256,uint64,bytes,address,address,bytes32,uint8,uint64,uint8))":"7e025807","renounceOwnership()":"715018a6","requestOwnershipHandover()":"25692962","settleOrders(((uint256,uint64,uint64,uint256,uint256,uint64,bytes,address,address,bytes32,uint8,uint64,uint8),(uint256,uint256,bytes32,(bytes32,uint32,uint256),uint64,uint8),bytes32[],bytes32[],uint32)[])":"a743e65e","startAuction(uint256,(uint256,uint256,uint256,uint256,address),(address,bytes,bytes32,uint8,(bytes32,uint32,uint256)))":"7dd9cb31","submitPaymentProofs((bytes32,(uint256,uint64,uint64,uint256,uint256,uint64,bytes,address,address,bytes32,uint8,uint64,uint8),(bytes32,uint32,uint256),bytes32[],bytes32[])[],(bytes32,bytes32,bytes,(bytes32,uint32,uint256)),bytes)":"66e143ca","submitPaymentProofsOnly((bytes32,(uint256,uint64,uint64,uint256,uint256,uint64,bytes,address,address,bytes32,uint8,uint64,uint8),(bytes32,uint32,uint256),bytes32[],bytes32[])[],bytes)":"bb85e189","syntheticBitcoin()":"a0d9e241","takerFeeBips()":"9a73f4f5","transferOwnership(address)":"f2fde38b","updateLightClient((bytes32,bytes32,bytes,(bytes32,uint32,uint256)),bytes)":"592b6649","verifier()":"2b7ac3f3","verifyBlockInclusion((bytes32,uint32,uint256),bytes32[],bytes32[])":"a24462ea","verifyProof((uint8,(bytes32,bytes32,bytes32)[],(bytes32,bytes32,bytes32,(bytes32,uint32,uint256))),bytes)":"1ea7ec04","withdrawFees()":"476343ee"},"storageLayout":{"storage":[{"astId":44670,"contract":"src/BTCDutchAuctionHouse.sol:BTCDutchAuctionHouse","label":"mmrRoot","offset":0,"slot":"0","type":"t_bytes32"},{"astId":44675,"contract":"src/BTCDutchAuctionHouse.sol:BTCDutchAuctionHouse","label":"checkpoints","offset":0,"slot":"1","type":"t_mapping(t_bytes32,t_struct(Checkpoint)46176_storage)"},{"astId":45080,"contract":"src/BTCDutchAuctionHouse.sol:BTCDutchAuctionHouse","label":"orderHashes","offset":0,"slot":"2","type":"t_array(t_bytes32)dyn_storage"},{"astId":45083,"contract":"src/BTCDutchAuctionHouse.sol:BTCDutchAuctionHouse","label":"paymentHashes","offset":0,"slot":"3","type":"t_array(t_bytes32)dyn_storage"},{"astId":45085,"contract":"src/BTCDutchAuctionHouse.sol:BTCDutchAuctionHouse","label":"accumulatedFees","offset":0,"slot":"4","type":"t_uint256"},{"astId":45087,"contract":"src/BTCDutchAuctionHouse.sol:BTCDutchAuctionHouse","label":"feeRouter","offset":0,"slot":"5","type":"t_address"},{"astId":45089,"contract":"src/BTCDutchAuctionHouse.sol:BTCDutchAuctionHouse","label":"takerFeeBips","offset":20,"slot":"5","type":"t_uint16"},{"astId":44329,"contract":"src/BTCDutchAuctionHouse.sol:BTCDutchAuctionHouse","label":"auctionHashes","offset":0,"slot":"6","type":"t_array(t_bytes32)dyn_storage"}],"types":{"t_address":{"encoding":"inplace","label":"address","numberOfBytes":"20"},"t_array(t_bytes32)dyn_storage":{"encoding":"dynamic_array","label":"bytes32[]","numberOfBytes":"32","base":"t_bytes32"},"t_bytes32":{"encoding":"inplace","label":"bytes32","numberOfBytes":"32"},"t_mapping(t_bytes32,t_struct(Checkpoint)46176_storage)":{"encoding":"mapping","key":"t_bytes32","label":"mapping(bytes32 => struct Checkpoint)","numberOfBytes":"32","value":"t_struct(Checkpoint)46176_storage"},"t_struct(Checkpoint)46176_storage":{"encoding":"inplace","label":"struct Checkpoint","numberOfBytes":"64","members":[{"astId":46173,"contract":"src/BTCDutchAuctionHouse.sol:BTCDutchAuctionHouse","label":"height","offset":0,"slot":"0","type":"t_uint32"},{"astId":46175,"contract":"src/BTCDutchAuctionHouse.sol:BTCDutchAuctionHouse","label":"cumulativeChainwork","offset":0,"slot":"1","type":"t_uint256"}]},"t_uint16":{"encoding":"inplace","label":"uint16","numberOfBytes":"2"},"t_uint256":{"encoding":"inplace","label":"uint256","numberOfBytes":"32"},"t_uint32":{"encoding":"inplace","label":"uint32","numberOfBytes":"4"}}},"id":38}