{"abi":[{"type":"constructor","inputs":[{"name":"_mmrRoot","type":"bytes32","internalType":"bytes32"},{"name":"_syntheticBitcoin","type":"address","internalType":"address"},{"name":"_circuitVerificationKey","type":"bytes32","internalType":"bytes32"},{"name":"_verifier","type":"address","internalType":"address"},{"name":"_feeRouter","type":"address","internalType":"address"},{"name":"_takerFeeBips","type":"uint16","internalType":"uint16"},{"name":"_tipBlockLeaf","type":"tuple","internalType":"struct BlockLeaf","components":[{"name":"blockHash","type":"bytes32","internalType":"bytes32"},{"name":"height","type":"uint32","internalType":"uint32"},{"name":"cumulativeChainwork","type":"uint256","internalType":"uint256"}]}],"stateMutability":"nonpayable"},{"type":"function","name":"accumulatedFees","inputs":[],"outputs":[{"name":"","type":"uint256","internalType":"uint256"}],"stateMutability":"view"},{"type":"function","name":"adminSetFeeRouter","inputs":[{"name":"_feeRouter","type":"address","internalType":"address"}],"outputs":[],"stateMutability":"nonpayable"},{"type":"function","name":"adminSetTakerFeeBips","inputs":[{"name":"_takerFeeBips","type":"uint16","internalType":"uint16"}],"outputs":[],"stateMutability":"nonpayable"},{"type":"function","name":"auctionHashes","inputs":[{"name":"","type":"uint256","internalType":"uint256"}],"outputs":[{"name":"","type":"bytes32","internalType":"bytes32"}],"stateMutability":"view"},{"type":"function","name":"cancelOwnershipHandover","inputs":[],"outputs":[],"stateMutability":"payable"},{"type":"function","name":"checkpoints","inputs":[{"name":"","type":"bytes32","internalType":"bytes32"}],"outputs":[{"name":"established","type":"bool","internalType":"bool"},{"name":"tipBlockLeaf","type":"tuple","internalType":"struct BlockLeaf","components":[{"name":"blockHash","type":"bytes32","internalType":"bytes32"},{"name":"height","type":"uint32","internalType":"uint32"},{"name":"cumulativeChainwork","type":"uint256","internalType":"uint256"}]}],"stateMutability":"view"},{"type":"function","name":"circuitVerificationKey","inputs":[],"outputs":[{"name":"","type":"bytes32","internalType":"bytes32"}],"stateMutability":"view"},{"type":"function","name":"completeOwnershipHandover","inputs":[{"name":"pendingOwner","type":"address","internalType":"address"}],"outputs":[],"stateMutability":"payable"},{"type":"function","name":"eip712Domain","inputs":[],"outputs":[{"name":"fields","type":"bytes1","internalType":"bytes1"},{"name":"name","type":"string","internalType":"string"},{"name":"version","type":"string","internalType":"string"},{"name":"chainId","type":"uint256","internalType":"uint256"},{"name":"verifyingContract","type":"address","internalType":"address"},{"name":"salt","type":"bytes32","internalType":"bytes32"},{"name":"extensions","type":"uint256[]","internalType":"uint256[]"}],"stateMutability":"view"},{"type":"function","name":"feeRouter","inputs":[],"outputs":[{"name":"","type":"address","internalType":"address"}],"stateMutability":"view"},{"type":"function","name":"fillAuction","inputs":[{"name":"auction","type":"tuple","internalType":"struct DutchAuction","components":[{"name":"index","type":"uint256","internalType":"uint256"},{"name":"baseCreateOrderParams","type":"tuple","internalType":"struct BaseCreateOrderParams","components":[{"name":"owner","type":"address","internalType":"address"},{"name":"bitcoinScriptPubKey","type":"bytes","internalType":"bytes"},{"name":"salt","type":"bytes32","internalType":"bytes32"},{"name":"confirmationBlocks","type":"uint8","internalType":"uint8"},{"name":"safeBlockLeaf","type":"tuple","internalType":"struct BlockLeaf","components":[{"name":"blockHash","type":"bytes32","internalType":"bytes32"},{"name":"height","type":"uint32","internalType":"uint32"},{"name":"cumulativeChainwork","type":"uint256","internalType":"uint256"}]}]},{"name":"dutchAuctionParams","type":"tuple","internalType":"struct DutchAuctionParams","components":[{"name":"startBtcOut","type":"uint256","internalType":"uint256"},{"name":"endBtcOut","type":"uint256","internalType":"uint256"},{"name":"decayBlocks","type":"uint256","internalType":"uint256"},{"name":"deadline","type":"uint256","internalType":"uint256"},{"name":"fillerWhitelistContract","type":"address","internalType":"address"}]},{"name":"depositAmount","type":"uint256","internalType":"uint256"},{"name":"startBlock","type":"uint256","internalType":"uint256"},{"name":"startTimestamp","type":"uint256","internalType":"uint256"},{"name":"state","type":"uint8","internalType":"enum DutchAuctionState"}]},{"name":"fillerAuthData","type":"bytes","internalType":"bytes"},{"name":"safeBlockSiblings","type":"bytes32[]","internalType":"bytes32[]"},{"name":"safeBlockPeaks","type":"bytes32[]","internalType":"bytes32[]"}],"outputs":[],"stateMutability":"nonpayable"},{"type":"function","name":"getTotalOrders","inputs":[],"outputs":[{"name":"","type":"uint256","internalType":"uint256"}],"stateMutability":"view"},{"type":"function","name":"getTotalPayments","inputs":[],"outputs":[{"name":"","type":"uint256","internalType":"uint256"}],"stateMutability":"view"},{"type":"function","name":"lightClientHeight","inputs":[],"outputs":[{"name":"","type":"uint32","internalType":"uint32"}],"stateMutability":"view"},{"type":"function","name":"mmrRoot","inputs":[],"outputs":[{"name":"","type":"bytes32","internalType":"bytes32"}],"stateMutability":"view"},{"type":"function","name":"orderHashes","inputs":[{"name":"","type":"uint256","internalType":"uint256"}],"outputs":[{"name":"","type":"bytes32","internalType":"bytes32"}],"stateMutability":"view"},{"type":"function","name":"owner","inputs":[],"outputs":[{"name":"result","type":"address","internalType":"address"}],"stateMutability":"view"},{"type":"function","name":"ownershipHandoverExpiresAt","inputs":[{"name":"pendingOwner","type":"address","internalType":"address"}],"outputs":[{"name":"result","type":"uint256","internalType":"uint256"}],"stateMutability":"view"},{"type":"function","name":"paymentHashes","inputs":[{"name":"","type":"uint256","internalType":"uint256"}],"outputs":[{"name":"","type":"bytes32","internalType":"bytes32"}],"stateMutability":"view"},{"type":"function","name":"refundAuction","inputs":[{"name":"auction","type":"tuple","internalType":"struct DutchAuction","components":[{"name":"index","type":"uint256","internalType":"uint256"},{"name":"baseCreateOrderParams","type":"tuple","internalType":"struct BaseCreateOrderParams","components":[{"name":"owner","type":"address","internalType":"address"},{"name":"bitcoinScriptPubKey","type":"bytes","internalType":"bytes"},{"name":"salt","type":"bytes32","internalType":"bytes32"},{"name":"confirmationBlocks","type":"uint8","internalType":"uint8"},{"name":"safeBlockLeaf","type":"tuple","internalType":"struct BlockLeaf","components":[{"name":"blockHash","type":"bytes32","internalType":"bytes32"},{"name":"height","type":"uint32","internalType":"uint32"},{"name":"cumulativeChainwork","type":"uint256","internalType":"uint256"}]}]},{"name":"dutchAuctionParams","type":"tuple","internalType":"struct DutchAuctionParams","components":[{"name":"startBtcOut","type":"uint256","internalType":"uint256"},{"name":"endBtcOut","type":"uint256","internalType":"uint256"},{"name":"decayBlocks","type":"uint256","internalType":"uint256"},{"name":"deadline","type":"uint256","internalType":"uint256"},{"name":"fillerWhitelistContract","type":"address","internalType":"address"}]},{"name":"depositAmount","type":"uint256","internalType":"uint256"},{"name":"startBlock","type":"uint256","internalType":"uint256"},{"name":"startTimestamp","type":"uint256","internalType":"uint256"},{"name":"state","type":"uint8","internalType":"enum DutchAuctionState"}]}],"outputs":[],"stateMutability":"nonpayable"},{"type":"function","name":"refundOrder","inputs":[{"name":"order","type":"tuple","internalType":"struct Order","components":[{"name":"index","type":"uint256","internalType":"uint256"},{"name":"timestamp","type":"uint64","internalType":"uint64"},{"name":"unlockTimestamp","type":"uint64","internalType":"uint64"},{"name":"amount","type":"uint256","internalType":"uint256"},{"name":"takerFee","type":"uint256","internalType":"uint256"},{"name":"expectedSats","type":"uint64","internalType":"uint64"},{"name":"bitcoinScriptPubKey","type":"bytes","internalType":"bytes"},{"name":"designatedReceiver","type":"address","internalType":"address"},{"name":"owner","type":"address","internalType":"address"},{"name":"salt","type":"bytes32","internalType":"bytes32"},{"name":"confirmationBlocks","type":"uint8","internalType":"uint8"},{"name":"safeBitcoinBlockHeight","type":"uint64","internalType":"uint64"}]}],"outputs":[],"stateMutability":"nonpayable"},{"type":"function","name":"renounceOwnership","inputs":[],"outputs":[],"stateMutability":"payable"},{"type":"function","name":"requestOwnershipHandover","inputs":[],"outputs":[],"stateMutability":"payable"},{"type":"function","name":"serializeLightClientPublicInput","inputs":[{"name":"input","type":"tuple","internalType":"struct LightClientPublicInput","components":[{"name":"priorMmrRoot","type":"bytes32","internalType":"bytes32"},{"name":"newMmrRoot","type":"bytes32","internalType":"bytes32"},{"name":"compressedLeavesHash","type":"bytes32","internalType":"bytes32"},{"name":"tipBlockLeaf","type":"tuple","internalType":"struct BlockLeaf","components":[{"name":"blockHash","type":"bytes32","internalType":"bytes32"},{"name":"height","type":"uint32","internalType":"uint32"},{"name":"cumulativeChainwork","type":"uint256","internalType":"uint256"}]}]}],"outputs":[{"name":"","type":"bytes","internalType":"bytes"}],"stateMutability":"pure"},{"type":"function","name":"settleOrders","inputs":[{"name":"settleOrderParams","type":"tuple[]","internalType":"struct SettleOrderParams[]","components":[{"name":"order","type":"tuple","internalType":"struct Order","components":[{"name":"index","type":"uint256","internalType":"uint256"},{"name":"timestamp","type":"uint64","internalType":"uint64"},{"name":"unlockTimestamp","type":"uint64","internalType":"uint64"},{"name":"amount","type":"uint256","internalType":"uint256"},{"name":"takerFee","type":"uint256","internalType":"uint256"},{"name":"expectedSats","type":"uint64","internalType":"uint64"},{"name":"bitcoinScriptPubKey","type":"bytes","internalType":"bytes"},{"name":"designatedReceiver","type":"address","internalType":"address"},{"name":"owner","type":"address","internalType":"address"},{"name":"salt","type":"bytes32","internalType":"bytes32"},{"name":"confirmationBlocks","type":"uint8","internalType":"uint8"},{"name":"safeBitcoinBlockHeight","type":"uint64","internalType":"uint64"}]},{"name":"payment","type":"tuple","internalType":"struct Payment","components":[{"name":"index","type":"uint256","internalType":"uint256"},{"name":"orderHash","type":"bytes32","internalType":"bytes32"},{"name":"paymentBitcoinBlockLeaf","type":"tuple","internalType":"struct BlockLeaf","components":[{"name":"blockHash","type":"bytes32","internalType":"bytes32"},{"name":"height","type":"uint32","internalType":"uint32"},{"name":"cumulativeChainwork","type":"uint256","internalType":"uint256"}]},{"name":"challengeExpiryTimestamp","type":"uint64","internalType":"uint64"},{"name":"state","type":"uint8","internalType":"enum PaymentState"}]},{"name":"paymentBitcoinBlockSiblings","type":"bytes32[]","internalType":"bytes32[]"},{"name":"paymentBitcoinBlockPeaks","type":"bytes32[]","internalType":"bytes32[]"},{"name":"tipBlockHeight","type":"uint32","internalType":"uint32"}]}],"outputs":[],"stateMutability":"nonpayable"},{"type":"function","name":"startAuction","inputs":[{"name":"depositAmount","type":"uint256","internalType":"uint256"},{"name":"auctionParams","type":"tuple","internalType":"struct DutchAuctionParams","components":[{"name":"startBtcOut","type":"uint256","internalType":"uint256"},{"name":"endBtcOut","type":"uint256","internalType":"uint256"},{"name":"decayBlocks","type":"uint256","internalType":"uint256"},{"name":"deadline","type":"uint256","internalType":"uint256"},{"name":"fillerWhitelistContract","type":"address","internalType":"address"}]},{"name":"baseCreateOrderParams","type":"tuple","internalType":"struct BaseCreateOrderParams","components":[{"name":"owner","type":"address","internalType":"address"},{"name":"bitcoinScriptPubKey","type":"bytes","internalType":"bytes"},{"name":"salt","type":"bytes32","internalType":"bytes32"},{"name":"confirmationBlocks","type":"uint8","internalType":"uint8"},{"name":"safeBlockLeaf","type":"tuple","internalType":"struct BlockLeaf","components":[{"name":"blockHash","type":"bytes32","internalType":"bytes32"},{"name":"height","type":"uint32","internalType":"uint32"},{"name":"cumulativeChainwork","type":"uint256","internalType":"uint256"}]}]}],"outputs":[],"stateMutability":"nonpayable"},{"type":"function","name":"submitPaymentProofs","inputs":[{"name":"paymentParams","type":"tuple[]","internalType":"struct SubmitPaymentProofParams[]","components":[{"name":"paymentBitcoinTxid","type":"bytes32","internalType":"bytes32"},{"name":"order","type":"tuple","internalType":"struct Order","components":[{"name":"index","type":"uint256","internalType":"uint256"},{"name":"timestamp","type":"uint64","internalType":"uint64"},{"name":"unlockTimestamp","type":"uint64","internalType":"uint64"},{"name":"amount","type":"uint256","internalType":"uint256"},{"name":"takerFee","type":"uint256","internalType":"uint256"},{"name":"expectedSats","type":"uint64","internalType":"uint64"},{"name":"bitcoinScriptPubKey","type":"bytes","internalType":"bytes"},{"name":"designatedReceiver","type":"address","internalType":"address"},{"name":"owner","type":"address","internalType":"address"},{"name":"salt","type":"bytes32","internalType":"bytes32"},{"name":"confirmationBlocks","type":"uint8","internalType":"uint8"},{"name":"safeBitcoinBlockHeight","type":"uint64","internalType":"uint64"}]},{"name":"paymentBitcoinBlockLeaf","type":"tuple","internalType":"struct BlockLeaf","components":[{"name":"blockHash","type":"bytes32","internalType":"bytes32"},{"name":"height","type":"uint32","internalType":"uint32"},{"name":"cumulativeChainwork","type":"uint256","internalType":"uint256"}]},{"name":"paymentBitcoinBlockSiblings","type":"bytes32[]","internalType":"bytes32[]"},{"name":"paymentBitcoinBlockPeaks","type":"bytes32[]","internalType":"bytes32[]"}]},{"name":"proof","type":"bytes","internalType":"bytes"}],"outputs":[],"stateMutability":"nonpayable"},{"type":"function","name":"submitPaymentProofs","inputs":[{"name":"paymentParams","type":"tuple[]","internalType":"struct SubmitPaymentProofParams[]","components":[{"name":"paymentBitcoinTxid","type":"bytes32","internalType":"bytes32"},{"name":"order","type":"tuple","internalType":"struct Order","components":[{"name":"index","type":"uint256","internalType":"uint256"},{"name":"timestamp","type":"uint64","internalType":"uint64"},{"name":"unlockTimestamp","type":"uint64","internalType":"uint64"},{"name":"amount","type":"uint256","internalType":"uint256"},{"name":"takerFee","type":"uint256","internalType":"uint256"},{"name":"expectedSats","type":"uint64","internalType":"uint64"},{"name":"bitcoinScriptPubKey","type":"bytes","internalType":"bytes"},{"name":"designatedReceiver","type":"address","internalType":"address"},{"name":"owner","type":"address","internalType":"address"},{"name":"salt","type":"bytes32","internalType":"bytes32"},{"name":"confirmationBlocks","type":"uint8","internalType":"uint8"},{"name":"safeBitcoinBlockHeight","type":"uint64","internalType":"uint64"}]},{"name":"paymentBitcoinBlockLeaf","type":"tuple","internalType":"struct BlockLeaf","components":[{"name":"blockHash","type":"bytes32","internalType":"bytes32"},{"name":"height","type":"uint32","internalType":"uint32"},{"name":"cumulativeChainwork","type":"uint256","internalType":"uint256"}]},{"name":"paymentBitcoinBlockSiblings","type":"bytes32[]","internalType":"bytes32[]"},{"name":"paymentBitcoinBlockPeaks","type":"bytes32[]","internalType":"bytes32[]"}]},{"name":"blockProofParams","type":"tuple","internalType":"struct BlockProofParams","components":[{"name":"priorMmrRoot","type":"bytes32","internalType":"bytes32"},{"name":"newMmrRoot","type":"bytes32","internalType":"bytes32"},{"name":"compressedBlockLeaves","type":"bytes","internalType":"bytes"},{"name":"tipBlockLeaf","type":"tuple","internalType":"struct BlockLeaf","components":[{"name":"blockHash","type":"bytes32","internalType":"bytes32"},{"name":"height","type":"uint32","internalType":"uint32"},{"name":"cumulativeChainwork","type":"uint256","internalType":"uint256"}]}]},{"name":"proof","type":"bytes","internalType":"bytes"}],"outputs":[],"stateMutability":"nonpayable"},{"type":"function","name":"syntheticBitcoin","inputs":[],"outputs":[{"name":"","type":"address","internalType":"address"}],"stateMutability":"view"},{"type":"function","name":"takerFeeBips","inputs":[],"outputs":[{"name":"","type":"uint16","internalType":"uint16"}],"stateMutability":"view"},{"type":"function","name":"transferOwnership","inputs":[{"name":"newOwner","type":"address","internalType":"address"}],"outputs":[],"stateMutability":"payable"},{"type":"function","name":"updateLightClient","inputs":[{"name":"blockProofParams","type":"tuple","internalType":"struct BlockProofParams","components":[{"name":"priorMmrRoot","type":"bytes32","internalType":"bytes32"},{"name":"newMmrRoot","type":"bytes32","internalType":"bytes32"},{"name":"compressedBlockLeaves","type":"bytes","internalType":"bytes"},{"name":"tipBlockLeaf","type":"tuple","internalType":"struct BlockLeaf","components":[{"name":"blockHash","type":"bytes32","internalType":"bytes32"},{"name":"height","type":"uint32","internalType":"uint32"},{"name":"cumulativeChainwork","type":"uint256","internalType":"uint256"}]}]},{"name":"proof","type":"bytes","internalType":"bytes"}],"outputs":[],"stateMutability":"nonpayable"},{"type":"function","name":"verifier","inputs":[],"outputs":[{"name":"","type":"address","internalType":"address"}],"stateMutability":"view"},{"type":"function","name":"verifyBlockInclusion","inputs":[{"name":"blockLeaf","type":"tuple","internalType":"struct BlockLeaf","components":[{"name":"blockHash","type":"bytes32","internalType":"bytes32"},{"name":"height","type":"uint32","internalType":"uint32"},{"name":"cumulativeChainwork","type":"uint256","internalType":"uint256"}]},{"name":"siblings","type":"bytes32[]","internalType":"bytes32[]"},{"name":"peaks","type":"bytes32[]","internalType":"bytes32[]"}],"outputs":[],"stateMutability":"view"},{"type":"function","name":"verifyProof","inputs":[{"name":"proofPublicInput","type":"tuple","internalType":"struct ProofPublicInput","components":[{"name":"proofType","type":"uint8","internalType":"enum ProofType"},{"name":"payments","type":"tuple[]","internalType":"struct PaymentPublicInput[]","components":[{"name":"paymentBitcoinTxid","type":"bytes32","internalType":"bytes32"},{"name":"paymentBitcoinBlockHash","type":"bytes32","internalType":"bytes32"},{"name":"orderHash","type":"bytes32","internalType":"bytes32"}]},{"name":"lightClient","type":"tuple","internalType":"struct LightClientPublicInput","components":[{"name":"priorMmrRoot","type":"bytes32","internalType":"bytes32"},{"name":"newMmrRoot","type":"bytes32","internalType":"bytes32"},{"name":"compressedLeavesHash","type":"bytes32","internalType":"bytes32"},{"name":"tipBlockLeaf","type":"tuple","internalType":"struct BlockLeaf","components":[{"name":"blockHash","type":"bytes32","internalType":"bytes32"},{"name":"height","type":"uint32","internalType":"uint32"},{"name":"cumulativeChainwork","type":"uint256","internalType":"uint256"}]}]}]},{"name":"proof","type":"bytes","internalType":"bytes"}],"outputs":[],"stateMutability":"view"},{"type":"function","name":"withdrawFees","inputs":[],"outputs":[],"stateMutability":"nonpayable"},{"type":"event","name":"AuctionUpdated","inputs":[{"name":"auction","type":"tuple","indexed":false,"internalType":"struct DutchAuction","components":[{"name":"index","type":"uint256","internalType":"uint256"},{"name":"baseCreateOrderParams","type":"tuple","internalType":"struct BaseCreateOrderParams","components":[{"name":"owner","type":"address","internalType":"address"},{"name":"bitcoinScriptPubKey","type":"bytes","internalType":"bytes"},{"name":"salt","type":"bytes32","internalType":"bytes32"},{"name":"confirmationBlocks","type":"uint8","internalType":"uint8"},{"name":"safeBlockLeaf","type":"tuple","internalType":"struct BlockLeaf","components":[{"name":"blockHash","type":"bytes32","internalType":"bytes32"},{"name":"height","type":"uint32","internalType":"uint32"},{"name":"cumulativeChainwork","type":"uint256","internalType":"uint256"}]}]},{"name":"dutchAuctionParams","type":"tuple","internalType":"struct DutchAuctionParams","components":[{"name":"startBtcOut","type":"uint256","internalType":"uint256"},{"name":"endBtcOut","type":"uint256","internalType":"uint256"},{"name":"decayBlocks","type":"uint256","internalType":"uint256"},{"name":"deadline","type":"uint256","internalType":"uint256"},{"name":"fillerWhitelistContract","type":"address","internalType":"address"}]},{"name":"depositAmount","type":"uint256","internalType":"uint256"},{"name":"startBlock","type":"uint256","internalType":"uint256"},{"name":"startTimestamp","type":"uint256","internalType":"uint256"},{"name":"state","type":"uint8","internalType":"enum DutchAuctionState"}]}],"anonymous":false},{"type":"event","name":"BitcoinLightClientUpdated","inputs":[{"name":"priorMmrRoot","type":"bytes32","indexed":false,"internalType":"bytes32"},{"name":"newMmrRoot","type":"bytes32","indexed":false,"internalType":"bytes32"}],"anonymous":false},{"type":"event","name":"OrdersUpdated","inputs":[{"name":"orders","type":"tuple[]","indexed":false,"internalType":"struct Order[]","components":[{"name":"index","type":"uint256","internalType":"uint256"},{"name":"timestamp","type":"uint64","internalType":"uint64"},{"name":"unlockTimestamp","type":"uint64","internalType":"uint64"},{"name":"amount","type":"uint256","internalType":"uint256"},{"name":"takerFee","type":"uint256","internalType":"uint256"},{"name":"expectedSats","type":"uint64","internalType":"uint64"},{"name":"bitcoinScriptPubKey","type":"bytes","internalType":"bytes"},{"name":"designatedReceiver","type":"address","internalType":"address"},{"name":"owner","type":"address","internalType":"address"},{"name":"salt","type":"bytes32","internalType":"bytes32"},{"name":"confirmationBlocks","type":"uint8","internalType":"uint8"},{"name":"safeBitcoinBlockHeight","type":"uint64","internalType":"uint64"}]},{"name":"context","type":"uint8","indexed":false,"internalType":"enum OrderUpdateContext"}],"anonymous":false},{"type":"event","name":"OwnershipHandoverCanceled","inputs":[{"name":"pendingOwner","type":"address","indexed":true,"internalType":"address"}],"anonymous":false},{"type":"event","name":"OwnershipHandoverRequested","inputs":[{"name":"pendingOwner","type":"address","indexed":true,"internalType":"address"}],"anonymous":false},{"type":"event","name":"OwnershipTransferred","inputs":[{"name":"oldOwner","type":"address","indexed":true,"internalType":"address"},{"name":"newOwner","type":"address","indexed":true,"internalType":"address"}],"anonymous":false},{"type":"event","name":"PaymentsUpdated","inputs":[{"name":"payments","type":"tuple[]","indexed":false,"internalType":"struct Payment[]","components":[{"name":"index","type":"uint256","internalType":"uint256"},{"name":"orderHash","type":"bytes32","internalType":"bytes32"},{"name":"paymentBitcoinBlockLeaf","type":"tuple","internalType":"struct BlockLeaf","components":[{"name":"blockHash","type":"bytes32","internalType":"bytes32"},{"name":"height","type":"uint32","internalType":"uint32"},{"name":"cumulativeChainwork","type":"uint256","internalType":"uint256"}]},{"name":"challengeExpiryTimestamp","type":"uint64","internalType":"uint64"},{"name":"state","type":"uint8","internalType":"enum PaymentState"}]},{"name":"context","type":"uint8","indexed":false,"internalType":"enum PaymentUpdateContext"}],"anonymous":false},{"type":"error","name":"AlreadyInitialized","inputs":[]},{"type":"error","name":"AuctionAlreadyFilled","inputs":[]},{"type":"error","name":"AuctionAlreadyWithdrawn","inputs":[]},{"type":"error","name":"AuctionExpired","inputs":[]},{"type":"error","name":"AuctionNotExpired","inputs":[]},{"type":"error","name":"BlockNotConfirmed","inputs":[]},{"type":"error","name":"BlockNotInChain","inputs":[]},{"type":"error","name":"ChainworkTooLow","inputs":[]},{"type":"error","name":"CheckpointNotEstablished","inputs":[]},{"type":"error","name":"DepositAmountTooLow","inputs":[]},{"type":"error","name":"DutchAuctionDoesNotExist","inputs":[]},{"type":"error","name":"FillerNotWhitelisted","inputs":[]},{"type":"error","name":"InvalidDeadline","inputs":[]},{"type":"error","name":"InvalidDecimals","inputs":[{"name":"actual","type":"uint8","internalType":"uint8"},{"name":"expected","type":"uint8","internalType":"uint8"}]},{"type":"error","name":"InvalidOrderHash","inputs":[{"name":"actual","type":"bytes32","internalType":"bytes32"},{"name":"expected","type":"bytes32","internalType":"bytes32"}]},{"type":"error","name":"InvalidScriptPubKey","inputs":[]},{"type":"error","name":"InvalidStartBtcOut","inputs":[]},{"type":"error","name":"InvalidTickSize","inputs":[]},{"type":"error","name":"NewOwnerIsZeroAddress","inputs":[]},{"type":"error","name":"NoFeeToWithdraw","inputs":[]},{"type":"error","name":"NoHandoverRequest","inputs":[]},{"type":"error","name":"NoPaymentsToSubmit","inputs":[]},{"type":"error","name":"NotEnoughConfirmationBlocks","inputs":[]},{"type":"error","name":"OrderDoesNotExist","inputs":[]},{"type":"error","name":"OrderNotLive","inputs":[]},{"type":"error","name":"OrderStillActive","inputs":[]},{"type":"error","name":"PaymentDoesNotExist","inputs":[]},{"type":"error","name":"PaymentNotProved","inputs":[]},{"type":"error","name":"SatOutputTooLow","inputs":[]},{"type":"error","name":"StillInChallengePeriod","inputs":[]},{"type":"error","name":"Unauthorized","inputs":[]}],"bytecode":{"object":"0x6101808060405234610351578061374b803803809161001e828561037c565b833981010361012081126103515781519161003b6020820161039f565b60408201519061004d6060840161039f565b9261005a6080820161039f565b9560a08201519561ffff871687036103515760609060bf1901126103515760405191606083016001600160401b038111848210176103685760405260c0810151835260e08101519063ffffffff821682036103515761010091602085015201516040830152306080524660a05260a06040516100d760408261037c565b600c815260208101906b5269667445786368616e676560a01b82526040519161010160408461037c565b60058352602083019164302e302e3160d81b8352519020915190208160c0528060e052604051917f8b73c3c69bb8fe3d512ecc4cf759cc79239f7b179b0ffacaa9a75d522b39400f8352602083015260408201524660608201523060808201522061010052805f5560405191604083019083821060018060401b0383111761036857600392604092835260018552602085019182525f526001602052815f209351151560ff8019865416911617845551805160018501556002840163ffffffff60208301511663ffffffff19825416179055015191015533638b78c6d81955335f7f8be0079c531659141344cd1fd0a4f28419497f9722a3daafe3b4186f6b6457e08180a360405163313ce56760e01b81526020816004816001600160a01b0386165afa801561035d575f9061031c575b60ff915016600881036103055750610120526101405261016052600580546001600160b01b0319166001600160a01b039093169290921760a09190911b61ffff60a01b1617905560405161339790816103b482396080518161080d015260a051816107ea015260c05181610a4b015260e05181610a71015261010051816107c7015261012051818181610dde015281816110890152818161143f015281816114b1015281816115550152611c21015261014051818181611934015261256101526101605181818161198901526124af0152f35b63047e54d360e31b5f52600452600860245260445ffd5b506020813d602011610355575b816103366020938361037c565b81010312610351575160ff811681036103515760ff90610232565b5f80fd5b3d9150610329565b6040513d5f823e3d90fd5b634e487b7160e01b5f52604160045260245ffd5b601f909101601f19168101906001600160401b0382119082101761036857604052565b51906001600160a01b03821682036103515756fe60806040526004361015610011575f80fd5b5f3560e01c80631127a80b14611d075780631993d45414611b6c5780631ea7ec0414611a0157806325692962146119b85780632b7ac3f314611974578063375f16a7146119575780633d7b22b31461191d5780634570a573146114e4578063476343ee14611481578063481c85f11461134957806354d1f13d14611305578063587f5ed7146112e8578063592b6649146111eb578063708f29a6146111ce578063715018a6146111855780637c2301a6146111085780637dd9cb3114610f3457806384b0196e14610e5d5780638da5cb5b14610e315780639a73f4f514610e0d578063a0d9e24114610dc9578063a24462ea14610d39578063be8cc7ee14610c3b578063c286befa14610bf8578063c6da418614610548578063cc38cd7d1461050b578063d21ddc61146104ef578063df69558c146104c6578063e58e0fe31461047e578063eb5e91ff1461041b578063f04e283e146103ce578063f29ebf61146103a6578063f2fde38b14610369578063f3bbbeef14610331578063f5364364146101db5763fee81cf4146101a5575f80fd5b346101d75760203660031901126101d7576101be611f15565b63389a75e1600c525f52602080600c2054604051908152f35b5f80fd5b346101d75760603660031901126101d7576004356001600160401b0381116101d75761020b903690600401611ee5565b6024356001600160401b0381116101d757806004019260c060031983360301126101d7576044356001600160401b0381116101d75761024e903690600401611eb8565b90853595602485013596606486016102706102693683611e78565b8a84612b73565b60848701359063ffffffff821682036101d7577f5c35180c5b92fc495184f0a3363ce073073d6116f2960f867c3806435a40e933996102d36102cc6044966102c261032c9d6103209c6102fb98612dac565b98909c019061292c565b3691611f3f565b6020815191012090604051946102e886611db8565b8552602085015260408401523690611e78565b60608201526040519161030d83611d9d565b60028352602083015260408201526124a5565b604051918291826127e2565b0390a1005b346101d75760203660031901126101d7576004356006548110156101d75761035a602091611d70565b90549060031b1c604051908152f35b60203660031901126101d75761037d611f15565b610385612c87565b8060601b156103995761039790612ca3565b005b637448fbae5f526004601cfd5b346101d7575f3660031901126101d7576005546040516001600160a01b039091168152602090f35b60203660031901126101d7576103e2611f15565b6103ea612c87565b63389a75e1600c52805f526020600c20908154421161040e575f6103979255612ca3565b636f5e88185f526004601cfd5b346101d75760203660031901126101d7576004355f526001602052608060405f2061047c610450600160ff8454169301612181565b60405192151583526020830190604080918051845263ffffffff60208201511660208501520151910152565bf35b346101d75760203660031901126101d75760043561ffff811681036101d7576104a5612c87565b6005805461ffff60a01b191660a09290921b61ffff60a01b16919091179055005b346101d75760203660031901126101d7576004356002548110156101d75761035a602091611d58565b346101d7575f3660031901126101d75760205f54604051908152f35b346101d7575f3660031901126101d757602061053a5f545f52600160205263ffffffff600260405f2001541690565b63ffffffff60405191168152f35b346101d75760803660031901126101d7576004356001600160401b0381116101d757610578903690600401612028565b6024356001600160401b0381116101d757610597903690600401611f84565b906044356001600160401b0381116101d7576105b7903690600401611ee5565b91906064356001600160401b0381116101d7576105d8903690600401611ee5565b9390916105e484612b5e565b6105ee8551611d70565b90549060031b1c03610be95760c08401956001875161060c81612455565b61061581612455565b14610bda5760408501906060825101514211610bcb578151608001516001600160a01b031680610b27575b505061066c90608086015161065a604083510151826122ca565b9151906020825192015192439161307e565b9160208501516060860151946040519360c08501908582106001600160401b03831117610a07576106d5936106c69260405286526020860194338652604087019889526001600160401b036060880198168852369161211a565b9760808501988952369161211a565b9560a08301968752600254966106e96122d7565b5061ffff60055460a01c1691865183155f14610af9576001905b10610aea576103e86001600160401b0387511610610adb57600260ff6060875101511610610acc57610739602086510151613121565b15610abd5761075291608086510151915190519161295e565b8451818102918183041490151715610aa95761271090049060ff60608451015116611c200263ffffffff8116908103610aa9576107a4836001600160401b0361079c8194426122ca565b169751612ffd565b945184516020810151935190516001600160a01b039081169591169392909116907f00000000000000000000000000000000000000000000000000000000000000008a467f000000000000000000000000000000000000000000000000000000000000000014307f0000000000000000000000000000000000000000000000000000000000000000141615610a1b575b875160409081015181519384526020840152820152606090205b95519663ffffffff6020608060ff60608c0151169a0151015116986040519b6108768d611dee565b8c526001600160401b03421660208d015260408c015260608b015260808a015260a089015260c088015260e08701526101008601526101208501526101408401526101608301526108c682612a26565b60025490600160401b821015610a07576108eb82600161090394016002556002611d88565b90919082549060031b91821b915f19901b1916179055565b61090b612330565b9161091583612370565b5261091f82612370565b50604051604081016040825283518091526060820190602060608260051b8501019501915f905b8282106109dc57505050507ff8b9da109a8a429429945d6f1c38f3af7b160026a3e9200e7cebae483c6a8c63937f3310fbf3c1854748017a4d2421aba183759f0ed6f8fdecf46a7505ba01a5a953828061032c965f602060019701520390a1526109bc6109b282612b5e565b6108eb8351611d70565b60405191829182612831565b634e487b7160e01b5f52602160045260245ffd5b909192956020806109f9600193605f198982030186528a51612391565b980192019201909291610946565b634e487b7160e01b5f52604160045260245ffd5b505061084e8a60a06040517f8b73c3c69bb8fe3d512ecc4cf759cc79239f7b179b0ffacaa9a75d522b39400f81527f000000000000000000000000000000000000000000000000000000000000000060208201527f00000000000000000000000000000000000000000000000000000000000000006040820152466060820152306080820152209150610834565b634e487b7160e01b5f52601160045260245ffd5b63fad7db0760e01b5f5260045ffd5b63bdf8f2b360e01b5f5260045ffd5b63fde5943160e01b5f5260045ffd5b6355fcd02760e01b5f5260045ffd5b836127100161ffff8111610aa95761ffff5f1991160161ffff8111610aa9578461ffff809216041690610703565b610b57916020916040518080958194631f0a8fa760e01b83523360048401526040602484015260448301906120f6565b03915afa908115610bc0575f91610b85575b5015610b76578780610640565b63754760cb60e11b5f5260045ffd5b90506020813d602011610bb8575b81610ba060209383611e40565b810103126101d7575180151581036101d75788610b69565b3d9150610b93565b6040513d5f823e3d90fd5b630129799f60e21b5f5260045ffd5b63ab2e1f8760e01b5f5260045ffd5b634df2e8a360e01b5f5260045ffd5b346101d75760203660031901126101d757610c11611f15565b610c19612c87565b600580546001600160a01b0319166001600160a01b0392909216919091179055005b346101d75760403660031901126101d7576004356001600160401b0381116101d757610c6b903690600401611ee5565b602435916001600160401b0383116101d75761032061032c92610cdb610cb67f5c35180c5b92fc495184f0a3363ce073073d6116f2960f867c3806435a40e933963690600401611eb8565b929094610cd65f545f52600160205263ffffffff600260405f2001541690565b612dac565b604094919451610cea81611d9d565b5f81525f60208201525f604082015260405190610d0682611db8565b5f82525f60208301525f6040830152606082015260405191610d2783611d9d565b5f8352602083015260408201526124a5565b346101d757366003190160a081126101d7576060136101d757604051610d5e81611d9d565b600435815260243563ffffffff811681036101d757602082015260443560408201526064356001600160401b0381116101d757610d9f903690600401612166565b90608435916001600160401b0383116101d757610dc3610397933690600401612166565b9161295e565b346101d7575f3660031901126101d7576040517f00000000000000000000000000000000000000000000000000000000000000006001600160a01b03168152602090f35b346101d7575f3660031901126101d757602061ffff60055460a01c16604051908152f35b346101d7575f3660031901126101d757638b78c6d819546040516001600160a01b039091168152602090f35b346101d7575f3660031901126101d757610ed66040610ee3815191610e828184611e40565b600c83526b5269667445786368616e676560a01b60208401528051610ea78282611e40565b6005815264302e302e3160d81b60208201528151948594600f60f81b865260e0602087015260e08601906120f6565b91848303908501526120f6565b4660608301523060808301525f60a083015281810360c083015260206060519182815201906080905f5b818110610f1b575050500390f35b8251845285945060209384019390920191600101610f0d565b346101d75760e03660031901126101d75760043560a03660231901126101d757604051610f6081611e0a565b602435815260443560208201908152606435604083019081526084356060840190815290929160a4356001600160a01b03811681036101d757608084015260c435936001600160401b0385116101d75760e060031986360301126101d75751156110f9578251905110156110ea575142116110db57610ff56006549260405193610fe985611dd3565b84523690600401611fb0565b602083015260408201528160608201524360808201524260a08201525f60c082015261102081612b5e565b60065491600160401b831015610a07576109bc61106a926108eb8560017ff8b9da109a8a429429945d6f1c38f3af7b160026a3e9200e7cebae483c6a8c6397016006556006611d88565b0390a160609081523060405233901b602c526323b872dd60601b600c527f000000000000000000000000000000000000000000000000000000000000000060205f6064601c82855af1908160015f511416156110c257005b3b153d1710156110ce57005b637939f4245f526004601cfd5b631da7447960e21b5f5260045ffd5b6365da293b60e11b5f5260045ffd5b63747a60fb60e01b5f5260045ffd5b346101d75760c03660031901126101d75761118160405161112881611db8565b600435815260243560208201526044356040820152611148366064611e78565b606082015261115e60405191602083019061245f565b60c0815261116d60e082611e40565b6040519182916020835260208301906120f6565b0390f35b5f3660031901126101d757611198612c87565b5f638b78c6d819547f8be0079c531659141344cd1fd0a4f28419497f9722a3daafe3b4186f6b6457e08280a35f638b78c6d81955005b346101d7575f3660031901126101d7576020600354604051908152f35b346101d75760403660031901126101d7576004356001600160401b0381116101d7578060040160c060031983360301126101d7576024356001600160401b0381116101d75761123e903690600401611eb8565b91803561126f6102cc60248701359360446064890198611268611261368c611e78565b8888612b73565b019061292c565b80516020919091012060405192611287602085611e40565b5f84525f805b8181106112d1575050956112ac9161039797604051946102e886611db8565b6060820152604051916112be83611d9d565b60018352602083015260408201526124a5565b6020906112dc612608565b8282890101520161128d565b346101d7575f3660031901126101d7576020600454604051908152f35b5f3660031901126101d75763389a75e1600c52335f525f6020600c2055337ffa7b8eab7da67f412cc9575ed43464468f9bfbae89d1675917346ca6d8fe3c925f80a2005b346101d75760203660031901126101d7576004356001600160401b0381116101d757611379903690600401612028565b61138281612b5e565b61138c8251611d70565b90549060031b1c03610be95760c0810190600182516113aa81612455565b6113b381612455565b14610bda57600282516113c581612455565b6113ce81612455565b1461147257606060408201510151421061146357600261039792526113f56109b282612b5e565b7ff8b9da109a8a429429945d6f1c38f3af7b160026a3e9200e7cebae483c6a8c63604051806114248482612831565b0390a1602081015151606090910151906001600160a01b03167f0000000000000000000000000000000000000000000000000000000000000000612a57565b639eafe1b760e01b5f5260045ffd5b63063d8c8960e51b5f5260045ffd5b346101d7575f3660031901126101d75760045480156114d5575f60045560055461039791906001600160a01b03167f0000000000000000000000000000000000000000000000000000000000000000612a57565b630c5214e560e31b5f5260045ffd5b346101d75760203660031901126101d7576004356001600160401b0381116101d757611514903690600401611ee5565b9061151e82612626565b9061152883611e61565b926115366040519485611e40565b808452601f1961154582611e61565b015f5b81811061190657505f92917f00000000000000000000000000000000000000000000000000000000000000009150835b81811061168957868661158d876004546122ca565b600455604051604081016040825282518091526020606083019301905f5b81811061166957505050807f5c35180c5b92fc495184f0a3363ce073073d6116f2960f867c3806435a40e93392600160208301520390a1604051604081016040825282518091526060820190602060608260051b8501019401915f905b82821061163e57600160208601527f3310fbf3c1854748017a4d2421aba183759f0ed6f8fdecf46a7505ba01a5a95385870386a1005b9091929460208061165b600193605f198982030186528951612391565b970192019201909291611608565b909193602060e08261167e6001948951612780565b0195019291016115ab565b602061169682848761269a565b016116b36116ac6116a73684612720565b612b3d565b9135611d2c565b90549060031b1c036118f75760e06116cc82848761269a565b013560028110156101d7576116e0816126bd565b6118e8576001600160401b0361170260c06116fc84868961269a565b016121af565b1642106118d95761172561172061171a83858861269a565b806126c7565b6129e9565b604061173283858861269a565b013581036118b557506001906117b161175836606061175285888b61269a565b01611e78565b848761177361176886848461269a565b6101008101906126dd565b9060ff6117aa6101406117a461171a8b61179c611791828c8c61269a565b6101208101906126dd565b9a909961269a565b01612712565b1694612aa8565b6117cf6117bf82858861269a565b6117ca3691806126c7565b6121d7565b5f60608201525f60808201526117f16117e782612a26565b6108eb8351611d58565b6117fb828a61237d565b52611806818961237d565b5061186361182136602061181b85888b61269a565b01612720565b9683608089015261184b61183489612b3d565b6108eb6020611844878a8d61269a565b0135611d2c565b608061185b61171a85888b61269a565b0135906122ca565b9561189961188060e061187a61171a86898c61269a565b016122b6565b606061189061171a86898c61269a565b01359087612a57565b6118a3828961237d565b526118ae818861237d565b5001611578565b60406118c283858861269a565b0135638f83aff160e01b5f5260045260245260445ffd5b632d5c37f560e21b5f5260045ffd5b6304261aed60e21b5f5260045ffd5b636f8e482b60e11b5f5260045ffd5b6020906119116122d7565b82828901015201611548565b346101d7575f3660031901126101d75760206040517f00000000000000000000000000000000000000000000000000000000000000008152f35b346101d7575f3660031901126101d7576020600254604051908152f35b346101d7575f3660031901126101d7576040517f00000000000000000000000000000000000000000000000000000000000000006001600160a01b03168152602090f35b5f3660031901126101d75763389a75e1600c52335f526202a30042016020600c2055337fdbf36a107da19e49527a7176a1babf963b4b0ff8cde35ee35d6cd8f1f9ac7e1d5f80a2005b346101d75760403660031901126101d7576004356001600160401b0381116101d757803603906101006003198301126101d75760405191611a4183611d9d565b816004013560038110156101d757835260248201356001600160401b0381116101d7578201366023820112156101d7576004810135611a7f81611e61565b91611a8d6040519384611e40565b818352602060046060828601940283010101903682116101d757602401915b818310611b3057505050602084015260c0604319909101126101d757611afd60405191611ad883611db8565b60448101358352606481013560208401526084810135604084015260a4369101611e78565b60608201526040820152602435906001600160401b0382116101d757611b2a610397923690600401611eb8565b916124a5565b6060833603126101d7576020606091604051611b4b81611d9d565b85358152828601358382015260408601356040820152815201920191611aac565b346101d75760203660031901126101d7576004356001600160401b0381116101d7578060040161018060031983360301126101d757611baa816129e9565b506064820135918215611cf8576001600160401b03611bcb604483016121af565b164210611ce957611c1e611be3611c459336906121d7565b935f60608601525f6080860152611c06611bfc86612a26565b6108eb8751611d58565b6084611c1561010485016122b6565b930135906122ca565b907f0000000000000000000000000000000000000000000000000000000000000000612a57565b611c4d612330565b90611c5782612370565b52611c6181612370565b50604051604081016040825282518091526060820190602060608260051b8501019401915f905b828210611cbe57600260208601527f3310fbf3c1854748017a4d2421aba183759f0ed6f8fdecf46a7505ba01a5a95385870386a1005b90919294602080611cdb600193605f198982030186528951612391565b970192019201909291611c88565b631ef96db360e21b5f5260045ffd5b6352bfa29d60e01b5f5260045ffd5b346101d75760203660031901126101d7576004356003548110156101d75761035a6020915b600354811015611d445760035f5260205f2001905f90565b634e487b7160e01b5f52603260045260245ffd5b600254811015611d445760025f5260205f2001905f90565b600654811015611d445760065f5260205f2001905f90565b8054821015611d44575f5260205f2001905f90565b606081019081106001600160401b03821117610a0757604052565b608081019081106001600160401b03821117610a0757604052565b60e081019081106001600160401b03821117610a0757604052565b61018081019081106001600160401b03821117610a0757604052565b60a081019081106001600160401b03821117610a0757604052565b604081019081106001600160401b03821117610a0757604052565b90601f801991011681019081106001600160401b03821117610a0757604052565b6001600160401b038111610a075760051b60200190565b91908260609103126101d757604051611e9081611d9d565b809280358252602081013563ffffffff811681036101d7576020830152604090810135910152565b9181601f840112156101d7578235916001600160401b0383116101d757602083818601950101116101d757565b9181601f840112156101d7578235916001600160401b0383116101d7576020808501948460051b0101116101d757565b600435906001600160a01b03821682036101d757565b35906001600160a01b03821682036101d757565b9291926001600160401b038211610a075760405191611f68601f8201601f191660200184611e40565b8294818452818301116101d7578281602093845f960137010152565b9080601f830112156101d757816020611f9f93359101611f3f565b90565b359060ff821682036101d757565b919060e0838203126101d75760405190611fc982611e0a565b8193611fd481611f2b565b83526020810135916001600160401b0383116101d757608082611ffd8383966120239601611f84565b60208701526040810135604087015261201860608201611fa2565b606087015201611e78565b910152565b91908281039261016084126101d7576040519161204483611dd3565b82948235845260208301356001600160401b0381116101d75760a09261206b918501611fb0565b6020850152603f1901126101d7576101409060405161208981611e0a565b60408201358152606082013560208201526080820135604082015260a082013560608201526120ba60c08301611f2b565b6080820152604084015260e08101356060840152610100810135608084015261012081013560a084015201359060038210156101d75760c00152565b805180835260209291819084018484015e5f828201840152601f01601f1916010190565b92919061212681611e61565b936121346040519586611e40565b602085838152019160051b81019283116101d757905b82821061215657505050565b813581526020918201910161214a565b9080601f830112156101d757816020611f9f9335910161211a565b9060405161218e81611d9d565b6040600282948054845263ffffffff60018201541660208501520154910152565b356001600160401b03811681036101d75790565b35906001600160401b03821682036101d757565b919091610180818403126101d757604051906121f282611dee565b819381358352612204602083016121c3565b6020840152612215604083016121c3565b6040840152606082013560608401526080820135608084015261223a60a083016121c3565b60a084015260c0820135906001600160401b0382116101d75782612268610160949261202394869401611f84565b60c086015261227960e08201611f2b565b60e086015261228b6101008201611f2b565b6101008601526101208101356101208601526122aa6101408201611fa2565b610140860152016121c3565b356001600160a01b03811681036101d75790565b91908201809211610aa957565b604051906122e482611dee565b5f610160838281528260208201528260408201528260608201528260808201528260a0820152606060c08201528260e08201528261010082015282610120820152826101408201520152565b604080519091906123418382611e40565b6001815291601f1901825f5b82811061235957505050565b6020906123646122d7565b8282850101520161234d565b805115611d445760200190565b8051821015611d445760209160051b010190565b90815181526001600160401b0360208301511660208201526001600160401b03604083015116604082015260608201516060820152608082015160808201526001600160401b0360a08301511660a08201526101606001600160401b038161240a60c086015161018060c08701526101808601906120f6565b9460018060a01b0360e08201511660e086015260018060a01b036101008201511661010086015261012081015161012086015260ff6101408201511661014086015201511691015290565b600311156109c857565b906060806124a3938051845260208101516020850152604081015160408501520151910190604080918051845263ffffffff60208201511660208501520151910152565b565b9060018060a01b037f0000000000000000000000000000000000000000000000000000000000000000166040519260208085015283610140810182516124ea81612455565b604083015260208301519061010060608401528151809152602061016084019201905f5b8181106125d65750505061252d604061253b940151608084019061245f565b03601f198101855284611e40565b803b156101d75761259660205f9486946040519788968795869463020a49e360e51b86527f000000000000000000000000000000000000000000000000000000000000000060048701526060602487015260648601906120f6565b84810360031901604486015281815292858401378181018401889052601f01601f1916010301915afa8015610bc0576125cc5750565b5f6124a391611e40565b91949350916020606060019260408851805183528481015185840152015160408201520195019101918793949261250e565b6040519061261582611d9d565b5f6040838281528260208201520152565b9061263082611e61565b61263d6040519182611e40565b828152809261264e601f1991611e61565b01905f5b82811061265e57505050565b60209060405161266d81611e0a565b5f81525f8382015261267d612608565b60408201525f60608201525f608082015282828501015201612652565b9190811015611d445760051b8101359061015e19813603018212156101d7570190565b600211156109c857565b90359061017e19813603018212156101d7570190565b903590601e19813603018212156101d757018035906001600160401b0382116101d757602001918160051b360383136101d757565b3560ff811681036101d75790565b91909160e0818403126101d75760c06040519161273c83611e0a565b6127588395823585526020830135602086015260408301611e78565b604084015261276960a082016121c3565b606084015201359060028210156101d75760800152565b608060c09180518452602081015160208501526127bf60408201516040860190604080918051845263ffffffff60208201511660208501520151910152565b6001600160401b0360608201511660a08501520151916127de836126bd565b0152565b9190604083016040845281518091526020606085019201905f5b8181106128115750919391505060205f910152565b909192602060e0826128266001948851612780565b0194019291016127fc565b602081528151602082015261016060c060208401519382604085015260018060a01b038551166101808501526128bf608061287d602088015160e06101a08901526102608801906120f6565b6040808901516101c0890152606089015160ff166101e089015291909701518051610200880152602081015163ffffffff166102208801520151610240860152565b60408101518051606086015260208101516080860152604081015160a0860152606081015183860152608060018060a01b039101511660e08501526060810151610100850152608081015161012085015260a081015161014085015201519161292783612455565b015290565b903590601e19813603018212156101d757018035906001600160401b0382116101d7576020019181360383136101d757565b9063ffffffff61299183516020850194604084875116910151919091606092604051928352602083015260408201522090565b92511692600163ffffffff6129b95f545f52600160205263ffffffff600260405f2001541690565b16019163ffffffff8311610aa9576129d3945f5494612ce0565b156129da57565b632814065160e01b5f5260045ffd5b612a076129fe6129f936846121d7565b612a26565b91356002611d88565b90549060031b1c8103612a175790565b635dcaf2d760e01b5f5260045ffd5b604051612a5181612a436020820194602086526040830190612391565b03601f198101835282611e40565b51902090565b919060145260345263a9059cbb60601b5f5260205f6044601082855af1908160015f51141615612a8a575b50505f603452565b3b153d171015612a9b575f80612a82565b6390b8ec185f526004601cfd5b94939192612abe612ac692612acd95369161211a565b92369161211a565b908461295e565b63ffffffff6020612af15f545f52600160205263ffffffff600260405f2001541690565b930151169063ffffffff5f1991160163ffffffff8111610aa95763ffffffff160163ffffffff8111610aa95763ffffffff809116911610612b2e57565b630a47293560e31b5f5260045ffd5b604051612b4e602082018093612780565b60e08152612a5161010082611e40565b604051612a5181612a43602082019485612831565b9190915f54808414612c8157815f52600160205260405f20612bac600160405192612b9d84611e25565b60ff8154161515845201612181565b60208201525115612c72575f526001602052600360405f20015460408301511115612c63577f4ecbd24cd7522746649cae9ac63fd99619cc85837ae3447a114bbbc3a804349692604092600384805192612c0584611e25565b6001845260208401908152845f526001602052815f209351151560ff8019865416911617845551805160018501556002840163ffffffff60208301511663ffffffff198254161790550151910155805f5582519182526020820152a1565b6307800bf560e21b5f5260045ffd5b63e1965c6560e01b5f5260045ffd5b50505050565b638b78c6d819543303612c9657565b6382b429005f526004601cfd5b60018060a01b031680638b78c6d819547f8be0079c531659141344cd1fd0a4f28419497f9722a3daafe3b4186f6b6457e05f80a3638b78c6d81955565b939591929490955f945b8451861015612d3c57600188811c98811603612d1f57612d0a868661237d565b515f52602052600160405f20955b0194612cea565b612d29868661237d565b51905f52602052600160405f2095612d18565b95929650925092505f935f5b8251811015612da25781612d5c828561237d565b5114612d6a57600101612d48565b50509091925060015b15612d9b57612d819061300a565b908115612d9b5763ffffffff165f5260205260405f201490565b5050505f90565b5050909192612d73565b9091928315612fee57612dbe84611e61565b90612dcc6040519283611e40565b848252601f19612ddb86611e61565b015f5b818110612fd75750508190612df286612626565b91600354915f5b88811015612fcc57612e0b81856122ca565b8160051b89013560de198a3603018112156101d7578901876001600160401b03612ec96101606116fc60208601612e4561172082896126c7565b96612e7c8a6040830198604051612e5b81611d9d565b843581528a3560208201528b6040820152612e76838361237d565b5261237d565b50612ec487612e8e60a08401846126dd565b90612e9c60c08601866126dd565b92909160ff612ebc612eb46101406117a48c8c6126c7565b963690611e78565b951694612aa8565b6126c7565b1663ffffffff8b16036001600160401b038111610aa9576001600160401b03166085026001600160401b038116908103610aa95761e3b3016001600160401b038111610aa9576001600160401b036103e88161012c9316041601906001600160401b038211610aa9576001600160401b03612f4981612f669416426122ca565b169260405194612f5886611e0a565b855260208501523690611e78565b604083015260608201525f6080820152612f80828761237d565b52612f8b818661237d565b50612f9f612f99828761237d565b51612b3d565b90600354600160401b811015610a07576001926108eb8285612fc694016003556003611d88565b01612df9565b509450945050935050565b602090612fe2612608565b82828701015201612dde565b630b35156b60e31b5f5260045ffd5b91908203918211610aa957565b80518015613060575f198101908111610aa957613027908261237d565b519080515f198101908111610aa957805b61304157505090565b5f19019161304f838361237d565b515f526020528160405f2092613038565b50505f90565b81810392915f138015828513169184121617610aa957565b9091939293828110156130f657906130998161309f93612ffd565b92612ffd565b9083808412156130e3576130bb936130b691613066565b6130fe565b600160ff1b8114610aa9575f03905b5f8282019283129112908015821691151617610aa95790565b6130b6906130f094613066565b906130ca565b505050905090565b8181029181159183041417820215613114570490565b63ad251c275f526004601cfd5b80516016811461331f57601781146132a857601981146131d75760221461314757505f90565b805115611d44576020810180516001600160f81b03191680156131b957605160f81b146131745750505f90565b815115611d4457516001600160f81b031916605160f81b149081613196575090565b8091505160011015611d4457602101516001600160f81b031916600160fd1b1490565b50815115611d4457516001600160f81b031916159081613196575090565b50805115611d445760208101516001600160f81b031916603b60f91b149081613281575b8161325a575b81613233575b81613210575090565b8091505160181015611d4457603801516001600160f81b031916602b60fa1b1490565b8091505160171015611d445760378101516001600160f81b031916601160fb1b1490613207565b8091505160021015611d445760228101516001600160f81b031916600560fa1b1490613201565b8091505160011015611d445760218101516001600160f81b03191660a960f81b14906131fb565b50805115611d445760208101516001600160f81b03191660a960f81b1490816132f8575b816132d5575090565b8091505160161015611d4457603601516001600160f81b031916608760f81b1490565b8091505160011015611d445760218101516001600160f81b031916600560fa1b14906132cc565b15611d445760208101516001600160f81b03191615908161333e575090565b8091505160011015611d4457602101516001600160f81b031916600560fa1b149056fea264697066735822122072977ef498e972365e0bbb39337824ed649ae2d3a84faeda274a06a8c898fbe264736f6c634300081c0033","linkReferences":{}},"methodIdentifiers":{"accumulatedFees()":"587f5ed7","adminSetFeeRouter(address)":"c286befa","adminSetTakerFeeBips(uint16)":"e58e0fe3","auctionHashes(uint256)":"f3bbbeef","cancelOwnershipHandover()":"54d1f13d","checkpoints(bytes32)":"eb5e91ff","circuitVerificationKey()":"3d7b22b3","completeOwnershipHandover(address)":"f04e283e","eip712Domain()":"84b0196e","feeRouter()":"f29ebf61","fillAuction((uint256,(address,bytes,bytes32,uint8,(bytes32,uint32,uint256)),(uint256,uint256,uint256,uint256,address),uint256,uint256,uint256,uint8),bytes,bytes32[],bytes32[])":"c6da4186","getTotalOrders()":"375f16a7","getTotalPayments()":"708f29a6","lightClientHeight()":"cc38cd7d","mmrRoot()":"d21ddc61","orderHashes(uint256)":"df69558c","owner()":"8da5cb5b","ownershipHandoverExpiresAt(address)":"fee81cf4","paymentHashes(uint256)":"1127a80b","refundAuction((uint256,(address,bytes,bytes32,uint8,(bytes32,uint32,uint256)),(uint256,uint256,uint256,uint256,address),uint256,uint256,uint256,uint8))":"481c85f1","refundOrder((uint256,uint64,uint64,uint256,uint256,uint64,bytes,address,address,bytes32,uint8,uint64))":"1993d454","renounceOwnership()":"715018a6","requestOwnershipHandover()":"25692962","serializeLightClientPublicInput((bytes32,bytes32,bytes32,(bytes32,uint32,uint256)))":"7c2301a6","settleOrders(((uint256,uint64,uint64,uint256,uint256,uint64,bytes,address,address,bytes32,uint8,uint64),(uint256,bytes32,(bytes32,uint32,uint256),uint64,uint8),bytes32[],bytes32[],uint32)[])":"4570a573","startAuction(uint256,(uint256,uint256,uint256,uint256,address),(address,bytes,bytes32,uint8,(bytes32,uint32,uint256)))":"7dd9cb31","submitPaymentProofs((bytes32,(uint256,uint64,uint64,uint256,uint256,uint64,bytes,address,address,bytes32,uint8,uint64),(bytes32,uint32,uint256),bytes32[],bytes32[])[],(bytes32,bytes32,bytes,(bytes32,uint32,uint256)),bytes)":"f5364364","submitPaymentProofs((bytes32,(uint256,uint64,uint64,uint256,uint256,uint64,bytes,address,address,bytes32,uint8,uint64),(bytes32,uint32,uint256),bytes32[],bytes32[])[],bytes)":"be8cc7ee","syntheticBitcoin()":"a0d9e241","takerFeeBips()":"9a73f4f5","transferOwnership(address)":"f2fde38b","updateLightClient((bytes32,bytes32,bytes,(bytes32,uint32,uint256)),bytes)":"592b6649","verifier()":"2b7ac3f3","verifyBlockInclusion((bytes32,uint32,uint256),bytes32[],bytes32[])":"a24462ea","verifyProof((uint8,(bytes32,bytes32,bytes32)[],(bytes32,bytes32,bytes32,(bytes32,uint32,uint256))),bytes)":"1ea7ec04","withdrawFees()":"476343ee"},"storageLayout":{"storage":[{"astId":5595,"contract":"src/BTCDutchAuctionHouse.sol:BTCDutchAuctionHouse","label":"mmrRoot","offset":0,"slot":"0","type":"t_bytes32"},{"astId":5600,"contract":"src/BTCDutchAuctionHouse.sol:BTCDutchAuctionHouse","label":"checkpoints","offset":0,"slot":"1","type":"t_mapping(t_bytes32,t_struct(BitcoinCheckpoint)7259_storage)"},{"astId":6090,"contract":"src/BTCDutchAuctionHouse.sol:BTCDutchAuctionHouse","label":"orderHashes","offset":0,"slot":"2","type":"t_array(t_bytes32)dyn_storage"},{"astId":6093,"contract":"src/BTCDutchAuctionHouse.sol:BTCDutchAuctionHouse","label":"paymentHashes","offset":0,"slot":"3","type":"t_array(t_bytes32)dyn_storage"},{"astId":6095,"contract":"src/BTCDutchAuctionHouse.sol:BTCDutchAuctionHouse","label":"accumulatedFees","offset":0,"slot":"4","type":"t_uint256"},{"astId":6097,"contract":"src/BTCDutchAuctionHouse.sol:BTCDutchAuctionHouse","label":"feeRouter","offset":0,"slot":"5","type":"t_address"},{"astId":6099,"contract":"src/BTCDutchAuctionHouse.sol:BTCDutchAuctionHouse","label":"takerFeeBips","offset":20,"slot":"5","type":"t_uint16"},{"astId":5256,"contract":"src/BTCDutchAuctionHouse.sol:BTCDutchAuctionHouse","label":"auctionHashes","offset":0,"slot":"6","type":"t_array(t_bytes32)dyn_storage"}],"types":{"t_address":{"encoding":"inplace","label":"address","numberOfBytes":"20"},"t_array(t_bytes32)dyn_storage":{"encoding":"dynamic_array","label":"bytes32[]","numberOfBytes":"32","base":"t_bytes32"},"t_bool":{"encoding":"inplace","label":"bool","numberOfBytes":"1"},"t_bytes32":{"encoding":"inplace","label":"bytes32","numberOfBytes":"32"},"t_mapping(t_bytes32,t_struct(BitcoinCheckpoint)7259_storage)":{"encoding":"mapping","key":"t_bytes32","label":"mapping(bytes32 => struct BitcoinCheckpoint)","numberOfBytes":"32","value":"t_struct(BitcoinCheckpoint)7259_storage"},"t_struct(BitcoinCheckpoint)7259_storage":{"encoding":"inplace","label":"struct BitcoinCheckpoint","numberOfBytes":"128","members":[{"astId":7255,"contract":"src/BTCDutchAuctionHouse.sol:BTCDutchAuctionHouse","label":"established","offset":0,"slot":"0","type":"t_bool"},{"astId":7258,"contract":"src/BTCDutchAuctionHouse.sol:BTCDutchAuctionHouse","label":"tipBlockLeaf","offset":0,"slot":"1","type":"t_struct(BlockLeaf)7253_storage"}]},"t_struct(BlockLeaf)7253_storage":{"encoding":"inplace","label":"struct BlockLeaf","numberOfBytes":"96","members":[{"astId":7248,"contract":"src/BTCDutchAuctionHouse.sol:BTCDutchAuctionHouse","label":"blockHash","offset":0,"slot":"0","type":"t_bytes32"},{"astId":7250,"contract":"src/BTCDutchAuctionHouse.sol:BTCDutchAuctionHouse","label":"height","offset":0,"slot":"1","type":"t_uint32"},{"astId":7252,"contract":"src/BTCDutchAuctionHouse.sol:BTCDutchAuctionHouse","label":"cumulativeChainwork","offset":0,"slot":"2","type":"t_uint256"}]},"t_uint16":{"encoding":"inplace","label":"uint16","numberOfBytes":"2"},"t_uint256":{"encoding":"inplace","label":"uint256","numberOfBytes":"32"},"t_uint32":{"encoding":"inplace","label":"uint32","numberOfBytes":"4"}}},"id":19}