{"abi":[{"type":"constructor","inputs":[{"name":"bundler3","type":"address","internalType":"address"},{"name":"morpho","type":"address","internalType":"address"},{"name":"wNative","type":"address","internalType":"address"}],"stateMutability":"nonpayable"},{"type":"receive","stateMutability":"payable"},{"type":"function","name":"BUNDLER3","inputs":[],"outputs":[{"name":"","type":"address","internalType":"address"}],"stateMutability":"view"},{"type":"function","name":"MORPHO","inputs":[],"outputs":[{"name":"","type":"address","internalType":"contract IMorpho"}],"stateMutability":"view"},{"type":"function","name":"WRAPPED_NATIVE","inputs":[],"outputs":[{"name":"","type":"address","internalType":"contract IWNative"}],"stateMutability":"view"},{"type":"function","name":"erc20Transfer","inputs":[{"name":"token","type":"address","internalType":"address"},{"name":"receiver","type":"address","internalType":"address"},{"name":"amount","type":"uint256","internalType":"uint256"}],"outputs":[],"stateMutability":"nonpayable"},{"type":"function","name":"erc20TransferFrom","inputs":[{"name":"token","type":"address","internalType":"address"},{"name":"receiver","type":"address","internalType":"address"},{"name":"amount","type":"uint256","internalType":"uint256"}],"outputs":[],"stateMutability":"nonpayable"},{"type":"function","name":"erc4626Deposit","inputs":[{"name":"vault","type":"address","internalType":"address"},{"name":"assets","type":"uint256","internalType":"uint256"},{"name":"maxSharePriceE27","type":"uint256","internalType":"uint256"},{"name":"receiver","type":"address","internalType":"address"}],"outputs":[],"stateMutability":"nonpayable"},{"type":"function","name":"erc4626Mint","inputs":[{"name":"vault","type":"address","internalType":"address"},{"name":"shares","type":"uint256","internalType":"uint256"},{"name":"maxSharePriceE27","type":"uint256","internalType":"uint256"},{"name":"receiver","type":"address","internalType":"address"}],"outputs":[],"stateMutability":"nonpayable"},{"type":"function","name":"erc4626Redeem","inputs":[{"name":"vault","type":"address","internalType":"address"},{"name":"shares","type":"uint256","internalType":"uint256"},{"name":"minSharePriceE27","type":"uint256","internalType":"uint256"},{"name":"receiver","type":"address","internalType":"address"},{"name":"owner","type":"address","internalType":"address"}],"outputs":[],"stateMutability":"nonpayable"},{"type":"function","name":"erc4626Withdraw","inputs":[{"name":"vault","type":"address","internalType":"address"},{"name":"assets","type":"uint256","internalType":"uint256"},{"name":"minSharePriceE27","type":"uint256","internalType":"uint256"},{"name":"receiver","type":"address","internalType":"address"},{"name":"owner","type":"address","internalType":"address"}],"outputs":[],"stateMutability":"nonpayable"},{"type":"function","name":"morphoBorrow","inputs":[{"name":"marketParams","type":"tuple","internalType":"struct MarketParams","components":[{"name":"loanToken","type":"address","internalType":"address"},{"name":"collateralToken","type":"address","internalType":"address"},{"name":"oracle","type":"address","internalType":"address"},{"name":"irm","type":"address","internalType":"address"},{"name":"lltv","type":"uint256","internalType":"uint256"}]},{"name":"assets","type":"uint256","internalType":"uint256"},{"name":"shares","type":"uint256","internalType":"uint256"},{"name":"minSharePriceE27","type":"uint256","internalType":"uint256"},{"name":"receiver","type":"address","internalType":"address"}],"outputs":[],"stateMutability":"nonpayable"},{"type":"function","name":"morphoFlashLoan","inputs":[{"name":"token","type":"address","internalType":"address"},{"name":"assets","type":"uint256","internalType":"uint256"},{"name":"data","type":"bytes","internalType":"bytes"}],"outputs":[],"stateMutability":"nonpayable"},{"type":"function","name":"morphoRepay","inputs":[{"name":"marketParams","type":"tuple","internalType":"struct MarketParams","components":[{"name":"loanToken","type":"address","internalType":"address"},{"name":"collateralToken","type":"address","internalType":"address"},{"name":"oracle","type":"address","internalType":"address"},{"name":"irm","type":"address","internalType":"address"},{"name":"lltv","type":"uint256","internalType":"uint256"}]},{"name":"assets","type":"uint256","internalType":"uint256"},{"name":"shares","type":"uint256","internalType":"uint256"},{"name":"maxSharePriceE27","type":"uint256","internalType":"uint256"},{"name":"onBehalf","type":"address","internalType":"address"},{"name":"data","type":"bytes","internalType":"bytes"}],"outputs":[],"stateMutability":"nonpayable"},{"type":"function","name":"morphoSupply","inputs":[{"name":"marketParams","type":"tuple","internalType":"struct MarketParams","components":[{"name":"loanToken","type":"address","internalType":"address"},{"name":"collateralToken","type":"address","internalType":"address"},{"name":"oracle","type":"address","internalType":"address"},{"name":"irm","type":"address","internalType":"address"},{"name":"lltv","type":"uint256","internalType":"uint256"}]},{"name":"assets","type":"uint256","internalType":"uint256"},{"name":"shares","type":"uint256","internalType":"uint256"},{"name":"maxSharePriceE27","type":"uint256","internalType":"uint256"},{"name":"onBehalf","type":"address","internalType":"address"},{"name":"data","type":"bytes","internalType":"bytes"}],"outputs":[],"stateMutability":"nonpayable"},{"type":"function","name":"morphoSupplyCollateral","inputs":[{"name":"marketParams","type":"tuple","internalType":"struct MarketParams","components":[{"name":"loanToken","type":"address","internalType":"address"},{"name":"collateralToken","type":"address","internalType":"address"},{"name":"oracle","type":"address","internalType":"address"},{"name":"irm","type":"address","internalType":"address"},{"name":"lltv","type":"uint256","internalType":"uint256"}]},{"name":"assets","type":"uint256","internalType":"uint256"},{"name":"onBehalf","type":"address","internalType":"address"},{"name":"data","type":"bytes","internalType":"bytes"}],"outputs":[],"stateMutability":"nonpayable"},{"type":"function","name":"morphoWithdraw","inputs":[{"name":"marketParams","type":"tuple","internalType":"struct MarketParams","components":[{"name":"loanToken","type":"address","internalType":"address"},{"name":"collateralToken","type":"address","internalType":"address"},{"name":"oracle","type":"address","internalType":"address"},{"name":"irm","type":"address","internalType":"address"},{"name":"lltv","type":"uint256","internalType":"uint256"}]},{"name":"assets","type":"uint256","internalType":"uint256"},{"name":"shares","type":"uint256","internalType":"uint256"},{"name":"minSharePriceE27","type":"uint256","internalType":"uint256"},{"name":"receiver","type":"address","internalType":"address"}],"outputs":[],"stateMutability":"nonpayable"},{"type":"function","name":"morphoWithdrawCollateral","inputs":[{"name":"marketParams","type":"tuple","internalType":"struct MarketParams","components":[{"name":"loanToken","type":"address","internalType":"address"},{"name":"collateralToken","type":"address","internalType":"address"},{"name":"oracle","type":"address","internalType":"address"},{"name":"irm","type":"address","internalType":"address"},{"name":"lltv","type":"uint256","internalType":"uint256"}]},{"name":"assets","type":"uint256","internalType":"uint256"},{"name":"receiver","type":"address","internalType":"address"}],"outputs":[],"stateMutability":"nonpayable"},{"type":"function","name":"nativeTransfer","inputs":[{"name":"receiver","type":"address","internalType":"address"},{"name":"amount","type":"uint256","internalType":"uint256"}],"outputs":[],"stateMutability":"nonpayable"},{"type":"function","name":"onMorphoFlashLoan","inputs":[{"name":"","type":"uint256","internalType":"uint256"},{"name":"data","type":"bytes","internalType":"bytes"}],"outputs":[],"stateMutability":"nonpayable"},{"type":"function","name":"onMorphoRepay","inputs":[{"name":"","type":"uint256","internalType":"uint256"},{"name":"data","type":"bytes","internalType":"bytes"}],"outputs":[],"stateMutability":"nonpayable"},{"type":"function","name":"onMorphoSupply","inputs":[{"name":"","type":"uint256","internalType":"uint256"},{"name":"data","type":"bytes","internalType":"bytes"}],"outputs":[],"stateMutability":"nonpayable"},{"type":"function","name":"onMorphoSupplyCollateral","inputs":[{"name":"","type":"uint256","internalType":"uint256"},{"name":"data","type":"bytes","internalType":"bytes"}],"outputs":[],"stateMutability":"nonpayable"},{"type":"function","name":"permit2TransferFrom","inputs":[{"name":"token","type":"address","internalType":"address"},{"name":"receiver","type":"address","internalType":"address"},{"name":"amount","type":"uint256","internalType":"uint256"}],"outputs":[],"stateMutability":"nonpayable"},{"type":"function","name":"unwrapNative","inputs":[{"name":"amount","type":"uint256","internalType":"uint256"},{"name":"receiver","type":"address","internalType":"address"}],"outputs":[],"stateMutability":"nonpayable"},{"type":"function","name":"wrapNative","inputs":[{"name":"amount","type":"uint256","internalType":"uint256"},{"name":"receiver","type":"address","internalType":"address"}],"outputs":[],"stateMutability":"nonpayable"},{"type":"error","name":"AdapterAddress","inputs":[]},{"type":"error","name":"FailedCall","inputs":[]},{"type":"error","name":"InsufficientBalance","inputs":[{"name":"balance","type":"uint256","internalType":"uint256"},{"name":"needed","type":"uint256","internalType":"uint256"}]},{"type":"error","name":"SafeERC20FailedOperation","inputs":[{"name":"token","type":"address","internalType":"address"}]},{"type":"error","name":"SlippageExceeded","inputs":[]},{"type":"error","name":"UnauthorizedSender","inputs":[]},{"type":"error","name":"UnexpectedOwner","inputs":[]},{"type":"error","name":"UnsafeCast","inputs":[]},{"type":"error","name":"ZeroAddress","inputs":[]},{"type":"error","name":"ZeroAmount","inputs":[]},{"type":"error","name":"ZeroShares","inputs":[]}],"bytecode":{"object":"0x60e0346101b257601f61270f38819003918201601f19168301916001600160401b038311848410176101b6578084926060946040528339810103126101b257610047816101ca565b906100606040610059602084016101ca565b92016101ca565b916001600160a01b038116156101a3576080526001600160a01b03169081156101a3576001600160a01b03169081156101a35760a05260c05260405161253090816101df823960805181818161014c0152818161023b0152818161039901528181610518015281816106a501528181610824015281816109a201528181610b7101528181610bb501528181610dda01528181610f6201528181611166015281816111d80152818161139c015281816116090152818161176f0152818161189b0152818161199001528181611c1b01526120a9015260a0518181816102800152818161057c01528181610c1b01528181610d3a0152818161123c0152818161140a01528181611486015281816115c5015281816119cf01528181611af70152611bb0015260c051818181610356015281816108640152818161090d01526118da0152f35b63d92e233d60e01b5f5260045ffd5b5f80fd5b634e487b7160e01b5f52604160045260245ffd5b51906001600160a01b03821682036101b25756fe6080604052600436101561001a575b3615610018575f80fd5b005b5f5f3560e01c806305b4591c146109895780631af3bbc6146119685780632075be031461098957806331f57072146109895780633244c12c1461187b5780633790767d1461175d57806339029ab6146115f45780633acb5624146115af5780634d5fcf68146113825780635b866db6146111be57806362577ad01461114f5780636ef5eeae14610f4e578063827fcfcc14610dc657806384d287ef14610ba0578063a317e4b514610b5b578063a7f6e6061461098e578063b1022fdf14610989578063b172af6d14610805578063c956570614610691578063ca463673146104ce578063d96ca0b914610385578063d999984d14610340578063e2975912146101fa5763f2522bcd1461012d575061000e565b346101f75760403660031901126101f757610146611c80565b602435907f00000000000000000000000000000000000000000000000000000000000000006001600160a01b031633036101e8576001600160a01b0316908082156101d9573083146101ca575f1981036101b6575050475b806101a7578280f35b6101b0916123f3565b5f808280f35b61019e575b631f2a200560e01b8352600483fd5b63de8b590960e01b8452600484fd5b63d92e233d60e01b8452600484fd5b630101292160e31b8352600483fd5b80fd5b50346101f75760603660031901126101f757610214611c80565b60243560443567ffffffffffffffff811161033c57610237903690600401611b4f565b90927f00000000000000000000000000000000000000000000000000000000000000006001600160a01b0316330361032d57821561031e5784926001600160a01b0391821692917f000000000000000000000000000000000000000000000000000000000000000016906102ab8285612220565b813b1561031a578480946102e76040519889968795869463701195a160e11b865260048601526024850152606060448501526064840191611ffc565b03925af1801561030d576102f85780f35b61030191611e3c565b805f126101f7575f8180f35b50604051903d90823e3d90fd5b8480fd5b631f2a200560e01b8552600485fd5b630101292160e31b8552600485fd5b8380fd5b50346101f757806003193601126101f7576040517f00000000000000000000000000000000000000000000000000000000000000006001600160a01b03168152602090f35b50346101f75761039436611caa565b9092917f00000000000000000000000000000000000000000000000000000000000000006001600160a01b031633036101e8576001600160a01b03909316928184156101d9576103e2612094565b925f191461044d575b801561043e5761043b9394604051936323b872dd60e01b602086015260018060a01b03166024850152604484015260648301526064825261042d608483611e3c565b6001600160a01b03166124a2565b80f35b631f2a200560e01b8452600484fd5b506040516370a0823160e01b81526001600160a01b0383811660048301526020908290602490829086165afa9081156104c357849161048d575b506103eb565b90506020813d6020116104bb575b816104a860209383611e3c565b810103126104b757515f610487565b5f80fd5b3d915061049b565b6040513d86823e3d90fd5b50346101f7573660031901610100811261068d5760a0136101f75760a4356104f4611c54565b60e43567ffffffffffffffff811161033c57610514903690600401611b4f565b90927f00000000000000000000000000000000000000000000000000000000000000006001600160a01b0316330361032d57916001600160a01b03168230821461067e575f19146105fc575b821561031e57849291906001600160a01b0361057a611fbc565b7f00000000000000000000000000000000000000000000000000000000000000006001600160a01b031692916105b291849116612220565b813b1561031a578480946102e76040519889968795869463238d657960e01b86526105df60048701611ec0565b60a486015260c485015261010060e4850152610104840191611ffc565b9150602460206001600160a01b03610612611fbc565b16604051928380926370a0823160e01b82523060048301525afa908115610673578591610641575b5091610560565b90506020813d60201161066b575b8161065c60209383611e3c565b810103126104b757515f61063a565b3d915061064f565b6040513d87823e3d90fd5b63de8b590960e01b8652600486fd5b5080fd5b50346101f7576106a036611dba565b9193907f00000000000000000000000000000000000000000000000000000000000000006001600160a01b031633036107f6576001600160a01b038116156107e7576001600160a01b0383163081149081156107cd575b50156107be5783156107af57604051632d182be560e21b8152600481018590526001600160a01b0391821660248201529281166044840152919291602091849160649183918991165af19182156104c3578492610779575b509061075d6107629261230c565b61234c565b1061076a5780f35b638199f5f360e01b8152600490fd5b91506020823d6020116107a7575b8161079460209383611e3c565b810103126104b75790519061075d61074f565b3d9150610787565b631f2a200560e01b8652600486fd5b631a8b39b560e31b8652600486fd5b90506001600160a01b036107df612094565b16145f6106f7565b63d92e233d60e01b8652600486fd5b630101292160e31b8652600486fd5b50346101f75760403660031901126101f757600435610822611c6a565b7f00000000000000000000000000000000000000000000000000000000000000006001600160a01b031633036101e8575f1982146108ee575b81156101bb57827f00000000000000000000000000000000000000000000000000000000000000006001600160a01b0316803b1561068d57818091602460405180958193632e1a7d4d60e01b83528960048401525af1801561030d576108d3575b50506001600160a01b0316903082036101a7578280f35b6108dc91611e3c565b825f126108ea575f836108bc565b8280fd5b6040516370a0823160e01b8152306004820152909150602081602481867f00000000000000000000000000000000000000000000000000000000000000006001600160a01b03165af190811561097e57839161094c575b509061085b565b90506020813d602011610976575b8161096760209383611e3c565b810103126104b757515f610945565b3d915061095a565b6040513d85823e3d90fd5b611b7d565b50346101f75761099d36611dba565b9193907f00000000000000000000000000000000000000000000000000000000000000006001600160a01b031633036107f657836001600160a01b03821615610b4c576001600160a01b038416903082148015610b33575b15610b24575f1914610aa7575b508315610a9857604051635d043b2960e11b8152600481018590526001600160a01b0391821660248201529281166044840152919291602091849160649183918991165af19182156104c3578492610a62575b5061075d6107629261230c565b91506020823d602011610a90575b81610a7d60209383611e3c565b810103126104b75790519061075d610a55565b3d9150610a70565b639811e0c760e01b8652600486fd5b6040516370a0823160e01b815260048101919091529093506020816024816001600160a01b0386165afa908115610b19578691610ae7575b50925f610a02565b90506020813d602011610b11575b81610b0260209383611e3c565b810103126104b757515f610adf565b3d9150610af5565b6040513d88823e3d90fd5b631a8b39b560e31b8852600488fd5b506001600160a01b03610b44612094565b1682146109f5565b63d92e233d60e01b8752600487fd5b50346101f757806003193601126101f7576040517f00000000000000000000000000000000000000000000000000000000000000006001600160a01b03168152602090f35b50346101f757610baf36611d80565b909392907f00000000000000000000000000000000000000000000000000000000000000006001600160a01b031633036107f6575f198314610c96575b92610c1660409394610bfc612094565b8551635c2bea4960e01b815296879586956004870161205b565b0381867f00000000000000000000000000000000000000000000000000000000000000006001600160a01b03165af1801561097e576107629184908592610c62575b5061075d9061230c565b61075d9250610c89915060403d604011610c8f575b610c818183611e3c565b810190611fe6565b91610c58565b503d610c77565b9150610d365f610d1c60a0610cab3688611e5e565b20610d06610d14610cba612094565b92604051602081019182526002604082015260408152610cdb606082611e3c565b519020604080516001600160a01b039095166020860190815290850191909152929182906060820190565b03601f198101835282611e3c565b51902061247b565b60405180938192637784c68560e01b835260048301612183565b03817f00000000000000000000000000000000000000000000000000000000000000006001600160a01b03165afa8015610dbb57610d7b915f91610d99575b506121bc565b51928315610d8a579291610bec565b631f2a200560e01b5f5260045ffd5b610db591503d805f833e610dad8183611e3c565b8101906120fd565b5f610d75565b6040513d5f823e3d90fd5b50346101f757610dd536611caa565b9092917f00000000000000000000000000000000000000000000000000000000000000006001600160a01b031633036101e8576001600160a01b03909316928184156101d957610e23612094565b925f1914610edc575b801561043e576001600160a01b038111610ecd5783946e22d473030f116ddee9f6b43ac78ba33b1561031a57604051631b63c28b60e11b81526001600160a01b03948516600482015260248101919091529083166044820152911660648201528181608481836e22d473030f116ddee9f6b43ac78ba35af18015610ec257610eb15750f35b81610ebb91611e3c565b6101f75780f35b6040513d84823e3d90fd5b63c4bd89a960e01b8452600484fd5b506040516370a0823160e01b81526001600160a01b0383811660048301526020908290602490829086165afa9081156104c3578491610f1c575b50610e2c565b90506020813d602011610f46575b81610f3760209383611e3c565b810103126104b757515f610f16565b3d9150610f2a565b50346101f757610f5d36611ce4565b9092917f00000000000000000000000000000000000000000000000000000000000000006001600160a01b0316330361032d579081906001600160a01b038116156107e7576040516338d52e0f60e01b81526001600160a01b0385169190602081600481865afa908115611144578891611115575b506001600160a01b0316925f19146110a4575b8315611095576110328392602092610fff888b9897612220565b604051636e553f6560e01b8152600481018790526001600160a01b03909116602482015295869283919082906044820190565b03925af1928315610b1957869361105f575b5061105793611052916122d3565b61236a565b1161076a5780f35b9092506020813d60201161108d575b8161107b60209383611e3c565b810103126104b7575191611057611044565b3d915061106e565b631f2a200560e01b8752600487fd5b6040516370a0823160e01b8152306004820152909350602081602481865afa90811561110a5787916110d8575b5092610fe5565b90506020813d602011611102575b816110f360209383611e3c565b810103126104b757515f6110d1565b3d91506110e6565b6040513d89823e3d90fd5b611137915060203d60201161113d575b61112f8183611e3c565b810190611f9d565b5f610fd2565b503d611125565b6040513d8a823e3d90fd5b50346101f75761115e36611d80565b9093919291907f00000000000000000000000000000000000000000000000000000000000000006001600160a01b031633036107f65790610c16604093926111a4612094565b85516350d8cd4b60e01b815296879586956004870161205b565b50346101f7576111cd36611d22565b9295919492939290917f00000000000000000000000000000000000000000000000000000000000000006001600160a01b0316330361137357816001600160a01b0387163014611364578891905f19146112cd575b60409561128e906001600160a01b0361123a84611fd2565b7f00000000000000000000000000000000000000000000000000000000000000006001600160a01b0316979161127291899116612220565b885163a99aad8960e01b8152998a98899788966004880161201c565b03925af1801561097e5761105791849085926112ab575b5061236a565b90506112c6915060403d604011610c8f57610c818183611e3c565b905f6112a5565b9150506024919293602060018060a01b036112e784611fd2565b16604051948580926370a0823160e01b82523060048301525afa928315611144578893611330575b50821561132157939291908790611222565b631f2a200560e01b8852600488fd5b9092506020813d60201161135c575b8161134c60209383611e3c565b810103126104b75751915f61130f565b3d915061133f565b63de8b590960e01b8952600489fd5b630101292160e31b8852600488fd5b50346101f75761139136611d22565b9295919492939290917f00000000000000000000000000000000000000000000000000000000000000006001600160a01b031633036113735783826001600160a01b03881630146115a057899291905f1914611501575b5f191461145c575b60409561128e906001600160a01b0361140884611fd2565b7f00000000000000000000000000000000000000000000000000000000000000006001600160a01b0316979161144091899116612220565b88516320b76e8160e01b8152998a98899788966004880161201c565b9192935061148290610d1c61147d8860a06114773688611e5e565b20612443565b61247b565b03817f00000000000000000000000000000000000000000000000000000000000000006001600160a01b03165afa908115611144576fffffffffffffffffffffffffffffffff916114d9918a916114ed57506121bc565b5116938415611321579392919087906113f0565b610db591503d808c833e610dad8183611e3c565b6024935090915060206001600160a01b0361151b84611fd2565b16604051948580926370a0823160e01b82523060048301525afa928315611595578993611561575b508215611552579088916113e8565b631f2a200560e01b8952600489fd5b9092506020813d60201161158d575b8161157d60209383611e3c565b810103126104b75751915f611543565b3d9150611570565b6040513d8b823e3d90fd5b63de8b590960e01b8a5260048afd5b50346101f757806003193601126101f7576040517f00000000000000000000000000000000000000000000000000000000000000006001600160a01b03168152602090f35b50346101f75761160336611ce4565b909291907f00000000000000000000000000000000000000000000000000000000000000006001600160a01b0316330361032d576001600160a01b0381161561174e57811561173f576040516338d52e0f60e01b81528591906001600160a01b03851690602081600481855afa9182156104c3576020926116cd928691611722575b506001600160a01b03169361169a8886612220565b6040516394bf804d60e01b8152600481018890526001600160a01b03909116602482015294859283919082906044820190565b03925af1918215610b195786926116ec575061105793611052916122d3565b9091506020813d60201161171a575b8161170860209383611e3c565b810103126104b7575190611057611044565b3d91506116fb565b6117399150843d861161113d5761112f8183611e3c565b5f611685565b639811e0c760e01b8552600485fd5b63d92e233d60e01b8552600485fd5b50346101f75761176c36611caa565b907f00000000000000000000000000000000000000000000000000000000000000006001600160a01b0316330361186c57816001600160a01b03821680156107e757301461185d575f19810361184a57506040516370a0823160e01b81523060048201529091506020816024816001600160a01b0387165afa9081156104c3578491611818575b50905b816117ff578380f35b611811926001600160a01b03166121dd565b5f80808380f35b90506020813d602011611842575b8161183360209383611e3c565b810103126104b757515f6117f3565b3d9150611826565b6117f657631f2a200560e01b8452600484fd5b63de8b590960e01b8552600485fd5b630101292160e31b8452600484fd5b50346101f75760403660031901126101f757600435611898611c6a565b907f00000000000000000000000000000000000000000000000000000000000000006001600160a01b031633036101e8575f198114611961575b80156101bb577f00000000000000000000000000000000000000000000000000000000000000006001600160a01b031691823b1561033c57604051630d0e30db60e41b81528490818160048187895af18015610ec25761194c575b5050306001600160a01b03821603611943578380f35b611811926121dd565b8161195691611e3c565b61033c57835f61192d565b50476118d2565b50346104b757366003190160e081126104b75760a0136104b75760a43561198d611c54565b907f00000000000000000000000000000000000000000000000000000000000000006001600160a01b03163303611b40575f198114611a63575b8015610d8a577f00000000000000000000000000000000000000000000000000000000000000006001600160a01b03166119ff612094565b90803b156104b7575f9283610104926040519687958694638720316d60e01b8652611a2c60048701611ec0565b60a48601526001600160a01b0390811660c48601521660e48401525af18015610dbb57611a57575080f35b61001891505f90611e3c565b50604051611a7081611e0c565b6004356001600160a01b03811681036104b75781526024356001600160a01b03811681036104b75760208201526044356001600160a01b03811681036104b7576040820152606435906001600160a01b03821682036104b757610d1c61147d60a083611af39560605f960152608435608082015220611aed612094565b90612443565b03817f00000000000000000000000000000000000000000000000000000000000000006001600160a01b03165afa8015610dbb57611b37915f91610d9957506121bc565b5160801c6119c7565b630101292160e31b5f5260045ffd5b9181601f840112156104b75782359167ffffffffffffffff83116104b757602083818601950101116104b757565b346104b75760403660031901126104b75760243567ffffffffffffffff81116104b757611bae903690600401611b4f565b7f00000000000000000000000000000000000000000000000000000000000000006001600160a01b03163303611b40575f918291611c166024604051838194602083019663401d3fdd60e11b885284840137810186838201520301601f198101835282611e3c565b5190827f00000000000000000000000000000000000000000000000000000000000000005af1611c446123b4565b9015611c4c57005b805190602001fd5b60c435906001600160a01b03821682036104b757565b602435906001600160a01b03821682036104b757565b600435906001600160a01b03821682036104b757565b35906001600160a01b03821682036104b757565b60609060031901126104b7576004356001600160a01b03811681036104b757906024356001600160a01b03811681036104b7579060443590565b60809060031901126104b7576004356001600160a01b03811681036104b7579060243590604435906064356001600160a01b03811681036104b75790565b90600319820161014081126104b75760a0136104b75760049160a4359160c4359160e43591610104356001600160a01b03811681036104b75791610124359067ffffffffffffffff82116104b757611d7c91600401611b4f565b9091565b6003190161012081126104b75760a0136104b75760049060a4359060c4359060e43590610104356001600160a01b03811681036104b75790565b60a09060031901126104b7576004356001600160a01b03811681036104b7579060243590604435906064356001600160a01b03811681036104b757906084356001600160a01b03811681036104b75790565b60a0810190811067ffffffffffffffff821117611e2857604052565b634e487b7160e01b5f52604160045260245ffd5b90601f8019910116810190811067ffffffffffffffff821117611e2857604052565b91908260a09103126104b757604051611e7681611e0c565b6080808294611e8481611c96565b8452611e9260208201611c96565b6020850152611ea360408201611c96565b6040850152611eb460608201611c96565b60608501520135910152565b6004356001600160a01b038116908190036104b75781526024356001600160a01b038116908190036104b75760208201526044356001600160a01b038116908190036104b75760408201526064356001600160a01b038116908190036104b75760608201526080608435910152565b60809081906001600160a01b03611f4582611c96565b1684526001600160a01b03611f5c60208301611c96565b1660208501526001600160a01b03611f7660408301611c96565b1660408501526001600160a01b03611f9060608301611c96565b1660608501520135910152565b908160209103126104b757516001600160a01b03811681036104b75790565b6024356001600160a01b03811681036104b75790565b356001600160a01b03811681036104b75790565b91908260409103126104b7576020825192015190565b908060209392818452848401375f828201840152601f01601f1916010190565b91926101209361203184612058999794611f2f565b60a084015260c08301526001600160a01b031660e082015261010081018290520191611ffc565b90565b9390959491926101009361207486610120810199611f2f565b60a086015260c08501526001600160a01b0390811660e085015216910152565b604051635c39fcc160e01b81526020816004817f00000000000000000000000000000000000000000000000000000000000000006001600160a01b03165afa908115610dbb575f916120e4575090565b612058915060203d60201161113d5761112f8183611e3c565b6020818303126104b75780519067ffffffffffffffff82116104b757019080601f830112156104b75781519167ffffffffffffffff8311611e28578260051b90602082019361214f6040519586611e3c565b84526020808501928201019283116104b757602001905b8282106121735750505090565b8151815260209182019101612166565b60206040818301928281528451809452019201905f5b8181106121a65750505090565b8251845260209384019390920191600101612199565b8051156121c95760200190565b634e487b7160e01b5f52603260045260245ffd5b60405163a9059cbb60e01b60208201526001600160a01b0392909216602483015260448083019390935291815261221e91612219606483611e3c565b6124a2565b565b6040519060205f8184019463095ea7b360e01b865260018060a01b031694856024860152811960448601526044855261225a606486611e3c565b84519082855af15f513d826122ae575b50501561227657505050565b61221961221e936040519063095ea7b360e01b602083015260248201525f6044820152604481526122a8606482611e3c565b826124a2565b9091506122cb57506001600160a01b0381163b15155b5f8061226a565b6001146122c4565b6040519060205f8184019463095ea7b360e01b865260018060a01b0316948560248601528160448601526044855261225a606486611e3c565b906b033b2e3c9fd0803ce80000008202918083046b033b2e3c9fd0803ce8000000149015171561233857565b634e487b7160e01b5f52601160045260245ffd5b8115612356570490565b634e487b7160e01b5f52601260045260245ffd5b906b033b2e3c9fd0803ce80000008202918083046b033b2e3c9fd0803ce8000000149015171561233857805f19810111612338575f1981830101809211612338576120589161234c565b3d156123ee573d9067ffffffffffffffff8211611e2857604051916123e3601f8201601f191660200184611e3c565b82523d5f602084013e565b606090565b81471061242c575f918291829182916001600160a01b03165af16124156123b4565b501561241d57565b63d6bda27560e01b5f5260045ffd5b504763cf47918160e01b5f5260045260245260445ffd5b61246a610d0691604051602081019182526002604082015260408152610cdb606082611e3c565b519020600181018091116123385790565b6040519061248a604083611e3c565b600182526020368184013761249e826121bc565b5290565b905f602091828151910182855af115610dbb575f513d6124f157506001600160a01b0381163b155b6124d15750565b635274afe760e01b5f9081526001600160a01b0391909116600452602490fd5b600114156124ca56fea26469706673582212203397e34fc1074475f1d6db3e039f1e39ff020f3f5d20915243e4c75a0cd8a1f764736f6c634300081c0033","linkReferences":{}},"methodIdentifiers":{"BUNDLER3()":"a317e4b5","MORPHO()":"3acb5624","WRAPPED_NATIVE()":"d999984d","erc20Transfer(address,address,uint256)":"3790767d","erc20TransferFrom(address,address,uint256)":"d96ca0b9","erc4626Deposit(address,uint256,uint256,address)":"6ef5eeae","erc4626Mint(address,uint256,uint256,address)":"39029ab6","erc4626Redeem(address,uint256,uint256,address,address)":"a7f6e606","erc4626Withdraw(address,uint256,uint256,address,address)":"c9565706","morphoBorrow((address,address,address,address,uint256),uint256,uint256,uint256,address)":"62577ad0","morphoFlashLoan(address,uint256,bytes)":"e2975912","morphoRepay((address,address,address,address,uint256),uint256,uint256,uint256,address,bytes)":"4d5fcf68","morphoSupply((address,address,address,address,uint256),uint256,uint256,uint256,address,bytes)":"5b866db6","morphoSupplyCollateral((address,address,address,address,uint256),uint256,address,bytes)":"ca463673","morphoWithdraw((address,address,address,address,uint256),uint256,uint256,uint256,address)":"84d287ef","morphoWithdrawCollateral((address,address,address,address,uint256),uint256,address)":"1af3bbc6","nativeTransfer(address,uint256)":"f2522bcd","onMorphoFlashLoan(uint256,bytes)":"31f57072","onMorphoRepay(uint256,bytes)":"05b4591c","onMorphoSupply(uint256,bytes)":"2075be03","onMorphoSupplyCollateral(uint256,bytes)":"b1022fdf","permit2TransferFrom(address,address,uint256)":"827fcfcc","unwrapNative(uint256,address)":"b172af6d","wrapNative(uint256,address)":"3244c12c"},"storageLayout":{"storage":[],"types":{}},"id":31}