{"abi":[{"type":"function","name":"bagPeaks","inputs":[{"name":"peaks","type":"bytes32[]","internalType":"bytes32[]"}],"outputs":[{"name":"","type":"bytes32","internalType":"bytes32"}],"stateMutability":"pure"},{"type":"function","name":"calculateChallengePeriod","inputs":[{"name":"blocksElapsed","type":"uint64","internalType":"uint64"},{"name":"blockFinalityTime","type":"uint64","internalType":"uint64"}],"outputs":[{"name":"challengePeriod","type":"uint256","internalType":"uint256"}],"stateMutability":"pure"},{"type":"function","name":"calculateFeeFromDeposit","inputs":[{"name":"amount","type":"uint256","internalType":"uint256"},{"name":"takerFeeBips","type":"uint16","internalType":"uint16"}],"outputs":[{"name":"protocolFee","type":"uint256","internalType":"uint256"}],"stateMutability":"pure"},{"type":"function","name":"calculateLockupPeriod","inputs":[{"name":"confirmations","type":"uint8","internalType":"uint8"},{"name":"blockFinalityTime","type":"uint64","internalType":"uint64"}],"outputs":[{"name":"","type":"uint64","internalType":"uint64"}],"stateMutability":"pure"},{"type":"function","name":"calculateMinDepositAmount","inputs":[{"name":"takerFeeBips","type":"uint16","internalType":"uint16"}],"outputs":[{"name":"minDepositAmount","type":"uint256","internalType":"uint256"}],"stateMutability":"pure"},{"type":"function","name":"getMinConfirmationBlocks","inputs":[],"outputs":[{"name":"","type":"uint8","internalType":"uint8"}],"stateMutability":"pure"},{"type":"function","name":"getMinOutputSats","inputs":[],"outputs":[{"name":"","type":"uint16","internalType":"uint16"}],"stateMutability":"pure"},{"type":"function","name":"hashBlockLeaf","inputs":[{"name":"blockLeaf","type":"tuple","internalType":"struct BlockLeaf","components":[{"name":"blockHash","type":"bytes32","internalType":"bytes32"},{"name":"height","type":"uint32","internalType":"uint32"},{"name":"cumulativeChainwork","type":"uint256","internalType":"uint256"}]}],"outputs":[{"name":"","type":"bytes32","internalType":"bytes32"}],"stateMutability":"pure"},{"type":"function","name":"hashDutchAuction","inputs":[{"name":"dutchAuction","type":"tuple","internalType":"struct DutchAuction","components":[{"name":"index","type":"uint256","internalType":"uint256"},{"name":"baseCreateOrderParams","type":"tuple","internalType":"struct BaseCreateOrderParams","components":[{"name":"owner","type":"address","internalType":"address"},{"name":"bitcoinScriptPubKey","type":"bytes","internalType":"bytes"},{"name":"salt","type":"bytes32","internalType":"bytes32"},{"name":"confirmationBlocks","type":"uint8","internalType":"uint8"},{"name":"safeBlockLeaf","type":"tuple","internalType":"struct BlockLeaf","components":[{"name":"blockHash","type":"bytes32","internalType":"bytes32"},{"name":"height","type":"uint32","internalType":"uint32"},{"name":"cumulativeChainwork","type":"uint256","internalType":"uint256"}]}]},{"name":"dutchAuctionParams","type":"tuple","internalType":"struct DutchAuctionParams","components":[{"name":"startBtcOut","type":"uint256","internalType":"uint256"},{"name":"endBtcOut","type":"uint256","internalType":"uint256"},{"name":"decayBlocks","type":"uint256","internalType":"uint256"},{"name":"deadline","type":"uint256","internalType":"uint256"},{"name":"fillerWhitelistContract","type":"address","internalType":"address"}]},{"name":"depositAmount","type":"uint256","internalType":"uint256"},{"name":"startBlock","type":"uint256","internalType":"uint256"},{"name":"startTimestamp","type":"uint256","internalType":"uint256"},{"name":"state","type":"uint8","internalType":"enum DutchAuctionState"}]}],"outputs":[{"name":"","type":"bytes32","internalType":"bytes32"}],"stateMutability":"pure"},{"type":"function","name":"hashOrder","inputs":[{"name":"order","type":"tuple","internalType":"struct Order","components":[{"name":"index","type":"uint256","internalType":"uint256"},{"name":"timestamp","type":"uint64","internalType":"uint64"},{"name":"unlockTimestamp","type":"uint64","internalType":"uint64"},{"name":"amount","type":"uint256","internalType":"uint256"},{"name":"takerFee","type":"uint256","internalType":"uint256"},{"name":"expectedSats","type":"uint64","internalType":"uint64"},{"name":"bitcoinScriptPubKey","type":"bytes","internalType":"bytes"},{"name":"designatedReceiver","type":"address","internalType":"address"},{"name":"owner","type":"address","internalType":"address"},{"name":"salt","type":"bytes32","internalType":"bytes32"},{"name":"confirmationBlocks","type":"uint8","internalType":"uint8"},{"name":"safeBitcoinBlockHeight","type":"uint64","internalType":"uint64"},{"name":"state","type":"uint8","internalType":"enum OrderState"}]}],"outputs":[{"name":"","type":"bytes32","internalType":"bytes32"}],"stateMutability":"pure"},{"type":"function","name":"hashPayment","inputs":[{"name":"payment","type":"tuple","internalType":"struct Payment","components":[{"name":"index","type":"uint256","internalType":"uint256"},{"name":"orderIndex","type":"uint256","internalType":"uint256"},{"name":"orderHash","type":"bytes32","internalType":"bytes32"},{"name":"paymentBitcoinBlockLeaf","type":"tuple","internalType":"struct BlockLeaf","components":[{"name":"blockHash","type":"bytes32","internalType":"bytes32"},{"name":"height","type":"uint32","internalType":"uint32"},{"name":"cumulativeChainwork","type":"uint256","internalType":"uint256"}]},{"name":"challengeExpiryTimestamp","type":"uint64","internalType":"uint64"},{"name":"state","type":"uint8","internalType":"enum PaymentState"}]}],"outputs":[{"name":"","type":"bytes32","internalType":"bytes32"}],"stateMutability":"pure"},{"type":"function","name":"linearDecayInt","inputs":[{"name":"startPoint","type":"uint256","internalType":"uint256"},{"name":"endPoint","type":"uint256","internalType":"uint256"},{"name":"currentPoint","type":"uint256","internalType":"uint256"},{"name":"startAmount","type":"int256","internalType":"int256"},{"name":"endAmount","type":"int256","internalType":"int256"}],"outputs":[{"name":"","type":"int256","internalType":"int256"}],"stateMutability":"pure"},{"type":"function","name":"linearDecayUint","inputs":[{"name":"startPoint","type":"uint256","internalType":"uint256"},{"name":"endPoint","type":"uint256","internalType":"uint256"},{"name":"currentPoint","type":"uint256","internalType":"uint256"},{"name":"startAmount","type":"uint256","internalType":"uint256"},{"name":"endAmount","type":"uint256","internalType":"uint256"}],"outputs":[{"name":"","type":"uint256","internalType":"uint256"}],"stateMutability":"pure"},{"type":"function","name":"validateScriptPubKey","inputs":[{"name":"scriptPubKey","type":"bytes","internalType":"bytes"}],"outputs":[{"name":"","type":"bool","internalType":"bool"}],"stateMutability":"pure"},{"type":"function","name":"verifyMMRProof","inputs":[{"name":"leafHash","type":"bytes32","internalType":"bytes32"},{"name":"leafIndex","type":"uint256","internalType":"uint256"},{"name":"siblings","type":"bytes32[]","internalType":"bytes32[]"},{"name":"peaks","type":"bytes32[]","internalType":"bytes32[]"},{"name":"leafCount","type":"uint32","internalType":"uint32"},{"name":"mmrRoot","type":"bytes32","internalType":"bytes32"}],"outputs":[{"name":"","type":"bool","internalType":"bool"}],"stateMutability":"pure"},{"type":"error","name":"InvalidConfirmations","inputs":[]}],"bytecode":{"object":"0x608080604052346015576112f7908161001a8239f35b5f80fdfe60806040526004361015610011575f80fd5b5f3560e01c80630649d3d314610ba05780630a1b0c8214610a615780630af6846214610a275780631fd012b914610a0c57806339737c3f146109c95780633a5473221461099f57806341b4ec931461099f57806362624f75146107b75780636876eee014610581578063728fc0e914610565578063a1959228146104bb578063aee996eb14610452578063c18822d0146103dc578063ce0285ec146103985763f20642c1146100be575f80fd5b34610380576020366003190112610380576004356001600160401b03811161038057803603610160600319820112610380576040519060e082018281106001600160401b03821117610384576040528260040135825260248301356001600160401b03811161038057830160e06003198236030112610380576040519161014483610c16565b61015060048301610d61565b835260248201356001600160401b038111610380576101759060043691850101610d0c565b60208401526044820135604084015261019060648301610cfe565b606084015260606083198336030112610380576040516101af81610c31565b6084830135815260a483013563ffffffff811681036103805760a09360c4916020840152013560408201526080840152602084019283526043190112610380576040516101fb81610c16565b60448401358152606484013560208201526084840135604082015260a4840135606082015261022c60c48501610d61565b608082015260408301908152606083019160e485013583526080840191610104860135835261014460a0860196610124810135885201356003811015610380576020966103759460c088019283526040519687958a8701998b8b525160408801525194610160606088015260018060a01b038651166101a088015261030860806102c68d89015160e06101c08c01526102808b0190611030565b6040808a01516101e08c015260608a015160ff166102008c0152919098015180516102208b0152602081015163ffffffff166102408b01520151610260890152565b5180516080888101919091528b82015160a0890152604082015160c0890152606082015160e089015201516001600160a01b03166101008701525161012086015251610140850152516101608401525161036181611054565b61018083015203601f198101835282610c4c565b519020604051908152f35b5f80fd5b634e487b7160e01b5f52604160045260245ffd5b34610380576020366003190112610380576004356001600160401b038111610380576103d26103cd6020923690600401610d0c565b61105e565b6040519015158152f35b346103805760203660031901126103805760043561ffff8116809103610380578061040f5750602060015b604051908152f35b806127100161ffff811161043e5761ffff5f1991160161ffff811161043e5760209161ffff8092160416610407565b634e487b7160e01b5f52601160045260245ffd5b346103805760603660031901126103805760405161046f81610c31565b60043581526024359063ffffffff8216820361038057602081810183905260443560408084018290529251835190815263ffffffff909416848301528383015260609092209051908152f35b34610380576040366003190112610380576004356001600160401b0381168103610380576001600160401b0361053361052e61051d6105096105046104fe610cd4565b96610f6a565b610fcf565b60648561051583610f8b565b160490611010565b6105285f1995610fac565b90611010565b610ff0565b16016001600160401b03811161043e57620f42406001600160401b0360209216046001600160401b0360405191168152f35b34610380575f3660031901126103805760206040516103e88152f35b34610380576020366003190112610380576004356001600160401b038111610380576101a0600319823603011261038057604051906101a082018281106001600160401b0382111761038457604052806004013582526105e360248201610cea565b90602083019182526105f760448201610cea565b92604081019384526060810160648301358152608082016084840135815261062160a48501610cea565b9060a0840191825260c48501356001600160401b0381116103805761064c9060043691880101610d0c565b9260c0850193845261018461066360e48801610d61565b9660e087019788526106786101048201610d61565b6101008801526101248101356101208801526106976101448201610cfe565b6101408801526106aa6101648201610cea565b61016088015201356003811015610380576101808601526040519788976020890160209052865160408a0152516001600160401b03166060890152516001600160401b031660808801525160a08701525160c0860152516001600160401b031660e08501525161010084016101a090526101e0840161072891611030565b91600160a01b60019003905116610120840152600160a01b600190036101008201511661014084015261012081015161016084015261014081015160ff166101808401526101608101516001600160401b03166101a0840152610180015161078f81611054565b6101c083015203601f19810182526107a79082610c4c565b8051602091820120604051908152f35b346103805760403660031901126103805760043560ff8116809103610380576107de610cd4565b6001600160401b036107fd61052e61051d6105096105046107e0610f6a565b16016001600160401b03811161043e576001600160401b03620f424091160460011b906801fffffffffffffffe67fffffffffffffffe83169216820361043e5780156109905764e8d4a51000810281810464e8d4a510000361043e578070ffffffffffffffffffffffffffffffffff1060071b81811c68ffffffffffffffffff1060061b1781811c64ffffffffff1060051b1781811c62ffffff1060041b1760b56201000083831c019160011c1b0260121c8082040160011c8082040160011c8082040160011c8082040160011c8082040160011c8082040160011c8082040160011c8080920410900380630336c1000290630336c10082040361043e57620f424090048063087fc03001918263087fc0301161043e5780629d78800290629d788082040361043e5763087fc03091010180911161043e57620f424081019081811161043e57620f423f0190811161043e576001600160401b03620f4240603c92041602906001600160401b03821691820361043e5760209161097f91611010565b6001600160401b0360405191168152f35b6311ed5d1f60e31b5f5260045ffd5b346103805760a0366003190112610380576020610407608435606435604435602435600435610eea565b34610380576040366003190112610380576004356024359061ffff82168092036103805781810291818304149015171561043e5760209061271060405191048152f35b34610380575f36600319011261038057602060405160028152f35b34610380576020366003190112610380576004356001600160401b03811161038057610407610a5c6020923690600401610c6d565b610e76565b34610380576101003660031901126103805760405160c081018181106001600160401b0382111761038457604052600435815260208101906024358252604081016044358152606060631936011261038057604051610abf81610c31565b606435815260843563ffffffff8116810361038057602082015260a43560408201526060830190815260c4356001600160401b0381168103610380576080840190815260e435926002841015610380576001600160401b0392610b609160a08701958652604051976020890197518852516040890152516060880152516080870190604080918051845263ffffffff60208201511660208501520151910152565b511660e084015251916002831015610b8c57602092610100820152610100815261037561012082610c4c565b634e487b7160e01b5f52602160045260245ffd5b346103805760c0366003190112610380576044356001600160401b03811161038057610bd0903690600401610c6d565b6064356001600160401b03811161038057610bef903690600401610c6d565b6084359163ffffffff83168303610380576020926103d29260a43592602435600435610d9d565b60a081019081106001600160401b0382111761038457604052565b606081019081106001600160401b0382111761038457604052565b90601f801991011681019081106001600160401b0382111761038457604052565b9080601f83011215610380578135916001600160401b038311610384578260051b9060405193610ca06020840186610c4c565b845260208085019282010192831161038057602001905b828210610cc45750505090565b8135815260209182019101610cb7565b602435906001600160401b038216820361038057565b35906001600160401b038216820361038057565b359060ff8216820361038057565b81601f82011215610380578035906001600160401b0382116103845760405192610d40601f8401601f191660200185610c4c565b8284526020838301011161038057815f926020809301838601378301015290565b35906001600160a01b038216820361038057565b8051821015610d895760209160051b010190565b634e487b7160e01b5f52603260045260245ffd5b939591929490955f945b8451861015610df957600188811c98811603610ddc57610dc78686610d75565b515f52602052600160405f20955b0194610da7565b610de68686610d75565b51905f52602052600160405f2095610dd5565b95929650925092505f935f5b8251811015610e5f5781610e198285610d75565b5114610e2757600101610e05565b50509091925060015b15610e5857610e3e90610e76565b908115610e585763ffffffff165f5260205260405f201490565b5050505f90565b5050909192610e30565b9190820391821161043e57565b80518015610ecc575f19810190811161043e57610e939082610d75565b519080515f19810190811161043e57805b610ead57505090565b5f190191610ebb8383610d75565b515f526020528160405f2092610ea4565b50505f90565b81810392915f13801582851316918412161761043e57565b909193929382811015610f625790610f0581610f0b93610e69565b92610e69565b908380841215610f4f57610f2793610f2291610ed2565b61129e565b600160ff1b811461043e575f03905b5f828201928312911290801582169115161761043e5790565b610f2290610f5c94610ed2565b90610f36565b505050905090565b6001600160401b031661a34802906001600160401b03821691820361043e57565b6001600160401b03600a911602906001600160401b03821691820361043e57565b6001600160401b03620f4240911602906001600160401b03821691820361043e57565b6001600160401b0363036eaa48911601906001600160401b03821161043e57565b6001600160401b03620f4240911601906001600160401b03821161043e57565b906001600160401b03809116911601906001600160401b03821161043e57565b805180835260209291819084018484015e5f828201840152601f01601f1916010190565b60031115610b8c57565b80516016811461125c57601781146111e557601981146111145760221461108457505f90565b805115610d89576020810180516001600160f81b03191680156110f657605160f81b146110b15750505f90565b815115610d8957516001600160f81b031916605160f81b1490816110d3575090565b8091505160011015610d8957602101516001600160f81b031916600160fd1b1490565b50815115610d8957516001600160f81b0319161590816110d3575090565b50805115610d895760208101516001600160f81b031916603b60f91b1490816111be575b81611197575b81611170575b8161114d575090565b8091505160181015610d8957603801516001600160f81b031916602b60fa1b1490565b8091505160171015610d895760378101516001600160f81b031916601160fb1b1490611144565b8091505160021015610d895760228101516001600160f81b031916600560fa1b149061113e565b8091505160011015610d895760218101516001600160f81b03191660a960f81b1490611138565b50805115610d895760208101516001600160f81b03191660a960f81b149081611235575b81611212575090565b8091505160161015610d8957603601516001600160f81b031916608760f81b1490565b8091505160011015610d895760218101516001600160f81b031916600560fa1b1490611209565b15610d895760208101516001600160f81b03191615908161127b575090565b8091505160011015610d8957602101516001600160f81b031916600560fa1b1490565b81810291811591830414178202156112b4570490565b63ad251c275f526004601cfdfea2646970667358221220cf9bbd4aeb19524cd3e8259a3d67c2ccd6ec77e5f5be1c451fed9623ec6f192c64736f6c634300081c0033","linkReferences":{}},"methodIdentifiers":{"bagPeaks(bytes32[])":"0af68462","calculateChallengePeriod(uint64,uint64)":"a1959228","calculateFeeFromDeposit(uint256,uint16)":"39737c3f","calculateLockupPeriod(uint8,uint64)":"62624f75","calculateMinDepositAmount(uint16)":"c18822d0","getMinConfirmationBlocks()":"1fd012b9","getMinOutputSats()":"728fc0e9","hashBlockLeaf((bytes32,uint32,uint256))":"aee996eb","hashDutchAuction((uint256,(address,bytes,bytes32,uint8,(bytes32,uint32,uint256)),(uint256,uint256,uint256,uint256,address),uint256,uint256,uint256,uint8))":"f20642c1","hashOrder((uint256,uint64,uint64,uint256,uint256,uint64,bytes,address,address,bytes32,uint8,uint64,uint8))":"6876eee0","hashPayment((uint256,uint256,bytes32,(bytes32,uint32,uint256),uint64,uint8))":"0a1b0c82","linearDecayInt(uint256,uint256,uint256,int256,int256)":"3a547322","linearDecayUint(uint256,uint256,uint256,uint256,uint256)":"41b4ec93","validateScriptPubKey(bytes)":"ce0285ec","verifyMMRProof(bytes32,uint256,bytes32[],bytes32[],uint32,bytes32)":"0649d3d3"},"storageLayout":{"storage":[],"types":{}},"id":88}