{"abi":[{"type":"function","name":"bagPeaks","inputs":[{"name":"peaks","type":"bytes32[]","internalType":"bytes32[]"}],"outputs":[{"name":"","type":"bytes32","internalType":"bytes32"}],"stateMutability":"pure"},{"type":"function","name":"calculateChallengePeriod","inputs":[{"name":"blocksElapsed","type":"uint64","internalType":"uint64"}],"outputs":[{"name":"challengePeriod","type":"uint256","internalType":"uint256"}],"stateMutability":"pure"},{"type":"function","name":"calculateDepositLockupPeriod","inputs":[{"name":"confirmations","type":"uint8","internalType":"uint8"}],"outputs":[{"name":"depositLockupPeriod","type":"uint64","internalType":"uint64"}],"stateMutability":"pure"},{"type":"function","name":"calculateFeeFromDeposit","inputs":[{"name":"amount","type":"uint256","internalType":"uint256"},{"name":"takerFeeBips","type":"uint16","internalType":"uint16"}],"outputs":[{"name":"protocolFee","type":"uint256","internalType":"uint256"}],"stateMutability":"pure"},{"type":"function","name":"calculateMinDepositAmount","inputs":[{"name":"takerFeeBips","type":"uint16","internalType":"uint16"}],"outputs":[{"name":"minDepositAmount","type":"uint256","internalType":"uint256"}],"stateMutability":"pure"},{"type":"function","name":"getChallengePeriodBuffer","inputs":[],"outputs":[{"name":"","type":"uint32","internalType":"uint32"}],"stateMutability":"pure"},{"type":"function","name":"getDepositLockupPeriodScalar","inputs":[],"outputs":[{"name":"","type":"uint32","internalType":"uint32"}],"stateMutability":"pure"},{"type":"function","name":"getMinConfirmationBlocks","inputs":[],"outputs":[{"name":"","type":"uint8","internalType":"uint8"}],"stateMutability":"pure"},{"type":"function","name":"getMinOutputSats","inputs":[],"outputs":[{"name":"","type":"uint16","internalType":"uint16"}],"stateMutability":"pure"},{"type":"function","name":"getProofGenScalingFactor","inputs":[],"outputs":[{"name":"","type":"uint32","internalType":"uint32"}],"stateMutability":"pure"},{"type":"function","name":"getScaledProofGenIntercept","inputs":[],"outputs":[{"name":"","type":"uint32","internalType":"uint32"}],"stateMutability":"pure"},{"type":"function","name":"getScaledProofGenSlope","inputs":[],"outputs":[{"name":"","type":"uint32","internalType":"uint32"}],"stateMutability":"pure"},{"type":"function","name":"hashBlockLeaf","inputs":[{"name":"blockLeaf","type":"tuple","internalType":"struct BlockLeaf","components":[{"name":"blockHash","type":"bytes32","internalType":"bytes32"},{"name":"height","type":"uint32","internalType":"uint32"},{"name":"cumulativeChainwork","type":"uint256","internalType":"uint256"}]}],"outputs":[{"name":"","type":"bytes32","internalType":"bytes32"}],"stateMutability":"pure"},{"type":"function","name":"hashDutchAuction","inputs":[{"name":"dutchAuction","type":"tuple","internalType":"struct DutchAuction","components":[{"name":"index","type":"uint256","internalType":"uint256"},{"name":"baseCreateOrderParams","type":"tuple","internalType":"struct BaseCreateOrderParams","components":[{"name":"owner","type":"address","internalType":"address"},{"name":"bitcoinScriptPubKey","type":"bytes","internalType":"bytes"},{"name":"salt","type":"bytes32","internalType":"bytes32"},{"name":"confirmationBlocks","type":"uint8","internalType":"uint8"},{"name":"safeBlockLeaf","type":"tuple","internalType":"struct BlockLeaf","components":[{"name":"blockHash","type":"bytes32","internalType":"bytes32"},{"name":"height","type":"uint32","internalType":"uint32"},{"name":"cumulativeChainwork","type":"uint256","internalType":"uint256"}]}]},{"name":"dutchAuctionParams","type":"tuple","internalType":"struct DutchAuctionParams","components":[{"name":"startBtcOut","type":"uint256","internalType":"uint256"},{"name":"endBtcOut","type":"uint256","internalType":"uint256"},{"name":"decayBlocks","type":"uint256","internalType":"uint256"},{"name":"deadline","type":"uint256","internalType":"uint256"},{"name":"fillerWhitelistContract","type":"address","internalType":"address"}]},{"name":"depositAmount","type":"uint256","internalType":"uint256"},{"name":"startBlock","type":"uint256","internalType":"uint256"},{"name":"startTimestamp","type":"uint256","internalType":"uint256"},{"name":"state","type":"uint8","internalType":"enum DutchAuctionState"}]}],"outputs":[{"name":"","type":"bytes32","internalType":"bytes32"}],"stateMutability":"pure"},{"type":"function","name":"hashOrder","inputs":[{"name":"order","type":"tuple","internalType":"struct Order","components":[{"name":"index","type":"uint256","internalType":"uint256"},{"name":"timestamp","type":"uint64","internalType":"uint64"},{"name":"unlockTimestamp","type":"uint64","internalType":"uint64"},{"name":"amount","type":"uint256","internalType":"uint256"},{"name":"takerFee","type":"uint256","internalType":"uint256"},{"name":"expectedSats","type":"uint64","internalType":"uint64"},{"name":"bitcoinScriptPubKey","type":"bytes","internalType":"bytes"},{"name":"designatedReceiver","type":"address","internalType":"address"},{"name":"owner","type":"address","internalType":"address"},{"name":"salt","type":"bytes32","internalType":"bytes32"},{"name":"confirmationBlocks","type":"uint8","internalType":"uint8"},{"name":"safeBitcoinBlockHeight","type":"uint64","internalType":"uint64"},{"name":"state","type":"uint8","internalType":"enum OrderState"}]}],"outputs":[{"name":"","type":"bytes32","internalType":"bytes32"}],"stateMutability":"pure"},{"type":"function","name":"hashPayment","inputs":[{"name":"payment","type":"tuple","internalType":"struct Payment","components":[{"name":"index","type":"uint256","internalType":"uint256"},{"name":"orderIndex","type":"uint256","internalType":"uint256"},{"name":"orderHash","type":"bytes32","internalType":"bytes32"},{"name":"paymentBitcoinBlockLeaf","type":"tuple","internalType":"struct BlockLeaf","components":[{"name":"blockHash","type":"bytes32","internalType":"bytes32"},{"name":"height","type":"uint32","internalType":"uint32"},{"name":"cumulativeChainwork","type":"uint256","internalType":"uint256"}]},{"name":"challengeExpiryTimestamp","type":"uint64","internalType":"uint64"},{"name":"state","type":"uint8","internalType":"enum PaymentState"}]}],"outputs":[{"name":"","type":"bytes32","internalType":"bytes32"}],"stateMutability":"pure"},{"type":"function","name":"linearDecayInt","inputs":[{"name":"startPoint","type":"uint256","internalType":"uint256"},{"name":"endPoint","type":"uint256","internalType":"uint256"},{"name":"currentPoint","type":"uint256","internalType":"uint256"},{"name":"startAmount","type":"int256","internalType":"int256"},{"name":"endAmount","type":"int256","internalType":"int256"}],"outputs":[{"name":"","type":"int256","internalType":"int256"}],"stateMutability":"pure"},{"type":"function","name":"linearDecayUint","inputs":[{"name":"startPoint","type":"uint256","internalType":"uint256"},{"name":"endPoint","type":"uint256","internalType":"uint256"},{"name":"currentPoint","type":"uint256","internalType":"uint256"},{"name":"startAmount","type":"uint256","internalType":"uint256"},{"name":"endAmount","type":"uint256","internalType":"uint256"}],"outputs":[{"name":"","type":"uint256","internalType":"uint256"}],"stateMutability":"pure"},{"type":"function","name":"validateScriptPubKey","inputs":[{"name":"scriptPubKey","type":"bytes","internalType":"bytes"}],"outputs":[{"name":"","type":"bool","internalType":"bool"}],"stateMutability":"pure"},{"type":"function","name":"verifyMMRProof","inputs":[{"name":"leafHash","type":"bytes32","internalType":"bytes32"},{"name":"leafIndex","type":"uint256","internalType":"uint256"},{"name":"siblings","type":"bytes32[]","internalType":"bytes32[]"},{"name":"peaks","type":"bytes32[]","internalType":"bytes32[]"},{"name":"leafCount","type":"uint32","internalType":"uint32"},{"name":"mmrRoot","type":"bytes32","internalType":"bytes32"}],"outputs":[{"name":"","type":"bool","internalType":"bool"}],"stateMutability":"pure"}],"bytecode":{"object":"0x608080604052346015576110ec908161001a8239f35b5f80fdfe60806040526004361015610011575f80fd5b5f3560e01c80630649d3d314610a715780630a1b0c82146109325780630af68462146108f85780631fd012b9146108dd57806334f3a2b61461085c57806339737c3f146108195780633a547322146107ef57806341b4ec93146107ef57806366bdd68b1461059d5780636876eee0146105b9578063728fc0e91461059d578063939ce0d314610581578063a6915e8914610565578063aee996eb146104fc578063c18822d01461049a578063ce0285ec14610456578063ddf1b3cd14610406578063e9c85b0c146103eb578063f20642c1146101155763ff21629b146100f5575f80fd5b34610111575f36600319011261011157602060405161e3b38152f35b5f80fd5b34610111576020366003190112610111576004356001600160401b03811161011157803603610160600319820112610111576040519060e082018281106001600160401b038211176103d7576040528260040135825260248301356001600160401b03811161011157830160e06003198236030112610111576040519161019b83610ae7565b6101a760048301610c0e565b835260248201356001600160401b038111610111576101cc9060043691850101610bb9565b6020840152604482013560408401526101e760648301610c22565b6060840152606060831983360301126101115760405161020681610b02565b6084830135815260a483013563ffffffff811681036101115760a09360c49160208401520135604082015260808401526020840192835260431901126101115760405161025281610ae7565b60448401358152606484013560208201526084840135604082015260a4840135606082015261028360c48501610c0e565b608082015260408301908152606083019160e485013583526080840191610104860135835261014460a0860196610124810135885201356003811015610111576020966103cc9460c088019283526040519687958a8701998b8b525160408801525194610160606088015260018060a01b038651166101a088015261035f608061031d8d89015160e06101c08c01526102808b0190610e25565b6040808a01516101e08c015260608a015160ff166102008c0152919098015180516102208b0152602081015163ffffffff166102408b01520151610260890152565b5180516080888101919091528b82015160a0890152604082015160c0890152606082015160e089015201516001600160a01b0316610100870152516101208601525161014085015251610160840152516103b881610e49565b61018083015203601f198101835282610b1d565b519020604051908152f35b634e487b7160e01b5f52604160045260245ffd5b34610111575f36600319011261011157602060405160858152f35b346101115760203660031901126101115760043560ff811680910361011157611c200263ffffffff811690810361044257602090604051908152f35b634e487b7160e01b5f52601160045260245ffd5b34610111576020366003190112610111576004356001600160401b0381116101115761049061048b6020923690600401610bb9565b610e53565b6040519015158152f35b346101115760203660031901126101115760043561ffff811680910361011157806104cd5750602060015b604051908152f35b806127100161ffff81116104425761ffff5f1991160161ffff81116104425760209161ffff80921604166104c5565b346101115760603660031901126101115760405161051981610b02565b60043581526024359063ffffffff8216820361011157602081810183905260443560408084018290529251835190815263ffffffff909416848301528383015260609092209051908152f35b34610111575f366003190112610111576020604051611c208152f35b34610111575f36600319011261011157602060405161012c8152f35b34610111575f3660031901126101115760206040516103e88152f35b34610111576020366003190112610111576004356001600160401b038111610111576101a0600319823603011261011157604051906101a082018281106001600160401b038211176103d7576040528060040135825261061b60248201610ba5565b906020830191825261062f60448201610ba5565b92604081019384526060810160648301358152608082016084840135815261065960a48501610ba5565b9060a0840191825260c48501356001600160401b038111610111576106849060043691880101610bb9565b9260c0850193845261018461069b60e48801610c0e565b9660e087019788526106b06101048201610c0e565b6101008801526101248101356101208801526106cf6101448201610c22565b6101408801526106e26101648201610ba5565b61016088015201356003811015610111576101808601526040519788976020890160209052865160408a0152516001600160401b03166060890152516001600160401b031660808801525160a08701525160c0860152516001600160401b031660e08501525161010084016101a090526101e0840161076091610e25565b91600160a01b60019003905116610120840152600160a01b600190036101008201511661014084015261012081015161016084015261014081015160ff166101808401526101608101516001600160401b03166101a084015261018001516107c781610e49565b6101c083015203601f19810182526107df9082610b1d565b8051602091820120604051908152f35b346101115760a03660031901126101115760206104c5608435606435604435602435600435610da5565b34610111576040366003190112610111576004356024359061ffff8216809203610111578181029181830414901517156104425760209061271060405191048152f35b34610111576020366003190112610111576004356001600160401b038116809103610111576085026001600160401b0381169081036104425761e3b3016001600160401b038111610442576001600160401b036103e88161012c93160416016001600160401b038111610442576020906001600160401b0360405191168152f35b34610111575f36600319011261011157602060405160028152f35b34610111576020366003190112610111576004356001600160401b038111610111576104c561092d6020923690600401610b3e565b610d31565b34610111576101003660031901126101115760405160c081018181106001600160401b038211176103d75760405260043581526020810190602435825260408101604435815260606063193601126101115760405161099081610b02565b606435815260843563ffffffff8116810361011157602082015260a43560408201526060830190815260c4356001600160401b0381168103610111576080840190815260e435926002841015610111576001600160401b0392610a319160a08701958652604051976020890197518852516040890152516060880152516080870190604080918051845263ffffffff60208201511660208501520151910152565b511660e084015251916002831015610a5d5760209261010082015261010081526103cc61012082610b1d565b634e487b7160e01b5f52602160045260245ffd5b346101115760c0366003190112610111576044356001600160401b03811161011157610aa1903690600401610b3e565b6064356001600160401b03811161011157610ac0903690600401610b3e565b6084359163ffffffff83168303610111576020926104909260a43592602435600435610c58565b60a081019081106001600160401b038211176103d757604052565b606081019081106001600160401b038211176103d757604052565b90601f801991011681019081106001600160401b038211176103d757604052565b9080601f83011215610111578135916001600160401b0383116103d7578260051b9060405193610b716020840186610b1d565b845260208085019282010192831161011157602001905b828210610b955750505090565b8135815260209182019101610b88565b35906001600160401b038216820361011157565b81601f82011215610111578035906001600160401b0382116103d75760405192610bed601f8401601f191660200185610b1d565b8284526020838301011161011157815f926020809301838601378301015290565b35906001600160a01b038216820361011157565b359060ff8216820361011157565b8051821015610c445760209160051b010190565b634e487b7160e01b5f52603260045260245ffd5b939591929490955f945b8451861015610cb457600188811c98811603610c9757610c828686610c30565b515f52602052600160405f20955b0194610c62565b610ca18686610c30565b51905f52602052600160405f2095610c90565b95929650925092505f935f5b8251811015610d1a5781610cd48285610c30565b5114610ce257600101610cc0565b50509091925060015b15610d1357610cf990610d31565b908115610d135763ffffffff165f5260205260405f201490565b5050505f90565b5050909192610ceb565b9190820391821161044257565b80518015610d87575f19810190811161044257610d4e9082610c30565b519080515f19810190811161044257805b610d6857505090565b5f190191610d768383610c30565b515f526020528160405f2092610d5f565b50505f90565b81810392915f13801582851316918412161761044257565b909193929382811015610e1d5790610dc081610dc693610d24565b92610d24565b908380841215610e0a57610de293610ddd91610d8d565b611093565b600160ff1b8114610442575f03905b5f82820192831291129080158216911516176104425790565b610ddd90610e1794610d8d565b90610df1565b505050905090565b805180835260209291819084018484015e5f828201840152601f01601f1916010190565b60031115610a5d57565b8051601681146110515760178114610fda5760198114610f0957602214610e7957505f90565b805115610c44576020810180516001600160f81b0319168015610eeb57605160f81b14610ea65750505f90565b815115610c4457516001600160f81b031916605160f81b149081610ec8575090565b8091505160011015610c4457602101516001600160f81b031916600160fd1b1490565b50815115610c4457516001600160f81b031916159081610ec8575090565b50805115610c445760208101516001600160f81b031916603b60f91b149081610fb3575b81610f8c575b81610f65575b81610f42575090565b8091505160181015610c4457603801516001600160f81b031916602b60fa1b1490565b8091505160171015610c445760378101516001600160f81b031916601160fb1b1490610f39565b8091505160021015610c445760228101516001600160f81b031916600560fa1b1490610f33565b8091505160011015610c445760218101516001600160f81b03191660a960f81b1490610f2d565b50805115610c445760208101516001600160f81b03191660a960f81b14908161102a575b81611007575090565b8091505160161015610c4457603601516001600160f81b031916608760f81b1490565b8091505160011015610c445760218101516001600160f81b031916600560fa1b1490610ffe565b15610c445760208101516001600160f81b031916159081611070575090565b8091505160011015610c4457602101516001600160f81b031916600560fa1b1490565b81810291811591830414178202156110a9570490565b63ad251c275f526004601cfdfea2646970667358221220cdf96974dfef084f37a4dc683a34d6462f7087077140f6518863a1589d6e3c5864736f6c634300081c0033","linkReferences":{}},"methodIdentifiers":{"bagPeaks(bytes32[])":"0af68462","calculateChallengePeriod(uint64)":"34f3a2b6","calculateDepositLockupPeriod(uint8)":"ddf1b3cd","calculateFeeFromDeposit(uint256,uint16)":"39737c3f","calculateMinDepositAmount(uint16)":"c18822d0","getChallengePeriodBuffer()":"939ce0d3","getDepositLockupPeriodScalar()":"a6915e89","getMinConfirmationBlocks()":"1fd012b9","getMinOutputSats()":"728fc0e9","getProofGenScalingFactor()":"66bdd68b","getScaledProofGenIntercept()":"ff21629b","getScaledProofGenSlope()":"e9c85b0c","hashBlockLeaf((bytes32,uint32,uint256))":"aee996eb","hashDutchAuction((uint256,(address,bytes,bytes32,uint8,(bytes32,uint32,uint256)),(uint256,uint256,uint256,uint256,address),uint256,uint256,uint256,uint8))":"f20642c1","hashOrder((uint256,uint64,uint64,uint256,uint256,uint64,bytes,address,address,bytes32,uint8,uint64,uint8))":"6876eee0","hashPayment((uint256,uint256,bytes32,(bytes32,uint32,uint256),uint64,uint8))":"0a1b0c82","linearDecayInt(uint256,uint256,uint256,int256,int256)":"3a547322","linearDecayUint(uint256,uint256,uint256,uint256,uint256)":"41b4ec93","validateScriptPubKey(bytes)":"ce0285ec","verifyMMRProof(bytes32,uint256,bytes32[],bytes32[],uint32,bytes32)":"0649d3d3"},"storageLayout":{"storage":[],"types":{}},"id":86}