{"abi":[{"type":"constructor","inputs":[],"stateMutability":"nonpayable"},{"type":"function","name":"addToWhitelist","inputs":[{"name":"account","type":"address","internalType":"address"}],"outputs":[],"stateMutability":"nonpayable"},{"type":"function","name":"cancelOwnershipHandover","inputs":[],"outputs":[],"stateMutability":"payable"},{"type":"function","name":"completeOwnershipHandover","inputs":[{"name":"pendingOwner","type":"address","internalType":"address"}],"outputs":[],"stateMutability":"payable"},{"type":"function","name":"isWhitelisted","inputs":[{"name":"account","type":"address","internalType":"address"},{"name":"","type":"bytes","internalType":"bytes"}],"outputs":[{"name":"","type":"bool","internalType":"bool"}],"stateMutability":"view"},{"type":"function","name":"owner","inputs":[],"outputs":[{"name":"result","type":"address","internalType":"address"}],"stateMutability":"view"},{"type":"function","name":"ownershipHandoverExpiresAt","inputs":[{"name":"pendingOwner","type":"address","internalType":"address"}],"outputs":[{"name":"result","type":"uint256","internalType":"uint256"}],"stateMutability":"view"},{"type":"function","name":"removeFromWhitelist","inputs":[{"name":"account","type":"address","internalType":"address"}],"outputs":[],"stateMutability":"nonpayable"},{"type":"function","name":"renounceOwnership","inputs":[],"outputs":[],"stateMutability":"payable"},{"type":"function","name":"requestOwnershipHandover","inputs":[],"outputs":[],"stateMutability":"payable"},{"type":"function","name":"transferOwnership","inputs":[{"name":"newOwner","type":"address","internalType":"address"}],"outputs":[],"stateMutability":"payable"},{"type":"function","name":"whitelist","inputs":[{"name":"","type":"address","internalType":"address"}],"outputs":[{"name":"","type":"bool","internalType":"bool"}],"stateMutability":"view"},{"type":"event","name":"OwnershipHandoverCanceled","inputs":[{"name":"pendingOwner","type":"address","indexed":true,"internalType":"address"}],"anonymous":false},{"type":"event","name":"OwnershipHandoverRequested","inputs":[{"name":"pendingOwner","type":"address","indexed":true,"internalType":"address"}],"anonymous":false},{"type":"event","name":"OwnershipTransferred","inputs":[{"name":"oldOwner","type":"address","indexed":true,"internalType":"address"},{"name":"newOwner","type":"address","indexed":true,"internalType":"address"}],"anonymous":false},{"type":"event","name":"WhitelistUpdated","inputs":[{"name":"account","type":"address","indexed":true,"internalType":"address"},{"name":"isWhitelisted","type":"bool","indexed":false,"internalType":"bool"}],"anonymous":false},{"type":"error","name":"AlreadyInitialized","inputs":[]},{"type":"error","name":"NewOwnerIsZeroAddress","inputs":[]},{"type":"error","name":"NoHandoverRequest","inputs":[]},{"type":"error","name":"Unauthorized","inputs":[]}],"bytecode":{"object":"0x60806040523460455733638b78c6d81955335f7f8be0079c531659141344cd1fd0a4f28419497f9722a3daafe3b4186f6b6457e08180a36040516104d3908161004a8239f35b5f80fdfe6080806040526004361015610012575f80fd5b5f3560e01c9081631f0a8fa71461036857508063256929621461031f57806354d1f13d146102db578063715018a6146102925780638ab1d681146102295780638da5cb5b146101fd5780639b19251a146101c1578063e43252d714610155578063f04e283e14610108578063f2fde38b146100cb5763fee81cf414610095575f80fd5b346100c75760203660031901126100c7576100ae61042e565b63389a75e1600c525f52602080600c2054604051908152f35b5f80fd5b60203660031901126100c7576100df61042e565b6100e7610444565b8060601b156100fb576100f990610460565b005b637448fbae5f526004601cfd5b60203660031901126100c75761011c61042e565b610124610444565b63389a75e1600c52805f526020600c209081544211610148575f6100f99255610460565b636f5e88185f526004601cfd5b346100c75760203660031901126100c75761016e61042e565b610176610444565b60018060a01b0316805f525f60205260405f20600160ff198254161790557ff93f9a76c1bf3444d22400a00cb9fe990e6abe9dbb333fda48859cfee864543d602060405160018152a2005b346100c75760203660031901126100c7576001600160a01b036101e261042e565b165f525f602052602060ff60405f2054166040519015158152f35b346100c7575f3660031901126100c757638b78c6d819546040516001600160a01b039091168152602090f35b346100c75760203660031901126100c75761024261042e565b61024a610444565b6001600160a01b03165f81815260208181526040808320805460ff19169055519182527ff93f9a76c1bf3444d22400a00cb9fe990e6abe9dbb333fda48859cfee864543d91a2005b5f3660031901126100c7576102a5610444565b5f638b78c6d819547f8be0079c531659141344cd1fd0a4f28419497f9722a3daafe3b4186f6b6457e08280a35f638b78c6d81955005b5f3660031901126100c75763389a75e1600c52335f525f6020600c2055337ffa7b8eab7da67f412cc9575ed43464468f9bfbae89d1675917346ca6d8fe3c925f80a2005b5f3660031901126100c75763389a75e1600c52335f526202a30042016020600c2055337fdbf36a107da19e49527a7176a1babf963b4b0ff8cde35ee35d6cd8f1f9ac7e1d5f80a2005b346100c75760403660031901126100c75761038161042e565b9060243567ffffffffffffffff81116100c757366023820112156100c757806004013567ffffffffffffffff811161041a57601f8101601f19908116603f0116830167ffffffffffffffff81118482101761041a5760405280835236602482840101116100c7575f92816024602094018483013701015260018060a01b03165f525f602052602060ff60405f2054166040519015158152f35b634e487b7160e01b5f52604160045260245ffd5b600435906001600160a01b03821682036100c757565b638b78c6d81954330361045357565b6382b429005f526004601cfd5b60018060a01b031680638b78c6d819547f8be0079c531659141344cd1fd0a4f28419497f9722a3daafe3b4186f6b6457e05f80a3638b78c6d8195556fea26469706673582212207baf88a4e9204f8383ea67787b9b06a59b30f2e7639b7e91596dfe0dede2a71b64736f6c634300081c0033","linkReferences":{}},"methodIdentifiers":{"addToWhitelist(address)":"e43252d7","cancelOwnershipHandover()":"54d1f13d","completeOwnershipHandover(address)":"f04e283e","isWhitelisted(address,bytes)":"1f0a8fa7","owner()":"8da5cb5b","ownershipHandoverExpiresAt(address)":"fee81cf4","removeFromWhitelist(address)":"8ab1d681","renounceOwnership()":"715018a6","requestOwnershipHandover()":"25692962","transferOwnership(address)":"f2fde38b","whitelist(address)":"9b19251a"},"storageLayout":{"storage":[{"astId":41258,"contract":"src/MappingWhitelist.sol:MappingWhitelist","label":"whitelist","offset":0,"slot":"0","type":"t_mapping(t_address,t_bool)"}],"types":{"t_address":{"encoding":"inplace","label":"address","numberOfBytes":"20"},"t_bool":{"encoding":"inplace","label":"bool","numberOfBytes":"1"},"t_mapping(t_address,t_bool)":{"encoding":"mapping","key":"t_address","label":"mapping(address => bool)","numberOfBytes":"32","value":"t_bool"}}},"id":38}