{"abi":[{"type":"constructor","inputs":[{"name":"_name","type":"string","internalType":"string"},{"name":"_symbol","type":"string","internalType":"string"},{"name":"_decimals","type":"uint8","internalType":"uint8"}],"stateMutability":"nonpayable"},{"type":"function","name":"$decimals","inputs":[],"outputs":[{"name":"","type":"uint8","internalType":"uint8"}],"stateMutability":"view"},{"type":"function","name":"$name","inputs":[],"outputs":[{"name":"","type":"string","internalType":"string"}],"stateMutability":"view"},{"type":"function","name":"$symbol","inputs":[],"outputs":[{"name":"","type":"string","internalType":"string"}],"stateMutability":"view"},{"type":"function","name":"DOMAIN_SEPARATOR","inputs":[],"outputs":[{"name":"result","type":"bytes32","internalType":"bytes32"}],"stateMutability":"view"},{"type":"function","name":"allowance","inputs":[{"name":"owner","type":"address","internalType":"address"},{"name":"spender","type":"address","internalType":"address"}],"outputs":[{"name":"result","type":"uint256","internalType":"uint256"}],"stateMutability":"view"},{"type":"function","name":"approve","inputs":[{"name":"spender","type":"address","internalType":"address"},{"name":"amount","type":"uint256","internalType":"uint256"}],"outputs":[{"name":"","type":"bool","internalType":"bool"}],"stateMutability":"nonpayable"},{"type":"function","name":"balanceOf","inputs":[{"name":"owner","type":"address","internalType":"address"}],"outputs":[{"name":"result","type":"uint256","internalType":"uint256"}],"stateMutability":"view"},{"type":"function","name":"configureMinter","inputs":[{"name":"","type":"address","internalType":"address"},{"name":"","type":"uint256","internalType":"uint256"}],"outputs":[{"name":"","type":"bool","internalType":"bool"}],"stateMutability":"pure"},{"type":"function","name":"decimals","inputs":[],"outputs":[{"name":"","type":"uint8","internalType":"uint8"}],"stateMutability":"view"},{"type":"function","name":"masterMinter","inputs":[],"outputs":[{"name":"","type":"address","internalType":"address"}],"stateMutability":"view"},{"type":"function","name":"mint","inputs":[{"name":"_to","type":"address","internalType":"address"},{"name":"_amount","type":"uint256","internalType":"uint256"}],"outputs":[],"stateMutability":"nonpayable"},{"type":"function","name":"name","inputs":[],"outputs":[{"name":"","type":"string","internalType":"string"}],"stateMutability":"view"},{"type":"function","name":"nonces","inputs":[{"name":"owner","type":"address","internalType":"address"}],"outputs":[{"name":"result","type":"uint256","internalType":"uint256"}],"stateMutability":"view"},{"type":"function","name":"permit","inputs":[{"name":"owner","type":"address","internalType":"address"},{"name":"spender","type":"address","internalType":"address"},{"name":"value","type":"uint256","internalType":"uint256"},{"name":"deadline","type":"uint256","internalType":"uint256"},{"name":"v","type":"uint8","internalType":"uint8"},{"name":"r","type":"bytes32","internalType":"bytes32"},{"name":"s","type":"bytes32","internalType":"bytes32"}],"outputs":[],"stateMutability":"nonpayable"},{"type":"function","name":"symbol","inputs":[],"outputs":[{"name":"","type":"string","internalType":"string"}],"stateMutability":"view"},{"type":"function","name":"totalSupply","inputs":[],"outputs":[{"name":"result","type":"uint256","internalType":"uint256"}],"stateMutability":"view"},{"type":"function","name":"transfer","inputs":[{"name":"to","type":"address","internalType":"address"},{"name":"amount","type":"uint256","internalType":"uint256"}],"outputs":[{"name":"","type":"bool","internalType":"bool"}],"stateMutability":"nonpayable"},{"type":"function","name":"transferFrom","inputs":[{"name":"from","type":"address","internalType":"address"},{"name":"to","type":"address","internalType":"address"},{"name":"amount","type":"uint256","internalType":"uint256"}],"outputs":[{"name":"","type":"bool","internalType":"bool"}],"stateMutability":"nonpayable"},{"type":"event","name":"Approval","inputs":[{"name":"owner","type":"address","indexed":true,"internalType":"address"},{"name":"spender","type":"address","indexed":true,"internalType":"address"},{"name":"amount","type":"uint256","indexed":false,"internalType":"uint256"}],"anonymous":false},{"type":"event","name":"Transfer","inputs":[{"name":"from","type":"address","indexed":true,"internalType":"address"},{"name":"to","type":"address","indexed":true,"internalType":"address"},{"name":"amount","type":"uint256","indexed":false,"internalType":"uint256"}],"anonymous":false},{"type":"error","name":"AllowanceOverflow","inputs":[]},{"type":"error","name":"AllowanceUnderflow","inputs":[]},{"type":"error","name":"InsufficientAllowance","inputs":[]},{"type":"error","name":"InsufficientBalance","inputs":[]},{"type":"error","name":"InvalidPermit","inputs":[]},{"type":"error","name":"Permit2AllowanceIsFixedAtInfinity","inputs":[]},{"type":"error","name":"PermitExpired","inputs":[]},{"type":"error","name":"TotalSupplyOverflow","inputs":[]}],"bytecode":{"object":"0x60806040523461032b57610e48803803806100198161032f565b92833981019060608183031261032b5780516001600160401b03811161032b5782610045918301610354565b60208201519092906001600160401b03811161032b57604091610069918401610354565b91015160ff811680910361032b5782516001600160401b03811161023f575f54600181811c91168015610321575b602082101461022157601f81116102bf575b506020601f821160011461025e57819293945f92610253575b50508160011b915f199060031b1c1916175f555b81516001600160401b03811161023f57600154600181811c91168015610235575b602082101461022157601f81116101be575b50602092601f821160011461015d57928192935f92610152575b50508160011b915f199060031b1c1916176001555b60ff196002541617600255604051610aa290816103a68239f35b015190505f80610123565b601f1982169360015f52805f20915f5b8681106101a6575083600195961061018e575b505050811b01600155610138565b01515f1960f88460031b161c191690555f8080610180565b9192602060018192868501518155019401920161016d565b60015f527fb10e2d527612073b26eecdfd717e6a320cf44b4afac2b0732d9fcbe2b7fa0cf6601f830160051c81019160208410610217575b601f0160051c01905b81811061020c5750610109565b5f81556001016101ff565b90915081906101f6565b634e487b7160e01b5f52602260045260245ffd5b90607f16906100f7565b634e487b7160e01b5f52604160045260245ffd5b015190505f806100c2565b601f198216905f8052805f20915f5b8181106102a75750958360019596971061028f575b505050811b015f556100d6565b01515f1960f88460031b161c191690555f8080610282565b9192602060018192868b01518155019401920161026d565b5f80527f290decd9548b62a8d60345a988386fc84ba6bc95484008f6362f93160ef3e563601f830160051c81019160208410610317575b601f0160051c01905b81811061030c57506100a9565b5f81556001016102ff565b90915081906102f6565b90607f1690610097565b5f80fd5b6040519190601f01601f191682016001600160401b0381118382101761023f57604052565b81601f8201121561032b578051906001600160401b03821161023f57610383601f8301601f191660200161032f565b928284526020838301011161032b57815f9260208093018386015e830101529056fe60806040526004361015610011575f80fd5b5f3560e01c806306fdde0314610832578063095ea7b3146107a357806318160ddd1461077e57806323b872dd14610689578063313ce5671461053757806335d99f351461066f5780633644e515146105e757806340c10f191461055757806342d2d3c3146105375780634aa78300146104875780634e44d9561461051257806370a08231146104e05780637ecebe00146104ae57806395d89b4114610487578063a9059cbb146103f8578063af62c262146102dd578063d505accf146101175763dd62ed3e146100df575f80fd5b3461011357604036600319011261011357602061010b6100fd610877565b61010561088d565b90610a2f565b604051908152f35b5f80fd5b346101135760e036600319011261011357610130610877565b61013861088d565b604435916064356084359260ff84168403610113576001600160a01b0316936e22d473030f116ddee9f6b43ac78ba3851881191517156102d05761017a6108a3565b60208151910120908242116102c3576040519360018060a01b03169465383775081901600e52855f5260c06020600c20958654957f8b73c3c69bb8fe3d512ecc4cf759cc79239f7b179b0ffacaa9a75d522b39400f8252602082019586528660408301967fc89efdaa54c0f20c7adf612882df0950f5a951637e0307cdcb4c672f298b8bc688528b6060850198468a528c608087019330855260a08820602e527f6e71edae12b1b97f4d1f60370fef10105fa2faae0126114a169c64845d6126c9885252528688525260a082015220604e526042602c205f5260ff1660205260a43560405260c43560605260208060805f60015afa93853d51036102b6577f8c5be1e5ebec7d5bd14f71427d1e84f3dd0314c0f7b2291e5b200ac8c7c3b92594602094019055856303faf4f960a51b176040526034602c2055a3005b63ddafbaef5f526004601cfd5b631a15a3cc5f526004601cfd5b633f68539a5f526004601cfd5b34610113575f366003190112610113576040515f5f548060011c906001811680156103ee575b6020831081146103da578285529081156103be575060011461036a575b50819003601f01601f191681019067ffffffffffffffff8211818310176103565760408290528190610352908261084d565b0390f35b634e487b7160e01b5f52604160045260245ffd5b5f8080529091507f290decd9548b62a8d60345a988386fc84ba6bc95484008f6362f93160ef3e5635b8282106103a857506020915082010182610320565b6001816020925483858801015201910190610393565b90506020925060ff191682840152151560051b82010182610320565b634e487b7160e01b5f52602260045260245ffd5b91607f1691610303565b3461011357604036600319011261011357610411610877565b602435906387a211a2600c52335f526020600c20805480841161047a5783900390555f526020600c20818154019055602052600c5160601c337fddf252ad1be2c89b69c2b068fc378daa952ba7f163c4a11628f55a4df523b3ef602080a3602060405160018152f35b63f4d678b85f526004601cfd5b34610113575f366003190112610113576103526104a2610976565b6040519182918261084d565b34610113576020366003190112610113576104c7610877565b6338377508600c525f52602080600c2054604051908152f35b34610113576020366003190112610113576104f9610877565b6387a211a2600c525f52602080600c2054604051908152f35b346101135760403660031901126101135761052b610877565b50602060405160018152f35b34610113575f36600319011261011357602060ff60025416604051908152f35b3461011357604036600319011261011357610570610877565b602435906805345cdf77eb68f44c548281019081106105da576805345cdf77eb68f44c556387a211a2600c525f526020600c20818154019055602052600c5160601c5f7fddf252ad1be2c89b69c2b068fc378daa952ba7f163c4a11628f55a4df523b3ef602080a3005b63e5cfe9575f526004601cfd5b34610113575f36600319011261011357602060a06106036108a3565b828151910120604051907f8b73c3c69bb8fe3d512ecc4cf759cc79239f7b179b0ffacaa9a75d522b39400f8252838201527fc89efdaa54c0f20c7adf612882df0950f5a951637e0307cdcb4c672f298b8bc6604082015246606082015230608082015220604051908152f35b34610113575f366003190112610113576020604051338152f35b34610113576060366003190112610113576106a2610877565b6106aa61088d565b604435908260601b6e22d473030f116ddee9f6b43ac78ba33303610734575b6387a211a217600c526020600c20805480841161047a5783900390555f526020600c20818154019055602052600c5160601c9060018060a01b03167fddf252ad1be2c89b69c2b068fc378daa952ba7f163c4a11628f55a4df523b3ef602080a3602060405160018152f35b33602052637f5e9f208117600c526034600c2090815491821961075a575b5090506106c9565b82851161077157846387a211a29303905585610752565b6313be252b5f526004601cfd5b34610113575f3660031901126101135760206805345cdf77eb68f44c54604051908152f35b34610113576040366003190112610113576107bc610877565b602435906001600160a01b0381166e22d473030f116ddee9f6b43ac78ba31882191517156102d057602052637f5e9f20600c52335f52806034600c20555f52602c5160601c337f8c5be1e5ebec7d5bd14f71427d1e84f3dd0314c0f7b2291e5b200ac8c7c3b92560205fa3602060405160018152f35b34610113575f366003190112610113576103526104a26108a3565b602060409281835280519182918282860152018484015e5f828201840152601f01601f1916010190565b600435906001600160a01b038216820361011357565b602435906001600160a01b038216820361011357565b604051905f5f548060011c9060018116801561096c575b6020831081146103da5782865290811561095057506001146108fc575b50829003601f01601f1916820167ffffffffffffffff81118382101761035657604052565b5f8080529091507f290decd9548b62a8d60345a988386fc84ba6bc95484008f6362f93160ef3e5635b82821061093a5750602091508301015f6108d7565b6001816020925483858901015201910190610925565b90506020925060ff191682850152151560051b8301015f6108d7565b91607f16916108ba565b604051905f6001548060011c90600181168015610a25575b6020831081146103da5782865290811561095057506001146109cf5750829003601f01601f1916820167ffffffffffffffff81118382101761035657604052565b60015f9081529091507fb10e2d527612073b26eecdfd717e6a320cf44b4afac2b0732d9fcbe2b7fa0cf65b828210610a0f5750602091508301015f6108d7565b60018160209254838589010152019101906109fa565b91607f169161098e565b906001600160a01b0381166e22d473030f116ddee9f6b43ac78ba314610a6557602052637f5e9f20600c525f526034600c205490565b50505f199056fea2646970667358221220ed255cb5e78305d5147c5731299ab9e5b80517a6b0846b78677d67698c66cbab64736f6c634300081c0033","linkReferences":{}},"methodIdentifiers":{"$decimals()":"42d2d3c3","$name()":"af62c262","$symbol()":"4aa78300","DOMAIN_SEPARATOR()":"3644e515","allowance(address,address)":"dd62ed3e","approve(address,uint256)":"095ea7b3","balanceOf(address)":"70a08231","configureMinter(address,uint256)":"4e44d956","decimals()":"313ce567","masterMinter()":"35d99f35","mint(address,uint256)":"40c10f19","name()":"06fdde03","nonces(address)":"7ecebe00","permit(address,address,uint256,uint256,uint8,bytes32,bytes32)":"d505accf","symbol()":"95d89b41","totalSupply()":"18160ddd","transfer(address,uint256)":"a9059cbb","transferFrom(address,address,uint256)":"23b872dd"},"storageLayout":{"storage":[{"astId":46362,"contract":"tests/utils/MockToken.sol:MockToken","label":"$name","offset":0,"slot":"0","type":"t_string_storage"},{"astId":46364,"contract":"tests/utils/MockToken.sol:MockToken","label":"$symbol","offset":0,"slot":"1","type":"t_string_storage"},{"astId":46366,"contract":"tests/utils/MockToken.sol:MockToken","label":"$decimals","offset":0,"slot":"2","type":"t_uint8"}],"types":{"t_string_storage":{"encoding":"bytes","label":"string","numberOfBytes":"32"},"t_uint8":{"encoding":"inplace","label":"uint8","numberOfBytes":"1"}}},"id":41}