{"abi":[{"type":"constructor","inputs":[{"name":"bundler3","type":"address","internalType":"address"},{"name":"morpho","type":"address","internalType":"address"},{"name":"augustusRegistry","type":"address","internalType":"address"}],"stateMutability":"nonpayable"},{"type":"receive","stateMutability":"payable"},{"type":"function","name":"AUGUSTUS_REGISTRY","inputs":[],"outputs":[{"name":"","type":"address","internalType":"contract IAugustusRegistry"}],"stateMutability":"view"},{"type":"function","name":"BUNDLER3","inputs":[],"outputs":[{"name":"","type":"address","internalType":"address"}],"stateMutability":"view"},{"type":"function","name":"MORPHO","inputs":[],"outputs":[{"name":"","type":"address","internalType":"contract IMorpho"}],"stateMutability":"view"},{"type":"function","name":"buy","inputs":[{"name":"augustus","type":"address","internalType":"address"},{"name":"callData","type":"bytes","internalType":"bytes"},{"name":"srcToken","type":"address","internalType":"address"},{"name":"destToken","type":"address","internalType":"address"},{"name":"newDestAmount","type":"uint256","internalType":"uint256"},{"name":"offsets","type":"tuple","internalType":"struct Offsets","components":[{"name":"exactAmount","type":"uint256","internalType":"uint256"},{"name":"limitAmount","type":"uint256","internalType":"uint256"},{"name":"quotedAmount","type":"uint256","internalType":"uint256"}]},{"name":"receiver","type":"address","internalType":"address"}],"outputs":[],"stateMutability":"nonpayable"},{"type":"function","name":"buyMorphoDebt","inputs":[{"name":"augustus","type":"address","internalType":"address"},{"name":"callData","type":"bytes","internalType":"bytes"},{"name":"srcToken","type":"address","internalType":"address"},{"name":"marketParams","type":"tuple","internalType":"struct MarketParams","components":[{"name":"loanToken","type":"address","internalType":"address"},{"name":"collateralToken","type":"address","internalType":"address"},{"name":"oracle","type":"address","internalType":"address"},{"name":"irm","type":"address","internalType":"address"},{"name":"lltv","type":"uint256","internalType":"uint256"}]},{"name":"offsets","type":"tuple","internalType":"struct Offsets","components":[{"name":"exactAmount","type":"uint256","internalType":"uint256"},{"name":"limitAmount","type":"uint256","internalType":"uint256"},{"name":"quotedAmount","type":"uint256","internalType":"uint256"}]},{"name":"onBehalf","type":"address","internalType":"address"},{"name":"receiver","type":"address","internalType":"address"}],"outputs":[],"stateMutability":"nonpayable"},{"type":"function","name":"erc20Transfer","inputs":[{"name":"token","type":"address","internalType":"address"},{"name":"receiver","type":"address","internalType":"address"},{"name":"amount","type":"uint256","internalType":"uint256"}],"outputs":[],"stateMutability":"nonpayable"},{"type":"function","name":"nativeTransfer","inputs":[{"name":"receiver","type":"address","internalType":"address"},{"name":"amount","type":"uint256","internalType":"uint256"}],"outputs":[],"stateMutability":"nonpayable"},{"type":"function","name":"sell","inputs":[{"name":"augustus","type":"address","internalType":"address"},{"name":"callData","type":"bytes","internalType":"bytes"},{"name":"srcToken","type":"address","internalType":"address"},{"name":"destToken","type":"address","internalType":"address"},{"name":"sellEntireBalance","type":"bool","internalType":"bool"},{"name":"offsets","type":"tuple","internalType":"struct Offsets","components":[{"name":"exactAmount","type":"uint256","internalType":"uint256"},{"name":"limitAmount","type":"uint256","internalType":"uint256"},{"name":"quotedAmount","type":"uint256","internalType":"uint256"}]},{"name":"receiver","type":"address","internalType":"address"}],"outputs":[],"stateMutability":"nonpayable"},{"type":"error","name":"AdapterAddress","inputs":[]},{"type":"error","name":"BuyAmountTooLow","inputs":[]},{"type":"error","name":"FailedCall","inputs":[]},{"type":"error","name":"InsufficientBalance","inputs":[{"name":"balance","type":"uint256","internalType":"uint256"},{"name":"needed","type":"uint256","internalType":"uint256"}]},{"type":"error","name":"InvalidAugustus","inputs":[]},{"type":"error","name":"InvalidOffset","inputs":[]},{"type":"error","name":"SafeERC20FailedOperation","inputs":[{"name":"token","type":"address","internalType":"address"}]},{"type":"error","name":"SellAmountTooHigh","inputs":[]},{"type":"error","name":"UnauthorizedSender","inputs":[]},{"type":"error","name":"ZeroAddress","inputs":[]},{"type":"error","name":"ZeroAmount","inputs":[]}],"bytecode":{"object":"0x60e03461010257601f6118b538819003918201601f19168301916001600160401b0383118484101761010657808492606094604052833981010312610102576100478161011a565b9061006060406100596020840161011a565b920161011a565b916001600160a01b038116156100f3576080526001600160a01b03169081156100f3576001600160a01b03169081156100f35760c05260a052604051611786908161012f823960805181818160940152818161049401528181610b9a01528181610c57015261110c015260a0518181816104ea01528181610cae01526110aa015260c05181818161032001526110660152f35b63d92e233d60e01b5f5260045ffd5b5f80fd5b634e487b7160e01b5f52604160045260245ffd5b51906001600160a01b03821682036101025756fe6080604052600436101561001a575b3615610018575f80fd5b005b5f3560e01c80633790767d146110d95780633a829867146110955780633acb56241461105157806360776d6e14610fbb578063678215ac14610bc9578063a317e4b514610b85578063db8a5d09146101785763f2522bcd0361000e57346101745760403660031901126101745761008f6111e8565b6024357f00000000000000000000000000000000000000000000000000000000000000006001600160a01b0316330361016557906001600160a01b031681811561015657308214610147575f19810361013357504791505b816100ee57005b81471061011c575f80809381935af16101056113a9565b501561010d57005b63d6bda27560e01b5f5260045ffd5b504763cf47918160e01b5f5260045260245260445ffd5b6100e7575b631f2a200560e01b5f5260045ffd5b63de8b590960e01b5f5260045ffd5b63d92e233d60e01b5f5260045ffd5b630101292160e31b5f5260045ffd5b5f80fd5b34610174576101a0366003190112610174576101926111e8565b60243567ffffffffffffffff8111610174576101b290369060040161127f565b6101ba6111fe565b60a03660631901126101745760603661010319011261017457610164356001600160a01b03811692908390036101745761018435916001600160a01b038316918284036101745760405160a0810181811067ffffffffffffffff821117610ab357604052610226611214565b81526084356001600160a01b0381168103610174576020820190815260a435906001600160a01b0382168203610174576040830191825260c435916001600160a01b03831683036101745760608401928352608084019860e4358a5260a085206040516020810191825260026040820152604081526102a6606082611241565b51902060405190602082019283526040820152604081526102c8606082611241565b51902093600185018095116107b9576040998a51956102e78c88611241565b600187526020870190601f198d01368337610301886115b9565b528b51637784c68560e01b8152602060048201529651602488018190527f00000000000000000000000000000000000000000000000000000000000000006001600160a01b0316979182916044830191905f5b818110610b6c5750505090805f9203818a5afa9081156109d9575f91610acf575b506103876001600160801b03916115b9565b51169460c08c602460a086209151809a8193632e3071cd60e11b835260048301525afa9687156109d957908c92915f98610a0b575b5060808801946103d66001600160801b0387511642611372565b96871515806109f6575b806109e3575b6107cd575b505050506001600160801b03935060609250839150850151169301511691600181018091116107b957620f42408301918284116107b957620f423f91610430916116b5565b9201918183116107b95761044c926104479161144b565b61160e565b958615610138576064356001600160a01b0381169790889003610174576104769061010484611307565b610483610124358361137f565b91610491610104358261137f565b937f00000000000000000000000000000000000000000000000000000000000000006001600160a01b0316330361016557875163fb04e17b60e01b81526001600160a01b038481166004830152602090829060249082907f0000000000000000000000000000000000000000000000000000000000000000165afa908115610765575f9161077e575b501561076f5785156101565784156101385787516370a0823160e01b8152306004820152926001600160a01b039190911690602084602481855afa928315610765575f93610730575b89516370a0823160e01b815230600482015294506020856024818e5afa948515610726575f956106f2575b505f809161059c84866114cd565b60208151910182855af16105ae6113a9565b90156106ea5750816105c560209260249594611580565b89516370a0823160e01b815230600482015293849182905afa9182156106e0575f926106ac575b5087516370a0823160e01b81523060048201526020816024818d5afa9889156106a357505f98610667575b5061062c929161062691611372565b96611372565b941161065857831061064957300361064057005b610018926112c5565b63b405724960e01b5f5260045ffd5b6331eaeb1760e11b5f5260045ffd5b9097506020929192813d60201161069b575b8161068660209383611241565b8101031261017457519690919061062c610617565b3d9150610679565b513d5f823e3d90fd5b9091506020813d6020116106d8575b816106c860209383611241565b81010312610174575190896105ec565b3d91506106bb565b88513d5f823e3d90fd5b805190602001fd5b9094506020813d60201161071e575b8161070e60209383611241565b810103126101745751935f61058e565b3d9150610701565b8a513d5f823e3d90fd5b92506020843d60201161075d575b8161074b60209383611241565b81010312610174576024935192610563565b3d915061073e565b89513d5f823e3d90fd5b630c1fe6df60e31b5f5260045ffd5b90506020813d6020116107b1575b8161079960209383611241565b8101031261017457518015158103610174578a61051a565b3d915061078c565b634e487b7160e01b5f52601160045260245ffd5b82519451638c00bf6b60e01b815295516001600160a01b0390811660048801529051811660248701529051811660448601529051811660648501529051608484015286516001600160801b0390811660a485015260208089018051831660c48701528e8a018051841660e488015260608b015184166101048801529651831661012487015260a08a018051909316610144870152969193919290918591610164918391165afa9283156109d9575f936109a3575b506108e46001600160801b03936108de6108a8670de0b6b3a76400009487895116936116b5565b6108d9671bc16d674ec800006108be83806116b5565b046729a2241af62c00006108d284836116b5565b049261144b565b61144b565b906116b5565b0492826108fc6108f3866116c8565b828451166115ee565b1690528161091561090c856116c8565b828951166115ee565b1686525116908161092b575b89818080806103eb565b670de0b6b3a76400009161093e916116b5565b04610953816001600160801b03865116611372565b6001600160801b0383511691620f424083018093116107b957600182018092116107b957610993610998926104476001600160801b03956108f3946116b5565b6116c8565b169052888080610921565b92506020833d6020116109d1575b816109be60209383611241565b81010312610174579151916108e4610881565b3d91506109b1565b8c513d5f823e3d90fd5b5082516001600160a01b031615156103e6565b506001600160801b03858b01511615156103e0565b9250965060c0823d60c011610ac7575b81610a2860c09383611241565b81010312610174578b5160c081019281841067ffffffffffffffff851117610ab35760a0610aa7918f958652610a5d816115da565b8452610a6b602082016115da565b6020850152610a7b8682016115da565b86850152610a8b606082016115da565b6060850152610a9c608082016115da565b6080850152016115da565b60a0820152968e6103bc565b634e487b7160e01b5f52604160045260245ffd5b3d9150610a1b565b90503d805f833e610ae08183611241565b8101906020818303126101745780519067ffffffffffffffff821161017457019080601f8301121561017457815167ffffffffffffffff8111610ab3578d5192600582901b91610b336020840186611241565b845260208085019282010192831161017457602001905b828210610b5c57505050610387610375565b8151815260209182019101610b4a565b8251845285945060209384019390920191600101610354565b34610174575f366003190112610174576040517f00000000000000000000000000000000000000000000000000000000000000006001600160a01b03168152602090f35b346101745761012036600319011261017457610be36111e8565b60243567ffffffffffffffff811161017457610c0390369060040161127f565b610c0b6111fe565b90610c14611214565b916084359182151583036101745760603660a319011261017457610c3661122a565b92610ee5575b610c4860a4358261137f565b610c5460c4358361137f565b917f00000000000000000000000000000000000000000000000000000000000000006001600160a01b031633036101655760405163fb04e17b60e01b81526001600160a01b038881166004830152602090829060249082907f0000000000000000000000000000000000000000000000000000000000000000165afa908115610e05575f91610eaa575b501561076f576001600160a01b038516938415610156578315610138576040516370a0823160e01b8152306004820152966001600160a01b039190911690602088602481855afa978815610e05575f98610e76575b506040516370a0823160e01b81523060048201526001600160a01b03919091169890926020846024818d5afa938415610e05575f94610e42575b505f8091610d7b84866114cd565b60208151910182855af1610d8d6113a9565b90156106ea575081610da3602092602494611580565b6040516370a0823160e01b815230600482015292839182905afa908115610e05575f91610e10575b506040516370a0823160e01b8152306004820152966020886024818c5afa978815610e05575f98610667575061062c929161062691611372565b6040513d5f823e3d90fd5b90506020813d602011610e3a575b81610e2b60209383611241565b81010312610174575188610dcb565b3d9150610e1e565b9093506020813d602011610e6e575b81610e5e60209383611241565b810103126101745751925f610d6d565b3d9150610e51565b9097506020813d602011610ea2575b81610e9260209383611241565b8101031261017457519689610d33565b3d9150610e85565b90506020813d602011610edd575b81610ec560209383611241565b81010312610174575180151581036101745788610cde565b3d9150610eb8565b6040516370a0823160e01b81523060048201526020816024816001600160a01b0387165afa908115610e05575f91610f89575b5060a435610f3182610f2a838661137f565b9285611430565b610f5460c435610f4d60018486610f48858a61137f565b611458565b9085611430565b60e4359081610f66575b505050610c3c565b6001610f7a91610f8194610f48858861137f565b9083611430565b858080610f5e565b90506020813d602011610fb3575b81610fa460209383611241565b81010312610174575186610f18565b3d9150610f97565b346101745761012036600319011261017457610fd56111e8565b60243567ffffffffffffffff811161017457610ff590369060040161127f565b610ffd6111fe565b90611006611214565b916084359160603660a31901126101745761101f61122a565b928061103f575b5061103360c4358261137f565b610c5460a4358361137f565b61104b9060a483611307565b85611026565b34610174575f366003190112610174576040517f00000000000000000000000000000000000000000000000000000000000000006001600160a01b03168152602090f35b34610174575f366003190112610174576040517f00000000000000000000000000000000000000000000000000000000000000006001600160a01b03168152602090f35b34610174576060366003190112610174576110f26111e8565b6024356001600160a01b03811690818103610174576044357f00000000000000000000000000000000000000000000000000000000000000006001600160a01b031633036101655780928015610156573014610147575f1981036111d557506040516370a0823160e01b81523060048201529091506020816024816001600160a01b0387165afa908115610e05575f916111a3575b50905b8161119157005b610018926001600160a01b03166112c5565b90506020813d6020116111cd575b816111be60209383611241565b81010312610174575183611187565b3d91506111b1565b61118a57631f2a200560e01b5f5260045ffd5b600435906001600160a01b038216820361017457565b604435906001600160a01b038216820361017457565b606435906001600160a01b038216820361017457565b61010435906001600160a01b038216820361017457565b90601f8019910116810190811067ffffffffffffffff821117610ab357604052565b67ffffffffffffffff8111610ab357601f01601f191660200190565b81601f820112156101745780359061129682611263565b926112a46040519485611241565b8284526020838301011161017457815f926020809301838601378301015290565b60405163a9059cbb60e01b60208201526001600160a01b03909216602483015260448083019390935291815261130591611300606483611241565b6113d8565b565b9060408135916113228561131b858761137f565b9486611430565b611341602082013561133a5f8689610f48858b61137f565b9086611430565b01359081611350575b50505050565b5f6113639161136995610f48858761137f565b91611430565b5f80808061134a565b919082039182116107b957565b8051601f1981019081116107b957821161139b57016020015190565b62ed0ab960e11b5f5260045ffd5b3d156113d3573d906113ba82611263565b916113c86040519384611241565b82523d5f602084013e565b606090565b905f602091828151910182855af115610e05575f513d61142757506001600160a01b0381163b155b6114075750565b635274afe760e01b5f9081526001600160a01b0391909116600452602490fd5b60011415611400565b8051601f1981019081116107b957821161139b570160200152565b919082018092116107b957565b9291611465818386611618565b9260048110156114b957600180911614918261148e575b505061148b925015159061144b565b90565b90809250156114a55761148b930915155f8061147c565b634e487b7160e01b5f52601260045260245ffd5b634e487b7160e01b5f52602160045260245ffd5b6040519060205f8184019463095ea7b360e01b865260018060a01b0316948560248601528119604486015260448552611507606486611241565b84519082855af15f513d8261155b575b50501561152357505050565b611300611305936040519063095ea7b360e01b602083015260248201525f604482015260448152611555606482611241565b826113d8565b90915061157857506001600160a01b0381163b15155b5f80611517565b600114611571565b6040519060205f8184019463095ea7b360e01b865260018060a01b03169485602486015281604486015260448552611507606486611241565b8051156115c65760200190565b634e487b7160e01b5f52603260045260245ffd5b51906001600160801b038216820361017457565b906001600160801b03809116911601906001600160801b0382116107b957565b81156114a5570490565b91818302915f19818509938380861095039480860395146116a857848311156116905790829109815f0382168092046002816003021880820260020302808202600203028082026002030280820260020302808202600203028091026002030293600183805f03040190848311900302920304170290565b82634e487b715f52156003026011186020526024601cfd5b50509061148b925061160e565b818102929181159184041417156107b957565b6040516116d6604082611241565b601481526020810190731b585e081d5a5b9d0c4c8e08195e18d95959195960621b82526001600160801b0383116117155750506001600160801b031690565b60449060405192839162461bcd60e51b8352602060048401525180918160248501528484015e5f828201840152601f01601f19168101030190fdfea2646970667358221220a250cede29318ffb125ee5dca0cafb5bb725813a7a86605d2310460b0bbaf19564736f6c634300081c0033","linkReferences":{}},"methodIdentifiers":{"AUGUSTUS_REGISTRY()":"3a829867","BUNDLER3()":"a317e4b5","MORPHO()":"3acb5624","buy(address,bytes,address,address,uint256,(uint256,uint256,uint256),address)":"60776d6e","buyMorphoDebt(address,bytes,address,(address,address,address,address,uint256),(uint256,uint256,uint256),address,address)":"db8a5d09","erc20Transfer(address,address,uint256)":"3790767d","nativeTransfer(address,uint256)":"f2522bcd","sell(address,bytes,address,address,bool,(uint256,uint256,uint256),address)":"678215ac"},"storageLayout":{"storage":[],"types":{}},"id":32}