{"abi":[{"type":"constructor","inputs":[{"name":"_mmrRoot","type":"bytes32","internalType":"bytes32"},{"name":"_depositToken","type":"address","internalType":"address"},{"name":"_circuitVerificationKey","type":"bytes32","internalType":"bytes32"},{"name":"_verifier","type":"address","internalType":"address"},{"name":"_feeRouter","type":"address","internalType":"address"},{"name":"_tipBlockLeaf","type":"tuple","internalType":"struct Types.BlockLeaf","components":[{"name":"blockHash","type":"bytes32","internalType":"bytes32"},{"name":"height","type":"uint32","internalType":"uint32"},{"name":"cumulativeChainwork","type":"uint256","internalType":"uint256"}]}],"stateMutability":"nonpayable"},{"type":"function","name":"CIRCUIT_VERIFICATION_KEY","inputs":[],"outputs":[{"name":"","type":"bytes32","internalType":"bytes32"}],"stateMutability":"view"},{"type":"function","name":"DEPOSIT_TOKEN","inputs":[],"outputs":[{"name":"","type":"address","internalType":"contract IERC20"}],"stateMutability":"view"},{"type":"function","name":"FEE_ROUTER_ADDRESS","inputs":[],"outputs":[{"name":"","type":"address","internalType":"address"}],"stateMutability":"view"},{"type":"function","name":"TOKEN_DECIMALS","inputs":[],"outputs":[{"name":"","type":"uint8","internalType":"uint8"}],"stateMutability":"view"},{"type":"function","name":"VERIFIER","inputs":[],"outputs":[{"name":"","type":"address","internalType":"contract ISP1Verifier"}],"stateMutability":"view"},{"type":"function","name":"accumulatedFeeBalance","inputs":[],"outputs":[{"name":"","type":"uint256","internalType":"uint256"}],"stateMutability":"view"},{"type":"function","name":"checkpoints","inputs":[{"name":"","type":"bytes32","internalType":"bytes32"}],"outputs":[{"name":"established","type":"bool","internalType":"bool"},{"name":"tipBlockLeaf","type":"tuple","internalType":"struct Types.BlockLeaf","components":[{"name":"blockHash","type":"bytes32","internalType":"bytes32"},{"name":"height","type":"uint32","internalType":"uint32"},{"name":"cumulativeChainwork","type":"uint256","internalType":"uint256"}]}],"stateMutability":"view"},{"type":"function","name":"depositLiquidity","inputs":[{"name":"params","type":"tuple","internalType":"struct Types.DepositLiquidityParams","components":[{"name":"depositOwnerAddress","type":"address","internalType":"address"},{"name":"specifiedPayoutAddress","type":"address","internalType":"address"},{"name":"depositAmount","type":"uint256","internalType":"uint256"},{"name":"expectedSats","type":"uint64","internalType":"uint64"},{"name":"btcPayoutScriptPubKey","type":"bytes22","internalType":"bytes22"},{"name":"depositSalt","type":"bytes32","internalType":"bytes32"},{"name":"confirmationBlocks","type":"uint8","internalType":"uint8"},{"name":"safeBlockLeaf","type":"tuple","internalType":"struct Types.BlockLeaf","components":[{"name":"blockHash","type":"bytes32","internalType":"bytes32"},{"name":"height","type":"uint32","internalType":"uint32"},{"name":"cumulativeChainwork","type":"uint256","internalType":"uint256"}]},{"name":"safeBlockSiblings","type":"bytes32[]","internalType":"bytes32[]"},{"name":"safeBlockPeaks","type":"bytes32[]","internalType":"bytes32[]"}]}],"outputs":[],"stateMutability":"nonpayable"},{"type":"function","name":"depositLiquidityWithOverwrite","inputs":[{"name":"params","type":"tuple","internalType":"struct Types.DepositLiquidityWithOverwriteParams","components":[{"name":"depositParams","type":"tuple","internalType":"struct Types.DepositLiquidityParams","components":[{"name":"depositOwnerAddress","type":"address","internalType":"address"},{"name":"specifiedPayoutAddress","type":"address","internalType":"address"},{"name":"depositAmount","type":"uint256","internalType":"uint256"},{"name":"expectedSats","type":"uint64","internalType":"uint64"},{"name":"btcPayoutScriptPubKey","type":"bytes22","internalType":"bytes22"},{"name":"depositSalt","type":"bytes32","internalType":"bytes32"},{"name":"confirmationBlocks","type":"uint8","internalType":"uint8"},{"name":"safeBlockLeaf","type":"tuple","internalType":"struct Types.BlockLeaf","components":[{"name":"blockHash","type":"bytes32","internalType":"bytes32"},{"name":"height","type":"uint32","internalType":"uint32"},{"name":"cumulativeChainwork","type":"uint256","internalType":"uint256"}]},{"name":"safeBlockSiblings","type":"bytes32[]","internalType":"bytes32[]"},{"name":"safeBlockPeaks","type":"bytes32[]","internalType":"bytes32[]"}]},{"name":"overwriteVault","type":"tuple","internalType":"struct Types.DepositVault","components":[{"name":"vaultIndex","type":"uint256","internalType":"uint256"},{"name":"depositTimestamp","type":"uint64","internalType":"uint64"},{"name":"depositAmount","type":"uint256","internalType":"uint256"},{"name":"depositFee","type":"uint256","internalType":"uint256"},{"name":"expectedSats","type":"uint64","internalType":"uint64"},{"name":"btcPayoutScriptPubKey","type":"bytes22","internalType":"bytes22"},{"name":"specifiedPayoutAddress","type":"address","internalType":"address"},{"name":"ownerAddress","type":"address","internalType":"address"},{"name":"salt","type":"bytes32","internalType":"bytes32"},{"name":"confirmationBlocks","type":"uint8","internalType":"uint8"},{"name":"attestedBitcoinBlockHeight","type":"uint64","internalType":"uint64"}]}]}],"outputs":[],"stateMutability":"nonpayable"},{"type":"function","name":"getLightClientHeight","inputs":[],"outputs":[{"name":"","type":"uint32","internalType":"uint32"}],"stateMutability":"view"},{"type":"function","name":"getSwapCommitment","inputs":[{"name":"swapIndex","type":"uint256","internalType":"uint256"}],"outputs":[{"name":"","type":"bytes32","internalType":"bytes32"}],"stateMutability":"view"},{"type":"function","name":"getSwapCommitmentsLength","inputs":[],"outputs":[{"name":"","type":"uint256","internalType":"uint256"}],"stateMutability":"view"},{"type":"function","name":"getVaultCommitment","inputs":[{"name":"vaultIndex","type":"uint256","internalType":"uint256"}],"outputs":[{"name":"","type":"bytes32","internalType":"bytes32"}],"stateMutability":"view"},{"type":"function","name":"getVaultCommitmentsLength","inputs":[],"outputs":[{"name":"","type":"uint256","internalType":"uint256"}],"stateMutability":"view"},{"type":"function","name":"mmrRoot","inputs":[],"outputs":[{"name":"","type":"bytes32","internalType":"bytes32"}],"stateMutability":"view"},{"type":"function","name":"payoutToFeeRouter","inputs":[],"outputs":[],"stateMutability":"nonpayable"},{"type":"function","name":"proveBlockInclusion","inputs":[{"name":"blockLeaf","type":"tuple","internalType":"struct Types.BlockLeaf","components":[{"name":"blockHash","type":"bytes32","internalType":"bytes32"},{"name":"height","type":"uint32","internalType":"uint32"},{"name":"cumulativeChainwork","type":"uint256","internalType":"uint256"}]},{"name":"siblings","type":"bytes32[]","internalType":"bytes32[]"},{"name":"peaks","type":"bytes32[]","internalType":"bytes32[]"}],"outputs":[{"name":"","type":"bool","internalType":"bool"}],"stateMutability":"view"},{"type":"function","name":"releaseLiquidityBatch","inputs":[{"name":"paramsArray","type":"tuple[]","internalType":"struct Types.ReleaseLiquidityParams[]","components":[{"name":"swap","type":"tuple","internalType":"struct Types.ProposedSwap","components":[{"name":"swapIndex","type":"uint256","internalType":"uint256"},{"name":"depositVaultCommitment","type":"bytes32","internalType":"bytes32"},{"name":"swapBitcoinBlockHash","type":"bytes32","internalType":"bytes32"},{"name":"confirmationBlocks","type":"uint8","internalType":"uint8"},{"name":"liquidityUnlockTimestamp","type":"uint64","internalType":"uint64"},{"name":"specifiedPayoutAddress","type":"address","internalType":"address"},{"name":"totalSwapFee","type":"uint256","internalType":"uint256"},{"name":"totalSwapOutput","type":"uint256","internalType":"uint256"},{"name":"state","type":"uint8","internalType":"enum Types.SwapState"}]},{"name":"swapBlockChainwork","type":"uint256","internalType":"uint256"},{"name":"swapBlockHeight","type":"uint32","internalType":"uint32"},{"name":"bitcoinSwapBlockSiblings","type":"bytes32[]","internalType":"bytes32[]"},{"name":"bitcoinSwapBlockPeaks","type":"bytes32[]","internalType":"bytes32[]"},{"name":"utilizedVault","type":"tuple","internalType":"struct Types.DepositVault","components":[{"name":"vaultIndex","type":"uint256","internalType":"uint256"},{"name":"depositTimestamp","type":"uint64","internalType":"uint64"},{"name":"depositAmount","type":"uint256","internalType":"uint256"},{"name":"depositFee","type":"uint256","internalType":"uint256"},{"name":"expectedSats","type":"uint64","internalType":"uint64"},{"name":"btcPayoutScriptPubKey","type":"bytes22","internalType":"bytes22"},{"name":"specifiedPayoutAddress","type":"address","internalType":"address"},{"name":"ownerAddress","type":"address","internalType":"address"},{"name":"salt","type":"bytes32","internalType":"bytes32"},{"name":"confirmationBlocks","type":"uint8","internalType":"uint8"},{"name":"attestedBitcoinBlockHeight","type":"uint64","internalType":"uint64"}]},{"name":"tipBlockHeight","type":"uint32","internalType":"uint32"}]}],"outputs":[],"stateMutability":"nonpayable"},{"type":"function","name":"submitBatchSwapProof","inputs":[{"name":"swapParams","type":"tuple[]","internalType":"struct Types.SubmitSwapProofParams[]","components":[{"name":"swapBitcoinTxid","type":"bytes32","internalType":"bytes32"},{"name":"vault","type":"tuple","internalType":"struct Types.DepositVault","components":[{"name":"vaultIndex","type":"uint256","internalType":"uint256"},{"name":"depositTimestamp","type":"uint64","internalType":"uint64"},{"name":"depositAmount","type":"uint256","internalType":"uint256"},{"name":"depositFee","type":"uint256","internalType":"uint256"},{"name":"expectedSats","type":"uint64","internalType":"uint64"},{"name":"btcPayoutScriptPubKey","type":"bytes22","internalType":"bytes22"},{"name":"specifiedPayoutAddress","type":"address","internalType":"address"},{"name":"ownerAddress","type":"address","internalType":"address"},{"name":"salt","type":"bytes32","internalType":"bytes32"},{"name":"confirmationBlocks","type":"uint8","internalType":"uint8"},{"name":"attestedBitcoinBlockHeight","type":"uint64","internalType":"uint64"}]},{"name":"storageStrategy","type":"uint8","internalType":"enum Types.StorageStrategy"},{"name":"localOverwriteIndex","type":"uint16","internalType":"uint16"},{"name":"swapBitcoinBlockLeaf","type":"tuple","internalType":"struct Types.BlockLeaf","components":[{"name":"blockHash","type":"bytes32","internalType":"bytes32"},{"name":"height","type":"uint32","internalType":"uint32"},{"name":"cumulativeChainwork","type":"uint256","internalType":"uint256"}]},{"name":"swapBitcoinBlockSiblings","type":"bytes32[]","internalType":"bytes32[]"},{"name":"swapBitcoinBlockPeaks","type":"bytes32[]","internalType":"bytes32[]"}]},{"name":"overwriteSwaps","type":"tuple[]","internalType":"struct Types.ProposedSwap[]","components":[{"name":"swapIndex","type":"uint256","internalType":"uint256"},{"name":"depositVaultCommitment","type":"bytes32","internalType":"bytes32"},{"name":"swapBitcoinBlockHash","type":"bytes32","internalType":"bytes32"},{"name":"confirmationBlocks","type":"uint8","internalType":"uint8"},{"name":"liquidityUnlockTimestamp","type":"uint64","internalType":"uint64"},{"name":"specifiedPayoutAddress","type":"address","internalType":"address"},{"name":"totalSwapFee","type":"uint256","internalType":"uint256"},{"name":"totalSwapOutput","type":"uint256","internalType":"uint256"},{"name":"state","type":"uint8","internalType":"enum Types.SwapState"}]},{"name":"proof","type":"bytes","internalType":"bytes"}],"outputs":[],"stateMutability":"nonpayable"},{"type":"function","name":"submitBatchSwapProofWithLightClientUpdate","inputs":[{"name":"swapParams","type":"tuple[]","internalType":"struct Types.SubmitSwapProofParams[]","components":[{"name":"swapBitcoinTxid","type":"bytes32","internalType":"bytes32"},{"name":"vault","type":"tuple","internalType":"struct Types.DepositVault","components":[{"name":"vaultIndex","type":"uint256","internalType":"uint256"},{"name":"depositTimestamp","type":"uint64","internalType":"uint64"},{"name":"depositAmount","type":"uint256","internalType":"uint256"},{"name":"depositFee","type":"uint256","internalType":"uint256"},{"name":"expectedSats","type":"uint64","internalType":"uint64"},{"name":"btcPayoutScriptPubKey","type":"bytes22","internalType":"bytes22"},{"name":"specifiedPayoutAddress","type":"address","internalType":"address"},{"name":"ownerAddress","type":"address","internalType":"address"},{"name":"salt","type":"bytes32","internalType":"bytes32"},{"name":"confirmationBlocks","type":"uint8","internalType":"uint8"},{"name":"attestedBitcoinBlockHeight","type":"uint64","internalType":"uint64"}]},{"name":"storageStrategy","type":"uint8","internalType":"enum Types.StorageStrategy"},{"name":"localOverwriteIndex","type":"uint16","internalType":"uint16"},{"name":"swapBitcoinBlockLeaf","type":"tuple","internalType":"struct Types.BlockLeaf","components":[{"name":"blockHash","type":"bytes32","internalType":"bytes32"},{"name":"height","type":"uint32","internalType":"uint32"},{"name":"cumulativeChainwork","type":"uint256","internalType":"uint256"}]},{"name":"swapBitcoinBlockSiblings","type":"bytes32[]","internalType":"bytes32[]"},{"name":"swapBitcoinBlockPeaks","type":"bytes32[]","internalType":"bytes32[]"}]},{"name":"blockProofParams","type":"tuple","internalType":"struct Types.BlockProofParams","components":[{"name":"priorMmrRoot","type":"bytes32","internalType":"bytes32"},{"name":"newMmrRoot","type":"bytes32","internalType":"bytes32"},{"name":"compressedBlockLeaves","type":"bytes","internalType":"bytes"},{"name":"tipBlockLeaf","type":"tuple","internalType":"struct Types.BlockLeaf","components":[{"name":"blockHash","type":"bytes32","internalType":"bytes32"},{"name":"height","type":"uint32","internalType":"uint32"},{"name":"cumulativeChainwork","type":"uint256","internalType":"uint256"}]}]},{"name":"overwriteSwaps","type":"tuple[]","internalType":"struct Types.ProposedSwap[]","components":[{"name":"swapIndex","type":"uint256","internalType":"uint256"},{"name":"depositVaultCommitment","type":"bytes32","internalType":"bytes32"},{"name":"swapBitcoinBlockHash","type":"bytes32","internalType":"bytes32"},{"name":"confirmationBlocks","type":"uint8","internalType":"uint8"},{"name":"liquidityUnlockTimestamp","type":"uint64","internalType":"uint64"},{"name":"specifiedPayoutAddress","type":"address","internalType":"address"},{"name":"totalSwapFee","type":"uint256","internalType":"uint256"},{"name":"totalSwapOutput","type":"uint256","internalType":"uint256"},{"name":"state","type":"uint8","internalType":"enum Types.SwapState"}]},{"name":"proof","type":"bytes","internalType":"bytes"}],"outputs":[],"stateMutability":"nonpayable"},{"type":"function","name":"swapCommitments","inputs":[{"name":"","type":"uint256","internalType":"uint256"}],"outputs":[{"name":"","type":"bytes32","internalType":"bytes32"}],"stateMutability":"view"},{"type":"function","name":"updateLightClient","inputs":[{"name":"blockProofParams","type":"tuple","internalType":"struct Types.BlockProofParams","components":[{"name":"priorMmrRoot","type":"bytes32","internalType":"bytes32"},{"name":"newMmrRoot","type":"bytes32","internalType":"bytes32"},{"name":"compressedBlockLeaves","type":"bytes","internalType":"bytes"},{"name":"tipBlockLeaf","type":"tuple","internalType":"struct Types.BlockLeaf","components":[{"name":"blockHash","type":"bytes32","internalType":"bytes32"},{"name":"height","type":"uint32","internalType":"uint32"},{"name":"cumulativeChainwork","type":"uint256","internalType":"uint256"}]}]},{"name":"proof","type":"bytes","internalType":"bytes"}],"outputs":[],"stateMutability":"nonpayable"},{"type":"function","name":"vaultCommitments","inputs":[{"name":"","type":"uint256","internalType":"uint256"}],"outputs":[{"name":"","type":"bytes32","internalType":"bytes32"}],"stateMutability":"view"},{"type":"function","name":"withdrawLiquidity","inputs":[{"name":"vault","type":"tuple","internalType":"struct Types.DepositVault","components":[{"name":"vaultIndex","type":"uint256","internalType":"uint256"},{"name":"depositTimestamp","type":"uint64","internalType":"uint64"},{"name":"depositAmount","type":"uint256","internalType":"uint256"},{"name":"depositFee","type":"uint256","internalType":"uint256"},{"name":"expectedSats","type":"uint64","internalType":"uint64"},{"name":"btcPayoutScriptPubKey","type":"bytes22","internalType":"bytes22"},{"name":"specifiedPayoutAddress","type":"address","internalType":"address"},{"name":"ownerAddress","type":"address","internalType":"address"},{"name":"salt","type":"bytes32","internalType":"bytes32"},{"name":"confirmationBlocks","type":"uint8","internalType":"uint8"},{"name":"attestedBitcoinBlockHeight","type":"uint64","internalType":"uint64"}]}],"outputs":[],"stateMutability":"nonpayable"},{"type":"event","name":"BitcoinLightClientUpdated","inputs":[{"name":"priorMmrRoot","type":"bytes32","indexed":false,"internalType":"bytes32"},{"name":"newMmrRoot","type":"bytes32","indexed":false,"internalType":"bytes32"},{"name":"compressedBlockLeaves","type":"bytes","indexed":false,"internalType":"bytes"}],"anonymous":false},{"type":"event","name":"SwapsUpdated","inputs":[{"name":"swaps","type":"tuple[]","indexed":false,"internalType":"struct Types.ProposedSwap[]","components":[{"name":"swapIndex","type":"uint256","internalType":"uint256"},{"name":"depositVaultCommitment","type":"bytes32","internalType":"bytes32"},{"name":"swapBitcoinBlockHash","type":"bytes32","internalType":"bytes32"},{"name":"confirmationBlocks","type":"uint8","internalType":"uint8"},{"name":"liquidityUnlockTimestamp","type":"uint64","internalType":"uint64"},{"name":"specifiedPayoutAddress","type":"address","internalType":"address"},{"name":"totalSwapFee","type":"uint256","internalType":"uint256"},{"name":"totalSwapOutput","type":"uint256","internalType":"uint256"},{"name":"state","type":"uint8","internalType":"enum Types.SwapState"}]},{"name":"context","type":"uint8","indexed":false,"internalType":"enum Types.SwapUpdateContext"}],"anonymous":false},{"type":"event","name":"VaultsUpdated","inputs":[{"name":"vaults","type":"tuple[]","indexed":false,"internalType":"struct Types.DepositVault[]","components":[{"name":"vaultIndex","type":"uint256","internalType":"uint256"},{"name":"depositTimestamp","type":"uint64","internalType":"uint64"},{"name":"depositAmount","type":"uint256","internalType":"uint256"},{"name":"depositFee","type":"uint256","internalType":"uint256"},{"name":"expectedSats","type":"uint64","internalType":"uint64"},{"name":"btcPayoutScriptPubKey","type":"bytes22","internalType":"bytes22"},{"name":"specifiedPayoutAddress","type":"address","internalType":"address"},{"name":"ownerAddress","type":"address","internalType":"address"},{"name":"salt","type":"bytes32","internalType":"bytes32"},{"name":"confirmationBlocks","type":"uint8","internalType":"uint8"},{"name":"attestedBitcoinBlockHeight","type":"uint64","internalType":"uint64"}]},{"name":"context","type":"uint8","indexed":false,"internalType":"enum Types.VaultUpdateContext"}],"anonymous":false},{"type":"error","name":"CannotOverwriteOngoingSwap","inputs":[]},{"type":"error","name":"ChainworkTooLow","inputs":[]},{"type":"error","name":"CheckpointNotEstablished","inputs":[]},{"type":"error","name":"DepositAmountTooLow","inputs":[]},{"type":"error","name":"DepositStillLocked","inputs":[]},{"type":"error","name":"DepositVaultDoesNotExist","inputs":[]},{"type":"error","name":"DepositVaultNotOverwritable","inputs":[]},{"type":"error","name":"EmptyDepositVault","inputs":[]},{"type":"error","name":"InvalidBlockInclusionProof","inputs":[]},{"type":"error","name":"InvalidConfirmationBlockDelta","inputs":[]},{"type":"error","name":"InvalidScriptPubKey","inputs":[]},{"type":"error","name":"InvalidSwapBlockInclusionProof","inputs":[]},{"type":"error","name":"InvalidVaultCommitment","inputs":[]},{"type":"error","name":"NoFeeToPay","inputs":[]},{"type":"error","name":"NoSwapsToSubmit","inputs":[]},{"type":"error","name":"SatOutputTooLow","inputs":[]},{"type":"error","name":"StillInChallengePeriod","inputs":[]},{"type":"error","name":"SwapDoesNotExist","inputs":[]},{"type":"error","name":"SwapNotProved","inputs":[]},{"type":"error","name":"TransferFailed","inputs":[]}],"bytecode":{"object":"0x61012080604052346102235780612c6d803803809161001e828561024e565b83398101039061010082126102235780519061003c60208201610271565b9160408201519161004f60608201610271565b93606061005e60808401610271565b96609f1901126102235760405191606083016001600160401b0381118482101761023a5760405260a0810151835260c08101519063ffffffff821682036102235760e091602085015201516040830152825f55604051604081019381851060018060401b0386111761023a5760406020946003926004978352600185528685019182525f5260018652815f209351151560ff8019865416911617845551805160018501556002840163ffffffff878301511663ffffffff19825416179055015191015560018060a01b0316806080526040519283809263313ce56760e01b82525afa90811561022f575f916101ef575b5060a05260c0526001600160a01b031660e052610100526040516129e7908161028682396080518181816101b801528181610727015281816112ef0152818161143401526127e3015260a05181610b6b015260c0518181816105130152818161063001528181610cf1015261108c015260e05181818161048f01528181610c1201528181611011015261147501526101005181818161017c01526106690152f35b90506020813d602011610227575b8161020a6020938361024e565b81010312610223575160ff81168103610223575f61014e565b5f80fd5b3d91506101fd565b6040513d5f823e3d90fd5b634e487b7160e01b5f52604160045260245ffd5b601f909101601f19168101906001600160401b0382119082101761023a57604052565b51906001600160a01b03821682036102235756fe60a0806040526004361015610012575f80fd5b5f905f3560e01c90816308c84e70146114635750806313f665871461141f57806316a6db20146111585780631cbeebeb1461111b5780631f1a490814610ee0578063365df23314610eb55780634276994614610deb57806348678e0614610d93578063592b664914610b8f5780635b7f415c14610b515780637688e1bc146106b75780637ed34a3614610698578063898aeacb146106535780638d5ca05214610618578063992284a6146105fa5780639f63bd97146105db578063a6a0f96e146105a1578063c18969381461037c578063ca18100d1461035e578063d21ddc6114610341578063d6d51459146102b5578063eb5e91ff14610251578063f23a94a9146101465763f5095c1614610126575f80fd5b346101435780600319360112610143576020600254604051908152f35b80fd5b5034610143578060031936011261014357600454801561024257600482815560405163a9059cbb60e01b81526001600160a01b037f00000000000000000000000000000000000000000000000000000000000000001691810191909152602481019190915260208180604481010381857f00000000000000000000000000000000000000000000000000000000000000006001600160a01b03165af1908115610237578291610208575b50156101f95780f35b6312171d8360e31b8152600490fd5b61022a915060203d602011610230575b6102228183611628565b810190611820565b5f6101f0565b503d610218565b6040513d84823e3d90fd5b630fbcad4560e21b8252600482fd5b503461014357602036600319011261014357604060809160043581526001602052206102b3610287600160ff84541693016116bd565b60405192151583526020830190604080918051845263ffffffff60208201511660208501520151910152565bf35b5034610143576102c436611689565b60208101908135813561017e198336030181121561033d57826102ee836060936102f69601612513565b949095611e0e565b50013561032e5761032b929161030e61032692611532565b90919082549060031b91821b915f19901b1916179055565b612735565b80f35b630faaae6760e31b8452600484fd5b8480fd5b503461014357806003193601126101435760209054604051908152f35b50346101435780600319360112610143576020600454604051908152f35b503461014357606036600319011261014357806004356001600160401b03811161059e576103ae9036906004016114a4565b91906024356001600160401b03811161059a576103cf9036906004016114d4565b604435906001600160401b03821161033d576104e2926103f661041b933690600401611505565b9790956104165f545f52600160205263ffffffff600260405f2001541690565b611f94565b60409591955161042a8161158b565b8581528560208201528560408201526060610443611b13565b9101526104f060405191610456836115ba565b868352866020840152866040840152604051926104728461158b565b878452876020850152876040850152606084015260018060a01b037f00000000000000000000000000000000000000000000000000000000000000001692604051916104bd836115ba565b6104c68961199c565b8883526020830152604082015260405194859160208301611b31565b03601f198101855284611628565b803b1561033d5761053b9385936040519586948593849363020a49e360e51b85527f000000000000000000000000000000000000000000000000000000000000000060048601611c10565b03915afa801561023757610581575b506040517fe8b89fd0756cdb35ef6d9ff605cca13c890bbd62d2befac12cdf4cf4d3e73a72908061057b8582611aab565b0390a180f35b8161058b91611628565b61059657815f61054a565b5080fd5b8280fd5b50fd5b503461014357602036600319011261014357600435906002548210156101435760206105cc83611532565b90549060031b1c604051908152f35b50346101435760203660031901126101435760206105cc600435611532565b50346101435780600319360112610143576020600354604051908152f35b503461014357806003193601126101435760206040517f00000000000000000000000000000000000000000000000000000000000000008152f35b50346101435780600319360112610143576040517f00000000000000000000000000000000000000000000000000000000000000006001600160a01b03168152602090f35b50346101435760203660031901126101435760206105cc60043561155e565b5034610143576020366003190112610143576004356001600160401b038111610596576106e89036906004016114a4565b906106f282611c54565b906106fc83611838565b9261070a6040519485611628565b808452601f1961071982611838565b01855b818110610b3a5750507f00000000000000000000000000000000000000000000000000000000000000006001600160a01b031691855b82811061085a575050505060405160408101604082528251809152602060608301930190855b81811061083957505050807fe8b89fd0756cdb35ef6d9ff605cca13c890bbd62d2befac12cdf4cf4d3e73a7292600160208301520390a160405160408101604082528251809152602060608301930190845b81811061081857505050807f5579c3d9c997c3d3dd2d9b6a31a7dfc0db5442568016ac9668714bea178a8a2892600260208301520390a180f35b634e487b7160e01b5f52602160045260245ffd5b90919360206101608261082e6001948951611901565b0195019291016107ca565b90919360206101208261084f6001948951611a2e565b019501929101610778565b61086d610868828585611cda565b612863565b5061010061087c828585611cda565b01356003811015610b36576001906108938161199c565b03610b27576001600160401b036108b660806108b0848787611cda565b016116eb565b164210610b18576108d46101a06108ce838686611cda565b01611e0e565b60206108e1838686611cda565b013503610b095761099660406108f8838686611cda565b013561091161014061090b858888611cda565b016119d8565b63ffffffff610120610924868989611cda565b01359160405193610934856115ba565b8452166020830152604082015261095a61094f848787611cda565b610160810190611cfd565b90610974610969868989611cda565b610180810190611cfd565b92909160ff61098f60606109898a8d8d611cda565b016116ff565b16946128a0565b6109ae366101a06109a8848787611cda565b01611743565b8760408201528760608201526109d06109c682611e27565b61030e8351611532565b6109da82886118ed565b526109e581876118ed565b506109fa366109f5838686611cda565b611d32565b6002610100820152610a22610a0e8261293e565b61030e610a1c858888611cda565b3561155e565b610a3c60c0610a32848787611cda565b0135600454611dc2565b600455610a976020610a5a60a0610a54868989611cda565b0161180c565b60e0610a67868989611cda565b60405163a9059cbb60e01b81526001600160a01b0390931660048401520135602482015291829081906044820190565b03818c8a5af1908115610afe578991610ae0575b5015610ad15790600191610abf82886118ed565b52610aca81876118ed565b5001610752565b6312171d8360e31b8852600488fd5b610af8915060203d8111610230576102228183611628565b5f610aab565b6040513d8b823e3d90fd5b63ceb1159d60e01b8752600487fd5b632d5c37f560e21b8752600487fd5b6322fc5d4360e21b8752600487fd5b8780fd5b602090610b4561184f565b8282890101520161071c565b5034610143578060031936011261014357602060405160ff7f0000000000000000000000000000000000000000000000000000000000000000168152f35b5034610143576040366003190112610143576004356001600160401b03811161059657806004019060c0600319823603011261059a576024356001600160401b038111610d8f57610be4903690600401611505565b90916044810185610bff610bf883886119a6565b36916119e9565b8051602090910120946001600160a01b037f00000000000000000000000000000000000000000000000000000000000000001694610c3c83611838565b95610c4a6040519788611628565b838752601f19610c5985611838565b01845b818110610d6d575050906104e291610cce8a3598606460248a013599019a60405190610c878261158b565b8b82528a60208301526040820152610c9f368d611649565b606082015260405191610cb1836115ba565b600183526020830152604082015260405194859160208301611b31565b803b1561033d57610d199385936040519586948593849363020a49e360e51b85527f000000000000000000000000000000000000000000000000000000000000000060048601611c10565b03915afa801561023757610d4c575b5061032b610d46868686610d3c878c6119a6565b9490933690611649565b91611e4f565b81610d5b919695949396611628565b610d6957909192855f610d28565b8580fd5b6020919293949550610d7d611b13565b82828b01015201908a94939291610c5c565b8380fd5b503461014357610dae610da536611689565b60025490612513565b600254600160401b811015610dd75761032b929161030e82600161032694016002556002611576565b634e487b7160e01b84526041600452602484fd5b503461014357366003190160a081126105965760601361014357604051610e11816115ba565b600435815260243563ffffffff8116810361059a57602082015260443560408201526064356001600160401b03811161059a57610e529036906004016114a4565b906084356001600160401b03811161033d579160209491610e7b610eab959436906004016114a4565b929091610ea3610e9e5f545f52600160205263ffffffff600260405f2001541690565b611afb565b9454956123e9565b6040519015158152f35b503461014357602036600319011261014357600435906003548210156101435760206105cc8361155e565b5034611117576080366003190112611117576004356001600160401b03811161111757610f119036906004016114a4565b6024356001600160401b03811161111757806004019260c06003198336030112611117576044356001600160401b03811161111757610f549036906004016114d4565b939092606435916001600160401b038311611117578692610f79903690600401611505565b949096843596602485013593606486019589604482019889610f9a916119a6565b9088610fa6368c611649565b90610fb094611e4f565b608401610fbc906119d8565b93610fc694611f94565b93610fd191986119a6565b3690610fdc926119e9565b805190602001209060405195610ff18761158b565b8652602086015260408501523661100791611649565b60608401526040517f00000000000000000000000000000000000000000000000000000000000000006001600160a01b03169190611044816115ba565b6104e29461106992600283526020830152604082015260405194859160208301611b31565b803b15611117576110b4935f936040519586948593849363020a49e360e51b85527f000000000000000000000000000000000000000000000000000000000000000060048601611c10565b03915afa801561110c576110f5575b5061057b7fe8b89fd0756cdb35ef6d9ff605cca13c890bbd62d2befac12cdf4cf4d3e73a729160405191829182611aab565b6111029192505f90611628565b5f9061057b6110c3565b6040513d5f823e3d90fd5b5f80fd5b34611117575f36600319011261111757602061114a5f545f52600160205263ffffffff600260405f2001541690565b63ffffffff60405191168152f35b34611117573660031901610160811261111757611173611dcf565b5060443590811561141057602435916001600160401b0383169182840361111757610124359260ff841680850361111757611c20029063ffffffff82169182036113fc57016001600160401b0381116113fc576001600160401b031642106113ed576101601361111757604051926111ea846115d5565b600435845260208401526040830190808252606084019260643584526084356001600160401b038116810361111757608086015260a43569ffffffffffffffffffff19811681036111175760a086015260c4356001600160a01b03811681036111175760c086015260e435906001600160a01b0382168203611117578160e08701526101043561010087015261012086015261014435926001600160401b0384168403611117576112ea945f80926020966101408a015252526112b96112af86611e27565b61030e8751611532565b60405163a9059cbb60e01b81526001600160a01b039091166004820152602481019190915291829081906044820190565b03815f7f00000000000000000000000000000000000000000000000000000000000000006001600160a01b03165af190811561110c575f916113ce575b50156113bf576113356118a0565b9061133f826118e0565b52611349816118e0565b50604051604081016040825282518091526020606083019301905f5b81811061139e57505050807f5579c3d9c997c3d3dd2d9b6a31a7dfc0db5442568016ac9668714bea178a8a2892600160208301520390a1005b9091936020610160826113b46001948951611901565b019501929101611365565b6312171d8360e31b5f5260045ffd5b6113e7915060203d602011610230576102228183611628565b82611327565b6301b512a960e21b5f5260045ffd5b634e487b7160e01b5f52601160045260245ffd5b637941e9ad60e01b5f5260045ffd5b34611117575f366003190112611117576040517f00000000000000000000000000000000000000000000000000000000000000006001600160a01b03168152602090f35b34611117575f366003190112611117577f00000000000000000000000000000000000000000000000000000000000000006001600160a01b03168152602090f35b9181601f84011215611117578235916001600160401b038311611117576020808501948460051b01011161111757565b9181601f84011215611117578235916001600160401b03831161111757602080850194610120850201011161111757565b9181601f84011215611117578235916001600160401b038311611117576020838186019501011161111757565b60025481101561154a5760025f5260205f2001905f90565b634e487b7160e01b5f52603260045260245ffd5b60035481101561154a5760035f5260205f2001905f90565b805482101561154a575f5260205f2001905f90565b608081019081106001600160401b038211176115a657604052565b634e487b7160e01b5f52604160045260245ffd5b606081019081106001600160401b038211176115a657604052565b61016081019081106001600160401b038211176115a657604052565b61012081019081106001600160401b038211176115a657604052565b604081019081106001600160401b038211176115a657604052565b90601f801991011681019081106001600160401b038211176115a657604052565b919082606091031261111757604051611661816115ba565b809280358252602081013563ffffffff81168103611117576020830152604090810135910152565b602060031982011261111757600435906001600160401b038211611117576101809082900360031901126111175760040190565b906040516116ca816115ba565b6040600282948054845263ffffffff60018201541660208501520154910152565b356001600160401b03811681036111175790565b3560ff811681036111175790565b35906001600160401b038216820361111757565b35906001600160a01b038216820361111757565b359060ff8216820361111757565b9190826101609103126111175760405161175c816115d5565b80928035825261176e6020820161170d565b602083015260408101356040830152606081013560608301526117936080820161170d565b608083015260a08101359069ffffffffffffffffffff19821682036111175761014061180791819360a08601526117cc60c08201611721565b60c08601526117dd60e08201611721565b60e08601526101008101356101008601526117fb6101208201611735565b6101208601520161170d565b910152565b356001600160a01b03811681036111175790565b90816020910312611117575180151581036111175790565b6001600160401b0381116115a65760051b60200190565b6040519061185c826115d5565b5f610140838281528260208201528260408201528260608201528260808201528260a08201528260c08201528260e082015282610100820152826101208201520152565b604080519091906118b18382611628565b6001815291601f1901825f5b8281106118c957505050565b6020906118d461184f565b828285010152016118bd565b80511561154a5760200190565b805182101561154a5760209160051b010190565b6001600160401b03610140809280518552826020820151166020860152604081015160408601526060810151606086015282608082015116608086015269ffffffffffffffffffff1960a08201511660a086015260018060a01b0360c08201511660c086015260018060a01b0360e08201511660e086015261010081015161010086015260ff61012082015116610120860152015116910152565b6003111561080457565b903590601e198136030182121561111757018035906001600160401b0382116111175760200191813603831361111757565b3563ffffffff811681036111175790565b9291926001600160401b0382116115a65760405191611a12601f8201601f191660200184611628565b829481845281830111611117578281602093845f960137010152565b610100809180518452602081015160208501526040810151604085015260ff60608201511660608501526001600160401b03608082015116608085015260018060a01b0360a08201511660a085015260c081015160c085015260e081015160e0850152015191611a9d8361199c565b0152565b6002111561080457565b9190604083016040845281518091526020606085019201905f5b818110611ada5750919391505060205f910152565b909192602061012082611af06001948851611a2e565b019401929101611ac5565b63ffffffff60019116019063ffffffff82116113fc57565b60405190611b20826115ba565b5f6040838281528260208201520152565b602081526101208101918051611b468161199c565b602083015260208101519261010060408401528351809152602061014084019401905f5b818110611bc2575050509060c060606040611bbf94015180518285015260208101516080850152604081015160a08501520151910190604080918051845263ffffffff60208201511660208501520151910152565b90565b9091946020606060019260408951805183528481015185840152015160408201520196019101919091611b6a565b908060209392818452848401375f828201840152601f01601f1916010190565b6020611bbf959360809383526060828401528051918291826060860152018484015e5f838284010152601f8019910116810190604083828403019101520191611bf0565b90611c5e82611838565b611c6b6040519182611628565b8281528092611c7c601f1991611838565b01905f5b828110611c8c57505050565b602090604051611c9b816115f1565b5f81525f838201525f60408201525f60608201525f60808201525f60a08201525f60c08201525f60e08201525f61010082015282828501015201611c80565b919081101561154a5760051b8101359061031e1981360301821215611117570190565b903590601e198136030182121561111757018035906001600160401b03821161111757602001918160051b3603831361111757565b91908261012091031261111757604051611d4b816115f1565b6101008193803583526020810135602084015260408101356040840152611d7460608201611735565b6060840152611d856080820161170d565b6080840152611d9660a08201611721565b60a084015260c081013560c084015260e081013560e08401520135906003821015611117576101000152565b919082018092116113fc57565b611de2611ddd366004611743565b611e27565b611def6004356002611576565b90549060031b1c8103611dff5790565b63cd1d240d60e01b5f5260045ffd5b611def611e1e611ddd3684611743565b91356002611576565b604051611e38602082018093611901565b6101608152611e4961018082611628565b51902090565b9190925f548414611f6d57825f52600160205260405f20611e87600160405192611e788461160d565b60ff81541615158452016116bd565b90602081019182525115611f5e57604090510151604083015110611f4f577f6768baae39ee0e687f7c44f7006a147b15ffb56031969140096fe95461eea2fd94611f4a9260036040805192611edb8461160d565b6001845260208401908152885f526001602052815f209351151560ff8019865416911617845551805160018501556002840163ffffffff60208301511663ffffffff198254161790550151910155845f5560405194859485526020850152606060408501526060840191611bf0565b0390a1565b6307800bf560e21b5f5260045ffd5b63e1965c6560e01b5f5260045ffd5b5050505050565b3561ffff811681036111175790565b919081101561154a57610120020190565b9093919360805283156123ca57611faa84611838565b611fb76040519182611628565b848152601f19611fc686611838565b015f5b8181106123b35750508091611fdd86611c54565b92600354975f985b888a10156123a75780998060051b608051013561025e1960805136030181121561111757600261018082608051010135101592836111175761202f61018083608051010135611aa1565b60805182016101800135612304575f1981146113fc576001019b5b602082608051010161205c3682611743565b606060408201519101908151918260011b92808404600214901517156113fc576120919161208b915190612506565b92611e0e565b8a6121346101c08760805101016120d5898235946040516120b1816115ba565b8b608051013581528660208201528760408201526120cf83836118ed565b526118ed565b5061212f6120ef6102208a60805101018a60805101611cfd565b608051919391612106908c01610240810190611cfd565b916101408d60805101019560ff61212761211f896116ff565b963690611649565b9516946128a0565b6116ff565b6001600160401b0361214d6101608960805101016116eb565b1663ffffffff8d16036001600160401b0381116113fc576001600160401b03166085026001600160401b0381169081036113fc5761e3b3016001600160401b0381116113fc576001600160401b036103e88161012c9316041601906001600160401b0382116113fc576001600160401b036121cc8160ff941642611dc2565b16926121de60e08a608051010161180c565b94604051986121ec8a6115f1565b89526020890152604088015216606086015260808501526001600160a01b031660a084015260c083015260e0820152600161010082015261222d838a6118ed565b5261223882896118ed565b5061224c612246838a6118ed565b5161293e565b9261111757888a9161226661018082608051010135611aa1565b608051810161018001356122a457505050600354600160401b8110156115a65760019261030e828561229d94016003556003611576565b0198611fe5565b90600194916122bb61018082608051010135611aa1565b8561018082608051010135146122d5575b5050505061229d565b6122fb9361030e9261ffff6122f46101a0610a1c956080510101611f74565b1691611f83565b885f89816122cc565b9b92505f9261231b61018083608051010135611aa1565b6001610180836080510101350361204a57506101a081608051010161234a6108688c8c61ffff6122f486611f74565b5061010061235f8c8c61ffff6122f486611f74565b01356003811015611117576002906123768161199c565b036123985761ffff61238a61239292611f74565b168a8c611f83565b3561204a565b63a5f611fd60e01b5f5260045ffd5b50955095505050935050565b6020906123be611b13565b82828601015201611fc9565b6308d98c4f60e01b5f5260045ffd5b919081101561154a5760051b0190565b919093929363ffffffff61242084516020860195604084885116910151919091606092604051928352602083015260408201522090565b935116905f925b80841061249d57505050505f905f5b838110612477575b50501561246f5761244e91612960565b9081156124685763ffffffff165f5260205260405f201490565b5050505f90565b505050505f90565b816124838286886123d9565b351461249157600101612436565b50505060015f8061243e565b9293600183811c9492938116036124d0576124b98583856123d9565b355f52602052600160405f20945b01929190612427565b6124db8583856123d9565b35905f52602052600160405f20946124c7565b3569ffffffffffffffffffff19811681036111175790565b919082039182116113fc57565b91909161251e61184f565b5060408101356107d181106127265760608201906103e86001600160401b03612546846116eb565b161061271757608083019261255a846124ee565b5f81901a60f81b6001600160f81b0319161590816126f9575b50156126ea576125d161258a610140830183611cfd565b90612599610160850185611cfd565b906125a73660e08801611649565b936125c8610e9e5f545f52600160205263ffffffff600260405f2001541690565b935f54956123e9565b156126db576005820291808304600514811517156113fc5763ffffffff9461261261260c61260661271060ff97048095612506565b966116eb565b916124ee565b61261e6020850161180c565b906001600160401b036126308661180c565b93612654468d60a08a01359091606092604051928352602083015260408201522090565b9561266e61010061266760c08b016116ff565b99016119d8565b99604080519e8f9061267f826115d5565b81524286166020820152015260608d01521660808b015269ffffffffffffffffffff191660a08a01526001600160a01b0390811660c08a01521660e08801526101008701521661012085015216610140830152611bbf82611e27565b634784fd3160e01b5f5260045ffd5b63fad7db0760e01b5f5260045ffd5b60011a60f81b6001600160f81b031916600560fa1b1490505f612573565b63fde5943160e01b5f5260045ffd5b6355fcd02760e01b5f5260045ffd5b61273d6118a0565b9080612748836118e0565b52612752826118e0565b5060405191604083016040845281518091526020606085019201905f5b8181106128425750505082807f5579c3d9c997c3d3dd2d9b6a31a7dfc0db5442568016ac9668714bea178a8a28925f60206127b99701520390a16060604082015191015190611dc2565b6040516323b872dd60e01b815233600482015230602482015260448101919091526020816064815f7f00000000000000000000000000000000000000000000000000000000000000006001600160a01b03165af190811561110c575f91612823575b50156113bf57565b61283c915060203d602011610230576102228183611628565b5f61281b565b9091926020610160826128586001948851611901565b01940192910161276f565b6128816128786128733684611d32565b61293e565b91356003611576565b90549060031b1c81036128915790565b631a40316d60e01b5f5260045ffd5b94936128d3939291926128c9610e9e5f545f52600160205263ffffffff600260405f2001541690565b925f5494886123e9565b1561292f5763ffffffff8060206128fd5f545f52600160205263ffffffff600260405f2001541690565b9401511691160163ffffffff81116113fc5763ffffffff80911691161061292057565b638e082f6760e01b5f5260045ffd5b637344e0b760e01b5f5260045ffd5b60405161294f602082018093611a2e565b6101208152611e4961014082611628565b81156129ab575f198201918083116113fc5761297d8382846123d9565b3592805b61298b5750505090565b5f19019261299a8483856123d9565b355f526020528260405f2093612981565b50505f9056fea264697066735822122083700a57e95a0f5ebf2f646bdb931dd25ef94f3a75044a3296f2e7663b1839b964736f6c634300081c0033","linkReferences":{}},"methodIdentifiers":{"CIRCUIT_VERIFICATION_KEY()":"8d5ca052","DEPOSIT_TOKEN()":"13f66587","FEE_ROUTER_ADDRESS()":"898aeacb","TOKEN_DECIMALS()":"5b7f415c","VERIFIER()":"08c84e70","accumulatedFeeBalance()":"ca18100d","checkpoints(bytes32)":"eb5e91ff","depositLiquidity((address,address,uint256,uint64,bytes22,bytes32,uint8,(bytes32,uint32,uint256),bytes32[],bytes32[]))":"48678e06","depositLiquidityWithOverwrite(((address,address,uint256,uint64,bytes22,bytes32,uint8,(bytes32,uint32,uint256),bytes32[],bytes32[]),(uint256,uint64,uint256,uint256,uint64,bytes22,address,address,bytes32,uint8,uint64)))":"d6d51459","getLightClientHeight()":"1cbeebeb","getSwapCommitment(uint256)":"7ed34a36","getSwapCommitmentsLength()":"992284a6","getVaultCommitment(uint256)":"9f63bd97","getVaultCommitmentsLength()":"f5095c16","mmrRoot()":"d21ddc61","payoutToFeeRouter()":"f23a94a9","proveBlockInclusion((bytes32,uint32,uint256),bytes32[],bytes32[])":"42769946","releaseLiquidityBatch(((uint256,bytes32,bytes32,uint8,uint64,address,uint256,uint256,uint8),uint256,uint32,bytes32[],bytes32[],(uint256,uint64,uint256,uint256,uint64,bytes22,address,address,bytes32,uint8,uint64),uint32)[])":"7688e1bc","submitBatchSwapProof((bytes32,(uint256,uint64,uint256,uint256,uint64,bytes22,address,address,bytes32,uint8,uint64),uint8,uint16,(bytes32,uint32,uint256),bytes32[],bytes32[])[],(uint256,bytes32,bytes32,uint8,uint64,address,uint256,uint256,uint8)[],bytes)":"c1896938","submitBatchSwapProofWithLightClientUpdate((bytes32,(uint256,uint64,uint256,uint256,uint64,bytes22,address,address,bytes32,uint8,uint64),uint8,uint16,(bytes32,uint32,uint256),bytes32[],bytes32[])[],(bytes32,bytes32,bytes,(bytes32,uint32,uint256)),(uint256,bytes32,bytes32,uint8,uint64,address,uint256,uint256,uint8)[],bytes)":"1f1a4908","swapCommitments(uint256)":"365df233","updateLightClient((bytes32,bytes32,bytes,(bytes32,uint32,uint256)),bytes)":"592b6649","vaultCommitments(uint256)":"a6a0f96e","withdrawLiquidity((uint256,uint64,uint256,uint256,uint64,bytes22,address,address,bytes32,uint8,uint64))":"16a6db20"},"storageLayout":{"storage":[{"astId":42264,"contract":"src/RiftExchange.sol:RiftExchange","label":"mmrRoot","offset":0,"slot":"0","type":"t_bytes32"},{"astId":42269,"contract":"src/RiftExchange.sol:RiftExchange","label":"checkpoints","offset":0,"slot":"1","type":"t_mapping(t_bytes32,t_struct(BitcoinCheckpoint)44470_storage)"},{"astId":42493,"contract":"src/RiftExchange.sol:RiftExchange","label":"vaultCommitments","offset":0,"slot":"2","type":"t_array(t_bytes32)dyn_storage"},{"astId":42496,"contract":"src/RiftExchange.sol:RiftExchange","label":"swapCommitments","offset":0,"slot":"3","type":"t_array(t_bytes32)dyn_storage"},{"astId":42498,"contract":"src/RiftExchange.sol:RiftExchange","label":"accumulatedFeeBalance","offset":0,"slot":"4","type":"t_uint256"}],"types":{"t_array(t_bytes32)dyn_storage":{"encoding":"dynamic_array","label":"bytes32[]","numberOfBytes":"32","base":"t_bytes32"},"t_bool":{"encoding":"inplace","label":"bool","numberOfBytes":"1"},"t_bytes32":{"encoding":"inplace","label":"bytes32","numberOfBytes":"32"},"t_mapping(t_bytes32,t_struct(BitcoinCheckpoint)44470_storage)":{"encoding":"mapping","key":"t_bytes32","label":"mapping(bytes32 => struct Types.BitcoinCheckpoint)","numberOfBytes":"32","value":"t_struct(BitcoinCheckpoint)44470_storage"},"t_struct(BitcoinCheckpoint)44470_storage":{"encoding":"inplace","label":"struct Types.BitcoinCheckpoint","numberOfBytes":"128","members":[{"astId":44466,"contract":"src/RiftExchange.sol:RiftExchange","label":"established","offset":0,"slot":"0","type":"t_bool"},{"astId":44469,"contract":"src/RiftExchange.sol:RiftExchange","label":"tipBlockLeaf","offset":0,"slot":"1","type":"t_struct(BlockLeaf)44269_storage"}]},"t_struct(BlockLeaf)44269_storage":{"encoding":"inplace","label":"struct Types.BlockLeaf","numberOfBytes":"96","members":[{"astId":44264,"contract":"src/RiftExchange.sol:RiftExchange","label":"blockHash","offset":0,"slot":"0","type":"t_bytes32"},{"astId":44266,"contract":"src/RiftExchange.sol:RiftExchange","label":"height","offset":0,"slot":"1","type":"t_uint32"},{"astId":44268,"contract":"src/RiftExchange.sol:RiftExchange","label":"cumulativeChainwork","offset":0,"slot":"2","type":"t_uint256"}]},"t_uint256":{"encoding":"inplace","label":"uint256","numberOfBytes":"32"},"t_uint32":{"encoding":"inplace","label":"uint32","numberOfBytes":"4"}}},"id":41}