{"abi":[{"type":"constructor","inputs":[{"name":"_mmrRoot","type":"bytes32","internalType":"bytes32"},{"name":"_depositToken","type":"address","internalType":"address"},{"name":"_circuitVerificationKey","type":"bytes32","internalType":"bytes32"},{"name":"_verifier","type":"address","internalType":"address"},{"name":"_feeRouter","type":"address","internalType":"address"},{"name":"_takerFeeBips","type":"uint16","internalType":"uint16"},{"name":"_tipBlockLeaf","type":"tuple","internalType":"struct BlockLeaf","components":[{"name":"blockHash","type":"bytes32","internalType":"bytes32"},{"name":"height","type":"uint32","internalType":"uint32"},{"name":"cumulativeChainwork","type":"uint256","internalType":"uint256"}]}],"stateMutability":"nonpayable"},{"type":"function","name":"CIRCUIT_VERIFICATION_KEY","inputs":[],"outputs":[{"name":"","type":"bytes32","internalType":"bytes32"}],"stateMutability":"view"},{"type":"function","name":"ERC20_BTC","inputs":[],"outputs":[{"name":"","type":"address","internalType":"address"}],"stateMutability":"view"},{"type":"function","name":"MIN_CONFIRMATION_BLOCKS","inputs":[],"outputs":[{"name":"","type":"uint8","internalType":"uint8"}],"stateMutability":"view"},{"type":"function","name":"MIN_OUTPUT_SATS","inputs":[],"outputs":[{"name":"","type":"uint16","internalType":"uint16"}],"stateMutability":"view"},{"type":"function","name":"VERIFIER","inputs":[],"outputs":[{"name":"","type":"address","internalType":"address"}],"stateMutability":"view"},{"type":"function","name":"accumulatedFeeBalance","inputs":[],"outputs":[{"name":"","type":"uint256","internalType":"uint256"}],"stateMutability":"view"},{"type":"function","name":"adminSetFeeRouterAddress","inputs":[{"name":"_feeRouter","type":"address","internalType":"address"}],"outputs":[],"stateMutability":"nonpayable"},{"type":"function","name":"adminSetTakerFeeBips","inputs":[{"name":"_takerFeeBips","type":"uint16","internalType":"uint16"}],"outputs":[],"stateMutability":"nonpayable"},{"type":"function","name":"cancelOwnershipHandover","inputs":[],"outputs":[],"stateMutability":"payable"},{"type":"function","name":"checkpoints","inputs":[{"name":"","type":"bytes32","internalType":"bytes32"}],"outputs":[{"name":"established","type":"bool","internalType":"bool"},{"name":"tipBlockLeaf","type":"tuple","internalType":"struct BlockLeaf","components":[{"name":"blockHash","type":"bytes32","internalType":"bytes32"},{"name":"height","type":"uint32","internalType":"uint32"},{"name":"cumulativeChainwork","type":"uint256","internalType":"uint256"}]}],"stateMutability":"view"},{"type":"function","name":"completeOwnershipHandover","inputs":[{"name":"pendingOwner","type":"address","internalType":"address"}],"outputs":[],"stateMutability":"payable"},{"type":"function","name":"depositLiquidity","inputs":[{"name":"params","type":"tuple","internalType":"struct DepositLiquidityParams","components":[{"name":"base","type":"tuple","internalType":"struct BaseDepositLiquidityParams","components":[{"name":"depositOwnerAddress","type":"address","internalType":"address"},{"name":"btcPayoutScriptPubKey","type":"bytes25","internalType":"bytes25"},{"name":"depositSalt","type":"bytes32","internalType":"bytes32"},{"name":"confirmationBlocks","type":"uint8","internalType":"uint8"},{"name":"safeBlockLeaf","type":"tuple","internalType":"struct BlockLeaf","components":[{"name":"blockHash","type":"bytes32","internalType":"bytes32"},{"name":"height","type":"uint32","internalType":"uint32"},{"name":"cumulativeChainwork","type":"uint256","internalType":"uint256"}]}]},{"name":"specifiedPayoutAddress","type":"address","internalType":"address"},{"name":"depositAmount","type":"uint256","internalType":"uint256"},{"name":"expectedSats","type":"uint64","internalType":"uint64"},{"name":"safeBlockSiblings","type":"bytes32[]","internalType":"bytes32[]"},{"name":"safeBlockPeaks","type":"bytes32[]","internalType":"bytes32[]"}]}],"outputs":[{"name":"","type":"bytes32","internalType":"bytes32"}],"stateMutability":"nonpayable"},{"type":"function","name":"eip712Domain","inputs":[],"outputs":[{"name":"fields","type":"bytes1","internalType":"bytes1"},{"name":"name","type":"string","internalType":"string"},{"name":"version","type":"string","internalType":"string"},{"name":"chainId","type":"uint256","internalType":"uint256"},{"name":"verifyingContract","type":"address","internalType":"address"},{"name":"salt","type":"bytes32","internalType":"bytes32"},{"name":"extensions","type":"uint256[]","internalType":"uint256[]"}],"stateMutability":"view"},{"type":"function","name":"feeRouterAddress","inputs":[],"outputs":[{"name":"","type":"address","internalType":"address"}],"stateMutability":"view"},{"type":"function","name":"getLightClientHeight","inputs":[],"outputs":[{"name":"","type":"uint32","internalType":"uint32"}],"stateMutability":"view"},{"type":"function","name":"getSwapHashesLength","inputs":[],"outputs":[{"name":"","type":"uint256","internalType":"uint256"}],"stateMutability":"view"},{"type":"function","name":"getVaultHashesLength","inputs":[],"outputs":[{"name":"","type":"uint256","internalType":"uint256"}],"stateMutability":"view"},{"type":"function","name":"mmrRoot","inputs":[],"outputs":[{"name":"","type":"bytes32","internalType":"bytes32"}],"stateMutability":"view"},{"type":"function","name":"owner","inputs":[],"outputs":[{"name":"result","type":"address","internalType":"address"}],"stateMutability":"view"},{"type":"function","name":"ownershipHandoverExpiresAt","inputs":[{"name":"pendingOwner","type":"address","internalType":"address"}],"outputs":[{"name":"result","type":"uint256","internalType":"uint256"}],"stateMutability":"view"},{"type":"function","name":"payoutToFeeRouter","inputs":[],"outputs":[],"stateMutability":"nonpayable"},{"type":"function","name":"releaseLiquidityBatch","inputs":[{"name":"paramsArray","type":"tuple[]","internalType":"struct ReleaseLiquidityParams[]","components":[{"name":"swap","type":"tuple","internalType":"struct ProposedSwap","components":[{"name":"swapIndex","type":"uint256","internalType":"uint256"},{"name":"depositVaultHash","type":"bytes32","internalType":"bytes32"},{"name":"swapBitcoinBlockLeaf","type":"tuple","internalType":"struct BlockLeaf","components":[{"name":"blockHash","type":"bytes32","internalType":"bytes32"},{"name":"height","type":"uint32","internalType":"uint32"},{"name":"cumulativeChainwork","type":"uint256","internalType":"uint256"}]},{"name":"confirmationBlocks","type":"uint8","internalType":"uint8"},{"name":"liquidityUnlockTimestamp","type":"uint64","internalType":"uint64"},{"name":"specifiedPayoutAddress","type":"address","internalType":"address"},{"name":"totalSwapOutput","type":"uint256","internalType":"uint256"},{"name":"takerFee","type":"uint256","internalType":"uint256"},{"name":"state","type":"uint8","internalType":"enum SwapState"}]},{"name":"bitcoinSwapBlockSiblings","type":"bytes32[]","internalType":"bytes32[]"},{"name":"bitcoinSwapBlockPeaks","type":"bytes32[]","internalType":"bytes32[]"},{"name":"utilizedVault","type":"tuple","internalType":"struct DepositVault","components":[{"name":"vaultIndex","type":"uint256","internalType":"uint256"},{"name":"depositTimestamp","type":"uint64","internalType":"uint64"},{"name":"depositUnlockTimestamp","type":"uint64","internalType":"uint64"},{"name":"vaultAmount","type":"uint256","internalType":"uint256"},{"name":"takerFee","type":"uint256","internalType":"uint256"},{"name":"expectedSats","type":"uint64","internalType":"uint64"},{"name":"btcPayoutScriptPubKey","type":"bytes25","internalType":"bytes25"},{"name":"specifiedPayoutAddress","type":"address","internalType":"address"},{"name":"ownerAddress","type":"address","internalType":"address"},{"name":"salt","type":"bytes32","internalType":"bytes32"},{"name":"confirmationBlocks","type":"uint8","internalType":"uint8"},{"name":"attestedBitcoinBlockHeight","type":"uint64","internalType":"uint64"}]},{"name":"tipBlockHeight","type":"uint32","internalType":"uint32"}]}],"outputs":[],"stateMutability":"nonpayable"},{"type":"function","name":"renounceOwnership","inputs":[],"outputs":[],"stateMutability":"payable"},{"type":"function","name":"requestOwnershipHandover","inputs":[],"outputs":[],"stateMutability":"payable"},{"type":"function","name":"serializeLightClientPublicInput","inputs":[{"name":"input","type":"tuple","internalType":"struct LightClientPublicInput","components":[{"name":"previousMmrRoot","type":"bytes32","internalType":"bytes32"},{"name":"newMmrRoot","type":"bytes32","internalType":"bytes32"},{"name":"compressedLeavesHash","type":"bytes32","internalType":"bytes32"},{"name":"tipBlockLeaf","type":"tuple","internalType":"struct BlockLeaf","components":[{"name":"blockHash","type":"bytes32","internalType":"bytes32"},{"name":"height","type":"uint32","internalType":"uint32"},{"name":"cumulativeChainwork","type":"uint256","internalType":"uint256"}]}]}],"outputs":[{"name":"","type":"bytes","internalType":"bytes"}],"stateMutability":"pure"},{"type":"function","name":"submitBatchSwapProof","inputs":[{"name":"swapParams","type":"tuple[]","internalType":"struct SubmitSwapProofParams[]","components":[{"name":"swapBitcoinTxid","type":"bytes32","internalType":"bytes32"},{"name":"vault","type":"tuple","internalType":"struct DepositVault","components":[{"name":"vaultIndex","type":"uint256","internalType":"uint256"},{"name":"depositTimestamp","type":"uint64","internalType":"uint64"},{"name":"depositUnlockTimestamp","type":"uint64","internalType":"uint64"},{"name":"vaultAmount","type":"uint256","internalType":"uint256"},{"name":"takerFee","type":"uint256","internalType":"uint256"},{"name":"expectedSats","type":"uint64","internalType":"uint64"},{"name":"btcPayoutScriptPubKey","type":"bytes25","internalType":"bytes25"},{"name":"specifiedPayoutAddress","type":"address","internalType":"address"},{"name":"ownerAddress","type":"address","internalType":"address"},{"name":"salt","type":"bytes32","internalType":"bytes32"},{"name":"confirmationBlocks","type":"uint8","internalType":"uint8"},{"name":"attestedBitcoinBlockHeight","type":"uint64","internalType":"uint64"}]},{"name":"swapBitcoinBlockLeaf","type":"tuple","internalType":"struct BlockLeaf","components":[{"name":"blockHash","type":"bytes32","internalType":"bytes32"},{"name":"height","type":"uint32","internalType":"uint32"},{"name":"cumulativeChainwork","type":"uint256","internalType":"uint256"}]},{"name":"swapBitcoinBlockSiblings","type":"bytes32[]","internalType":"bytes32[]"},{"name":"swapBitcoinBlockPeaks","type":"bytes32[]","internalType":"bytes32[]"}]},{"name":"proof","type":"bytes","internalType":"bytes"}],"outputs":[],"stateMutability":"nonpayable"},{"type":"function","name":"submitBatchSwapProofWithLightClientUpdate","inputs":[{"name":"swapParams","type":"tuple[]","internalType":"struct SubmitSwapProofParams[]","components":[{"name":"swapBitcoinTxid","type":"bytes32","internalType":"bytes32"},{"name":"vault","type":"tuple","internalType":"struct DepositVault","components":[{"name":"vaultIndex","type":"uint256","internalType":"uint256"},{"name":"depositTimestamp","type":"uint64","internalType":"uint64"},{"name":"depositUnlockTimestamp","type":"uint64","internalType":"uint64"},{"name":"vaultAmount","type":"uint256","internalType":"uint256"},{"name":"takerFee","type":"uint256","internalType":"uint256"},{"name":"expectedSats","type":"uint64","internalType":"uint64"},{"name":"btcPayoutScriptPubKey","type":"bytes25","internalType":"bytes25"},{"name":"specifiedPayoutAddress","type":"address","internalType":"address"},{"name":"ownerAddress","type":"address","internalType":"address"},{"name":"salt","type":"bytes32","internalType":"bytes32"},{"name":"confirmationBlocks","type":"uint8","internalType":"uint8"},{"name":"attestedBitcoinBlockHeight","type":"uint64","internalType":"uint64"}]},{"name":"swapBitcoinBlockLeaf","type":"tuple","internalType":"struct BlockLeaf","components":[{"name":"blockHash","type":"bytes32","internalType":"bytes32"},{"name":"height","type":"uint32","internalType":"uint32"},{"name":"cumulativeChainwork","type":"uint256","internalType":"uint256"}]},{"name":"swapBitcoinBlockSiblings","type":"bytes32[]","internalType":"bytes32[]"},{"name":"swapBitcoinBlockPeaks","type":"bytes32[]","internalType":"bytes32[]"}]},{"name":"blockProofParams","type":"tuple","internalType":"struct BlockProofParams","components":[{"name":"priorMmrRoot","type":"bytes32","internalType":"bytes32"},{"name":"newMmrRoot","type":"bytes32","internalType":"bytes32"},{"name":"compressedBlockLeaves","type":"bytes","internalType":"bytes"},{"name":"tipBlockLeaf","type":"tuple","internalType":"struct BlockLeaf","components":[{"name":"blockHash","type":"bytes32","internalType":"bytes32"},{"name":"height","type":"uint32","internalType":"uint32"},{"name":"cumulativeChainwork","type":"uint256","internalType":"uint256"}]}]},{"name":"proof","type":"bytes","internalType":"bytes"}],"outputs":[],"stateMutability":"nonpayable"},{"type":"function","name":"swapHashes","inputs":[{"name":"","type":"uint256","internalType":"uint256"}],"outputs":[{"name":"","type":"bytes32","internalType":"bytes32"}],"stateMutability":"view"},{"type":"function","name":"takerFeeBips","inputs":[],"outputs":[{"name":"","type":"uint16","internalType":"uint16"}],"stateMutability":"view"},{"type":"function","name":"transferOwnership","inputs":[{"name":"newOwner","type":"address","internalType":"address"}],"outputs":[],"stateMutability":"payable"},{"type":"function","name":"updateLightClient","inputs":[{"name":"blockProofParams","type":"tuple","internalType":"struct BlockProofParams","components":[{"name":"priorMmrRoot","type":"bytes32","internalType":"bytes32"},{"name":"newMmrRoot","type":"bytes32","internalType":"bytes32"},{"name":"compressedBlockLeaves","type":"bytes","internalType":"bytes"},{"name":"tipBlockLeaf","type":"tuple","internalType":"struct BlockLeaf","components":[{"name":"blockHash","type":"bytes32","internalType":"bytes32"},{"name":"height","type":"uint32","internalType":"uint32"},{"name":"cumulativeChainwork","type":"uint256","internalType":"uint256"}]}]},{"name":"proof","type":"bytes","internalType":"bytes"}],"outputs":[],"stateMutability":"nonpayable"},{"type":"function","name":"vaultHashes","inputs":[{"name":"","type":"uint256","internalType":"uint256"}],"outputs":[{"name":"","type":"bytes32","internalType":"bytes32"}],"stateMutability":"view"},{"type":"function","name":"verifyZkProof","inputs":[{"name":"proofPublicInput","type":"tuple","internalType":"struct ProofPublicInput","components":[{"name":"proofType","type":"uint8","internalType":"enum ProofType"},{"name":"swaps","type":"tuple[]","internalType":"struct SwapPublicInput[]","components":[{"name":"swapBitcoinTxid","type":"bytes32","internalType":"bytes32"},{"name":"swapBitcoinBlockHash","type":"bytes32","internalType":"bytes32"},{"name":"depositVaultHash","type":"bytes32","internalType":"bytes32"}]},{"name":"lightClient","type":"tuple","internalType":"struct LightClientPublicInput","components":[{"name":"previousMmrRoot","type":"bytes32","internalType":"bytes32"},{"name":"newMmrRoot","type":"bytes32","internalType":"bytes32"},{"name":"compressedLeavesHash","type":"bytes32","internalType":"bytes32"},{"name":"tipBlockLeaf","type":"tuple","internalType":"struct BlockLeaf","components":[{"name":"blockHash","type":"bytes32","internalType":"bytes32"},{"name":"height","type":"uint32","internalType":"uint32"},{"name":"cumulativeChainwork","type":"uint256","internalType":"uint256"}]}]}]},{"name":"proof","type":"bytes","internalType":"bytes"}],"outputs":[],"stateMutability":"view"},{"type":"function","name":"withdrawLiquidity","inputs":[{"name":"vault","type":"tuple","internalType":"struct DepositVault","components":[{"name":"vaultIndex","type":"uint256","internalType":"uint256"},{"name":"depositTimestamp","type":"uint64","internalType":"uint64"},{"name":"depositUnlockTimestamp","type":"uint64","internalType":"uint64"},{"name":"vaultAmount","type":"uint256","internalType":"uint256"},{"name":"takerFee","type":"uint256","internalType":"uint256"},{"name":"expectedSats","type":"uint64","internalType":"uint64"},{"name":"btcPayoutScriptPubKey","type":"bytes25","internalType":"bytes25"},{"name":"specifiedPayoutAddress","type":"address","internalType":"address"},{"name":"ownerAddress","type":"address","internalType":"address"},{"name":"salt","type":"bytes32","internalType":"bytes32"},{"name":"confirmationBlocks","type":"uint8","internalType":"uint8"},{"name":"attestedBitcoinBlockHeight","type":"uint64","internalType":"uint64"}]}],"outputs":[],"stateMutability":"nonpayable"},{"type":"event","name":"BitcoinLightClientUpdated","inputs":[{"name":"priorMmrRoot","type":"bytes32","indexed":false,"internalType":"bytes32"},{"name":"newMmrRoot","type":"bytes32","indexed":false,"internalType":"bytes32"},{"name":"compressedBlockLeaves","type":"bytes","indexed":false,"internalType":"bytes"}],"anonymous":false},{"type":"event","name":"OwnershipHandoverCanceled","inputs":[{"name":"pendingOwner","type":"address","indexed":true,"internalType":"address"}],"anonymous":false},{"type":"event","name":"OwnershipHandoverRequested","inputs":[{"name":"pendingOwner","type":"address","indexed":true,"internalType":"address"}],"anonymous":false},{"type":"event","name":"OwnershipTransferred","inputs":[{"name":"oldOwner","type":"address","indexed":true,"internalType":"address"},{"name":"newOwner","type":"address","indexed":true,"internalType":"address"}],"anonymous":false},{"type":"event","name":"SwapsUpdated","inputs":[{"name":"swaps","type":"tuple[]","indexed":false,"internalType":"struct ProposedSwap[]","components":[{"name":"swapIndex","type":"uint256","internalType":"uint256"},{"name":"depositVaultHash","type":"bytes32","internalType":"bytes32"},{"name":"swapBitcoinBlockLeaf","type":"tuple","internalType":"struct BlockLeaf","components":[{"name":"blockHash","type":"bytes32","internalType":"bytes32"},{"name":"height","type":"uint32","internalType":"uint32"},{"name":"cumulativeChainwork","type":"uint256","internalType":"uint256"}]},{"name":"confirmationBlocks","type":"uint8","internalType":"uint8"},{"name":"liquidityUnlockTimestamp","type":"uint64","internalType":"uint64"},{"name":"specifiedPayoutAddress","type":"address","internalType":"address"},{"name":"totalSwapOutput","type":"uint256","internalType":"uint256"},{"name":"takerFee","type":"uint256","internalType":"uint256"},{"name":"state","type":"uint8","internalType":"enum SwapState"}]},{"name":"context","type":"uint8","indexed":false,"internalType":"enum SwapUpdateContext"}],"anonymous":false},{"type":"event","name":"VaultsUpdated","inputs":[{"name":"vaults","type":"tuple[]","indexed":false,"internalType":"struct DepositVault[]","components":[{"name":"vaultIndex","type":"uint256","internalType":"uint256"},{"name":"depositTimestamp","type":"uint64","internalType":"uint64"},{"name":"depositUnlockTimestamp","type":"uint64","internalType":"uint64"},{"name":"vaultAmount","type":"uint256","internalType":"uint256"},{"name":"takerFee","type":"uint256","internalType":"uint256"},{"name":"expectedSats","type":"uint64","internalType":"uint64"},{"name":"btcPayoutScriptPubKey","type":"bytes25","internalType":"bytes25"},{"name":"specifiedPayoutAddress","type":"address","internalType":"address"},{"name":"ownerAddress","type":"address","internalType":"address"},{"name":"salt","type":"bytes32","internalType":"bytes32"},{"name":"confirmationBlocks","type":"uint8","internalType":"uint8"},{"name":"attestedBitcoinBlockHeight","type":"uint64","internalType":"uint64"}]},{"name":"context","type":"uint8","indexed":false,"internalType":"enum VaultUpdateContext"}],"anonymous":false},{"type":"error","name":"AlreadyInitialized","inputs":[]},{"type":"error","name":"BlockNotConfirmed","inputs":[]},{"type":"error","name":"BlockNotInChain","inputs":[]},{"type":"error","name":"ChainworkTooLow","inputs":[]},{"type":"error","name":"CheckpointNotEstablished","inputs":[]},{"type":"error","name":"DepositAmountTooLow","inputs":[]},{"type":"error","name":"DepositStillLocked","inputs":[]},{"type":"error","name":"DepositVaultDoesNotExist","inputs":[]},{"type":"error","name":"EmptyDepositVault","inputs":[]},{"type":"error","name":"InvalidDepositTokenDecimals","inputs":[{"name":"actual","type":"uint8","internalType":"uint8"},{"name":"expected","type":"uint8","internalType":"uint8"}]},{"type":"error","name":"InvalidScriptPubKey","inputs":[]},{"type":"error","name":"InvalidVaultHash","inputs":[{"name":"actual","type":"bytes32","internalType":"bytes32"},{"name":"expected","type":"bytes32","internalType":"bytes32"}]},{"type":"error","name":"NewOwnerIsZeroAddress","inputs":[]},{"type":"error","name":"NoFeeToPay","inputs":[]},{"type":"error","name":"NoHandoverRequest","inputs":[]},{"type":"error","name":"NoSwapsToSubmit","inputs":[]},{"type":"error","name":"NotEnoughConfirmationBlocks","inputs":[]},{"type":"error","name":"SatOutputTooLow","inputs":[]},{"type":"error","name":"StillInChallengePeriod","inputs":[]},{"type":"error","name":"SwapDoesNotExist","inputs":[]},{"type":"error","name":"SwapNotProved","inputs":[]},{"type":"error","name":"Unauthorized","inputs":[]}],"bytecode":{"object":"0x610180806040523461034a5780612fc9803803809161001e8285610375565b8339810103610120811261034a5781519161003b60208201610398565b60408201519061004d60608401610398565b9261005a60808201610398565b9560a08201519561ffff8716870361034a5760609060bf19011261034a5760405191606083016001600160401b038111848210176103615760405260c0810151835260e08101519063ffffffff8216820361034a5761010091602085015201516040830152306080524660a05260a06040516100d7604082610375565b600c815260208101906b5269667445786368616e676560a01b825260405191610101604084610375565b60058352602083019164302e302e3160d81b8352519020915190208160c0528060e052604051917f8b73c3c69bb8fe3d512ecc4cf759cc79239f7b179b0ffacaa9a75d522b39400f8352602083015260408201524660608201523060808201522061010052805f5560405191604083019083821060018060401b0383111761036157600392604092835260018552602085019182525f526001602052815f209351151560ff8019865416911617845551805160018501556002840163ffffffff60208301511663ffffffff19825416179055015191015533638b78c6d81955335f7f8be0079c531659141344cd1fd0a4f28419497f9722a3daafe3b4186f6b6457e08180a360405163313ce56760e01b81526020816004816001600160a01b0386165afa8015610356575f90610315575b60ff915016600881036102fe5750610120526101405261016052600580546001600160b01b0319166001600160a01b039093169290921760a09190911b61ffff60a01b16179055604051612c1c90816103ad823960805181610d61015260a05181610d3e015260c05181610f9b015260e05181610fc101526101005181610d1b0152610120518181816103440152818161079d01528181610eb00152818161120b01526116520152610140518181816109080152611d2101526101605181818161176d0152611c700152f35b63124c032f60e31b5f52600452600860245260445ffd5b506020813d60201161034e575b8161032f60209383610375565b8101031261034a575160ff8116810361034a5760ff90610232565b5f80fd5b3d9150610322565b6040513d5f823e3d90fd5b634e487b7160e01b5f52604160045260245ffd5b601f909101601f19168101906001600160401b0382119082101761036157604052565b51906001600160a01b038216820361034a5756fe6080806040526004361015610012575f80fd5b5f3560e01c90816303af626a146119075750806307a2ec521461179c57806308c84e70146117585780631cbeebeb1461171b57806325692962146116d2578063333f871a146116a9578063428f29b814611681578063473d175d1461163d5780635377d5ee146115fa57806354d1f13d146115b657806357c9b72c1461159b5780635861af001461119b578063592b66491461109457806365e99ad8146110775780636b2d5f9a14610ac8578063715018a614610a7f5780637c2301a614610a0257806384b0196e1461092b5780638d5ca052146108f15780638da5cb5b146108c55780639a73f4f5146108a1578063a47f96cc14610885578063c190c16414610631578063ca18100d14610614578063d21ddc61146105f8578063da330193146104a7578063e58e0fe31461045f578063e5e78e0214610427578063eb5e91ff146103c4578063f04e283e14610377578063f23a94a914610314578063f2fde38b146102d7578063fee81cf4146102a55763ffa8ea9414610192575f80fd5b346102a15760403660031901126102a1576004356001600160401b0381116102a1576101c2903690600401611ad2565b602435916001600160401b0383116102a15761029061029c9261023261020d7fdc0391168b5903ca02f8020523ba62927809fd9d25baf94fcb8bb339e0c8f731963690600401611a22565b92909461022d5f545f52600160205263ffffffff600260405f2001541690565b61262e565b60409491945161024181611921565b5f81525f60208201525f60408201526040519061025d8261193c565b5f82525f60208301525f604083015260608201526040519161027e83611921565b5f835260208301526040820152611c65565b604051918291826121b4565b0390a1005b5f80fd5b346102a15760203660031901126102a1576102be611aa8565b63389a75e1600c525f52602080600c2054604051908152f35b60203660031901126102a1576102eb611aa8565b6102f361231f565b8060601b1561030757610305906125f1565b005b637448fbae5f526004601cfd5b346102a1575f3660031901126102a1576004548015610368575f60045560055461030591906001600160a01b03167f0000000000000000000000000000000000000000000000000000000000000000612472565b630fbcad4560e21b5f5260045ffd5b60203660031901126102a15761038b611aa8565b61039361231f565b63389a75e1600c52805f526020600c2090815442116103b7575f61030592556125f1565b636f5e88185f526004601cfd5b346102a15760203660031901126102a1576004355f526001602052608060405f206104256103f9600160ff8454169301611bc7565b60405192151583526020830190604080918051845263ffffffff60208201511660208501520151910152565bf35b346102a15760203660031901126102a1576004356002548110156102a157610450602091611a7b565b90549060031b1c604051908152f35b346102a15760203660031901126102a15760043561ffff811681036102a15761048661231f565b6005805461ffff60a01b191660a09290921b61ffff60a01b16919091179055005b346102a15760603660031901126102a1576004356001600160401b0381116102a1576104d7903690600401611ad2565b602435916001600160401b0383116102a157826004019060c060031985360301126102a1576044356001600160401b0381116102a15761051b903690600401611a22565b90833595602481013596606482016084604484019361055061053d868b6122a8565b908d61054936886119e2565b90886124c3565b01359063ffffffff821682036102a1577fdc0391168b5903ca02f8020523ba62927809fd9d25baf94fcb8bb339e0c8f731996105ab6105a461059c61029c9c6102909b6105d39761262e565b97909b6122a8565b36916122da565b6020815191012090604051946105c08661193c565b85526020850152604084015236906119e2565b6060820152604051916105e583611921565b6002835260208301526040820152611c65565b346102a1575f3660031901126102a15760205f54604051908152f35b346102a1575f3660031901126102a1576020600454604051908152f35b346102a157366003190161018081126102a15761064c612378565b50606435801561087657604435916001600160401b0383168084036102a157421061086757610180136102a1576040519161068683611957565b60043583526024356001600160401b03811681036102a15760208401526040830152606082019080825260843591608084019280845260a4356001600160401b03811681036102a15760a086015260c43566ffffffffffffff19811681036102a15760c086015260e4356001600160a01b03811681036102a15760e086015261010435926001600160a01b03841684036102a15783610100870152610124356101208701526101443560ff811681036102a15761014087015261016435926001600160401b03841684036102a1576107c1955f809261079a966101608b0152525261079561077387612428565b61077d8851611a7b565b90919082549060031b91821b915f19901b1916179055565b612105565b907f0000000000000000000000000000000000000000000000000000000000000000612472565b6107c9611ec3565b906107d382612049565b526107dd81612049565b50604051604081016040825282518091526020606083019301905f5b81811061084657505050807fbcf83654bbe8d2d5a003763444fb50a895b7721b0239dcd314d345f8a3cdfb1992600160208301520390a1005b634e487b7160e01b5f52602160045260245ffd5b90919360206101808261085c6001948951612202565b0195019291016107f9565b6301b512a960e21b5f5260045ffd5b637941e9ad60e01b5f5260045ffd5b346102a1575f3660031901126102a15760206040516103e88152f35b346102a1575f3660031901126102a157602061ffff60055460a01c16604051908152f35b346102a1575f3660031901126102a157638b78c6d819546040516001600160a01b039091168152602090f35b346102a1575f3660031901126102a15760206040517f00000000000000000000000000000000000000000000000000000000000000008152f35b346102a1575f3660031901126102a1576109a460406109b181519161095081846119aa565b600c83526b5269667445786368616e676560a01b6020840152805161097582826119aa565b6005815264302e302e3160d81b60208201528151948594600f60f81b865260e0602087015260e0860190611ba3565b9184830390850152611ba3565b4660608301523060808301525f60a083015281810360c083015260206060519182815201906080905f5b8181106109e9575050500390f35b82518452859450602093840193909201916001016109db565b346102a15760c03660031901126102a157610a7b604051610a228161193c565b600435815260243560208201526044356040820152610a423660646119e2565b6060820152610a58604051916020830190611bff565b60c08152610a6760e0826119aa565b604051918291602083526020830190611ba3565b0390f35b5f3660031901126102a157610a9261231f565b5f638b78c6d819547f8be0079c531659141344cd1fd0a4f28419497f9722a3daafe3b4186f6b6457e08280a35f638b78c6d81955005b346102a15760203660031901126102a1576004356001600160401b0381116102a1576003198136030161018081126102a1576040519060c08201908282106001600160401b03831117610f575760e091604052126102a15760405160a081018181106001600160401b03821117610f5757604052610b4883600401611abe565b8152610b5660248401611b02565b602082015260448301356040820152610b7160648401611b17565b6060820152610b8336608485016119e2565b60808201528152610b9660e48301611abe565b6020820190815260408201916101048401358352610bb76101248501611b25565b90606081019182526101448501356001600160401b0381116102a157610be39060043691880101611b85565b9460808201958652610164810135906001600160401b0382116102a1576004610c0f9236920101611b85565b9460a0820195865260025495610c23611e6b565b5061ffff60055460a01c1691865183155f14611049576001905b1061103a576103e86001600160401b038651161061102b57600260ff606086510151161061101c57610c7d66ffffffffffffff1960208651015116612a11565b1561100d57610c969160808551015191519051916128ba565b8451818102918183041490151715610ff957612710900460ff60608351015116611c200263ffffffff8116908103610ff957610cda6001600160401b039142612105565b1693855193828503948511610ff9575183516020810151925190516001600160a01b039081169491169266ffffffffffffff1916916001600160401b0316907f00000000000000000000000000000000000000000000000000000000000000008a467f000000000000000000000000000000000000000000000000000000000000000014307f0000000000000000000000000000000000000000000000000000000000000000141615610f6b575b875160409081015181519384526020840152820152606090205b95519663ffffffff6020608060ff60608c0151169a0151015116986040519b610dca8d611957565b8c526001600160401b03421660208d015260408c015260608b015260808a015260a089015260c088015260e0870152610100860152610120850152610140840152610160830152610e1a82612428565b91600254600160401b811015610f57578361077d826001610e4094016002556002611a93565b610e48611ec3565b90610e5282612049565b52610e5c81612049565b50604051604081016040825282518091526020606083019301905f5b818110610f3657505050807fbcf83654bbe8d2d5a003763444fb50a895b7721b0239dcd314d345f8a3cdfb19925f60208301520390a17f000000000000000000000000000000000000000000000000000000000000000090519060405191606052306040523360601b602c526323b872dd60601b600c5260205f6064601c82855af1908160015f51141615610f18575b602083855f606052816040528152f35b3b153d171015610f29578280610f08565b637939f4245f526004601cfd5b909193602061018082610f4c6001948951612202565b019501929101610e78565b634e487b7160e01b5f52604160045260245ffd5b5050610da28a60a06040517f8b73c3c69bb8fe3d512ecc4cf759cc79239f7b179b0ffacaa9a75d522b39400f81527f000000000000000000000000000000000000000000000000000000000000000060208201527f00000000000000000000000000000000000000000000000000000000000000006040820152466060820152306080820152209150610d88565b634e487b7160e01b5f52601160045260245ffd5b63fad7db0760e01b5f5260045ffd5b63bdf8f2b360e01b5f5260045ffd5b63fde5943160e01b5f5260045ffd5b6355fcd02760e01b5f5260045ffd5b836127100161ffff8111610ff95761ffff5f1991160161ffff8111610ff9578461ffff809216041690610c3d565b346102a1575f3660031901126102a1576020600254604051908152f35b346102a15760403660031901126102a1576004356001600160401b0381116102a157806004019060c060031982360301126102a1576024356001600160401b0381116102a1576110e8903690600401611a22565b91604481016110fa6105a482876122a8565b6020815191012061112b611119873593606460248701359601986122a8565b90611124368a6119e2565b86866124c3565b6040519261113a6020856119aa565b5f84525f805b8181106111845750509561115f9161030597604051946105c08661193c565b60608201526040519161117183611921565b6001835260208301526040820152611c65565b60209061118f611dc0565b82828901015201611140565b346102a15760203660031901126102a1576004356001600160401b0381116102a1576111cb903690600401611ad2565b906111d582611dde565b906111df836119cb565b926111ed60405194856119aa565b808452601f196111fc826119cb565b015f5b8181106115845750505f7f0000000000000000000000000000000000000000000000000000000000000000905b82811061131c57858560405190604082016040835281518091526020606084019201905f5b8181106112fb5760016020860152857fdc0391168b5903ca02f8020523ba62927809fd9d25baf94fcb8bb339e0c8f73186860387a1604051604081016040825282518091526020606083019301905f5b8181106112da57505050807fbcf83654bbe8d2d5a003763444fb50a895b7721b0239dcd314d345f8a3cdfb1992600260208301520390a1005b9091936020610180826112f06001948951612202565b0195019291016112a1565b9091926020610160826113116001948851612126565b019401929101611251565b611327818486611f03565b61134361133c611337368461206a565b612450565b9135611a4f565b90549060031b1c036115755761014061135d828587611f03565b013560038110156102a15760019061137481611bf5565b03611566576001600160401b0361139760c0611391848789611f03565b01611f26565b164210611557576113b56101a06113af838688611f03565b0161233b565b60206113c2838688611f03565b01358103611533575060019061143d6113e83660406113e285898b611f03565b016119e2565b85876114036113f8868484611f03565b610160810190611f3a565b9060ff61143660a06114308a61142861141d828b8b611f03565b610180810190611f3a565b999098611f03565b01611f6f565b1694612393565b611455366101a061144f84888a611f03565b01611f7d565b5f60608201525f608082015261147761146d82612428565b61077d8351611a7b565b6114818289612056565b5261148c8188612056565b506114a13661149c838789611f03565b61206a565b60026101008201526114c96114b582612450565b61077d6114c385898b611f03565b35611a4f565b6114e46101206114da84888a611f03565b0135600454612105565b60045561151761150060e06114fa85898b611f03565b01612112565b61010061150e85898b611f03565b01359086612472565b6115218288612056565b5261152c8187612056565b500161122c565b6020611540838688611f03565b013563046aaf4f60e51b5f5260045260245260445ffd5b632d5c37f560e21b5f5260045ffd5b6322fc5d4360e21b5f5260045ffd5b631a40316d60e01b5f5260045ffd5b60209061158f611e6b565b828289010152016111ff565b346102a1575f3660031901126102a157602060405160028152f35b5f3660031901126102a15763389a75e1600c52335f525f6020600c2055337ffa7b8eab7da67f412cc9575ed43464468f9bfbae89d1675917346ca6d8fe3c925f80a2005b346102a15760203660031901126102a157611613611aa8565b61161b61231f565b600580546001600160a01b0319166001600160a01b0392909216919091179055005b346102a1575f3660031901126102a1576040517f00000000000000000000000000000000000000000000000000000000000000006001600160a01b03168152602090f35b346102a1575f3660031901126102a1576005546040516001600160a01b039091168152602090f35b346102a15760203660031901126102a1576004356003548110156102a157610450602091611a4f565b5f3660031901126102a15763389a75e1600c52335f526202a30042016020600c2055337fdbf36a107da19e49527a7176a1babf963b4b0ff8cde35ee35d6cd8f1f9ac7e1d5f80a2005b346102a1575f3660031901126102a157602061174a5f545f52600160205263ffffffff600260405f2001541690565b63ffffffff60405191168152f35b346102a1575f3660031901126102a1576040517f00000000000000000000000000000000000000000000000000000000000000006001600160a01b03168152602090f35b346102a15760403660031901126102a1576004356001600160401b0381116102a157803603906101006003198301126102a157604051916117dc83611921565b816004013560038110156102a157835260248201356001600160401b0381116102a1578201366023820112156102a157600481013561181a816119cb565b9161182860405193846119aa565b818352602060046060828601940283010101903682116102a157602401915b8183106118cb57505050602084015260c0604319909101126102a157611898604051916118738361193c565b60448101358352606481013560208401526084810135604084015260a43691016119e2565b60608201526040820152602435906001600160401b0382116102a1576118c5610305923690600401611a22565b91611c65565b6060833603126102a15760206060916040516118e681611921565b85358152828601358382015260408601356040820152815201920191611847565b346102a1575f3660031901126102a1576020906003548152f35b606081019081106001600160401b03821117610f5757604052565b608081019081106001600160401b03821117610f5757604052565b61018081019081106001600160401b03821117610f5757604052565b61012081019081106001600160401b03821117610f5757604052565b604081019081106001600160401b03821117610f5757604052565b90601f801991011681019081106001600160401b03821117610f5757604052565b6001600160401b038111610f575760051b60200190565b91908260609103126102a1576040516119fa81611921565b809280358252602081013563ffffffff811681036102a1576020830152604090810135910152565b9181601f840112156102a1578235916001600160401b0383116102a157602083818601950101116102a157565b600354811015611a675760035f5260205f2001905f90565b634e487b7160e01b5f52603260045260245ffd5b600254811015611a675760025f5260205f2001905f90565b8054821015611a67575f5260205f2001905f90565b600435906001600160a01b03821682036102a157565b35906001600160a01b03821682036102a157565b9181601f840112156102a1578235916001600160401b0383116102a1576020808501948460051b0101116102a157565b359066ffffffffffffff19821682036102a157565b359060ff821682036102a157565b35906001600160401b03821682036102a157565b929190611b45816119cb565b93611b5360405195866119aa565b602085838152019160051b81019283116102a157905b828210611b7557505050565b8135815260209182019101611b69565b9080601f830112156102a157816020611ba093359101611b39565b90565b805180835260209291819084018484015e5f828201840152601f01601f1916010190565b90604051611bd481611921565b6040600282948054845263ffffffff60018201541660208501520154910152565b6003111561083257565b90606080611c43938051845260208101516020850152604081015160408501520151910190604080918051845263ffffffff60208201511660208501520151910152565b565b908060209392818452848401375f828201840152601f01601f1916010190565b909160018060a01b037f000000000000000000000000000000000000000000000000000000000000000016604051926020808501528361014081018251611cab81611bf5565b604083015260208301519061010060608401528151809152602061016084019201905f5b818110611d8e57505050611cee6040611cfc9401516080840190611bff565b03601f1981018552846119aa565b803b156102a157611d565f93611d686040519687958694859463020a49e360e51b86527f00000000000000000000000000000000000000000000000000000000000000006004870152606060248701526064860190611ba3565b84810360031901604486015291611c45565b03915afa8015611d8357611d795750565b5f611c43916119aa565b6040513d5f823e3d90fd5b919493509160206060600192604088518051835284810151858401520151604082015201950191019187939492611ccf565b60405190611dcd82611921565b5f6040838281528260208201520152565b90611de8826119cb565b611df560405191826119aa565b8281528092611e06601f19916119cb565b01905f5b828110611e1657505050565b602090604051611e2581611973565b5f81525f83820152611e35611dc0565b60408201525f60608201525f60808201525f60a08201525f60c08201525f60e08201525f61010082015282828501015201611e0a565b60405190611e7882611957565b5f610160838281528260208201528260408201528260608201528260808201528260a08201528260c08201528260e08201528261010082015282610120820152826101408201520152565b60408051909190611ed483826119aa565b6001815291601f1901825f5b828110611eec57505050565b602090611ef7611e6b565b82828501015201611ee0565b9190811015611a675760051b8101359061033e19813603018212156102a1570190565b356001600160401b03811681036102a15790565b903590601e19813603018212156102a157018035906001600160401b0382116102a157602001918160051b360383136102a157565b3560ff811681036102a15790565b9190826101809103126102a157604051611f9681611957565b61016061204481839580358552611faf60208201611b25565b6020860152611fc060408201611b25565b60408601526060810135606086015260808101356080860152611fe560a08201611b25565b60a0860152611ff660c08201611b02565b60c086015261200760e08201611abe565b60e08601526120196101008201611abe565b6101008601526101208101356101208601526120386101408201611b17565b61014086015201611b25565b910152565b805115611a675760200190565b8051821015611a675760209160051b010190565b919091610160818403126102a1576101406040519161208883611973565b6120a483958235855260208301356020860152604083016119e2565b60408401526120b560a08201611b17565b60608401526120c660c08201611b25565b60808401526120d760e08201611abe565b60a084015261010081013560c084015261012081013560e084015201359060038210156102a1576101000152565b91908201809211610ff957565b356001600160a01b03811681036102a15790565b80518252602080820151818401526040808301518051828601529182015163ffffffff16606085015201516080830152610140906101009060ff60608201511660a08501526001600160401b0360808201511660c085015260018060a01b0360a08201511660e085015260c08101518285015260e08101516101208501520151916121b083611bf5565b0152565b9190604083016040845281518091526020606085019201905f5b8181106121e15750505060205f91930152565b9091926020610160826121f76001948851612126565b0194019291016121ce565b6001600160401b0361016080928051855282602082015116602086015282604082015116604086015260608101516060860152608081015160808601528260a08201511660a086015266ffffffffffffff1960c08201511660c086015260018060a01b0360e08201511660e086015260018060a01b036101008201511661010086015261012081015161012086015260ff61014082015116610140860152015116910152565b903590601e19813603018212156102a157018035906001600160401b0382116102a1576020019181360383136102a157565b9291926001600160401b038211610f575760405191612303601f8201601f1916602001846119aa565b8294818452818301116102a1578281602093845f960137010152565b638b78c6d81954330361232e57565b6382b429005f526004601cfd5b61235961235061234b3684611f7d565b612428565b91356002611a93565b90549060031b1c81036123695790565b63cd1d240d60e01b5f5260045ffd5b61238661234b366004611f7d565b6123596004356002611a93565b949391926123a96123b1926123b8953691611b39565b923691611b39565b90846128ba565b63ffffffff60206123dc5f545f52600160205263ffffffff600260405f2001541690565b930151169063ffffffff5f1991160163ffffffff8111610ff95763ffffffff160163ffffffff8111610ff95763ffffffff80911691161061241957565b630a47293560e31b5f5260045ffd5b604051612439602082018093612202565b610180815261244a6101a0826119aa565b51902090565b604051612461602082018093612126565b610160815261244a610180826119aa565b919060145260345263a9059cbb60601b5f5260205f6044601082855af1908160015f511416156124a5575b50505f603452565b3b153d1710156124b6575f8061249d565b6390b8ec185f526004601cfd5b9190925f548085146125e957835f52600160205260405f206124fc6001604051926124ed8461198f565b60ff8154161515845201611bc7565b602082015251156125da575f526001602052600360405f200154604083015111156125cb577f6768baae39ee0e687f7c44f7006a147b15ffb56031969140096fe95461eea2fd946125c692600360408051926125578461198f565b6001845260208401908152885f526001602052815f209351151560ff8019865416911617845551805160018501556002840163ffffffff60208301511663ffffffff198254161790550151910155845f5560405194859485526020850152606060408501526060840191611c45565b0390a1565b6307800bf560e21b5f5260045ffd5b63e1965c6560e01b5f5260045ffd5b505050505050565b60018060a01b031680638b78c6d819547f8be0079c531659141344cd1fd0a4f28419497f9722a3daafe3b4186f6b6457e05f80a3638b78c6d81955565b91929083156128ab57612640846119cb565b9161264e60405193846119aa565b848352601f1961265d866119cb565b015f5b818110612894575050829061267486611dde565b91600354915f5b888110156128895761268d8185612105565b8160051b87013561023e19883603018112156102a15787016126b16020820161233b565b906101a08101916040516126c481611921565b82358152833560208201528160408201526126df868d612056565b526126ea858c612056565b506127396127346126ff610200850185611f3a565b919061270f610220870187611f3a565b9061016088019461271f86611f6f565b9360ff61272c368d6119e2565b951694612393565b611f6f565b928c63ffffffff6001600160401b036127556101808701611f26565b169116036001600160401b038111610ff9576001600160401b03166085026001600160401b038116908103610ff95761e3b3016001600160401b038111610ff9576001600160401b036103e88161012c93160416016001600160401b038111610ff95760a0946127ff6001600160401b036127d48160ff951642612105565b16936127e36101008801612112565b95604051996127f18b611973565b8a5260208a015236906119e2565b60408801521660608601526080850152600180841b031682840152608081013560c0840152013560e0820152600161010082015261283d8287612056565b526128488186612056565b5061285c6128568287612056565b51612450565b90600354600160401b811015610f575760019261077d828561288394016003556003611a93565b0161267b565b509450945050935050565b60209061289f611dc0565b82828801015201612660565b6308d98c4f60e01b5f5260045ffd5b9063ffffffff6128ed83516020850194604084875116910151919091606092604051928352602083015260408201522090565b92511692600163ffffffff6129155f545f52600160205263ffffffff600260405f2001541690565b16019163ffffffff8311610ff95761292f945f5494612945565b1561293657565b632814065160e01b5f5260045ffd5b939591929490955f945b84518610156129a157600188811c988116036129845761296f8686612056565b515f52602052600160405f20955b019461294f565b61298e8686612056565b51905f52602052600160405f209561297d565b95929650925092505f935f5b8251811015612a0757816129c18285612056565b51146129cf576001016129ad565b50509091925060015b15612a00576129e690612b8a565b908115612a005763ffffffff165f5260205260405f201490565b5050505f90565b50509091926129d8565b5f81901a60f81b6001600160f81b03191680612a6c575069ffffffffffffffffffff19165f81901a60f81b6001600160f81b031916159081612a51575090565b60011a60f81b6001600160f81b031916600560fa1b14919050565b60a960f81b8103612ae5575068ffffffffffffffffff19165f81901a60f81b6001600160f81b03191660a960f81b149081612ac6575b81612aab575090565b60161a60f81b6001600160f81b031916608760f81b14919050565b600181901a60f81b6001600160f81b031916600560fa1b149150612aa2565b603b60f91b149081612af75750505f90565b81612b6b575b81612b4c575b81612b2d575b81612b12575090565b60181a60f81b6001600160f81b031916602b60fa1b14919050565b601781901a60f81b6001600160f81b031916601160fb1b149150612b09565b600281901a60f81b6001600160f81b031916600560fa1b149150612b03565b600181901a60f81b6001600160f81b03191660a960f81b149150612afd565b80518015612be0575f198101908111610ff957612ba79082612056565b519080515f198101908111610ff957805b612bc157505090565b5f190191612bcf8383612056565b515f526020528160405f2092612bb8565b50505f9056fea26469706673582212203c415df0b0aaa8a466d4268f3899e974ae1380987148ba23810161b06223091564736f6c634300081c0033","linkReferences":{}},"methodIdentifiers":{"CIRCUIT_VERIFICATION_KEY()":"8d5ca052","ERC20_BTC()":"473d175d","MIN_CONFIRMATION_BLOCKS()":"57c9b72c","MIN_OUTPUT_SATS()":"a47f96cc","VERIFIER()":"08c84e70","accumulatedFeeBalance()":"ca18100d","adminSetFeeRouterAddress(address)":"5377d5ee","adminSetTakerFeeBips(uint16)":"e58e0fe3","cancelOwnershipHandover()":"54d1f13d","checkpoints(bytes32)":"eb5e91ff","completeOwnershipHandover(address)":"f04e283e","depositLiquidity(((address,bytes25,bytes32,uint8,(bytes32,uint32,uint256)),address,uint256,uint64,bytes32[],bytes32[]))":"6b2d5f9a","eip712Domain()":"84b0196e","feeRouterAddress()":"428f29b8","getLightClientHeight()":"1cbeebeb","getSwapHashesLength()":"03af626a","getVaultHashesLength()":"65e99ad8","mmrRoot()":"d21ddc61","owner()":"8da5cb5b","ownershipHandoverExpiresAt(address)":"fee81cf4","payoutToFeeRouter()":"f23a94a9","releaseLiquidityBatch(((uint256,bytes32,(bytes32,uint32,uint256),uint8,uint64,address,uint256,uint256,uint8),bytes32[],bytes32[],(uint256,uint64,uint64,uint256,uint256,uint64,bytes25,address,address,bytes32,uint8,uint64),uint32)[])":"5861af00","renounceOwnership()":"715018a6","requestOwnershipHandover()":"25692962","serializeLightClientPublicInput((bytes32,bytes32,bytes32,(bytes32,uint32,uint256)))":"7c2301a6","submitBatchSwapProof((bytes32,(uint256,uint64,uint64,uint256,uint256,uint64,bytes25,address,address,bytes32,uint8,uint64),(bytes32,uint32,uint256),bytes32[],bytes32[])[],bytes)":"ffa8ea94","submitBatchSwapProofWithLightClientUpdate((bytes32,(uint256,uint64,uint64,uint256,uint256,uint64,bytes25,address,address,bytes32,uint8,uint64),(bytes32,uint32,uint256),bytes32[],bytes32[])[],(bytes32,bytes32,bytes,(bytes32,uint32,uint256)),bytes)":"da330193","swapHashes(uint256)":"333f871a","takerFeeBips()":"9a73f4f5","transferOwnership(address)":"f2fde38b","updateLightClient((bytes32,bytes32,bytes,(bytes32,uint32,uint256)),bytes)":"592b6649","vaultHashes(uint256)":"e5e78e02","verifyZkProof((uint8,(bytes32,bytes32,bytes32)[],(bytes32,bytes32,bytes32,(bytes32,uint32,uint256))),bytes)":"07a2ec52","withdrawLiquidity((uint256,uint64,uint64,uint256,uint256,uint64,bytes25,address,address,bytes32,uint8,uint64))":"c190c164"},"storageLayout":{"storage":[{"astId":45496,"contract":"tests/utils/RiftTest.sol:RiftExchangeHarness","label":"mmrRoot","offset":0,"slot":"0","type":"t_bytes32"},{"astId":45501,"contract":"tests/utils/RiftTest.sol:RiftExchangeHarness","label":"checkpoints","offset":0,"slot":"1","type":"t_mapping(t_bytes32,t_struct(BitcoinCheckpoint)47120_storage)"},{"astId":45910,"contract":"tests/utils/RiftTest.sol:RiftExchangeHarness","label":"vaultHashes","offset":0,"slot":"2","type":"t_array(t_bytes32)dyn_storage"},{"astId":45913,"contract":"tests/utils/RiftTest.sol:RiftExchangeHarness","label":"swapHashes","offset":0,"slot":"3","type":"t_array(t_bytes32)dyn_storage"},{"astId":45915,"contract":"tests/utils/RiftTest.sol:RiftExchangeHarness","label":"accumulatedFeeBalance","offset":0,"slot":"4","type":"t_uint256"},{"astId":45917,"contract":"tests/utils/RiftTest.sol:RiftExchangeHarness","label":"feeRouterAddress","offset":0,"slot":"5","type":"t_address"},{"astId":45919,"contract":"tests/utils/RiftTest.sol:RiftExchangeHarness","label":"takerFeeBips","offset":20,"slot":"5","type":"t_uint16"}],"types":{"t_address":{"encoding":"inplace","label":"address","numberOfBytes":"20"},"t_array(t_bytes32)dyn_storage":{"encoding":"dynamic_array","label":"bytes32[]","numberOfBytes":"32","base":"t_bytes32"},"t_bool":{"encoding":"inplace","label":"bool","numberOfBytes":"1"},"t_bytes32":{"encoding":"inplace","label":"bytes32","numberOfBytes":"32"},"t_mapping(t_bytes32,t_struct(BitcoinCheckpoint)47120_storage)":{"encoding":"mapping","key":"t_bytes32","label":"mapping(bytes32 => struct BitcoinCheckpoint)","numberOfBytes":"32","value":"t_struct(BitcoinCheckpoint)47120_storage"},"t_struct(BitcoinCheckpoint)47120_storage":{"encoding":"inplace","label":"struct BitcoinCheckpoint","numberOfBytes":"128","members":[{"astId":47116,"contract":"tests/utils/RiftTest.sol:RiftExchangeHarness","label":"established","offset":0,"slot":"0","type":"t_bool"},{"astId":47119,"contract":"tests/utils/RiftTest.sol:RiftExchangeHarness","label":"tipBlockLeaf","offset":0,"slot":"1","type":"t_struct(BlockLeaf)47113_storage"}]},"t_struct(BlockLeaf)47113_storage":{"encoding":"inplace","label":"struct BlockLeaf","numberOfBytes":"96","members":[{"astId":47108,"contract":"tests/utils/RiftTest.sol:RiftExchangeHarness","label":"blockHash","offset":0,"slot":"0","type":"t_bytes32"},{"astId":47110,"contract":"tests/utils/RiftTest.sol:RiftExchangeHarness","label":"height","offset":0,"slot":"1","type":"t_uint32"},{"astId":47112,"contract":"tests/utils/RiftTest.sol:RiftExchangeHarness","label":"cumulativeChainwork","offset":0,"slot":"2","type":"t_uint256"}]},"t_uint16":{"encoding":"inplace","label":"uint16","numberOfBytes":"2"},"t_uint256":{"encoding":"inplace","label":"uint256","numberOfBytes":"32"},"t_uint32":{"encoding":"inplace","label":"uint32","numberOfBytes":"4"}}},"id":67}