{"abi":[{"type":"constructor","inputs":[{"name":"_mmrRoot","type":"bytes32","internalType":"bytes32"},{"name":"_depositToken","type":"address","internalType":"address"},{"name":"_circuitVerificationKey","type":"bytes32","internalType":"bytes32"},{"name":"_verifier","type":"address","internalType":"address"},{"name":"_feeRouter","type":"address","internalType":"address"},{"name":"_takerFeeBips","type":"uint16","internalType":"uint16"},{"name":"_tipBlockLeaf","type":"tuple","internalType":"struct BlockLeaf","components":[{"name":"blockHash","type":"bytes32","internalType":"bytes32"},{"name":"height","type":"uint32","internalType":"uint32"},{"name":"cumulativeChainwork","type":"uint256","internalType":"uint256"}]}],"stateMutability":"nonpayable"},{"type":"function","name":"accumulatedFees","inputs":[],"outputs":[{"name":"","type":"uint256","internalType":"uint256"}],"stateMutability":"view"},{"type":"function","name":"adminSetFeeRouter","inputs":[{"name":"_feeRouter","type":"address","internalType":"address"}],"outputs":[],"stateMutability":"nonpayable"},{"type":"function","name":"adminSetTakerFeeBips","inputs":[{"name":"_takerFeeBips","type":"uint16","internalType":"uint16"}],"outputs":[],"stateMutability":"nonpayable"},{"type":"function","name":"cancelOwnershipHandover","inputs":[],"outputs":[],"stateMutability":"payable"},{"type":"function","name":"checkpoints","inputs":[{"name":"","type":"bytes32","internalType":"bytes32"}],"outputs":[{"name":"established","type":"bool","internalType":"bool"},{"name":"tipBlockLeaf","type":"tuple","internalType":"struct BlockLeaf","components":[{"name":"blockHash","type":"bytes32","internalType":"bytes32"},{"name":"height","type":"uint32","internalType":"uint32"},{"name":"cumulativeChainwork","type":"uint256","internalType":"uint256"}]}],"stateMutability":"view"},{"type":"function","name":"circuitVerificationKey","inputs":[],"outputs":[{"name":"","type":"bytes32","internalType":"bytes32"}],"stateMutability":"view"},{"type":"function","name":"completeOwnershipHandover","inputs":[{"name":"pendingOwner","type":"address","internalType":"address"}],"outputs":[],"stateMutability":"payable"},{"type":"function","name":"createOrder","inputs":[{"name":"params","type":"tuple","internalType":"struct CreateOrderParams","components":[{"name":"base","type":"tuple","internalType":"struct BaseCreateOrderParams","components":[{"name":"owner","type":"address","internalType":"address"},{"name":"bitcoinScriptPubKey","type":"bytes","internalType":"bytes"},{"name":"salt","type":"bytes32","internalType":"bytes32"},{"name":"confirmationBlocks","type":"uint8","internalType":"uint8"},{"name":"safeBlockLeaf","type":"tuple","internalType":"struct BlockLeaf","components":[{"name":"blockHash","type":"bytes32","internalType":"bytes32"},{"name":"height","type":"uint32","internalType":"uint32"},{"name":"cumulativeChainwork","type":"uint256","internalType":"uint256"}]}]},{"name":"designatedReceiver","type":"address","internalType":"address"},{"name":"depositAmount","type":"uint256","internalType":"uint256"},{"name":"expectedSats","type":"uint64","internalType":"uint64"},{"name":"safeBlockSiblings","type":"bytes32[]","internalType":"bytes32[]"},{"name":"safeBlockPeaks","type":"bytes32[]","internalType":"bytes32[]"}]}],"outputs":[],"stateMutability":"nonpayable"},{"type":"function","name":"eip712Domain","inputs":[],"outputs":[{"name":"fields","type":"bytes1","internalType":"bytes1"},{"name":"name","type":"string","internalType":"string"},{"name":"version","type":"string","internalType":"string"},{"name":"chainId","type":"uint256","internalType":"uint256"},{"name":"verifyingContract","type":"address","internalType":"address"},{"name":"salt","type":"bytes32","internalType":"bytes32"},{"name":"extensions","type":"uint256[]","internalType":"uint256[]"}],"stateMutability":"view"},{"type":"function","name":"feeRouter","inputs":[],"outputs":[{"name":"","type":"address","internalType":"address"}],"stateMutability":"view"},{"type":"function","name":"getTotalOrders","inputs":[],"outputs":[{"name":"","type":"uint256","internalType":"uint256"}],"stateMutability":"view"},{"type":"function","name":"getTotalPayments","inputs":[],"outputs":[{"name":"","type":"uint256","internalType":"uint256"}],"stateMutability":"view"},{"type":"function","name":"lightClientHeight","inputs":[],"outputs":[{"name":"","type":"uint32","internalType":"uint32"}],"stateMutability":"view"},{"type":"function","name":"mmrRoot","inputs":[],"outputs":[{"name":"","type":"bytes32","internalType":"bytes32"}],"stateMutability":"view"},{"type":"function","name":"orderHashes","inputs":[{"name":"","type":"uint256","internalType":"uint256"}],"outputs":[{"name":"","type":"bytes32","internalType":"bytes32"}],"stateMutability":"view"},{"type":"function","name":"owner","inputs":[],"outputs":[{"name":"result","type":"address","internalType":"address"}],"stateMutability":"view"},{"type":"function","name":"ownershipHandoverExpiresAt","inputs":[{"name":"pendingOwner","type":"address","internalType":"address"}],"outputs":[{"name":"result","type":"uint256","internalType":"uint256"}],"stateMutability":"view"},{"type":"function","name":"paymentHashes","inputs":[{"name":"","type":"uint256","internalType":"uint256"}],"outputs":[{"name":"","type":"bytes32","internalType":"bytes32"}],"stateMutability":"view"},{"type":"function","name":"refundOrder","inputs":[{"name":"order","type":"tuple","internalType":"struct Order","components":[{"name":"index","type":"uint256","internalType":"uint256"},{"name":"timestamp","type":"uint64","internalType":"uint64"},{"name":"unlockTimestamp","type":"uint64","internalType":"uint64"},{"name":"amount","type":"uint256","internalType":"uint256"},{"name":"takerFee","type":"uint256","internalType":"uint256"},{"name":"expectedSats","type":"uint64","internalType":"uint64"},{"name":"bitcoinScriptPubKey","type":"bytes","internalType":"bytes"},{"name":"designatedReceiver","type":"address","internalType":"address"},{"name":"owner","type":"address","internalType":"address"},{"name":"salt","type":"bytes32","internalType":"bytes32"},{"name":"confirmationBlocks","type":"uint8","internalType":"uint8"},{"name":"safeBitcoinBlockHeight","type":"uint64","internalType":"uint64"}]}],"outputs":[],"stateMutability":"nonpayable"},{"type":"function","name":"renounceOwnership","inputs":[],"outputs":[],"stateMutability":"payable"},{"type":"function","name":"requestOwnershipHandover","inputs":[],"outputs":[],"stateMutability":"payable"},{"type":"function","name":"serializeLightClientPublicInput","inputs":[{"name":"input","type":"tuple","internalType":"struct LightClientPublicInput","components":[{"name":"priorMmrRoot","type":"bytes32","internalType":"bytes32"},{"name":"newMmrRoot","type":"bytes32","internalType":"bytes32"},{"name":"compressedLeavesHash","type":"bytes32","internalType":"bytes32"},{"name":"tipBlockLeaf","type":"tuple","internalType":"struct BlockLeaf","components":[{"name":"blockHash","type":"bytes32","internalType":"bytes32"},{"name":"height","type":"uint32","internalType":"uint32"},{"name":"cumulativeChainwork","type":"uint256","internalType":"uint256"}]}]}],"outputs":[{"name":"","type":"bytes","internalType":"bytes"}],"stateMutability":"pure"},{"type":"function","name":"settleOrders","inputs":[{"name":"settleOrderParams","type":"tuple[]","internalType":"struct SettleOrderParams[]","components":[{"name":"order","type":"tuple","internalType":"struct Order","components":[{"name":"index","type":"uint256","internalType":"uint256"},{"name":"timestamp","type":"uint64","internalType":"uint64"},{"name":"unlockTimestamp","type":"uint64","internalType":"uint64"},{"name":"amount","type":"uint256","internalType":"uint256"},{"name":"takerFee","type":"uint256","internalType":"uint256"},{"name":"expectedSats","type":"uint64","internalType":"uint64"},{"name":"bitcoinScriptPubKey","type":"bytes","internalType":"bytes"},{"name":"designatedReceiver","type":"address","internalType":"address"},{"name":"owner","type":"address","internalType":"address"},{"name":"salt","type":"bytes32","internalType":"bytes32"},{"name":"confirmationBlocks","type":"uint8","internalType":"uint8"},{"name":"safeBitcoinBlockHeight","type":"uint64","internalType":"uint64"}]},{"name":"payment","type":"tuple","internalType":"struct Payment","components":[{"name":"index","type":"uint256","internalType":"uint256"},{"name":"orderHash","type":"bytes32","internalType":"bytes32"},{"name":"paymentBitcoinBlockLeaf","type":"tuple","internalType":"struct BlockLeaf","components":[{"name":"blockHash","type":"bytes32","internalType":"bytes32"},{"name":"height","type":"uint32","internalType":"uint32"},{"name":"cumulativeChainwork","type":"uint256","internalType":"uint256"}]},{"name":"challengeExpiryTimestamp","type":"uint64","internalType":"uint64"},{"name":"state","type":"uint8","internalType":"enum PaymentState"}]},{"name":"paymentBitcoinBlockSiblings","type":"bytes32[]","internalType":"bytes32[]"},{"name":"paymentBitcoinBlockPeaks","type":"bytes32[]","internalType":"bytes32[]"},{"name":"tipBlockHeight","type":"uint32","internalType":"uint32"}]}],"outputs":[],"stateMutability":"nonpayable"},{"type":"function","name":"submitPaymentProofs","inputs":[{"name":"paymentParams","type":"tuple[]","internalType":"struct SubmitPaymentProofParams[]","components":[{"name":"paymentBitcoinTxid","type":"bytes32","internalType":"bytes32"},{"name":"order","type":"tuple","internalType":"struct Order","components":[{"name":"index","type":"uint256","internalType":"uint256"},{"name":"timestamp","type":"uint64","internalType":"uint64"},{"name":"unlockTimestamp","type":"uint64","internalType":"uint64"},{"name":"amount","type":"uint256","internalType":"uint256"},{"name":"takerFee","type":"uint256","internalType":"uint256"},{"name":"expectedSats","type":"uint64","internalType":"uint64"},{"name":"bitcoinScriptPubKey","type":"bytes","internalType":"bytes"},{"name":"designatedReceiver","type":"address","internalType":"address"},{"name":"owner","type":"address","internalType":"address"},{"name":"salt","type":"bytes32","internalType":"bytes32"},{"name":"confirmationBlocks","type":"uint8","internalType":"uint8"},{"name":"safeBitcoinBlockHeight","type":"uint64","internalType":"uint64"}]},{"name":"paymentBitcoinBlockLeaf","type":"tuple","internalType":"struct BlockLeaf","components":[{"name":"blockHash","type":"bytes32","internalType":"bytes32"},{"name":"height","type":"uint32","internalType":"uint32"},{"name":"cumulativeChainwork","type":"uint256","internalType":"uint256"}]},{"name":"paymentBitcoinBlockSiblings","type":"bytes32[]","internalType":"bytes32[]"},{"name":"paymentBitcoinBlockPeaks","type":"bytes32[]","internalType":"bytes32[]"}]},{"name":"proof","type":"bytes","internalType":"bytes"}],"outputs":[],"stateMutability":"nonpayable"},{"type":"function","name":"submitPaymentProofs","inputs":[{"name":"paymentParams","type":"tuple[]","internalType":"struct SubmitPaymentProofParams[]","components":[{"name":"paymentBitcoinTxid","type":"bytes32","internalType":"bytes32"},{"name":"order","type":"tuple","internalType":"struct Order","components":[{"name":"index","type":"uint256","internalType":"uint256"},{"name":"timestamp","type":"uint64","internalType":"uint64"},{"name":"unlockTimestamp","type":"uint64","internalType":"uint64"},{"name":"amount","type":"uint256","internalType":"uint256"},{"name":"takerFee","type":"uint256","internalType":"uint256"},{"name":"expectedSats","type":"uint64","internalType":"uint64"},{"name":"bitcoinScriptPubKey","type":"bytes","internalType":"bytes"},{"name":"designatedReceiver","type":"address","internalType":"address"},{"name":"owner","type":"address","internalType":"address"},{"name":"salt","type":"bytes32","internalType":"bytes32"},{"name":"confirmationBlocks","type":"uint8","internalType":"uint8"},{"name":"safeBitcoinBlockHeight","type":"uint64","internalType":"uint64"}]},{"name":"paymentBitcoinBlockLeaf","type":"tuple","internalType":"struct BlockLeaf","components":[{"name":"blockHash","type":"bytes32","internalType":"bytes32"},{"name":"height","type":"uint32","internalType":"uint32"},{"name":"cumulativeChainwork","type":"uint256","internalType":"uint256"}]},{"name":"paymentBitcoinBlockSiblings","type":"bytes32[]","internalType":"bytes32[]"},{"name":"paymentBitcoinBlockPeaks","type":"bytes32[]","internalType":"bytes32[]"}]},{"name":"blockProofParams","type":"tuple","internalType":"struct BlockProofParams","components":[{"name":"priorMmrRoot","type":"bytes32","internalType":"bytes32"},{"name":"newMmrRoot","type":"bytes32","internalType":"bytes32"},{"name":"compressedBlockLeaves","type":"bytes","internalType":"bytes"},{"name":"tipBlockLeaf","type":"tuple","internalType":"struct BlockLeaf","components":[{"name":"blockHash","type":"bytes32","internalType":"bytes32"},{"name":"height","type":"uint32","internalType":"uint32"},{"name":"cumulativeChainwork","type":"uint256","internalType":"uint256"}]}]},{"name":"proof","type":"bytes","internalType":"bytes"}],"outputs":[],"stateMutability":"nonpayable"},{"type":"function","name":"syntheticBitcoin","inputs":[],"outputs":[{"name":"","type":"address","internalType":"address"}],"stateMutability":"view"},{"type":"function","name":"takerFeeBips","inputs":[],"outputs":[{"name":"","type":"uint16","internalType":"uint16"}],"stateMutability":"view"},{"type":"function","name":"transferOwnership","inputs":[{"name":"newOwner","type":"address","internalType":"address"}],"outputs":[],"stateMutability":"payable"},{"type":"function","name":"updateLightClient","inputs":[{"name":"blockProofParams","type":"tuple","internalType":"struct BlockProofParams","components":[{"name":"priorMmrRoot","type":"bytes32","internalType":"bytes32"},{"name":"newMmrRoot","type":"bytes32","internalType":"bytes32"},{"name":"compressedBlockLeaves","type":"bytes","internalType":"bytes"},{"name":"tipBlockLeaf","type":"tuple","internalType":"struct BlockLeaf","components":[{"name":"blockHash","type":"bytes32","internalType":"bytes32"},{"name":"height","type":"uint32","internalType":"uint32"},{"name":"cumulativeChainwork","type":"uint256","internalType":"uint256"}]}]},{"name":"proof","type":"bytes","internalType":"bytes"}],"outputs":[],"stateMutability":"nonpayable"},{"type":"function","name":"verifier","inputs":[],"outputs":[{"name":"","type":"address","internalType":"address"}],"stateMutability":"view"},{"type":"function","name":"verifyBlockInclusion","inputs":[{"name":"blockLeaf","type":"tuple","internalType":"struct BlockLeaf","components":[{"name":"blockHash","type":"bytes32","internalType":"bytes32"},{"name":"height","type":"uint32","internalType":"uint32"},{"name":"cumulativeChainwork","type":"uint256","internalType":"uint256"}]},{"name":"siblings","type":"bytes32[]","internalType":"bytes32[]"},{"name":"peaks","type":"bytes32[]","internalType":"bytes32[]"}],"outputs":[],"stateMutability":"view"},{"type":"function","name":"verifyProof","inputs":[{"name":"proofPublicInput","type":"tuple","internalType":"struct ProofPublicInput","components":[{"name":"proofType","type":"uint8","internalType":"enum ProofType"},{"name":"payments","type":"tuple[]","internalType":"struct PaymentPublicInput[]","components":[{"name":"paymentBitcoinTxid","type":"bytes32","internalType":"bytes32"},{"name":"paymentBitcoinBlockHash","type":"bytes32","internalType":"bytes32"},{"name":"orderHash","type":"bytes32","internalType":"bytes32"}]},{"name":"lightClient","type":"tuple","internalType":"struct LightClientPublicInput","components":[{"name":"priorMmrRoot","type":"bytes32","internalType":"bytes32"},{"name":"newMmrRoot","type":"bytes32","internalType":"bytes32"},{"name":"compressedLeavesHash","type":"bytes32","internalType":"bytes32"},{"name":"tipBlockLeaf","type":"tuple","internalType":"struct BlockLeaf","components":[{"name":"blockHash","type":"bytes32","internalType":"bytes32"},{"name":"height","type":"uint32","internalType":"uint32"},{"name":"cumulativeChainwork","type":"uint256","internalType":"uint256"}]}]}]},{"name":"proof","type":"bytes","internalType":"bytes"}],"outputs":[],"stateMutability":"view"},{"type":"function","name":"withdrawFees","inputs":[],"outputs":[],"stateMutability":"nonpayable"},{"type":"event","name":"BitcoinLightClientUpdated","inputs":[{"name":"priorMmrRoot","type":"bytes32","indexed":false,"internalType":"bytes32"},{"name":"newMmrRoot","type":"bytes32","indexed":false,"internalType":"bytes32"}],"anonymous":false},{"type":"event","name":"OrdersUpdated","inputs":[{"name":"orders","type":"tuple[]","indexed":false,"internalType":"struct Order[]","components":[{"name":"index","type":"uint256","internalType":"uint256"},{"name":"timestamp","type":"uint64","internalType":"uint64"},{"name":"unlockTimestamp","type":"uint64","internalType":"uint64"},{"name":"amount","type":"uint256","internalType":"uint256"},{"name":"takerFee","type":"uint256","internalType":"uint256"},{"name":"expectedSats","type":"uint64","internalType":"uint64"},{"name":"bitcoinScriptPubKey","type":"bytes","internalType":"bytes"},{"name":"designatedReceiver","type":"address","internalType":"address"},{"name":"owner","type":"address","internalType":"address"},{"name":"salt","type":"bytes32","internalType":"bytes32"},{"name":"confirmationBlocks","type":"uint8","internalType":"uint8"},{"name":"safeBitcoinBlockHeight","type":"uint64","internalType":"uint64"}]},{"name":"context","type":"uint8","indexed":false,"internalType":"enum OrderUpdateContext"}],"anonymous":false},{"type":"event","name":"OwnershipHandoverCanceled","inputs":[{"name":"pendingOwner","type":"address","indexed":true,"internalType":"address"}],"anonymous":false},{"type":"event","name":"OwnershipHandoverRequested","inputs":[{"name":"pendingOwner","type":"address","indexed":true,"internalType":"address"}],"anonymous":false},{"type":"event","name":"OwnershipTransferred","inputs":[{"name":"oldOwner","type":"address","indexed":true,"internalType":"address"},{"name":"newOwner","type":"address","indexed":true,"internalType":"address"}],"anonymous":false},{"type":"event","name":"PaymentsUpdated","inputs":[{"name":"payments","type":"tuple[]","indexed":false,"internalType":"struct Payment[]","components":[{"name":"index","type":"uint256","internalType":"uint256"},{"name":"orderHash","type":"bytes32","internalType":"bytes32"},{"name":"paymentBitcoinBlockLeaf","type":"tuple","internalType":"struct BlockLeaf","components":[{"name":"blockHash","type":"bytes32","internalType":"bytes32"},{"name":"height","type":"uint32","internalType":"uint32"},{"name":"cumulativeChainwork","type":"uint256","internalType":"uint256"}]},{"name":"challengeExpiryTimestamp","type":"uint64","internalType":"uint64"},{"name":"state","type":"uint8","internalType":"enum PaymentState"}]},{"name":"context","type":"uint8","indexed":false,"internalType":"enum PaymentUpdateContext"}],"anonymous":false},{"type":"error","name":"AlreadyInitialized","inputs":[]},{"type":"error","name":"BlockNotConfirmed","inputs":[]},{"type":"error","name":"BlockNotInChain","inputs":[]},{"type":"error","name":"ChainworkTooLow","inputs":[]},{"type":"error","name":"CheckpointNotEstablished","inputs":[]},{"type":"error","name":"DepositAmountTooLow","inputs":[]},{"type":"error","name":"InvalidDecimals","inputs":[{"name":"actual","type":"uint8","internalType":"uint8"},{"name":"expected","type":"uint8","internalType":"uint8"}]},{"type":"error","name":"InvalidOrderHash","inputs":[{"name":"actual","type":"bytes32","internalType":"bytes32"},{"name":"expected","type":"bytes32","internalType":"bytes32"}]},{"type":"error","name":"InvalidScriptPubKey","inputs":[]},{"type":"error","name":"NewOwnerIsZeroAddress","inputs":[]},{"type":"error","name":"NoFeeToWithdraw","inputs":[]},{"type":"error","name":"NoHandoverRequest","inputs":[]},{"type":"error","name":"NoPaymentsToSubmit","inputs":[]},{"type":"error","name":"NotEnoughConfirmationBlocks","inputs":[]},{"type":"error","name":"OrderDoesNotExist","inputs":[]},{"type":"error","name":"OrderNotLive","inputs":[]},{"type":"error","name":"OrderStillActive","inputs":[]},{"type":"error","name":"PaymentDoesNotExist","inputs":[]},{"type":"error","name":"PaymentNotProved","inputs":[]},{"type":"error","name":"SatOutputTooLow","inputs":[]},{"type":"error","name":"StillInChallengePeriod","inputs":[]},{"type":"error","name":"Unauthorized","inputs":[]}],"bytecode":{"object":"0x610180806040523461034a5780612fdd803803809161001e8285610375565b8339810103610120811261034a5781519161003b60208201610398565b60408201519061004d60608401610398565b9261005a60808201610398565b9560a08201519561ffff8716870361034a5760609060bf19011261034a5760405191606083016001600160401b038111848210176103615760405260c0810151835260e08101519063ffffffff8216820361034a5761010091602085015201516040830152306080524660a05260a06040516100d7604082610375565b600c815260208101906b5269667445786368616e676560a01b825260405191610101604084610375565b60058352602083019164302e302e3160d81b8352519020915190208160c0528060e052604051917f8b73c3c69bb8fe3d512ecc4cf759cc79239f7b179b0ffacaa9a75d522b39400f8352602083015260408201524660608201523060808201522061010052805f5560405191604083019083821060018060401b0383111761036157600392604092835260018552602085019182525f526001602052815f209351151560ff8019865416911617845551805160018501556002840163ffffffff60208301511663ffffffff19825416179055015191015533638b78c6d81955335f7f8be0079c531659141344cd1fd0a4f28419497f9722a3daafe3b4186f6b6457e08180a360405163313ce56760e01b81526020816004816001600160a01b0386165afa8015610356575f90610315575b60ff915016600881036102fe5750610120526101405261016052600580546001600160b01b0319166001600160a01b039093169290921760a09190911b61ffff60a01b16179055604051612c3090816103ad8239608051816109d9015260a051816109b6015260c05181610c3b015260e05181610c61015261010051816109930152610120518181816106e401528181610b660152818161108b0152818161112f01526117fb01526101405181818161150e0152611fc70152610160518181816115630152611f150152f35b63047e54d360e31b5f52600452600860245260445ffd5b506020813d60201161034e575b8161032f60209383610375565b8101031261034a575160ff8116810361034a5760ff90610232565b5f80fd5b3d9150610322565b6040513d5f823e3d90fd5b634e487b7160e01b5f52604160045260245ffd5b601f909101601f19168101906001600160401b0382119082101761036157604052565b51906001600160a01b038216820361034a5756fe60806040526004361015610011575f80fd5b5f3560e01c80631127a80b146118e15780631993d454146117465780631ea7ec04146115db57806325692962146115925780632b7ac3f31461154e578063375f16a7146115315780633d7b22b3146114f75780634570a573146110be578063476343ee1461105b57806354d1f13d14611017578063587f5ed714610ffa578063592b664914610efd578063708f29a614610ee0578063715018a614610e975780637c2301a614610e1a57806384b0196e14610d435780638da5cb5b14610d1757806394006d18146107375780639a73f4f514610713578063a0d9e241146106cf578063a24462ea1461063f578063be8cc7ee14610541578063c286befa146104fe578063cc38cd7d146104c1578063d21ddc61146104a5578063df69558c1461046d578063e58e0fe314610425578063eb5e91ff146103c2578063f04e283e14610375578063f29ebf611461034d578063f2fde38b14610310578063f5364364146101ba5763fee81cf414610184575f80fd5b346101b65760203660031901126101b65761019d611ae0565b63389a75e1600c525f52602080600c2054604051908152f35b5f80fd5b346101b65760603660031901126101b6576004356001600160401b0381116101b6576101ea903690600401611a8c565b6024356001600160401b0381116101b657806004019260c060031983360301126101b6576044356001600160401b0381116101b65761022d903690600401611a5f565b908535956024850135966064860161024f6102483683611a1f565b8a846124d4565b60848701359063ffffffff821682036101b6577f5c35180c5b92fc495184f0a3363ce073073d6116f2960f867c3806435a40e933996102b26102ab6044966102a161030b9d6102ff9c6102da9861270d565b98909c01906122a2565b3691611b0a565b6020815191012090604051946102c78661197a565b8552602085015260408401523690611a1f565b6060820152604051916102ec8361195f565b6002835260208301526040820152611f0b565b60405191829182612253565b0390a1005b60203660031901126101b657610324611ae0565b61032c6125e8565b8060601b156103405761033e90612604565b005b637448fbae5f526004601cfd5b346101b6575f3660031901126101b6576005546040516001600160a01b039091168152602090f35b60203660031901126101b657610389611ae0565b6103916125e8565b63389a75e1600c52805f526020600c2090815442116103b5575f61033e9255612604565b636f5e88185f526004601cfd5b346101b65760203660031901126101b6576004355f526001602052608060405f206104236103f7600160ff8454169301611bf6565b60405192151583526020830190604080918051845263ffffffff60208201511660208501520151910152565bf35b346101b65760203660031901126101b65760043561ffff811681036101b65761044c6125e8565b6005805461ffff60a01b191660a09290921b61ffff60a01b16919091179055005b346101b65760203660031901126101b6576004356002548110156101b657610496602091611932565b90549060031b1c604051908152f35b346101b6575f3660031901126101b65760205f54604051908152f35b346101b6575f3660031901126101b65760206104f05f545f52600160205263ffffffff600260405f2001541690565b63ffffffff60405191168152f35b346101b65760203660031901126101b657610517611ae0565b61051f6125e8565b600580546001600160a01b0319166001600160a01b0392909216919091179055005b346101b65760403660031901126101b6576004356001600160401b0381116101b657610571903690600401611a8c565b602435916001600160401b0383116101b6576102ff61030b926105e16105bc7f5c35180c5b92fc495184f0a3363ce073073d6116f2960f867c3806435a40e933963690600401611a5f565b9290946105dc5f545f52600160205263ffffffff600260405f2001541690565b61270d565b6040949194516105f08161195f565b5f81525f60208201525f60408201526040519061060c8261197a565b5f82525f60208301525f604083015260608201526040519161062d8361195f565b5f835260208301526040820152611f0b565b346101b657366003190160a081126101b6576060136101b6576040516106648161195f565b600435815260243563ffffffff811681036101b657602082015260443560408201526064356001600160401b0381116101b6576106a5903690600401611bdb565b90608435916001600160401b0383116101b6576106c961033e933690600401611bdb565b916122d4565b346101b6575f3660031901126101b6576040517f00000000000000000000000000000000000000000000000000000000000000006001600160a01b03168152602090f35b346101b6575f3660031901126101b657602061ffff60055460a01c16604051908152f35b346101b65760203660031901126101b6576004356001600160401b0381116101b65760c060031982360301126101b6576040519060c082018281106001600160401b03821117610bf75760405280600401356001600160401b0381116101b657810160e060031982360301126101b657604051906107b482611995565b6107c060048201611af6565b82526024810135906001600160401b0382116101b6576107e96108139260043691840101611b4f565b60208401526044810135604084015261080460648201611b6d565b60608401526084369101611a1f565b6080820152825261082660248201611af6565b6020830190815260408301926044830135845261084560648401611b7b565b906060810191825260848401356001600160401b0381116101b6576108709060043691870101611bdb565b936080820194855260a4810135906001600160401b0382116101b657600461089b9236920101611bdb565b9360a08201948552600254946108af611d3d565b5061ffff60055460a01c1691875183155f14610ce9576001905b10610cda576103e86001600160401b0386511610610ccb57600260ff6060865101511610610cbc576108ff6020855101516129ba565b15610cad576109189160808551015191519051916122d4565b8551818102918183041490151715610c9957612710900460ff60608351015116611c200263ffffffff8116908103610c995761095c6001600160401b039142611d30565b1693865193828503948511610c99575183516020810151925190516001600160a01b0390811694911692916001600160401b0316907f000000000000000000000000000000000000000000000000000000000000000089467f000000000000000000000000000000000000000000000000000000000000000014307f0000000000000000000000000000000000000000000000000000000000000000141615610c0b575b875160409081015181519384526020840152820152606090205b95519663ffffffff6020608060ff60608c0151169a0151015116986040519a610a428c6119b0565b8b526001600160401b03421660208c015260408b015260608a0152608089015260a088015260c087015260e0860152610100850152610120840152610140830152610160820152610a928161239c565b60025490600160401b821015610bf757610ab7826001610acf9401600255600261194a565b90919082549060031b91821b915f19901b1916179055565b610ad7611d96565b90610ae182611dd6565b52610aeb81611dd6565b50604051604081016040825282518091526060820190602060608260051b8501019401915f905b828210610bcc5750505050807f3310fbf3c1854748017a4d2421aba183759f0ed6f8fdecf46a7505ba01a5a953925f60208301520390a15160609081523060405233901b602c526323b872dd60601b600c527f000000000000000000000000000000000000000000000000000000000000000060205f6064601c82855af1908160015f51141615610b9f57005b3b153d171015610bab57005b637939f4245f526004601cfd5b634e487b7160e01b5f52602160045260245ffd5b90919294602080610be9600193605f198982030186528951611df7565b970192019201909291610b12565b634e487b7160e01b5f52604160045260245ffd5b5050610a1a8960a06040517f8b73c3c69bb8fe3d512ecc4cf759cc79239f7b179b0ffacaa9a75d522b39400f81527f000000000000000000000000000000000000000000000000000000000000000060208201527f00000000000000000000000000000000000000000000000000000000000000006040820152466060820152306080820152209150610a00565b634e487b7160e01b5f52601160045260245ffd5b63fad7db0760e01b5f5260045ffd5b63bdf8f2b360e01b5f5260045ffd5b63fde5943160e01b5f5260045ffd5b6355fcd02760e01b5f5260045ffd5b836127100161ffff8111610c995761ffff5f1991160161ffff8111610c99578461ffff8092160416906108c9565b346101b6575f3660031901126101b657638b78c6d819546040516001600160a01b039091168152602090f35b346101b6575f3660031901126101b657610dbc6040610dc9815191610d6881846119e7565b600c83526b5269667445786368616e676560a01b60208401528051610d8d82826119e7565b6005815264302e302e3160d81b60208201528151948594600f60f81b865260e0602087015260e0860190611abc565b9184830390850152611abc565b4660608301523060808301525f60a083015281810360c083015260206060519182815201906080905f5b818110610e01575050500390f35b8251845285945060209384019390920191600101610df3565b346101b65760c03660031901126101b657610e93604051610e3a8161197a565b600435815260243560208201526044356040820152610e5a366064611a1f565b6060820152610e70604051916020830190611ec5565b60c08152610e7f60e0826119e7565b604051918291602083526020830190611abc565b0390f35b5f3660031901126101b657610eaa6125e8565b5f638b78c6d819547f8be0079c531659141344cd1fd0a4f28419497f9722a3daafe3b4186f6b6457e08280a35f638b78c6d81955005b346101b6575f3660031901126101b6576020600354604051908152f35b346101b65760403660031901126101b6576004356001600160401b0381116101b6578060040160c060031983360301126101b6576024356001600160401b0381116101b657610f50903690600401611a5f565b918035610f816102ab60248701359360446064890198610f7a610f73368c611a1f565b88886124d4565b01906122a2565b80516020919091012060405192610f996020856119e7565b5f84525f805b818110610fe357505095610fbe9161033e97604051946102c78661197a565b606082015260405191610fd08361195f565b6001835260208301526040820152611f0b565b602090610fee612079565b82828901015201610f9f565b346101b6575f3660031901126101b6576020600454604051908152f35b5f3660031901126101b65763389a75e1600c52335f525f6020600c2055337ffa7b8eab7da67f412cc9575ed43464468f9bfbae89d1675917346ca6d8fe3c925f80a2005b346101b6575f3660031901126101b65760045480156110af575f60045560055461033e91906001600160a01b03167f00000000000000000000000000000000000000000000000000000000000000006123cd565b630c5214e560e31b5f5260045ffd5b346101b65760203660031901126101b6576004356001600160401b0381116101b6576110ee903690600401611a8c565b906110f882612097565b9061110283611a08565b9261111060405194856119e7565b808452601f1961111f82611a08565b015f5b8181106114e057505f92917f00000000000000000000000000000000000000000000000000000000000000009150835b81811061126357868661116787600454611d30565b600455604051604081016040825282518091526020606083019301905f5b81811061124357505050807f5c35180c5b92fc495184f0a3363ce073073d6116f2960f867c3806435a40e93392600160208301520390a1604051604081016040825282518091526060820190602060608260051b8501019401915f905b82821061121857600160208601527f3310fbf3c1854748017a4d2421aba183759f0ed6f8fdecf46a7505ba01a5a95385870386a1005b90919294602080611235600193605f198982030186528951611df7565b9701920192019092916111e2565b909193602060e08261125860019489516121f1565b019501929101611185565b602061127082848761210b565b0161128d6112866112813684612191565b6124b3565b9135611906565b90549060031b1c036114d15760e06112a682848761210b565b013560028110156101b6576112ba8161212e565b6114c2576001600160401b036112dc60c06112d684868961210b565b01611c24565b1642106114b3576112ff6112fa6112f483858861210b565b80612138565b61235f565b604061130c83858861210b565b0135810361148f575060019061138b61133236606061132c85888b61210b565b01611a1f565b848761134d61134286848461210b565b61010081019061214e565b9060ff61138461014061137e6112f48b61137661136b828c8c61210b565b61012081019061214e565b9a909961210b565b01612183565b169461241e565b6113a961139982858861210b565b6113a4369180612138565b611c38565b5f60608201525f60808201526113cb6113c18261239c565b610ab78351611932565b6113d5828a611de3565b526113e08189611de3565b5061143d6113fb3660206113f585888b61210b565b01612191565b9683608089015261142561140e896124b3565b610ab7602061141e878a8d61210b565b0135611906565b60806114356112f485888b61210b565b013590611d30565b9561147361145a60e06114546112f486898c61210b565b01611d1c565b606061146a6112f486898c61210b565b013590876123cd565b61147d8289611de3565b526114888188611de3565b5001611152565b604061149c83858861210b565b0135638f83aff160e01b5f5260045260245260445ffd5b632d5c37f560e21b5f5260045ffd5b6304261aed60e21b5f5260045ffd5b636f8e482b60e11b5f5260045ffd5b6020906114eb611d3d565b82828901015201611122565b346101b6575f3660031901126101b65760206040517f00000000000000000000000000000000000000000000000000000000000000008152f35b346101b6575f3660031901126101b6576020600254604051908152f35b346101b6575f3660031901126101b6576040517f00000000000000000000000000000000000000000000000000000000000000006001600160a01b03168152602090f35b5f3660031901126101b65763389a75e1600c52335f526202a30042016020600c2055337fdbf36a107da19e49527a7176a1babf963b4b0ff8cde35ee35d6cd8f1f9ac7e1d5f80a2005b346101b65760403660031901126101b6576004356001600160401b0381116101b657803603906101006003198301126101b6576040519161161b8361195f565b816004013560038110156101b657835260248201356001600160401b0381116101b6578201366023820112156101b657600481013561165981611a08565b9161166760405193846119e7565b818352602060046060828601940283010101903682116101b657602401915b81831061170a57505050602084015260c0604319909101126101b6576116d7604051916116b28361197a565b60448101358352606481013560208401526084810135604084015260a4369101611a1f565b60608201526040820152602435906001600160401b0382116101b65761170461033e923690600401611a5f565b91611f0b565b6060833603126101b65760206060916040516117258161195f565b85358152828601358382015260408601356040820152815201920191611686565b346101b65760203660031901126101b6576004356001600160401b0381116101b6578060040161018060031983360301126101b6576117848161235f565b5060648201359182156118d2576001600160401b036117a560448301611c24565b1642106118c3576117f86117bd61181f933690611c38565b935f60608601525f60808601526117e06117d68661239c565b610ab78751611932565b60846117ef6101048501611d1c565b93013590611d30565b907f00000000000000000000000000000000000000000000000000000000000000006123cd565b611827611d96565b9061183182611dd6565b5261183b81611dd6565b50604051604081016040825282518091526060820190602060608260051b8501019401915f905b82821061189857600260208601527f3310fbf3c1854748017a4d2421aba183759f0ed6f8fdecf46a7505ba01a5a95385870386a1005b909192946020806118b5600193605f198982030186528951611df7565b970192019201909291611862565b631ef96db360e21b5f5260045ffd5b6352bfa29d60e01b5f5260045ffd5b346101b65760203660031901126101b6576004356003548110156101b6576104966020915b60035481101561191e5760035f5260205f2001905f90565b634e487b7160e01b5f52603260045260245ffd5b60025481101561191e5760025f5260205f2001905f90565b805482101561191e575f5260205f2001905f90565b606081019081106001600160401b03821117610bf757604052565b608081019081106001600160401b03821117610bf757604052565b60a081019081106001600160401b03821117610bf757604052565b61018081019081106001600160401b03821117610bf757604052565b604081019081106001600160401b03821117610bf757604052565b90601f801991011681019081106001600160401b03821117610bf757604052565b6001600160401b038111610bf75760051b60200190565b91908260609103126101b657604051611a378161195f565b809280358252602081013563ffffffff811681036101b6576020830152604090810135910152565b9181601f840112156101b6578235916001600160401b0383116101b657602083818601950101116101b657565b9181601f840112156101b6578235916001600160401b0383116101b6576020808501948460051b0101116101b657565b805180835260209291819084018484015e5f828201840152601f01601f1916010190565b600435906001600160a01b03821682036101b657565b35906001600160a01b03821682036101b657565b9291926001600160401b038211610bf75760405191611b33601f8201601f1916602001846119e7565b8294818452818301116101b6578281602093845f960137010152565b9080601f830112156101b657816020611b6a93359101611b0a565b90565b359060ff821682036101b657565b35906001600160401b03821682036101b657565b929190611b9b81611a08565b93611ba960405195866119e7565b602085838152019160051b81019283116101b657905b828210611bcb57505050565b8135815260209182019101611bbf565b9080601f830112156101b657816020611b6a93359101611b8f565b90604051611c038161195f565b6040600282948054845263ffffffff60018201541660208501520154910152565b356001600160401b03811681036101b65790565b919091610180818403126101b65760405190611c53826119b0565b819381358352611c6560208301611b7b565b6020840152611c7660408301611b7b565b60408401526060820135606084015260808201356080840152611c9b60a08301611b7b565b60a084015260c0820135906001600160401b0382116101b65782611cc96101609492611d1794869401611b4f565b60c0860152611cda60e08201611af6565b60e0860152611cec6101008201611af6565b610100860152610120810135610120860152611d0b6101408201611b6d565b61014086015201611b7b565b910152565b356001600160a01b03811681036101b65790565b91908201809211610c9957565b60405190611d4a826119b0565b5f610160838281528260208201528260408201528260608201528260808201528260a0820152606060c08201528260e08201528261010082015282610120820152826101408201520152565b60408051909190611da783826119e7565b6001815291601f1901825f5b828110611dbf57505050565b602090611dca611d3d565b82828501015201611db3565b80511561191e5760200190565b805182101561191e5760209160051b010190565b90815181526001600160401b0360208301511660208201526001600160401b03604083015116604082015260608201516060820152608082015160808201526001600160401b0360a08301511660a08201526101606001600160401b0381611e7060c086015161018060c0870152610180860190611abc565b9460018060a01b0360e08201511660e086015260018060a01b036101008201511661010086015261012081015161012086015260ff6101408201511661014086015201511691015290565b60031115610bb857565b90606080611f09938051845260208101516020850152604081015160408501520151910190604080918051845263ffffffff60208201511660208501520151910152565b565b9060018060a01b037f000000000000000000000000000000000000000000000000000000000000000016604051926020808501528361014081018251611f5081611ebb565b604083015260208301519061010060608401528151809152602061016084019201905f5b81811061204757505050611f936040611fa19401516080840190611ec5565b03601f1981018552846119e7565b803b156101b657611ffc60205f9486946040519788968795869463020a49e360e51b86527f00000000000000000000000000000000000000000000000000000000000000006004870152606060248701526064860190611abc565b84810360031901604486015281815292858401378181018401889052601f01601f1916010301915afa801561203c576120325750565b5f611f09916119e7565b6040513d5f823e3d90fd5b919493509160206060600192604088518051835284810151858401520151604082015201950191019187939492611f74565b604051906120868261195f565b5f6040838281528260208201520152565b906120a182611a08565b6120ae60405191826119e7565b82815280926120bf601f1991611a08565b01905f5b8281106120cf57505050565b6020906040516120de81611995565b5f81525f838201526120ee612079565b60408201525f60608201525f6080820152828285010152016120c3565b919081101561191e5760051b8101359061015e19813603018212156101b6570190565b60021115610bb857565b90359061017e19813603018212156101b6570190565b903590601e19813603018212156101b657018035906001600160401b0382116101b657602001918160051b360383136101b657565b3560ff811681036101b65790565b91909160e0818403126101b65760c0604051916121ad83611995565b6121c98395823585526020830135602086015260408301611a1f565b60408401526121da60a08201611b7b565b606084015201359060028210156101b65760800152565b608060c091805184526020810151602085015261223060408201516040860190604080918051845263ffffffff60208201511660208501520151910152565b6001600160401b0360608201511660a085015201519161224f8361212e565b0152565b9190604083016040845281518091526020606085019201905f5b8181106122825750919391505060205f910152565b909192602060e08261229760019488516121f1565b01940192910161226d565b903590601e19813603018212156101b657018035906001600160401b0382116101b6576020019181360383136101b657565b9063ffffffff61230783516020850194604084875116910151919091606092604051928352602083015260408201522090565b92511692600163ffffffff61232f5f545f52600160205263ffffffff600260405f2001541690565b16019163ffffffff8311610c9957612349945f5494612641565b1561235057565b632814065160e01b5f5260045ffd5b61237d61237461236f3684611c38565b61239c565b9135600261194a565b90549060031b1c810361238d5790565b635dcaf2d760e01b5f5260045ffd5b6040516123c7816123b96020820194602086526040830190611df7565b03601f1981018352826119e7565b51902090565b919060145260345263a9059cbb60601b5f5260205f6044601082855af1908160015f51141615612400575b50505f603452565b3b153d171015612411575f806123f8565b6390b8ec185f526004601cfd5b9493919261243461243c92612443953691611b8f565b923691611b8f565b90846122d4565b63ffffffff60206124675f545f52600160205263ffffffff600260405f2001541690565b930151169063ffffffff5f1991160163ffffffff8111610c995763ffffffff160163ffffffff8111610c995763ffffffff8091169116106124a457565b630a47293560e31b5f5260045ffd5b6040516124c46020820180936121f1565b60e081526123c7610100826119e7565b9190915f548084146125e257815f52600160205260405f2061250d6001604051926124fe846119cc565b60ff8154161515845201611bf6565b602082015251156125d3575f526001602052600360405f200154604083015111156125c4577f4ecbd24cd7522746649cae9ac63fd99619cc85837ae3447a114bbbc3a804349692604092600384805192612566846119cc565b6001845260208401908152845f526001602052815f209351151560ff8019865416911617845551805160018501556002840163ffffffff60208301511663ffffffff198254161790550151910155805f5582519182526020820152a1565b6307800bf560e21b5f5260045ffd5b63e1965c6560e01b5f5260045ffd5b50505050565b638b78c6d8195433036125f757565b6382b429005f526004601cfd5b60018060a01b031680638b78c6d819547f8be0079c531659141344cd1fd0a4f28419497f9722a3daafe3b4186f6b6457e05f80a3638b78c6d81955565b939591929490955f945b845186101561269d57600188811c988116036126805761266b8686611de3565b515f52602052600160405f20955b019461264b565b61268a8686611de3565b51905f52602052600160405f2095612679565b95929650925092505f935f5b825181101561270357816126bd8285611de3565b51146126cb576001016126a9565b50509091925060015b156126fc576126e29061295e565b9081156126fc5763ffffffff165f5260205260405f201490565b5050505f90565b50509091926126d4565b909192831561294f5761271f84611a08565b9061272d60405192836119e7565b848252601f1961273c86611a08565b015f5b818110612938575050819061275386612097565b91600354915f5b8881101561292d5761276c8185611d30565b8160051b89013560de198a3603018112156101b6578901876001600160401b0361282a6101606112d6602086016127a66112fa8289612138565b966127dd8a60408301986040516127bc8161195f565b843581528a3560208201528b60408201526127d78383611de3565b52611de3565b50612825876127ef60a084018461214e565b906127fd60c086018661214e565b92909160ff61281d61281561014061137e8c8c612138565b963690611a1f565b95169461241e565b612138565b1663ffffffff8b16036001600160401b038111610c99576001600160401b03166085026001600160401b038116908103610c995761e3b3016001600160401b038111610c99576001600160401b036103e88161012c9316041601906001600160401b038211610c99576001600160401b036128aa816128c7941642611d30565b1692604051946128b986611995565b855260208501523690611a1f565b604083015260608201525f60808201526128e18287611de3565b526128ec8186611de3565b506129006128fa8287611de3565b516124b3565b90600354600160401b811015610bf757600192610ab782856129279401600355600361194a565b0161275a565b509450945050935050565b602090612943612079565b8282870101520161273f565b630b35156b60e31b5f5260045ffd5b805180156129b4575f198101908111610c995761297b9082611de3565b519080515f198101908111610c9957805b61299557505090565b5f1901916129a38383611de3565b515f526020528160405f209261298c565b50505f90565b805160168114612bb85760178114612b415760198114612a70576022146129e057505f90565b80511561191e576020810180516001600160f81b0319168015612a5257605160f81b14612a0d5750505f90565b81511561191e57516001600160f81b031916605160f81b149081612a2f575090565b809150516001101561191e57602101516001600160f81b031916600160fd1b1490565b5081511561191e57516001600160f81b031916159081612a2f575090565b5080511561191e5760208101516001600160f81b031916603b60f91b149081612b1a575b81612af3575b81612acc575b81612aa9575090565b809150516018101561191e57603801516001600160f81b031916602b60fa1b1490565b809150516017101561191e5760378101516001600160f81b031916601160fb1b1490612aa0565b809150516002101561191e5760228101516001600160f81b031916600560fa1b1490612a9a565b809150516001101561191e5760218101516001600160f81b03191660a960f81b1490612a94565b5080511561191e5760208101516001600160f81b03191660a960f81b149081612b91575b81612b6e575090565b809150516016101561191e57603601516001600160f81b031916608760f81b1490565b809150516001101561191e5760218101516001600160f81b031916600560fa1b1490612b65565b1561191e5760208101516001600160f81b031916159081612bd7575090565b809150516001101561191e57602101516001600160f81b031916600560fa1b149056fea2646970667358221220e9f458ea5015c41e9f56023634dbb5070cd28896a452c7c0b07190edb695888464736f6c634300081c0033","linkReferences":{}},"methodIdentifiers":{"accumulatedFees()":"587f5ed7","adminSetFeeRouter(address)":"c286befa","adminSetTakerFeeBips(uint16)":"e58e0fe3","cancelOwnershipHandover()":"54d1f13d","checkpoints(bytes32)":"eb5e91ff","circuitVerificationKey()":"3d7b22b3","completeOwnershipHandover(address)":"f04e283e","createOrder(((address,bytes,bytes32,uint8,(bytes32,uint32,uint256)),address,uint256,uint64,bytes32[],bytes32[]))":"94006d18","eip712Domain()":"84b0196e","feeRouter()":"f29ebf61","getTotalOrders()":"375f16a7","getTotalPayments()":"708f29a6","lightClientHeight()":"cc38cd7d","mmrRoot()":"d21ddc61","orderHashes(uint256)":"df69558c","owner()":"8da5cb5b","ownershipHandoverExpiresAt(address)":"fee81cf4","paymentHashes(uint256)":"1127a80b","refundOrder((uint256,uint64,uint64,uint256,uint256,uint64,bytes,address,address,bytes32,uint8,uint64))":"1993d454","renounceOwnership()":"715018a6","requestOwnershipHandover()":"25692962","serializeLightClientPublicInput((bytes32,bytes32,bytes32,(bytes32,uint32,uint256)))":"7c2301a6","settleOrders(((uint256,uint64,uint64,uint256,uint256,uint64,bytes,address,address,bytes32,uint8,uint64),(uint256,bytes32,(bytes32,uint32,uint256),uint64,uint8),bytes32[],bytes32[],uint32)[])":"4570a573","submitPaymentProofs((bytes32,(uint256,uint64,uint64,uint256,uint256,uint64,bytes,address,address,bytes32,uint8,uint64),(bytes32,uint32,uint256),bytes32[],bytes32[])[],(bytes32,bytes32,bytes,(bytes32,uint32,uint256)),bytes)":"f5364364","submitPaymentProofs((bytes32,(uint256,uint64,uint64,uint256,uint256,uint64,bytes,address,address,bytes32,uint8,uint64),(bytes32,uint32,uint256),bytes32[],bytes32[])[],bytes)":"be8cc7ee","syntheticBitcoin()":"a0d9e241","takerFeeBips()":"9a73f4f5","transferOwnership(address)":"f2fde38b","updateLightClient((bytes32,bytes32,bytes,(bytes32,uint32,uint256)),bytes)":"592b6649","verifier()":"2b7ac3f3","verifyBlockInclusion((bytes32,uint32,uint256),bytes32[],bytes32[])":"a24462ea","verifyProof((uint8,(bytes32,bytes32,bytes32)[],(bytes32,bytes32,bytes32,(bytes32,uint32,uint256))),bytes)":"1ea7ec04","withdrawFees()":"476343ee"},"storageLayout":{"storage":[{"astId":45026,"contract":"tests/utils/RiftTest.sol:RiftExchangeHarness","label":"mmrRoot","offset":0,"slot":"0","type":"t_bytes32"},{"astId":45031,"contract":"tests/utils/RiftTest.sol:RiftExchangeHarness","label":"checkpoints","offset":0,"slot":"1","type":"t_mapping(t_bytes32,t_struct(BitcoinCheckpoint)46607_storage)"},{"astId":45438,"contract":"tests/utils/RiftTest.sol:RiftExchangeHarness","label":"orderHashes","offset":0,"slot":"2","type":"t_array(t_bytes32)dyn_storage"},{"astId":45441,"contract":"tests/utils/RiftTest.sol:RiftExchangeHarness","label":"paymentHashes","offset":0,"slot":"3","type":"t_array(t_bytes32)dyn_storage"},{"astId":45443,"contract":"tests/utils/RiftTest.sol:RiftExchangeHarness","label":"accumulatedFees","offset":0,"slot":"4","type":"t_uint256"},{"astId":45445,"contract":"tests/utils/RiftTest.sol:RiftExchangeHarness","label":"feeRouter","offset":0,"slot":"5","type":"t_address"},{"astId":45447,"contract":"tests/utils/RiftTest.sol:RiftExchangeHarness","label":"takerFeeBips","offset":20,"slot":"5","type":"t_uint16"}],"types":{"t_address":{"encoding":"inplace","label":"address","numberOfBytes":"20"},"t_array(t_bytes32)dyn_storage":{"encoding":"dynamic_array","label":"bytes32[]","numberOfBytes":"32","base":"t_bytes32"},"t_bool":{"encoding":"inplace","label":"bool","numberOfBytes":"1"},"t_bytes32":{"encoding":"inplace","label":"bytes32","numberOfBytes":"32"},"t_mapping(t_bytes32,t_struct(BitcoinCheckpoint)46607_storage)":{"encoding":"mapping","key":"t_bytes32","label":"mapping(bytes32 => struct BitcoinCheckpoint)","numberOfBytes":"32","value":"t_struct(BitcoinCheckpoint)46607_storage"},"t_struct(BitcoinCheckpoint)46607_storage":{"encoding":"inplace","label":"struct BitcoinCheckpoint","numberOfBytes":"128","members":[{"astId":46603,"contract":"tests/utils/RiftTest.sol:RiftExchangeHarness","label":"established","offset":0,"slot":"0","type":"t_bool"},{"astId":46606,"contract":"tests/utils/RiftTest.sol:RiftExchangeHarness","label":"tipBlockLeaf","offset":0,"slot":"1","type":"t_struct(BlockLeaf)46601_storage"}]},"t_struct(BlockLeaf)46601_storage":{"encoding":"inplace","label":"struct BlockLeaf","numberOfBytes":"96","members":[{"astId":46596,"contract":"tests/utils/RiftTest.sol:RiftExchangeHarness","label":"blockHash","offset":0,"slot":"0","type":"t_bytes32"},{"astId":46598,"contract":"tests/utils/RiftTest.sol:RiftExchangeHarness","label":"height","offset":0,"slot":"1","type":"t_uint32"},{"astId":46600,"contract":"tests/utils/RiftTest.sol:RiftExchangeHarness","label":"cumulativeChainwork","offset":0,"slot":"2","type":"t_uint256"}]},"t_uint16":{"encoding":"inplace","label":"uint16","numberOfBytes":"2"},"t_uint256":{"encoding":"inplace","label":"uint256","numberOfBytes":"32"},"t_uint32":{"encoding":"inplace","label":"uint32","numberOfBytes":"4"}}},"id":66}