{"abi":[{"type":"constructor","inputs":[{"name":"_mmrRoot","type":"bytes32","internalType":"bytes32"},{"name":"_depositToken","type":"address","internalType":"address"},{"name":"_circuitVerificationKey","type":"bytes32","internalType":"bytes32"},{"name":"_verifier","type":"address","internalType":"address"},{"name":"_feeRouter","type":"address","internalType":"address"},{"name":"_tipBlockLeaf","type":"tuple","internalType":"struct Types.BlockLeaf","components":[{"name":"blockHash","type":"bytes32","internalType":"bytes32"},{"name":"height","type":"uint32","internalType":"uint32"},{"name":"cumulativeChainwork","type":"uint256","internalType":"uint256"}]}],"stateMutability":"nonpayable"},{"type":"function","name":"CIRCUIT_VERIFICATION_KEY","inputs":[],"outputs":[{"name":"","type":"bytes32","internalType":"bytes32"}],"stateMutability":"view"},{"type":"function","name":"DEPOSIT_TOKEN","inputs":[],"outputs":[{"name":"","type":"address","internalType":"contract IERC20"}],"stateMutability":"view"},{"type":"function","name":"FEE_ROUTER_ADDRESS","inputs":[],"outputs":[{"name":"","type":"address","internalType":"address"}],"stateMutability":"view"},{"type":"function","name":"TOKEN_DECIMALS","inputs":[],"outputs":[{"name":"","type":"uint8","internalType":"uint8"}],"stateMutability":"view"},{"type":"function","name":"VERIFIER","inputs":[],"outputs":[{"name":"","type":"address","internalType":"contract ISP1Verifier"}],"stateMutability":"view"},{"type":"function","name":"accumulatedFeeBalance","inputs":[],"outputs":[{"name":"","type":"uint256","internalType":"uint256"}],"stateMutability":"view"},{"type":"function","name":"checkpoints","inputs":[{"name":"","type":"bytes32","internalType":"bytes32"}],"outputs":[{"name":"established","type":"bool","internalType":"bool"},{"name":"tipBlockLeaf","type":"tuple","internalType":"struct Types.BlockLeaf","components":[{"name":"blockHash","type":"bytes32","internalType":"bytes32"},{"name":"height","type":"uint32","internalType":"uint32"},{"name":"cumulativeChainwork","type":"uint256","internalType":"uint256"}]}],"stateMutability":"view"},{"type":"function","name":"depositLiquidity","inputs":[{"name":"params","type":"tuple","internalType":"struct Types.DepositLiquidityParams","components":[{"name":"depositOwnerAddress","type":"address","internalType":"address"},{"name":"specifiedPayoutAddress","type":"address","internalType":"address"},{"name":"depositAmount","type":"uint256","internalType":"uint256"},{"name":"expectedSats","type":"uint64","internalType":"uint64"},{"name":"btcPayoutScriptPubKey","type":"bytes22","internalType":"bytes22"},{"name":"depositSalt","type":"bytes32","internalType":"bytes32"},{"name":"confirmationBlocks","type":"uint8","internalType":"uint8"},{"name":"safeBlockLeaf","type":"tuple","internalType":"struct Types.BlockLeaf","components":[{"name":"blockHash","type":"bytes32","internalType":"bytes32"},{"name":"height","type":"uint32","internalType":"uint32"},{"name":"cumulativeChainwork","type":"uint256","internalType":"uint256"}]},{"name":"safeBlockSiblings","type":"bytes32[]","internalType":"bytes32[]"},{"name":"safeBlockPeaks","type":"bytes32[]","internalType":"bytes32[]"}]}],"outputs":[],"stateMutability":"nonpayable"},{"type":"function","name":"depositLiquidityWithOverwrite","inputs":[{"name":"params","type":"tuple","internalType":"struct Types.DepositLiquidityWithOverwriteParams","components":[{"name":"depositParams","type":"tuple","internalType":"struct Types.DepositLiquidityParams","components":[{"name":"depositOwnerAddress","type":"address","internalType":"address"},{"name":"specifiedPayoutAddress","type":"address","internalType":"address"},{"name":"depositAmount","type":"uint256","internalType":"uint256"},{"name":"expectedSats","type":"uint64","internalType":"uint64"},{"name":"btcPayoutScriptPubKey","type":"bytes22","internalType":"bytes22"},{"name":"depositSalt","type":"bytes32","internalType":"bytes32"},{"name":"confirmationBlocks","type":"uint8","internalType":"uint8"},{"name":"safeBlockLeaf","type":"tuple","internalType":"struct Types.BlockLeaf","components":[{"name":"blockHash","type":"bytes32","internalType":"bytes32"},{"name":"height","type":"uint32","internalType":"uint32"},{"name":"cumulativeChainwork","type":"uint256","internalType":"uint256"}]},{"name":"safeBlockSiblings","type":"bytes32[]","internalType":"bytes32[]"},{"name":"safeBlockPeaks","type":"bytes32[]","internalType":"bytes32[]"}]},{"name":"overwriteVault","type":"tuple","internalType":"struct Types.DepositVault","components":[{"name":"vaultIndex","type":"uint256","internalType":"uint256"},{"name":"depositTimestamp","type":"uint64","internalType":"uint64"},{"name":"depositAmount","type":"uint256","internalType":"uint256"},{"name":"depositFee","type":"uint256","internalType":"uint256"},{"name":"expectedSats","type":"uint64","internalType":"uint64"},{"name":"btcPayoutScriptPubKey","type":"bytes22","internalType":"bytes22"},{"name":"specifiedPayoutAddress","type":"address","internalType":"address"},{"name":"ownerAddress","type":"address","internalType":"address"},{"name":"salt","type":"bytes32","internalType":"bytes32"},{"name":"confirmationBlocks","type":"uint8","internalType":"uint8"},{"name":"attestedBitcoinBlockHeight","type":"uint64","internalType":"uint64"}]}]}],"outputs":[],"stateMutability":"nonpayable"},{"type":"function","name":"getLightClientHeight","inputs":[],"outputs":[{"name":"","type":"uint32","internalType":"uint32"}],"stateMutability":"view"},{"type":"function","name":"getSwapCommitment","inputs":[{"name":"swapIndex","type":"uint256","internalType":"uint256"}],"outputs":[{"name":"","type":"bytes32","internalType":"bytes32"}],"stateMutability":"view"},{"type":"function","name":"getSwapCommitmentsLength","inputs":[],"outputs":[{"name":"","type":"uint256","internalType":"uint256"}],"stateMutability":"view"},{"type":"function","name":"getVaultCommitment","inputs":[{"name":"vaultIndex","type":"uint256","internalType":"uint256"}],"outputs":[{"name":"","type":"bytes32","internalType":"bytes32"}],"stateMutability":"view"},{"type":"function","name":"getVaultCommitmentsLength","inputs":[],"outputs":[{"name":"","type":"uint256","internalType":"uint256"}],"stateMutability":"view"},{"type":"function","name":"mmrRoot","inputs":[],"outputs":[{"name":"","type":"bytes32","internalType":"bytes32"}],"stateMutability":"view"},{"type":"function","name":"payoutToFeeRouter","inputs":[],"outputs":[],"stateMutability":"nonpayable"},{"type":"function","name":"proveBlockInclusion","inputs":[{"name":"blockLeaf","type":"tuple","internalType":"struct Types.BlockLeaf","components":[{"name":"blockHash","type":"bytes32","internalType":"bytes32"},{"name":"height","type":"uint32","internalType":"uint32"},{"name":"cumulativeChainwork","type":"uint256","internalType":"uint256"}]},{"name":"siblings","type":"bytes32[]","internalType":"bytes32[]"},{"name":"peaks","type":"bytes32[]","internalType":"bytes32[]"}],"outputs":[{"name":"","type":"bool","internalType":"bool"}],"stateMutability":"view"},{"type":"function","name":"releaseLiquidityBatch","inputs":[{"name":"paramsArray","type":"tuple[]","internalType":"struct Types.ReleaseLiquidityParams[]","components":[{"name":"swap","type":"tuple","internalType":"struct Types.ProposedSwap","components":[{"name":"swapIndex","type":"uint256","internalType":"uint256"},{"name":"depositVaultCommitment","type":"bytes32","internalType":"bytes32"},{"name":"swapBitcoinBlockHash","type":"bytes32","internalType":"bytes32"},{"name":"confirmationBlocks","type":"uint8","internalType":"uint8"},{"name":"liquidityUnlockTimestamp","type":"uint64","internalType":"uint64"},{"name":"specifiedPayoutAddress","type":"address","internalType":"address"},{"name":"totalSwapFee","type":"uint256","internalType":"uint256"},{"name":"totalSwapOutput","type":"uint256","internalType":"uint256"},{"name":"state","type":"uint8","internalType":"enum Types.SwapState"}]},{"name":"swapBlockChainwork","type":"uint256","internalType":"uint256"},{"name":"swapBlockHeight","type":"uint32","internalType":"uint32"},{"name":"bitcoinSwapBlockSiblings","type":"bytes32[]","internalType":"bytes32[]"},{"name":"bitcoinSwapBlockPeaks","type":"bytes32[]","internalType":"bytes32[]"},{"name":"utilizedVault","type":"tuple","internalType":"struct Types.DepositVault","components":[{"name":"vaultIndex","type":"uint256","internalType":"uint256"},{"name":"depositTimestamp","type":"uint64","internalType":"uint64"},{"name":"depositAmount","type":"uint256","internalType":"uint256"},{"name":"depositFee","type":"uint256","internalType":"uint256"},{"name":"expectedSats","type":"uint64","internalType":"uint64"},{"name":"btcPayoutScriptPubKey","type":"bytes22","internalType":"bytes22"},{"name":"specifiedPayoutAddress","type":"address","internalType":"address"},{"name":"ownerAddress","type":"address","internalType":"address"},{"name":"salt","type":"bytes32","internalType":"bytes32"},{"name":"confirmationBlocks","type":"uint8","internalType":"uint8"},{"name":"attestedBitcoinBlockHeight","type":"uint64","internalType":"uint64"}]},{"name":"tipBlockHeight","type":"uint32","internalType":"uint32"}]}],"outputs":[],"stateMutability":"nonpayable"},{"type":"function","name":"submitBatchSwapProof","inputs":[{"name":"swapParams","type":"tuple[]","internalType":"struct Types.SubmitSwapProofParams[]","components":[{"name":"swapBitcoinTxid","type":"bytes32","internalType":"bytes32"},{"name":"vault","type":"tuple","internalType":"struct Types.DepositVault","components":[{"name":"vaultIndex","type":"uint256","internalType":"uint256"},{"name":"depositTimestamp","type":"uint64","internalType":"uint64"},{"name":"depositAmount","type":"uint256","internalType":"uint256"},{"name":"depositFee","type":"uint256","internalType":"uint256"},{"name":"expectedSats","type":"uint64","internalType":"uint64"},{"name":"btcPayoutScriptPubKey","type":"bytes22","internalType":"bytes22"},{"name":"specifiedPayoutAddress","type":"address","internalType":"address"},{"name":"ownerAddress","type":"address","internalType":"address"},{"name":"salt","type":"bytes32","internalType":"bytes32"},{"name":"confirmationBlocks","type":"uint8","internalType":"uint8"},{"name":"attestedBitcoinBlockHeight","type":"uint64","internalType":"uint64"}]},{"name":"storageStrategy","type":"uint8","internalType":"enum Types.StorageStrategy"},{"name":"localOverwriteIndex","type":"uint16","internalType":"uint16"},{"name":"swapBitcoinBlockLeaf","type":"tuple","internalType":"struct Types.BlockLeaf","components":[{"name":"blockHash","type":"bytes32","internalType":"bytes32"},{"name":"height","type":"uint32","internalType":"uint32"},{"name":"cumulativeChainwork","type":"uint256","internalType":"uint256"}]},{"name":"swapBitcoinBlockSiblings","type":"bytes32[]","internalType":"bytes32[]"},{"name":"swapBitcoinBlockPeaks","type":"bytes32[]","internalType":"bytes32[]"}]},{"name":"overwriteSwaps","type":"tuple[]","internalType":"struct Types.ProposedSwap[]","components":[{"name":"swapIndex","type":"uint256","internalType":"uint256"},{"name":"depositVaultCommitment","type":"bytes32","internalType":"bytes32"},{"name":"swapBitcoinBlockHash","type":"bytes32","internalType":"bytes32"},{"name":"confirmationBlocks","type":"uint8","internalType":"uint8"},{"name":"liquidityUnlockTimestamp","type":"uint64","internalType":"uint64"},{"name":"specifiedPayoutAddress","type":"address","internalType":"address"},{"name":"totalSwapFee","type":"uint256","internalType":"uint256"},{"name":"totalSwapOutput","type":"uint256","internalType":"uint256"},{"name":"state","type":"uint8","internalType":"enum Types.SwapState"}]},{"name":"proof","type":"bytes","internalType":"bytes"}],"outputs":[],"stateMutability":"nonpayable"},{"type":"function","name":"submitBatchSwapProofWithLightClientUpdate","inputs":[{"name":"swapParams","type":"tuple[]","internalType":"struct Types.SubmitSwapProofParams[]","components":[{"name":"swapBitcoinTxid","type":"bytes32","internalType":"bytes32"},{"name":"vault","type":"tuple","internalType":"struct Types.DepositVault","components":[{"name":"vaultIndex","type":"uint256","internalType":"uint256"},{"name":"depositTimestamp","type":"uint64","internalType":"uint64"},{"name":"depositAmount","type":"uint256","internalType":"uint256"},{"name":"depositFee","type":"uint256","internalType":"uint256"},{"name":"expectedSats","type":"uint64","internalType":"uint64"},{"name":"btcPayoutScriptPubKey","type":"bytes22","internalType":"bytes22"},{"name":"specifiedPayoutAddress","type":"address","internalType":"address"},{"name":"ownerAddress","type":"address","internalType":"address"},{"name":"salt","type":"bytes32","internalType":"bytes32"},{"name":"confirmationBlocks","type":"uint8","internalType":"uint8"},{"name":"attestedBitcoinBlockHeight","type":"uint64","internalType":"uint64"}]},{"name":"storageStrategy","type":"uint8","internalType":"enum Types.StorageStrategy"},{"name":"localOverwriteIndex","type":"uint16","internalType":"uint16"},{"name":"swapBitcoinBlockLeaf","type":"tuple","internalType":"struct Types.BlockLeaf","components":[{"name":"blockHash","type":"bytes32","internalType":"bytes32"},{"name":"height","type":"uint32","internalType":"uint32"},{"name":"cumulativeChainwork","type":"uint256","internalType":"uint256"}]},{"name":"swapBitcoinBlockSiblings","type":"bytes32[]","internalType":"bytes32[]"},{"name":"swapBitcoinBlockPeaks","type":"bytes32[]","internalType":"bytes32[]"}]},{"name":"blockProofParams","type":"tuple","internalType":"struct Types.BlockProofParams","components":[{"name":"priorMmrRoot","type":"bytes32","internalType":"bytes32"},{"name":"newMmrRoot","type":"bytes32","internalType":"bytes32"},{"name":"compressedBlockLeaves","type":"bytes","internalType":"bytes"},{"name":"tipBlockLeaf","type":"tuple","internalType":"struct Types.BlockLeaf","components":[{"name":"blockHash","type":"bytes32","internalType":"bytes32"},{"name":"height","type":"uint32","internalType":"uint32"},{"name":"cumulativeChainwork","type":"uint256","internalType":"uint256"}]}]},{"name":"overwriteSwaps","type":"tuple[]","internalType":"struct Types.ProposedSwap[]","components":[{"name":"swapIndex","type":"uint256","internalType":"uint256"},{"name":"depositVaultCommitment","type":"bytes32","internalType":"bytes32"},{"name":"swapBitcoinBlockHash","type":"bytes32","internalType":"bytes32"},{"name":"confirmationBlocks","type":"uint8","internalType":"uint8"},{"name":"liquidityUnlockTimestamp","type":"uint64","internalType":"uint64"},{"name":"specifiedPayoutAddress","type":"address","internalType":"address"},{"name":"totalSwapFee","type":"uint256","internalType":"uint256"},{"name":"totalSwapOutput","type":"uint256","internalType":"uint256"},{"name":"state","type":"uint8","internalType":"enum Types.SwapState"}]},{"name":"proof","type":"bytes","internalType":"bytes"}],"outputs":[],"stateMutability":"nonpayable"},{"type":"function","name":"swapCommitments","inputs":[{"name":"","type":"uint256","internalType":"uint256"}],"outputs":[{"name":"","type":"bytes32","internalType":"bytes32"}],"stateMutability":"view"},{"type":"function","name":"updateLightClient","inputs":[{"name":"blockProofParams","type":"tuple","internalType":"struct Types.BlockProofParams","components":[{"name":"priorMmrRoot","type":"bytes32","internalType":"bytes32"},{"name":"newMmrRoot","type":"bytes32","internalType":"bytes32"},{"name":"compressedBlockLeaves","type":"bytes","internalType":"bytes"},{"name":"tipBlockLeaf","type":"tuple","internalType":"struct Types.BlockLeaf","components":[{"name":"blockHash","type":"bytes32","internalType":"bytes32"},{"name":"height","type":"uint32","internalType":"uint32"},{"name":"cumulativeChainwork","type":"uint256","internalType":"uint256"}]}]},{"name":"proof","type":"bytes","internalType":"bytes"}],"outputs":[],"stateMutability":"nonpayable"},{"type":"function","name":"vaultCommitments","inputs":[{"name":"","type":"uint256","internalType":"uint256"}],"outputs":[{"name":"","type":"bytes32","internalType":"bytes32"}],"stateMutability":"view"},{"type":"function","name":"withdrawLiquidity","inputs":[{"name":"vault","type":"tuple","internalType":"struct Types.DepositVault","components":[{"name":"vaultIndex","type":"uint256","internalType":"uint256"},{"name":"depositTimestamp","type":"uint64","internalType":"uint64"},{"name":"depositAmount","type":"uint256","internalType":"uint256"},{"name":"depositFee","type":"uint256","internalType":"uint256"},{"name":"expectedSats","type":"uint64","internalType":"uint64"},{"name":"btcPayoutScriptPubKey","type":"bytes22","internalType":"bytes22"},{"name":"specifiedPayoutAddress","type":"address","internalType":"address"},{"name":"ownerAddress","type":"address","internalType":"address"},{"name":"salt","type":"bytes32","internalType":"bytes32"},{"name":"confirmationBlocks","type":"uint8","internalType":"uint8"},{"name":"attestedBitcoinBlockHeight","type":"uint64","internalType":"uint64"}]}],"outputs":[],"stateMutability":"nonpayable"},{"type":"event","name":"BitcoinLightClientUpdated","inputs":[{"name":"mmrRoot","type":"bytes32","indexed":false,"internalType":"bytes32"}],"anonymous":false},{"type":"event","name":"SwapsUpdated","inputs":[{"name":"swaps","type":"tuple[]","indexed":false,"internalType":"struct Types.ProposedSwap[]","components":[{"name":"swapIndex","type":"uint256","internalType":"uint256"},{"name":"depositVaultCommitment","type":"bytes32","internalType":"bytes32"},{"name":"swapBitcoinBlockHash","type":"bytes32","internalType":"bytes32"},{"name":"confirmationBlocks","type":"uint8","internalType":"uint8"},{"name":"liquidityUnlockTimestamp","type":"uint64","internalType":"uint64"},{"name":"specifiedPayoutAddress","type":"address","internalType":"address"},{"name":"totalSwapFee","type":"uint256","internalType":"uint256"},{"name":"totalSwapOutput","type":"uint256","internalType":"uint256"},{"name":"state","type":"uint8","internalType":"enum Types.SwapState"}]},{"name":"context","type":"uint8","indexed":false,"internalType":"enum Types.SwapUpdateContext"}],"anonymous":false},{"type":"event","name":"VaultsUpdated","inputs":[{"name":"vaults","type":"tuple[]","indexed":false,"internalType":"struct Types.DepositVault[]","components":[{"name":"vaultIndex","type":"uint256","internalType":"uint256"},{"name":"depositTimestamp","type":"uint64","internalType":"uint64"},{"name":"depositAmount","type":"uint256","internalType":"uint256"},{"name":"depositFee","type":"uint256","internalType":"uint256"},{"name":"expectedSats","type":"uint64","internalType":"uint64"},{"name":"btcPayoutScriptPubKey","type":"bytes22","internalType":"bytes22"},{"name":"specifiedPayoutAddress","type":"address","internalType":"address"},{"name":"ownerAddress","type":"address","internalType":"address"},{"name":"salt","type":"bytes32","internalType":"bytes32"},{"name":"confirmationBlocks","type":"uint8","internalType":"uint8"},{"name":"attestedBitcoinBlockHeight","type":"uint64","internalType":"uint64"}]},{"name":"context","type":"uint8","indexed":false,"internalType":"enum Types.VaultUpdateContext"}],"anonymous":false},{"type":"error","name":"CannotOverwriteOngoingSwap","inputs":[]},{"type":"error","name":"ChainworkTooLow","inputs":[]},{"type":"error","name":"CheckpointNotEstablished","inputs":[]},{"type":"error","name":"DepositAmountTooLow","inputs":[]},{"type":"error","name":"DepositStillLocked","inputs":[]},{"type":"error","name":"DepositVaultDoesNotExist","inputs":[]},{"type":"error","name":"DepositVaultNotOverwritable","inputs":[]},{"type":"error","name":"EmptyDepositVault","inputs":[]},{"type":"error","name":"InvalidBlockInclusionProof","inputs":[]},{"type":"error","name":"InvalidConfirmationBlockDelta","inputs":[]},{"type":"error","name":"InvalidScriptPubKey","inputs":[]},{"type":"error","name":"InvalidSwapBlockInclusionProof","inputs":[]},{"type":"error","name":"InvalidVaultCommitment","inputs":[]},{"type":"error","name":"NoFeeToPay","inputs":[]},{"type":"error","name":"NoSwapsToSubmit","inputs":[]},{"type":"error","name":"SatOutputTooLow","inputs":[]},{"type":"error","name":"StillInChallengePeriod","inputs":[]},{"type":"error","name":"SwapDoesNotExist","inputs":[]},{"type":"error","name":"SwapNotProved","inputs":[]},{"type":"error","name":"TransferFailed","inputs":[]}],"bytecode":{"object":"0x61012080604052346102235780612c1f803803809161001e828561024e565b83398101039061010082126102235780519061003c60208201610271565b9160408201519161004f60608201610271565b93606061005e60808401610271565b96609f1901126102235760405191606083016001600160401b0381118482101761023a5760405260a0810151835260c08101519063ffffffff821682036102235760e091602085015201516040830152825f55604051604081019381851060018060401b0386111761023a5760406020946003926004978352600185528685019182525f5260018652815f209351151560ff8019865416911617845551805160018501556002840163ffffffff878301511663ffffffff19825416179055015191015560018060a01b0316806080526040519283809263313ce56760e01b82525afa90811561022f575f916101ef575b5060a05260c0526001600160a01b031660e05261010052604051612999908161028682396080518181816101b801528181610727015281816112c80152818161140d0152612795015260a05181610b6b015260c0518181816105130152818161063001528181610cef0152611065015260e05181818161048f01528181610c1101528181610fea015261144e01526101005181818161017c01526106690152f35b90506020813d602011610227575b8161020a6020938361024e565b81010312610223575160ff81168103610223575f61014e565b5f80fd5b3d91506101fd565b6040513d5f823e3d90fd5b634e487b7160e01b5f52604160045260245ffd5b601f909101601f19168101906001600160401b0382119082101761023a57604052565b51906001600160a01b03821682036102235756fe60a0806040526004361015610012575f80fd5b5f905f3560e01c90816308c84e701461143c5750806313f66587146113f857806316a6db20146111315780631cbeebeb146110f45780631f1a490814610ec6578063365df23314610e9b5780634276994614610dd157806348678e0614610d79578063592b664914610b8f5780635b7f415c14610b515780637688e1bc146106b75780637ed34a3614610698578063898aeacb146106535780638d5ca05214610618578063992284a6146105fa5780639f63bd97146105db578063a6a0f96e146105a1578063c18969381461037c578063ca18100d1461035e578063d21ddc6114610341578063d6d51459146102b5578063eb5e91ff14610251578063f23a94a9146101465763f5095c1614610126575f80fd5b346101435780600319360112610143576020600254604051908152f35b80fd5b5034610143578060031936011261014357600454801561024257600482815560405163a9059cbb60e01b81526001600160a01b037f00000000000000000000000000000000000000000000000000000000000000001691810191909152602481019190915260208180604481010381857f00000000000000000000000000000000000000000000000000000000000000006001600160a01b03165af1908115610237578291610208575b50156101f95780f35b6312171d8360e31b8152600490fd5b61022a915060203d602011610230575b6102228183611601565b8101906117f9565b5f6101f0565b503d610218565b6040513d84823e3d90fd5b630fbcad4560e21b8252600482fd5b503461014357602036600319011261014357604060809160043581526001602052206102b3610287600160ff8454169301611696565b60405192151583526020830190604080918051845263ffffffff60208201511660208501520151910152565bf35b5034610143576102c436611662565b60208101908135813561017e198336030181121561033d57826102ee836060936102f696016124c5565b949095611de1565b50013561032e5761032b929161030e6103269261150b565b90919082549060031b91821b915f19901b1916179055565b6126e7565b80f35b630faaae6760e31b8452600484fd5b8480fd5b503461014357806003193601126101435760209054604051908152f35b50346101435780600319360112610143576020600454604051908152f35b503461014357606036600319011261014357806004356001600160401b03811161059e576103ae90369060040161147d565b91906024356001600160401b03811161059a576103cf9036906004016114ad565b604435906001600160401b03821161033d576104e2926103f661041b9336906004016114de565b9790956104165f545f52600160205263ffffffff600260405f2001541690565b611f46565b60409591955161042a81611564565b8581528560208201528560408201526060610443611aec565b9101526104f06040519161045683611593565b8683528660208401528660408401526040519261047284611564565b878452876020850152876040850152606084015260018060a01b037f00000000000000000000000000000000000000000000000000000000000000001692604051916104bd83611593565b6104c689611975565b8883526020830152604082015260405194859160208301611b0a565b03601f198101855284611601565b803b1561033d5761053b9385936040519586948593849363020a49e360e51b85527f000000000000000000000000000000000000000000000000000000000000000060048601611bc9565b03915afa801561023757610581575b506040517fe8b89fd0756cdb35ef6d9ff605cca13c890bbd62d2befac12cdf4cf4d3e73a72908061057b8582611a84565b0390a180f35b8161058b91611601565b61059657815f61054a565b5080fd5b8280fd5b50fd5b503461014357602036600319011261014357600435906002548210156101435760206105cc8361150b565b90549060031b1c604051908152f35b50346101435760203660031901126101435760206105cc60043561150b565b50346101435780600319360112610143576020600354604051908152f35b503461014357806003193601126101435760206040517f00000000000000000000000000000000000000000000000000000000000000008152f35b50346101435780600319360112610143576040517f00000000000000000000000000000000000000000000000000000000000000006001600160a01b03168152602090f35b50346101435760203660031901126101435760206105cc600435611537565b5034610143576020366003190112610143576004356001600160401b038111610596576106e890369060040161147d565b906106f282611c27565b906106fc83611811565b9261070a6040519485611601565b808452601f1961071982611811565b01855b818110610b3a5750507f00000000000000000000000000000000000000000000000000000000000000006001600160a01b031691855b82811061085a575050505060405160408101604082528251809152602060608301930190855b81811061083957505050807fe8b89fd0756cdb35ef6d9ff605cca13c890bbd62d2befac12cdf4cf4d3e73a7292600160208301520390a160405160408101604082528251809152602060608301930190845b81811061081857505050807f5579c3d9c997c3d3dd2d9b6a31a7dfc0db5442568016ac9668714bea178a8a2892600260208301520390a180f35b634e487b7160e01b5f52602160045260245ffd5b90919360206101608261082e60019489516118da565b0195019291016107ca565b90919360206101208261084f6001948951611a07565b019501929101610778565b61086d610868828585611cad565b612815565b5061010061087c828585611cad565b01356003811015610b365760019061089381611975565b03610b27576001600160401b036108b660806108b0848787611cad565b016116c4565b164210610b18576108d46101a06108ce838686611cad565b01611de1565b60206108e1838686611cad565b013503610b095761099660406108f8838686611cad565b013561091161014061090b858888611cad565b0161197f565b63ffffffff610120610924868989611cad565b0135916040519361093485611593565b8452166020830152604082015261095a61094f848787611cad565b610160810190611cd0565b90610974610969868989611cad565b610180810190611cd0565b92909160ff61098f60606109898a8d8d611cad565b016116d8565b1694612852565b6109ae366101a06109a8848787611cad565b0161171c565b8760408201528760608201526109d06109c682611dfa565b61030e835161150b565b6109da82886118c6565b526109e581876118c6565b506109fa366109f5838686611cad565b611d05565b6002610100820152610a22610a0e826128f0565b61030e610a1c858888611cad565b35611537565b610a3c60c0610a32848787611cad565b0135600454611d95565b600455610a976020610a5a60a0610a54868989611cad565b016117e5565b60e0610a67868989611cad565b60405163a9059cbb60e01b81526001600160a01b0390931660048401520135602482015291829081906044820190565b03818c8a5af1908115610afe578991610ae0575b5015610ad15790600191610abf82886118c6565b52610aca81876118c6565b5001610752565b6312171d8360e31b8852600488fd5b610af8915060203d8111610230576102228183611601565b5f610aab565b6040513d8b823e3d90fd5b63ceb1159d60e01b8752600487fd5b632d5c37f560e21b8752600487fd5b6322fc5d4360e21b8752600487fd5b8780fd5b602090610b45611828565b8282890101520161071c565b5034610143578060031936011261014357602060405160ff7f0000000000000000000000000000000000000000000000000000000000000000168152f35b5034610143576040366003190112610143576004356001600160401b038111610596578060040160c0600319833603011261059a576024356001600160401b038111610d515791610be5849336906004016114de565b9390610bfe610bf76044850186611990565b36916119c2565b8051602090910120946001600160a01b037f000000000000000000000000000000000000000000000000000000000000000016610c3a84611811565b95610c486040519788611601565b848752601f19610c5786611811565b01855b818110610d5557505090610ccc6104e2939235976064602489013598019960405190610c8582611564565b8a82528960208301526040820152610c9d368c611622565b606082015260405191610caf83611593565b600183526020830152604082015260405194859160208301611b0a565b803b1561033d57610d179385936040519586948593849363020a49e360e51b85527f000000000000000000000000000000000000000000000000000000000000000060048601611bc9565b03915afa801561023757610d3c575b5050610d3661032b933690611622565b91611e22565b81610d4691611601565b610d5157835f610d26565b8380fd5b602091929394959650610d66611aec565b82828b0101520190899594939291610c5a565b503461014357610d94610d8b36611662565b600254906124c5565b600254600160401b811015610dbd5761032b929161030e8260016103269401600255600261154f565b634e487b7160e01b84526041600452602484fd5b503461014357366003190160a081126105965760601361014357604051610df781611593565b600435815260243563ffffffff8116810361059a57602082015260443560408201526064356001600160401b03811161059a57610e3890369060040161147d565b906084356001600160401b03811161033d579160209491610e61610e919594369060040161147d565b929091610e89610e845f545f52600160205263ffffffff600260405f2001541690565b611ad4565b94549561239b565b6040519015158152f35b503461014357602036600319011261014357600435906003548210156101435760206105cc83611537565b50346110f05760803660031901126110f0576004356001600160401b0381116110f057610ef790369060040161147d565b90602435916001600160401b0383116110f057826004019060c060031985360301126110f0576044356001600160401b0381116110f057610f3c9036906004016114ad565b9290916064356001600160401b0381116110f057610f5e9036906004016114de565b93909583359560248901359260648a019436610f7a9087611622565b610f8590868b611e22565b610f9160848c0161197f565b93610f9b94611f46565b939097604401610faa91611990565b3690610fb5926119c2565b805190602001209060405195610fca87611564565b86526020860152604085015236610fe091611622565b60608401526040517f00000000000000000000000000000000000000000000000000000000000000006001600160a01b0316919061101d81611593565b6104e29461104292600283526020830152604082015260405194859160208301611b0a565b803b156110f05761108d935f936040519586948593849363020a49e360e51b85527f000000000000000000000000000000000000000000000000000000000000000060048601611bc9565b03915afa80156110e5576110ce575b5061057b7fe8b89fd0756cdb35ef6d9ff605cca13c890bbd62d2befac12cdf4cf4d3e73a729160405191829182611a84565b6110db9192505f90611601565b5f9061057b61109c565b6040513d5f823e3d90fd5b5f80fd5b346110f0575f3660031901126110f05760206111235f545f52600160205263ffffffff600260405f2001541690565b63ffffffff60405191168152f35b346110f057366003190161016081126110f05761114c611da2565b506044359081156113e957602435916001600160401b038316918284036110f057610124359260ff84168085036110f057611c20029063ffffffff82169182036113d557016001600160401b0381116113d5576001600160401b031642106113c657610160136110f057604051926111c3846115ae565b600435845260208401526040830190808252606084019260643584526084356001600160401b03811681036110f057608086015260a43569ffffffffffffffffffff19811681036110f05760a086015260c4356001600160a01b03811681036110f05760c086015260e435906001600160a01b03821682036110f0578160e08701526101043561010087015261012086015261014435926001600160401b03841684036110f0576112c3945f80926020966101408a0152525261129261128886611dfa565b61030e875161150b565b60405163a9059cbb60e01b81526001600160a01b039091166004820152602481019190915291829081906044820190565b03815f7f00000000000000000000000000000000000000000000000000000000000000006001600160a01b03165af19081156110e5575f916113a7575b50156113985761130e611879565b90611318826118b9565b52611322816118b9565b50604051604081016040825282518091526020606083019301905f5b81811061137757505050807f5579c3d9c997c3d3dd2d9b6a31a7dfc0db5442568016ac9668714bea178a8a2892600160208301520390a1005b90919360206101608261138d60019489516118da565b01950192910161133e565b6312171d8360e31b5f5260045ffd5b6113c0915060203d602011610230576102228183611601565b82611300565b6301b512a960e21b5f5260045ffd5b634e487b7160e01b5f52601160045260245ffd5b637941e9ad60e01b5f5260045ffd5b346110f0575f3660031901126110f0576040517f00000000000000000000000000000000000000000000000000000000000000006001600160a01b03168152602090f35b346110f0575f3660031901126110f0577f00000000000000000000000000000000000000000000000000000000000000006001600160a01b03168152602090f35b9181601f840112156110f0578235916001600160401b0383116110f0576020808501948460051b0101116110f057565b9181601f840112156110f0578235916001600160401b0383116110f05760208085019461012085020101116110f057565b9181601f840112156110f0578235916001600160401b0383116110f057602083818601950101116110f057565b6002548110156115235760025f5260205f2001905f90565b634e487b7160e01b5f52603260045260245ffd5b6003548110156115235760035f5260205f2001905f90565b8054821015611523575f5260205f2001905f90565b608081019081106001600160401b0382111761157f57604052565b634e487b7160e01b5f52604160045260245ffd5b606081019081106001600160401b0382111761157f57604052565b61016081019081106001600160401b0382111761157f57604052565b61012081019081106001600160401b0382111761157f57604052565b604081019081106001600160401b0382111761157f57604052565b90601f801991011681019081106001600160401b0382111761157f57604052565b91908260609103126110f05760405161163a81611593565b809280358252602081013563ffffffff811681036110f0576020830152604090810135910152565b60206003198201126110f057600435906001600160401b0382116110f0576101809082900360031901126110f05760040190565b906040516116a381611593565b6040600282948054845263ffffffff60018201541660208501520154910152565b356001600160401b03811681036110f05790565b3560ff811681036110f05790565b35906001600160401b03821682036110f057565b35906001600160a01b03821682036110f057565b359060ff821682036110f057565b9190826101609103126110f057604051611735816115ae565b809280358252611747602082016116e6565b6020830152604081013560408301526060810135606083015261176c608082016116e6565b608083015260a08101359069ffffffffffffffffffff19821682036110f0576101406117e091819360a08601526117a560c082016116fa565b60c08601526117b660e082016116fa565b60e08601526101008101356101008601526117d4610120820161170e565b610120860152016116e6565b910152565b356001600160a01b03811681036110f05790565b908160209103126110f0575180151581036110f05790565b6001600160401b03811161157f5760051b60200190565b60405190611835826115ae565b5f610140838281528260208201528260408201528260608201528260808201528260a08201528260c08201528260e082015282610100820152826101208201520152565b6040805190919061188a8382611601565b6001815291601f1901825f5b8281106118a257505050565b6020906118ad611828565b82828501015201611896565b8051156115235760200190565b80518210156115235760209160051b010190565b6001600160401b03610140809280518552826020820151166020860152604081015160408601526060810151606086015282608082015116608086015269ffffffffffffffffffff1960a08201511660a086015260018060a01b0360c08201511660c086015260018060a01b0360e08201511660e086015261010081015161010086015260ff61012082015116610120860152015116910152565b6003111561080457565b3563ffffffff811681036110f05790565b903590601e19813603018212156110f057018035906001600160401b0382116110f0576020019181360383136110f057565b9291926001600160401b03821161157f57604051916119eb601f8201601f191660200184611601565b8294818452818301116110f0578281602093845f960137010152565b610100809180518452602081015160208501526040810151604085015260ff60608201511660608501526001600160401b03608082015116608085015260018060a01b0360a08201511660a085015260c081015160c085015260e081015160e0850152015191611a7683611975565b0152565b6002111561080457565b9190604083016040845281518091526020606085019201905f5b818110611ab35750919391505060205f910152565b909192602061012082611ac96001948851611a07565b019401929101611a9e565b63ffffffff60019116019063ffffffff82116113d557565b60405190611af982611593565b5f6040838281528260208201520152565b602081526101208101918051611b1f81611975565b602083015260208101519261010060408401528351809152602061014084019401905f5b818110611b9b575050509060c060606040611b9894015180518285015260208101516080850152604081015160a08501520151910190604080918051845263ffffffff60208201511660208501520151910152565b90565b9091946020606060019260408951805183528481015185840152015160408201520196019101919091611b43565b919360809360208096839486526060828701528051918291826060890152018787015e5f868287010152601f801991011684019360408682870301910152818585015260a08401375f8282018401850152601f01601f191601010190565b90611c3182611811565b611c3e6040519182611601565b8281528092611c4f601f1991611811565b01905f5b828110611c5f57505050565b602090604051611c6e816115ca565b5f81525f838201525f60408201525f60608201525f60808201525f60a08201525f60c08201525f60e08201525f61010082015282828501015201611c53565b91908110156115235760051b8101359061031e19813603018212156110f0570190565b903590601e19813603018212156110f057018035906001600160401b0382116110f057602001918160051b360383136110f057565b9190826101209103126110f057604051611d1e816115ca565b6101008193803583526020810135602084015260408101356040840152611d476060820161170e565b6060840152611d58608082016116e6565b6080840152611d6960a082016116fa565b60a084015260c081013560c084015260e081013560e084015201359060038210156110f0576101000152565b919082018092116113d557565b611db5611db036600461171c565b611dfa565b611dc2600435600261154f565b90549060031b1c8103611dd25790565b63cd1d240d60e01b5f5260045ffd5b611dc2611df1611db0368461171c565b9135600261154f565b604051611e0b6020820180936118da565b6101608152611e1c61018082611601565b51902090565b9190915f548314611f21575f52600160205260405f20611e59600160405192611e4a846115e6565b60ff8154161515845201611696565b90602081019182525115611f1257604090510151604082015110611f03577f84acfd9425fc40dc7fbb8fc43f44f6e76fb586211c806a35ee16402d2f4798b59160209160036040805192611eac846115e6565b60018452858401908152845f5260018652815f209351151560ff8019865416911617845551805160018501556002840163ffffffff878301511663ffffffff198254161790550151910155805f55604051908152a1565b6307800bf560e21b5f5260045ffd5b63e1965c6560e01b5f5260045ffd5b505050565b3561ffff811681036110f05790565b919081101561152357610120020190565b90939193608052831561237c57611f5c84611811565b611f696040519182611601565b848152601f19611f7886611811565b015f5b8181106123655750508091611f8f86611c27565b92600354975f985b888a10156123595780998060051b608051013561025e196080513603018112156110f057600261018082608051010135101592836110f057611fe161018083608051010135611a7a565b608051820161018001356122b6575f1981146113d5576001019b5b602082608051010161200e368261171c565b606060408201519101908151918260011b92808404600214901517156113d5576120439161203d9151906124b8565b92611de1565b8a6120e66101c08760805101016120878982359460405161206381611593565b8b6080510135815286602082015287604082015261208183836118c6565b526118c6565b506120e16120a16102208a60805101018a60805101611cd0565b6080519193916120b8908c01610240810190611cd0565b916101408d60805101019560ff6120d96120d1896116d8565b963690611622565b951694612852565b6116d8565b6001600160401b036120ff6101608960805101016116c4565b1663ffffffff8d16036001600160401b0381116113d5576001600160401b03166085026001600160401b0381169081036113d55761e3b3016001600160401b0381116113d5576001600160401b036103e88161012c9316041601906001600160401b0382116113d5576001600160401b0361217e8160ff941642611d95565b169261219060e08a60805101016117e5565b946040519861219e8a6115ca565b89526020890152604088015216606086015260808501526001600160a01b031660a084015260c083015260e082015260016101008201526121df838a6118c6565b526121ea82896118c6565b506121fe6121f8838a6118c6565b516128f0565b926110f057888a9161221861018082608051010135611a7a565b6080518101610180013561225657505050600354600160401b81101561157f5760019261030e828561224f9401600355600361154f565b0198611f97565b906001949161226d61018082608051010135611a7a565b856101808260805101013514612287575b5050505061224f565b6122ad9361030e9261ffff6122a66101a0610a1c956080510101611f26565b1691611f35565b885f898161227e565b9b92505f926122cd61018083608051010135611a7a565b60016101808360805101013503611ffc57506101a08160805101016122fc6108688c8c61ffff6122a686611f26565b506101006123118c8c61ffff6122a686611f26565b013560038110156110f05760029061232881611975565b0361234a5761ffff61233c61234492611f26565b168a8c611f35565b35611ffc565b63a5f611fd60e01b5f5260045ffd5b50955095505050935050565b602090612370611aec565b82828601015201611f7b565b6308d98c4f60e01b5f5260045ffd5b91908110156115235760051b0190565b919093929363ffffffff6123d284516020860195604084885116910151919091606092604051928352602083015260408201522090565b935116905f925b80841061244f57505050505f905f5b838110612429575b5050156124215761240091612912565b90811561241a5763ffffffff165f5260205260405f201490565b5050505f90565b505050505f90565b8161243582868861238b565b3514612443576001016123e8565b50505060015f806123f0565b9293600183811c9492938116036124825761246b85838561238b565b355f52602052600160405f20945b019291906123d9565b61248d85838561238b565b35905f52602052600160405f2094612479565b3569ffffffffffffffffffff19811681036110f05790565b919082039182116113d557565b9190916124d0611828565b5060408101356107d181106126d85760608201906103e86001600160401b036124f8846116c4565b16106126c957608083019261250c846124a0565b5f81901a60f81b6001600160f81b0319161590816126ab575b501561269c5761258361253c610140830183611cd0565b9061254b610160850185611cd0565b906125593660e08801611622565b9361257a610e845f545f52600160205263ffffffff600260405f2001541690565b935f549561239b565b1561268d576005820291808304600514811517156113d55763ffffffff946125c46125be6125b861271060ff970480956124b8565b966116c4565b916124a0565b6125d0602085016117e5565b906001600160401b036125e2866117e5565b93612606468d60a08a01359091606092604051928352602083015260408201522090565b9561262061010061261960c08b016116d8565b990161197f565b99604080519e8f90612631826115ae565b81524286166020820152015260608d01521660808b015269ffffffffffffffffffff191660a08a01526001600160a01b0390811660c08a01521660e08801526101008701521661012085015216610140830152611b9882611dfa565b634784fd3160e01b5f5260045ffd5b63fad7db0760e01b5f5260045ffd5b60011a60f81b6001600160f81b031916600560fa1b1490505f612525565b63fde5943160e01b5f5260045ffd5b6355fcd02760e01b5f5260045ffd5b6126ef611879565b90806126fa836118b9565b52612704826118b9565b5060405191604083016040845281518091526020606085019201905f5b8181106127f45750505082807f5579c3d9c997c3d3dd2d9b6a31a7dfc0db5442568016ac9668714bea178a8a28925f602061276b9701520390a16060604082015191015190611d95565b6040516323b872dd60e01b815233600482015230602482015260448101919091526020816064815f7f00000000000000000000000000000000000000000000000000000000000000006001600160a01b03165af19081156110e5575f916127d5575b501561139857565b6127ee915060203d602011610230576102228183611601565b5f6127cd565b90919260206101608261280a60019488516118da565b019401929101612721565b61283361282a6128253684611d05565b6128f0565b9135600361154f565b90549060031b1c81036128435790565b631a40316d60e01b5f5260045ffd5b94936128859392919261287b610e845f545f52600160205263ffffffff600260405f2001541690565b925f54948861239b565b156128e15763ffffffff8060206128af5f545f52600160205263ffffffff600260405f2001541690565b9401511691160163ffffffff81116113d55763ffffffff8091169116106128d257565b638e082f6760e01b5f5260045ffd5b637344e0b760e01b5f5260045ffd5b604051612901602082018093611a07565b6101208152611e1c61014082611601565b811561295d575f198201918083116113d55761292f83828461238b565b3592805b61293d5750505090565b5f19019261294c84838561238b565b355f526020528260405f2093612933565b50505f9056fea2646970667358221220d685e313b26257a9671a9a95bd735a1ba7a96e8de154c2a4384110c13f01f0cb64736f6c634300081c0033","linkReferences":{}},"methodIdentifiers":{"CIRCUIT_VERIFICATION_KEY()":"8d5ca052","DEPOSIT_TOKEN()":"13f66587","FEE_ROUTER_ADDRESS()":"898aeacb","TOKEN_DECIMALS()":"5b7f415c","VERIFIER()":"08c84e70","accumulatedFeeBalance()":"ca18100d","checkpoints(bytes32)":"eb5e91ff","depositLiquidity((address,address,uint256,uint64,bytes22,bytes32,uint8,(bytes32,uint32,uint256),bytes32[],bytes32[]))":"48678e06","depositLiquidityWithOverwrite(((address,address,uint256,uint64,bytes22,bytes32,uint8,(bytes32,uint32,uint256),bytes32[],bytes32[]),(uint256,uint64,uint256,uint256,uint64,bytes22,address,address,bytes32,uint8,uint64)))":"d6d51459","getLightClientHeight()":"1cbeebeb","getSwapCommitment(uint256)":"7ed34a36","getSwapCommitmentsLength()":"992284a6","getVaultCommitment(uint256)":"9f63bd97","getVaultCommitmentsLength()":"f5095c16","mmrRoot()":"d21ddc61","payoutToFeeRouter()":"f23a94a9","proveBlockInclusion((bytes32,uint32,uint256),bytes32[],bytes32[])":"42769946","releaseLiquidityBatch(((uint256,bytes32,bytes32,uint8,uint64,address,uint256,uint256,uint8),uint256,uint32,bytes32[],bytes32[],(uint256,uint64,uint256,uint256,uint64,bytes22,address,address,bytes32,uint8,uint64),uint32)[])":"7688e1bc","submitBatchSwapProof((bytes32,(uint256,uint64,uint256,uint256,uint64,bytes22,address,address,bytes32,uint8,uint64),uint8,uint16,(bytes32,uint32,uint256),bytes32[],bytes32[])[],(uint256,bytes32,bytes32,uint8,uint64,address,uint256,uint256,uint8)[],bytes)":"c1896938","submitBatchSwapProofWithLightClientUpdate((bytes32,(uint256,uint64,uint256,uint256,uint64,bytes22,address,address,bytes32,uint8,uint64),uint8,uint16,(bytes32,uint32,uint256),bytes32[],bytes32[])[],(bytes32,bytes32,bytes,(bytes32,uint32,uint256)),(uint256,bytes32,bytes32,uint8,uint64,address,uint256,uint256,uint8)[],bytes)":"1f1a4908","swapCommitments(uint256)":"365df233","updateLightClient((bytes32,bytes32,bytes,(bytes32,uint32,uint256)),bytes)":"592b6649","vaultCommitments(uint256)":"a6a0f96e","withdrawLiquidity((uint256,uint64,uint256,uint256,uint64,bytes22,address,address,bytes32,uint8,uint64))":"16a6db20"},"storageLayout":{"storage":[{"astId":41709,"contract":"src/RiftExchange.sol:RiftExchange","label":"mmrRoot","offset":0,"slot":"0","type":"t_bytes32"},{"astId":41714,"contract":"src/RiftExchange.sol:RiftExchange","label":"checkpoints","offset":0,"slot":"1","type":"t_mapping(t_bytes32,t_struct(BitcoinCheckpoint)43900_storage)"},{"astId":41934,"contract":"src/RiftExchange.sol:RiftExchange","label":"vaultCommitments","offset":0,"slot":"2","type":"t_array(t_bytes32)dyn_storage"},{"astId":41937,"contract":"src/RiftExchange.sol:RiftExchange","label":"swapCommitments","offset":0,"slot":"3","type":"t_array(t_bytes32)dyn_storage"},{"astId":41939,"contract":"src/RiftExchange.sol:RiftExchange","label":"accumulatedFeeBalance","offset":0,"slot":"4","type":"t_uint256"}],"types":{"t_array(t_bytes32)dyn_storage":{"encoding":"dynamic_array","label":"bytes32[]","numberOfBytes":"32","base":"t_bytes32"},"t_bool":{"encoding":"inplace","label":"bool","numberOfBytes":"1"},"t_bytes32":{"encoding":"inplace","label":"bytes32","numberOfBytes":"32"},"t_mapping(t_bytes32,t_struct(BitcoinCheckpoint)43900_storage)":{"encoding":"mapping","key":"t_bytes32","label":"mapping(bytes32 => struct Types.BitcoinCheckpoint)","numberOfBytes":"32","value":"t_struct(BitcoinCheckpoint)43900_storage"},"t_struct(BitcoinCheckpoint)43900_storage":{"encoding":"inplace","label":"struct Types.BitcoinCheckpoint","numberOfBytes":"128","members":[{"astId":43896,"contract":"src/RiftExchange.sol:RiftExchange","label":"established","offset":0,"slot":"0","type":"t_bool"},{"astId":43899,"contract":"src/RiftExchange.sol:RiftExchange","label":"tipBlockLeaf","offset":0,"slot":"1","type":"t_struct(BlockLeaf)43699_storage"}]},"t_struct(BlockLeaf)43699_storage":{"encoding":"inplace","label":"struct Types.BlockLeaf","numberOfBytes":"96","members":[{"astId":43694,"contract":"src/RiftExchange.sol:RiftExchange","label":"blockHash","offset":0,"slot":"0","type":"t_bytes32"},{"astId":43696,"contract":"src/RiftExchange.sol:RiftExchange","label":"height","offset":0,"slot":"1","type":"t_uint32"},{"astId":43698,"contract":"src/RiftExchange.sol:RiftExchange","label":"cumulativeChainwork","offset":0,"slot":"2","type":"t_uint256"}]},"t_uint256":{"encoding":"inplace","label":"uint256","numberOfBytes":"32"},"t_uint32":{"encoding":"inplace","label":"uint32","numberOfBytes":"4"}}},"id":39}