{"abi":[{"type":"constructor","inputs":[{"name":"_mmrRoot","type":"bytes32","internalType":"bytes32"},{"name":"_depositToken","type":"address","internalType":"address"},{"name":"_circuitVerificationKey","type":"bytes32","internalType":"bytes32"},{"name":"_verifier","type":"address","internalType":"address"},{"name":"_feeRouter","type":"address","internalType":"address"},{"name":"_takerFeeBips","type":"uint16","internalType":"uint16"},{"name":"_tipBlockLeaf","type":"tuple","internalType":"struct Types.BlockLeaf","components":[{"name":"blockHash","type":"bytes32","internalType":"bytes32"},{"name":"height","type":"uint32","internalType":"uint32"},{"name":"cumulativeChainwork","type":"uint256","internalType":"uint256"}]}],"stateMutability":"nonpayable"},{"type":"function","name":"CIRCUIT_VERIFICATION_KEY","inputs":[],"outputs":[{"name":"","type":"bytes32","internalType":"bytes32"}],"stateMutability":"view"},{"type":"function","name":"ERC20_BTC","inputs":[],"outputs":[{"name":"","type":"address","internalType":"address"}],"stateMutability":"view"},{"type":"function","name":"VERIFIER","inputs":[],"outputs":[{"name":"","type":"address","internalType":"contract ISP1Verifier"}],"stateMutability":"view"},{"type":"function","name":"accumulatedFeeBalance","inputs":[],"outputs":[{"name":"","type":"uint256","internalType":"uint256"}],"stateMutability":"view"},{"type":"function","name":"adminSetFeeRouterAddress","inputs":[{"name":"_feeRouter","type":"address","internalType":"address"}],"outputs":[],"stateMutability":"nonpayable"},{"type":"function","name":"adminSetTakerFeeBips","inputs":[{"name":"_takerFeeBips","type":"uint16","internalType":"uint16"}],"outputs":[],"stateMutability":"nonpayable"},{"type":"function","name":"cancelOwnershipHandover","inputs":[],"outputs":[],"stateMutability":"payable"},{"type":"function","name":"checkpoints","inputs":[{"name":"","type":"bytes32","internalType":"bytes32"}],"outputs":[{"name":"established","type":"bool","internalType":"bool"},{"name":"tipBlockLeaf","type":"tuple","internalType":"struct Types.BlockLeaf","components":[{"name":"blockHash","type":"bytes32","internalType":"bytes32"},{"name":"height","type":"uint32","internalType":"uint32"},{"name":"cumulativeChainwork","type":"uint256","internalType":"uint256"}]}],"stateMutability":"view"},{"type":"function","name":"completeOwnershipHandover","inputs":[{"name":"pendingOwner","type":"address","internalType":"address"}],"outputs":[],"stateMutability":"payable"},{"type":"function","name":"depositLiquidity","inputs":[{"name":"params","type":"tuple","internalType":"struct Types.DepositLiquidityParams","components":[{"name":"depositOwnerAddress","type":"address","internalType":"address"},{"name":"specifiedPayoutAddress","type":"address","internalType":"address"},{"name":"depositAmount","type":"uint256","internalType":"uint256"},{"name":"expectedSats","type":"uint64","internalType":"uint64"},{"name":"btcPayoutScriptPubKey","type":"bytes25","internalType":"bytes25"},{"name":"depositSalt","type":"bytes32","internalType":"bytes32"},{"name":"confirmationBlocks","type":"uint8","internalType":"uint8"},{"name":"safeBlockLeaf","type":"tuple","internalType":"struct Types.BlockLeaf","components":[{"name":"blockHash","type":"bytes32","internalType":"bytes32"},{"name":"height","type":"uint32","internalType":"uint32"},{"name":"cumulativeChainwork","type":"uint256","internalType":"uint256"}]},{"name":"safeBlockSiblings","type":"bytes32[]","internalType":"bytes32[]"},{"name":"safeBlockPeaks","type":"bytes32[]","internalType":"bytes32[]"}]}],"outputs":[{"name":"","type":"bytes32","internalType":"bytes32"}],"stateMutability":"nonpayable"},{"type":"function","name":"depositLiquidityWithOverwrite","inputs":[{"name":"params","type":"tuple","internalType":"struct Types.DepositLiquidityWithOverwriteParams","components":[{"name":"depositParams","type":"tuple","internalType":"struct Types.DepositLiquidityParams","components":[{"name":"depositOwnerAddress","type":"address","internalType":"address"},{"name":"specifiedPayoutAddress","type":"address","internalType":"address"},{"name":"depositAmount","type":"uint256","internalType":"uint256"},{"name":"expectedSats","type":"uint64","internalType":"uint64"},{"name":"btcPayoutScriptPubKey","type":"bytes25","internalType":"bytes25"},{"name":"depositSalt","type":"bytes32","internalType":"bytes32"},{"name":"confirmationBlocks","type":"uint8","internalType":"uint8"},{"name":"safeBlockLeaf","type":"tuple","internalType":"struct Types.BlockLeaf","components":[{"name":"blockHash","type":"bytes32","internalType":"bytes32"},{"name":"height","type":"uint32","internalType":"uint32"},{"name":"cumulativeChainwork","type":"uint256","internalType":"uint256"}]},{"name":"safeBlockSiblings","type":"bytes32[]","internalType":"bytes32[]"},{"name":"safeBlockPeaks","type":"bytes32[]","internalType":"bytes32[]"}]},{"name":"overwriteVault","type":"tuple","internalType":"struct Types.DepositVault","components":[{"name":"vaultIndex","type":"uint256","internalType":"uint256"},{"name":"depositTimestamp","type":"uint64","internalType":"uint64"},{"name":"depositUnlockTimestamp","type":"uint64","internalType":"uint64"},{"name":"vaultAmount","type":"uint256","internalType":"uint256"},{"name":"takerFee","type":"uint256","internalType":"uint256"},{"name":"expectedSats","type":"uint64","internalType":"uint64"},{"name":"btcPayoutScriptPubKey","type":"bytes25","internalType":"bytes25"},{"name":"specifiedPayoutAddress","type":"address","internalType":"address"},{"name":"ownerAddress","type":"address","internalType":"address"},{"name":"salt","type":"bytes32","internalType":"bytes32"},{"name":"confirmationBlocks","type":"uint8","internalType":"uint8"},{"name":"attestedBitcoinBlockHeight","type":"uint64","internalType":"uint64"}]}]}],"outputs":[{"name":"","type":"bytes32","internalType":"bytes32"}],"stateMutability":"nonpayable"},{"type":"function","name":"eip712Domain","inputs":[],"outputs":[{"name":"fields","type":"bytes1","internalType":"bytes1"},{"name":"name","type":"string","internalType":"string"},{"name":"version","type":"string","internalType":"string"},{"name":"chainId","type":"uint256","internalType":"uint256"},{"name":"verifyingContract","type":"address","internalType":"address"},{"name":"salt","type":"bytes32","internalType":"bytes32"},{"name":"extensions","type":"uint256[]","internalType":"uint256[]"}],"stateMutability":"view"},{"type":"function","name":"feeRouterAddress","inputs":[],"outputs":[{"name":"","type":"address","internalType":"address"}],"stateMutability":"view"},{"type":"function","name":"getLightClientHeight","inputs":[],"outputs":[{"name":"","type":"uint32","internalType":"uint32"}],"stateMutability":"view"},{"type":"function","name":"getSwapHash","inputs":[{"name":"swapIndex","type":"uint256","internalType":"uint256"}],"outputs":[{"name":"","type":"bytes32","internalType":"bytes32"}],"stateMutability":"view"},{"type":"function","name":"getSwapHashesLength","inputs":[],"outputs":[{"name":"","type":"uint256","internalType":"uint256"}],"stateMutability":"view"},{"type":"function","name":"getVaultHash","inputs":[{"name":"vaultIndex","type":"uint256","internalType":"uint256"}],"outputs":[{"name":"","type":"bytes32","internalType":"bytes32"}],"stateMutability":"view"},{"type":"function","name":"getVaultHashesLength","inputs":[],"outputs":[{"name":"","type":"uint256","internalType":"uint256"}],"stateMutability":"view"},{"type":"function","name":"mmrRoot","inputs":[],"outputs":[{"name":"","type":"bytes32","internalType":"bytes32"}],"stateMutability":"view"},{"type":"function","name":"owner","inputs":[],"outputs":[{"name":"result","type":"address","internalType":"address"}],"stateMutability":"view"},{"type":"function","name":"ownershipHandoverExpiresAt","inputs":[{"name":"pendingOwner","type":"address","internalType":"address"}],"outputs":[{"name":"result","type":"uint256","internalType":"uint256"}],"stateMutability":"view"},{"type":"function","name":"payoutToFeeRouter","inputs":[],"outputs":[],"stateMutability":"nonpayable"},{"type":"function","name":"proveBlockInclusion","inputs":[{"name":"blockLeaf","type":"tuple","internalType":"struct Types.BlockLeaf","components":[{"name":"blockHash","type":"bytes32","internalType":"bytes32"},{"name":"height","type":"uint32","internalType":"uint32"},{"name":"cumulativeChainwork","type":"uint256","internalType":"uint256"}]},{"name":"siblings","type":"bytes32[]","internalType":"bytes32[]"},{"name":"peaks","type":"bytes32[]","internalType":"bytes32[]"}],"outputs":[{"name":"","type":"bool","internalType":"bool"}],"stateMutability":"view"},{"type":"function","name":"releaseLiquidityBatch","inputs":[{"name":"paramsArray","type":"tuple[]","internalType":"struct Types.ReleaseLiquidityParams[]","components":[{"name":"swap","type":"tuple","internalType":"struct Types.ProposedSwap","components":[{"name":"swapIndex","type":"uint256","internalType":"uint256"},{"name":"depositVaultHash","type":"bytes32","internalType":"bytes32"},{"name":"swapBitcoinBlockLeaf","type":"tuple","internalType":"struct Types.BlockLeaf","components":[{"name":"blockHash","type":"bytes32","internalType":"bytes32"},{"name":"height","type":"uint32","internalType":"uint32"},{"name":"cumulativeChainwork","type":"uint256","internalType":"uint256"}]},{"name":"confirmationBlocks","type":"uint8","internalType":"uint8"},{"name":"liquidityUnlockTimestamp","type":"uint64","internalType":"uint64"},{"name":"specifiedPayoutAddress","type":"address","internalType":"address"},{"name":"totalSwapOutput","type":"uint256","internalType":"uint256"},{"name":"takerFee","type":"uint256","internalType":"uint256"},{"name":"state","type":"uint8","internalType":"enum Types.SwapState"}]},{"name":"bitcoinSwapBlockSiblings","type":"bytes32[]","internalType":"bytes32[]"},{"name":"bitcoinSwapBlockPeaks","type":"bytes32[]","internalType":"bytes32[]"},{"name":"utilizedVault","type":"tuple","internalType":"struct Types.DepositVault","components":[{"name":"vaultIndex","type":"uint256","internalType":"uint256"},{"name":"depositTimestamp","type":"uint64","internalType":"uint64"},{"name":"depositUnlockTimestamp","type":"uint64","internalType":"uint64"},{"name":"vaultAmount","type":"uint256","internalType":"uint256"},{"name":"takerFee","type":"uint256","internalType":"uint256"},{"name":"expectedSats","type":"uint64","internalType":"uint64"},{"name":"btcPayoutScriptPubKey","type":"bytes25","internalType":"bytes25"},{"name":"specifiedPayoutAddress","type":"address","internalType":"address"},{"name":"ownerAddress","type":"address","internalType":"address"},{"name":"salt","type":"bytes32","internalType":"bytes32"},{"name":"confirmationBlocks","type":"uint8","internalType":"uint8"},{"name":"attestedBitcoinBlockHeight","type":"uint64","internalType":"uint64"}]},{"name":"tipBlockHeight","type":"uint32","internalType":"uint32"}]}],"outputs":[],"stateMutability":"nonpayable"},{"type":"function","name":"renounceOwnership","inputs":[],"outputs":[],"stateMutability":"payable"},{"type":"function","name":"requestOwnershipHandover","inputs":[],"outputs":[],"stateMutability":"payable"},{"type":"function","name":"serializeLightClientPublicInput","inputs":[{"name":"input","type":"tuple","internalType":"struct Types.LightClientPublicInput","components":[{"name":"previousMmrRoot","type":"bytes32","internalType":"bytes32"},{"name":"newMmrRoot","type":"bytes32","internalType":"bytes32"},{"name":"compressedLeavesHash","type":"bytes32","internalType":"bytes32"},{"name":"tipBlockLeaf","type":"tuple","internalType":"struct Types.BlockLeaf","components":[{"name":"blockHash","type":"bytes32","internalType":"bytes32"},{"name":"height","type":"uint32","internalType":"uint32"},{"name":"cumulativeChainwork","type":"uint256","internalType":"uint256"}]}]}],"outputs":[{"name":"","type":"bytes","internalType":"bytes"}],"stateMutability":"pure"},{"type":"function","name":"submitBatchSwapProof","inputs":[{"name":"swapParams","type":"tuple[]","internalType":"struct Types.SubmitSwapProofParams[]","components":[{"name":"swapBitcoinTxid","type":"bytes32","internalType":"bytes32"},{"name":"vault","type":"tuple","internalType":"struct Types.DepositVault","components":[{"name":"vaultIndex","type":"uint256","internalType":"uint256"},{"name":"depositTimestamp","type":"uint64","internalType":"uint64"},{"name":"depositUnlockTimestamp","type":"uint64","internalType":"uint64"},{"name":"vaultAmount","type":"uint256","internalType":"uint256"},{"name":"takerFee","type":"uint256","internalType":"uint256"},{"name":"expectedSats","type":"uint64","internalType":"uint64"},{"name":"btcPayoutScriptPubKey","type":"bytes25","internalType":"bytes25"},{"name":"specifiedPayoutAddress","type":"address","internalType":"address"},{"name":"ownerAddress","type":"address","internalType":"address"},{"name":"salt","type":"bytes32","internalType":"bytes32"},{"name":"confirmationBlocks","type":"uint8","internalType":"uint8"},{"name":"attestedBitcoinBlockHeight","type":"uint64","internalType":"uint64"}]},{"name":"storageStrategy","type":"uint8","internalType":"enum Types.StorageStrategy"},{"name":"localOverwriteIndex","type":"uint16","internalType":"uint16"},{"name":"swapBitcoinBlockLeaf","type":"tuple","internalType":"struct Types.BlockLeaf","components":[{"name":"blockHash","type":"bytes32","internalType":"bytes32"},{"name":"height","type":"uint32","internalType":"uint32"},{"name":"cumulativeChainwork","type":"uint256","internalType":"uint256"}]},{"name":"swapBitcoinBlockSiblings","type":"bytes32[]","internalType":"bytes32[]"},{"name":"swapBitcoinBlockPeaks","type":"bytes32[]","internalType":"bytes32[]"}]},{"name":"overwriteSwaps","type":"tuple[]","internalType":"struct Types.ProposedSwap[]","components":[{"name":"swapIndex","type":"uint256","internalType":"uint256"},{"name":"depositVaultHash","type":"bytes32","internalType":"bytes32"},{"name":"swapBitcoinBlockLeaf","type":"tuple","internalType":"struct Types.BlockLeaf","components":[{"name":"blockHash","type":"bytes32","internalType":"bytes32"},{"name":"height","type":"uint32","internalType":"uint32"},{"name":"cumulativeChainwork","type":"uint256","internalType":"uint256"}]},{"name":"confirmationBlocks","type":"uint8","internalType":"uint8"},{"name":"liquidityUnlockTimestamp","type":"uint64","internalType":"uint64"},{"name":"specifiedPayoutAddress","type":"address","internalType":"address"},{"name":"totalSwapOutput","type":"uint256","internalType":"uint256"},{"name":"takerFee","type":"uint256","internalType":"uint256"},{"name":"state","type":"uint8","internalType":"enum Types.SwapState"}]},{"name":"proof","type":"bytes","internalType":"bytes"}],"outputs":[],"stateMutability":"nonpayable"},{"type":"function","name":"submitBatchSwapProofWithLightClientUpdate","inputs":[{"name":"swapParams","type":"tuple[]","internalType":"struct Types.SubmitSwapProofParams[]","components":[{"name":"swapBitcoinTxid","type":"bytes32","internalType":"bytes32"},{"name":"vault","type":"tuple","internalType":"struct Types.DepositVault","components":[{"name":"vaultIndex","type":"uint256","internalType":"uint256"},{"name":"depositTimestamp","type":"uint64","internalType":"uint64"},{"name":"depositUnlockTimestamp","type":"uint64","internalType":"uint64"},{"name":"vaultAmount","type":"uint256","internalType":"uint256"},{"name":"takerFee","type":"uint256","internalType":"uint256"},{"name":"expectedSats","type":"uint64","internalType":"uint64"},{"name":"btcPayoutScriptPubKey","type":"bytes25","internalType":"bytes25"},{"name":"specifiedPayoutAddress","type":"address","internalType":"address"},{"name":"ownerAddress","type":"address","internalType":"address"},{"name":"salt","type":"bytes32","internalType":"bytes32"},{"name":"confirmationBlocks","type":"uint8","internalType":"uint8"},{"name":"attestedBitcoinBlockHeight","type":"uint64","internalType":"uint64"}]},{"name":"storageStrategy","type":"uint8","internalType":"enum Types.StorageStrategy"},{"name":"localOverwriteIndex","type":"uint16","internalType":"uint16"},{"name":"swapBitcoinBlockLeaf","type":"tuple","internalType":"struct Types.BlockLeaf","components":[{"name":"blockHash","type":"bytes32","internalType":"bytes32"},{"name":"height","type":"uint32","internalType":"uint32"},{"name":"cumulativeChainwork","type":"uint256","internalType":"uint256"}]},{"name":"swapBitcoinBlockSiblings","type":"bytes32[]","internalType":"bytes32[]"},{"name":"swapBitcoinBlockPeaks","type":"bytes32[]","internalType":"bytes32[]"}]},{"name":"blockProofParams","type":"tuple","internalType":"struct Types.BlockProofParams","components":[{"name":"priorMmrRoot","type":"bytes32","internalType":"bytes32"},{"name":"newMmrRoot","type":"bytes32","internalType":"bytes32"},{"name":"compressedBlockLeaves","type":"bytes","internalType":"bytes"},{"name":"tipBlockLeaf","type":"tuple","internalType":"struct Types.BlockLeaf","components":[{"name":"blockHash","type":"bytes32","internalType":"bytes32"},{"name":"height","type":"uint32","internalType":"uint32"},{"name":"cumulativeChainwork","type":"uint256","internalType":"uint256"}]}]},{"name":"overwriteSwaps","type":"tuple[]","internalType":"struct Types.ProposedSwap[]","components":[{"name":"swapIndex","type":"uint256","internalType":"uint256"},{"name":"depositVaultHash","type":"bytes32","internalType":"bytes32"},{"name":"swapBitcoinBlockLeaf","type":"tuple","internalType":"struct Types.BlockLeaf","components":[{"name":"blockHash","type":"bytes32","internalType":"bytes32"},{"name":"height","type":"uint32","internalType":"uint32"},{"name":"cumulativeChainwork","type":"uint256","internalType":"uint256"}]},{"name":"confirmationBlocks","type":"uint8","internalType":"uint8"},{"name":"liquidityUnlockTimestamp","type":"uint64","internalType":"uint64"},{"name":"specifiedPayoutAddress","type":"address","internalType":"address"},{"name":"totalSwapOutput","type":"uint256","internalType":"uint256"},{"name":"takerFee","type":"uint256","internalType":"uint256"},{"name":"state","type":"uint8","internalType":"enum Types.SwapState"}]},{"name":"proof","type":"bytes","internalType":"bytes"}],"outputs":[],"stateMutability":"nonpayable"},{"type":"function","name":"swapHashes","inputs":[{"name":"","type":"uint256","internalType":"uint256"}],"outputs":[{"name":"","type":"bytes32","internalType":"bytes32"}],"stateMutability":"view"},{"type":"function","name":"takerFeeBips","inputs":[],"outputs":[{"name":"","type":"uint16","internalType":"uint16"}],"stateMutability":"view"},{"type":"function","name":"transferOwnership","inputs":[{"name":"newOwner","type":"address","internalType":"address"}],"outputs":[],"stateMutability":"payable"},{"type":"function","name":"updateLightClient","inputs":[{"name":"blockProofParams","type":"tuple","internalType":"struct Types.BlockProofParams","components":[{"name":"priorMmrRoot","type":"bytes32","internalType":"bytes32"},{"name":"newMmrRoot","type":"bytes32","internalType":"bytes32"},{"name":"compressedBlockLeaves","type":"bytes","internalType":"bytes"},{"name":"tipBlockLeaf","type":"tuple","internalType":"struct Types.BlockLeaf","components":[{"name":"blockHash","type":"bytes32","internalType":"bytes32"},{"name":"height","type":"uint32","internalType":"uint32"},{"name":"cumulativeChainwork","type":"uint256","internalType":"uint256"}]}]},{"name":"proof","type":"bytes","internalType":"bytes"}],"outputs":[],"stateMutability":"nonpayable"},{"type":"function","name":"vaultHashes","inputs":[{"name":"","type":"uint256","internalType":"uint256"}],"outputs":[{"name":"","type":"bytes32","internalType":"bytes32"}],"stateMutability":"view"},{"type":"function","name":"verifyZkProof","inputs":[{"name":"proofPublicInput","type":"tuple","internalType":"struct Types.ProofPublicInput","components":[{"name":"proofType","type":"uint8","internalType":"enum Types.ProofType"},{"name":"swaps","type":"tuple[]","internalType":"struct Types.SwapPublicInput[]","components":[{"name":"swapBitcoinTxid","type":"bytes32","internalType":"bytes32"},{"name":"swapBitcoinBlockHash","type":"bytes32","internalType":"bytes32"},{"name":"depositVaultHash","type":"bytes32","internalType":"bytes32"}]},{"name":"lightClient","type":"tuple","internalType":"struct Types.LightClientPublicInput","components":[{"name":"previousMmrRoot","type":"bytes32","internalType":"bytes32"},{"name":"newMmrRoot","type":"bytes32","internalType":"bytes32"},{"name":"compressedLeavesHash","type":"bytes32","internalType":"bytes32"},{"name":"tipBlockLeaf","type":"tuple","internalType":"struct Types.BlockLeaf","components":[{"name":"blockHash","type":"bytes32","internalType":"bytes32"},{"name":"height","type":"uint32","internalType":"uint32"},{"name":"cumulativeChainwork","type":"uint256","internalType":"uint256"}]}]}]},{"name":"proof","type":"bytes","internalType":"bytes"}],"outputs":[],"stateMutability":"view"},{"type":"function","name":"withdrawLiquidity","inputs":[{"name":"vault","type":"tuple","internalType":"struct Types.DepositVault","components":[{"name":"vaultIndex","type":"uint256","internalType":"uint256"},{"name":"depositTimestamp","type":"uint64","internalType":"uint64"},{"name":"depositUnlockTimestamp","type":"uint64","internalType":"uint64"},{"name":"vaultAmount","type":"uint256","internalType":"uint256"},{"name":"takerFee","type":"uint256","internalType":"uint256"},{"name":"expectedSats","type":"uint64","internalType":"uint64"},{"name":"btcPayoutScriptPubKey","type":"bytes25","internalType":"bytes25"},{"name":"specifiedPayoutAddress","type":"address","internalType":"address"},{"name":"ownerAddress","type":"address","internalType":"address"},{"name":"salt","type":"bytes32","internalType":"bytes32"},{"name":"confirmationBlocks","type":"uint8","internalType":"uint8"},{"name":"attestedBitcoinBlockHeight","type":"uint64","internalType":"uint64"}]}],"outputs":[],"stateMutability":"nonpayable"},{"type":"event","name":"BitcoinLightClientUpdated","inputs":[{"name":"priorMmrRoot","type":"bytes32","indexed":false,"internalType":"bytes32"},{"name":"newMmrRoot","type":"bytes32","indexed":false,"internalType":"bytes32"},{"name":"compressedBlockLeaves","type":"bytes","indexed":false,"internalType":"bytes"}],"anonymous":false},{"type":"event","name":"OwnershipHandoverCanceled","inputs":[{"name":"pendingOwner","type":"address","indexed":true,"internalType":"address"}],"anonymous":false},{"type":"event","name":"OwnershipHandoverRequested","inputs":[{"name":"pendingOwner","type":"address","indexed":true,"internalType":"address"}],"anonymous":false},{"type":"event","name":"OwnershipTransferred","inputs":[{"name":"oldOwner","type":"address","indexed":true,"internalType":"address"},{"name":"newOwner","type":"address","indexed":true,"internalType":"address"}],"anonymous":false},{"type":"event","name":"SwapsUpdated","inputs":[{"name":"swaps","type":"tuple[]","indexed":false,"internalType":"struct Types.ProposedSwap[]","components":[{"name":"swapIndex","type":"uint256","internalType":"uint256"},{"name":"depositVaultHash","type":"bytes32","internalType":"bytes32"},{"name":"swapBitcoinBlockLeaf","type":"tuple","internalType":"struct Types.BlockLeaf","components":[{"name":"blockHash","type":"bytes32","internalType":"bytes32"},{"name":"height","type":"uint32","internalType":"uint32"},{"name":"cumulativeChainwork","type":"uint256","internalType":"uint256"}]},{"name":"confirmationBlocks","type":"uint8","internalType":"uint8"},{"name":"liquidityUnlockTimestamp","type":"uint64","internalType":"uint64"},{"name":"specifiedPayoutAddress","type":"address","internalType":"address"},{"name":"totalSwapOutput","type":"uint256","internalType":"uint256"},{"name":"takerFee","type":"uint256","internalType":"uint256"},{"name":"state","type":"uint8","internalType":"enum Types.SwapState"}]},{"name":"context","type":"uint8","indexed":false,"internalType":"enum Types.SwapUpdateContext"}],"anonymous":false},{"type":"event","name":"VaultsUpdated","inputs":[{"name":"vaults","type":"tuple[]","indexed":false,"internalType":"struct Types.DepositVault[]","components":[{"name":"vaultIndex","type":"uint256","internalType":"uint256"},{"name":"depositTimestamp","type":"uint64","internalType":"uint64"},{"name":"depositUnlockTimestamp","type":"uint64","internalType":"uint64"},{"name":"vaultAmount","type":"uint256","internalType":"uint256"},{"name":"takerFee","type":"uint256","internalType":"uint256"},{"name":"expectedSats","type":"uint64","internalType":"uint64"},{"name":"btcPayoutScriptPubKey","type":"bytes25","internalType":"bytes25"},{"name":"specifiedPayoutAddress","type":"address","internalType":"address"},{"name":"ownerAddress","type":"address","internalType":"address"},{"name":"salt","type":"bytes32","internalType":"bytes32"},{"name":"confirmationBlocks","type":"uint8","internalType":"uint8"},{"name":"attestedBitcoinBlockHeight","type":"uint64","internalType":"uint64"}]},{"name":"context","type":"uint8","indexed":false,"internalType":"enum Types.VaultUpdateContext"}],"anonymous":false},{"type":"error","name":"AlreadyInitialized","inputs":[]},{"type":"error","name":"BlockNotConfirmed","inputs":[]},{"type":"error","name":"BlockNotInChain","inputs":[]},{"type":"error","name":"CannotOverwriteOngoingSwap","inputs":[]},{"type":"error","name":"ChainworkTooLow","inputs":[]},{"type":"error","name":"CheckpointNotEstablished","inputs":[]},{"type":"error","name":"DepositAmountTooLow","inputs":[]},{"type":"error","name":"DepositStillLocked","inputs":[]},{"type":"error","name":"DepositVaultDoesNotExist","inputs":[]},{"type":"error","name":"DepositVaultNotOverwritable","inputs":[]},{"type":"error","name":"EmptyDepositVault","inputs":[]},{"type":"error","name":"InvalidDepositTokenDecimals","inputs":[]},{"type":"error","name":"InvalidScriptPubKey","inputs":[]},{"type":"error","name":"InvalidVaultHash","inputs":[{"name":"actual","type":"bytes32","internalType":"bytes32"},{"name":"expected","type":"bytes32","internalType":"bytes32"}]},{"type":"error","name":"NewOwnerIsZeroAddress","inputs":[]},{"type":"error","name":"NoFeeToPay","inputs":[]},{"type":"error","name":"NoHandoverRequest","inputs":[]},{"type":"error","name":"NoSwapsToSubmit","inputs":[]},{"type":"error","name":"NotEnoughConfirmationBlocks","inputs":[]},{"type":"error","name":"SatOutputTooLow","inputs":[]},{"type":"error","name":"StillInChallengePeriod","inputs":[]},{"type":"error","name":"SwapDoesNotExist","inputs":[]},{"type":"error","name":"SwapNotProved","inputs":[]},{"type":"error","name":"Unauthorized","inputs":[]}],"bytecode":{"object":"0x610180806040523461034557806132a7803803809161001e8285610370565b833981010361012081126103455781519161003b60208201610393565b60408201519061004d60608401610393565b9261005a60808201610393565b9560a08201519561ffff871687036103455760609060bf1901126103455760405191606083016001600160401b0381118482101761035c5760405260c0810151835260e08101519063ffffffff821682036103455761010091602085015201516040830152805f5560405191604083019083821060018060401b0383111761035c57600392604092835260018552602085019182525f526001602052815f209351151560ff8019865416911617845551805160018501556002840163ffffffff60208301511663ffffffff198254161790550151910155306080524660a05260a0604051610149604082610370565b600c815260208101906b5269667445786368616e676560a01b825260405191610173604084610370565b60058352602083019164302e302e3160d81b8352519020915190208160c0528060e052604051917f8b73c3c69bb8fe3d512ecc4cf759cc79239f7b179b0ffacaa9a75d522b39400f835260208301526040820152466060820152306080820152206101005233638b78c6d81955335f7f8be0079c531659141344cd1fd0a4f28419497f9722a3daafe3b4186f6b6457e08180a360405163313ce56760e01b81526020816004816001600160a01b0386165afa908115610351575f91610310575b5060ff60089116036103015761012052610140526001600160a01b0390811661016052600580546001600160b01b031916939091169290921760a09190911b61ffff60a01b16179055604051612eff90816103a8823960805181612982015260a051816129a5015260c05181612ab5015260e05181612adb015261010051816129610152610120518181816102480152818161076c01528181610cc6015281816110c50152612bd40152610140518181816108d90152611a4d0152610160518181816112c4015261199c0152f35b6309d575ed60e41b5f5260045ffd5b90506020813d602011610349575b8161032b60209383610370565b81010312610345575160ff811681036103455760ff610233565b5f80fd5b3d915061031e565b6040513d5f823e3d90fd5b634e487b7160e01b5f52604160045260245ffd5b601f909101601f19168101906001600160401b0382119082101761035c57604052565b51906001600160a01b03821682036103455756fe60806040526004361015610011575f80fd5b5f3560e01c8063029774141461147b57806303af626a1461145e57806307a2ec52146112f357806308c84e70146112af5780631cbeebeb146112725780632569296214611229578063298842fb1461120b578063333f871a146111e2578063427699461461111c578063428f29b8146110f4578063473d175d146110b05780635377d5ee1461106d57806354d1f13d146110295780635861af0014610c56578063592b664914610b35578063640179d814610ab657806365e99ad814610a99578063715018a614610a505780637c2301a6146109d357806384b0196e146108fc5780638d5ca052146108c25780638da5cb5b146108965780639a73f4f514610872578063a657fbea14610854578063c190c16414610618578063ca18100d146105fb578063d21ddc61146105df578063e16ddab314610460578063e58e0fe314610418578063e5e78e02146103e0578063eb5e91ff1461037d578063eb9ecdd1146102c8578063f04e283e1461027b578063f23a94a914610218578063f2fde38b146101db5763fee81cf4146101a5575f80fd5b346101d75760203660031901126101d7576101be6117bd565b63389a75e1600c525f52602080600c2054604051908152f35b5f80fd5b60203660031901126101d7576101ef6117bd565b6101f76124fe565b8060601b1561020b5761020990612c85565b005b637448fbae5f526004601cfd5b346101d7575f3660031901126101d757600454801561026c575f60045560055461020991906001600160a01b03167f0000000000000000000000000000000000000000000000000000000000000000612677565b630fbcad4560e21b5f5260045ffd5b60203660031901126101d75761028f6117bd565b6102976124fe565b63389a75e1600c52805f526020600c2090815442116102bb575f6102099255612c85565b636f5e88185f526004601cfd5b346101d75760203660031901126101d7576004356001600160401b0381116101d7578036036101a06003198201126101d7576024820161030781612557565b50608483013561036e57359160048101359161018219018212156101d7578261036161034060209560046103499661036696010161280b565b94859193611790565b90919082549060031b91821b915f19901b1916179055565b612b61565b604051908152f35b630faaae6760e31b5f5260045ffd5b346101d75760203660031901126101d7576004355f526001602052608060405f206103de6103b2600160ff845416930161180b565b60405192151583526020830190604080918051845263ffffffff60208201511660208501520151910152565bf35b346101d75760203660031901126101d7576004356002548110156101d757610409602091611790565b90549060031b1c604051908152f35b346101d75760203660031901126101d75760043561ffff811681036101d75761043f6124fe565b6005805461ffff60a01b191660a09290921b61ffff60a01b16919091179055005b346101d75760803660031901126101d7576004356001600160401b0381116101d7576104909036906004016115d5565b602435906001600160401b0382116101d757816004019260c060031984360301126101d7576044356001600160401b0381116101d7576104d4903690600401611605565b90926064356001600160401b0381116101d7576104f5903690600401611636565b949093873593602488013592606489019460448a01996105158b8d611f53565b61051f368a611724565b9161052b92898c6126c8565b60840161053790611fca565b9361054194611ffb565b9661054c9198611f53565b369061055792611f85565b80519060200120906040519361056c85611663565b8452602084015260408301523661058291611724565b6060820152604051936105948561167e565b60028552602085015260408401526105ab92611991565b6040516105b98192826118db565b037fdc0391168b5903ca02f8020523ba62927809fd9d25baf94fcb8bb339e0c8f73191a1005b346101d7575f3660031901126101d75760205f54604051908152f35b346101d7575f3660031901126101d7576020600454604051908152f35b346101d757366003190161018081126101d757610633612594565b50606435801561084557604435916001600160401b0383168084036101d757421061083657610180136101d7576040519161066d836116b5565b60043583526024356001600160401b03811681036101d75760208401526040830152606082019080825260843591608084019280845260a4356001600160401b03811681036101d75760a086015260c43566ffffffffffffff19811681036101d75760c086015260e4356001600160a01b03811681036101d75760e086015261010435926001600160a01b03841684036101d75783610100870152610124356101208701526101443560ff811681036101d75761014087015261016435926001600160401b03841684036101d757610790955f8092610769966101608b0152525261076461075a8761262d565b6103498851611790565b611e8c565b907f0000000000000000000000000000000000000000000000000000000000000000612677565b610798611c1b565b906107a282611dd0565b526107ac81611dd0565b50604051604081016040825282518091526020606083019301905f5b81811061081557505050807fbcf83654bbe8d2d5a003763444fb50a895b7721b0239dcd314d345f8a3cdfb1992600160208301520390a1005b634e487b7160e01b5f52602160045260245ffd5b90919360206101808261082b6001948951611ead565b0195019291016107c8565b6301b512a960e21b5f5260045ffd5b637941e9ad60e01b5f5260045ffd5b346101d75760203660031901126101d7576020610409600435611790565b346101d7575f3660031901126101d757602061ffff60055460a01c16604051908152f35b346101d7575f3660031901126101d757638b78c6d819546040516001600160a01b039091168152602090f35b346101d7575f3660031901126101d75760206040517f00000000000000000000000000000000000000000000000000000000000000008152f35b346101d7575f3660031901126101d757610975604061098281519161092181846116ec565b600c83526b5269667445786368616e676560a01b6020840152805161094682826116ec565b6005815264302e302e3160d81b60208201528151948594600f60f81b865260e0602087015260e08601906117e7565b91848303908501526117e7565b4660608301523060808301525f60a083015281810360c083015260206060519182815201906080905f5b8181106109ba575050500390f35b82518452859450602093840193909201916001016109ac565b346101d75760c03660031901126101d757610a4c6040516109f381611663565b600435815260243560208201526044356040820152610a13366064611724565b6060820152610a2960405191602083019061192b565b60c08152610a3860e0826116ec565b6040519182916020835260208301906117e7565b0390f35b5f3660031901126101d757610a636124fe565b5f638b78c6d819547f8be0079c531659141344cd1fd0a4f28419497f9722a3daafe3b4186f6b6457e08280a35f638b78c6d81955005b346101d7575f3660031901126101d7576020600254604051908152f35b346101d75760203660031901126101d7576004356001600160401b0381116101d75761018060031982360301126101d757600254610af69160040161280b565b600254600160401b811015610b215760209261036183610349846001610366960160025560026117a8565b634e487b7160e01b5f52604160045260245ffd5b346101d75760403660031901126101d7576004356001600160401b0381116101d757806004019060c060031982360301126101d7576024356001600160401b0381116101d757610b89903690600401611636565b9160448101610ba2610b9b8287611f53565b3691611f85565b60208151910120610bd3610bc187359360646024870135960198611f53565b90610bcc368a611724565b86866126c8565b60405192610be26020856116ec565b5f84525f805b818110610c3f57505095610c1a916102099760405194610c0786611663565b8552602085015260408401523690611724565b606082015260405191610c2c8361167e565b6001835260208301526040820152611991565b602090610c4a611b18565b82828901015201610be8565b346101d75760203660031901126101d7576004356001600160401b0381116101d757610c869036906004016115d5565b90610c9082611b36565b90610c9a8361170d565b92610ca860405194856116ec565b808452601f19610cb78261170d565b015f5b8181106110125750505f7f0000000000000000000000000000000000000000000000000000000000000000905b828110610dd8578585604051604081016040825282518091526020606083019301905f5b818110610db757505050807fdc0391168b5903ca02f8020523ba62927809fd9d25baf94fcb8bb339e0c8f73192600160208301520390a1604051604081016040825282518091526020606083019301905f5b818110610d9657505050807fbcf83654bbe8d2d5a003763444fb50a895b7721b0239dcd314d345f8a3cdfb1992600260208301520390a1005b909193602061018082610dac6001948951611ead565b019501929101610d5d565b909193602061016082610dcd6001948951611843565b019501929101610d0b565b610deb610de6828587611c5b565b61251a565b50610140610dfa828587611c5b565b013560038110156101d757600190610e1181611839565b03611003576001600160401b03610e3460c0610e2e848789611c5b565b01611c7e565b164210610ff457610e526101a0610e4c838688611c5b565b01612557565b6020610e5f838688611c5b565b01358103610fd05750600190610eda610e85366040610e7f85898b611c5b565b01611724565b8587610ea0610e95868484611c5b565b610160810190611c92565b9060ff610ed360a0610ecd8a610ec5610eba828b8b611c5b565b610180810190611c92565b999098611c5b565b01611cc7565b16946125af565b610ef2366101a0610eec84888a611c5b565b01611cf7565b5f60608201525f6080820152610f14610f0a8261262d565b6103498351611790565b610f1e8289611ddd565b52610f298188611ddd565b50610f3e36610f39838789611c5b565b611df1565b6002610100820152610f66610f5282612655565b610349610f6085898b611c5b565b35611764565b610f81610120610f7784888a611c5b565b0135600454611e8c565b600455610fb4610f9d60e0610f9785898b611c5b565b01611e99565b610100610fab85898b611c5b565b01359086612677565b610fbe8288611ddd565b52610fc98187611ddd565b5001610ce7565b6020610fdd838688611c5b565b013563046aaf4f60e51b5f5260045260245260445ffd5b632d5c37f560e21b5f5260045ffd5b6322fc5d4360e21b5f5260045ffd5b60209061101d611bc3565b82828901015201610cba565b5f3660031901126101d75763389a75e1600c52335f525f6020600c2055337ffa7b8eab7da67f412cc9575ed43464468f9bfbae89d1675917346ca6d8fe3c925f80a2005b346101d75760203660031901126101d7576110866117bd565b61108e6124fe565b600580546001600160a01b0319166001600160a01b0392909216919091179055005b346101d7575f3660031901126101d7576040517f00000000000000000000000000000000000000000000000000000000000000006001600160a01b03168152602090f35b346101d7575f3660031901126101d7576005546040516001600160a01b039091168152602090f35b346101d757366003190160a081126101d7576060136101d7576040516111418161167e565b600435815260243563ffffffff811681036101d757602082015260443560408201526064356001600160401b0381116101d7576111829036906004016115d5565b91608435916001600160401b0383116101d7576020936111a96111d89436906004016115d5565b916111cf6111ca5f545f52600160205263ffffffff600260405f2001541690565b611aec565b935f54956123f9565b6040519015158152f35b346101d75760203660031901126101d7576004356003548110156101d757610409602091611764565b346101d75760203660031901126101d7576020610409600435611764565b5f3660031901126101d75763389a75e1600c52335f526202a30042016020600c2055337fdbf36a107da19e49527a7176a1babf963b4b0ff8cde35ee35d6cd8f1f9ac7e1d5f80a2005b346101d7575f3660031901126101d75760206112a15f545f52600160205263ffffffff600260405f2001541690565b63ffffffff60405191168152f35b346101d7575f3660031901126101d7576040517f00000000000000000000000000000000000000000000000000000000000000006001600160a01b03168152602090f35b346101d75760403660031901126101d7576004356001600160401b0381116101d757803603906101006003198301126101d757604051916113338361167e565b816004013560038110156101d757835260248201356001600160401b0381116101d7578201366023820112156101d75760048101356113718161170d565b9161137f60405193846116ec565b818352602060046060828601940283010101903682116101d757602401915b81831061142257505050602084015260c0604319909101126101d7576113ef604051916113ca83611663565b60448101358352606481013560208401526084810135604084015260a4369101611724565b60608201526040820152602435906001600160401b0382116101d75761141c610209923690600401611636565b91611991565b6060833603126101d757602060609160405161143d8161167e565b8535815282860135838201526040860135604082015281520192019161139e565b346101d7575f3660031901126101d7576020600354604051908152f35b346101d75760603660031901126101d7576004356001600160401b0381116101d7576114ab9036906004016115d5565b906024356001600160401b0381116101d7576114cb903690600401611605565b9190604435936001600160401b0385116101d75761153e6115d0946115c4936115197fdc0391168b5903ca02f8020523ba62927809fd9d25baf94fcb8bb339e0c8f731983690600401611636565b9490966115395f545f52600160205263ffffffff600260405f2001541690565b611ffb565b60409491945161154d81611663565b5f81525f60208201525f60408201526060611566611b18565b9101526040516115758161167e565b5f81525f60208201525f60408201526040519061159182611663565b5f82525f60208301525f60408301526060820152604051916115b28361167e565b5f835260208301526040820152611991565b604051918291826118db565b0390a1005b9181601f840112156101d7578235916001600160401b0383116101d7576020808501948460051b0101116101d757565b9181601f840112156101d7578235916001600160401b0383116101d75760208085019461016085020101116101d757565b9181601f840112156101d7578235916001600160401b0383116101d757602083818601950101116101d757565b608081019081106001600160401b03821117610b2157604052565b606081019081106001600160401b03821117610b2157604052565b61012081019081106001600160401b03821117610b2157604052565b61018081019081106001600160401b03821117610b2157604052565b604081019081106001600160401b03821117610b2157604052565b90601f801991011681019081106001600160401b03821117610b2157604052565b6001600160401b038111610b215760051b60200190565b91908260609103126101d75760405161173c8161167e565b809280358252602081013563ffffffff811681036101d7576020830152604090810135910152565b60035481101561177c5760035f5260205f2001905f90565b634e487b7160e01b5f52603260045260245ffd5b60025481101561177c5760025f5260205f2001905f90565b805482101561177c575f5260205f2001905f90565b600435906001600160a01b03821682036101d757565b35906001600160a01b03821682036101d757565b805180835260209291819084018484015e5f828201840152601f01601f1916010190565b906040516118188161167e565b6040600282948054845263ffffffff60018201541660208501520154910152565b6003111561080157565b80518252602080820151818401526040808301518051828601529182015163ffffffff16606085015201516080830152610140906101009060ff60608201511660a08501526001600160401b0360808201511660c085015260018060a01b0360a08201511660e085015260c08101518285015260e08101516101208501520151916118cd83611839565b0152565b6002111561080157565b9190604083016040845281518091526020606085019201905f5b81811061190a5750919391505060205f910152565b9091926020610160826119206001948851611843565b0194019291016118f5565b9060608061196f938051845260208101516020850152604081015160408501520151910190604080918051845263ffffffff60208201511660208501520151910152565b565b908060209392818452848401375f828201840152601f01601f1916010190565b909160018060a01b037f0000000000000000000000000000000000000000000000000000000000000000166040519260208085015283610140810182516119d781611839565b604083015260208301519061010060608401528151809152602061016084019201905f5b818110611aba57505050611a1a6040611a28940151608084019061192b565b03601f1981018552846116ec565b803b156101d757611a825f93611a946040519687958694859463020a49e360e51b86527f000000000000000000000000000000000000000000000000000000000000000060048701526060602487015260648601906117e7565b84810360031901604486015291611971565b03915afa8015611aaf57611aa55750565b5f61196f916116ec565b6040513d5f823e3d90fd5b9194935091602060606001926040885180518352848101518584015201516040820152019501910191879394926119fb565b63ffffffff60019116019063ffffffff8211611b0457565b634e487b7160e01b5f52601160045260245ffd5b60405190611b258261167e565b5f6040838281528260208201520152565b90611b408261170d565b611b4d60405191826116ec565b8281528092611b5e601f199161170d565b01905f5b828110611b6e57505050565b602090604051611b7d81611699565b5f81525f83820152611b8d611b18565b60408201525f60608201525f60808201525f60a08201525f60c08201525f60e08201525f61010082015282828501015201611b62565b60405190611bd0826116b5565b5f610160838281528260208201528260408201528260608201528260808201528260a08201528260c08201528260e08201528261010082015282610120820152826101408201520152565b60408051909190611c2c83826116ec565b6001815291601f1901825f5b828110611c4457505050565b602090611c4f611bc3565b82828501015201611c38565b919081101561177c5760051b8101359061033e19813603018212156101d7570190565b356001600160401b03811681036101d75790565b903590601e19813603018212156101d757018035906001600160401b0382116101d757602001918160051b360383136101d757565b3560ff811681036101d75790565b35906001600160401b03821682036101d757565b359060ff821682036101d757565b9190826101809103126101d757604051611d10816116b5565b809280358252611d2260208201611cd5565b6020830152611d3360408201611cd5565b60408301526060810135606083015260808101356080830152611d5860a08201611cd5565b60a083015260c08101359066ffffffffffffff19821682036101d757610160611dcb91819360c0860152611d8e60e082016117d3565b60e0860152611da061010082016117d3565b610100860152610120810135610120860152611dbf6101408201611ce9565b61014086015201611cd5565b910152565b80511561177c5760200190565b805182101561177c5760209160051b010190565b919091610160818403126101d75761014060405191611e0f83611699565b611e2b8395823585526020830135602086015260408301611724565b6040840152611e3c60a08201611ce9565b6060840152611e4d60c08201611cd5565b6080840152611e5e60e082016117d3565b60a084015261010081013560c084015261012081013560e084015201359060038210156101d7576101000152565b91908201809211611b0457565b356001600160a01b03811681036101d75790565b6001600160401b0361016080928051855282602082015116602086015282604082015116604086015260608101516060860152608081015160808601528260a08201511660a086015266ffffffffffffff1960c08201511660c086015260018060a01b0360e08201511660e086015260018060a01b036101008201511661010086015261012081015161012086015260ff61014082015116610140860152015116910152565b903590601e19813603018212156101d757018035906001600160401b0382116101d7576020019181360383136101d757565b9291926001600160401b038211610b215760405191611fae601f8201601f1916602001846116ec565b8294818452818301116101d7578281602093845f960137010152565b3563ffffffff811681036101d75790565b3561ffff811681036101d75790565b919081101561177c57610160020190565b949091939284156123da5761200f8561170d565b9561201d60405197886116ec565b858752601f1961202c8761170d565b015f5b8181106123c3575050869061204387611b36565b91600354945f5b898110156123b65786908060051b89013561027e198a3603018112156101d7576101a0818b010135600281101593846101d7578b8f8b8f61208a866118d1565b8561230957505050505f198b14611b045760018f9b019a5b8c6120b1602086830101612557565b916120ed876101e088850101926040516120ca8161167e565b898601358152843560208201528660408201526120e78383611ddd565b52611ddd565b506001600160401b0361215f61018088612157866121528784612117848201610240810190611c92565b61016061212e610260858995990101858501611c92565b94909301019560ff61214a61214289611cc7565b963690611724565b9516946125af565b611cc7565b950101611c7e565b1663ffffffff8c16036001600160401b038111611b04576001600160401b03166085026001600160401b038116908103611b045761e3b3016001600160401b038111611b04576001600160401b036103e88161012c9316041601916001600160401b038311611b04578f9260ff926121f46101008a6001600160401b036121eb81612210971642611e8c565b16970101611e99565b956040519761220289611699565b885260208801523690611724565b6040860152166060840152608083015260018060a01b031660a08201526080838d01013560c082015260a0838d01013560e08201526001610100820152612257848a611ddd565b526122628389611ddd565b50612276612270848a611ddd565b51612655565b936101d7578b918b91612288816118d1565b806122bd5750505050600354600160401b811015610b215760019261034982856122b7940160035560036117a8565b0161204a565b906001809693926122cd816118d1565b146122dc575b505050506122b7565b6123009361ffff6122f86101c0610f6094610349960101611fdb565b16908c611fea565b895f8a816122d3565b9091929750855f9861231a876118d1565b6001871461232c575b505050506120a2565b016101c0019350610140925061236d9161235890610de6908361ffff61235189611fdb565b1691611fea565b5061ffff61236585611fdb565b16908d611fea565b013560038110156101d75760029061238481611839565b036123a75761239c8f9161ffff8f916122f890611fdb565b35908a8e858f612323565b63a5f611fd60e01b5f5260045ffd5b5096509650509550505050565b6020906123ce611b18565b82828c0101520161202f565b6308d98c4f60e01b5f5260045ffd5b919081101561177c5760051b0190565b919093929363ffffffff61243084516020860195604084885116910151919091606092604051928352602083015260408201522090565b935116905f925b8084106124ad57505050505f905f5b838110612487575b50501561247f5761245e91612cc2565b9081156124785763ffffffff165f5260205260405f201490565b5050505f90565b505050505f90565b816124938286886123e9565b35146124a157600101612446565b50505060015f8061244e565b9293600183811c9492938116036124e0576124c98583856123e9565b355f52602052600160405f20945b01929190612437565b6124eb8583856123e9565b35905f52602052600160405f20946124d7565b638b78c6d81954330361250d57565b6382b429005f526004601cfd5b61253861252f61252a3684611df1565b612655565b913560036117a8565b90549060031b1c81036125485790565b631a40316d60e01b5f5260045ffd5b61257561256c6125673684611cf7565b61262d565b913560026117a8565b90549060031b1c81036125855790565b63cd1d240d60e01b5f5260045ffd5b6125a2612567366004611cf7565b61257560043560026117a8565b9493916125bd939186612d13565b63ffffffff60206125e15f545f52600160205263ffffffff600260405f2001541690565b930151169063ffffffff5f1991160163ffffffff8111611b045763ffffffff160163ffffffff8111611b045763ffffffff80911691161061261e57565b630a47293560e31b5f5260045ffd5b60405161263e602082018093611ead565b610180815261264f6101a0826116ec565b51902090565b604051612666602082018093611843565b610160815261264f610180826116ec565b919060145260345263a9059cbb60601b5f5260205f6044601082855af1908160015f511416156126aa575b50505f603452565b3b153d1710156126bb575f806126a2565b6390b8ec185f526004601cfd5b9190925f548085146127ee57835f52600160205260405f206127016001604051926126f2846116d1565b60ff815416151584520161180b565b602082015251156127df575f526001602052600360405f200154604083015111156127d0577f6768baae39ee0e687f7c44f7006a147b15ffb56031969140096fe95461eea2fd946127cb926003604080519261275c846116d1565b6001845260208401908152885f526001602052815f209351151560ff8019865416911617845551805160018501556002840163ffffffff60208301511663ffffffff198254161790550151910155845f5560405194859485526020850152606060408501526060840191611971565b0390a1565b6307800bf560e21b5f5260045ffd5b63e1965c6560e01b5f5260045ffd5b505050505050565b3566ffffffffffffff19811681036101d75790565b919091612816611bc3565b5061ffff60055460a01c1690604081013591806127100161ffff8111611b045761ffff5f1991160161ffff8111611b04578115612b4d578161ffff80921604168310612b3e5760608201926103e86001600160401b0361287586611c7e565b1610612b2f5760c0830191600260ff61288d85611cc7565b1610612b205760808401906128a96128a4836127f6565b612d50565b15612b11576128e36128bf610140870187611c92565b906128ce610160890189611c92565b9290916128de3660e08c01611724565b612d13565b808302908382041483151715611b045761271090049060ff61290485611cc7565b16611c200263ffffffff8116908103611b04576129296001600160401b039142611e8c565b1695828403938411611b045761294161294791611c7e565b916127f6565b9061295460208701611e99565b9261295e87611e99565b947f00000000000000000000000000000000000000000000000000000000000000007f000000000000000000000000000000000000000000000000000000000000000030147f000000000000000000000000000000000000000000000000000000000000000046141615612a8a575b6040805191825260a08a0135602083015281018c905260609020966129f190611cc7565b97610100016129ff90611fca565b986040519b612a0d8d6116b5565b8c526001600160401b0342811660208e015260408d019190915260608c019190915260808b01919091521660a089015266ffffffffffffff191660c08801526001600160a01b0390811660e08801521661010086015261012085015260ff1661014084015263ffffffff16610160830152612a878261262d565b90565b5060a06040517f8b73c3c69bb8fe3d512ecc4cf759cc79239f7b179b0ffacaa9a75d522b39400f81527f000000000000000000000000000000000000000000000000000000000000000060208201527f00000000000000000000000000000000000000000000000000000000000000006040820152466060820152306080820152206129cd565b63fad7db0760e01b5f5260045ffd5b63bdf8f2b360e01b5f5260045ffd5b63fde5943160e01b5f5260045ffd5b6355fcd02760e01b5f5260045ffd5b634e487b7160e01b5f52601260045260245ffd5b612b69611c1b565b81612b7382611dd0565b52612b7d81611dd0565b50604051604081016040825282518091526020606083019301905f5b818110612c6457505050807fbcf83654bbe8d2d5a003763444fb50a895b7721b0239dcd314d345f8a3cdfb19925f60208301520390a1612c047f0000000000000000000000000000000000000000000000000000000000000000916080606082015191015190611e8c565b9060405191606052306040523360601b602c526323b872dd60601b600c5260205f6064601c82855af1908160015f51141615612c46575b50505f606052604052565b3b153d171015612c57575f80612c3b565b637939f4245f526004601cfd5b909193602061018082612c7a6001948951611ead565b019501929101612b99565b60018060a01b031680638b78c6d819547f8be0079c531659141344cd1fd0a4f28419497f9722a3daafe3b4186f6b6457e05f80a3638b78c6d81955565b8115612d0d575f19820191808311611b0457612cdf8382846123e9565b3592805b612ced5750505090565b5f190192612cfc8483856123e9565b355f526020528260405f2093612ce3565b50505f90565b92612d3a9491926111cf6111ca5f545f52600160205263ffffffff600260405f2001541690565b15612d4157565b632814065160e01b5f5260045ffd5b5f81901a60f81b6001600160f81b03191680612dab575069ffffffffffffffffffff19165f81901a60f81b6001600160f81b031916159081612d90575090565b60011a60f81b6001600160f81b031916600560fa1b14919050565b60a960f81b8103612e24575068ffffffffffffffffff19165f81901a60f81b6001600160f81b03191660a960f81b149081612e05575b81612dea575090565b60161a60f81b6001600160f81b031916608760f81b14919050565b600181901a60f81b6001600160f81b031916600560fa1b149150612de1565b603b60f91b149081612e365750505f90565b81612eaa575b81612e8b575b81612e6c575b81612e51575090565b60181a60f81b6001600160f81b031916602b60fa1b14919050565b601781901a60f81b6001600160f81b031916601160fb1b149150612e48565b600281901a60f81b6001600160f81b031916600560fa1b149150612e42565b600181901a60f81b6001600160f81b03191660a960f81b149150612e3c56fea2646970667358221220422e694028ece133fcabdba0115f5b9ac9740990a53682598307f4fe271a269a64736f6c634300081c0033","linkReferences":{}},"methodIdentifiers":{"CIRCUIT_VERIFICATION_KEY()":"8d5ca052","ERC20_BTC()":"473d175d","VERIFIER()":"08c84e70","accumulatedFeeBalance()":"ca18100d","adminSetFeeRouterAddress(address)":"5377d5ee","adminSetTakerFeeBips(uint16)":"e58e0fe3","cancelOwnershipHandover()":"54d1f13d","checkpoints(bytes32)":"eb5e91ff","completeOwnershipHandover(address)":"f04e283e","depositLiquidity((address,address,uint256,uint64,bytes25,bytes32,uint8,(bytes32,uint32,uint256),bytes32[],bytes32[]))":"640179d8","depositLiquidityWithOverwrite(((address,address,uint256,uint64,bytes25,bytes32,uint8,(bytes32,uint32,uint256),bytes32[],bytes32[]),(uint256,uint64,uint64,uint256,uint256,uint64,bytes25,address,address,bytes32,uint8,uint64)))":"eb9ecdd1","eip712Domain()":"84b0196e","feeRouterAddress()":"428f29b8","getLightClientHeight()":"1cbeebeb","getSwapHash(uint256)":"298842fb","getSwapHashesLength()":"03af626a","getVaultHash(uint256)":"a657fbea","getVaultHashesLength()":"65e99ad8","mmrRoot()":"d21ddc61","owner()":"8da5cb5b","ownershipHandoverExpiresAt(address)":"fee81cf4","payoutToFeeRouter()":"f23a94a9","proveBlockInclusion((bytes32,uint32,uint256),bytes32[],bytes32[])":"42769946","releaseLiquidityBatch(((uint256,bytes32,(bytes32,uint32,uint256),uint8,uint64,address,uint256,uint256,uint8),bytes32[],bytes32[],(uint256,uint64,uint64,uint256,uint256,uint64,bytes25,address,address,bytes32,uint8,uint64),uint32)[])":"5861af00","renounceOwnership()":"715018a6","requestOwnershipHandover()":"25692962","serializeLightClientPublicInput((bytes32,bytes32,bytes32,(bytes32,uint32,uint256)))":"7c2301a6","submitBatchSwapProof((bytes32,(uint256,uint64,uint64,uint256,uint256,uint64,bytes25,address,address,bytes32,uint8,uint64),uint8,uint16,(bytes32,uint32,uint256),bytes32[],bytes32[])[],(uint256,bytes32,(bytes32,uint32,uint256),uint8,uint64,address,uint256,uint256,uint8)[],bytes)":"02977414","submitBatchSwapProofWithLightClientUpdate((bytes32,(uint256,uint64,uint64,uint256,uint256,uint64,bytes25,address,address,bytes32,uint8,uint64),uint8,uint16,(bytes32,uint32,uint256),bytes32[],bytes32[])[],(bytes32,bytes32,bytes,(bytes32,uint32,uint256)),(uint256,bytes32,(bytes32,uint32,uint256),uint8,uint64,address,uint256,uint256,uint8)[],bytes)":"e16ddab3","swapHashes(uint256)":"333f871a","takerFeeBips()":"9a73f4f5","transferOwnership(address)":"f2fde38b","updateLightClient((bytes32,bytes32,bytes,(bytes32,uint32,uint256)),bytes)":"592b6649","vaultHashes(uint256)":"e5e78e02","verifyZkProof((uint8,(bytes32,bytes32,bytes32)[],(bytes32,bytes32,bytes32,(bytes32,uint32,uint256))),bytes)":"07a2ec52","withdrawLiquidity((uint256,uint64,uint64,uint256,uint256,uint64,bytes25,address,address,bytes32,uint8,uint64))":"c190c164"},"storageLayout":{"storage":[{"astId":42623,"contract":"src/RiftExchange.sol:RiftExchange","label":"mmrRoot","offset":0,"slot":"0","type":"t_bytes32"},{"astId":42628,"contract":"src/RiftExchange.sol:RiftExchange","label":"checkpoints","offset":0,"slot":"1","type":"t_mapping(t_bytes32,t_struct(BitcoinCheckpoint)45186_storage)"},{"astId":42900,"contract":"src/RiftExchange.sol:RiftExchange","label":"vaultHashes","offset":0,"slot":"2","type":"t_array(t_bytes32)dyn_storage"},{"astId":42903,"contract":"src/RiftExchange.sol:RiftExchange","label":"swapHashes","offset":0,"slot":"3","type":"t_array(t_bytes32)dyn_storage"},{"astId":42905,"contract":"src/RiftExchange.sol:RiftExchange","label":"accumulatedFeeBalance","offset":0,"slot":"4","type":"t_uint256"},{"astId":42907,"contract":"src/RiftExchange.sol:RiftExchange","label":"feeRouterAddress","offset":0,"slot":"5","type":"t_address"},{"astId":42909,"contract":"src/RiftExchange.sol:RiftExchange","label":"takerFeeBips","offset":20,"slot":"5","type":"t_uint16"}],"types":{"t_address":{"encoding":"inplace","label":"address","numberOfBytes":"20"},"t_array(t_bytes32)dyn_storage":{"encoding":"dynamic_array","label":"bytes32[]","numberOfBytes":"32","base":"t_bytes32"},"t_bool":{"encoding":"inplace","label":"bool","numberOfBytes":"1"},"t_bytes32":{"encoding":"inplace","label":"bytes32","numberOfBytes":"32"},"t_mapping(t_bytes32,t_struct(BitcoinCheckpoint)45186_storage)":{"encoding":"mapping","key":"t_bytes32","label":"mapping(bytes32 => struct Types.BitcoinCheckpoint)","numberOfBytes":"32","value":"t_struct(BitcoinCheckpoint)45186_storage"},"t_struct(BitcoinCheckpoint)45186_storage":{"encoding":"inplace","label":"struct Types.BitcoinCheckpoint","numberOfBytes":"128","members":[{"astId":45182,"contract":"src/RiftExchange.sol:RiftExchange","label":"established","offset":0,"slot":"0","type":"t_bool"},{"astId":45185,"contract":"src/RiftExchange.sol:RiftExchange","label":"tipBlockLeaf","offset":0,"slot":"1","type":"t_struct(BlockLeaf)44978_storage"}]},"t_struct(BlockLeaf)44978_storage":{"encoding":"inplace","label":"struct Types.BlockLeaf","numberOfBytes":"96","members":[{"astId":44973,"contract":"src/RiftExchange.sol:RiftExchange","label":"blockHash","offset":0,"slot":"0","type":"t_bytes32"},{"astId":44975,"contract":"src/RiftExchange.sol:RiftExchange","label":"height","offset":0,"slot":"1","type":"t_uint32"},{"astId":44977,"contract":"src/RiftExchange.sol:RiftExchange","label":"cumulativeChainwork","offset":0,"slot":"2","type":"t_uint256"}]},"t_uint16":{"encoding":"inplace","label":"uint16","numberOfBytes":"2"},"t_uint256":{"encoding":"inplace","label":"uint256","numberOfBytes":"32"},"t_uint32":{"encoding":"inplace","label":"uint32","numberOfBytes":"4"}}},"id":33}