{"abi":[{"type":"constructor","inputs":[{"name":"_mmrRoot","type":"bytes32","internalType":"bytes32"},{"name":"_depositToken","type":"address","internalType":"address"},{"name":"_circuitVerificationKey","type":"bytes32","internalType":"bytes32"},{"name":"_verifier","type":"address","internalType":"address"},{"name":"_feeRouter","type":"address","internalType":"address"},{"name":"_tipBlockLeaf","type":"tuple","internalType":"struct Types.BlockLeaf","components":[{"name":"blockHash","type":"bytes32","internalType":"bytes32"},{"name":"height","type":"uint32","internalType":"uint32"},{"name":"cumulativeChainwork","type":"uint256","internalType":"uint256"}]}],"stateMutability":"nonpayable"},{"type":"function","name":"CIRCUIT_VERIFICATION_KEY","inputs":[],"outputs":[{"name":"","type":"bytes32","internalType":"bytes32"}],"stateMutability":"view"},{"type":"function","name":"ERC20_BTC","inputs":[],"outputs":[{"name":"","type":"address","internalType":"address"}],"stateMutability":"view"},{"type":"function","name":"VERIFIER","inputs":[],"outputs":[{"name":"","type":"address","internalType":"contract ISP1Verifier"}],"stateMutability":"view"},{"type":"function","name":"accumulatedFeeBalance","inputs":[],"outputs":[{"name":"","type":"uint256","internalType":"uint256"}],"stateMutability":"view"},{"type":"function","name":"cancelOwnershipHandover","inputs":[],"outputs":[],"stateMutability":"payable"},{"type":"function","name":"checkpoints","inputs":[{"name":"","type":"bytes32","internalType":"bytes32"}],"outputs":[{"name":"established","type":"bool","internalType":"bool"},{"name":"tipBlockLeaf","type":"tuple","internalType":"struct Types.BlockLeaf","components":[{"name":"blockHash","type":"bytes32","internalType":"bytes32"},{"name":"height","type":"uint32","internalType":"uint32"},{"name":"cumulativeChainwork","type":"uint256","internalType":"uint256"}]}],"stateMutability":"view"},{"type":"function","name":"completeOwnershipHandover","inputs":[{"name":"pendingOwner","type":"address","internalType":"address"}],"outputs":[],"stateMutability":"payable"},{"type":"function","name":"depositLiquidity","inputs":[{"name":"params","type":"tuple","internalType":"struct Types.DepositLiquidityParams","components":[{"name":"depositOwnerAddress","type":"address","internalType":"address"},{"name":"specifiedPayoutAddress","type":"address","internalType":"address"},{"name":"depositAmount","type":"uint256","internalType":"uint256"},{"name":"expectedSats","type":"uint64","internalType":"uint64"},{"name":"btcPayoutScriptPubKey","type":"bytes25","internalType":"bytes25"},{"name":"depositSalt","type":"bytes32","internalType":"bytes32"},{"name":"confirmationBlocks","type":"uint8","internalType":"uint8"},{"name":"safeBlockLeaf","type":"tuple","internalType":"struct Types.BlockLeaf","components":[{"name":"blockHash","type":"bytes32","internalType":"bytes32"},{"name":"height","type":"uint32","internalType":"uint32"},{"name":"cumulativeChainwork","type":"uint256","internalType":"uint256"}]},{"name":"safeBlockSiblings","type":"bytes32[]","internalType":"bytes32[]"},{"name":"safeBlockPeaks","type":"bytes32[]","internalType":"bytes32[]"}]}],"outputs":[{"name":"","type":"bytes32","internalType":"bytes32"}],"stateMutability":"nonpayable"},{"type":"function","name":"depositLiquidityWithOverwrite","inputs":[{"name":"params","type":"tuple","internalType":"struct Types.DepositLiquidityWithOverwriteParams","components":[{"name":"depositParams","type":"tuple","internalType":"struct Types.DepositLiquidityParams","components":[{"name":"depositOwnerAddress","type":"address","internalType":"address"},{"name":"specifiedPayoutAddress","type":"address","internalType":"address"},{"name":"depositAmount","type":"uint256","internalType":"uint256"},{"name":"expectedSats","type":"uint64","internalType":"uint64"},{"name":"btcPayoutScriptPubKey","type":"bytes25","internalType":"bytes25"},{"name":"depositSalt","type":"bytes32","internalType":"bytes32"},{"name":"confirmationBlocks","type":"uint8","internalType":"uint8"},{"name":"safeBlockLeaf","type":"tuple","internalType":"struct Types.BlockLeaf","components":[{"name":"blockHash","type":"bytes32","internalType":"bytes32"},{"name":"height","type":"uint32","internalType":"uint32"},{"name":"cumulativeChainwork","type":"uint256","internalType":"uint256"}]},{"name":"safeBlockSiblings","type":"bytes32[]","internalType":"bytes32[]"},{"name":"safeBlockPeaks","type":"bytes32[]","internalType":"bytes32[]"}]},{"name":"overwriteVault","type":"tuple","internalType":"struct Types.DepositVault","components":[{"name":"vaultIndex","type":"uint256","internalType":"uint256"},{"name":"depositTimestamp","type":"uint64","internalType":"uint64"},{"name":"depositUnlockTimestamp","type":"uint64","internalType":"uint64"},{"name":"vaultAmount","type":"uint256","internalType":"uint256"},{"name":"takerFee","type":"uint256","internalType":"uint256"},{"name":"expectedSats","type":"uint64","internalType":"uint64"},{"name":"btcPayoutScriptPubKey","type":"bytes25","internalType":"bytes25"},{"name":"specifiedPayoutAddress","type":"address","internalType":"address"},{"name":"ownerAddress","type":"address","internalType":"address"},{"name":"salt","type":"bytes32","internalType":"bytes32"},{"name":"confirmationBlocks","type":"uint8","internalType":"uint8"},{"name":"attestedBitcoinBlockHeight","type":"uint64","internalType":"uint64"}]}]}],"outputs":[{"name":"","type":"bytes32","internalType":"bytes32"}],"stateMutability":"nonpayable"},{"type":"function","name":"eip712Domain","inputs":[],"outputs":[{"name":"fields","type":"bytes1","internalType":"bytes1"},{"name":"name","type":"string","internalType":"string"},{"name":"version","type":"string","internalType":"string"},{"name":"chainId","type":"uint256","internalType":"uint256"},{"name":"verifyingContract","type":"address","internalType":"address"},{"name":"salt","type":"bytes32","internalType":"bytes32"},{"name":"extensions","type":"uint256[]","internalType":"uint256[]"}],"stateMutability":"view"},{"type":"function","name":"feeRouterAddress","inputs":[],"outputs":[{"name":"","type":"address","internalType":"address"}],"stateMutability":"view"},{"type":"function","name":"getLightClientHeight","inputs":[],"outputs":[{"name":"","type":"uint32","internalType":"uint32"}],"stateMutability":"view"},{"type":"function","name":"getSwapHash","inputs":[{"name":"swapIndex","type":"uint256","internalType":"uint256"}],"outputs":[{"name":"","type":"bytes32","internalType":"bytes32"}],"stateMutability":"view"},{"type":"function","name":"getSwapHashesLength","inputs":[],"outputs":[{"name":"","type":"uint256","internalType":"uint256"}],"stateMutability":"view"},{"type":"function","name":"getVaultHash","inputs":[{"name":"vaultIndex","type":"uint256","internalType":"uint256"}],"outputs":[{"name":"","type":"bytes32","internalType":"bytes32"}],"stateMutability":"view"},{"type":"function","name":"getVaultHashesLength","inputs":[],"outputs":[{"name":"","type":"uint256","internalType":"uint256"}],"stateMutability":"view"},{"type":"function","name":"mmrRoot","inputs":[],"outputs":[{"name":"","type":"bytes32","internalType":"bytes32"}],"stateMutability":"view"},{"type":"function","name":"owner","inputs":[],"outputs":[{"name":"result","type":"address","internalType":"address"}],"stateMutability":"view"},{"type":"function","name":"ownershipHandoverExpiresAt","inputs":[{"name":"pendingOwner","type":"address","internalType":"address"}],"outputs":[{"name":"result","type":"uint256","internalType":"uint256"}],"stateMutability":"view"},{"type":"function","name":"payoutToFeeRouter","inputs":[],"outputs":[],"stateMutability":"nonpayable"},{"type":"function","name":"proveBlockInclusion","inputs":[{"name":"blockLeaf","type":"tuple","internalType":"struct Types.BlockLeaf","components":[{"name":"blockHash","type":"bytes32","internalType":"bytes32"},{"name":"height","type":"uint32","internalType":"uint32"},{"name":"cumulativeChainwork","type":"uint256","internalType":"uint256"}]},{"name":"siblings","type":"bytes32[]","internalType":"bytes32[]"},{"name":"peaks","type":"bytes32[]","internalType":"bytes32[]"}],"outputs":[{"name":"","type":"bool","internalType":"bool"}],"stateMutability":"view"},{"type":"function","name":"releaseLiquidityBatch","inputs":[{"name":"paramsArray","type":"tuple[]","internalType":"struct Types.ReleaseLiquidityParams[]","components":[{"name":"swap","type":"tuple","internalType":"struct Types.ProposedSwap","components":[{"name":"swapIndex","type":"uint256","internalType":"uint256"},{"name":"depositVaultHash","type":"bytes32","internalType":"bytes32"},{"name":"swapBitcoinBlockLeaf","type":"tuple","internalType":"struct Types.BlockLeaf","components":[{"name":"blockHash","type":"bytes32","internalType":"bytes32"},{"name":"height","type":"uint32","internalType":"uint32"},{"name":"cumulativeChainwork","type":"uint256","internalType":"uint256"}]},{"name":"confirmationBlocks","type":"uint8","internalType":"uint8"},{"name":"liquidityUnlockTimestamp","type":"uint64","internalType":"uint64"},{"name":"specifiedPayoutAddress","type":"address","internalType":"address"},{"name":"totalSwapOutput","type":"uint256","internalType":"uint256"},{"name":"takerFee","type":"uint256","internalType":"uint256"},{"name":"state","type":"uint8","internalType":"enum Types.SwapState"}]},{"name":"bitcoinSwapBlockSiblings","type":"bytes32[]","internalType":"bytes32[]"},{"name":"bitcoinSwapBlockPeaks","type":"bytes32[]","internalType":"bytes32[]"},{"name":"utilizedVault","type":"tuple","internalType":"struct Types.DepositVault","components":[{"name":"vaultIndex","type":"uint256","internalType":"uint256"},{"name":"depositTimestamp","type":"uint64","internalType":"uint64"},{"name":"depositUnlockTimestamp","type":"uint64","internalType":"uint64"},{"name":"vaultAmount","type":"uint256","internalType":"uint256"},{"name":"takerFee","type":"uint256","internalType":"uint256"},{"name":"expectedSats","type":"uint64","internalType":"uint64"},{"name":"btcPayoutScriptPubKey","type":"bytes25","internalType":"bytes25"},{"name":"specifiedPayoutAddress","type":"address","internalType":"address"},{"name":"ownerAddress","type":"address","internalType":"address"},{"name":"salt","type":"bytes32","internalType":"bytes32"},{"name":"confirmationBlocks","type":"uint8","internalType":"uint8"},{"name":"attestedBitcoinBlockHeight","type":"uint64","internalType":"uint64"}]},{"name":"tipBlockHeight","type":"uint32","internalType":"uint32"}]}],"outputs":[],"stateMutability":"nonpayable"},{"type":"function","name":"renounceOwnership","inputs":[],"outputs":[],"stateMutability":"payable"},{"type":"function","name":"requestOwnershipHandover","inputs":[],"outputs":[],"stateMutability":"payable"},{"type":"function","name":"serializeLightClientPublicInput","inputs":[{"name":"input","type":"tuple","internalType":"struct Types.LightClientPublicInput","components":[{"name":"previousMmrRoot","type":"bytes32","internalType":"bytes32"},{"name":"newMmrRoot","type":"bytes32","internalType":"bytes32"},{"name":"compressedLeavesHash","type":"bytes32","internalType":"bytes32"},{"name":"tipBlockLeaf","type":"tuple","internalType":"struct Types.BlockLeaf","components":[{"name":"blockHash","type":"bytes32","internalType":"bytes32"},{"name":"height","type":"uint32","internalType":"uint32"},{"name":"cumulativeChainwork","type":"uint256","internalType":"uint256"}]}]}],"outputs":[{"name":"","type":"bytes","internalType":"bytes"}],"stateMutability":"pure"},{"type":"function","name":"setFeeRouterAddress","inputs":[{"name":"_feeRouter","type":"address","internalType":"address"}],"outputs":[],"stateMutability":"nonpayable"},{"type":"function","name":"submitBatchSwapProof","inputs":[{"name":"swapParams","type":"tuple[]","internalType":"struct Types.SubmitSwapProofParams[]","components":[{"name":"swapBitcoinTxid","type":"bytes32","internalType":"bytes32"},{"name":"vault","type":"tuple","internalType":"struct Types.DepositVault","components":[{"name":"vaultIndex","type":"uint256","internalType":"uint256"},{"name":"depositTimestamp","type":"uint64","internalType":"uint64"},{"name":"depositUnlockTimestamp","type":"uint64","internalType":"uint64"},{"name":"vaultAmount","type":"uint256","internalType":"uint256"},{"name":"takerFee","type":"uint256","internalType":"uint256"},{"name":"expectedSats","type":"uint64","internalType":"uint64"},{"name":"btcPayoutScriptPubKey","type":"bytes25","internalType":"bytes25"},{"name":"specifiedPayoutAddress","type":"address","internalType":"address"},{"name":"ownerAddress","type":"address","internalType":"address"},{"name":"salt","type":"bytes32","internalType":"bytes32"},{"name":"confirmationBlocks","type":"uint8","internalType":"uint8"},{"name":"attestedBitcoinBlockHeight","type":"uint64","internalType":"uint64"}]},{"name":"storageStrategy","type":"uint8","internalType":"enum Types.StorageStrategy"},{"name":"localOverwriteIndex","type":"uint16","internalType":"uint16"},{"name":"swapBitcoinBlockLeaf","type":"tuple","internalType":"struct Types.BlockLeaf","components":[{"name":"blockHash","type":"bytes32","internalType":"bytes32"},{"name":"height","type":"uint32","internalType":"uint32"},{"name":"cumulativeChainwork","type":"uint256","internalType":"uint256"}]},{"name":"swapBitcoinBlockSiblings","type":"bytes32[]","internalType":"bytes32[]"},{"name":"swapBitcoinBlockPeaks","type":"bytes32[]","internalType":"bytes32[]"}]},{"name":"overwriteSwaps","type":"tuple[]","internalType":"struct Types.ProposedSwap[]","components":[{"name":"swapIndex","type":"uint256","internalType":"uint256"},{"name":"depositVaultHash","type":"bytes32","internalType":"bytes32"},{"name":"swapBitcoinBlockLeaf","type":"tuple","internalType":"struct Types.BlockLeaf","components":[{"name":"blockHash","type":"bytes32","internalType":"bytes32"},{"name":"height","type":"uint32","internalType":"uint32"},{"name":"cumulativeChainwork","type":"uint256","internalType":"uint256"}]},{"name":"confirmationBlocks","type":"uint8","internalType":"uint8"},{"name":"liquidityUnlockTimestamp","type":"uint64","internalType":"uint64"},{"name":"specifiedPayoutAddress","type":"address","internalType":"address"},{"name":"totalSwapOutput","type":"uint256","internalType":"uint256"},{"name":"takerFee","type":"uint256","internalType":"uint256"},{"name":"state","type":"uint8","internalType":"enum Types.SwapState"}]},{"name":"proof","type":"bytes","internalType":"bytes"}],"outputs":[],"stateMutability":"nonpayable"},{"type":"function","name":"submitBatchSwapProofWithLightClientUpdate","inputs":[{"name":"swapParams","type":"tuple[]","internalType":"struct Types.SubmitSwapProofParams[]","components":[{"name":"swapBitcoinTxid","type":"bytes32","internalType":"bytes32"},{"name":"vault","type":"tuple","internalType":"struct Types.DepositVault","components":[{"name":"vaultIndex","type":"uint256","internalType":"uint256"},{"name":"depositTimestamp","type":"uint64","internalType":"uint64"},{"name":"depositUnlockTimestamp","type":"uint64","internalType":"uint64"},{"name":"vaultAmount","type":"uint256","internalType":"uint256"},{"name":"takerFee","type":"uint256","internalType":"uint256"},{"name":"expectedSats","type":"uint64","internalType":"uint64"},{"name":"btcPayoutScriptPubKey","type":"bytes25","internalType":"bytes25"},{"name":"specifiedPayoutAddress","type":"address","internalType":"address"},{"name":"ownerAddress","type":"address","internalType":"address"},{"name":"salt","type":"bytes32","internalType":"bytes32"},{"name":"confirmationBlocks","type":"uint8","internalType":"uint8"},{"name":"attestedBitcoinBlockHeight","type":"uint64","internalType":"uint64"}]},{"name":"storageStrategy","type":"uint8","internalType":"enum Types.StorageStrategy"},{"name":"localOverwriteIndex","type":"uint16","internalType":"uint16"},{"name":"swapBitcoinBlockLeaf","type":"tuple","internalType":"struct Types.BlockLeaf","components":[{"name":"blockHash","type":"bytes32","internalType":"bytes32"},{"name":"height","type":"uint32","internalType":"uint32"},{"name":"cumulativeChainwork","type":"uint256","internalType":"uint256"}]},{"name":"swapBitcoinBlockSiblings","type":"bytes32[]","internalType":"bytes32[]"},{"name":"swapBitcoinBlockPeaks","type":"bytes32[]","internalType":"bytes32[]"}]},{"name":"blockProofParams","type":"tuple","internalType":"struct Types.BlockProofParams","components":[{"name":"priorMmrRoot","type":"bytes32","internalType":"bytes32"},{"name":"newMmrRoot","type":"bytes32","internalType":"bytes32"},{"name":"compressedBlockLeaves","type":"bytes","internalType":"bytes"},{"name":"tipBlockLeaf","type":"tuple","internalType":"struct Types.BlockLeaf","components":[{"name":"blockHash","type":"bytes32","internalType":"bytes32"},{"name":"height","type":"uint32","internalType":"uint32"},{"name":"cumulativeChainwork","type":"uint256","internalType":"uint256"}]}]},{"name":"overwriteSwaps","type":"tuple[]","internalType":"struct Types.ProposedSwap[]","components":[{"name":"swapIndex","type":"uint256","internalType":"uint256"},{"name":"depositVaultHash","type":"bytes32","internalType":"bytes32"},{"name":"swapBitcoinBlockLeaf","type":"tuple","internalType":"struct Types.BlockLeaf","components":[{"name":"blockHash","type":"bytes32","internalType":"bytes32"},{"name":"height","type":"uint32","internalType":"uint32"},{"name":"cumulativeChainwork","type":"uint256","internalType":"uint256"}]},{"name":"confirmationBlocks","type":"uint8","internalType":"uint8"},{"name":"liquidityUnlockTimestamp","type":"uint64","internalType":"uint64"},{"name":"specifiedPayoutAddress","type":"address","internalType":"address"},{"name":"totalSwapOutput","type":"uint256","internalType":"uint256"},{"name":"takerFee","type":"uint256","internalType":"uint256"},{"name":"state","type":"uint8","internalType":"enum Types.SwapState"}]},{"name":"proof","type":"bytes","internalType":"bytes"}],"outputs":[],"stateMutability":"nonpayable"},{"type":"function","name":"swapHashes","inputs":[{"name":"","type":"uint256","internalType":"uint256"}],"outputs":[{"name":"","type":"bytes32","internalType":"bytes32"}],"stateMutability":"view"},{"type":"function","name":"transferOwnership","inputs":[{"name":"newOwner","type":"address","internalType":"address"}],"outputs":[],"stateMutability":"payable"},{"type":"function","name":"updateLightClient","inputs":[{"name":"blockProofParams","type":"tuple","internalType":"struct Types.BlockProofParams","components":[{"name":"priorMmrRoot","type":"bytes32","internalType":"bytes32"},{"name":"newMmrRoot","type":"bytes32","internalType":"bytes32"},{"name":"compressedBlockLeaves","type":"bytes","internalType":"bytes"},{"name":"tipBlockLeaf","type":"tuple","internalType":"struct Types.BlockLeaf","components":[{"name":"blockHash","type":"bytes32","internalType":"bytes32"},{"name":"height","type":"uint32","internalType":"uint32"},{"name":"cumulativeChainwork","type":"uint256","internalType":"uint256"}]}]},{"name":"proof","type":"bytes","internalType":"bytes"}],"outputs":[],"stateMutability":"nonpayable"},{"type":"function","name":"vaultHashes","inputs":[{"name":"","type":"uint256","internalType":"uint256"}],"outputs":[{"name":"","type":"bytes32","internalType":"bytes32"}],"stateMutability":"view"},{"type":"function","name":"verifyZkProof","inputs":[{"name":"proofPublicInput","type":"tuple","internalType":"struct Types.ProofPublicInput","components":[{"name":"proofType","type":"uint8","internalType":"enum Types.ProofType"},{"name":"swaps","type":"tuple[]","internalType":"struct Types.SwapPublicInput[]","components":[{"name":"swapBitcoinTxid","type":"bytes32","internalType":"bytes32"},{"name":"swapBitcoinBlockHash","type":"bytes32","internalType":"bytes32"},{"name":"depositVaultHash","type":"bytes32","internalType":"bytes32"}]},{"name":"lightClient","type":"tuple","internalType":"struct Types.LightClientPublicInput","components":[{"name":"previousMmrRoot","type":"bytes32","internalType":"bytes32"},{"name":"newMmrRoot","type":"bytes32","internalType":"bytes32"},{"name":"compressedLeavesHash","type":"bytes32","internalType":"bytes32"},{"name":"tipBlockLeaf","type":"tuple","internalType":"struct Types.BlockLeaf","components":[{"name":"blockHash","type":"bytes32","internalType":"bytes32"},{"name":"height","type":"uint32","internalType":"uint32"},{"name":"cumulativeChainwork","type":"uint256","internalType":"uint256"}]}]}]},{"name":"proof","type":"bytes","internalType":"bytes"}],"outputs":[],"stateMutability":"view"},{"type":"function","name":"withdrawLiquidity","inputs":[{"name":"vault","type":"tuple","internalType":"struct Types.DepositVault","components":[{"name":"vaultIndex","type":"uint256","internalType":"uint256"},{"name":"depositTimestamp","type":"uint64","internalType":"uint64"},{"name":"depositUnlockTimestamp","type":"uint64","internalType":"uint64"},{"name":"vaultAmount","type":"uint256","internalType":"uint256"},{"name":"takerFee","type":"uint256","internalType":"uint256"},{"name":"expectedSats","type":"uint64","internalType":"uint64"},{"name":"btcPayoutScriptPubKey","type":"bytes25","internalType":"bytes25"},{"name":"specifiedPayoutAddress","type":"address","internalType":"address"},{"name":"ownerAddress","type":"address","internalType":"address"},{"name":"salt","type":"bytes32","internalType":"bytes32"},{"name":"confirmationBlocks","type":"uint8","internalType":"uint8"},{"name":"attestedBitcoinBlockHeight","type":"uint64","internalType":"uint64"}]}],"outputs":[],"stateMutability":"nonpayable"},{"type":"event","name":"BitcoinLightClientUpdated","inputs":[{"name":"priorMmrRoot","type":"bytes32","indexed":false,"internalType":"bytes32"},{"name":"newMmrRoot","type":"bytes32","indexed":false,"internalType":"bytes32"},{"name":"compressedBlockLeaves","type":"bytes","indexed":false,"internalType":"bytes"}],"anonymous":false},{"type":"event","name":"OwnershipHandoverCanceled","inputs":[{"name":"pendingOwner","type":"address","indexed":true,"internalType":"address"}],"anonymous":false},{"type":"event","name":"OwnershipHandoverRequested","inputs":[{"name":"pendingOwner","type":"address","indexed":true,"internalType":"address"}],"anonymous":false},{"type":"event","name":"OwnershipTransferred","inputs":[{"name":"oldOwner","type":"address","indexed":true,"internalType":"address"},{"name":"newOwner","type":"address","indexed":true,"internalType":"address"}],"anonymous":false},{"type":"event","name":"SwapsUpdated","inputs":[{"name":"swaps","type":"tuple[]","indexed":false,"internalType":"struct Types.ProposedSwap[]","components":[{"name":"swapIndex","type":"uint256","internalType":"uint256"},{"name":"depositVaultHash","type":"bytes32","internalType":"bytes32"},{"name":"swapBitcoinBlockLeaf","type":"tuple","internalType":"struct Types.BlockLeaf","components":[{"name":"blockHash","type":"bytes32","internalType":"bytes32"},{"name":"height","type":"uint32","internalType":"uint32"},{"name":"cumulativeChainwork","type":"uint256","internalType":"uint256"}]},{"name":"confirmationBlocks","type":"uint8","internalType":"uint8"},{"name":"liquidityUnlockTimestamp","type":"uint64","internalType":"uint64"},{"name":"specifiedPayoutAddress","type":"address","internalType":"address"},{"name":"totalSwapOutput","type":"uint256","internalType":"uint256"},{"name":"takerFee","type":"uint256","internalType":"uint256"},{"name":"state","type":"uint8","internalType":"enum Types.SwapState"}]},{"name":"context","type":"uint8","indexed":false,"internalType":"enum Types.SwapUpdateContext"}],"anonymous":false},{"type":"event","name":"VaultsUpdated","inputs":[{"name":"vaults","type":"tuple[]","indexed":false,"internalType":"struct Types.DepositVault[]","components":[{"name":"vaultIndex","type":"uint256","internalType":"uint256"},{"name":"depositTimestamp","type":"uint64","internalType":"uint64"},{"name":"depositUnlockTimestamp","type":"uint64","internalType":"uint64"},{"name":"vaultAmount","type":"uint256","internalType":"uint256"},{"name":"takerFee","type":"uint256","internalType":"uint256"},{"name":"expectedSats","type":"uint64","internalType":"uint64"},{"name":"btcPayoutScriptPubKey","type":"bytes25","internalType":"bytes25"},{"name":"specifiedPayoutAddress","type":"address","internalType":"address"},{"name":"ownerAddress","type":"address","internalType":"address"},{"name":"salt","type":"bytes32","internalType":"bytes32"},{"name":"confirmationBlocks","type":"uint8","internalType":"uint8"},{"name":"attestedBitcoinBlockHeight","type":"uint64","internalType":"uint64"}]},{"name":"context","type":"uint8","indexed":false,"internalType":"enum Types.VaultUpdateContext"}],"anonymous":false},{"type":"error","name":"AlreadyInitialized","inputs":[]},{"type":"error","name":"BlockNotConfirmed","inputs":[]},{"type":"error","name":"BlockNotInChain","inputs":[]},{"type":"error","name":"CannotOverwriteOngoingSwap","inputs":[]},{"type":"error","name":"ChainworkTooLow","inputs":[]},{"type":"error","name":"CheckpointNotEstablished","inputs":[]},{"type":"error","name":"DepositAmountTooLow","inputs":[]},{"type":"error","name":"DepositStillLocked","inputs":[]},{"type":"error","name":"DepositVaultDoesNotExist","inputs":[]},{"type":"error","name":"DepositVaultNotOverwritable","inputs":[]},{"type":"error","name":"EmptyDepositVault","inputs":[]},{"type":"error","name":"InvalidDepositTokenDecimals","inputs":[]},{"type":"error","name":"InvalidScriptPubKey","inputs":[]},{"type":"error","name":"InvalidVaultHash","inputs":[{"name":"actual","type":"bytes32","internalType":"bytes32"},{"name":"expected","type":"bytes32","internalType":"bytes32"}]},{"type":"error","name":"NewOwnerIsZeroAddress","inputs":[]},{"type":"error","name":"NoFeeToPay","inputs":[]},{"type":"error","name":"NoHandoverRequest","inputs":[]},{"type":"error","name":"NoSwapsToSubmit","inputs":[]},{"type":"error","name":"NotEnoughConfirmationBlocks","inputs":[]},{"type":"error","name":"SatOutputTooLow","inputs":[]},{"type":"error","name":"StillInChallengePeriod","inputs":[]},{"type":"error","name":"SwapDoesNotExist","inputs":[]},{"type":"error","name":"SwapNotProved","inputs":[]},{"type":"error","name":"Unauthorized","inputs":[]}],"bytecode":{"object":"0x610180806040523461032557806131bc803803809161001e8285610350565b83398101039061010082126103255780519061003c60208201610373565b60408201519161004e60608201610373565b93606061005d60808401610373565b96609f1901126103255760405191606083016001600160401b0381118482101761033c5760405260a0810151835260c08101519063ffffffff821682036103255760e091602085015201516040830152805f5560405191604083019083821060018060401b0383111761033c57600392604092835260018552602085019182525f526001602052815f209351151560ff8019865416911617845551805160018501556002840163ffffffff60208301511663ffffffff198254161790550151910155306080524660a05260a0604051610137604082610350565b600c815260208101906b5269667445786368616e676560a01b825260405191610161604084610350565b60058352602083019164302e302e3160d81b8352519020915190208160c0528060e052604051917f8b73c3c69bb8fe3d512ecc4cf759cc79239f7b179b0ffacaa9a75d522b39400f835260208301526040820152466060820152306080820152206101005233638b78c6d81955335f7f8be0079c531659141344cd1fd0a4f28419497f9722a3daafe3b4186f6b6457e08180a360405163313ce56760e01b81526020816004816001600160a01b0386165afa908115610331575f916102f0575b5060ff60089116036102e15761012052610140526001600160a01b0390811661016052600580546001600160a01b03191692909116919091179055604051612e3490816103888239608051816128cb015260a051816128ee015260c051816129fe015260e05181612a24015261010051816128aa0152610120518181816102320152818161070e01528181610c87015281816110430152612b0901526101405181818161085701526119cb015261016051818181611242015261191a0152f35b6309d575ed60e41b5f5260045ffd5b90506020813d602011610329575b8161030b60209383610350565b81010312610325575160ff811681036103255760ff610221565b5f80fd5b3d91506102fe565b6040513d5f823e3d90fd5b634e487b7160e01b5f52604160045260245ffd5b601f909101601f19168101906001600160401b0382119082101761033c57604052565b51906001600160a01b03821682036103255756fe60806040526004361015610011575f80fd5b5f3560e01c806302977414146113f957806303af626a146113dc57806307a2ec521461127157806308c84e701461122d5780631cbeebeb146111f057806325692962146111a7578063298842fb14611189578063333f871a14611160578063427699461461109a578063428f29b814611072578063473d175d1461102e57806354d1f13d14610fea5780635861af0014610c17578063592b664914610af65780636093855014610ab3578063640179d814610a3457806365e99ad814610a17578063715018a6146109ce5780637c2301a61461095157806384b0196e1461087a5780638d5ca052146108405780638da5cb5b14610814578063a657fbea146107f6578063c190c164146105ba578063ca18100d1461059d578063d21ddc6114610581578063e16ddab314610402578063e5e78e02146103ca578063eb5e91ff14610367578063eb9ecdd1146102b2578063f04e283e14610265578063f23a94a914610202578063f2fde38b146101c55763fee81cf41461018f575f80fd5b346101c15760203660031901126101c1576101a861173b565b63389a75e1600c525f52602080600c2054604051908152f35b5f80fd5b60203660031901126101c1576101d961173b565b6101e1612758565b8060601b156101f5576101f390612bba565b005b637448fbae5f526004601cfd5b346101c1575f3660031901126101c1576004548015610256575f6004556005546101f391906001600160a01b03167f00000000000000000000000000000000000000000000000000000000000000006125d9565b630fbcad4560e21b5f5260045ffd5b60203660031901126101c15761027961173b565b610281612758565b63389a75e1600c52805f526020600c2090815442116102a5575f6101f39255612bba565b636f5e88185f526004601cfd5b346101c15760203660031901126101c1576004356001600160401b0381116101c1578036036101a06003198201126101c157602482016102f1816124b9565b50608483013561035857359160048101359161018219018212156101c1578261034b61032a602095600461033396610350960101612789565b9485919361170e565b90919082549060031b91821b915f19901b1916179055565b612a96565b604051908152f35b630faaae6760e31b5f5260045ffd5b346101c15760203660031901126101c1576004355f526001602052608060405f206103c861039c600160ff8454169301611789565b60405192151583526020830190604080918051845263ffffffff60208201511660208501520151910152565bf35b346101c15760203660031901126101c1576004356002548110156101c1576103f360209161170e565b90549060031b1c604051908152f35b346101c15760803660031901126101c1576004356001600160401b0381116101c157610432903690600401611553565b602435906001600160401b0382116101c157816004019260c060031984360301126101c1576044356001600160401b0381116101c157610476903690600401611583565b90926064356001600160401b0381116101c1576104979036906004016115b4565b949093873593602488013592606489019460448a01996104b78b8d611ed1565b6104c1368a6116a2565b916104cd92898c61262a565b6084016104d990611f48565b936104e394611f79565b966104ee9198611ed1565b36906104f992611f03565b80519060200120906040519361050e856115e1565b84526020840152604083015236610524916116a2565b606082015260405193610536856115fc565b600285526020850152604084015261054d9261190f565b60405161055b819282611859565b037fdc0391168b5903ca02f8020523ba62927809fd9d25baf94fcb8bb339e0c8f73191a1005b346101c1575f3660031901126101c15760205f54604051908152f35b346101c1575f3660031901126101c1576020600454604051908152f35b346101c157366003190161018081126101c1576105d56124f6565b5060643580156107e757604435916001600160401b0383168084036101c15742106107d857610180136101c1576040519161060f83611633565b60043583526024356001600160401b03811681036101c15760208401526040830152606082019080825260843591608084019280845260a4356001600160401b03811681036101c15760a086015260c43566ffffffffffffff19811681036101c15760c086015260e4356001600160a01b03811681036101c15760e086015261010435926001600160a01b03841684036101c15783610100870152610124356101208701526101443560ff811681036101c15761014087015261016435926001600160401b03841684036101c157610732955f809261070b966101608b015252526107066106fc8761258f565b610333885161170e565b611e0a565b907f00000000000000000000000000000000000000000000000000000000000000006125d9565b61073a611b99565b9061074482611d4e565b5261074e81611d4e565b50604051604081016040825282518091526020606083019301905f5b8181106107b757505050807fbcf83654bbe8d2d5a003763444fb50a895b7721b0239dcd314d345f8a3cdfb1992600160208301520390a1005b634e487b7160e01b5f52602160045260245ffd5b9091936020610180826107cd6001948951611e2b565b01950192910161076a565b6301b512a960e21b5f5260045ffd5b637941e9ad60e01b5f5260045ffd5b346101c15760203660031901126101c15760206103f360043561170e565b346101c1575f3660031901126101c157638b78c6d819546040516001600160a01b039091168152602090f35b346101c1575f3660031901126101c15760206040517f00000000000000000000000000000000000000000000000000000000000000008152f35b346101c1575f3660031901126101c1576108f3604061090081519161089f818461166a565b600c83526b5269667445786368616e676560a01b602084015280516108c4828261166a565b6005815264302e302e3160d81b60208201528151948594600f60f81b865260e0602087015260e0860190611765565b9184830390850152611765565b4660608301523060808301525f60a083015281810360c083015260206060519182815201906080905f5b818110610938575050500390f35b825184528594506020938401939092019160010161092a565b346101c15760c03660031901126101c1576109ca604051610971816115e1565b6004358152602435602082015260443560408201526109913660646116a2565b60608201526109a76040519160208301906118a9565b60c081526109b660e08261166a565b604051918291602083526020830190611765565b0390f35b5f3660031901126101c1576109e1612758565b5f638b78c6d819547f8be0079c531659141344cd1fd0a4f28419497f9722a3daafe3b4186f6b6457e08280a35f638b78c6d81955005b346101c1575f3660031901126101c1576020600254604051908152f35b346101c15760203660031901126101c1576004356001600160401b0381116101c15761018060031982360301126101c157600254610a7491600401612789565b600254600160401b811015610a9f5760209261034b8361033384600161035096016002556002611726565b634e487b7160e01b5f52604160045260245ffd5b346101c15760203660031901126101c157610acc61173b565b610ad4612758565b600580546001600160a01b0319166001600160a01b0392909216919091179055005b346101c15760403660031901126101c1576004356001600160401b0381116101c157806004019060c060031982360301126101c1576024356001600160401b0381116101c157610b4a9036906004016115b4565b9160448101610b63610b5c8287611ed1565b3691611f03565b60208151910120610b94610b8287359360646024870135960198611ed1565b90610b8d368a6116a2565b868661262a565b60405192610ba360208561166a565b5f84525f805b818110610c0057505095610bdb916101f39760405194610bc8866115e1565b85526020850152604084015236906116a2565b606082015260405191610bed836115fc565b600183526020830152604082015261190f565b602090610c0b611a96565b82828901015201610ba9565b346101c15760203660031901126101c1576004356001600160401b0381116101c157610c47903690600401611553565b90610c5182611ab4565b90610c5b8361168b565b92610c69604051948561166a565b808452601f19610c788261168b565b015f5b818110610fd35750505f7f0000000000000000000000000000000000000000000000000000000000000000905b828110610d99578585604051604081016040825282518091526020606083019301905f5b818110610d7857505050807fdc0391168b5903ca02f8020523ba62927809fd9d25baf94fcb8bb339e0c8f73192600160208301520390a1604051604081016040825282518091526020606083019301905f5b818110610d5757505050807fbcf83654bbe8d2d5a003763444fb50a895b7721b0239dcd314d345f8a3cdfb1992600260208301520390a1005b909193602061018082610d6d6001948951611e2b565b019501929101610d1e565b909193602061016082610d8e60019489516117c1565b019501929101610ccc565b610dac610da7828587611bd9565b61247c565b50610140610dbb828587611bd9565b013560038110156101c157600190610dd2816117b7565b03610fc4576001600160401b03610df560c0610def848789611bd9565b01611bfc565b164210610fb557610e136101a0610e0d838688611bd9565b016124b9565b6020610e20838688611bd9565b01358103610f915750600190610e9b610e46366040610e4085898b611bd9565b016116a2565b8587610e61610e56868484611bd9565b610160810190611c10565b9060ff610e9460a0610e8e8a610e86610e7b828b8b611bd9565b610180810190611c10565b999098611bd9565b01611c45565b1694612511565b610eb3366101a0610ead84888a611bd9565b01611c75565b5f60608201525f6080820152610ed5610ecb8261258f565b610333835161170e565b610edf8289611d5b565b52610eea8188611d5b565b50610eff36610efa838789611bd9565b611d6f565b6002610100820152610f27610f13826125b7565b610333610f2185898b611bd9565b356116e2565b610f42610120610f3884888a611bd9565b0135600454611e0a565b600455610f75610f5e60e0610f5885898b611bd9565b01611e17565b610100610f6c85898b611bd9565b013590866125d9565b610f7f8288611d5b565b52610f8a8187611d5b565b5001610ca8565b6020610f9e838688611bd9565b013563046aaf4f60e51b5f5260045260245260445ffd5b632d5c37f560e21b5f5260045ffd5b6322fc5d4360e21b5f5260045ffd5b602090610fde611b41565b82828901015201610c7b565b5f3660031901126101c15763389a75e1600c52335f525f6020600c2055337ffa7b8eab7da67f412cc9575ed43464468f9bfbae89d1675917346ca6d8fe3c925f80a2005b346101c1575f3660031901126101c1576040517f00000000000000000000000000000000000000000000000000000000000000006001600160a01b03168152602090f35b346101c1575f3660031901126101c1576005546040516001600160a01b039091168152602090f35b346101c157366003190160a081126101c1576060136101c1576040516110bf816115fc565b600435815260243563ffffffff811681036101c157602082015260443560408201526064356001600160401b0381116101c157611100903690600401611553565b91608435916001600160401b0383116101c157602093611127611156943690600401611553565b9161114d6111485f545f52600160205263ffffffff600260405f2001541690565b611a6a565b935f5495612377565b6040519015158152f35b346101c15760203660031901126101c1576004356003548110156101c1576103f36020916116e2565b346101c15760203660031901126101c15760206103f36004356116e2565b5f3660031901126101c15763389a75e1600c52335f526202a30042016020600c2055337fdbf36a107da19e49527a7176a1babf963b4b0ff8cde35ee35d6cd8f1f9ac7e1d5f80a2005b346101c1575f3660031901126101c157602061121f5f545f52600160205263ffffffff600260405f2001541690565b63ffffffff60405191168152f35b346101c1575f3660031901126101c1576040517f00000000000000000000000000000000000000000000000000000000000000006001600160a01b03168152602090f35b346101c15760403660031901126101c1576004356001600160401b0381116101c157803603906101006003198301126101c157604051916112b1836115fc565b816004013560038110156101c157835260248201356001600160401b0381116101c1578201366023820112156101c15760048101356112ef8161168b565b916112fd604051938461166a565b818352602060046060828601940283010101903682116101c157602401915b8183106113a057505050602084015260c0604319909101126101c15761136d60405191611348836115e1565b60448101358352606481013560208401526084810135604084015260a43691016116a2565b60608201526040820152602435906001600160401b0382116101c15761139a6101f39236906004016115b4565b9161190f565b6060833603126101c15760206060916040516113bb816115fc565b8535815282860135838201526040860135604082015281520192019161131c565b346101c1575f3660031901126101c1576020600354604051908152f35b346101c15760603660031901126101c1576004356001600160401b0381116101c157611429903690600401611553565b906024356001600160401b0381116101c157611449903690600401611583565b9190604435936001600160401b0385116101c1576114bc61154e94611542936114977fdc0391168b5903ca02f8020523ba62927809fd9d25baf94fcb8bb339e0c8f7319836906004016115b4565b9490966114b75f545f52600160205263ffffffff600260405f2001541690565b611f79565b6040949194516114cb816115e1565b5f81525f60208201525f604082015260606114e4611a96565b9101526040516114f3816115fc565b5f81525f60208201525f60408201526040519061150f826115e1565b5f82525f60208301525f6040830152606082015260405191611530836115fc565b5f83526020830152604082015261190f565b60405191829182611859565b0390a1005b9181601f840112156101c1578235916001600160401b0383116101c1576020808501948460051b0101116101c157565b9181601f840112156101c1578235916001600160401b0383116101c15760208085019461016085020101116101c157565b9181601f840112156101c1578235916001600160401b0383116101c157602083818601950101116101c157565b608081019081106001600160401b03821117610a9f57604052565b606081019081106001600160401b03821117610a9f57604052565b61012081019081106001600160401b03821117610a9f57604052565b61018081019081106001600160401b03821117610a9f57604052565b604081019081106001600160401b03821117610a9f57604052565b90601f801991011681019081106001600160401b03821117610a9f57604052565b6001600160401b038111610a9f5760051b60200190565b91908260609103126101c1576040516116ba816115fc565b809280358252602081013563ffffffff811681036101c1576020830152604090810135910152565b6003548110156116fa5760035f5260205f2001905f90565b634e487b7160e01b5f52603260045260245ffd5b6002548110156116fa5760025f5260205f2001905f90565b80548210156116fa575f5260205f2001905f90565b600435906001600160a01b03821682036101c157565b35906001600160a01b03821682036101c157565b805180835260209291819084018484015e5f828201840152601f01601f1916010190565b90604051611796816115fc565b6040600282948054845263ffffffff60018201541660208501520154910152565b600311156107a357565b80518252602080820151818401526040808301518051828601529182015163ffffffff16606085015201516080830152610140906101009060ff60608201511660a08501526001600160401b0360808201511660c085015260018060a01b0360a08201511660e085015260c08101518285015260e081015161012085015201519161184b836117b7565b0152565b600211156107a357565b9190604083016040845281518091526020606085019201905f5b8181106118885750919391505060205f910152565b90919260206101608261189e60019488516117c1565b019401929101611873565b906060806118ed938051845260208101516020850152604081015160408501520151910190604080918051845263ffffffff60208201511660208501520151910152565b565b908060209392818452848401375f828201840152601f01601f1916010190565b909160018060a01b037f000000000000000000000000000000000000000000000000000000000000000016604051926020808501528361014081018251611955816117b7565b604083015260208301519061010060608401528151809152602061016084019201905f5b818110611a385750505061199860406119a694015160808401906118a9565b03601f19810185528461166a565b803b156101c157611a005f93611a126040519687958694859463020a49e360e51b86527f00000000000000000000000000000000000000000000000000000000000000006004870152606060248701526064860190611765565b848103600319016044860152916118ef565b03915afa8015611a2d57611a235750565b5f6118ed9161166a565b6040513d5f823e3d90fd5b919493509160206060600192604088518051835284810151858401520151604082015201950191019187939492611979565b63ffffffff60019116019063ffffffff8211611a8257565b634e487b7160e01b5f52601160045260245ffd5b60405190611aa3826115fc565b5f6040838281528260208201520152565b90611abe8261168b565b611acb604051918261166a565b8281528092611adc601f199161168b565b01905f5b828110611aec57505050565b602090604051611afb81611617565b5f81525f83820152611b0b611a96565b60408201525f60608201525f60808201525f60a08201525f60c08201525f60e08201525f61010082015282828501015201611ae0565b60405190611b4e82611633565b5f610160838281528260208201528260408201528260608201528260808201528260a08201528260c08201528260e08201528261010082015282610120820152826101408201520152565b60408051909190611baa838261166a565b6001815291601f1901825f5b828110611bc257505050565b602090611bcd611b41565b82828501015201611bb6565b91908110156116fa5760051b8101359061033e19813603018212156101c1570190565b356001600160401b03811681036101c15790565b903590601e19813603018212156101c157018035906001600160401b0382116101c157602001918160051b360383136101c157565b3560ff811681036101c15790565b35906001600160401b03821682036101c157565b359060ff821682036101c157565b9190826101809103126101c157604051611c8e81611633565b809280358252611ca060208201611c53565b6020830152611cb160408201611c53565b60408301526060810135606083015260808101356080830152611cd660a08201611c53565b60a083015260c08101359066ffffffffffffff19821682036101c157610160611d4991819360c0860152611d0c60e08201611751565b60e0860152611d1e6101008201611751565b610100860152610120810135610120860152611d3d6101408201611c67565b61014086015201611c53565b910152565b8051156116fa5760200190565b80518210156116fa5760209160051b010190565b919091610160818403126101c15761014060405191611d8d83611617565b611da983958235855260208301356020860152604083016116a2565b6040840152611dba60a08201611c67565b6060840152611dcb60c08201611c53565b6080840152611ddc60e08201611751565b60a084015261010081013560c084015261012081013560e084015201359060038210156101c1576101000152565b91908201809211611a8257565b356001600160a01b03811681036101c15790565b6001600160401b0361016080928051855282602082015116602086015282604082015116604086015260608101516060860152608081015160808601528260a08201511660a086015266ffffffffffffff1960c08201511660c086015260018060a01b0360e08201511660e086015260018060a01b036101008201511661010086015261012081015161012086015260ff61014082015116610140860152015116910152565b903590601e19813603018212156101c157018035906001600160401b0382116101c1576020019181360383136101c157565b9291926001600160401b038211610a9f5760405191611f2c601f8201601f19166020018461166a565b8294818452818301116101c1578281602093845f960137010152565b3563ffffffff811681036101c15790565b3561ffff811681036101c15790565b91908110156116fa57610160020190565b9490919392841561235857611f8d8561168b565b95611f9b604051978861166a565b858752601f19611faa8761168b565b015f5b8181106123415750508690611fc187611ab4565b91600354945f5b898110156123345786908060051b89013561027e198a3603018112156101c1576101a0818b010135600281101593846101c1578b8f8b8f6120088661184f565b8561228757505050505f198b14611a825760018f9b019a5b8c61202f6020868301016124b9565b9161206b876101e08885010192604051612048816115fc565b898601358152843560208201528660408201526120658383611d5b565b52611d5b565b506001600160401b036120dd610180886120d5866120d08784612095848201610240810190611c10565b6101606120ac610260858995990101858501611c10565b94909301019560ff6120c86120c089611c45565b9636906116a2565b951694612511565b611c45565b950101611bfc565b1663ffffffff8c16036001600160401b038111611a82576001600160401b03166085026001600160401b038116908103611a825761e3b3016001600160401b038111611a82576001600160401b036103e88161012c9316041601916001600160401b038311611a82578f9260ff926121726101008a6001600160401b036121698161218e971642611e0a565b16970101611e17565b956040519761218089611617565b8852602088015236906116a2565b6040860152166060840152608083015260018060a01b031660a08201526080838d01013560c082015260a0838d01013560e082015260016101008201526121d5848a611d5b565b526121e08389611d5b565b506121f46121ee848a611d5b565b516125b7565b936101c1578b918b916122068161184f565b8061223b5750505050600354600160401b811015610a9f57600192610333828561223594016003556003611726565b01611fc8565b9060018096939261224b8161184f565b1461225a575b50505050612235565b61227e9361ffff6122766101c0610f2194610333960101611f59565b16908c611f68565b895f8a81612251565b9091929750855f986122988761184f565b600187146122aa575b50505050612020565b016101c001935061014092506122eb916122d690610da7908361ffff6122cf89611f59565b1691611f68565b5061ffff6122e385611f59565b16908d611f68565b013560038110156101c157600290612302816117b7565b036123255761231a8f9161ffff8f9161227690611f59565b35908a8e858f6122a1565b63a5f611fd60e01b5f5260045ffd5b5096509650509550505050565b60209061234c611a96565b82828c01015201611fad565b6308d98c4f60e01b5f5260045ffd5b91908110156116fa5760051b0190565b919093929363ffffffff6123ae84516020860195604084885116910151919091606092604051928352602083015260408201522090565b935116905f925b80841061242b57505050505f905f5b838110612405575b5050156123fd576123dc91612bf7565b9081156123f65763ffffffff165f5260205260405f201490565b5050505f90565b505050505f90565b81612411828688612367565b351461241f576001016123c4565b50505060015f806123cc565b9293600183811c94929381160361245e57612447858385612367565b355f52602052600160405f20945b019291906123b5565b612469858385612367565b35905f52602052600160405f2094612455565b61249a61249161248c3684611d6f565b6125b7565b91356003611726565b90549060031b1c81036124aa5790565b631a40316d60e01b5f5260045ffd5b6124d76124ce6124c93684611c75565b61258f565b91356002611726565b90549060031b1c81036124e75790565b63cd1d240d60e01b5f5260045ffd5b6125046124c9366004611c75565b6124d76004356002611726565b94939161251f939186612c48565b63ffffffff60206125435f545f52600160205263ffffffff600260405f2001541690565b930151169063ffffffff5f1991160163ffffffff8111611a825763ffffffff160163ffffffff8111611a825763ffffffff80911691161061258057565b630a47293560e31b5f5260045ffd5b6040516125a0602082018093611e2b565b61018081526125b16101a08261166a565b51902090565b6040516125c86020820180936117c1565b61016081526125b16101808261166a565b919060145260345263a9059cbb60601b5f5260205f6044601082855af1908160015f5114161561260c575b50505f603452565b3b153d17101561261d575f80612604565b6390b8ec185f526004601cfd5b9190925f5480851461275057835f52600160205260405f206126636001604051926126548461164f565b60ff8154161515845201611789565b60208201525115612741575f526001602052600360405f20015460408301511115612732577f6768baae39ee0e687f7c44f7006a147b15ffb56031969140096fe95461eea2fd9461272d92600360408051926126be8461164f565b6001845260208401908152885f526001602052815f209351151560ff8019865416911617845551805160018501556002840163ffffffff60208301511663ffffffff198254161790550151910155845f55604051948594855260208501526060604085015260608401916118ef565b0390a1565b6307800bf560e21b5f5260045ffd5b63e1965c6560e01b5f5260045ffd5b505050505050565b638b78c6d81954330361276757565b6382b429005f526004601cfd5b3566ffffffffffffff19811681036101c15790565b919091612794611b41565b506040810135906107d08210612a875760608101916103e86001600160401b036127bd85611bfc565b1610612a785760c0820190600260ff6127d584611c45565b1610612a6957608083016127f06127eb82612774565b612c85565b15612a5a5761282a612806610140860186611c10565b90612815610160880188611c10565b9290916128253660e08b016116a2565b612c48565b6005820282810460051483151715611a825761271090049060ff61284d85611c45565b16611c200263ffffffff8116908103611a82576128726001600160401b039142611e0a565b1695828403938411611a825761288a61289091611bfc565b91612774565b9061289d60208701611e17565b926128a787611e17565b947f00000000000000000000000000000000000000000000000000000000000000007f000000000000000000000000000000000000000000000000000000000000000030147f0000000000000000000000000000000000000000000000000000000000000000461416156129d3575b6040805191825260a08a0135602083015281018c9052606090209661293a90611c45565b976101000161294890611f48565b986040519b6129568d611633565b8c526001600160401b0342811660208e015260408d019190915260608c019190915260808b01919091521660a089015266ffffffffffffff191660c08801526001600160a01b0390811660e08801521661010086015261012085015260ff1661014084015263ffffffff166101608301526129d08261258f565b90565b5060a06040517f8b73c3c69bb8fe3d512ecc4cf759cc79239f7b179b0ffacaa9a75d522b39400f81527f000000000000000000000000000000000000000000000000000000000000000060208201527f0000000000000000000000000000000000000000000000000000000000000000604082015246606082015230608082015220612916565b63fad7db0760e01b5f5260045ffd5b63bdf8f2b360e01b5f5260045ffd5b63fde5943160e01b5f5260045ffd5b6355fcd02760e01b5f5260045ffd5b612a9e611b99565b81612aa882611d4e565b52612ab281611d4e565b50604051604081016040825282518091526020606083019301905f5b818110612b9957505050807fbcf83654bbe8d2d5a003763444fb50a895b7721b0239dcd314d345f8a3cdfb19925f60208301520390a1612b397f0000000000000000000000000000000000000000000000000000000000000000916080606082015191015190611e0a565b9060405191606052306040523360601b602c526323b872dd60601b600c5260205f6064601c82855af1908160015f51141615612b7b575b50505f606052604052565b3b153d171015612b8c575f80612b70565b637939f4245f526004601cfd5b909193602061018082612baf6001948951611e2b565b019501929101612ace565b60018060a01b031680638b78c6d819547f8be0079c531659141344cd1fd0a4f28419497f9722a3daafe3b4186f6b6457e05f80a3638b78c6d81955565b8115612c42575f19820191808311611a8257612c14838284612367565b3592805b612c225750505090565b5f190192612c31848385612367565b355f526020528260405f2093612c18565b50505f90565b92612c6f94919261114d6111485f545f52600160205263ffffffff600260405f2001541690565b15612c7657565b632814065160e01b5f5260045ffd5b5f81901a60f81b6001600160f81b03191680612ce0575069ffffffffffffffffffff19165f81901a60f81b6001600160f81b031916159081612cc5575090565b60011a60f81b6001600160f81b031916600560fa1b14919050565b60a960f81b8103612d59575068ffffffffffffffffff19165f81901a60f81b6001600160f81b03191660a960f81b149081612d3a575b81612d1f575090565b60161a60f81b6001600160f81b031916608760f81b14919050565b600181901a60f81b6001600160f81b031916600560fa1b149150612d16565b603b60f91b149081612d6b5750505f90565b81612ddf575b81612dc0575b81612da1575b81612d86575090565b60181a60f81b6001600160f81b031916602b60fa1b14919050565b601781901a60f81b6001600160f81b031916601160fb1b149150612d7d565b600281901a60f81b6001600160f81b031916600560fa1b149150612d77565b600181901a60f81b6001600160f81b03191660a960f81b149150612d7156fea26469706673582212204ca52b813c28dc8c7c194d0ae37e94a42731bbfa62eedf1391689f287818a56464736f6c634300081c0033","linkReferences":{}},"methodIdentifiers":{"CIRCUIT_VERIFICATION_KEY()":"8d5ca052","ERC20_BTC()":"473d175d","VERIFIER()":"08c84e70","accumulatedFeeBalance()":"ca18100d","cancelOwnershipHandover()":"54d1f13d","checkpoints(bytes32)":"eb5e91ff","completeOwnershipHandover(address)":"f04e283e","depositLiquidity((address,address,uint256,uint64,bytes25,bytes32,uint8,(bytes32,uint32,uint256),bytes32[],bytes32[]))":"640179d8","depositLiquidityWithOverwrite(((address,address,uint256,uint64,bytes25,bytes32,uint8,(bytes32,uint32,uint256),bytes32[],bytes32[]),(uint256,uint64,uint64,uint256,uint256,uint64,bytes25,address,address,bytes32,uint8,uint64)))":"eb9ecdd1","eip712Domain()":"84b0196e","feeRouterAddress()":"428f29b8","getLightClientHeight()":"1cbeebeb","getSwapHash(uint256)":"298842fb","getSwapHashesLength()":"03af626a","getVaultHash(uint256)":"a657fbea","getVaultHashesLength()":"65e99ad8","mmrRoot()":"d21ddc61","owner()":"8da5cb5b","ownershipHandoverExpiresAt(address)":"fee81cf4","payoutToFeeRouter()":"f23a94a9","proveBlockInclusion((bytes32,uint32,uint256),bytes32[],bytes32[])":"42769946","releaseLiquidityBatch(((uint256,bytes32,(bytes32,uint32,uint256),uint8,uint64,address,uint256,uint256,uint8),bytes32[],bytes32[],(uint256,uint64,uint64,uint256,uint256,uint64,bytes25,address,address,bytes32,uint8,uint64),uint32)[])":"5861af00","renounceOwnership()":"715018a6","requestOwnershipHandover()":"25692962","serializeLightClientPublicInput((bytes32,bytes32,bytes32,(bytes32,uint32,uint256)))":"7c2301a6","setFeeRouterAddress(address)":"60938550","submitBatchSwapProof((bytes32,(uint256,uint64,uint64,uint256,uint256,uint64,bytes25,address,address,bytes32,uint8,uint64),uint8,uint16,(bytes32,uint32,uint256),bytes32[],bytes32[])[],(uint256,bytes32,(bytes32,uint32,uint256),uint8,uint64,address,uint256,uint256,uint8)[],bytes)":"02977414","submitBatchSwapProofWithLightClientUpdate((bytes32,(uint256,uint64,uint64,uint256,uint256,uint64,bytes25,address,address,bytes32,uint8,uint64),uint8,uint16,(bytes32,uint32,uint256),bytes32[],bytes32[])[],(bytes32,bytes32,bytes,(bytes32,uint32,uint256)),(uint256,bytes32,(bytes32,uint32,uint256),uint8,uint64,address,uint256,uint256,uint8)[],bytes)":"e16ddab3","swapHashes(uint256)":"333f871a","transferOwnership(address)":"f2fde38b","updateLightClient((bytes32,bytes32,bytes,(bytes32,uint32,uint256)),bytes)":"592b6649","vaultHashes(uint256)":"e5e78e02","verifyZkProof((uint8,(bytes32,bytes32,bytes32)[],(bytes32,bytes32,bytes32,(bytes32,uint32,uint256))),bytes)":"07a2ec52","withdrawLiquidity((uint256,uint64,uint64,uint256,uint256,uint64,bytes25,address,address,bytes32,uint8,uint64))":"c190c164"},"storageLayout":{"storage":[{"astId":42618,"contract":"src/RiftExchange.sol:RiftExchange","label":"mmrRoot","offset":0,"slot":"0","type":"t_bytes32"},{"astId":42623,"contract":"src/RiftExchange.sol:RiftExchange","label":"checkpoints","offset":0,"slot":"1","type":"t_mapping(t_bytes32,t_struct(BitcoinCheckpoint)45011_storage)"},{"astId":42877,"contract":"src/RiftExchange.sol:RiftExchange","label":"vaultHashes","offset":0,"slot":"2","type":"t_array(t_bytes32)dyn_storage"},{"astId":42880,"contract":"src/RiftExchange.sol:RiftExchange","label":"swapHashes","offset":0,"slot":"3","type":"t_array(t_bytes32)dyn_storage"},{"astId":42882,"contract":"src/RiftExchange.sol:RiftExchange","label":"accumulatedFeeBalance","offset":0,"slot":"4","type":"t_uint256"},{"astId":42884,"contract":"src/RiftExchange.sol:RiftExchange","label":"feeRouterAddress","offset":0,"slot":"5","type":"t_address"}],"types":{"t_address":{"encoding":"inplace","label":"address","numberOfBytes":"20"},"t_array(t_bytes32)dyn_storage":{"encoding":"dynamic_array","label":"bytes32[]","numberOfBytes":"32","base":"t_bytes32"},"t_bool":{"encoding":"inplace","label":"bool","numberOfBytes":"1"},"t_bytes32":{"encoding":"inplace","label":"bytes32","numberOfBytes":"32"},"t_mapping(t_bytes32,t_struct(BitcoinCheckpoint)45011_storage)":{"encoding":"mapping","key":"t_bytes32","label":"mapping(bytes32 => struct Types.BitcoinCheckpoint)","numberOfBytes":"32","value":"t_struct(BitcoinCheckpoint)45011_storage"},"t_struct(BitcoinCheckpoint)45011_storage":{"encoding":"inplace","label":"struct Types.BitcoinCheckpoint","numberOfBytes":"128","members":[{"astId":45007,"contract":"src/RiftExchange.sol:RiftExchange","label":"established","offset":0,"slot":"0","type":"t_bool"},{"astId":45010,"contract":"src/RiftExchange.sol:RiftExchange","label":"tipBlockLeaf","offset":0,"slot":"1","type":"t_struct(BlockLeaf)44803_storage"}]},"t_struct(BlockLeaf)44803_storage":{"encoding":"inplace","label":"struct Types.BlockLeaf","numberOfBytes":"96","members":[{"astId":44798,"contract":"src/RiftExchange.sol:RiftExchange","label":"blockHash","offset":0,"slot":"0","type":"t_bytes32"},{"astId":44800,"contract":"src/RiftExchange.sol:RiftExchange","label":"height","offset":0,"slot":"1","type":"t_uint32"},{"astId":44802,"contract":"src/RiftExchange.sol:RiftExchange","label":"cumulativeChainwork","offset":0,"slot":"2","type":"t_uint256"}]},"t_uint256":{"encoding":"inplace","label":"uint256","numberOfBytes":"32"},"t_uint32":{"encoding":"inplace","label":"uint32","numberOfBytes":"4"}}},"id":33}