{"abi":[{"type":"constructor","inputs":[{"name":"_mmrRoot","type":"bytes32","internalType":"bytes32"},{"name":"_depositToken","type":"address","internalType":"address"},{"name":"_circuitVerificationKey","type":"bytes32","internalType":"bytes32"},{"name":"_verifier","type":"address","internalType":"address"},{"name":"_feeRouter","type":"address","internalType":"address"},{"name":"_takerFeeBips","type":"uint16","internalType":"uint16"},{"name":"_tipBlockLeaf","type":"tuple","internalType":"struct Types.BlockLeaf","components":[{"name":"blockHash","type":"bytes32","internalType":"bytes32"},{"name":"height","type":"uint32","internalType":"uint32"},{"name":"cumulativeChainwork","type":"uint256","internalType":"uint256"}]}],"stateMutability":"nonpayable"},{"type":"function","name":"CIRCUIT_VERIFICATION_KEY","inputs":[],"outputs":[{"name":"","type":"bytes32","internalType":"bytes32"}],"stateMutability":"view"},{"type":"function","name":"ERC20_BTC","inputs":[],"outputs":[{"name":"","type":"address","internalType":"address"}],"stateMutability":"view"},{"type":"function","name":"MIN_CONFIRMATION_BLOCKS","inputs":[],"outputs":[{"name":"","type":"uint8","internalType":"uint8"}],"stateMutability":"view"},{"type":"function","name":"MIN_OUTPUT_SATS","inputs":[],"outputs":[{"name":"","type":"uint16","internalType":"uint16"}],"stateMutability":"view"},{"type":"function","name":"VERIFIER","inputs":[],"outputs":[{"name":"","type":"address","internalType":"contract ISP1Verifier"}],"stateMutability":"view"},{"type":"function","name":"accumulatedFeeBalance","inputs":[],"outputs":[{"name":"","type":"uint256","internalType":"uint256"}],"stateMutability":"view"},{"type":"function","name":"adminSetFeeRouterAddress","inputs":[{"name":"_feeRouter","type":"address","internalType":"address"}],"outputs":[],"stateMutability":"nonpayable"},{"type":"function","name":"adminSetTakerFeeBips","inputs":[{"name":"_takerFeeBips","type":"uint16","internalType":"uint16"}],"outputs":[],"stateMutability":"nonpayable"},{"type":"function","name":"cancelOwnershipHandover","inputs":[],"outputs":[],"stateMutability":"payable"},{"type":"function","name":"checkpoints","inputs":[{"name":"","type":"bytes32","internalType":"bytes32"}],"outputs":[{"name":"established","type":"bool","internalType":"bool"},{"name":"tipBlockLeaf","type":"tuple","internalType":"struct Types.BlockLeaf","components":[{"name":"blockHash","type":"bytes32","internalType":"bytes32"},{"name":"height","type":"uint32","internalType":"uint32"},{"name":"cumulativeChainwork","type":"uint256","internalType":"uint256"}]}],"stateMutability":"view"},{"type":"function","name":"completeOwnershipHandover","inputs":[{"name":"pendingOwner","type":"address","internalType":"address"}],"outputs":[],"stateMutability":"payable"},{"type":"function","name":"depositLiquidity","inputs":[{"name":"params","type":"tuple","internalType":"struct Types.DepositLiquidityParams","components":[{"name":"depositOwnerAddress","type":"address","internalType":"address"},{"name":"specifiedPayoutAddress","type":"address","internalType":"address"},{"name":"depositAmount","type":"uint256","internalType":"uint256"},{"name":"expectedSats","type":"uint64","internalType":"uint64"},{"name":"btcPayoutScriptPubKey","type":"bytes25","internalType":"bytes25"},{"name":"depositSalt","type":"bytes32","internalType":"bytes32"},{"name":"confirmationBlocks","type":"uint8","internalType":"uint8"},{"name":"safeBlockLeaf","type":"tuple","internalType":"struct Types.BlockLeaf","components":[{"name":"blockHash","type":"bytes32","internalType":"bytes32"},{"name":"height","type":"uint32","internalType":"uint32"},{"name":"cumulativeChainwork","type":"uint256","internalType":"uint256"}]},{"name":"safeBlockSiblings","type":"bytes32[]","internalType":"bytes32[]"},{"name":"safeBlockPeaks","type":"bytes32[]","internalType":"bytes32[]"}]}],"outputs":[{"name":"","type":"bytes32","internalType":"bytes32"}],"stateMutability":"nonpayable"},{"type":"function","name":"depositLiquidityWithOverwrite","inputs":[{"name":"params","type":"tuple","internalType":"struct Types.DepositLiquidityWithOverwriteParams","components":[{"name":"depositParams","type":"tuple","internalType":"struct Types.DepositLiquidityParams","components":[{"name":"depositOwnerAddress","type":"address","internalType":"address"},{"name":"specifiedPayoutAddress","type":"address","internalType":"address"},{"name":"depositAmount","type":"uint256","internalType":"uint256"},{"name":"expectedSats","type":"uint64","internalType":"uint64"},{"name":"btcPayoutScriptPubKey","type":"bytes25","internalType":"bytes25"},{"name":"depositSalt","type":"bytes32","internalType":"bytes32"},{"name":"confirmationBlocks","type":"uint8","internalType":"uint8"},{"name":"safeBlockLeaf","type":"tuple","internalType":"struct Types.BlockLeaf","components":[{"name":"blockHash","type":"bytes32","internalType":"bytes32"},{"name":"height","type":"uint32","internalType":"uint32"},{"name":"cumulativeChainwork","type":"uint256","internalType":"uint256"}]},{"name":"safeBlockSiblings","type":"bytes32[]","internalType":"bytes32[]"},{"name":"safeBlockPeaks","type":"bytes32[]","internalType":"bytes32[]"}]},{"name":"overwriteVault","type":"tuple","internalType":"struct Types.DepositVault","components":[{"name":"vaultIndex","type":"uint256","internalType":"uint256"},{"name":"depositTimestamp","type":"uint64","internalType":"uint64"},{"name":"depositUnlockTimestamp","type":"uint64","internalType":"uint64"},{"name":"vaultAmount","type":"uint256","internalType":"uint256"},{"name":"takerFee","type":"uint256","internalType":"uint256"},{"name":"expectedSats","type":"uint64","internalType":"uint64"},{"name":"btcPayoutScriptPubKey","type":"bytes25","internalType":"bytes25"},{"name":"specifiedPayoutAddress","type":"address","internalType":"address"},{"name":"ownerAddress","type":"address","internalType":"address"},{"name":"salt","type":"bytes32","internalType":"bytes32"},{"name":"confirmationBlocks","type":"uint8","internalType":"uint8"},{"name":"attestedBitcoinBlockHeight","type":"uint64","internalType":"uint64"}]}]}],"outputs":[{"name":"","type":"bytes32","internalType":"bytes32"}],"stateMutability":"nonpayable"},{"type":"function","name":"eip712Domain","inputs":[],"outputs":[{"name":"fields","type":"bytes1","internalType":"bytes1"},{"name":"name","type":"string","internalType":"string"},{"name":"version","type":"string","internalType":"string"},{"name":"chainId","type":"uint256","internalType":"uint256"},{"name":"verifyingContract","type":"address","internalType":"address"},{"name":"salt","type":"bytes32","internalType":"bytes32"},{"name":"extensions","type":"uint256[]","internalType":"uint256[]"}],"stateMutability":"view"},{"type":"function","name":"feeRouterAddress","inputs":[],"outputs":[{"name":"","type":"address","internalType":"address"}],"stateMutability":"view"},{"type":"function","name":"getLightClientHeight","inputs":[],"outputs":[{"name":"","type":"uint32","internalType":"uint32"}],"stateMutability":"view"},{"type":"function","name":"getSwapHash","inputs":[{"name":"swapIndex","type":"uint256","internalType":"uint256"}],"outputs":[{"name":"","type":"bytes32","internalType":"bytes32"}],"stateMutability":"view"},{"type":"function","name":"getSwapHashesLength","inputs":[],"outputs":[{"name":"","type":"uint256","internalType":"uint256"}],"stateMutability":"view"},{"type":"function","name":"getVaultHash","inputs":[{"name":"vaultIndex","type":"uint256","internalType":"uint256"}],"outputs":[{"name":"","type":"bytes32","internalType":"bytes32"}],"stateMutability":"view"},{"type":"function","name":"getVaultHashesLength","inputs":[],"outputs":[{"name":"","type":"uint256","internalType":"uint256"}],"stateMutability":"view"},{"type":"function","name":"mmrRoot","inputs":[],"outputs":[{"name":"","type":"bytes32","internalType":"bytes32"}],"stateMutability":"view"},{"type":"function","name":"owner","inputs":[],"outputs":[{"name":"result","type":"address","internalType":"address"}],"stateMutability":"view"},{"type":"function","name":"ownershipHandoverExpiresAt","inputs":[{"name":"pendingOwner","type":"address","internalType":"address"}],"outputs":[{"name":"result","type":"uint256","internalType":"uint256"}],"stateMutability":"view"},{"type":"function","name":"payoutToFeeRouter","inputs":[],"outputs":[],"stateMutability":"nonpayable"},{"type":"function","name":"proveBlockInclusion","inputs":[{"name":"blockLeaf","type":"tuple","internalType":"struct Types.BlockLeaf","components":[{"name":"blockHash","type":"bytes32","internalType":"bytes32"},{"name":"height","type":"uint32","internalType":"uint32"},{"name":"cumulativeChainwork","type":"uint256","internalType":"uint256"}]},{"name":"siblings","type":"bytes32[]","internalType":"bytes32[]"},{"name":"peaks","type":"bytes32[]","internalType":"bytes32[]"}],"outputs":[{"name":"","type":"bool","internalType":"bool"}],"stateMutability":"view"},{"type":"function","name":"releaseLiquidityBatch","inputs":[{"name":"paramsArray","type":"tuple[]","internalType":"struct Types.ReleaseLiquidityParams[]","components":[{"name":"swap","type":"tuple","internalType":"struct Types.ProposedSwap","components":[{"name":"swapIndex","type":"uint256","internalType":"uint256"},{"name":"depositVaultHash","type":"bytes32","internalType":"bytes32"},{"name":"swapBitcoinBlockLeaf","type":"tuple","internalType":"struct Types.BlockLeaf","components":[{"name":"blockHash","type":"bytes32","internalType":"bytes32"},{"name":"height","type":"uint32","internalType":"uint32"},{"name":"cumulativeChainwork","type":"uint256","internalType":"uint256"}]},{"name":"confirmationBlocks","type":"uint8","internalType":"uint8"},{"name":"liquidityUnlockTimestamp","type":"uint64","internalType":"uint64"},{"name":"specifiedPayoutAddress","type":"address","internalType":"address"},{"name":"totalSwapOutput","type":"uint256","internalType":"uint256"},{"name":"takerFee","type":"uint256","internalType":"uint256"},{"name":"state","type":"uint8","internalType":"enum Types.SwapState"}]},{"name":"bitcoinSwapBlockSiblings","type":"bytes32[]","internalType":"bytes32[]"},{"name":"bitcoinSwapBlockPeaks","type":"bytes32[]","internalType":"bytes32[]"},{"name":"utilizedVault","type":"tuple","internalType":"struct Types.DepositVault","components":[{"name":"vaultIndex","type":"uint256","internalType":"uint256"},{"name":"depositTimestamp","type":"uint64","internalType":"uint64"},{"name":"depositUnlockTimestamp","type":"uint64","internalType":"uint64"},{"name":"vaultAmount","type":"uint256","internalType":"uint256"},{"name":"takerFee","type":"uint256","internalType":"uint256"},{"name":"expectedSats","type":"uint64","internalType":"uint64"},{"name":"btcPayoutScriptPubKey","type":"bytes25","internalType":"bytes25"},{"name":"specifiedPayoutAddress","type":"address","internalType":"address"},{"name":"ownerAddress","type":"address","internalType":"address"},{"name":"salt","type":"bytes32","internalType":"bytes32"},{"name":"confirmationBlocks","type":"uint8","internalType":"uint8"},{"name":"attestedBitcoinBlockHeight","type":"uint64","internalType":"uint64"}]},{"name":"tipBlockHeight","type":"uint32","internalType":"uint32"}]}],"outputs":[],"stateMutability":"nonpayable"},{"type":"function","name":"renounceOwnership","inputs":[],"outputs":[],"stateMutability":"payable"},{"type":"function","name":"requestOwnershipHandover","inputs":[],"outputs":[],"stateMutability":"payable"},{"type":"function","name":"serializeLightClientPublicInput","inputs":[{"name":"input","type":"tuple","internalType":"struct Types.LightClientPublicInput","components":[{"name":"previousMmrRoot","type":"bytes32","internalType":"bytes32"},{"name":"newMmrRoot","type":"bytes32","internalType":"bytes32"},{"name":"compressedLeavesHash","type":"bytes32","internalType":"bytes32"},{"name":"tipBlockLeaf","type":"tuple","internalType":"struct Types.BlockLeaf","components":[{"name":"blockHash","type":"bytes32","internalType":"bytes32"},{"name":"height","type":"uint32","internalType":"uint32"},{"name":"cumulativeChainwork","type":"uint256","internalType":"uint256"}]}]}],"outputs":[{"name":"","type":"bytes","internalType":"bytes"}],"stateMutability":"pure"},{"type":"function","name":"submitBatchSwapProof","inputs":[{"name":"swapParams","type":"tuple[]","internalType":"struct Types.SubmitSwapProofParams[]","components":[{"name":"swapBitcoinTxid","type":"bytes32","internalType":"bytes32"},{"name":"vault","type":"tuple","internalType":"struct Types.DepositVault","components":[{"name":"vaultIndex","type":"uint256","internalType":"uint256"},{"name":"depositTimestamp","type":"uint64","internalType":"uint64"},{"name":"depositUnlockTimestamp","type":"uint64","internalType":"uint64"},{"name":"vaultAmount","type":"uint256","internalType":"uint256"},{"name":"takerFee","type":"uint256","internalType":"uint256"},{"name":"expectedSats","type":"uint64","internalType":"uint64"},{"name":"btcPayoutScriptPubKey","type":"bytes25","internalType":"bytes25"},{"name":"specifiedPayoutAddress","type":"address","internalType":"address"},{"name":"ownerAddress","type":"address","internalType":"address"},{"name":"salt","type":"bytes32","internalType":"bytes32"},{"name":"confirmationBlocks","type":"uint8","internalType":"uint8"},{"name":"attestedBitcoinBlockHeight","type":"uint64","internalType":"uint64"}]},{"name":"storageStrategy","type":"uint8","internalType":"enum Types.StorageStrategy"},{"name":"localOverwriteIndex","type":"uint16","internalType":"uint16"},{"name":"swapBitcoinBlockLeaf","type":"tuple","internalType":"struct Types.BlockLeaf","components":[{"name":"blockHash","type":"bytes32","internalType":"bytes32"},{"name":"height","type":"uint32","internalType":"uint32"},{"name":"cumulativeChainwork","type":"uint256","internalType":"uint256"}]},{"name":"swapBitcoinBlockSiblings","type":"bytes32[]","internalType":"bytes32[]"},{"name":"swapBitcoinBlockPeaks","type":"bytes32[]","internalType":"bytes32[]"}]},{"name":"overwriteSwaps","type":"tuple[]","internalType":"struct Types.ProposedSwap[]","components":[{"name":"swapIndex","type":"uint256","internalType":"uint256"},{"name":"depositVaultHash","type":"bytes32","internalType":"bytes32"},{"name":"swapBitcoinBlockLeaf","type":"tuple","internalType":"struct Types.BlockLeaf","components":[{"name":"blockHash","type":"bytes32","internalType":"bytes32"},{"name":"height","type":"uint32","internalType":"uint32"},{"name":"cumulativeChainwork","type":"uint256","internalType":"uint256"}]},{"name":"confirmationBlocks","type":"uint8","internalType":"uint8"},{"name":"liquidityUnlockTimestamp","type":"uint64","internalType":"uint64"},{"name":"specifiedPayoutAddress","type":"address","internalType":"address"},{"name":"totalSwapOutput","type":"uint256","internalType":"uint256"},{"name":"takerFee","type":"uint256","internalType":"uint256"},{"name":"state","type":"uint8","internalType":"enum Types.SwapState"}]},{"name":"proof","type":"bytes","internalType":"bytes"}],"outputs":[],"stateMutability":"nonpayable"},{"type":"function","name":"submitBatchSwapProofWithLightClientUpdate","inputs":[{"name":"swapParams","type":"tuple[]","internalType":"struct Types.SubmitSwapProofParams[]","components":[{"name":"swapBitcoinTxid","type":"bytes32","internalType":"bytes32"},{"name":"vault","type":"tuple","internalType":"struct Types.DepositVault","components":[{"name":"vaultIndex","type":"uint256","internalType":"uint256"},{"name":"depositTimestamp","type":"uint64","internalType":"uint64"},{"name":"depositUnlockTimestamp","type":"uint64","internalType":"uint64"},{"name":"vaultAmount","type":"uint256","internalType":"uint256"},{"name":"takerFee","type":"uint256","internalType":"uint256"},{"name":"expectedSats","type":"uint64","internalType":"uint64"},{"name":"btcPayoutScriptPubKey","type":"bytes25","internalType":"bytes25"},{"name":"specifiedPayoutAddress","type":"address","internalType":"address"},{"name":"ownerAddress","type":"address","internalType":"address"},{"name":"salt","type":"bytes32","internalType":"bytes32"},{"name":"confirmationBlocks","type":"uint8","internalType":"uint8"},{"name":"attestedBitcoinBlockHeight","type":"uint64","internalType":"uint64"}]},{"name":"storageStrategy","type":"uint8","internalType":"enum Types.StorageStrategy"},{"name":"localOverwriteIndex","type":"uint16","internalType":"uint16"},{"name":"swapBitcoinBlockLeaf","type":"tuple","internalType":"struct Types.BlockLeaf","components":[{"name":"blockHash","type":"bytes32","internalType":"bytes32"},{"name":"height","type":"uint32","internalType":"uint32"},{"name":"cumulativeChainwork","type":"uint256","internalType":"uint256"}]},{"name":"swapBitcoinBlockSiblings","type":"bytes32[]","internalType":"bytes32[]"},{"name":"swapBitcoinBlockPeaks","type":"bytes32[]","internalType":"bytes32[]"}]},{"name":"blockProofParams","type":"tuple","internalType":"struct Types.BlockProofParams","components":[{"name":"priorMmrRoot","type":"bytes32","internalType":"bytes32"},{"name":"newMmrRoot","type":"bytes32","internalType":"bytes32"},{"name":"compressedBlockLeaves","type":"bytes","internalType":"bytes"},{"name":"tipBlockLeaf","type":"tuple","internalType":"struct Types.BlockLeaf","components":[{"name":"blockHash","type":"bytes32","internalType":"bytes32"},{"name":"height","type":"uint32","internalType":"uint32"},{"name":"cumulativeChainwork","type":"uint256","internalType":"uint256"}]}]},{"name":"overwriteSwaps","type":"tuple[]","internalType":"struct Types.ProposedSwap[]","components":[{"name":"swapIndex","type":"uint256","internalType":"uint256"},{"name":"depositVaultHash","type":"bytes32","internalType":"bytes32"},{"name":"swapBitcoinBlockLeaf","type":"tuple","internalType":"struct Types.BlockLeaf","components":[{"name":"blockHash","type":"bytes32","internalType":"bytes32"},{"name":"height","type":"uint32","internalType":"uint32"},{"name":"cumulativeChainwork","type":"uint256","internalType":"uint256"}]},{"name":"confirmationBlocks","type":"uint8","internalType":"uint8"},{"name":"liquidityUnlockTimestamp","type":"uint64","internalType":"uint64"},{"name":"specifiedPayoutAddress","type":"address","internalType":"address"},{"name":"totalSwapOutput","type":"uint256","internalType":"uint256"},{"name":"takerFee","type":"uint256","internalType":"uint256"},{"name":"state","type":"uint8","internalType":"enum Types.SwapState"}]},{"name":"proof","type":"bytes","internalType":"bytes"}],"outputs":[],"stateMutability":"nonpayable"},{"type":"function","name":"swapHashes","inputs":[{"name":"","type":"uint256","internalType":"uint256"}],"outputs":[{"name":"","type":"bytes32","internalType":"bytes32"}],"stateMutability":"view"},{"type":"function","name":"takerFeeBips","inputs":[],"outputs":[{"name":"","type":"uint16","internalType":"uint16"}],"stateMutability":"view"},{"type":"function","name":"transferOwnership","inputs":[{"name":"newOwner","type":"address","internalType":"address"}],"outputs":[],"stateMutability":"payable"},{"type":"function","name":"updateLightClient","inputs":[{"name":"blockProofParams","type":"tuple","internalType":"struct Types.BlockProofParams","components":[{"name":"priorMmrRoot","type":"bytes32","internalType":"bytes32"},{"name":"newMmrRoot","type":"bytes32","internalType":"bytes32"},{"name":"compressedBlockLeaves","type":"bytes","internalType":"bytes"},{"name":"tipBlockLeaf","type":"tuple","internalType":"struct Types.BlockLeaf","components":[{"name":"blockHash","type":"bytes32","internalType":"bytes32"},{"name":"height","type":"uint32","internalType":"uint32"},{"name":"cumulativeChainwork","type":"uint256","internalType":"uint256"}]}]},{"name":"proof","type":"bytes","internalType":"bytes"}],"outputs":[],"stateMutability":"nonpayable"},{"type":"function","name":"vaultHashes","inputs":[{"name":"","type":"uint256","internalType":"uint256"}],"outputs":[{"name":"","type":"bytes32","internalType":"bytes32"}],"stateMutability":"view"},{"type":"function","name":"verifyZkProof","inputs":[{"name":"proofPublicInput","type":"tuple","internalType":"struct Types.ProofPublicInput","components":[{"name":"proofType","type":"uint8","internalType":"enum Types.ProofType"},{"name":"swaps","type":"tuple[]","internalType":"struct Types.SwapPublicInput[]","components":[{"name":"swapBitcoinTxid","type":"bytes32","internalType":"bytes32"},{"name":"swapBitcoinBlockHash","type":"bytes32","internalType":"bytes32"},{"name":"depositVaultHash","type":"bytes32","internalType":"bytes32"}]},{"name":"lightClient","type":"tuple","internalType":"struct Types.LightClientPublicInput","components":[{"name":"previousMmrRoot","type":"bytes32","internalType":"bytes32"},{"name":"newMmrRoot","type":"bytes32","internalType":"bytes32"},{"name":"compressedLeavesHash","type":"bytes32","internalType":"bytes32"},{"name":"tipBlockLeaf","type":"tuple","internalType":"struct Types.BlockLeaf","components":[{"name":"blockHash","type":"bytes32","internalType":"bytes32"},{"name":"height","type":"uint32","internalType":"uint32"},{"name":"cumulativeChainwork","type":"uint256","internalType":"uint256"}]}]}]},{"name":"proof","type":"bytes","internalType":"bytes"}],"outputs":[],"stateMutability":"view"},{"type":"function","name":"withdrawLiquidity","inputs":[{"name":"vault","type":"tuple","internalType":"struct Types.DepositVault","components":[{"name":"vaultIndex","type":"uint256","internalType":"uint256"},{"name":"depositTimestamp","type":"uint64","internalType":"uint64"},{"name":"depositUnlockTimestamp","type":"uint64","internalType":"uint64"},{"name":"vaultAmount","type":"uint256","internalType":"uint256"},{"name":"takerFee","type":"uint256","internalType":"uint256"},{"name":"expectedSats","type":"uint64","internalType":"uint64"},{"name":"btcPayoutScriptPubKey","type":"bytes25","internalType":"bytes25"},{"name":"specifiedPayoutAddress","type":"address","internalType":"address"},{"name":"ownerAddress","type":"address","internalType":"address"},{"name":"salt","type":"bytes32","internalType":"bytes32"},{"name":"confirmationBlocks","type":"uint8","internalType":"uint8"},{"name":"attestedBitcoinBlockHeight","type":"uint64","internalType":"uint64"}]}],"outputs":[],"stateMutability":"nonpayable"},{"type":"event","name":"BitcoinLightClientUpdated","inputs":[{"name":"priorMmrRoot","type":"bytes32","indexed":false,"internalType":"bytes32"},{"name":"newMmrRoot","type":"bytes32","indexed":false,"internalType":"bytes32"},{"name":"compressedBlockLeaves","type":"bytes","indexed":false,"internalType":"bytes"}],"anonymous":false},{"type":"event","name":"OwnershipHandoverCanceled","inputs":[{"name":"pendingOwner","type":"address","indexed":true,"internalType":"address"}],"anonymous":false},{"type":"event","name":"OwnershipHandoverRequested","inputs":[{"name":"pendingOwner","type":"address","indexed":true,"internalType":"address"}],"anonymous":false},{"type":"event","name":"OwnershipTransferred","inputs":[{"name":"oldOwner","type":"address","indexed":true,"internalType":"address"},{"name":"newOwner","type":"address","indexed":true,"internalType":"address"}],"anonymous":false},{"type":"event","name":"SwapsUpdated","inputs":[{"name":"swaps","type":"tuple[]","indexed":false,"internalType":"struct Types.ProposedSwap[]","components":[{"name":"swapIndex","type":"uint256","internalType":"uint256"},{"name":"depositVaultHash","type":"bytes32","internalType":"bytes32"},{"name":"swapBitcoinBlockLeaf","type":"tuple","internalType":"struct Types.BlockLeaf","components":[{"name":"blockHash","type":"bytes32","internalType":"bytes32"},{"name":"height","type":"uint32","internalType":"uint32"},{"name":"cumulativeChainwork","type":"uint256","internalType":"uint256"}]},{"name":"confirmationBlocks","type":"uint8","internalType":"uint8"},{"name":"liquidityUnlockTimestamp","type":"uint64","internalType":"uint64"},{"name":"specifiedPayoutAddress","type":"address","internalType":"address"},{"name":"totalSwapOutput","type":"uint256","internalType":"uint256"},{"name":"takerFee","type":"uint256","internalType":"uint256"},{"name":"state","type":"uint8","internalType":"enum Types.SwapState"}]},{"name":"context","type":"uint8","indexed":false,"internalType":"enum Types.SwapUpdateContext"}],"anonymous":false},{"type":"event","name":"VaultsUpdated","inputs":[{"name":"vaults","type":"tuple[]","indexed":false,"internalType":"struct Types.DepositVault[]","components":[{"name":"vaultIndex","type":"uint256","internalType":"uint256"},{"name":"depositTimestamp","type":"uint64","internalType":"uint64"},{"name":"depositUnlockTimestamp","type":"uint64","internalType":"uint64"},{"name":"vaultAmount","type":"uint256","internalType":"uint256"},{"name":"takerFee","type":"uint256","internalType":"uint256"},{"name":"expectedSats","type":"uint64","internalType":"uint64"},{"name":"btcPayoutScriptPubKey","type":"bytes25","internalType":"bytes25"},{"name":"specifiedPayoutAddress","type":"address","internalType":"address"},{"name":"ownerAddress","type":"address","internalType":"address"},{"name":"salt","type":"bytes32","internalType":"bytes32"},{"name":"confirmationBlocks","type":"uint8","internalType":"uint8"},{"name":"attestedBitcoinBlockHeight","type":"uint64","internalType":"uint64"}]},{"name":"context","type":"uint8","indexed":false,"internalType":"enum Types.VaultUpdateContext"}],"anonymous":false},{"type":"error","name":"AlreadyInitialized","inputs":[]},{"type":"error","name":"BlockNotConfirmed","inputs":[]},{"type":"error","name":"BlockNotInChain","inputs":[]},{"type":"error","name":"CannotOverwriteOngoingSwap","inputs":[]},{"type":"error","name":"ChainworkTooLow","inputs":[]},{"type":"error","name":"CheckpointNotEstablished","inputs":[]},{"type":"error","name":"DepositAmountTooLow","inputs":[]},{"type":"error","name":"DepositStillLocked","inputs":[]},{"type":"error","name":"DepositVaultDoesNotExist","inputs":[]},{"type":"error","name":"DepositVaultNotOverwritable","inputs":[]},{"type":"error","name":"EmptyDepositVault","inputs":[]},{"type":"error","name":"InvalidDepositTokenDecimals","inputs":[]},{"type":"error","name":"InvalidScriptPubKey","inputs":[]},{"type":"error","name":"InvalidVaultHash","inputs":[{"name":"actual","type":"bytes32","internalType":"bytes32"},{"name":"expected","type":"bytes32","internalType":"bytes32"}]},{"type":"error","name":"NewOwnerIsZeroAddress","inputs":[]},{"type":"error","name":"NoFeeToPay","inputs":[]},{"type":"error","name":"NoHandoverRequest","inputs":[]},{"type":"error","name":"NoSwapsToSubmit","inputs":[]},{"type":"error","name":"NotEnoughConfirmationBlocks","inputs":[]},{"type":"error","name":"SatOutputTooLow","inputs":[]},{"type":"error","name":"StillInChallengePeriod","inputs":[]},{"type":"error","name":"SwapDoesNotExist","inputs":[]},{"type":"error","name":"SwapNotProved","inputs":[]},{"type":"error","name":"Unauthorized","inputs":[]}],"bytecode":{"object":"0x610180806040523461034557806132df803803809161001e8285610370565b833981010361012081126103455781519161003b60208201610393565b60408201519061004d60608401610393565b9261005a60808201610393565b9560a08201519561ffff871687036103455760609060bf1901126103455760405191606083016001600160401b0381118482101761035c5760405260c0810151835260e08101519063ffffffff821682036103455761010091602085015201516040830152805f5560405191604083019083821060018060401b0383111761035c57600392604092835260018552602085019182525f526001602052815f209351151560ff8019865416911617845551805160018501556002840163ffffffff60208301511663ffffffff198254161790550151910155306080524660a05260a0604051610149604082610370565b600c815260208101906b5269667445786368616e676560a01b825260405191610173604084610370565b60058352602083019164302e302e3160d81b8352519020915190208160c0528060e052604051917f8b73c3c69bb8fe3d512ecc4cf759cc79239f7b179b0ffacaa9a75d522b39400f835260208301526040820152466060820152306080820152206101005233638b78c6d81955335f7f8be0079c531659141344cd1fd0a4f28419497f9722a3daafe3b4186f6b6457e08180a360405163313ce56760e01b81526020816004816001600160a01b0386165afa908115610351575f91610310575b5060ff60089116036103015761012052610140526001600160a01b0390811661016052600580546001600160b01b031916939091169290921760a09190911b61ffff60a01b16179055604051612f3790816103a88239608051816129d7015260a051816129fa015260c05181612b07015260e05181612b2d015261010051816129b601526101205181818161025e0152818161078201528181610cf8015281816111120152612c2601526101405181818161090b0152611a740152610160518181816112eb01526119c30152f35b6309d575ed60e41b5f5260045ffd5b90506020813d602011610349575b8161032b60209383610370565b81010312610345575160ff811681036103455760ff610233565b5f80fd5b3d915061031e565b6040513d5f823e3d90fd5b634e487b7160e01b5f52604160045260245ffd5b601f909101601f19168101906001600160401b0382119082101761035c57604052565b51906001600160a01b03821682036103455756fe60806040526004361015610011575f80fd5b5f3560e01c806302977414146114a257806303af626a1461148557806307a2ec521461131a57806308c84e70146112d65780631cbeebeb146112995780632569296214611250578063298842fb14611232578063333f871a146112095780634276994614611169578063428f29b814611141578063473d175d146110fd5780635377d5ee146110ba57806354d1f13d1461107657806357c9b72c1461105b5780635861af0014610c88578063592b664914610b67578063640179d814610ae857806365e99ad814610acb578063715018a614610a825780637c2301a614610a0557806384b0196e1461092e5780638d5ca052146108f45780638da5cb5b146108c85780639a73f4f5146108a4578063a47f96cc14610888578063a657fbea1461086a578063c190c1641461062e578063ca18100d14610611578063d21ddc61146105f5578063e16ddab314610476578063e58e0fe31461042e578063e5e78e02146103f6578063eb5e91ff14610393578063eb9ecdd1146102de578063f04e283e14610291578063f23a94a91461022e578063f2fde38b146101f15763fee81cf4146101bb575f80fd5b346101ed5760203660031901126101ed576101d46117e4565b63389a75e1600c525f52602080600c2054604051908152f35b5f80fd5b60203660031901126101ed576102056117e4565b61020d612553565b8060601b156102215761021f90612cd7565b005b637448fbae5f526004601cfd5b346101ed575f3660031901126101ed576004548015610282575f60045560055461021f91906001600160a01b03167f00000000000000000000000000000000000000000000000000000000000000006126cc565b630fbcad4560e21b5f5260045ffd5b60203660031901126101ed576102a56117e4565b6102ad612553565b63389a75e1600c52805f526020600c2090815442116102d1575f61021f9255612cd7565b636f5e88185f526004601cfd5b346101ed5760203660031901126101ed576004356001600160401b0381116101ed578036036101a06003198201126101ed576024820161031d816125ac565b50608483013561038457359160048101359161018219018212156101ed5782610377610356602095600461035f9661037c960101612860565b948591936117b7565b90919082549060031b91821b915f19901b1916179055565b612bb3565b604051908152f35b630faaae6760e31b5f5260045ffd5b346101ed5760203660031901126101ed576004355f526001602052608060405f206103f46103c8600160ff8454169301611832565b60405192151583526020830190604080918051845263ffffffff60208201511660208501520151910152565bf35b346101ed5760203660031901126101ed576004356002548110156101ed5761041f6020916117b7565b90549060031b1c604051908152f35b346101ed5760203660031901126101ed5760043561ffff811681036101ed57610455612553565b6005805461ffff60a01b191660a09290921b61ffff60a01b16919091179055005b346101ed5760803660031901126101ed576004356001600160401b0381116101ed576104a69036906004016115fc565b602435906001600160401b0382116101ed57816004019260c060031984360301126101ed576044356001600160401b0381116101ed576104ea90369060040161162c565b90926064356001600160401b0381116101ed5761050b90369060040161165d565b949093873593602488013592606489019460448a019961052b8b8d611fde565b610535368a61174b565b9161054192898c61271d565b60840161054d90612055565b9361055794612086565b966105629198611fde565b369061056d92612010565b8051906020012090604051936105828561168a565b845260208401526040830152366105989161174b565b6060820152604051936105aa856116a5565b60028552602085015260408401526105c1926119b8565b6040516105cf819282611902565b037fdc0391168b5903ca02f8020523ba62927809fd9d25baf94fcb8bb339e0c8f73191a1005b346101ed575f3660031901126101ed5760205f54604051908152f35b346101ed575f3660031901126101ed576020600454604051908152f35b346101ed57366003190161018081126101ed576106496125e9565b50606435801561085b57604435916001600160401b0383168084036101ed57421061084c57610180136101ed5760405191610683836116dc565b60043583526024356001600160401b03811681036101ed5760208401526040830152606082019080825260843591608084019280845260a4356001600160401b03811681036101ed5760a086015260c43566ffffffffffffff19811681036101ed5760c086015260e4356001600160a01b03811681036101ed5760e086015261010435926001600160a01b03841684036101ed5783610100870152610124356101208701526101443560ff811681036101ed5761014087015261016435926001600160401b03841684036101ed576107a6955f809261077f966101608b0152525261077a61077087612682565b61035f88516117b7565b611f17565b907f00000000000000000000000000000000000000000000000000000000000000006126cc565b6107ae611ca6565b906107b882611e5b565b526107c281611e5b565b50604051604081016040825282518091526020606083019301905f5b81811061082b57505050807fbcf83654bbe8d2d5a003763444fb50a895b7721b0239dcd314d345f8a3cdfb1992600160208301520390a1005b634e487b7160e01b5f52602160045260245ffd5b9091936020610180826108416001948951611f38565b0195019291016107de565b6301b512a960e21b5f5260045ffd5b637941e9ad60e01b5f5260045ffd5b346101ed5760203660031901126101ed57602061041f6004356117b7565b346101ed575f3660031901126101ed5760206040516103e88152f35b346101ed575f3660031901126101ed57602061ffff60055460a01c16604051908152f35b346101ed575f3660031901126101ed57638b78c6d819546040516001600160a01b039091168152602090f35b346101ed575f3660031901126101ed5760206040517f00000000000000000000000000000000000000000000000000000000000000008152f35b346101ed575f3660031901126101ed576109a760406109b48151916109538184611713565b600c83526b5269667445786368616e676560a01b602084015280516109788282611713565b6005815264302e302e3160d81b60208201528151948594600f60f81b865260e0602087015260e086019061180e565b918483039085015261180e565b4660608301523060808301525f60a083015281810360c083015260206060519182815201906080905f5b8181106109ec575050500390f35b82518452859450602093840193909201916001016109de565b346101ed5760c03660031901126101ed57610a7e604051610a258161168a565b600435815260243560208201526044356040820152610a4536606461174b565b6060820152610a5b604051916020830190611952565b60c08152610a6a60e082611713565b60405191829160208352602083019061180e565b0390f35b5f3660031901126101ed57610a95612553565b5f638b78c6d819547f8be0079c531659141344cd1fd0a4f28419497f9722a3daafe3b4186f6b6457e08280a35f638b78c6d81955005b346101ed575f3660031901126101ed576020600254604051908152f35b346101ed5760203660031901126101ed576004356001600160401b0381116101ed5761018060031982360301126101ed57600254610b2891600401612860565b600254600160401b811015610b53576020926103778361035f84600161037c960160025560026117cf565b634e487b7160e01b5f52604160045260245ffd5b346101ed5760403660031901126101ed576004356001600160401b0381116101ed57806004019060c060031982360301126101ed576024356001600160401b0381116101ed57610bbb90369060040161165d565b9160448101610bd4610bcd8287611fde565b3691612010565b60208151910120610c05610bf387359360646024870135960198611fde565b90610bfe368a61174b565b868661271d565b60405192610c14602085611713565b5f84525f805b818110610c7157505095610c4c9161021f9760405194610c398661168a565b855260208501526040840152369061174b565b606082015260405191610c5e836116a5565b60018352602083015260408201526119b8565b602090610c7c611ba3565b82828901015201610c1a565b346101ed5760203660031901126101ed576004356001600160401b0381116101ed57610cb89036906004016115fc565b90610cc282611bc1565b90610ccc83611734565b92610cda6040519485611713565b808452601f19610ce982611734565b015f5b8181106110445750505f7f0000000000000000000000000000000000000000000000000000000000000000905b828110610e0a578585604051604081016040825282518091526020606083019301905f5b818110610de957505050807fdc0391168b5903ca02f8020523ba62927809fd9d25baf94fcb8bb339e0c8f73192600160208301520390a1604051604081016040825282518091526020606083019301905f5b818110610dc857505050807fbcf83654bbe8d2d5a003763444fb50a895b7721b0239dcd314d345f8a3cdfb1992600260208301520390a1005b909193602061018082610dde6001948951611f38565b019501929101610d8f565b909193602061016082610dff600194895161186a565b019501929101610d3d565b610e1d610e18828587611ce6565b61256f565b50610140610e2c828587611ce6565b013560038110156101ed57600190610e4381611860565b03611035576001600160401b03610e6660c0610e60848789611ce6565b01611d09565b16421061102657610e846101a0610e7e838688611ce6565b016125ac565b6020610e91838688611ce6565b013581036110025750600190610f0c610eb7366040610eb185898b611ce6565b0161174b565b8587610ed2610ec7868484611ce6565b610160810190611d1d565b9060ff610f0560a0610eff8a610ef7610eec828b8b611ce6565b610180810190611d1d565b999098611ce6565b01611d52565b1694612604565b610f24366101a0610f1e84888a611ce6565b01611d82565b5f60608201525f6080820152610f46610f3c82612682565b61035f83516117b7565b610f508289611e68565b52610f5b8188611e68565b50610f7036610f6b838789611ce6565b611e7c565b6002610100820152610f98610f84826126aa565b61035f610f9285898b611ce6565b3561178b565b610fb3610120610fa984888a611ce6565b0135600454611f17565b600455610fe6610fcf60e0610fc985898b611ce6565b01611f24565b610100610fdd85898b611ce6565b013590866126cc565b610ff08288611e68565b52610ffb8187611e68565b5001610d19565b602061100f838688611ce6565b013563046aaf4f60e51b5f5260045260245260445ffd5b632d5c37f560e21b5f5260045ffd5b6322fc5d4360e21b5f5260045ffd5b60209061104f611c4e565b82828901015201610cec565b346101ed575f3660031901126101ed57602060405160028152f35b5f3660031901126101ed5763389a75e1600c52335f525f6020600c2055337ffa7b8eab7da67f412cc9575ed43464468f9bfbae89d1675917346ca6d8fe3c925f80a2005b346101ed5760203660031901126101ed576110d36117e4565b6110db612553565b600580546001600160a01b0319166001600160a01b0392909216919091179055005b346101ed575f3660031901126101ed576040517f00000000000000000000000000000000000000000000000000000000000000006001600160a01b03168152602090f35b346101ed575f3660031901126101ed576005546040516001600160a01b039091168152602090f35b346101ed57366003190160a081126101ed576060136101ed5760405161118e816116a5565b600435815260243563ffffffff811681036101ed57602082015260443560408201526064356001600160401b0381116101ed576111cf9036906004016115fc565b9190608435916001600160401b0383116101ed576020936111f76111ff9436906004016115fc565b939092611b13565b6040519015158152f35b346101ed5760203660031901126101ed576004356003548110156101ed5761041f60209161178b565b346101ed5760203660031901126101ed57602061041f60043561178b565b5f3660031901126101ed5763389a75e1600c52335f526202a30042016020600c2055337fdbf36a107da19e49527a7176a1babf963b4b0ff8cde35ee35d6cd8f1f9ac7e1d5f80a2005b346101ed575f3660031901126101ed5760206112c85f545f52600160205263ffffffff600260405f2001541690565b63ffffffff60405191168152f35b346101ed575f3660031901126101ed576040517f00000000000000000000000000000000000000000000000000000000000000006001600160a01b03168152602090f35b346101ed5760403660031901126101ed576004356001600160401b0381116101ed57803603906101006003198301126101ed576040519161135a836116a5565b816004013560038110156101ed57835260248201356001600160401b0381116101ed578201366023820112156101ed57600481013561139881611734565b916113a66040519384611713565b818352602060046060828601940283010101903682116101ed57602401915b81831061144957505050602084015260c0604319909101126101ed57611416604051916113f18361168a565b60448101358352606481013560208401526084810135604084015260a436910161174b565b60608201526040820152602435906001600160401b0382116101ed5761144361021f92369060040161165d565b916119b8565b6060833603126101ed576020606091604051611464816116a5565b853581528286013583820152604086013560408201528152019201916113c5565b346101ed575f3660031901126101ed576020600354604051908152f35b346101ed5760603660031901126101ed576004356001600160401b0381116101ed576114d29036906004016115fc565b906024356001600160401b0381116101ed576114f290369060040161162c565b9190604435936001600160401b0385116101ed576115656115f7946115eb936115407fdc0391168b5903ca02f8020523ba62927809fd9d25baf94fcb8bb339e0c8f73198369060040161165d565b9490966115605f545f52600160205263ffffffff600260405f2001541690565b612086565b6040949194516115748161168a565b5f81525f60208201525f6040820152606061158d611ba3565b91015260405161159c816116a5565b5f81525f60208201525f6040820152604051906115b88261168a565b5f82525f60208301525f60408301526060820152604051916115d9836116a5565b5f8352602083015260408201526119b8565b60405191829182611902565b0390a1005b9181601f840112156101ed578235916001600160401b0383116101ed576020808501948460051b0101116101ed57565b9181601f840112156101ed578235916001600160401b0383116101ed5760208085019461016085020101116101ed57565b9181601f840112156101ed578235916001600160401b0383116101ed57602083818601950101116101ed57565b608081019081106001600160401b03821117610b5357604052565b606081019081106001600160401b03821117610b5357604052565b61012081019081106001600160401b03821117610b5357604052565b61018081019081106001600160401b03821117610b5357604052565b604081019081106001600160401b03821117610b5357604052565b90601f801991011681019081106001600160401b03821117610b5357604052565b6001600160401b038111610b535760051b60200190565b91908260609103126101ed57604051611763816116a5565b809280358252602081013563ffffffff811681036101ed576020830152604090810135910152565b6003548110156117a35760035f5260205f2001905f90565b634e487b7160e01b5f52603260045260245ffd5b6002548110156117a35760025f5260205f2001905f90565b80548210156117a3575f5260205f2001905f90565b600435906001600160a01b03821682036101ed57565b35906001600160a01b03821682036101ed57565b805180835260209291819084018484015e5f828201840152601f01601f1916010190565b9060405161183f816116a5565b6040600282948054845263ffffffff60018201541660208501520154910152565b6003111561081757565b80518252602080820151818401526040808301518051828601529182015163ffffffff16606085015201516080830152610140906101009060ff60608201511660a08501526001600160401b0360808201511660c085015260018060a01b0360a08201511660e085015260c08101518285015260e08101516101208501520151916118f483611860565b0152565b6002111561081757565b9190604083016040845281518091526020606085019201905f5b8181106119315750919391505060205f910152565b909192602061016082611947600194885161186a565b01940192910161191c565b90606080611996938051845260208101516020850152604081015160408501520151910190604080918051845263ffffffff60208201511660208501520151910152565b565b908060209392818452848401375f828201840152601f01601f1916010190565b909160018060a01b037f0000000000000000000000000000000000000000000000000000000000000000166040519260208085015283610140810182516119fe81611860565b604083015260208301519061010060608401528151809152602061016084019201905f5b818110611ae157505050611a416040611a4f9401516080840190611952565b03601f198101855284611713565b803b156101ed57611aa95f93611abb6040519687958694859463020a49e360e51b86527f0000000000000000000000000000000000000000000000000000000000000000600487015260606024870152606486019061180e565b84810360031901604486015291611998565b03915afa8015611ad657611acc5750565b5f61199691611713565b6040513d5f823e3d90fd5b919493509160206060600192604088518051835284810151858401520151604082015201950191019187939492611a22565b929390919363ffffffff611b4a85516020870196604084895116910151919091606092604051928352602083015260408201522090565b94511694600163ffffffff611b725f545f52600160205263ffffffff600260405f2001541690565b16019363ffffffff8511611b8f57611b8c965f5496612484565b90565b634e487b7160e01b5f52601160045260245ffd5b60405190611bb0826116a5565b5f6040838281528260208201520152565b90611bcb82611734565b611bd86040519182611713565b8281528092611be9601f1991611734565b01905f5b828110611bf957505050565b602090604051611c08816116c0565b5f81525f83820152611c18611ba3565b60408201525f60608201525f60808201525f60a08201525f60c08201525f60e08201525f61010082015282828501015201611bed565b60405190611c5b826116dc565b5f610160838281528260208201528260408201528260608201528260808201528260a08201528260c08201528260e08201528261010082015282610120820152826101408201520152565b60408051909190611cb78382611713565b6001815291601f1901825f5b828110611ccf57505050565b602090611cda611c4e565b82828501015201611cc3565b91908110156117a35760051b8101359061033e19813603018212156101ed570190565b356001600160401b03811681036101ed5790565b903590601e19813603018212156101ed57018035906001600160401b0382116101ed57602001918160051b360383136101ed57565b3560ff811681036101ed5790565b35906001600160401b03821682036101ed57565b359060ff821682036101ed57565b9190826101809103126101ed57604051611d9b816116dc565b809280358252611dad60208201611d60565b6020830152611dbe60408201611d60565b60408301526060810135606083015260808101356080830152611de360a08201611d60565b60a083015260c08101359066ffffffffffffff19821682036101ed57610160611e5691819360c0860152611e1960e082016117fa565b60e0860152611e2b61010082016117fa565b610100860152610120810135610120860152611e4a6101408201611d74565b61014086015201611d60565b910152565b8051156117a35760200190565b80518210156117a35760209160051b010190565b919091610160818403126101ed5761014060405191611e9a836116c0565b611eb6839582358552602083013560208601526040830161174b565b6040840152611ec760a08201611d74565b6060840152611ed860c08201611d60565b6080840152611ee960e082016117fa565b60a084015261010081013560c084015261012081013560e084015201359060038210156101ed576101000152565b91908201809211611b8f57565b356001600160a01b03811681036101ed5790565b6001600160401b0361016080928051855282602082015116602086015282604082015116604086015260608101516060860152608081015160808601528260a08201511660a086015266ffffffffffffff1960c08201511660c086015260018060a01b0360e08201511660e086015260018060a01b036101008201511661010086015261012081015161012086015260ff61014082015116610140860152015116910152565b903590601e19813603018212156101ed57018035906001600160401b0382116101ed576020019181360383136101ed57565b9291926001600160401b038211610b535760405191612039601f8201601f191660200184611713565b8294818452818301116101ed578281602093845f960137010152565b3563ffffffff811681036101ed5790565b3561ffff811681036101ed5790565b91908110156117a357610160020190565b949091939284156124655761209a85611734565b956120a86040519788611713565b858752601f196120b787611734565b015f5b81811061244e57505086906120ce87611bc1565b91600354945f5b898110156124415786908060051b89013561027e198a3603018112156101ed576101a0818b010135600281101593846101ed578b8f8b8f612115866118f8565b8561239457505050505f198b14611b8f5760018f9b019a5b8c61213c6020868301016125ac565b91612178876101e08885010192604051612155816116a5565b898601358152843560208201528660408201526121728383611e68565b52611e68565b506001600160401b036121ea610180886121e2866121dd87846121a2848201610240810190611d1d565b6101606121b9610260858995990101858501611d1d565b94909301019560ff6121d56121cd89611d52565b96369061174b565b951694612604565b611d52565b950101611d09565b1663ffffffff8c16036001600160401b038111611b8f576001600160401b03166085026001600160401b038116908103611b8f5761e3b3016001600160401b038111611b8f576001600160401b036103e88161012c9316041601916001600160401b038311611b8f578f9260ff9261227f6101008a6001600160401b036122768161229b971642611f17565b16970101611f24565b956040519761228d896116c0565b88526020880152369061174b565b6040860152166060840152608083015260018060a01b031660a08201526080838d01013560c082015260a0838d01013560e082015260016101008201526122e2848a611e68565b526122ed8389611e68565b506123016122fb848a611e68565b516126aa565b936101ed578b918b91612313816118f8565b806123485750505050600354600160401b811015610b535760019261035f8285612342940160035560036117cf565b016120d5565b90600180969392612358816118f8565b14612367575b50505050612342565b61238b9361ffff6123836101c0610f929461035f960101612066565b16908c612075565b895f8a8161235e565b9091929750855f986123a5876118f8565b600187146123b7575b5050505061212d565b016101c001935061014092506123f8916123e390610e18908361ffff6123dc89612066565b1691612075565b5061ffff6123f085612066565b16908d612075565b013560038110156101ed5760029061240f81611860565b03612432576124278f9161ffff8f9161238390612066565b35908a8e858f6123ae565b63a5f611fd60e01b5f5260045ffd5b5096509650509550505050565b602090612459611ba3565b82828c010152016120ba565b6308d98c4f60e01b5f5260045ffd5b91908110156117a35760051b0190565b92919493945f925b80841061250257505050505f905f5b8381106124dc575b5050156124d4576124b391612d14565b9081156124cd5763ffffffff165f5260205260405f201490565b5050505f90565b505050505f90565b816124e8828688612474565b35146124f65760010161249b565b50505060015f806124a3565b9293600183811c9492938116036125355761251e858385612474565b355f52602052600160405f20945b0192919061248c565b612540858385612474565b35905f52602052600160405f209461252c565b638b78c6d81954330361256257565b6382b429005f526004601cfd5b61258d61258461257f3684611e7c565b6126aa565b913560036117cf565b90549060031b1c810361259d5790565b631a40316d60e01b5f5260045ffd5b6125ca6125c16125bc3684611d82565b612682565b913560026117cf565b90549060031b1c81036125da5790565b63cd1d240d60e01b5f5260045ffd5b6125f76125bc366004611d82565b6125ca60043560026117cf565b949391612612939186612d65565b63ffffffff60206126365f545f52600160205263ffffffff600260405f2001541690565b930151169063ffffffff5f1991160163ffffffff8111611b8f5763ffffffff160163ffffffff8111611b8f5763ffffffff80911691161061267357565b630a47293560e31b5f5260045ffd5b604051612693602082018093611f38565b61018081526126a46101a082611713565b51902090565b6040516126bb60208201809361186a565b61016081526126a461018082611713565b919060145260345263a9059cbb60601b5f5260205f6044601082855af1908160015f511416156126ff575b50505f603452565b3b153d171015612710575f806126f7565b6390b8ec185f526004601cfd5b9190925f5480851461284357835f52600160205260405f20612756600160405192612747846116f8565b60ff8154161515845201611832565b60208201525115612834575f526001602052600360405f20015460408301511115612825577f6768baae39ee0e687f7c44f7006a147b15ffb56031969140096fe95461eea2fd9461282092600360408051926127b1846116f8565b6001845260208401908152885f526001602052815f209351151560ff8019865416911617845551805160018501556002840163ffffffff60208301511663ffffffff198254161790550151910155845f5560405194859485526020850152606060408501526060840191611998565b0390a1565b6307800bf560e21b5f5260045ffd5b63e1965c6560e01b5f5260045ffd5b505050505050565b3566ffffffffffffff19811681036101ed5790565b91909161286b611c4e565b5061ffff60055460a01c1690604081013591806127100161ffff8111611b8f5761ffff5f1991160161ffff8111611b8f578115612b9f578161ffff80921604168310612b905760608201926103e86001600160401b036128ca86611d09565b1610612b815760c0830191600260ff6128e285611d52565b1610612b725760808401906128fe6128f98361284b565b612d88565b15612b6357612938612914610140870187611d1d565b90612923610160890189611d1d565b9290916129333660e08c0161174b565b612d65565b808302908382041483151715611b8f5761271090049060ff61295985611d52565b16611c200263ffffffff8116908103611b8f5761297e6001600160401b039142611f17565b1695828403938411611b8f5761299661299c91611d09565b9161284b565b906129a960208701611f24565b926129b387611f24565b947f00000000000000000000000000000000000000000000000000000000000000007f000000000000000000000000000000000000000000000000000000000000000030147f000000000000000000000000000000000000000000000000000000000000000046141615612adc575b6040805191825260a08a0135602083015281018c90526060902096612a4690611d52565b9761010001612a5490612055565b986040519b612a628d6116dc565b8c526001600160401b0342811660208e015260408d019190915260608c019190915260808b01919091521660a089015266ffffffffffffff191660c08801526001600160a01b0390811660e08801521661010086015261012085015260ff1661014084015263ffffffff16610160830152611b8c82612682565b5060a06040517f8b73c3c69bb8fe3d512ecc4cf759cc79239f7b179b0ffacaa9a75d522b39400f81527f000000000000000000000000000000000000000000000000000000000000000060208201527f0000000000000000000000000000000000000000000000000000000000000000604082015246606082015230608082015220612a22565b63fad7db0760e01b5f5260045ffd5b63bdf8f2b360e01b5f5260045ffd5b63fde5943160e01b5f5260045ffd5b6355fcd02760e01b5f5260045ffd5b634e487b7160e01b5f52601260045260245ffd5b612bbb611ca6565b81612bc582611e5b565b52612bcf81611e5b565b50604051604081016040825282518091526020606083019301905f5b818110612cb657505050807fbcf83654bbe8d2d5a003763444fb50a895b7721b0239dcd314d345f8a3cdfb19925f60208301520390a1612c567f0000000000000000000000000000000000000000000000000000000000000000916080606082015191015190611f17565b9060405191606052306040523360601b602c526323b872dd60601b600c5260205f6064601c82855af1908160015f51141615612c98575b50505f606052604052565b3b153d171015612ca9575f80612c8d565b637939f4245f526004601cfd5b909193602061018082612ccc6001948951611f38565b019501929101612beb565b60018060a01b031680638b78c6d819547f8be0079c531659141344cd1fd0a4f28419497f9722a3daafe3b4186f6b6457e05f80a3638b78c6d81955565b8115612d5f575f19820191808311611b8f57612d31838284612474565b3592805b612d3f5750505090565b5f190192612d4e848385612474565b355f526020528260405f2093612d35565b50505f90565b90612d7294939291611b13565b15612d7957565b632814065160e01b5f5260045ffd5b5f81901a60f81b6001600160f81b03191680612de3575069ffffffffffffffffffff19165f81901a60f81b6001600160f81b031916159081612dc8575090565b60011a60f81b6001600160f81b031916600560fa1b14919050565b60a960f81b8103612e5c575068ffffffffffffffffff19165f81901a60f81b6001600160f81b03191660a960f81b149081612e3d575b81612e22575090565b60161a60f81b6001600160f81b031916608760f81b14919050565b600181901a60f81b6001600160f81b031916600560fa1b149150612e19565b603b60f91b149081612e6e5750505f90565b81612ee2575b81612ec3575b81612ea4575b81612e89575090565b60181a60f81b6001600160f81b031916602b60fa1b14919050565b601781901a60f81b6001600160f81b031916601160fb1b149150612e80565b600281901a60f81b6001600160f81b031916600560fa1b149150612e7a565b600181901a60f81b6001600160f81b03191660a960f81b149150612e7456fea2646970667358221220f46acca83709d5463776c010fb6da4b75eb901767c175f2bc436b40355cc052a64736f6c634300081c0033","linkReferences":{}},"methodIdentifiers":{"CIRCUIT_VERIFICATION_KEY()":"8d5ca052","ERC20_BTC()":"473d175d","MIN_CONFIRMATION_BLOCKS()":"57c9b72c","MIN_OUTPUT_SATS()":"a47f96cc","VERIFIER()":"08c84e70","accumulatedFeeBalance()":"ca18100d","adminSetFeeRouterAddress(address)":"5377d5ee","adminSetTakerFeeBips(uint16)":"e58e0fe3","cancelOwnershipHandover()":"54d1f13d","checkpoints(bytes32)":"eb5e91ff","completeOwnershipHandover(address)":"f04e283e","depositLiquidity((address,address,uint256,uint64,bytes25,bytes32,uint8,(bytes32,uint32,uint256),bytes32[],bytes32[]))":"640179d8","depositLiquidityWithOverwrite(((address,address,uint256,uint64,bytes25,bytes32,uint8,(bytes32,uint32,uint256),bytes32[],bytes32[]),(uint256,uint64,uint64,uint256,uint256,uint64,bytes25,address,address,bytes32,uint8,uint64)))":"eb9ecdd1","eip712Domain()":"84b0196e","feeRouterAddress()":"428f29b8","getLightClientHeight()":"1cbeebeb","getSwapHash(uint256)":"298842fb","getSwapHashesLength()":"03af626a","getVaultHash(uint256)":"a657fbea","getVaultHashesLength()":"65e99ad8","mmrRoot()":"d21ddc61","owner()":"8da5cb5b","ownershipHandoverExpiresAt(address)":"fee81cf4","payoutToFeeRouter()":"f23a94a9","proveBlockInclusion((bytes32,uint32,uint256),bytes32[],bytes32[])":"42769946","releaseLiquidityBatch(((uint256,bytes32,(bytes32,uint32,uint256),uint8,uint64,address,uint256,uint256,uint8),bytes32[],bytes32[],(uint256,uint64,uint64,uint256,uint256,uint64,bytes25,address,address,bytes32,uint8,uint64),uint32)[])":"5861af00","renounceOwnership()":"715018a6","requestOwnershipHandover()":"25692962","serializeLightClientPublicInput((bytes32,bytes32,bytes32,(bytes32,uint32,uint256)))":"7c2301a6","submitBatchSwapProof((bytes32,(uint256,uint64,uint64,uint256,uint256,uint64,bytes25,address,address,bytes32,uint8,uint64),uint8,uint16,(bytes32,uint32,uint256),bytes32[],bytes32[])[],(uint256,bytes32,(bytes32,uint32,uint256),uint8,uint64,address,uint256,uint256,uint8)[],bytes)":"02977414","submitBatchSwapProofWithLightClientUpdate((bytes32,(uint256,uint64,uint64,uint256,uint256,uint64,bytes25,address,address,bytes32,uint8,uint64),uint8,uint16,(bytes32,uint32,uint256),bytes32[],bytes32[])[],(bytes32,bytes32,bytes,(bytes32,uint32,uint256)),(uint256,bytes32,(bytes32,uint32,uint256),uint8,uint64,address,uint256,uint256,uint8)[],bytes)":"e16ddab3","swapHashes(uint256)":"333f871a","takerFeeBips()":"9a73f4f5","transferOwnership(address)":"f2fde38b","updateLightClient((bytes32,bytes32,bytes,(bytes32,uint32,uint256)),bytes)":"592b6649","vaultHashes(uint256)":"e5e78e02","verifyZkProof((uint8,(bytes32,bytes32,bytes32)[],(bytes32,bytes32,bytes32,(bytes32,uint32,uint256))),bytes)":"07a2ec52","withdrawLiquidity((uint256,uint64,uint64,uint256,uint256,uint64,bytes25,address,address,bytes32,uint8,uint64))":"c190c164"},"storageLayout":{"storage":[{"astId":42627,"contract":"src/RiftExchange.sol:RiftExchange","label":"mmrRoot","offset":0,"slot":"0","type":"t_bytes32"},{"astId":42632,"contract":"src/RiftExchange.sol:RiftExchange","label":"checkpoints","offset":0,"slot":"1","type":"t_mapping(t_bytes32,t_struct(BitcoinCheckpoint)45179_storage)"},{"astId":42924,"contract":"src/RiftExchange.sol:RiftExchange","label":"vaultHashes","offset":0,"slot":"2","type":"t_array(t_bytes32)dyn_storage"},{"astId":42927,"contract":"src/RiftExchange.sol:RiftExchange","label":"swapHashes","offset":0,"slot":"3","type":"t_array(t_bytes32)dyn_storage"},{"astId":42929,"contract":"src/RiftExchange.sol:RiftExchange","label":"accumulatedFeeBalance","offset":0,"slot":"4","type":"t_uint256"},{"astId":42931,"contract":"src/RiftExchange.sol:RiftExchange","label":"feeRouterAddress","offset":0,"slot":"5","type":"t_address"},{"astId":42933,"contract":"src/RiftExchange.sol:RiftExchange","label":"takerFeeBips","offset":20,"slot":"5","type":"t_uint16"}],"types":{"t_address":{"encoding":"inplace","label":"address","numberOfBytes":"20"},"t_array(t_bytes32)dyn_storage":{"encoding":"dynamic_array","label":"bytes32[]","numberOfBytes":"32","base":"t_bytes32"},"t_bool":{"encoding":"inplace","label":"bool","numberOfBytes":"1"},"t_bytes32":{"encoding":"inplace","label":"bytes32","numberOfBytes":"32"},"t_mapping(t_bytes32,t_struct(BitcoinCheckpoint)45179_storage)":{"encoding":"mapping","key":"t_bytes32","label":"mapping(bytes32 => struct Types.BitcoinCheckpoint)","numberOfBytes":"32","value":"t_struct(BitcoinCheckpoint)45179_storage"},"t_struct(BitcoinCheckpoint)45179_storage":{"encoding":"inplace","label":"struct Types.BitcoinCheckpoint","numberOfBytes":"128","members":[{"astId":45175,"contract":"src/RiftExchange.sol:RiftExchange","label":"established","offset":0,"slot":"0","type":"t_bool"},{"astId":45178,"contract":"src/RiftExchange.sol:RiftExchange","label":"tipBlockLeaf","offset":0,"slot":"1","type":"t_struct(BlockLeaf)44971_storage"}]},"t_struct(BlockLeaf)44971_storage":{"encoding":"inplace","label":"struct Types.BlockLeaf","numberOfBytes":"96","members":[{"astId":44966,"contract":"src/RiftExchange.sol:RiftExchange","label":"blockHash","offset":0,"slot":"0","type":"t_bytes32"},{"astId":44968,"contract":"src/RiftExchange.sol:RiftExchange","label":"height","offset":0,"slot":"1","type":"t_uint32"},{"astId":44970,"contract":"src/RiftExchange.sol:RiftExchange","label":"cumulativeChainwork","offset":0,"slot":"2","type":"t_uint256"}]},"t_uint16":{"encoding":"inplace","label":"uint16","numberOfBytes":"2"},"t_uint256":{"encoding":"inplace","label":"uint256","numberOfBytes":"32"},"t_uint32":{"encoding":"inplace","label":"uint32","numberOfBytes":"4"}}},"id":33}