{"abi":[{"type":"constructor","inputs":[{"name":"_mmrRoot","type":"bytes32","internalType":"bytes32"},{"name":"_depositToken","type":"address","internalType":"address"},{"name":"_circuitVerificationKey","type":"bytes32","internalType":"bytes32"},{"name":"_verifier","type":"address","internalType":"address"},{"name":"_feeRouter","type":"address","internalType":"address"}],"stateMutability":"nonpayable"},{"type":"function","name":"CIRCUIT_VERIFICATION_KEY","inputs":[],"outputs":[{"name":"","type":"bytes32","internalType":"bytes32"}],"stateMutability":"view"},{"type":"function","name":"DEPOSIT_TOKEN","inputs":[],"outputs":[{"name":"","type":"address","internalType":"contract IERC20"}],"stateMutability":"view"},{"type":"function","name":"FEE_ROUTER_ADDRESS","inputs":[],"outputs":[{"name":"","type":"address","internalType":"address"}],"stateMutability":"view"},{"type":"function","name":"TOKEN_DECIMALS","inputs":[],"outputs":[{"name":"","type":"uint8","internalType":"uint8"}],"stateMutability":"view"},{"type":"function","name":"VERIFIER","inputs":[],"outputs":[{"name":"","type":"address","internalType":"contract ISP1Verifier"}],"stateMutability":"view"},{"type":"function","name":"_proveBlockInclusion","inputs":[{"name":"blockLeaf","type":"tuple","internalType":"struct Types.BlockLeaf","components":[{"name":"blockHash","type":"bytes32","internalType":"bytes32"},{"name":"height","type":"uint32","internalType":"uint32"},{"name":"cumulativeChainwork","type":"uint256","internalType":"uint256"}]},{"name":"siblings","type":"bytes32[]","internalType":"bytes32[]"},{"name":"peaks","type":"bytes32[]","internalType":"bytes32[]"},{"name":"tipBlockHeight","type":"uint32","internalType":"uint32"}],"outputs":[{"name":"","type":"bool","internalType":"bool"}],"stateMutability":"view"},{"type":"function","name":"_proveBlockInclusionAtTip","inputs":[{"name":"blockLeaf","type":"tuple","internalType":"struct Types.BlockLeaf","components":[{"name":"blockHash","type":"bytes32","internalType":"bytes32"},{"name":"height","type":"uint32","internalType":"uint32"},{"name":"cumulativeChainwork","type":"uint256","internalType":"uint256"}]},{"name":"siblings","type":"bytes32[]","internalType":"bytes32[]"},{"name":"peaks","type":"bytes32[]","internalType":"bytes32[]"}],"outputs":[{"name":"","type":"bool","internalType":"bool"}],"stateMutability":"view"},{"type":"function","name":"accumulatedFeeBalance","inputs":[],"outputs":[{"name":"","type":"uint256","internalType":"uint256"}],"stateMutability":"view"},{"type":"function","name":"depositLiquidity","inputs":[{"name":"params","type":"tuple","internalType":"struct Types.DepositLiquidityParams","components":[{"name":"depositOwnerAddress","type":"address","internalType":"address"},{"name":"specifiedPayoutAddress","type":"address","internalType":"address"},{"name":"depositAmount","type":"uint256","internalType":"uint256"},{"name":"expectedSats","type":"uint64","internalType":"uint64"},{"name":"btcPayoutScriptPubKey","type":"bytes22","internalType":"bytes22"},{"name":"depositSalt","type":"bytes32","internalType":"bytes32"},{"name":"confirmationBlocks","type":"uint8","internalType":"uint8"},{"name":"tipBlockLeaf","type":"tuple","internalType":"struct Types.BlockLeaf","components":[{"name":"blockHash","type":"bytes32","internalType":"bytes32"},{"name":"height","type":"uint32","internalType":"uint32"},{"name":"cumulativeChainwork","type":"uint256","internalType":"uint256"}]},{"name":"tipBlockSiblings","type":"bytes32[]","internalType":"bytes32[]"},{"name":"tipBlockPeaks","type":"bytes32[]","internalType":"bytes32[]"}]}],"outputs":[],"stateMutability":"nonpayable"},{"type":"function","name":"depositLiquidityWithOverwrite","inputs":[{"name":"params","type":"tuple","internalType":"struct Types.DepositLiquidityWithOverwriteParams","components":[{"name":"depositParams","type":"tuple","internalType":"struct Types.DepositLiquidityParams","components":[{"name":"depositOwnerAddress","type":"address","internalType":"address"},{"name":"specifiedPayoutAddress","type":"address","internalType":"address"},{"name":"depositAmount","type":"uint256","internalType":"uint256"},{"name":"expectedSats","type":"uint64","internalType":"uint64"},{"name":"btcPayoutScriptPubKey","type":"bytes22","internalType":"bytes22"},{"name":"depositSalt","type":"bytes32","internalType":"bytes32"},{"name":"confirmationBlocks","type":"uint8","internalType":"uint8"},{"name":"tipBlockLeaf","type":"tuple","internalType":"struct Types.BlockLeaf","components":[{"name":"blockHash","type":"bytes32","internalType":"bytes32"},{"name":"height","type":"uint32","internalType":"uint32"},{"name":"cumulativeChainwork","type":"uint256","internalType":"uint256"}]},{"name":"tipBlockSiblings","type":"bytes32[]","internalType":"bytes32[]"},{"name":"tipBlockPeaks","type":"bytes32[]","internalType":"bytes32[]"}]},{"name":"overwriteVault","type":"tuple","internalType":"struct Types.DepositVault","components":[{"name":"vaultIndex","type":"uint256","internalType":"uint256"},{"name":"depositTimestamp","type":"uint64","internalType":"uint64"},{"name":"depositAmount","type":"uint256","internalType":"uint256"},{"name":"depositFee","type":"uint256","internalType":"uint256"},{"name":"expectedSats","type":"uint64","internalType":"uint64"},{"name":"btcPayoutScriptPubKey","type":"bytes22","internalType":"bytes22"},{"name":"specifiedPayoutAddress","type":"address","internalType":"address"},{"name":"ownerAddress","type":"address","internalType":"address"},{"name":"salt","type":"bytes32","internalType":"bytes32"},{"name":"confirmationBlocks","type":"uint8","internalType":"uint8"},{"name":"attestedBitcoinBlockHeight","type":"uint64","internalType":"uint64"}]}]}],"outputs":[],"stateMutability":"nonpayable"},{"type":"function","name":"getSwapCommitment","inputs":[{"name":"swapIndex","type":"uint256","internalType":"uint256"}],"outputs":[{"name":"","type":"bytes32","internalType":"bytes32"}],"stateMutability":"view"},{"type":"function","name":"getSwapCommitmentsLength","inputs":[],"outputs":[{"name":"","type":"uint256","internalType":"uint256"}],"stateMutability":"view"},{"type":"function","name":"getVaultCommitment","inputs":[{"name":"vaultIndex","type":"uint256","internalType":"uint256"}],"outputs":[{"name":"","type":"bytes32","internalType":"bytes32"}],"stateMutability":"view"},{"type":"function","name":"getVaultCommitmentsLength","inputs":[],"outputs":[{"name":"","type":"uint256","internalType":"uint256"}],"stateMutability":"view"},{"type":"function","name":"mmrRoot","inputs":[],"outputs":[{"name":"","type":"bytes32","internalType":"bytes32"}],"stateMutability":"view"},{"type":"function","name":"payoutToFeeRouter","inputs":[],"outputs":[],"stateMutability":"nonpayable"},{"type":"function","name":"releaseLiquidity","inputs":[{"name":"params","type":"tuple","internalType":"struct Types.ReleaseLiquidityParams","components":[{"name":"swap","type":"tuple","internalType":"struct Types.ProposedSwap","components":[{"name":"swapIndex","type":"uint256","internalType":"uint256"},{"name":"depositVaultCommitment","type":"bytes32","internalType":"bytes32"},{"name":"swapBitcoinBlockHash","type":"bytes32","internalType":"bytes32"},{"name":"confirmationBlocks","type":"uint8","internalType":"uint8"},{"name":"liquidityUnlockTimestamp","type":"uint64","internalType":"uint64"},{"name":"specifiedPayoutAddress","type":"address","internalType":"address"},{"name":"totalSwapFee","type":"uint256","internalType":"uint256"},{"name":"totalSwapOutput","type":"uint256","internalType":"uint256"},{"name":"state","type":"uint8","internalType":"enum Types.SwapState"}]},{"name":"swapBlockChainwork","type":"uint256","internalType":"uint256"},{"name":"swapBlockHeight","type":"uint32","internalType":"uint32"},{"name":"bitcoinSwapBlockSiblings","type":"bytes32[]","internalType":"bytes32[]"},{"name":"bitcoinSwapBlockPeaks","type":"bytes32[]","internalType":"bytes32[]"},{"name":"bitcoinConfirmationBlockLeaf","type":"tuple","internalType":"struct Types.BlockLeaf","components":[{"name":"blockHash","type":"bytes32","internalType":"bytes32"},{"name":"height","type":"uint32","internalType":"uint32"},{"name":"cumulativeChainwork","type":"uint256","internalType":"uint256"}]},{"name":"bitcoinConfirmationBlockSiblings","type":"bytes32[]","internalType":"bytes32[]"},{"name":"bitcoinConfirmationBlockPeaks","type":"bytes32[]","internalType":"bytes32[]"},{"name":"utilizedVault","type":"tuple","internalType":"struct Types.DepositVault","components":[{"name":"vaultIndex","type":"uint256","internalType":"uint256"},{"name":"depositTimestamp","type":"uint64","internalType":"uint64"},{"name":"depositAmount","type":"uint256","internalType":"uint256"},{"name":"depositFee","type":"uint256","internalType":"uint256"},{"name":"expectedSats","type":"uint64","internalType":"uint64"},{"name":"btcPayoutScriptPubKey","type":"bytes22","internalType":"bytes22"},{"name":"specifiedPayoutAddress","type":"address","internalType":"address"},{"name":"ownerAddress","type":"address","internalType":"address"},{"name":"salt","type":"bytes32","internalType":"bytes32"},{"name":"confirmationBlocks","type":"uint8","internalType":"uint8"},{"name":"attestedBitcoinBlockHeight","type":"uint64","internalType":"uint64"}]},{"name":"tipBlockHeight","type":"uint32","internalType":"uint32"}]}],"outputs":[],"stateMutability":"nonpayable"},{"type":"function","name":"submitBatchSwapProof","inputs":[{"name":"swapParams","type":"tuple[]","internalType":"struct Types.SubmitSwapProofParams[]","components":[{"name":"swapBitcoinTxid","type":"bytes32","internalType":"bytes32"},{"name":"swapBitcoinBlockHash","type":"bytes32","internalType":"bytes32"},{"name":"vault","type":"tuple","internalType":"struct Types.DepositVault","components":[{"name":"vaultIndex","type":"uint256","internalType":"uint256"},{"name":"depositTimestamp","type":"uint64","internalType":"uint64"},{"name":"depositAmount","type":"uint256","internalType":"uint256"},{"name":"depositFee","type":"uint256","internalType":"uint256"},{"name":"expectedSats","type":"uint64","internalType":"uint64"},{"name":"btcPayoutScriptPubKey","type":"bytes22","internalType":"bytes22"},{"name":"specifiedPayoutAddress","type":"address","internalType":"address"},{"name":"ownerAddress","type":"address","internalType":"address"},{"name":"salt","type":"bytes32","internalType":"bytes32"},{"name":"confirmationBlocks","type":"uint8","internalType":"uint8"},{"name":"attestedBitcoinBlockHeight","type":"uint64","internalType":"uint64"}]},{"name":"storageStrategy","type":"uint8","internalType":"enum Types.StorageStrategy"},{"name":"localOverwriteIndex","type":"uint16","internalType":"uint16"}]},{"name":"blockProofParams","type":"tuple","internalType":"struct Types.BlockProofParams","components":[{"name":"priorMmrRoot","type":"bytes32","internalType":"bytes32"},{"name":"newMmrRoot","type":"bytes32","internalType":"bytes32"},{"name":"compressedBlockLeaves","type":"bytes","internalType":"bytes"},{"name":"tipBlockLeaf","type":"tuple","internalType":"struct Types.BlockLeaf","components":[{"name":"blockHash","type":"bytes32","internalType":"bytes32"},{"name":"height","type":"uint32","internalType":"uint32"},{"name":"cumulativeChainwork","type":"uint256","internalType":"uint256"}]},{"name":"tipBlockSiblings","type":"bytes32[]","internalType":"bytes32[]"},{"name":"tipBlockPeaks","type":"bytes32[]","internalType":"bytes32[]"}]},{"name":"overwriteSwaps","type":"tuple[]","internalType":"struct Types.ProposedSwap[]","components":[{"name":"swapIndex","type":"uint256","internalType":"uint256"},{"name":"depositVaultCommitment","type":"bytes32","internalType":"bytes32"},{"name":"swapBitcoinBlockHash","type":"bytes32","internalType":"bytes32"},{"name":"confirmationBlocks","type":"uint8","internalType":"uint8"},{"name":"liquidityUnlockTimestamp","type":"uint64","internalType":"uint64"},{"name":"specifiedPayoutAddress","type":"address","internalType":"address"},{"name":"totalSwapFee","type":"uint256","internalType":"uint256"},{"name":"totalSwapOutput","type":"uint256","internalType":"uint256"},{"name":"state","type":"uint8","internalType":"enum Types.SwapState"}]},{"name":"proof","type":"bytes","internalType":"bytes"}],"outputs":[],"stateMutability":"nonpayable"},{"type":"function","name":"swapCommitments","inputs":[{"name":"","type":"uint256","internalType":"uint256"}],"outputs":[{"name":"","type":"bytes32","internalType":"bytes32"}],"stateMutability":"view"},{"type":"function","name":"vaultCommitments","inputs":[{"name":"","type":"uint256","internalType":"uint256"}],"outputs":[{"name":"","type":"bytes32","internalType":"bytes32"}],"stateMutability":"view"},{"type":"function","name":"withdrawLiquidity","inputs":[{"name":"vault","type":"tuple","internalType":"struct Types.DepositVault","components":[{"name":"vaultIndex","type":"uint256","internalType":"uint256"},{"name":"depositTimestamp","type":"uint64","internalType":"uint64"},{"name":"depositAmount","type":"uint256","internalType":"uint256"},{"name":"depositFee","type":"uint256","internalType":"uint256"},{"name":"expectedSats","type":"uint64","internalType":"uint64"},{"name":"btcPayoutScriptPubKey","type":"bytes22","internalType":"bytes22"},{"name":"specifiedPayoutAddress","type":"address","internalType":"address"},{"name":"ownerAddress","type":"address","internalType":"address"},{"name":"salt","type":"bytes32","internalType":"bytes32"},{"name":"confirmationBlocks","type":"uint8","internalType":"uint8"},{"name":"attestedBitcoinBlockHeight","type":"uint64","internalType":"uint64"}]}],"outputs":[],"stateMutability":"nonpayable"},{"type":"event","name":"BlockTreeUpdated","inputs":[{"name":"treeRoot","type":"bytes32","indexed":false,"internalType":"bytes32"},{"name":"compressedBlockLeaves","type":"bytes","indexed":false,"internalType":"bytes"}],"anonymous":false},{"type":"event","name":"SwapsUpdated","inputs":[{"name":"swaps","type":"tuple[]","indexed":false,"internalType":"struct Types.ProposedSwap[]","components":[{"name":"swapIndex","type":"uint256","internalType":"uint256"},{"name":"depositVaultCommitment","type":"bytes32","internalType":"bytes32"},{"name":"swapBitcoinBlockHash","type":"bytes32","internalType":"bytes32"},{"name":"confirmationBlocks","type":"uint8","internalType":"uint8"},{"name":"liquidityUnlockTimestamp","type":"uint64","internalType":"uint64"},{"name":"specifiedPayoutAddress","type":"address","internalType":"address"},{"name":"totalSwapFee","type":"uint256","internalType":"uint256"},{"name":"totalSwapOutput","type":"uint256","internalType":"uint256"},{"name":"state","type":"uint8","internalType":"enum Types.SwapState"}]},{"name":"context","type":"uint8","indexed":false,"internalType":"enum Types.SwapUpdateContext"}],"anonymous":false},{"type":"event","name":"VaultUpdated","inputs":[{"name":"vault","type":"tuple","indexed":false,"internalType":"struct Types.DepositVault","components":[{"name":"vaultIndex","type":"uint256","internalType":"uint256"},{"name":"depositTimestamp","type":"uint64","internalType":"uint64"},{"name":"depositAmount","type":"uint256","internalType":"uint256"},{"name":"depositFee","type":"uint256","internalType":"uint256"},{"name":"expectedSats","type":"uint64","internalType":"uint64"},{"name":"btcPayoutScriptPubKey","type":"bytes22","internalType":"bytes22"},{"name":"specifiedPayoutAddress","type":"address","internalType":"address"},{"name":"ownerAddress","type":"address","internalType":"address"},{"name":"salt","type":"bytes32","internalType":"bytes32"},{"name":"confirmationBlocks","type":"uint8","internalType":"uint8"},{"name":"attestedBitcoinBlockHeight","type":"uint64","internalType":"uint64"}]},{"name":"context","type":"uint8","indexed":false,"internalType":"enum Types.VaultUpdateContext"}],"anonymous":false},{"type":"error","name":"CannotOverwriteOngoingSwap","inputs":[]},{"type":"error","name":"DepositAmountTooLow","inputs":[]},{"type":"error","name":"DepositStillLocked","inputs":[]},{"type":"error","name":"DepositVaultDoesNotExist","inputs":[]},{"type":"error","name":"DepositVaultNotOverwritable","inputs":[]},{"type":"error","name":"EmptyDepositVault","inputs":[]},{"type":"error","name":"InvalidConfirmationBlockDelta","inputs":[]},{"type":"error","name":"InvalidConfirmationBlockInclusionProof","inputs":[]},{"type":"error","name":"InvalidScriptPubKey","inputs":[]},{"type":"error","name":"InvalidSwapBlockInclusionProof","inputs":[]},{"type":"error","name":"InvalidTipBlockInclusionProof","inputs":[]},{"type":"error","name":"InvalidVaultCommitment","inputs":[]},{"type":"error","name":"NoFeeToPay","inputs":[]},{"type":"error","name":"SatOutputTooLow","inputs":[]},{"type":"error","name":"StillInChallengePeriod","inputs":[]},{"type":"error","name":"SwapDoesNotExist","inputs":[]},{"type":"error","name":"SwapNotProved","inputs":[]},{"type":"error","name":"TransferFailed","inputs":[]}],"bytecode":{"object":"0x61012080604052346101495760a0816123ad80380380916100208285610160565b8339810103126101495780519061003960208201610197565b6004602060408401519261005b608061005460608801610197565b9601610197565b5f969096556001600160a01b0316608081905260405163313ce56760e01b815292839182905afa908115610155575f91610115575b5060a05260c0526001600160a01b031660e0526101005260405161220190816101ac8239608051818181610195015281816111d9015281816114bb015281816115880152611f9a015260a0518161052b015260c05181818161048a0152610c0d015260e051818181610b0a01526115c901526101005181818161015b01526104c30152f35b90506020813d60201161014d575b8161013060209383610160565b81010312610149575160ff81168103610149575f610090565b5f80fd5b3d9150610123565b6040513d5f823e3d90fd5b601f909101601f19168101906001600160401b0382119082101761018357604052565b634e487b7160e01b5f52604160045260245ffd5b51906001600160a01b03821682036101495756fe6080806040526004361015610012575f80fd5b5f905f3560e01c90816308c84e70146115b75750806313f665871461157357806316a6db20146113245780632e2d2dde14610ec157806334abb156146105d2578063365df233146105a757806348678e061461054f5780635b7f415c146105115780637ed34a36146104f2578063898aeacb146104ad5780638d5ca05214610472578063992284a6146104545780639f63bd9714610435578063a6a0f96e146103fb578063ca18100d146103dd578063d21ddc61146103c0578063d6d5145914610338578063d9c2328f146102cd578063e78aa9d51461022e578063f23a94a9146101255763f5095c1614610105575f80fd5b346101225780600319360112610122576020600154604051908152f35b80fd5b5034610122578060031936011261012257600354801561021f57600382905560405163a9059cbb60e01b81526001600160a01b037f0000000000000000000000000000000000000000000000000000000000000000166004820152602481019190915260208180604481010381857f00000000000000000000000000000000000000000000000000000000000000006001600160a01b03165af19081156102145782916101e5575b50156101d65780f35b6312171d8360e31b8152600490fd5b610207915060203d60201161020d575b6101ff81836116d8565b8101906118dc565b5f6101cd565b503d6101f5565b6040513d84823e3d90fd5b630fbcad4560e21b8252600482fd5b50346101225760c036600319011261012257610249366116f9565b6064356001600160401b0381116102c957610268903690600401611777565b906084356001600160401b0381116102c557610288903690600401611777565b92909160a43563ffffffff811681036102c1579160209693916102af6102b79796946119df565b945495612009565b6040519015158152f35b8680fd5b8480fd5b8280fd5b50346101225760a0366003190112610122576102e8366116f9565b6064356001600160401b0381116102c957610307903690600401611777565b9092608435906001600160401b0382116101225760206102b78686866103303660048901611777565b939092611b49565b50346101225761034736611651565b60208101908135813561017e19833603018112156102c55782610371836060936103799601611ce5565b949095611bae565b5001356103b1576103ae92916103916103a9926115f8565b90919082549060031b91821b915f19901b1916179055565b611f23565b80f35b630faaae6760e31b8452600484fd5b503461012257806003193601126101225760209054604051908152f35b50346101225780600319360112610122576020600354604051908152f35b50346101225760203660031901126101225760043590600154821015610122576020610426836115f8565b90549060031b1c604051908152f35b50346101225760203660031901126101225760206104266004356115f8565b50346101225780600319360112610122576020600254604051908152f35b503461012257806003193601126101225760206040517f00000000000000000000000000000000000000000000000000000000000000008152f35b50346101225780600319360112610122576040517f00000000000000000000000000000000000000000000000000000000000000006001600160a01b03168152602090f35b5034610122576020366003190112610122576020610426600435611624565b5034610122578060031936011261012257602060405160ff7f0000000000000000000000000000000000000000000000000000000000000000168152f35b50346101225761056a61056136611651565b60015490611ce5565b600154600160401b811015610593576103ae92916103918260016103a99401600155600161163c565b634e487b7160e01b84526041600452602484fd5b5034610122576020366003190112610122576004359060025482101561012257602061042683611624565b5034610a9c576080366003190112610a9c576001600160401b0360043511610a9c57366023600435011215610a9c576001600160401b036004356004013511610a9c573660246101e06004356004013502600435010111610a9c576001600160401b0360243511610a9c5761010060243536036003190112610a9c57604435906001600160401b038211610a9c5736602383011215610a9c576001600160401b03826004013511610a9c5736602461012084600401350284010111610a9c576001600160401b0360643511610a9c57366023606435011215610a9c576001600160401b036064356004013511610a9c5736602460643560040135606435010111610a9c576106e560043560040135611a94565b916106f360405193846116d8565b600480350135808452601f199061070990611a94565b015f5b818110610e9857505061072460043560040135611a94565b9061073260405192836116d8565b600480350135808352601f199061074890611a94565b015f5b818110610e4a57505061076360043560040135611a94565b9161077160405193846116d8565b600480350135808452601f199061078790611a94565b013660208501376002545f905b60043560040135821015610aa057806101c46101e084026004350101356002811015610a9c576107c381611b3f565b806109d957505f1981146109c557600101915b60646101e082026004350101916107ed36846117ff565b92606060408501519401938451948560011b95808704600214901517156109c5576108239161081d915190611cd8565b91611bae565b9360446101e08502600435010135948b610864866040519261084484611685565b60246101e083026004350101358452896020850152846040850152611ab8565b5261086f858d611ab8565b506108856101846101e0870260043501016117bb565b95610894608460243501611999565b63ffffffff6001600160401b036108b66101a46101e08b0260043501016117a7565b169116036001600160401b0381116109c5576001600160401b03166085026001600160401b0381169081036109c55761e3b3016001600160401b0381116109c5576001600160401b036103e881603c93160416016001600160401b0381116109c5576001976001600160401b036109318160ff941642611a87565b16926109486101246101e08b0260043501016118c8565b94604051986109568a6116a0565b8952602089015260408801521660608601526080850152858060a01b031660a084015260c083015260e0820152826101008201526109948286611ab8565b5261099f8185611ab8565b506109b36109ad8286611ab8565b51611c2c565b6109bd8288611ab8565b520190610794565b634e487b7160e01b5f52601160045260245ffd5b9092906001906109e881611b3f565b036107d6579050610a21610a1c61ffff610a0d6101e46101e086026004350101611c4e565b16866004013560248801611c5d565b611bef565b50610100610a4061ffff610a0d6101e46101e086026004350101611c4e565b01356003811015610a9c57600290610a578161198f565b03610a8d57610a8661ffff610a776101e46101e085026004350101611c4e565b16856004013560248701611c5d565b35906107d6565b63a5f611fd60e01b5f5260045ffd5b5f80fd5b8583868960446024350190610aba82602435600401611c6e565b6001600160401b038111610e365760405190610ae0601f8201601f1916602001836116d8565b80825260208201923682820111610a9c57815f926020928637830101525190209160018060a01b037f00000000000000000000000000000000000000000000000000000000000000001660243560040135926024803501359460405190610b4682611685565b858252866020830152604082015260405190610b6182611685565b600282526020820192835260408201908152604051809260208201946020865260e083019151610b908161198f565b6040840152519060a060608401528151809152602061010084019201905f5b818110610dfc575050925180516080840152602081015160a08401526040015160c083015203601f1981018352610be79150826116d8565b823b15610a9c57610c77925f926084926040519586948593849363020a49e360e51b85527f00000000000000000000000000000000000000000000000000000000000000006004860152606060248601525180918160648701528386015e8381018201889052601f01601f1916830183810382016003190160448501520160046064359081013590602401611ca0565b03915afa8015610df157610dd1575b5090610c9b610ca39392602435600401611c6e565b92909161210e565b610ce6610cba60c4602435016024356004016119aa565b90610ccf60e4602435016024356004016119aa565b929091610ce136606460243501611737565b611b49565b15610dc257825b8251811015610d4257610d008183611ab8565b51600254600160401b811015610d2e57600192916103918285610d289401600255600261163c565b01610ced565b634e487b7160e01b86526041600452602486fd5b50506040519060408201604083528151809152602060608401920190845b818110610da157857fe8b89fd0756cdb35ef6d9ff605cca13c890bbd62d2befac12cdf4cf4d3e73a72868087610d9585611b3f565b8460208301520390a180f35b909192602061012082610db76001948851611acc565b019401929101610d60565b633666f0e160e21b8352600483fd5b610ca393929196505f610de3916116d8565b610c9b5f9691929350610c86565b6040513d5f823e3d90fd5b91949350916020606082610e2760019489516040809180518452602081015160208501520151910152565b01950191019185939492610baf565b634e487b7160e01b5f52604160045260245ffd5b602090604051610e59816116a0565b5f81525f838201525f60408201525f60608201525f60808201525f60a08201525f60c08201525f60e08201525f6101008201528282870101520161074b565b602090604051610ea781611685565b5f81525f838201525f60408201528282880101520161070c565b34610a9c576020366003190112610a9c576004356001600160401b038111610a9c57806004016103c06003198336030112610a9c57610eff81611bef565b506101048201356003811015610a9c57600190610f1b8161198f565b03611315576001600160401b03610f34608484016117a7565b164210611306576101448201610fb8610f4c82611999565b63ffffffff60405191610f5e83611685565b604487013583521660208201526101248501356040820152610f846101648601856119aa565b929091610f956101848801876119aa565b6103a489019591610fad610fa888611999565b6119df565b925f54968795612009565b156112f75761100991610feb610fd26102048801876119aa565b610fe36102248a95939501896119aa565b939092611999565b93611003610ffd366101a48d01611737565b956119df565b94612009565b156112e85761102461101e6101c48501611999565b91611999565b63ffffffff60ff611037606487016117bb565b1691160163ffffffff81116109c55763ffffffff8091169116036112d957610244820161106381611bae565b6024840135036112ca5761018061109c7f24e3dfec7094aa50543676beff35467ddf376469fa05571e4d1b729f3514507f9236906117ff565b5f60408201525f60608201526110be6110b482611bc7565b61039183516115f8565b6110cb60405180926118f4565b6002610160820152a16110fd6110e136836119f7565b9160026101008401526103916110f684611c2c565b9135611624565b61110d60c4830135600354611a87565b60035560408051919061112081846116d8565b60018352601f19015f5b81811061127c57505061113c82611aab565b5261114681611aab565b50604051604081016040825282518091526020606083019301905f5b81811061125b57505050807fe8b89fd0756cdb35ef6d9ff605cca13c890bbd62d2befac12cdf4cf4d3e73a7292600160208301520390a1602060e46111a960a484016118c8565b60405163a9059cbb60e01b81526001600160a01b039091166004820152920135602483015281806044810103815f7f00000000000000000000000000000000000000000000000000000000000000006001600160a01b03165af1908115610df1575f91611228575b501561121957005b6312171d8360e31b5f5260045ffd5b611241915060203d60201161020d576101ff81836116d8565b81611211565b634e487b7160e01b5f52602160045260245ffd5b9091936020610120826112716001948951611acc565b019501929101611162565b60209060405161128b816116a0565b5f81525f838201525f60408201525f60608201525f60808201525f60a08201525f60c08201525f60e08201525f6101008201528282870101520161112a565b63ceb1159d60e01b5f5260045ffd5b638e082f6760e01b5f5260045ffd5b638ce0b4c760e01b5f5260045ffd5b637344e0b760e01b5f5260045ffd5b632d5c37f560e21b5f5260045ffd5b6322fc5d4360e21b5f5260045ffd5b34610a9c5736600319016101608112610a9c5761133f611b6f565b50604435908115611564576024356001600160401b03811691828203610a9c57610124359260ff8416808503610a9c57611c20029063ffffffff82169182036109c557016001600160401b0381116109c5576001600160401b031642106115555761016013610a9c57604051926113b5846116bc565b6004359182855260208501526040840192818452606085019260643584526084356001600160401b0381168103610a9c57608087015260a43569ffffffffffffffffffff1981168103610a9c5760a087015260c4356001600160a01b0381168103610a9c5760c087015260e435916001600160a01b0383168303610a9c578260e08801526101043561010088015261012087015261014435906001600160401b0382168203610a9c575f602095816114b698611485956101408c0152525261039161147f88611bc7565b916115f8565b60405163a9059cbb60e01b81526001600160a01b039091166004820152602481019190915291829081906044820190565b03815f7f00000000000000000000000000000000000000000000000000000000000000006001600160a01b03165af1908115610df1575f91611536575b5015611219576101807f24e3dfec7094aa50543676beff35467ddf376469fa05571e4d1b729f3514507f9161152b60405180926118f4565b6001610160820152a1005b61154f915060203d60201161020d576101ff81836116d8565b826114f3565b6301b512a960e21b5f5260045ffd5b637941e9ad60e01b5f5260045ffd5b34610a9c575f366003190112610a9c576040517f00000000000000000000000000000000000000000000000000000000000000006001600160a01b03168152602090f35b34610a9c575f366003190112610a9c577f00000000000000000000000000000000000000000000000000000000000000006001600160a01b03168152602090f35b6001548110156116105760015f5260205f2001905f90565b634e487b7160e01b5f52603260045260245ffd5b6002548110156116105760025f5260205f2001905f90565b8054821015611610575f5260205f2001905f90565b6020600319820112610a9c57600435906001600160401b038211610a9c57610180908290036003190112610a9c5760040190565b606081019081106001600160401b03821117610e3657604052565b61012081019081106001600160401b03821117610e3657604052565b61016081019081106001600160401b03821117610e3657604052565b90601f801991011681019081106001600160401b03821117610e3657604052565b6060906003190112610a9c576040519061171282611685565b81600435815260243563ffffffff81168103610a9c5760208201526040604435910152565b9190826060910312610a9c5760405161174f81611685565b809280358252602081013563ffffffff81168103610a9c576020830152604090810135910152565b9181601f84011215610a9c578235916001600160401b038311610a9c576020808501948460051b010111610a9c57565b356001600160401b0381168103610a9c5790565b3560ff81168103610a9c5790565b35906001600160401b0382168203610a9c57565b35906001600160a01b0382168203610a9c57565b359060ff82168203610a9c57565b919082610160910312610a9c57604051611818816116bc565b80928035825261182a602082016117c9565b6020830152604081013560408301526060810135606083015261184f608082016117c9565b608083015260a08101359069ffffffffffffffffffff1982168203610a9c576101406118c391819360a086015261188860c082016117dd565b60c086015261189960e082016117dd565b60e08601526101008101356101008601526118b761012082016117f1565b610120860152016117c9565b910152565b356001600160a01b0381168103610a9c5790565b90816020910312610a9c57518015158103610a9c5790565b6001600160401b03610140809280518552826020820151166020860152604081015160408601526060810151606086015282608082015116608086015269ffffffffffffffffffff1960a08201511660a086015260018060a01b0360c08201511660c086015260018060a01b0360e08201511660e086015261010081015161010086015260ff61012082015116610120860152015116910152565b6003111561124757565b3563ffffffff81168103610a9c5790565b903590601e1981360301821215610a9c57018035906001600160401b038211610a9c57602001918160051b36038313610a9c57565b63ffffffff60019116019063ffffffff82116109c557565b919082610120910312610a9c57604051611a10816116a0565b6101008193803583526020810135602084015260408101356040840152611a39606082016117f1565b6060840152611a4a608082016117c9565b6080840152611a5b60a082016117dd565b60a084015260c081013560c084015260e081013560e08401520135906003821015610a9c576101000152565b919082018092116109c557565b6001600160401b038111610e365760051b60200190565b8051156116105760200190565b80518210156116105760209160051b010190565b610100809180518452602081015160208501526040810151604085015260ff60608201511660608501526001600160401b03608082015116608085015260018060a01b0360a08201511660a085015260c081015160c085015260e081015160e0850152015191611b3b8361198f565b0152565b6002111561124757565b92611b6c949192611b6363ffffffff6020870151166119df565b935f5495612009565b90565b611b82611b7d3660046117ff565b611bc7565b611b8f600435600161163c565b90549060031b1c8103611b9f5790565b63cd1d240d60e01b5f5260045ffd5b611b8f611bbe611b7d36846117ff565b9135600161163c565b604051611bd86020820180936118f4565b6101608152611be9610180826116d8565b51902090565b611c0d611c04611bff36846119f7565b611c2c565b9135600261163c565b90549060031b1c8103611c1d5790565b631a40316d60e01b5f5260045ffd5b604051611c3d602082018093611acc565b6101208152611be9610140826116d8565b3561ffff81168103610a9c5790565b919081101561161057610120020190565b903590601e1981360301821215610a9c57018035906001600160401b038211610a9c57602001918136038313610a9c57565b908060209392818452848401375f828201840152601f01601f1916010190565b3569ffffffffffffffffffff1981168103610a9c5790565b919082039182116109c557565b9190915f610140604051611cf8816116bc565b8281528260208201528260408201528260608201528260808201528260a08201528260c08201528260e08201528261010082015282610120820152015260408101356107d18110611f145760608201906103e86001600160401b03611d5c846117a7565b1610611f05576080830192611d7084611cc0565b5f81901a60f81b6001600160f81b031916159081611ee7575b5015611ed857611dbf611da06101408301836119aa565b90611daf6101608501856119aa565b929091610ce13660e08801611737565b15611ec9576005820291808304600514811517156109c55763ffffffff94611e00611dfa611df461271060ff97048095611cd8565b966117a7565b91611cc0565b611e0c602085016118c8565b906001600160401b03611e1e866118c8565b93611e42468d60a08a01359091606092604051928352602083015260408201522090565b95611e5c610100611e5560c08b016117bb565b9901611999565b99604080519e8f90611e6d826116bc565b81524286166020820152015260608d01521660808b015269ffffffffffffffffffff191660a08a01526001600160a01b0390811660c08a01521660e08801526101008701521661012085015216610140830152611b6c82611bc7565b633666f0e160e21b5f5260045ffd5b63fad7db0760e01b5f5260045ffd5b60011a60f81b6001600160f81b031916600560fa1b1490505f611d89565b63fde5943160e01b5f5260045ffd5b6355fcd02760e01b5f5260045ffd5b611f70907f24e3dfec7094aa50543676beff35467ddf376469fa05571e4d1b729f3514507f610180604051611f5881856118f4565b5f610160820152a16060604082015191015190611a87565b6040516323b872dd60e01b815233600482015230602482015260448101919091526020816064815f7f00000000000000000000000000000000000000000000000000000000000000006001600160a01b03165af1908115610df1575f91611fda575b501561121957565b611ff3915060203d60201161020d576101ff81836116d8565b5f611fd2565b91908110156116105760051b0190565b919093929363ffffffff61204084516020860195604084885116910151919091606092604051928352602083015260408201522090565b935116905f925b8084106120bd57505050505f905f5b838110612097575b50501561208f5761206e9161217a565b9081156120885763ffffffff165f5260205260405f201490565b5050505f90565b505050505f90565b816120a3828688611ff9565b35146120b157600101612056565b50505060015f8061205e565b9293600183811c9492938116036120f0576120d9858385611ff9565b355f52602052600160405f20945b01929190612047565b6120fb858385611ff9565b35905f52602052600160405f20946120e7565b929192815f54821491821592612170575b505061216b576121667f9b2f63e83fb6fca69cac8064b1700d250ea342927ef73fb1a519b5df4e4f111893825f556040519384938452604060208501526040840191611ca0565b0390a1565b505050565b149050815f61211f565b81156121c5575f198201918083116109c557612197838284611ff9565b3592805b6121a55750505090565b5f1901926121b4848385611ff9565b355f526020528260405f209361219b565b50505f9056fea2646970667358221220efcf96a8ac4c78405ade3dbc5e1a650f02df09e7c301da3299d0e218a6c1f2ab64736f6c634300081c0033","linkReferences":{}},"methodIdentifiers":{"CIRCUIT_VERIFICATION_KEY()":"8d5ca052","DEPOSIT_TOKEN()":"13f66587","FEE_ROUTER_ADDRESS()":"898aeacb","TOKEN_DECIMALS()":"5b7f415c","VERIFIER()":"08c84e70","_proveBlockInclusion((bytes32,uint32,uint256),bytes32[],bytes32[],uint32)":"e78aa9d5","_proveBlockInclusionAtTip((bytes32,uint32,uint256),bytes32[],bytes32[])":"d9c2328f","accumulatedFeeBalance()":"ca18100d","depositLiquidity((address,address,uint256,uint64,bytes22,bytes32,uint8,(bytes32,uint32,uint256),bytes32[],bytes32[]))":"48678e06","depositLiquidityWithOverwrite(((address,address,uint256,uint64,bytes22,bytes32,uint8,(bytes32,uint32,uint256),bytes32[],bytes32[]),(uint256,uint64,uint256,uint256,uint64,bytes22,address,address,bytes32,uint8,uint64)))":"d6d51459","getSwapCommitment(uint256)":"7ed34a36","getSwapCommitmentsLength()":"992284a6","getVaultCommitment(uint256)":"9f63bd97","getVaultCommitmentsLength()":"f5095c16","mmrRoot()":"d21ddc61","payoutToFeeRouter()":"f23a94a9","releaseLiquidity(((uint256,bytes32,bytes32,uint8,uint64,address,uint256,uint256,uint8),uint256,uint32,bytes32[],bytes32[],(bytes32,uint32,uint256),bytes32[],bytes32[],(uint256,uint64,uint256,uint256,uint64,bytes22,address,address,bytes32,uint8,uint64),uint32))":"2e2d2dde","submitBatchSwapProof((bytes32,bytes32,(uint256,uint64,uint256,uint256,uint64,bytes22,address,address,bytes32,uint8,uint64),uint8,uint16)[],(bytes32,bytes32,bytes,(bytes32,uint32,uint256),bytes32[],bytes32[]),(uint256,bytes32,bytes32,uint8,uint64,address,uint256,uint256,uint8)[],bytes)":"34abb156","swapCommitments(uint256)":"365df233","vaultCommitments(uint256)":"a6a0f96e","withdrawLiquidity((uint256,uint64,uint256,uint256,uint64,bytes22,address,address,bytes32,uint8,uint64))":"16a6db20"},"storageLayout":{"storage":[{"astId":41705,"contract":"src/RiftExchange.sol:RiftExchange","label":"mmrRoot","offset":0,"slot":"0","type":"t_bytes32"},{"astId":41847,"contract":"src/RiftExchange.sol:RiftExchange","label":"vaultCommitments","offset":0,"slot":"1","type":"t_array(t_bytes32)dyn_storage"},{"astId":41850,"contract":"src/RiftExchange.sol:RiftExchange","label":"swapCommitments","offset":0,"slot":"2","type":"t_array(t_bytes32)dyn_storage"},{"astId":41852,"contract":"src/RiftExchange.sol:RiftExchange","label":"accumulatedFeeBalance","offset":0,"slot":"3","type":"t_uint256"}],"types":{"t_array(t_bytes32)dyn_storage":{"encoding":"dynamic_array","label":"bytes32[]","numberOfBytes":"32","base":"t_bytes32"},"t_bytes32":{"encoding":"inplace","label":"bytes32","numberOfBytes":"32"},"t_uint256":{"encoding":"inplace","label":"uint256","numberOfBytes":"32"}}},"id":39}