{"abi":[{"type":"constructor","inputs":[{"name":"_bundler3","type":"address","internalType":"address"},{"name":"_btcAuctionHouse","type":"address","internalType":"address"}],"stateMutability":"nonpayable"},{"type":"receive","stateMutability":"payable"},{"type":"function","name":"BUNDLER3","inputs":[],"outputs":[{"name":"","type":"address","internalType":"address"}],"stateMutability":"view"},{"type":"function","name":"btcAuctionHouse","inputs":[],"outputs":[{"name":"","type":"address","internalType":"address"}],"stateMutability":"view"},{"type":"function","name":"createAuction","inputs":[{"name":"startsBTCperBTCRate","type":"uint256","internalType":"uint256"},{"name":"endcbsBTCperBTCRate","type":"uint256","internalType":"uint256"},{"name":"decayBlocks","type":"uint64","internalType":"uint64"},{"name":"deadline","type":"uint64","internalType":"uint64"},{"name":"fillerWhitelistContract","type":"address","internalType":"address"},{"name":"baseParams","type":"tuple","internalType":"struct BaseCreateOrderParams","components":[{"name":"owner","type":"address","internalType":"address"},{"name":"bitcoinScriptPubKey","type":"bytes","internalType":"bytes"},{"name":"salt","type":"bytes32","internalType":"bytes32"},{"name":"confirmationBlocks","type":"uint8","internalType":"uint8"},{"name":"safeBlockLeaf","type":"tuple","internalType":"struct BlockLeaf","components":[{"name":"blockHash","type":"bytes32","internalType":"bytes32"},{"name":"height","type":"uint32","internalType":"uint32"},{"name":"cumulativeChainwork","type":"uint256","internalType":"uint256"}]}]}],"outputs":[],"stateMutability":"nonpayable"},{"type":"function","name":"erc20Transfer","inputs":[{"name":"token","type":"address","internalType":"address"},{"name":"receiver","type":"address","internalType":"address"},{"name":"amount","type":"uint256","internalType":"uint256"}],"outputs":[],"stateMutability":"nonpayable"},{"type":"function","name":"nativeTransfer","inputs":[{"name":"receiver","type":"address","internalType":"address"},{"name":"amount","type":"uint256","internalType":"uint256"}],"outputs":[],"stateMutability":"nonpayable"},{"type":"function","name":"syntheticBitcoin","inputs":[],"outputs":[{"name":"","type":"address","internalType":"address"}],"stateMutability":"view"},{"type":"error","name":"AdapterAddress","inputs":[]},{"type":"error","name":"FailedCall","inputs":[]},{"type":"error","name":"InsufficientBalance","inputs":[{"name":"balance","type":"uint256","internalType":"uint256"},{"name":"needed","type":"uint256","internalType":"uint256"}]},{"type":"error","name":"SafeERC20FailedOperation","inputs":[{"name":"token","type":"address","internalType":"address"}]},{"type":"error","name":"UnauthorizedSender","inputs":[]},{"type":"error","name":"ZeroAddress","inputs":[]},{"type":"error","name":"ZeroAmount","inputs":[]}],"bytecode":{"object":"0x60e0806040523461010957604081610992803803809161001f828561012f565b8339810103126101095761003e602061003783610166565b9201610166565b906001600160a01b038116156101205760805260c081905260405163a0d9e24160e01b815290602090829060049082906001600160a01b03165afa908115610115575f916100d7575b5060a052604051610817908161017b8239608051818181608701528181610213015281816102bc01526104c9015260a0518181816102580152610507015260c0518181816101ce01526105290152f35b90506020813d60201161010d575b816100f26020938361012f565b810103126101095761010390610166565b5f610087565b5f80fd5b3d91506100e5565b6040513d5f823e3d90fd5b63d92e233d60e01b5f5260045ffd5b601f909101601f19168101906001600160401b0382119082101761015257604052565b634e487b7160e01b5f52604160045260245ffd5b51906001600160a01b03821682036101095756fe6080604052600436101561001a575b3615610018575f80fd5b005b5f5f3560e01c80631b0e7139146104525780633790767d14610287578063a0d9e24114610242578063a317e4b5146101fd578063ad1af9b8146101b85763f2522bcd14610067575061000e565b346101b55760403660031901126101b55761008061077b565b60243591907f00000000000000000000000000000000000000000000000000000000000000006001600160a01b031633036101a6576001600160a01b03169180831561019757308414610188575f19810361017257505047915b826100e3575080f35b82471061015b578180809481935af13d15610156573d67ffffffffffffffff81116101425760405190610120601f8201601f191660200183610791565b81528260203d92013e5b15610133578080f35b63d6bda27560e01b8152600490fd5b634e487b7160e01b83526041600452602483fd5b61012a565b506044914763cf47918160e01b8352600452602452fd5b9290926100da57631f2a200560e01b8252600482fd5b63de8b590960e01b8352600483fd5b63d92e233d60e01b8352600483fd5b630101292160e31b8252600482fd5b80fd5b50346101b557806003193601126101b5576040517f00000000000000000000000000000000000000000000000000000000000000006001600160a01b03168152602090f35b50346101b557806003193601126101b5576040517f00000000000000000000000000000000000000000000000000000000000000006001600160a01b03168152602090f35b50346101b557806003193601126101b5576040517f00000000000000000000000000000000000000000000000000000000000000006001600160a01b03168152602090f35b50346101b55760603660031901126101b5576102a161077b565b6024356001600160a01b038116919082900361044e576044357f00000000000000000000000000000000000000000000000000000000000000006001600160a01b0316330361043f5780831561043057308414610421575f1981036104035750506040516370a0823160e01b815230600482015283906020816024816001600160a01b0387165afa9081156103f85782916103c2575b50925b83610343575080f35b60209260018060a01b031693604051908482019263a9059cbb60e01b8452602483015260448201526044815261037a606482610791565b519082855af1156103b55781513d6103ac5750803b155b61039a57808280f35b635274afe760e01b8252600452602490fd5b60011415610391565b50604051903d90823e3d90fd5b90506020813d6020116103f0575b816103dd60209383610791565b810103126103ec57515f610337565b5080fd5b3d91506103d0565b6040513d84823e3d90fd5b9290921561041257839061033a565b631f2a200560e01b8452600484fd5b63de8b590960e01b8552600485fd5b63d92e233d60e01b8552600485fd5b630101292160e31b8452600484fd5b8280fd5b50346107365760c03660031901126107365760443567ffffffffffffffff8116809103610736576064359067ffffffffffffffff8216809203610736576084356001600160a01b038116908190036107365760a4359067ffffffffffffffff8211610736578136039060e0600319830112610736577f00000000000000000000000000000000000000000000000000000000000000006001600160a01b0316330361076c57306014526370a0823160601b5f527f0000000000000000000000000000000000000000000000000000000000000000947f000000000000000000000000000000000000000000000000000000000000000094602080602460108a5afa601f3d11166020510296610569886004356107b3565b96610576896024356107b3565b91816014528960345263095ea7b360601b5f5260205f6044601082855af1908160015f5114161561074e575b50505f6034526040516001600160a01b03919091169760a0820167ffffffffffffffff81118382101761073a57604052815260208101918252604081019283526060810193845260808101948552873b156107365760405198637dd9cb3160e01b8a5260048a015251602489015251604488015251606487015251608486015260018060a01b0390511660a485015260e060c4850152816004013560018060a01b0381168091036107365760e4850152602482013590602219018112156107365781019160246004840135930167ffffffffffffffff841161073657833603811361073657839060e0610104870152816101c48701526101e48601375f6101e484860101526044820135610124850152606482013560ff811680910361073657610144850152608482013561016485015260a48201359163ffffffff8316809303610736575f6101e486829660c4829795839661018485015201356101a4830152601f801991011681010301925af1801561072b5761071f575080f35b61001891505f90610791565b6040513d5f823e3d90fd5b5f80fd5b634e487b7160e01b5f52604160045260245ffd5b3b153d17101561075f575f806105a2565b633e3f8f735f526004601cfd5b630101292160e31b5f5260045ffd5b600435906001600160a01b038216820361073657565b90601f8019910116810190811067ffffffffffffffff82111761073a57604052565b90805f190482116107ce575b670de0b6b3a764000091020490565b80156107bf5763bac65e5b5f526004601cfdfea2646970667358221220aecc4ccbf52d9a7dde288d761a847f191fffdf84b7ec1bc8e4b443da7c048d0564736f6c634300081c0033","linkReferences":{}},"methodIdentifiers":{"BUNDLER3()":"a317e4b5","btcAuctionHouse()":"ad1af9b8","createAuction(uint256,uint256,uint64,uint64,address,(address,bytes,bytes32,uint8,(bytes32,uint32,uint256)))":"1b0e7139","erc20Transfer(address,address,uint256)":"3790767d","nativeTransfer(address,uint256)":"f2522bcd","syntheticBitcoin()":"a0d9e241"},"storageLayout":{"storage":[],"types":{}},"id":40}