{"abi":[{"type":"constructor","inputs":[{"name":"_mmrRoot","type":"bytes32","internalType":"bytes32"},{"name":"_depositToken","type":"address","internalType":"address"},{"name":"_circuitVerificationKey","type":"bytes32","internalType":"bytes32"},{"name":"_verifier","type":"address","internalType":"address"},{"name":"_feeRouter","type":"address","internalType":"address"},{"name":"_tipBlockLeaf","type":"tuple","internalType":"struct Types.BlockLeaf","components":[{"name":"blockHash","type":"bytes32","internalType":"bytes32"},{"name":"height","type":"uint32","internalType":"uint32"},{"name":"cumulativeChainwork","type":"uint256","internalType":"uint256"}]}],"stateMutability":"nonpayable"},{"type":"function","name":"CIRCUIT_VERIFICATION_KEY","inputs":[],"outputs":[{"name":"","type":"bytes32","internalType":"bytes32"}],"stateMutability":"view"},{"type":"function","name":"DEPOSIT_TOKEN","inputs":[],"outputs":[{"name":"","type":"address","internalType":"contract IERC20"}],"stateMutability":"view"},{"type":"function","name":"TOKEN_DECIMALS","inputs":[],"outputs":[{"name":"","type":"uint8","internalType":"uint8"}],"stateMutability":"view"},{"type":"function","name":"VERIFIER","inputs":[],"outputs":[{"name":"","type":"address","internalType":"contract ISP1Verifier"}],"stateMutability":"view"},{"type":"function","name":"accumulatedFeeBalance","inputs":[],"outputs":[{"name":"","type":"uint256","internalType":"uint256"}],"stateMutability":"view"},{"type":"function","name":"checkpoints","inputs":[{"name":"","type":"bytes32","internalType":"bytes32"}],"outputs":[{"name":"established","type":"bool","internalType":"bool"},{"name":"tipBlockLeaf","type":"tuple","internalType":"struct Types.BlockLeaf","components":[{"name":"blockHash","type":"bytes32","internalType":"bytes32"},{"name":"height","type":"uint32","internalType":"uint32"},{"name":"cumulativeChainwork","type":"uint256","internalType":"uint256"}]}],"stateMutability":"view"},{"type":"function","name":"depositLiquidity","inputs":[{"name":"params","type":"tuple","internalType":"struct Types.DepositLiquidityParams","components":[{"name":"depositOwnerAddress","type":"address","internalType":"address"},{"name":"specifiedPayoutAddress","type":"address","internalType":"address"},{"name":"depositAmount","type":"uint256","internalType":"uint256"},{"name":"expectedSats","type":"uint64","internalType":"uint64"},{"name":"btcPayoutScriptPubKey","type":"bytes25","internalType":"bytes25"},{"name":"depositSalt","type":"bytes32","internalType":"bytes32"},{"name":"confirmationBlocks","type":"uint8","internalType":"uint8"},{"name":"safeBlockLeaf","type":"tuple","internalType":"struct Types.BlockLeaf","components":[{"name":"blockHash","type":"bytes32","internalType":"bytes32"},{"name":"height","type":"uint32","internalType":"uint32"},{"name":"cumulativeChainwork","type":"uint256","internalType":"uint256"}]},{"name":"safeBlockSiblings","type":"bytes32[]","internalType":"bytes32[]"},{"name":"safeBlockPeaks","type":"bytes32[]","internalType":"bytes32[]"}]}],"outputs":[{"name":"","type":"bytes32","internalType":"bytes32"}],"stateMutability":"nonpayable"},{"type":"function","name":"depositLiquidityWithOverwrite","inputs":[{"name":"params","type":"tuple","internalType":"struct Types.DepositLiquidityWithOverwriteParams","components":[{"name":"depositParams","type":"tuple","internalType":"struct Types.DepositLiquidityParams","components":[{"name":"depositOwnerAddress","type":"address","internalType":"address"},{"name":"specifiedPayoutAddress","type":"address","internalType":"address"},{"name":"depositAmount","type":"uint256","internalType":"uint256"},{"name":"expectedSats","type":"uint64","internalType":"uint64"},{"name":"btcPayoutScriptPubKey","type":"bytes25","internalType":"bytes25"},{"name":"depositSalt","type":"bytes32","internalType":"bytes32"},{"name":"confirmationBlocks","type":"uint8","internalType":"uint8"},{"name":"safeBlockLeaf","type":"tuple","internalType":"struct Types.BlockLeaf","components":[{"name":"blockHash","type":"bytes32","internalType":"bytes32"},{"name":"height","type":"uint32","internalType":"uint32"},{"name":"cumulativeChainwork","type":"uint256","internalType":"uint256"}]},{"name":"safeBlockSiblings","type":"bytes32[]","internalType":"bytes32[]"},{"name":"safeBlockPeaks","type":"bytes32[]","internalType":"bytes32[]"}]},{"name":"overwriteVault","type":"tuple","internalType":"struct Types.DepositVault","components":[{"name":"vaultIndex","type":"uint256","internalType":"uint256"},{"name":"depositTimestamp","type":"uint64","internalType":"uint64"},{"name":"depositUnlockTimestamp","type":"uint64","internalType":"uint64"},{"name":"depositAmount","type":"uint256","internalType":"uint256"},{"name":"depositFee","type":"uint256","internalType":"uint256"},{"name":"expectedSats","type":"uint64","internalType":"uint64"},{"name":"btcPayoutScriptPubKey","type":"bytes25","internalType":"bytes25"},{"name":"specifiedPayoutAddress","type":"address","internalType":"address"},{"name":"ownerAddress","type":"address","internalType":"address"},{"name":"salt","type":"bytes32","internalType":"bytes32"},{"name":"confirmationBlocks","type":"uint8","internalType":"uint8"},{"name":"attestedBitcoinBlockHeight","type":"uint64","internalType":"uint64"}]}]}],"outputs":[{"name":"","type":"bytes32","internalType":"bytes32"}],"stateMutability":"nonpayable"},{"type":"function","name":"feeRouterAddress","inputs":[],"outputs":[{"name":"","type":"address","internalType":"address"}],"stateMutability":"view"},{"type":"function","name":"getLightClientHeight","inputs":[],"outputs":[{"name":"","type":"uint32","internalType":"uint32"}],"stateMutability":"view"},{"type":"function","name":"getSwapCommitment","inputs":[{"name":"swapIndex","type":"uint256","internalType":"uint256"}],"outputs":[{"name":"","type":"bytes32","internalType":"bytes32"}],"stateMutability":"view"},{"type":"function","name":"getSwapCommitmentsLength","inputs":[],"outputs":[{"name":"","type":"uint256","internalType":"uint256"}],"stateMutability":"view"},{"type":"function","name":"getVaultCommitment","inputs":[{"name":"vaultIndex","type":"uint256","internalType":"uint256"}],"outputs":[{"name":"","type":"bytes32","internalType":"bytes32"}],"stateMutability":"view"},{"type":"function","name":"getVaultCommitmentsLength","inputs":[],"outputs":[{"name":"","type":"uint256","internalType":"uint256"}],"stateMutability":"view"},{"type":"function","name":"mmrRoot","inputs":[],"outputs":[{"name":"","type":"bytes32","internalType":"bytes32"}],"stateMutability":"view"},{"type":"function","name":"owner","inputs":[],"outputs":[{"name":"","type":"address","internalType":"address"}],"stateMutability":"view"},{"type":"function","name":"payoutToFeeRouter","inputs":[],"outputs":[],"stateMutability":"nonpayable"},{"type":"function","name":"proveBlockInclusion","inputs":[{"name":"blockLeaf","type":"tuple","internalType":"struct Types.BlockLeaf","components":[{"name":"blockHash","type":"bytes32","internalType":"bytes32"},{"name":"height","type":"uint32","internalType":"uint32"},{"name":"cumulativeChainwork","type":"uint256","internalType":"uint256"}]},{"name":"siblings","type":"bytes32[]","internalType":"bytes32[]"},{"name":"peaks","type":"bytes32[]","internalType":"bytes32[]"}],"outputs":[{"name":"","type":"bool","internalType":"bool"}],"stateMutability":"view"},{"type":"function","name":"releaseLiquidityBatch","inputs":[{"name":"paramsArray","type":"tuple[]","internalType":"struct Types.ReleaseLiquidityParams[]","components":[{"name":"swap","type":"tuple","internalType":"struct Types.ProposedSwap","components":[{"name":"swapIndex","type":"uint256","internalType":"uint256"},{"name":"depositVaultCommitment","type":"bytes32","internalType":"bytes32"},{"name":"swapBitcoinBlockHash","type":"bytes32","internalType":"bytes32"},{"name":"confirmationBlocks","type":"uint8","internalType":"uint8"},{"name":"liquidityUnlockTimestamp","type":"uint64","internalType":"uint64"},{"name":"specifiedPayoutAddress","type":"address","internalType":"address"},{"name":"totalSwapFee","type":"uint256","internalType":"uint256"},{"name":"totalSwapOutput","type":"uint256","internalType":"uint256"},{"name":"state","type":"uint8","internalType":"enum Types.SwapState"}]},{"name":"swapBlockChainwork","type":"uint256","internalType":"uint256"},{"name":"swapBlockHeight","type":"uint32","internalType":"uint32"},{"name":"bitcoinSwapBlockSiblings","type":"bytes32[]","internalType":"bytes32[]"},{"name":"bitcoinSwapBlockPeaks","type":"bytes32[]","internalType":"bytes32[]"},{"name":"utilizedVault","type":"tuple","internalType":"struct Types.DepositVault","components":[{"name":"vaultIndex","type":"uint256","internalType":"uint256"},{"name":"depositTimestamp","type":"uint64","internalType":"uint64"},{"name":"depositUnlockTimestamp","type":"uint64","internalType":"uint64"},{"name":"depositAmount","type":"uint256","internalType":"uint256"},{"name":"depositFee","type":"uint256","internalType":"uint256"},{"name":"expectedSats","type":"uint64","internalType":"uint64"},{"name":"btcPayoutScriptPubKey","type":"bytes25","internalType":"bytes25"},{"name":"specifiedPayoutAddress","type":"address","internalType":"address"},{"name":"ownerAddress","type":"address","internalType":"address"},{"name":"salt","type":"bytes32","internalType":"bytes32"},{"name":"confirmationBlocks","type":"uint8","internalType":"uint8"},{"name":"attestedBitcoinBlockHeight","type":"uint64","internalType":"uint64"}]},{"name":"tipBlockHeight","type":"uint32","internalType":"uint32"}]}],"outputs":[],"stateMutability":"nonpayable"},{"type":"function","name":"renounceOwnership","inputs":[],"outputs":[],"stateMutability":"nonpayable"},{"type":"function","name":"serializeLightClientPublicInput","inputs":[{"name":"input","type":"tuple","internalType":"struct Types.LightClientPublicInput","components":[{"name":"previousMmrRoot","type":"bytes32","internalType":"bytes32"},{"name":"newMmrRoot","type":"bytes32","internalType":"bytes32"},{"name":"compressedLeavesCommitment","type":"bytes32","internalType":"bytes32"},{"name":"tipBlockLeaf","type":"tuple","internalType":"struct Types.BlockLeaf","components":[{"name":"blockHash","type":"bytes32","internalType":"bytes32"},{"name":"height","type":"uint32","internalType":"uint32"},{"name":"cumulativeChainwork","type":"uint256","internalType":"uint256"}]}]}],"outputs":[{"name":"","type":"bytes","internalType":"bytes"}],"stateMutability":"pure"},{"type":"function","name":"setFeeRouterAddress","inputs":[{"name":"_feeRouter","type":"address","internalType":"address"}],"outputs":[],"stateMutability":"nonpayable"},{"type":"function","name":"submitBatchSwapProof","inputs":[{"name":"swapParams","type":"tuple[]","internalType":"struct Types.SubmitSwapProofParams[]","components":[{"name":"swapBitcoinTxid","type":"bytes32","internalType":"bytes32"},{"name":"vault","type":"tuple","internalType":"struct Types.DepositVault","components":[{"name":"vaultIndex","type":"uint256","internalType":"uint256"},{"name":"depositTimestamp","type":"uint64","internalType":"uint64"},{"name":"depositUnlockTimestamp","type":"uint64","internalType":"uint64"},{"name":"depositAmount","type":"uint256","internalType":"uint256"},{"name":"depositFee","type":"uint256","internalType":"uint256"},{"name":"expectedSats","type":"uint64","internalType":"uint64"},{"name":"btcPayoutScriptPubKey","type":"bytes25","internalType":"bytes25"},{"name":"specifiedPayoutAddress","type":"address","internalType":"address"},{"name":"ownerAddress","type":"address","internalType":"address"},{"name":"salt","type":"bytes32","internalType":"bytes32"},{"name":"confirmationBlocks","type":"uint8","internalType":"uint8"},{"name":"attestedBitcoinBlockHeight","type":"uint64","internalType":"uint64"}]},{"name":"storageStrategy","type":"uint8","internalType":"enum Types.StorageStrategy"},{"name":"localOverwriteIndex","type":"uint16","internalType":"uint16"},{"name":"swapBitcoinBlockLeaf","type":"tuple","internalType":"struct Types.BlockLeaf","components":[{"name":"blockHash","type":"bytes32","internalType":"bytes32"},{"name":"height","type":"uint32","internalType":"uint32"},{"name":"cumulativeChainwork","type":"uint256","internalType":"uint256"}]},{"name":"swapBitcoinBlockSiblings","type":"bytes32[]","internalType":"bytes32[]"},{"name":"swapBitcoinBlockPeaks","type":"bytes32[]","internalType":"bytes32[]"}]},{"name":"overwriteSwaps","type":"tuple[]","internalType":"struct Types.ProposedSwap[]","components":[{"name":"swapIndex","type":"uint256","internalType":"uint256"},{"name":"depositVaultCommitment","type":"bytes32","internalType":"bytes32"},{"name":"swapBitcoinBlockHash","type":"bytes32","internalType":"bytes32"},{"name":"confirmationBlocks","type":"uint8","internalType":"uint8"},{"name":"liquidityUnlockTimestamp","type":"uint64","internalType":"uint64"},{"name":"specifiedPayoutAddress","type":"address","internalType":"address"},{"name":"totalSwapFee","type":"uint256","internalType":"uint256"},{"name":"totalSwapOutput","type":"uint256","internalType":"uint256"},{"name":"state","type":"uint8","internalType":"enum Types.SwapState"}]},{"name":"proof","type":"bytes","internalType":"bytes"}],"outputs":[],"stateMutability":"nonpayable"},{"type":"function","name":"submitBatchSwapProofWithLightClientUpdate","inputs":[{"name":"swapParams","type":"tuple[]","internalType":"struct Types.SubmitSwapProofParams[]","components":[{"name":"swapBitcoinTxid","type":"bytes32","internalType":"bytes32"},{"name":"vault","type":"tuple","internalType":"struct Types.DepositVault","components":[{"name":"vaultIndex","type":"uint256","internalType":"uint256"},{"name":"depositTimestamp","type":"uint64","internalType":"uint64"},{"name":"depositUnlockTimestamp","type":"uint64","internalType":"uint64"},{"name":"depositAmount","type":"uint256","internalType":"uint256"},{"name":"depositFee","type":"uint256","internalType":"uint256"},{"name":"expectedSats","type":"uint64","internalType":"uint64"},{"name":"btcPayoutScriptPubKey","type":"bytes25","internalType":"bytes25"},{"name":"specifiedPayoutAddress","type":"address","internalType":"address"},{"name":"ownerAddress","type":"address","internalType":"address"},{"name":"salt","type":"bytes32","internalType":"bytes32"},{"name":"confirmationBlocks","type":"uint8","internalType":"uint8"},{"name":"attestedBitcoinBlockHeight","type":"uint64","internalType":"uint64"}]},{"name":"storageStrategy","type":"uint8","internalType":"enum Types.StorageStrategy"},{"name":"localOverwriteIndex","type":"uint16","internalType":"uint16"},{"name":"swapBitcoinBlockLeaf","type":"tuple","internalType":"struct Types.BlockLeaf","components":[{"name":"blockHash","type":"bytes32","internalType":"bytes32"},{"name":"height","type":"uint32","internalType":"uint32"},{"name":"cumulativeChainwork","type":"uint256","internalType":"uint256"}]},{"name":"swapBitcoinBlockSiblings","type":"bytes32[]","internalType":"bytes32[]"},{"name":"swapBitcoinBlockPeaks","type":"bytes32[]","internalType":"bytes32[]"}]},{"name":"blockProofParams","type":"tuple","internalType":"struct Types.BlockProofParams","components":[{"name":"priorMmrRoot","type":"bytes32","internalType":"bytes32"},{"name":"newMmrRoot","type":"bytes32","internalType":"bytes32"},{"name":"compressedBlockLeaves","type":"bytes","internalType":"bytes"},{"name":"tipBlockLeaf","type":"tuple","internalType":"struct Types.BlockLeaf","components":[{"name":"blockHash","type":"bytes32","internalType":"bytes32"},{"name":"height","type":"uint32","internalType":"uint32"},{"name":"cumulativeChainwork","type":"uint256","internalType":"uint256"}]}]},{"name":"overwriteSwaps","type":"tuple[]","internalType":"struct Types.ProposedSwap[]","components":[{"name":"swapIndex","type":"uint256","internalType":"uint256"},{"name":"depositVaultCommitment","type":"bytes32","internalType":"bytes32"},{"name":"swapBitcoinBlockHash","type":"bytes32","internalType":"bytes32"},{"name":"confirmationBlocks","type":"uint8","internalType":"uint8"},{"name":"liquidityUnlockTimestamp","type":"uint64","internalType":"uint64"},{"name":"specifiedPayoutAddress","type":"address","internalType":"address"},{"name":"totalSwapFee","type":"uint256","internalType":"uint256"},{"name":"totalSwapOutput","type":"uint256","internalType":"uint256"},{"name":"state","type":"uint8","internalType":"enum Types.SwapState"}]},{"name":"proof","type":"bytes","internalType":"bytes"}],"outputs":[],"stateMutability":"nonpayable"},{"type":"function","name":"swapCommitments","inputs":[{"name":"","type":"uint256","internalType":"uint256"}],"outputs":[{"name":"","type":"bytes32","internalType":"bytes32"}],"stateMutability":"view"},{"type":"function","name":"transferOwnership","inputs":[{"name":"newOwner","type":"address","internalType":"address"}],"outputs":[],"stateMutability":"nonpayable"},{"type":"function","name":"updateLightClient","inputs":[{"name":"blockProofParams","type":"tuple","internalType":"struct Types.BlockProofParams","components":[{"name":"priorMmrRoot","type":"bytes32","internalType":"bytes32"},{"name":"newMmrRoot","type":"bytes32","internalType":"bytes32"},{"name":"compressedBlockLeaves","type":"bytes","internalType":"bytes"},{"name":"tipBlockLeaf","type":"tuple","internalType":"struct Types.BlockLeaf","components":[{"name":"blockHash","type":"bytes32","internalType":"bytes32"},{"name":"height","type":"uint32","internalType":"uint32"},{"name":"cumulativeChainwork","type":"uint256","internalType":"uint256"}]}]},{"name":"proof","type":"bytes","internalType":"bytes"}],"outputs":[],"stateMutability":"nonpayable"},{"type":"function","name":"vaultCommitments","inputs":[{"name":"","type":"uint256","internalType":"uint256"}],"outputs":[{"name":"","type":"bytes32","internalType":"bytes32"}],"stateMutability":"view"},{"type":"function","name":"verifyZkProof","inputs":[{"name":"proofPublicInput","type":"tuple","internalType":"struct Types.ProofPublicInput","components":[{"name":"proofType","type":"uint8","internalType":"enum Types.ProofType"},{"name":"swaps","type":"tuple[]","internalType":"struct Types.SwapPublicInput[]","components":[{"name":"swapBitcoinTxid","type":"bytes32","internalType":"bytes32"},{"name":"swapBitcoinBlockHash","type":"bytes32","internalType":"bytes32"},{"name":"depositVaultCommitment","type":"bytes32","internalType":"bytes32"}]},{"name":"lightClient","type":"tuple","internalType":"struct Types.LightClientPublicInput","components":[{"name":"previousMmrRoot","type":"bytes32","internalType":"bytes32"},{"name":"newMmrRoot","type":"bytes32","internalType":"bytes32"},{"name":"compressedLeavesCommitment","type":"bytes32","internalType":"bytes32"},{"name":"tipBlockLeaf","type":"tuple","internalType":"struct Types.BlockLeaf","components":[{"name":"blockHash","type":"bytes32","internalType":"bytes32"},{"name":"height","type":"uint32","internalType":"uint32"},{"name":"cumulativeChainwork","type":"uint256","internalType":"uint256"}]}]}]},{"name":"proof","type":"bytes","internalType":"bytes"}],"outputs":[],"stateMutability":"view"},{"type":"function","name":"withdrawLiquidity","inputs":[{"name":"vault","type":"tuple","internalType":"struct Types.DepositVault","components":[{"name":"vaultIndex","type":"uint256","internalType":"uint256"},{"name":"depositTimestamp","type":"uint64","internalType":"uint64"},{"name":"depositUnlockTimestamp","type":"uint64","internalType":"uint64"},{"name":"depositAmount","type":"uint256","internalType":"uint256"},{"name":"depositFee","type":"uint256","internalType":"uint256"},{"name":"expectedSats","type":"uint64","internalType":"uint64"},{"name":"btcPayoutScriptPubKey","type":"bytes25","internalType":"bytes25"},{"name":"specifiedPayoutAddress","type":"address","internalType":"address"},{"name":"ownerAddress","type":"address","internalType":"address"},{"name":"salt","type":"bytes32","internalType":"bytes32"},{"name":"confirmationBlocks","type":"uint8","internalType":"uint8"},{"name":"attestedBitcoinBlockHeight","type":"uint64","internalType":"uint64"}]}],"outputs":[],"stateMutability":"nonpayable"},{"type":"event","name":"BitcoinLightClientUpdated","inputs":[{"name":"priorMmrRoot","type":"bytes32","indexed":false,"internalType":"bytes32"},{"name":"newMmrRoot","type":"bytes32","indexed":false,"internalType":"bytes32"},{"name":"compressedBlockLeaves","type":"bytes","indexed":false,"internalType":"bytes"}],"anonymous":false},{"type":"event","name":"OwnershipTransferred","inputs":[{"name":"previousOwner","type":"address","indexed":true,"internalType":"address"},{"name":"newOwner","type":"address","indexed":true,"internalType":"address"}],"anonymous":false},{"type":"event","name":"SwapsUpdated","inputs":[{"name":"swaps","type":"tuple[]","indexed":false,"internalType":"struct Types.ProposedSwap[]","components":[{"name":"swapIndex","type":"uint256","internalType":"uint256"},{"name":"depositVaultCommitment","type":"bytes32","internalType":"bytes32"},{"name":"swapBitcoinBlockHash","type":"bytes32","internalType":"bytes32"},{"name":"confirmationBlocks","type":"uint8","internalType":"uint8"},{"name":"liquidityUnlockTimestamp","type":"uint64","internalType":"uint64"},{"name":"specifiedPayoutAddress","type":"address","internalType":"address"},{"name":"totalSwapFee","type":"uint256","internalType":"uint256"},{"name":"totalSwapOutput","type":"uint256","internalType":"uint256"},{"name":"state","type":"uint8","internalType":"enum Types.SwapState"}]},{"name":"context","type":"uint8","indexed":false,"internalType":"enum Types.SwapUpdateContext"}],"anonymous":false},{"type":"event","name":"VaultsUpdated","inputs":[{"name":"vaults","type":"tuple[]","indexed":false,"internalType":"struct Types.DepositVault[]","components":[{"name":"vaultIndex","type":"uint256","internalType":"uint256"},{"name":"depositTimestamp","type":"uint64","internalType":"uint64"},{"name":"depositUnlockTimestamp","type":"uint64","internalType":"uint64"},{"name":"depositAmount","type":"uint256","internalType":"uint256"},{"name":"depositFee","type":"uint256","internalType":"uint256"},{"name":"expectedSats","type":"uint64","internalType":"uint64"},{"name":"btcPayoutScriptPubKey","type":"bytes25","internalType":"bytes25"},{"name":"specifiedPayoutAddress","type":"address","internalType":"address"},{"name":"ownerAddress","type":"address","internalType":"address"},{"name":"salt","type":"bytes32","internalType":"bytes32"},{"name":"confirmationBlocks","type":"uint8","internalType":"uint8"},{"name":"attestedBitcoinBlockHeight","type":"uint64","internalType":"uint64"}]},{"name":"context","type":"uint8","indexed":false,"internalType":"enum Types.VaultUpdateContext"}],"anonymous":false},{"type":"error","name":"CannotOverwriteOngoingSwap","inputs":[]},{"type":"error","name":"ChainworkTooLow","inputs":[]},{"type":"error","name":"CheckpointNotEstablished","inputs":[]},{"type":"error","name":"DepositAmountTooLow","inputs":[]},{"type":"error","name":"DepositStillLocked","inputs":[]},{"type":"error","name":"DepositVaultDoesNotExist","inputs":[]},{"type":"error","name":"DepositVaultNotOverwritable","inputs":[]},{"type":"error","name":"EmptyDepositVault","inputs":[]},{"type":"error","name":"InvalidBlockInclusionProof","inputs":[]},{"type":"error","name":"InvalidScriptPubKey","inputs":[]},{"type":"error","name":"InvalidSwapBlockInclusionProof","inputs":[]},{"type":"error","name":"InvalidVaultCommitment","inputs":[]},{"type":"error","name":"NoFeeToPay","inputs":[]},{"type":"error","name":"NoSwapsToSubmit","inputs":[]},{"type":"error","name":"NotEnoughConfirmationBlocks","inputs":[]},{"type":"error","name":"NotEnoughConfirmations","inputs":[]},{"type":"error","name":"OwnableInvalidOwner","inputs":[{"name":"owner","type":"address","internalType":"address"}]},{"type":"error","name":"OwnableUnauthorizedAccount","inputs":[{"name":"account","type":"address","internalType":"address"}]},{"type":"error","name":"SatOutputTooLow","inputs":[]},{"type":"error","name":"StillInChallengePeriod","inputs":[]},{"type":"error","name":"SwapDoesNotExist","inputs":[]},{"type":"error","name":"SwapNotProved","inputs":[]},{"type":"error","name":"TransferFailed","inputs":[]}],"bytecode":{"object":"0x610100806040523461026b57806131e9803803809161001e82856102a9565b833981010390610100821261026b5780519061003c602082016102cc565b60408201519161004e606082016102cc565b93606061005d608084016102cc565b96609f19011261026b5760405191606083016001600160401b038111848210176102955760405260a0810151835260c08101519063ffffffff8216820361026b5760e091602085015201516040830152805f5560405191604083019083821060018060401b0383111761029557600392604092835260018552602085019182525f526001602052815f209351151560ff8019865416911617845551805160018501556002840163ffffffff60208301511663ffffffff19825416179055015191015533156102825760028054336001600160a01b031982168117909255604051926020928492600492849290916001600160a01b03167f8be0079c531659141344cd1fd0a4f28419497f9722a3daafe3b4186f6b6457e05f80a36001600160a01b0316608081905263313ce56760e01b82525afa908115610277575f91610237575b5060a05260c0526001600160a01b0390811660e052600680546001600160a01b03191692909116919091179055604051612f0890816102e182396080518181816102600152818161077f01528181610aac015281816113b10152612ae3015260a05181611002015260c05181818161097b015281816111880152611c41015260e0518181816110a3015281816113f50152611be20152f35b90506020813d60201161026f575b81610252602093836102a9565b8101031261026b575160ff8116810361026b575f61019f565b5f80fd5b3d9150610245565b6040513d5f823e3d90fd5b631e4fbdf760e01b5f525f60045260245ffd5b634e487b7160e01b5f52604160045260245ffd5b601f909101601f19168101906001600160401b0382119082101761029557604052565b51906001600160a01b038216820361026b5756fe60a06040526004361015610011575f80fd5b5f5f3560e01c80624b90971461159157806307a2ec521461142457806308c84e70146113e057806313f665871461139c5780631cbeebeb1461135f578063365df233146113365780634276994614611270578063428f29b814611248578063592b6649146110265780635b7f415c14610fe85780636093855014610fa3578063640179d814610f1f578063715018a614610ec2578063799fd97f14610a3c5780637c2301a6146109bd5780637ed34a361461099e5780638d5ca052146109635780638da5cb5b1461093a578063992284a61461091c5780639f63bd97146108fd578063a6a0f96e146108c3578063c190c16414610602578063ca18100d146105e4578063d21ddc61146105c7578063e1d4ceee1461041c578063eb5e91ff146103b8578063eb9ecdd1146102f9578063f23a94a91461020c578063f2fde38b146101835763f5095c1614610163575f80fd5b346101805780600319360112610180576020600354604051908152f35b80fd5b50346101805760203660031901126101805761019d611938565b6101a561279a565b6001600160a01b031680156101f857600280546001600160a01b0319811683179091556001600160a01b03167f8be0079c531659141344cd1fd0a4f28419497f9722a3daafe3b4186f6b6457e08380a380f35b631e4fbdf760e01b82526004829052602482fd5b503461018057806003193601126101805760055480156102ea57600582905560065460405163a9059cbb60e01b81526001600160a01b039091166004820152602481019190915260208180604481010381857f00000000000000000000000000000000000000000000000000000000000000006001600160a01b03165af19081156102df5782916102b0575b50156102a15780f35b6312171d8360e31b8152600490fd5b6102d2915060203d6020116102d8575b6102ca8183611867565b810190612033565b5f610298565b503d6102c0565b6040513d84823e3d90fd5b630fbcad4560e21b8252600482fd5b5034610180576020366003190112610180576004356001600160401b0381116103b457803603906101a06003198301126103b0576024810161033a81612baf565b5060848201356103a1573592600482013592610182190183121561018057602061037c610399866103946103738260048a8a01016127e3565b9485919361190b565b90919082549060031b91821b915f19901b1916179055565b612a35565b604051908152f35b630faaae6760e31b8452600484fd5b8280fd5b5080fd5b5034610180576020366003190112610180576040608091600435815260016020522061041a6103ee600160ff8454169301611986565b60405192151583526020830190604080918051845263ffffffff60208201511660208501520151910152565bf35b5034610180576060366003190112610180576004356001600160401b0381116103b45761044d903690600401611750565b6024356001600160401b0381116105c35761046c903690600401611780565b604492919235906001600160401b0382116105bf57610541936104966104bb9336906004016117b1565b9490966104b65f545f52600160205263ffffffff600260405f2001541690565b61223f565b6040949194516104ca816117de565b86815286602082015286604082015260606104e3611cb0565b9101526040516104f2816117f9565b8681528660208201528660408201526040519061050e826117de565b87825287602083015287604083015260608201526040519161052f836117f9565b87835260208301526040820152611bda565b6040519060408201604083528151809152602060608401920190845b81811061059e57857fe8b89fd0756cdb35ef6d9ff605cca13c890bbd62d2befac12cdf4cf4d3e73a7286808761059285611ab9565b8460208301520390a180f35b9091926020610120826105b46001948851611a46565b01940192910161055d565b8580fd5b8380fd5b503461018057806003193601126101805760209054604051908152f35b50346101805780600319360112610180576020600554604051908152f35b503461018057366003190161018081126103b45761061e612bec565b5060643580156108b457604435916001600160401b0383168084036108a15742106108a557610180136103b0576040519161065883611830565b60043583526024356001600160401b03811681036108a15760208401526040830152606082018181526080830191608435835260a4356001600160401b03811681036105bf5760a085015260c43566ffffffffffffff19811681036105bf5760c085015260e4356001600160a01b03811681036105bf5760e0850152610104356001600160a01b03811681036105bf5780610100860152610124356101208601526101443560ff8116810361089d576101408601528561016435946001600160401b03861686036103b4578160209561077a976101608a0152525261074961073f86612cbe565b61037c875161190b565b60405163a9059cbb60e01b81526001600160a01b039091166004820152602481019190915291829081906044820190565b0381867f00000000000000000000000000000000000000000000000000000000000000006001600160a01b03165af1908115610892578391610873575b5015610864576107c5611dac565b906107cf82611f61565b526107d981611f61565b5060405160408101604082528251809152602060608301930190845b81811061084357505050807fbcf83654bbe8d2d5a003763444fb50a895b7721b0239dcd314d345f8a3cdfb1992600160208301520390a180f35b634e487b7160e01b5f52602160045260245ffd5b909193602061018082610859600194895161204b565b0195019291016107f5565b6312171d8360e31b8252600482fd5b61088c915060203d6020116102d8576102ca8183611867565b5f6107b7565b6040513d85823e3d90fd5b8680fd5b8480fd5b6301b512a960e21b8452600484fd5b637941e9ad60e01b8352600483fd5b503461018057602036600319011261018057600435906003548210156101805760206108ee8361190b565b90549060031b1c604051908152f35b50346101805760203660031901126101805760206108ee60043561190b565b50346101805780600319360112610180576020600454604051908152f35b50346101805780600319360112610180576002546040516001600160a01b039091168152602090f35b503461018057806003193601126101805760206040517f00000000000000000000000000000000000000000000000000000000000000008152f35b50346101805760203660031901126101805760206108ee6004356118df565b50346101805760c03660031901126101805750610a386040516109df816117de565b6004358152602435602082015260443560408201526109ff36606461189f565b6060820152610a15604051916020830190611ac3565b60c08152610a2460e082611867565b604051918291602083526020830190611962565b0390f35b5034610180576020366003190112610180576004356001600160401b0381116103b457610a6d903690600401611750565b90610a7782611cce565b90610a8183611888565b92610a8f6040519485611867565b808452601f19610a9e82611888565b01855b818110610eab5750507f00000000000000000000000000000000000000000000000000000000000000006001600160a01b031691855b828110610bcb575050505060405160408101604082528251809152602060608301930190855b818110610baa57505050807fe8b89fd0756cdb35ef6d9ff605cca13c890bbd62d2befac12cdf4cf4d3e73a7292600160208301520390a160405160408101604082528251809152602060608301930190845b818110610b8957505050807fbcf83654bbe8d2d5a003763444fb50a895b7721b0239dcd314d345f8a3cdfb1992600260208301520390a180f35b909193602061018082610b9f600194895161204b565b019501929101610b4f565b909193602061012082610bc06001948951611a46565b019501929101610afd565b610bde610bd9828585611dec565b612b72565b50610100610bed828585611dec565b01356003811015610ea757600190610c0481611a3c565b03610e98576001600160401b03610c276080610c21848787611dec565b01611e0f565b164210610e8957610c456101a0610c3f838686611dec565b01612baf565b6020610c52838686611dec565b013503610e7a57610d076040610c69838686611dec565b0135610c82610140610c7c858888611dec565b016119e6565b63ffffffff610120610c95868989611dec565b01359160405193610ca5856117f9565b84521660208301526040820152610ccb610cc0848787611dec565b610160810190611e23565b90610ce5610cda868989611dec565b610180810190611e23565b92909160ff610d006060610cfa8a8d8d611dec565b01611e58565b1694612c07565b610d1f366101a0610d19848787611dec565b01611e88565b876060820152876080820152610d41610d3782612cbe565b61037c835161190b565b610d4b8288611f6e565b52610d568187611f6e565b50610d6b36610d66838686611dec565b611f82565b6002610100820152610d93610d7f82612ce6565b61037c610d8d858888611dec565b356118df565b610dad60c0610da3848787611dec565b0135600554612012565b600555610e086020610dcb60a0610dc5868989611dec565b0161201f565b60e0610dd8868989611dec565b60405163a9059cbb60e01b81526001600160a01b0390931660048401520135602482015291829081906044820190565b03818c8a5af1908115610e6f578991610e51575b5015610e425790600191610e308288611f6e565b52610e3b8187611f6e565b5001610ad7565b6312171d8360e31b8852600488fd5b610e69915060203d81116102d8576102ca8183611867565b5f610e1c565b6040513d8b823e3d90fd5b63ceb1159d60e01b8752600487fd5b632d5c37f560e21b8752600487fd5b6322fc5d4360e21b8752600487fd5b8780fd5b602090610eb6611d54565b82828901015201610aa1565b5034610180578060031936011261018057610edb61279a565b600280546001600160a01b0319811690915581906001600160a01b03167f8be0079c531659141344cd1fd0a4f28419497f9722a3daafe3b4186f6b6457e08280a380f35b5034610180576020366003190112610180576004356001600160401b0381116103b45761018060031982360301126103b457600354610f60916004016127e3565b909160035490600160401b821015610f8f57506020926103948361037c84600161039996016003556003611923565b634e487b7160e01b81526041600452602490fd5b503461018057602036600319011261018057610fbd611938565b610fc561279a565b60018060a01b03166bffffffffffffffffffffffff60a01b600654161760065580f35b5034610180578060031936011261018057602060405160ff7f0000000000000000000000000000000000000000000000000000000000000000168152f35b5034611219576040366003190112611219576004356001600160401b03811161121957806004019060c06003198236030112611219576024356001600160401b0381116112195761107b9036906004016117b1565b919092604482019061109761109083836119b4565b36916119f7565b805160209190910120947f00000000000000000000000000000000000000000000000000000000000000006001600160a01b0316946040519560206110dc8189611867565b5f8852601f19015f5b81811061121d5750509061115791611165853598606460248a013599019a60405190611110826117de565b8b82528a60208301526040820152611128368d61189f565b60608201526040519161113a836117f9565b600183526020830152604082015260405194859160208301611b09565b03601f198101855284611867565b803b15611219576111b0935f936040519586948593849363020a49e360e51b85527f000000000000000000000000000000000000000000000000000000000000000060048601611bae565b03915afa801561120e576111e6575b50916111d36111dd94926111e396946119b4565b949093369061189f565b916120f1565b80f35b6111e395939196506111dd94926112005f6111d393611867565b5f97929496509294506111bf565b6040513d5f823e3d90fd5b5f80fd5b602090611228611cb0565b82828c010152016110e5565b634e487b7160e01b5f52604160045260245ffd5b34611219575f366003190112611219576006546040516001600160a01b039091168152602090f35b3461121957366003190160a081126112195760601361121957604051611295816117f9565b600435815260243563ffffffff8116810361121957602082015260443560408201526064356001600160401b038111611219576112d6903690600401611750565b91608435916001600160401b038311611219576020936112fd61132c943690600401611750565b9161132361131e5f545f52600160205263ffffffff600260405f2001541690565b611c84565b935f5495612695565b6040519015158152f35b3461121957602036600319011261121957600435600454811015611219576108ee6020916118df565b34611219575f36600319011261121957602061138e5f545f52600160205263ffffffff600260405f2001541690565b63ffffffff60405191168152f35b34611219575f366003190112611219576040517f00000000000000000000000000000000000000000000000000000000000000006001600160a01b03168152602090f35b34611219575f366003190112611219576040517f00000000000000000000000000000000000000000000000000000000000000006001600160a01b03168152602090f35b34611219576040366003190112611219576004356001600160401b03811161121957803603906101006003198301126112195760405191611464836117f9565b8160040135600381101561121957835260248201356001600160401b038111611219578201366023820112156112195760048101356114a281611888565b916114b06040519384611867565b8183526020600460608286019402830101019036821161121957602401915b81831061155557505050602084015260c06043199091011261121957611520604051916114fb836117de565b60448101358352606481013560208401526084810135604084015260a436910161189f565b60608201526040820152602435906001600160401b0382116112195761154d6115539236906004016117b1565b91611bda565b005b606083360312611219576020606091604051611570816117f9565b853581528286013583820152604086013560408201528152019201916114cf565b34611219576080366003190112611219576004356001600160401b038111611219576115c1903690600401611750565b602435906001600160401b03821161121957816004019260c06003198436030112611219576044356001600160401b03811161121957611605903690600401611780565b90926064356001600160401b038111611219576116269036906004016117b1565b949093873593602488013592606489019460448a01996116468b8d6119b4565b611650368a61189f565b9161165c92898c6120f1565b608401611668906119e6565b936116729461223f565b9661167d91986119b4565b3690611688926119f7565b80519060200120906040519361169d856117de565b845260208401526040830152366116b39161189f565b6060820152604051936116c5856117f9565b60028552602085015260408401526116dc92611bda565b604051604081016040825282518091526060820192602001905f5b81811061172f57505050807fe8b89fd0756cdb35ef6d9ff605cca13c890bbd62d2befac12cdf4cf4d3e73a72925f60208301520390a1005b9091936020610120826117456001948951611a46565b0195019291016116f7565b9181601f84011215611219578235916001600160401b038311611219576020808501948460051b01011161121957565b9181601f84011215611219578235916001600160401b03831161121957602080850194610120850201011161121957565b9181601f84011215611219578235916001600160401b038311611219576020838186019501011161121957565b608081019081106001600160401b0382111761123457604052565b606081019081106001600160401b0382111761123457604052565b61012081019081106001600160401b0382111761123457604052565b61018081019081106001600160401b0382111761123457604052565b604081019081106001600160401b0382111761123457604052565b90601f801991011681019081106001600160401b0382111761123457604052565b6001600160401b0381116112345760051b60200190565b9190826060910312611219576040516118b7816117f9565b809280358252602081013563ffffffff81168103611219576020830152604090810135910152565b6004548110156118f75760045f5260205f2001905f90565b634e487b7160e01b5f52603260045260245ffd5b6003548110156118f75760035f5260205f2001905f90565b80548210156118f7575f5260205f2001905f90565b600435906001600160a01b038216820361121957565b35906001600160a01b038216820361121957565b805180835260209291819084018484015e5f828201840152601f01601f1916010190565b90604051611993816117f9565b6040600282948054845263ffffffff60018201541660208501520154910152565b903590601e198136030182121561121957018035906001600160401b0382116112195760200191813603831361121957565b3563ffffffff811681036112195790565b9291926001600160401b0382116112345760405191611a20601f8201601f191660200184611867565b829481845281830111611219578281602093845f960137010152565b6003111561082f57565b610100809180518452602081015160208501526040810151604085015260ff60608201511660608501526001600160401b03608082015116608085015260018060a01b0360a08201511660a085015260c081015160c085015260e081015160e0850152015191611ab583611a3c565b0152565b6002111561082f57565b90606080611b07938051845260208101516020850152604081015160408501520151910190604080918051845263ffffffff60208201511660208501520151910152565b565b602081526101208101918051611b1e81611a3c565b602083015260208101519261010060408401528351809152602061014084019401905f5b818110611b605750505060400151611b5d9160600190611ac3565b90565b9091946020606060019260408951805183528481015185840152015160408201520196019101919091611b42565b908060209392818452848401375f828201840152601f01601f1916010190565b9290611b5d9492611bcc918552606060208601526060850190611962565b926040818503910152611b8e565b6040519192907f00000000000000000000000000000000000000000000000000000000000000006001600160a01b031690611c1e9084906111579060208301611b09565b803b1561121957611c69935f936040519586948593849363020a49e360e51b85527f000000000000000000000000000000000000000000000000000000000000000060048601611bae565b03915afa801561120e57611c7a5750565b5f611b0791611867565b63ffffffff60019116019063ffffffff8211611c9c57565b634e487b7160e01b5f52601160045260245ffd5b60405190611cbd826117f9565b5f6040838281528260208201520152565b90611cd882611888565b611ce56040519182611867565b8281528092611cf6601f1991611888565b01905f5b828110611d0657505050565b602090604051611d1581611814565b5f81525f838201525f60408201525f60608201525f60808201525f60a08201525f60c08201525f60e08201525f61010082015282828501015201611cfa565b60405190611d6182611830565b5f610160838281528260208201528260408201528260608201528260808201528260a08201528260c08201528260e08201528261010082015282610120820152826101408201520152565b60408051909190611dbd8382611867565b6001815291601f1901825f5b828110611dd557505050565b602090611de0611d54565b82828501015201611dc9565b91908110156118f75760051b8101359061033e1981360301821215611219570190565b356001600160401b03811681036112195790565b903590601e198136030182121561121957018035906001600160401b03821161121957602001918160051b3603831361121957565b3560ff811681036112195790565b35906001600160401b038216820361121957565b359060ff8216820361121957565b91908261018091031261121957604051611ea181611830565b809280358252611eb360208201611e66565b6020830152611ec460408201611e66565b60408301526060810135606083015260808101356080830152611ee960a08201611e66565b60a083015260c08101359066ffffffffffffff198216820361121957610160611f5c91819360c0860152611f1f60e0820161194e565b60e0860152611f31610100820161194e565b610100860152610120810135610120860152611f506101408201611e7a565b61014086015201611e66565b910152565b8051156118f75760200190565b80518210156118f75760209160051b010190565b91908261012091031261121957604051611f9b81611814565b6101008193803583526020810135602084015260408101356040840152611fc460608201611e7a565b6060840152611fd560808201611e66565b6080840152611fe660a0820161194e565b60a084015260c081013560c084015260e081013560e08401520135906003821015611219576101000152565b91908201809211611c9c57565b356001600160a01b03811681036112195790565b90816020910312611219575180151581036112195790565b6001600160401b0361016080928051855282602082015116602086015282604082015116604086015260608101516060860152608081015160808601528260a08201511660a086015266ffffffffffffff1960c08201511660c086015260018060a01b0360e08201511660e086015260018060a01b036101008201511661010086015261012081015161012086015260ff61014082015116610140860152015116910152565b9190925f5480851461221757835f52600160205260405f2061212a60016040519261211b8461184c565b60ff8154161515845201611986565b60208201525115612208575f526001602052600360405f200154604083015111156121f9577f6768baae39ee0e687f7c44f7006a147b15ffb56031969140096fe95461eea2fd946121f492600360408051926121858461184c565b6001845260208401908152885f526001602052815f209351151560ff8019865416911617845551805160018501556002840163ffffffff60208301511663ffffffff198254161790550151910155845f5560405194859485526020850152606060408501526060840191611b8e565b0390a1565b6307800bf560e21b5f5260045ffd5b63e1965c6560e01b5f5260045ffd5b505050505050565b3561ffff811681036112195790565b91908110156118f757610120020190565b9093919360805283156126765761225584611888565b6122626040519182611867565b848152601f1961227186611888565b015f5b81811061265f575050809161228886611cce565b92600454975f985b888a10156126535780998060051b608051013561027e196080513603018112156112195760026101a08260805101013510159283611219576122da6101a083608051010135611ab9565b60805182016101a001356125b0575f198114611c9c576001019b5b60208260805101016123073682611e88565b608060608201519101908151918260011b9280840460021490151715611c9c5761233c916123369151906127d6565b92612baf565b8a6123df6101e08760805101016123808982359460405161235c816117f9565b8b6080510135815286602082015287604082015261237a8383611f6e565b52611f6e565b506123da61239a6102408a60805101018a60805101611e23565b6080519193916123b1908c01610260810190611e23565b916101608d60805101019560ff6123d26123ca89611e58565b96369061189f565b951694612c07565b611e58565b6001600160401b036123f8610180896080510101611e0f565b1663ffffffff8d16036001600160401b038111611c9c576001600160401b03166085026001600160401b038116908103611c9c5761e3b3016001600160401b038111611c9c576001600160401b036103e88161012c9316041601906001600160401b038211611c9c576001600160401b036124778160ff941642612012565b169261248a6101008a608051010161201f565b94604051986124988a611814565b89526020890152604088015216606086015260808501526001600160a01b031660a084015260c083015260e082015260016101008201526124d9838a611f6e565b526124e48289611f6e565b506124f86124f2838a611f6e565b51612ce6565b9261121957888a916125126101a082608051010135611ab9565b60805181016101a0013561255057505050600454600160401b8110156112345760019261037c828561254994016004556004611923565b0198612290565b90600194916125676101a082608051010135611ab9565b856101a08260805101013514612581575b50505050612549565b6125a79361037c9261ffff6125a06101c0610d8d95608051010161221f565b169161222e565b885f8981612578565b9b92505f926125c76101a083608051010135611ab9565b60016101a083608051010135036122f557506101c08160805101016125f6610bd98c8c61ffff6125a08661221f565b5061010061260b8c8c61ffff6125a08661221f565b013560038110156112195760029061262281611a3c565b036126445761ffff61263661263e9261221f565b168a8c61222e565b356122f5565b63a5f611fd60e01b5f5260045ffd5b50955095505050935050565b60209061266a611cb0565b82828601015201612274565b6308d98c4f60e01b5f5260045ffd5b91908110156118f75760051b0190565b919093929363ffffffff6126cc84516020860195604084885116910151919091606092604051928352602083015260408201522090565b935116905f925b80841061274957505050505f905f5b838110612723575b50501561271b576126fa91612d08565b9081156127145763ffffffff165f5260205260405f201490565b5050505f90565b505050505f90565b8161272f828688612685565b351461273d576001016126e2565b50505060015f806126ea565b9293600183811c94929381160361277c57612765858385612685565b355f52602052600160405f20945b019291906126d3565b612787858385612685565b35905f52602052600160405f2094612773565b6002546001600160a01b031633036127ae57565b63118cdaa760e01b5f523360045260245ffd5b3566ffffffffffffff19811681036112195790565b91908203918211611c9c57565b9190916127ee611d54565b506040810135906107d18210612a2657606081016103e86001600160401b0361281683611e0f565b1610612a175760c0820190600260ff61282e84611e58565b1610612a0857608083019361284a612845866127c1565b612d59565b156129f95761289e612860610140860186611e23565b9061286f610160880188611e23565b9061287d3660e08b0161189f565b9361132361131e5f545f52600160205263ffffffff600260405f2001541690565b156129ea576005810281810460051482151715611c9c5761271090049460ff6128c685611e58565b16611c20029163ffffffff8316928303611c9c5786926128e69042612012565b6001600160401b0316966128f9916127d6565b9261290390611e0f565b9061290d906127c1565b9061291a6020870161201f565b926129248761201f565b948a4660a08a01359161294a929091606092604051928352602083015260408201522090565b9661295490611e58565b9761010001612962906119e6565b986040519b6129708d611830565b8c526001600160401b0342811660208e015260408d019190915260608c019190915260808b01919091521660a089015266ffffffffffffff191660c08801526001600160a01b0390811660e08801521661010086015261012085015260ff1661014084015263ffffffff16610160830152611b5d82612cbe565b634784fd3160e01b5f5260045ffd5b63fad7db0760e01b5f5260045ffd5b63bdf8f2b360e01b5f5260045ffd5b63fde5943160e01b5f5260045ffd5b6355fcd02760e01b5f5260045ffd5b612a3d611dac565b9080612a4883611f61565b52612a5282611f61565b5060405191604083016040845281518091526020606085019201905f5b818110612b515750505082807fbcf83654bbe8d2d5a003763444fb50a895b7721b0239dcd314d345f8a3cdfb19925f6020612ab99701520390a16080606082015191015190612012565b6040516323b872dd60e01b815233600482015230602482015260448101919091526020816064815f7f00000000000000000000000000000000000000000000000000000000000000006001600160a01b03165af190811561120e575f91612b32575b5015612b2357565b6312171d8360e31b5f5260045ffd5b612b4b915060203d6020116102d8576102ca8183611867565b5f612b1b565b909192602061018082612b67600194885161204b565b019401929101612a6f565b612b90612b87612b823684611f82565b612ce6565b91356004611923565b90549060031b1c8103612ba05790565b631a40316d60e01b5f5260045ffd5b612bcd612bc4612bbf3684611e88565b612cbe565b91356003611923565b90549060031b1c8103612bdd5790565b63cd1d240d60e01b5f5260045ffd5b612bfa612bbf366004611e88565b612bcd6004356003611923565b9493612c3a93929192612c3061131e5f545f52600160205263ffffffff600260405f2001541690565b925f549488612695565b15612caf5763ffffffff6020612c635f545f52600160205263ffffffff600260405f2001541690565b930151169063ffffffff5f1991160163ffffffff8111611c9c5763ffffffff160163ffffffff8111611c9c5763ffffffff809116911610612ca057565b635c9885ab60e11b5f5260045ffd5b637344e0b760e01b5f5260045ffd5b604051612ccf60208201809361204b565b6101808152612ce06101a082611867565b51902090565b604051612cf7602082018093611a46565b6101208152612ce061014082611867565b8115612d53575f19820191808311611c9c57612d25838284612685565b3592805b612d335750505090565b5f190192612d42848385612685565b355f526020528260405f2093612d29565b50505f90565b5f81901a60f81b6001600160f81b03191680612db4575069ffffffffffffffffffff19165f81901a60f81b6001600160f81b031916159081612d99575090565b60011a60f81b6001600160f81b031916600560fa1b14919050565b60a960f81b8103612e2d575068ffffffffffffffffff19165f81901a60f81b6001600160f81b03191660a960f81b149081612e0e575b81612df3575090565b60161a60f81b6001600160f81b031916608760f81b14919050565b600181901a60f81b6001600160f81b031916600560fa1b149150612dea565b603b60f91b149081612e3f5750505f90565b81612eb3575b81612e94575b81612e75575b81612e5a575090565b60181a60f81b6001600160f81b031916602b60fa1b14919050565b601781901a60f81b6001600160f81b031916601160fb1b149150612e51565b600281901a60f81b6001600160f81b031916600560fa1b149150612e4b565b600181901a60f81b6001600160f81b03191660a960f81b149150612e4556fea264697066735822122013e9151383a068b09292feb3c16aa099268d8682b9e5fc0cdac19e8fcdf407e564736f6c634300081c0033","linkReferences":{}},"methodIdentifiers":{"CIRCUIT_VERIFICATION_KEY()":"8d5ca052","DEPOSIT_TOKEN()":"13f66587","TOKEN_DECIMALS()":"5b7f415c","VERIFIER()":"08c84e70","accumulatedFeeBalance()":"ca18100d","checkpoints(bytes32)":"eb5e91ff","depositLiquidity((address,address,uint256,uint64,bytes25,bytes32,uint8,(bytes32,uint32,uint256),bytes32[],bytes32[]))":"640179d8","depositLiquidityWithOverwrite(((address,address,uint256,uint64,bytes25,bytes32,uint8,(bytes32,uint32,uint256),bytes32[],bytes32[]),(uint256,uint64,uint64,uint256,uint256,uint64,bytes25,address,address,bytes32,uint8,uint64)))":"eb9ecdd1","feeRouterAddress()":"428f29b8","getLightClientHeight()":"1cbeebeb","getSwapCommitment(uint256)":"7ed34a36","getSwapCommitmentsLength()":"992284a6","getVaultCommitment(uint256)":"9f63bd97","getVaultCommitmentsLength()":"f5095c16","mmrRoot()":"d21ddc61","owner()":"8da5cb5b","payoutToFeeRouter()":"f23a94a9","proveBlockInclusion((bytes32,uint32,uint256),bytes32[],bytes32[])":"42769946","releaseLiquidityBatch(((uint256,bytes32,bytes32,uint8,uint64,address,uint256,uint256,uint8),uint256,uint32,bytes32[],bytes32[],(uint256,uint64,uint64,uint256,uint256,uint64,bytes25,address,address,bytes32,uint8,uint64),uint32)[])":"799fd97f","renounceOwnership()":"715018a6","serializeLightClientPublicInput((bytes32,bytes32,bytes32,(bytes32,uint32,uint256)))":"7c2301a6","setFeeRouterAddress(address)":"60938550","submitBatchSwapProof((bytes32,(uint256,uint64,uint64,uint256,uint256,uint64,bytes25,address,address,bytes32,uint8,uint64),uint8,uint16,(bytes32,uint32,uint256),bytes32[],bytes32[])[],(uint256,bytes32,bytes32,uint8,uint64,address,uint256,uint256,uint8)[],bytes)":"e1d4ceee","submitBatchSwapProofWithLightClientUpdate((bytes32,(uint256,uint64,uint64,uint256,uint256,uint64,bytes25,address,address,bytes32,uint8,uint64),uint8,uint16,(bytes32,uint32,uint256),bytes32[],bytes32[])[],(bytes32,bytes32,bytes,(bytes32,uint32,uint256)),(uint256,bytes32,bytes32,uint8,uint64,address,uint256,uint256,uint8)[],bytes)":"004b9097","swapCommitments(uint256)":"365df233","transferOwnership(address)":"f2fde38b","updateLightClient((bytes32,bytes32,bytes,(bytes32,uint32,uint256)),bytes)":"592b6649","vaultCommitments(uint256)":"a6a0f96e","verifyZkProof((uint8,(bytes32,bytes32,bytes32)[],(bytes32,bytes32,bytes32,(bytes32,uint32,uint256))),bytes)":"07a2ec52","withdrawLiquidity((uint256,uint64,uint64,uint256,uint256,uint64,bytes25,address,address,bytes32,uint8,uint64))":"c190c164"},"storageLayout":{"storage":[{"astId":42268,"contract":"src/RiftExchange.sol:RiftExchange","label":"mmrRoot","offset":0,"slot":"0","type":"t_bytes32"},{"astId":42273,"contract":"src/RiftExchange.sol:RiftExchange","label":"checkpoints","offset":0,"slot":"1","type":"t_mapping(t_bytes32,t_struct(BitcoinCheckpoint)44681_storage)"},{"astId":8,"contract":"src/RiftExchange.sol:RiftExchange","label":"_owner","offset":0,"slot":"2","type":"t_address"},{"astId":42504,"contract":"src/RiftExchange.sol:RiftExchange","label":"vaultCommitments","offset":0,"slot":"3","type":"t_array(t_bytes32)dyn_storage"},{"astId":42507,"contract":"src/RiftExchange.sol:RiftExchange","label":"swapCommitments","offset":0,"slot":"4","type":"t_array(t_bytes32)dyn_storage"},{"astId":42509,"contract":"src/RiftExchange.sol:RiftExchange","label":"accumulatedFeeBalance","offset":0,"slot":"5","type":"t_uint256"},{"astId":42511,"contract":"src/RiftExchange.sol:RiftExchange","label":"feeRouterAddress","offset":0,"slot":"6","type":"t_address"}],"types":{"t_address":{"encoding":"inplace","label":"address","numberOfBytes":"20"},"t_array(t_bytes32)dyn_storage":{"encoding":"dynamic_array","label":"bytes32[]","numberOfBytes":"32","base":"t_bytes32"},"t_bool":{"encoding":"inplace","label":"bool","numberOfBytes":"1"},"t_bytes32":{"encoding":"inplace","label":"bytes32","numberOfBytes":"32"},"t_mapping(t_bytes32,t_struct(BitcoinCheckpoint)44681_storage)":{"encoding":"mapping","key":"t_bytes32","label":"mapping(bytes32 => struct Types.BitcoinCheckpoint)","numberOfBytes":"32","value":"t_struct(BitcoinCheckpoint)44681_storage"},"t_struct(BitcoinCheckpoint)44681_storage":{"encoding":"inplace","label":"struct Types.BitcoinCheckpoint","numberOfBytes":"128","members":[{"astId":44677,"contract":"src/RiftExchange.sol:RiftExchange","label":"established","offset":0,"slot":"0","type":"t_bool"},{"astId":44680,"contract":"src/RiftExchange.sol:RiftExchange","label":"tipBlockLeaf","offset":0,"slot":"1","type":"t_struct(BlockLeaf)44470_storage"}]},"t_struct(BlockLeaf)44470_storage":{"encoding":"inplace","label":"struct Types.BlockLeaf","numberOfBytes":"96","members":[{"astId":44465,"contract":"src/RiftExchange.sol:RiftExchange","label":"blockHash","offset":0,"slot":"0","type":"t_bytes32"},{"astId":44467,"contract":"src/RiftExchange.sol:RiftExchange","label":"height","offset":0,"slot":"1","type":"t_uint32"},{"astId":44469,"contract":"src/RiftExchange.sol:RiftExchange","label":"cumulativeChainwork","offset":0,"slot":"2","type":"t_uint256"}]},"t_uint256":{"encoding":"inplace","label":"uint256","numberOfBytes":"32"},"t_uint32":{"encoding":"inplace","label":"uint32","numberOfBytes":"4"}}},"id":43}