{"abi":[{"type":"constructor","inputs":[{"name":"_mmrRoot","type":"bytes32","internalType":"bytes32"},{"name":"_depositToken","type":"address","internalType":"address"},{"name":"_circuitVerificationKey","type":"bytes32","internalType":"bytes32"},{"name":"_verifier","type":"address","internalType":"address"},{"name":"_feeRouter","type":"address","internalType":"address"}],"stateMutability":"nonpayable"},{"type":"function","name":"CIRCUIT_VERIFICATION_KEY","inputs":[],"outputs":[{"name":"","type":"bytes32","internalType":"bytes32"}],"stateMutability":"view"},{"type":"function","name":"DEPOSIT_TOKEN","inputs":[],"outputs":[{"name":"","type":"address","internalType":"contract IERC20"}],"stateMutability":"view"},{"type":"function","name":"FEE_ROUTER_ADDRESS","inputs":[],"outputs":[{"name":"","type":"address","internalType":"address"}],"stateMutability":"view"},{"type":"function","name":"TOKEN_DECIMALS","inputs":[],"outputs":[{"name":"","type":"uint8","internalType":"uint8"}],"stateMutability":"view"},{"type":"function","name":"VERIFIER","inputs":[],"outputs":[{"name":"","type":"address","internalType":"contract ISP1Verifier"}],"stateMutability":"view"},{"type":"function","name":"_proveBlockInclusion","inputs":[{"name":"blockLeaf","type":"tuple","internalType":"struct Types.BlockLeaf","components":[{"name":"blockHash","type":"bytes32","internalType":"bytes32"},{"name":"height","type":"uint32","internalType":"uint32"},{"name":"cumulativeChainwork","type":"uint256","internalType":"uint256"}]},{"name":"siblings","type":"bytes32[]","internalType":"bytes32[]"},{"name":"peaks","type":"bytes32[]","internalType":"bytes32[]"},{"name":"tipBlockHeight","type":"uint32","internalType":"uint32"}],"outputs":[{"name":"","type":"bool","internalType":"bool"}],"stateMutability":"view"},{"type":"function","name":"_proveBlockInclusionAtTip","inputs":[{"name":"blockLeaf","type":"tuple","internalType":"struct Types.BlockLeaf","components":[{"name":"blockHash","type":"bytes32","internalType":"bytes32"},{"name":"height","type":"uint32","internalType":"uint32"},{"name":"cumulativeChainwork","type":"uint256","internalType":"uint256"}]},{"name":"siblings","type":"bytes32[]","internalType":"bytes32[]"},{"name":"peaks","type":"bytes32[]","internalType":"bytes32[]"}],"outputs":[{"name":"","type":"bool","internalType":"bool"}],"stateMutability":"view"},{"type":"function","name":"accumulatedFeeBalance","inputs":[],"outputs":[{"name":"","type":"uint256","internalType":"uint256"}],"stateMutability":"view"},{"type":"function","name":"depositLiquidity","inputs":[{"name":"params","type":"tuple","internalType":"struct Types.DepositLiquidityParams","components":[{"name":"specifiedPayoutAddress","type":"address","internalType":"address"},{"name":"depositAmount","type":"uint256","internalType":"uint256"},{"name":"expectedSats","type":"uint64","internalType":"uint64"},{"name":"btcPayoutScriptPubKey","type":"bytes22","internalType":"bytes22"},{"name":"depositSalt","type":"bytes32","internalType":"bytes32"},{"name":"confirmationBlocks","type":"uint8","internalType":"uint8"},{"name":"tipBlockLeaf","type":"tuple","internalType":"struct Types.BlockLeaf","components":[{"name":"blockHash","type":"bytes32","internalType":"bytes32"},{"name":"height","type":"uint32","internalType":"uint32"},{"name":"cumulativeChainwork","type":"uint256","internalType":"uint256"}]},{"name":"tipBlockSiblings","type":"bytes32[]","internalType":"bytes32[]"},{"name":"tipBlockPeaks","type":"bytes32[]","internalType":"bytes32[]"}]}],"outputs":[],"stateMutability":"nonpayable"},{"type":"function","name":"depositLiquidityWithOverwrite","inputs":[{"name":"params","type":"tuple","internalType":"struct Types.DepositLiquidityWithOverwriteParams","components":[{"name":"depositParams","type":"tuple","internalType":"struct Types.DepositLiquidityParams","components":[{"name":"specifiedPayoutAddress","type":"address","internalType":"address"},{"name":"depositAmount","type":"uint256","internalType":"uint256"},{"name":"expectedSats","type":"uint64","internalType":"uint64"},{"name":"btcPayoutScriptPubKey","type":"bytes22","internalType":"bytes22"},{"name":"depositSalt","type":"bytes32","internalType":"bytes32"},{"name":"confirmationBlocks","type":"uint8","internalType":"uint8"},{"name":"tipBlockLeaf","type":"tuple","internalType":"struct Types.BlockLeaf","components":[{"name":"blockHash","type":"bytes32","internalType":"bytes32"},{"name":"height","type":"uint32","internalType":"uint32"},{"name":"cumulativeChainwork","type":"uint256","internalType":"uint256"}]},{"name":"tipBlockSiblings","type":"bytes32[]","internalType":"bytes32[]"},{"name":"tipBlockPeaks","type":"bytes32[]","internalType":"bytes32[]"}]},{"name":"overwriteVault","type":"tuple","internalType":"struct Types.DepositVault","components":[{"name":"vaultIndex","type":"uint256","internalType":"uint256"},{"name":"depositTimestamp","type":"uint64","internalType":"uint64"},{"name":"depositAmount","type":"uint256","internalType":"uint256"},{"name":"depositFee","type":"uint256","internalType":"uint256"},{"name":"expectedSats","type":"uint64","internalType":"uint64"},{"name":"btcPayoutScriptPubKey","type":"bytes22","internalType":"bytes22"},{"name":"specifiedPayoutAddress","type":"address","internalType":"address"},{"name":"ownerAddress","type":"address","internalType":"address"},{"name":"salt","type":"bytes32","internalType":"bytes32"},{"name":"confirmationBlocks","type":"uint8","internalType":"uint8"},{"name":"attestedBitcoinBlockHeight","type":"uint64","internalType":"uint64"}]}]}],"outputs":[],"stateMutability":"nonpayable"},{"type":"function","name":"getSwapCommitment","inputs":[{"name":"swapIndex","type":"uint256","internalType":"uint256"}],"outputs":[{"name":"","type":"bytes32","internalType":"bytes32"}],"stateMutability":"view"},{"type":"function","name":"getSwapCommitmentsLength","inputs":[],"outputs":[{"name":"","type":"uint256","internalType":"uint256"}],"stateMutability":"view"},{"type":"function","name":"getVaultCommitment","inputs":[{"name":"vaultIndex","type":"uint256","internalType":"uint256"}],"outputs":[{"name":"","type":"bytes32","internalType":"bytes32"}],"stateMutability":"view"},{"type":"function","name":"getVaultCommitmentsLength","inputs":[],"outputs":[{"name":"","type":"uint256","internalType":"uint256"}],"stateMutability":"view"},{"type":"function","name":"mmrRoot","inputs":[],"outputs":[{"name":"","type":"bytes32","internalType":"bytes32"}],"stateMutability":"view"},{"type":"function","name":"payoutToFeeRouter","inputs":[],"outputs":[],"stateMutability":"nonpayable"},{"type":"function","name":"releaseLiquidity","inputs":[{"name":"params","type":"tuple","internalType":"struct Types.ReleaseLiquidityParams","components":[{"name":"swap","type":"tuple","internalType":"struct Types.ProposedSwap","components":[{"name":"swapIndex","type":"uint256","internalType":"uint256"},{"name":"depositVaultCommitment","type":"bytes32","internalType":"bytes32"},{"name":"swapBitcoinBlockHash","type":"bytes32","internalType":"bytes32"},{"name":"confirmationBlocks","type":"uint8","internalType":"uint8"},{"name":"liquidityUnlockTimestamp","type":"uint64","internalType":"uint64"},{"name":"specifiedPayoutAddress","type":"address","internalType":"address"},{"name":"totalSwapFee","type":"uint256","internalType":"uint256"},{"name":"totalSwapOutput","type":"uint256","internalType":"uint256"},{"name":"state","type":"uint8","internalType":"enum Types.SwapState"}]},{"name":"swapBlockChainwork","type":"uint256","internalType":"uint256"},{"name":"swapBlockHeight","type":"uint32","internalType":"uint32"},{"name":"bitcoinSwapBlockSiblings","type":"bytes32[]","internalType":"bytes32[]"},{"name":"bitcoinSwapBlockPeaks","type":"bytes32[]","internalType":"bytes32[]"},{"name":"bitcoinConfirmationBlockLeaf","type":"tuple","internalType":"struct Types.BlockLeaf","components":[{"name":"blockHash","type":"bytes32","internalType":"bytes32"},{"name":"height","type":"uint32","internalType":"uint32"},{"name":"cumulativeChainwork","type":"uint256","internalType":"uint256"}]},{"name":"bitcoinConfirmationBlockSiblings","type":"bytes32[]","internalType":"bytes32[]"},{"name":"bitcoinConfirmationBlockPeaks","type":"bytes32[]","internalType":"bytes32[]"},{"name":"utilizedVault","type":"tuple","internalType":"struct Types.DepositVault","components":[{"name":"vaultIndex","type":"uint256","internalType":"uint256"},{"name":"depositTimestamp","type":"uint64","internalType":"uint64"},{"name":"depositAmount","type":"uint256","internalType":"uint256"},{"name":"depositFee","type":"uint256","internalType":"uint256"},{"name":"expectedSats","type":"uint64","internalType":"uint64"},{"name":"btcPayoutScriptPubKey","type":"bytes22","internalType":"bytes22"},{"name":"specifiedPayoutAddress","type":"address","internalType":"address"},{"name":"ownerAddress","type":"address","internalType":"address"},{"name":"salt","type":"bytes32","internalType":"bytes32"},{"name":"confirmationBlocks","type":"uint8","internalType":"uint8"},{"name":"attestedBitcoinBlockHeight","type":"uint64","internalType":"uint64"}]},{"name":"tipBlockHeight","type":"uint32","internalType":"uint32"}]}],"outputs":[],"stateMutability":"nonpayable"},{"type":"function","name":"submitBatchSwapProof","inputs":[{"name":"swapParams","type":"tuple[]","internalType":"struct Types.SubmitSwapProofParams[]","components":[{"name":"swapBitcoinTxid","type":"bytes32","internalType":"bytes32"},{"name":"swapBitcoinBlockHash","type":"bytes32","internalType":"bytes32"},{"name":"vault","type":"tuple","internalType":"struct Types.DepositVault","components":[{"name":"vaultIndex","type":"uint256","internalType":"uint256"},{"name":"depositTimestamp","type":"uint64","internalType":"uint64"},{"name":"depositAmount","type":"uint256","internalType":"uint256"},{"name":"depositFee","type":"uint256","internalType":"uint256"},{"name":"expectedSats","type":"uint64","internalType":"uint64"},{"name":"btcPayoutScriptPubKey","type":"bytes22","internalType":"bytes22"},{"name":"specifiedPayoutAddress","type":"address","internalType":"address"},{"name":"ownerAddress","type":"address","internalType":"address"},{"name":"salt","type":"bytes32","internalType":"bytes32"},{"name":"confirmationBlocks","type":"uint8","internalType":"uint8"},{"name":"attestedBitcoinBlockHeight","type":"uint64","internalType":"uint64"}]},{"name":"storageStrategy","type":"uint8","internalType":"enum Types.StorageStrategy"},{"name":"localOverwriteIndex","type":"uint16","internalType":"uint16"}]},{"name":"blockProofParams","type":"tuple","internalType":"struct Types.BlockProofParams","components":[{"name":"priorMmrRoot","type":"bytes32","internalType":"bytes32"},{"name":"newMmrRoot","type":"bytes32","internalType":"bytes32"},{"name":"compressedBlockLeaves","type":"bytes","internalType":"bytes"},{"name":"tipBlockLeaf","type":"tuple","internalType":"struct Types.BlockLeaf","components":[{"name":"blockHash","type":"bytes32","internalType":"bytes32"},{"name":"height","type":"uint32","internalType":"uint32"},{"name":"cumulativeChainwork","type":"uint256","internalType":"uint256"}]},{"name":"tipBlockSiblings","type":"bytes32[]","internalType":"bytes32[]"},{"name":"tipBlockPeaks","type":"bytes32[]","internalType":"bytes32[]"}]},{"name":"overwriteSwaps","type":"tuple[]","internalType":"struct Types.ProposedSwap[]","components":[{"name":"swapIndex","type":"uint256","internalType":"uint256"},{"name":"depositVaultCommitment","type":"bytes32","internalType":"bytes32"},{"name":"swapBitcoinBlockHash","type":"bytes32","internalType":"bytes32"},{"name":"confirmationBlocks","type":"uint8","internalType":"uint8"},{"name":"liquidityUnlockTimestamp","type":"uint64","internalType":"uint64"},{"name":"specifiedPayoutAddress","type":"address","internalType":"address"},{"name":"totalSwapFee","type":"uint256","internalType":"uint256"},{"name":"totalSwapOutput","type":"uint256","internalType":"uint256"},{"name":"state","type":"uint8","internalType":"enum Types.SwapState"}]},{"name":"proof","type":"bytes","internalType":"bytes"}],"outputs":[],"stateMutability":"nonpayable"},{"type":"function","name":"swapCommitments","inputs":[{"name":"","type":"uint256","internalType":"uint256"}],"outputs":[{"name":"","type":"bytes32","internalType":"bytes32"}],"stateMutability":"view"},{"type":"function","name":"vaultCommitments","inputs":[{"name":"","type":"uint256","internalType":"uint256"}],"outputs":[{"name":"","type":"bytes32","internalType":"bytes32"}],"stateMutability":"view"},{"type":"function","name":"withdrawLiquidity","inputs":[{"name":"vault","type":"tuple","internalType":"struct Types.DepositVault","components":[{"name":"vaultIndex","type":"uint256","internalType":"uint256"},{"name":"depositTimestamp","type":"uint64","internalType":"uint64"},{"name":"depositAmount","type":"uint256","internalType":"uint256"},{"name":"depositFee","type":"uint256","internalType":"uint256"},{"name":"expectedSats","type":"uint64","internalType":"uint64"},{"name":"btcPayoutScriptPubKey","type":"bytes22","internalType":"bytes22"},{"name":"specifiedPayoutAddress","type":"address","internalType":"address"},{"name":"ownerAddress","type":"address","internalType":"address"},{"name":"salt","type":"bytes32","internalType":"bytes32"},{"name":"confirmationBlocks","type":"uint8","internalType":"uint8"},{"name":"attestedBitcoinBlockHeight","type":"uint64","internalType":"uint64"}]}],"outputs":[],"stateMutability":"nonpayable"},{"type":"event","name":"BlockTreeUpdated","inputs":[{"name":"treeRoot","type":"bytes32","indexed":false,"internalType":"bytes32"},{"name":"compressedBlockLeaves","type":"bytes","indexed":false,"internalType":"bytes"}],"anonymous":false},{"type":"event","name":"SwapsUpdated","inputs":[{"name":"swaps","type":"tuple[]","indexed":false,"internalType":"struct Types.ProposedSwap[]","components":[{"name":"swapIndex","type":"uint256","internalType":"uint256"},{"name":"depositVaultCommitment","type":"bytes32","internalType":"bytes32"},{"name":"swapBitcoinBlockHash","type":"bytes32","internalType":"bytes32"},{"name":"confirmationBlocks","type":"uint8","internalType":"uint8"},{"name":"liquidityUnlockTimestamp","type":"uint64","internalType":"uint64"},{"name":"specifiedPayoutAddress","type":"address","internalType":"address"},{"name":"totalSwapFee","type":"uint256","internalType":"uint256"},{"name":"totalSwapOutput","type":"uint256","internalType":"uint256"},{"name":"state","type":"uint8","internalType":"enum Types.SwapState"}]},{"name":"context","type":"uint8","indexed":false,"internalType":"enum Types.SwapUpdateContext"}],"anonymous":false},{"type":"event","name":"VaultUpdated","inputs":[{"name":"vault","type":"tuple","indexed":false,"internalType":"struct Types.DepositVault","components":[{"name":"vaultIndex","type":"uint256","internalType":"uint256"},{"name":"depositTimestamp","type":"uint64","internalType":"uint64"},{"name":"depositAmount","type":"uint256","internalType":"uint256"},{"name":"depositFee","type":"uint256","internalType":"uint256"},{"name":"expectedSats","type":"uint64","internalType":"uint64"},{"name":"btcPayoutScriptPubKey","type":"bytes22","internalType":"bytes22"},{"name":"specifiedPayoutAddress","type":"address","internalType":"address"},{"name":"ownerAddress","type":"address","internalType":"address"},{"name":"salt","type":"bytes32","internalType":"bytes32"},{"name":"confirmationBlocks","type":"uint8","internalType":"uint8"},{"name":"attestedBitcoinBlockHeight","type":"uint64","internalType":"uint64"}]},{"name":"context","type":"uint8","indexed":false,"internalType":"enum Types.VaultUpdateContext"}],"anonymous":false},{"type":"error","name":"CannotOverwriteOngoingSwap","inputs":[]},{"type":"error","name":"DepositAmountTooLow","inputs":[]},{"type":"error","name":"DepositStillLocked","inputs":[]},{"type":"error","name":"DepositVaultDoesNotExist","inputs":[]},{"type":"error","name":"DepositVaultNotOverwritable","inputs":[]},{"type":"error","name":"EmptyDepositVault","inputs":[]},{"type":"error","name":"InvalidConfirmationBlockDelta","inputs":[]},{"type":"error","name":"InvalidConfirmationBlockInclusionProof","inputs":[]},{"type":"error","name":"InvalidScriptPubKey","inputs":[]},{"type":"error","name":"InvalidSwapBlockInclusionProof","inputs":[]},{"type":"error","name":"InvalidTipBlockInclusionProof","inputs":[]},{"type":"error","name":"InvalidVaultCommitment","inputs":[]},{"type":"error","name":"NoFeeToPay","inputs":[]},{"type":"error","name":"SatOutputTooLow","inputs":[]},{"type":"error","name":"StillInChallengePeriod","inputs":[]},{"type":"error","name":"SwapDoesNotExist","inputs":[]},{"type":"error","name":"SwapNotProved","inputs":[]},{"type":"error","name":"TransferFailed","inputs":[]}],"bytecode":{"object":"0x61012080604052346101495760a08161239980380380916100208285610160565b8339810103126101495780519061003960208201610197565b6004602060408401519261005b608061005460608801610197565b9601610197565b5f969096556001600160a01b0316608081905260405163313ce56760e01b815292839182905afa908115610155575f91610115575b5060a05260c0526001600160a01b031660e052610100526040516121ed90816101ac8239608051818181610195015281816111af015281816114e9015281816115b60152611eb5015260a051816104a3015260c0518181816104020152610be3015260e051818181610ae001526115f701526101005181818161015b015261043b0152f35b90506020813d60201161014d575b8161013060209383610160565b81010312610149575160ff81168103610149575f610090565b5f80fd5b3d9150610123565b6040513d5f823e3d90fd5b601f909101601f19168101906001600160401b0382119082101761018357604052565b634e487b7160e01b5f52604160045260245ffd5b51906001600160a01b03821682036101495756fe6080806040526004361015610012575f80fd5b5f905f3560e01c90816308c84e70146115e55750806313f66587146115a157806316a6db201461136557806322f66c0e146112fa5780632e2d2dde14610e9757806334abb156146105a8578063365df2331461057d5780635a6f4eb7146104c75780635b7f415c146104895780637ed34a361461046a578063898aeacb146104255780638d5ca052146103ea578063992284a6146103cc5780639f63bd97146103ad578063a6a0f96e14610373578063ca18100d14610355578063d21ddc6114610338578063d9c2328f146102cd578063e78aa9d51461022e578063f23a94a9146101255763f5095c1614610105575f80fd5b346101225780600319360112610122576020600154604051908152f35b80fd5b5034610122578060031936011261012257600354801561021f57600382905560405163a9059cbb60e01b81526001600160a01b037f0000000000000000000000000000000000000000000000000000000000000000166004820152602481019190915260208180604481010381857f00000000000000000000000000000000000000000000000000000000000000006001600160a01b03165af19081156102145782916101e5575b50156101d65780f35b6312171d8360e31b8152600490fd5b610207915060203d60201161020d575b6101ff81836116d2565b8101906118c8565b5f6101cd565b503d6101f5565b6040513d84823e3d90fd5b630fbcad4560e21b8252600482fd5b50346101225760c036600319011261012257610249366116f3565b6064356001600160401b0381116102c957610268903690600401611771565b906084356001600160401b0381116102c557610288903690600401611771565b92909160a43563ffffffff811681036102c1579160209693916102af6102b79796946119d9565b945495611ff5565b6040519015158152f35b8680fd5b8480fd5b8280fd5b50346101225760a0366003190112610122576102e8366116f3565b6064356001600160401b0381116102c957610307903690600401611771565b9092608435906001600160401b0382116101225760206102b78686866103303660048901611771565b939092611b43565b503461012257806003193601126101225760209054604051908152f35b50346101225780600319360112610122576020600354604051908152f35b5034610122576020366003190112610122576004359060015482101561012257602061039e83611626565b90549060031b1c604051908152f35b503461012257602036600319011261012257602061039e600435611626565b50346101225780600319360112610122576020600254604051908152f35b503461012257806003193601126101225760206040517f00000000000000000000000000000000000000000000000000000000000000008152f35b50346101225780600319360112610122576040517f00000000000000000000000000000000000000000000000000000000000000006001600160a01b03168152602090f35b503461012257602036600319011261012257602061039e600435611652565b5034610122578060031936011261012257602060405160ff7f0000000000000000000000000000000000000000000000000000000000000000168152f35b5034610122576020366003190112610122576004356001600160401b03811161057957803603906101806003198301126102c957602481019182359060048301359061016219018112156102c5578261052a836004606494610532970101611c0e565b949095611ba8565b50013561056a57610567929161054a61056292611626565b90919082549060031b91821b915f19901b1916179055565b611e3e565b80f35b630faaae6760e31b8452600484fd5b5080fd5b5034610122576020366003190112610122576004359060025482101561012257602061039e83611652565b5034610a72576080366003190112610a72576001600160401b0360043511610a7257366023600435011215610a72576001600160401b036004356004013511610a72573660246101e06004356004013502600435010111610a72576001600160401b0360243511610a725761010060243536036003190112610a7257604435906001600160401b038211610a725736602383011215610a72576001600160401b03826004013511610a725736602461012084600401350284010111610a72576001600160401b0360643511610a7257366023606435011215610a72576001600160401b036064356004013511610a725736602460643560040135606435010111610a72576106bb60043560040135611a8e565b916106c960405193846116d2565b600480350135808452601f19906106df90611a8e565b015f5b818110610e6e5750506106fa60043560040135611a8e565b9061070860405192836116d2565b600480350135808352601f199061071e90611a8e565b015f5b818110610e2057505061073960043560040135611a8e565b9161074760405193846116d2565b600480350135808452601f199061075d90611a8e565b013660208501376002545f905b60043560040135821015610a7657806101c46101e084026004350101356002811015610a725761079981611b39565b806109af57505f19811461099b57600101915b60646101e082026004350101916107c336846117eb565b92606060408501519401938451948560011b958087046002149015171561099b576107f9916107f3915190611c01565b91611ba8565b9360446101e08502600435010135948b61083a866040519261081a8461167f565b60246101e083026004350101358452896020850152846040850152611ab2565b52610845858d611ab2565b5061085b6101846101e0870260043501016119cb565b9561086a608460243501611985565b63ffffffff6001600160401b0361088c6101a46101e08b0260043501016117a1565b169116036001600160401b03811161099b576001600160401b03166085026001600160401b03811690810361099b5761e3b3016001600160401b03811161099b576001600160401b036103e881603c93160416016001600160401b03811161099b576001976001600160401b036109078160ff941642611a81565b169261091e6101246101e08b0260043501016118b4565b946040519861092c8a61169a565b8952602089015260408801521660608601526080850152858060a01b031660a084015260c083015260e08201528261010082015261096a8286611ab2565b526109758185611ab2565b506109896109838286611ab2565b51611f51565b6109938288611ab2565b52019061076a565b634e487b7160e01b5f52601160045260245ffd5b9092906001906109be81611b39565b036107ac5790506109f76109f261ffff6109e36101e46101e086026004350101611f73565b16866004013560248801611f82565b611f14565b50610100610a1661ffff6109e36101e46101e086026004350101611f73565b01356003811015610a7257600290610a2d8161197b565b03610a6357610a5c61ffff610a4d6101e46101e085026004350101611f73565b16856004013560248701611f82565b35906107ac565b63a5f611fd60e01b5f5260045ffd5b5f80fd5b8583868960446024350190610a9082602435600401611f93565b6001600160401b038111610e0c5760405190610ab6601f8201601f1916602001836116d2565b80825260208201923682820111610a7257815f926020928637830101525190209160018060a01b037f00000000000000000000000000000000000000000000000000000000000000001660243560040135926024803501359460405190610b1c8261167f565b858252866020830152604082015260405190610b378261167f565b600282526020820192835260408201908152604051809260208201946020865260e083019151610b668161197b565b6040840152519060a060608401528151809152602061010084019201905f5b818110610dd2575050925180516080840152602081015160a08401526040015160c083015203601f1981018352610bbd9150826116d2565b823b15610a7257610c4d925f926084926040519586948593849363020a49e360e51b85527f00000000000000000000000000000000000000000000000000000000000000006004860152606060248601525180918160648701528386015e8381018201889052601f01601f1916830183810382016003190160448501520160046064359081013590602401611fc5565b03915afa8015610dc757610da7575b5090610c71610c799392602435600401611f93565b9290916120fa565b610cbc610c9060c460243501602435600401611996565b90610ca560e460243501602435600401611996565b929091610cb736606460243501611731565b611b43565b15610d9857825b8251811015610d1857610cd68183611ab2565b51600254600160401b811015610d04576001929161054a8285610cfe9401600255600261166a565b01610cc3565b634e487b7160e01b86526041600452602486fd5b50506040519060408201604083528151809152602060608401920190845b818110610d7757857fe8b89fd0756cdb35ef6d9ff605cca13c890bbd62d2befac12cdf4cf4d3e73a72868087610d6b85611b39565b8460208301520390a180f35b909192602061012082610d8d6001948851611ac6565b019401929101610d36565b633666f0e160e21b8352600483fd5b610c7993929196505f610db9916116d2565b610c715f9691929350610c5c565b6040513d5f823e3d90fd5b91949350916020606082610dfd60019489516040809180518452602081015160208501520151910152565b01950191019185939492610b85565b634e487b7160e01b5f52604160045260245ffd5b602090604051610e2f8161169a565b5f81525f838201525f60408201525f60608201525f60808201525f60a08201525f60c08201525f60e08201525f61010082015282828701015201610721565b602090604051610e7d8161167f565b5f81525f838201525f6040820152828288010152016106e2565b34610a72576020366003190112610a72576004356001600160401b038111610a7257806004016103c06003198336030112610a7257610ed581611f14565b506101048201356003811015610a7257600190610ef18161197b565b036112eb576001600160401b03610f0a608484016117a1565b1642106112dc576101448201610f8e610f2282611985565b63ffffffff60405191610f348361167f565b604487013583521660208201526101248501356040820152610f5a610164860185611996565b929091610f6b610184880187611996565b6103a489019591610f83610f7e88611985565b6119d9565b925f54968795611ff5565b156112cd57610fdf91610fc1610fa8610204880187611996565b610fb96102248a9593950189611996565b939092611985565b93610fd9610fd3366101a48d01611731565b956119d9565b94611ff5565b156112be57610ffa610ff46101c48501611985565b91611985565b63ffffffff60ff61100d606487016119cb565b1691160163ffffffff811161099b5763ffffffff8091169116036112af57610244820161103981611ba8565b6024840135036112a0576101806110727f24e3dfec7094aa50543676beff35467ddf376469fa05571e4d1b729f3514507f9236906117eb565b5f60408201525f606082015261109461108a82611bc1565b61054a8351611626565b6110a160405180926118e0565b6002610160820152a16110d36110b736836119f1565b91600261010084015261054a6110cc84611f51565b9135611652565b6110e360c4830135600354611a81565b6003556040805191906110f681846116d2565b60018352601f19015f5b81811061125257505061111282611aa5565b5261111c81611aa5565b50604051604081016040825282518091526020606083019301905f5b81811061123157505050807fe8b89fd0756cdb35ef6d9ff605cca13c890bbd62d2befac12cdf4cf4d3e73a7292600160208301520390a1602060e461117f60a484016118b4565b60405163a9059cbb60e01b81526001600160a01b039091166004820152920135602483015281806044810103815f7f00000000000000000000000000000000000000000000000000000000000000006001600160a01b03165af1908115610dc7575f916111fe575b50156111ef57005b6312171d8360e31b5f5260045ffd5b611217915060203d60201161020d576101ff81836116d2565b816111e7565b634e487b7160e01b5f52602160045260245ffd5b9091936020610120826112476001948951611ac6565b019501929101611138565b6020906040516112618161169a565b5f81525f838201525f60408201525f60608201525f60808201525f60a08201525f60c08201525f60e08201525f61010082015282828701015201611100565b63ceb1159d60e01b5f5260045ffd5b638e082f6760e01b5f5260045ffd5b638ce0b4c760e01b5f5260045ffd5b637344e0b760e01b5f5260045ffd5b632d5c37f560e21b5f5260045ffd5b6322fc5d4360e21b5f5260045ffd5b34610a72576020366003190112610a72576004356001600160401b038111610a72576101606003198236030112610a725760015461133a91600401611c0e565b90600154600160401b811015610e0c576113639261054a8260016105629401600155600161166a565b005b34610a725736600319016101608112610a7257611380611b69565b50604435801561159257602435916001600160401b038316808403610a7257617080016001600160401b03811161099b576001600160401b031642106115835761016013610a7257604051916113d5836116b6565b6004359081845260208401526040830191808352606084019160643583526084356001600160401b0381168103610a7257608086015260a43569ffffffffffffffffffff1981168103610a725760a086015260c4356001600160a01b0381168103610a725760c086015260e435906001600160a01b0382168203610a72578160e0870152610104356101008701526101243560ff81168103610a725761012087015261014435906001600160401b0382168203610a72575f602095816114e4986114b3956101408c0152525261054a6114ad88611bc1565b91611626565b60405163a9059cbb60e01b81526001600160a01b039091166004820152602481019190915291829081906044820190565b03815f7f00000000000000000000000000000000000000000000000000000000000000006001600160a01b03165af1908115610dc7575f91611564575b50156111ef576101807f24e3dfec7094aa50543676beff35467ddf376469fa05571e4d1b729f3514507f9161155960405180926118e0565b6001610160820152a1005b61157d915060203d60201161020d576101ff81836116d2565b82611521565b6301b512a960e21b5f5260045ffd5b637941e9ad60e01b5f5260045ffd5b34610a72575f366003190112610a72576040517f00000000000000000000000000000000000000000000000000000000000000006001600160a01b03168152602090f35b34610a72575f366003190112610a72577f00000000000000000000000000000000000000000000000000000000000000006001600160a01b03168152602090f35b60015481101561163e5760015f5260205f2001905f90565b634e487b7160e01b5f52603260045260245ffd5b60025481101561163e5760025f5260205f2001905f90565b805482101561163e575f5260205f2001905f90565b606081019081106001600160401b03821117610e0c57604052565b61012081019081106001600160401b03821117610e0c57604052565b61016081019081106001600160401b03821117610e0c57604052565b90601f801991011681019081106001600160401b03821117610e0c57604052565b6060906003190112610a72576040519061170c8261167f565b81600435815260243563ffffffff81168103610a725760208201526040604435910152565b9190826060910312610a72576040516117498161167f565b809280358252602081013563ffffffff81168103610a72576020830152604090810135910152565b9181601f84011215610a72578235916001600160401b038311610a72576020808501948460051b010111610a7257565b356001600160401b0381168103610a725790565b35906001600160401b0382168203610a7257565b35906001600160a01b0382168203610a7257565b359060ff82168203610a7257565b919082610160910312610a7257604051611804816116b6565b809280358252611816602082016117b5565b6020830152604081013560408301526060810135606083015261183b608082016117b5565b608083015260a08101359069ffffffffffffffffffff1982168203610a72576101406118af91819360a086015261187460c082016117c9565b60c086015261188560e082016117c9565b60e08601526101008101356101008601526118a361012082016117dd565b610120860152016117b5565b910152565b356001600160a01b0381168103610a725790565b90816020910312610a7257518015158103610a725790565b6001600160401b03610140809280518552826020820151166020860152604081015160408601526060810151606086015282608082015116608086015269ffffffffffffffffffff1960a08201511660a086015260018060a01b0360c08201511660c086015260018060a01b0360e08201511660e086015261010081015161010086015260ff61012082015116610120860152015116910152565b6003111561121d57565b3563ffffffff81168103610a725790565b903590601e1981360301821215610a7257018035906001600160401b038211610a7257602001918160051b36038313610a7257565b3560ff81168103610a725790565b63ffffffff60019116019063ffffffff821161099b57565b919082610120910312610a7257604051611a0a8161169a565b6101008193803583526020810135602084015260408101356040840152611a33606082016117dd565b6060840152611a44608082016117b5565b6080840152611a5560a082016117c9565b60a084015260c081013560c084015260e081013560e08401520135906003821015610a72576101000152565b9190820180921161099b57565b6001600160401b038111610e0c5760051b60200190565b80511561163e5760200190565b805182101561163e5760209160051b010190565b610100809180518452602081015160208501526040810151604085015260ff60608201511660608501526001600160401b03608082015116608085015260018060a01b0360a08201511660a085015260c081015160c085015260e081015160e0850152015191611b358361197b565b0152565b6002111561121d57565b92611b66949192611b5d63ffffffff6020870151166119d9565b935f5495611ff5565b90565b611b7c611b773660046117eb565b611bc1565b611b89600435600161166a565b90549060031b1c8103611b995790565b63cd1d240d60e01b5f5260045ffd5b611b89611bb8611b7736846117eb565b9135600161166a565b604051611bd26020820180936118e0565b6101608152611be3610180826116d2565b51902090565b3569ffffffffffffffffffff1981168103610a725790565b9190820391821161099b57565b9190915f610140604051611c21816116b6565b8281528260208201528260408201528260608201528260808201528260a08201528260c08201528260e0820152826101008201528261012082015201526020810135926107d18410611e2f57604082016103e86001600160401b03611c85836117a1565b1610611e20576060830192611c9984611be9565b5f81901a60f81b6001600160f81b031916159081611e02575b5015611df357611ce8611cc9610120830183611996565b90611cd8610140850185611996565b929091610cb73660c08801611731565b15611de45760058602918683046005148715171561099b57611d879663ffffffff956001600160401b03611d35611d2f611d2961271060ff99048096611c01565b956117a1565b92611be9565b91611d3f866118b4565b93611d63468a60808a01359091606092604051928352602083015260408201522090565b95611d7c60e0611d7560a08b016119cb565b9901611985565b996040519d8e6116b6565b8d5242841660208e015260408d015260608c01521660808a015269ffffffffffffffffffff191660a08901526001600160a01b031660c08801523360e08801526101008701521661012085015216610140830152611b6682611bc1565b633666f0e160e21b5f5260045ffd5b63fad7db0760e01b5f5260045ffd5b60011a60f81b6001600160f81b031916600560fa1b1490505f611cb2565b63fde5943160e01b5f5260045ffd5b6355fcd02760e01b5f5260045ffd5b611e8b907f24e3dfec7094aa50543676beff35467ddf376469fa05571e4d1b729f3514507f610180604051611e7381856118e0565b5f610160820152a16060604082015191015190611a81565b6040516323b872dd60e01b815233600482015230602482015260448101919091526020816064815f7f00000000000000000000000000000000000000000000000000000000000000006001600160a01b03165af1908115610dc7575f91611ef5575b50156111ef57565b611f0e915060203d60201161020d576101ff81836116d2565b5f611eed565b611f32611f29611f2436846119f1565b611f51565b9135600261166a565b90549060031b1c8103611f425790565b631a40316d60e01b5f5260045ffd5b604051611f62602082018093611ac6565b6101208152611be3610140826116d2565b3561ffff81168103610a725790565b919081101561163e57610120020190565b903590601e1981360301821215610a7257018035906001600160401b038211610a7257602001918136038313610a7257565b908060209392818452848401375f828201840152601f01601f1916010190565b919081101561163e5760051b0190565b919093929363ffffffff61202c84516020860195604084885116910151919091606092604051928352602083015260408201522090565b935116905f925b8084106120a957505050505f905f5b838110612083575b50501561207b5761205a91612166565b9081156120745763ffffffff165f5260205260405f201490565b5050505f90565b505050505f90565b8161208f828688611fe5565b351461209d57600101612042565b50505060015f8061204a565b9293600183811c9492938116036120dc576120c5858385611fe5565b355f52602052600160405f20945b01929190612033565b6120e7858385611fe5565b35905f52602052600160405f20946120d3565b929192815f5482149182159261215c575b5050612157576121527f9b2f63e83fb6fca69cac8064b1700d250ea342927ef73fb1a519b5df4e4f111893825f556040519384938452604060208501526040840191611fc5565b0390a1565b505050565b149050815f61210b565b81156121b1575f1982019180831161099b57612183838284611fe5565b3592805b6121915750505090565b5f1901926121a0848385611fe5565b355f526020528260405f2093612187565b50505f9056fea264697066735822122081cae180249ee1aa209bd12216886348e511510a83ab7814a07a02c6e8b16f6364736f6c634300081c0033","linkReferences":{}},"methodIdentifiers":{"CIRCUIT_VERIFICATION_KEY()":"8d5ca052","DEPOSIT_TOKEN()":"13f66587","FEE_ROUTER_ADDRESS()":"898aeacb","TOKEN_DECIMALS()":"5b7f415c","VERIFIER()":"08c84e70","_proveBlockInclusion((bytes32,uint32,uint256),bytes32[],bytes32[],uint32)":"e78aa9d5","_proveBlockInclusionAtTip((bytes32,uint32,uint256),bytes32[],bytes32[])":"d9c2328f","accumulatedFeeBalance()":"ca18100d","depositLiquidity((address,uint256,uint64,bytes22,bytes32,uint8,(bytes32,uint32,uint256),bytes32[],bytes32[]))":"22f66c0e","depositLiquidityWithOverwrite(((address,uint256,uint64,bytes22,bytes32,uint8,(bytes32,uint32,uint256),bytes32[],bytes32[]),(uint256,uint64,uint256,uint256,uint64,bytes22,address,address,bytes32,uint8,uint64)))":"5a6f4eb7","getSwapCommitment(uint256)":"7ed34a36","getSwapCommitmentsLength()":"992284a6","getVaultCommitment(uint256)":"9f63bd97","getVaultCommitmentsLength()":"f5095c16","mmrRoot()":"d21ddc61","payoutToFeeRouter()":"f23a94a9","releaseLiquidity(((uint256,bytes32,bytes32,uint8,uint64,address,uint256,uint256,uint8),uint256,uint32,bytes32[],bytes32[],(bytes32,uint32,uint256),bytes32[],bytes32[],(uint256,uint64,uint256,uint256,uint64,bytes22,address,address,bytes32,uint8,uint64),uint32))":"2e2d2dde","submitBatchSwapProof((bytes32,bytes32,(uint256,uint64,uint256,uint256,uint64,bytes22,address,address,bytes32,uint8,uint64),uint8,uint16)[],(bytes32,bytes32,bytes,(bytes32,uint32,uint256),bytes32[],bytes32[]),(uint256,bytes32,bytes32,uint8,uint64,address,uint256,uint256,uint8)[],bytes)":"34abb156","swapCommitments(uint256)":"365df233","vaultCommitments(uint256)":"a6a0f96e","withdrawLiquidity((uint256,uint64,uint256,uint256,uint64,bytes22,address,address,bytes32,uint8,uint64))":"16a6db20"},"storageLayout":{"storage":[{"astId":42260,"contract":"src/RiftExchange.sol:RiftExchange","label":"mmrRoot","offset":0,"slot":"0","type":"t_bytes32"},{"astId":42402,"contract":"src/RiftExchange.sol:RiftExchange","label":"vaultCommitments","offset":0,"slot":"1","type":"t_array(t_bytes32)dyn_storage"},{"astId":42405,"contract":"src/RiftExchange.sol:RiftExchange","label":"swapCommitments","offset":0,"slot":"2","type":"t_array(t_bytes32)dyn_storage"},{"astId":42407,"contract":"src/RiftExchange.sol:RiftExchange","label":"accumulatedFeeBalance","offset":0,"slot":"3","type":"t_uint256"}],"types":{"t_array(t_bytes32)dyn_storage":{"encoding":"dynamic_array","label":"bytes32[]","numberOfBytes":"32","base":"t_bytes32"},"t_bytes32":{"encoding":"inplace","label":"bytes32","numberOfBytes":"32"},"t_uint256":{"encoding":"inplace","label":"uint256","numberOfBytes":"32"}}},"id":41}