{"abi":[{"type":"constructor","inputs":[{"name":"_mmrRoot","type":"bytes32","internalType":"bytes32"},{"name":"_depositToken","type":"address","internalType":"address"},{"name":"_circuitVerificationKey","type":"bytes32","internalType":"bytes32"},{"name":"_verifier","type":"address","internalType":"address"},{"name":"_feeRouter","type":"address","internalType":"address"},{"name":"_tipBlockLeaf","type":"tuple","internalType":"struct Types.BlockLeaf","components":[{"name":"blockHash","type":"bytes32","internalType":"bytes32"},{"name":"height","type":"uint32","internalType":"uint32"},{"name":"cumulativeChainwork","type":"uint256","internalType":"uint256"}]}],"stateMutability":"nonpayable"},{"type":"function","name":"CIRCUIT_VERIFICATION_KEY","inputs":[],"outputs":[{"name":"","type":"bytes32","internalType":"bytes32"}],"stateMutability":"view"},{"type":"function","name":"ERC20_BTC","inputs":[],"outputs":[{"name":"","type":"address","internalType":"address"}],"stateMutability":"view"},{"type":"function","name":"VERIFIER","inputs":[],"outputs":[{"name":"","type":"address","internalType":"contract ISP1Verifier"}],"stateMutability":"view"},{"type":"function","name":"accumulatedFeeBalance","inputs":[],"outputs":[{"name":"","type":"uint256","internalType":"uint256"}],"stateMutability":"view"},{"type":"function","name":"cancelOwnershipHandover","inputs":[],"outputs":[],"stateMutability":"payable"},{"type":"function","name":"checkpoints","inputs":[{"name":"","type":"bytes32","internalType":"bytes32"}],"outputs":[{"name":"established","type":"bool","internalType":"bool"},{"name":"tipBlockLeaf","type":"tuple","internalType":"struct Types.BlockLeaf","components":[{"name":"blockHash","type":"bytes32","internalType":"bytes32"},{"name":"height","type":"uint32","internalType":"uint32"},{"name":"cumulativeChainwork","type":"uint256","internalType":"uint256"}]}],"stateMutability":"view"},{"type":"function","name":"completeOwnershipHandover","inputs":[{"name":"pendingOwner","type":"address","internalType":"address"}],"outputs":[],"stateMutability":"payable"},{"type":"function","name":"depositLiquidity","inputs":[{"name":"params","type":"tuple","internalType":"struct Types.DepositLiquidityParams","components":[{"name":"depositOwnerAddress","type":"address","internalType":"address"},{"name":"specifiedPayoutAddress","type":"address","internalType":"address"},{"name":"depositAmount","type":"uint256","internalType":"uint256"},{"name":"expectedSats","type":"uint64","internalType":"uint64"},{"name":"btcPayoutScriptPubKey","type":"bytes25","internalType":"bytes25"},{"name":"depositSalt","type":"bytes32","internalType":"bytes32"},{"name":"confirmationBlocks","type":"uint8","internalType":"uint8"},{"name":"safeBlockLeaf","type":"tuple","internalType":"struct Types.BlockLeaf","components":[{"name":"blockHash","type":"bytes32","internalType":"bytes32"},{"name":"height","type":"uint32","internalType":"uint32"},{"name":"cumulativeChainwork","type":"uint256","internalType":"uint256"}]},{"name":"safeBlockSiblings","type":"bytes32[]","internalType":"bytes32[]"},{"name":"safeBlockPeaks","type":"bytes32[]","internalType":"bytes32[]"}]}],"outputs":[{"name":"","type":"bytes32","internalType":"bytes32"}],"stateMutability":"nonpayable"},{"type":"function","name":"depositLiquidityWithOverwrite","inputs":[{"name":"params","type":"tuple","internalType":"struct Types.DepositLiquidityWithOverwriteParams","components":[{"name":"depositParams","type":"tuple","internalType":"struct Types.DepositLiquidityParams","components":[{"name":"depositOwnerAddress","type":"address","internalType":"address"},{"name":"specifiedPayoutAddress","type":"address","internalType":"address"},{"name":"depositAmount","type":"uint256","internalType":"uint256"},{"name":"expectedSats","type":"uint64","internalType":"uint64"},{"name":"btcPayoutScriptPubKey","type":"bytes25","internalType":"bytes25"},{"name":"depositSalt","type":"bytes32","internalType":"bytes32"},{"name":"confirmationBlocks","type":"uint8","internalType":"uint8"},{"name":"safeBlockLeaf","type":"tuple","internalType":"struct Types.BlockLeaf","components":[{"name":"blockHash","type":"bytes32","internalType":"bytes32"},{"name":"height","type":"uint32","internalType":"uint32"},{"name":"cumulativeChainwork","type":"uint256","internalType":"uint256"}]},{"name":"safeBlockSiblings","type":"bytes32[]","internalType":"bytes32[]"},{"name":"safeBlockPeaks","type":"bytes32[]","internalType":"bytes32[]"}]},{"name":"overwriteVault","type":"tuple","internalType":"struct Types.DepositVault","components":[{"name":"vaultIndex","type":"uint256","internalType":"uint256"},{"name":"depositTimestamp","type":"uint64","internalType":"uint64"},{"name":"depositUnlockTimestamp","type":"uint64","internalType":"uint64"},{"name":"depositAmount","type":"uint256","internalType":"uint256"},{"name":"depositFee","type":"uint256","internalType":"uint256"},{"name":"expectedSats","type":"uint64","internalType":"uint64"},{"name":"btcPayoutScriptPubKey","type":"bytes25","internalType":"bytes25"},{"name":"specifiedPayoutAddress","type":"address","internalType":"address"},{"name":"ownerAddress","type":"address","internalType":"address"},{"name":"salt","type":"bytes32","internalType":"bytes32"},{"name":"confirmationBlocks","type":"uint8","internalType":"uint8"},{"name":"attestedBitcoinBlockHeight","type":"uint64","internalType":"uint64"}]}]}],"outputs":[{"name":"","type":"bytes32","internalType":"bytes32"}],"stateMutability":"nonpayable"},{"type":"function","name":"feeRouterAddress","inputs":[],"outputs":[{"name":"","type":"address","internalType":"address"}],"stateMutability":"view"},{"type":"function","name":"getLightClientHeight","inputs":[],"outputs":[{"name":"","type":"uint32","internalType":"uint32"}],"stateMutability":"view"},{"type":"function","name":"getSwapHash","inputs":[{"name":"swapIndex","type":"uint256","internalType":"uint256"}],"outputs":[{"name":"","type":"bytes32","internalType":"bytes32"}],"stateMutability":"view"},{"type":"function","name":"getSwapHashesLength","inputs":[],"outputs":[{"name":"","type":"uint256","internalType":"uint256"}],"stateMutability":"view"},{"type":"function","name":"getVaultHash","inputs":[{"name":"vaultIndex","type":"uint256","internalType":"uint256"}],"outputs":[{"name":"","type":"bytes32","internalType":"bytes32"}],"stateMutability":"view"},{"type":"function","name":"getVaultHashesLength","inputs":[],"outputs":[{"name":"","type":"uint256","internalType":"uint256"}],"stateMutability":"view"},{"type":"function","name":"mmrRoot","inputs":[],"outputs":[{"name":"","type":"bytes32","internalType":"bytes32"}],"stateMutability":"view"},{"type":"function","name":"owner","inputs":[],"outputs":[{"name":"result","type":"address","internalType":"address"}],"stateMutability":"view"},{"type":"function","name":"ownershipHandoverExpiresAt","inputs":[{"name":"pendingOwner","type":"address","internalType":"address"}],"outputs":[{"name":"result","type":"uint256","internalType":"uint256"}],"stateMutability":"view"},{"type":"function","name":"payoutToFeeRouter","inputs":[],"outputs":[],"stateMutability":"nonpayable"},{"type":"function","name":"proveBlockInclusion","inputs":[{"name":"blockLeaf","type":"tuple","internalType":"struct Types.BlockLeaf","components":[{"name":"blockHash","type":"bytes32","internalType":"bytes32"},{"name":"height","type":"uint32","internalType":"uint32"},{"name":"cumulativeChainwork","type":"uint256","internalType":"uint256"}]},{"name":"siblings","type":"bytes32[]","internalType":"bytes32[]"},{"name":"peaks","type":"bytes32[]","internalType":"bytes32[]"}],"outputs":[{"name":"","type":"bool","internalType":"bool"}],"stateMutability":"view"},{"type":"function","name":"releaseLiquidityBatch","inputs":[{"name":"paramsArray","type":"tuple[]","internalType":"struct Types.ReleaseLiquidityParams[]","components":[{"name":"swap","type":"tuple","internalType":"struct Types.ProposedSwap","components":[{"name":"swapIndex","type":"uint256","internalType":"uint256"},{"name":"depositVaultHash","type":"bytes32","internalType":"bytes32"},{"name":"swapBitcoinBlockLeaf","type":"tuple","internalType":"struct Types.BlockLeaf","components":[{"name":"blockHash","type":"bytes32","internalType":"bytes32"},{"name":"height","type":"uint32","internalType":"uint32"},{"name":"cumulativeChainwork","type":"uint256","internalType":"uint256"}]},{"name":"confirmationBlocks","type":"uint8","internalType":"uint8"},{"name":"liquidityUnlockTimestamp","type":"uint64","internalType":"uint64"},{"name":"specifiedPayoutAddress","type":"address","internalType":"address"},{"name":"totalSwapFee","type":"uint256","internalType":"uint256"},{"name":"totalSwapOutput","type":"uint256","internalType":"uint256"},{"name":"state","type":"uint8","internalType":"enum Types.SwapState"}]},{"name":"bitcoinSwapBlockSiblings","type":"bytes32[]","internalType":"bytes32[]"},{"name":"bitcoinSwapBlockPeaks","type":"bytes32[]","internalType":"bytes32[]"},{"name":"utilizedVault","type":"tuple","internalType":"struct Types.DepositVault","components":[{"name":"vaultIndex","type":"uint256","internalType":"uint256"},{"name":"depositTimestamp","type":"uint64","internalType":"uint64"},{"name":"depositUnlockTimestamp","type":"uint64","internalType":"uint64"},{"name":"depositAmount","type":"uint256","internalType":"uint256"},{"name":"depositFee","type":"uint256","internalType":"uint256"},{"name":"expectedSats","type":"uint64","internalType":"uint64"},{"name":"btcPayoutScriptPubKey","type":"bytes25","internalType":"bytes25"},{"name":"specifiedPayoutAddress","type":"address","internalType":"address"},{"name":"ownerAddress","type":"address","internalType":"address"},{"name":"salt","type":"bytes32","internalType":"bytes32"},{"name":"confirmationBlocks","type":"uint8","internalType":"uint8"},{"name":"attestedBitcoinBlockHeight","type":"uint64","internalType":"uint64"}]},{"name":"tipBlockHeight","type":"uint32","internalType":"uint32"}]}],"outputs":[],"stateMutability":"nonpayable"},{"type":"function","name":"renounceOwnership","inputs":[],"outputs":[],"stateMutability":"payable"},{"type":"function","name":"requestOwnershipHandover","inputs":[],"outputs":[],"stateMutability":"payable"},{"type":"function","name":"serializeLightClientPublicInput","inputs":[{"name":"input","type":"tuple","internalType":"struct Types.LightClientPublicInput","components":[{"name":"previousMmrRoot","type":"bytes32","internalType":"bytes32"},{"name":"newMmrRoot","type":"bytes32","internalType":"bytes32"},{"name":"compressedLeavesHash","type":"bytes32","internalType":"bytes32"},{"name":"tipBlockLeaf","type":"tuple","internalType":"struct Types.BlockLeaf","components":[{"name":"blockHash","type":"bytes32","internalType":"bytes32"},{"name":"height","type":"uint32","internalType":"uint32"},{"name":"cumulativeChainwork","type":"uint256","internalType":"uint256"}]}]}],"outputs":[{"name":"","type":"bytes","internalType":"bytes"}],"stateMutability":"pure"},{"type":"function","name":"setFeeRouterAddress","inputs":[{"name":"_feeRouter","type":"address","internalType":"address"}],"outputs":[],"stateMutability":"nonpayable"},{"type":"function","name":"submitBatchSwapProof","inputs":[{"name":"swapParams","type":"tuple[]","internalType":"struct Types.SubmitSwapProofParams[]","components":[{"name":"swapBitcoinTxid","type":"bytes32","internalType":"bytes32"},{"name":"vault","type":"tuple","internalType":"struct Types.DepositVault","components":[{"name":"vaultIndex","type":"uint256","internalType":"uint256"},{"name":"depositTimestamp","type":"uint64","internalType":"uint64"},{"name":"depositUnlockTimestamp","type":"uint64","internalType":"uint64"},{"name":"depositAmount","type":"uint256","internalType":"uint256"},{"name":"depositFee","type":"uint256","internalType":"uint256"},{"name":"expectedSats","type":"uint64","internalType":"uint64"},{"name":"btcPayoutScriptPubKey","type":"bytes25","internalType":"bytes25"},{"name":"specifiedPayoutAddress","type":"address","internalType":"address"},{"name":"ownerAddress","type":"address","internalType":"address"},{"name":"salt","type":"bytes32","internalType":"bytes32"},{"name":"confirmationBlocks","type":"uint8","internalType":"uint8"},{"name":"attestedBitcoinBlockHeight","type":"uint64","internalType":"uint64"}]},{"name":"storageStrategy","type":"uint8","internalType":"enum Types.StorageStrategy"},{"name":"localOverwriteIndex","type":"uint16","internalType":"uint16"},{"name":"swapBitcoinBlockLeaf","type":"tuple","internalType":"struct Types.BlockLeaf","components":[{"name":"blockHash","type":"bytes32","internalType":"bytes32"},{"name":"height","type":"uint32","internalType":"uint32"},{"name":"cumulativeChainwork","type":"uint256","internalType":"uint256"}]},{"name":"swapBitcoinBlockSiblings","type":"bytes32[]","internalType":"bytes32[]"},{"name":"swapBitcoinBlockPeaks","type":"bytes32[]","internalType":"bytes32[]"}]},{"name":"overwriteSwaps","type":"tuple[]","internalType":"struct Types.ProposedSwap[]","components":[{"name":"swapIndex","type":"uint256","internalType":"uint256"},{"name":"depositVaultHash","type":"bytes32","internalType":"bytes32"},{"name":"swapBitcoinBlockLeaf","type":"tuple","internalType":"struct Types.BlockLeaf","components":[{"name":"blockHash","type":"bytes32","internalType":"bytes32"},{"name":"height","type":"uint32","internalType":"uint32"},{"name":"cumulativeChainwork","type":"uint256","internalType":"uint256"}]},{"name":"confirmationBlocks","type":"uint8","internalType":"uint8"},{"name":"liquidityUnlockTimestamp","type":"uint64","internalType":"uint64"},{"name":"specifiedPayoutAddress","type":"address","internalType":"address"},{"name":"totalSwapFee","type":"uint256","internalType":"uint256"},{"name":"totalSwapOutput","type":"uint256","internalType":"uint256"},{"name":"state","type":"uint8","internalType":"enum Types.SwapState"}]},{"name":"proof","type":"bytes","internalType":"bytes"}],"outputs":[],"stateMutability":"nonpayable"},{"type":"function","name":"submitBatchSwapProofWithLightClientUpdate","inputs":[{"name":"swapParams","type":"tuple[]","internalType":"struct Types.SubmitSwapProofParams[]","components":[{"name":"swapBitcoinTxid","type":"bytes32","internalType":"bytes32"},{"name":"vault","type":"tuple","internalType":"struct Types.DepositVault","components":[{"name":"vaultIndex","type":"uint256","internalType":"uint256"},{"name":"depositTimestamp","type":"uint64","internalType":"uint64"},{"name":"depositUnlockTimestamp","type":"uint64","internalType":"uint64"},{"name":"depositAmount","type":"uint256","internalType":"uint256"},{"name":"depositFee","type":"uint256","internalType":"uint256"},{"name":"expectedSats","type":"uint64","internalType":"uint64"},{"name":"btcPayoutScriptPubKey","type":"bytes25","internalType":"bytes25"},{"name":"specifiedPayoutAddress","type":"address","internalType":"address"},{"name":"ownerAddress","type":"address","internalType":"address"},{"name":"salt","type":"bytes32","internalType":"bytes32"},{"name":"confirmationBlocks","type":"uint8","internalType":"uint8"},{"name":"attestedBitcoinBlockHeight","type":"uint64","internalType":"uint64"}]},{"name":"storageStrategy","type":"uint8","internalType":"enum Types.StorageStrategy"},{"name":"localOverwriteIndex","type":"uint16","internalType":"uint16"},{"name":"swapBitcoinBlockLeaf","type":"tuple","internalType":"struct Types.BlockLeaf","components":[{"name":"blockHash","type":"bytes32","internalType":"bytes32"},{"name":"height","type":"uint32","internalType":"uint32"},{"name":"cumulativeChainwork","type":"uint256","internalType":"uint256"}]},{"name":"swapBitcoinBlockSiblings","type":"bytes32[]","internalType":"bytes32[]"},{"name":"swapBitcoinBlockPeaks","type":"bytes32[]","internalType":"bytes32[]"}]},{"name":"blockProofParams","type":"tuple","internalType":"struct Types.BlockProofParams","components":[{"name":"priorMmrRoot","type":"bytes32","internalType":"bytes32"},{"name":"newMmrRoot","type":"bytes32","internalType":"bytes32"},{"name":"compressedBlockLeaves","type":"bytes","internalType":"bytes"},{"name":"tipBlockLeaf","type":"tuple","internalType":"struct Types.BlockLeaf","components":[{"name":"blockHash","type":"bytes32","internalType":"bytes32"},{"name":"height","type":"uint32","internalType":"uint32"},{"name":"cumulativeChainwork","type":"uint256","internalType":"uint256"}]}]},{"name":"overwriteSwaps","type":"tuple[]","internalType":"struct Types.ProposedSwap[]","components":[{"name":"swapIndex","type":"uint256","internalType":"uint256"},{"name":"depositVaultHash","type":"bytes32","internalType":"bytes32"},{"name":"swapBitcoinBlockLeaf","type":"tuple","internalType":"struct Types.BlockLeaf","components":[{"name":"blockHash","type":"bytes32","internalType":"bytes32"},{"name":"height","type":"uint32","internalType":"uint32"},{"name":"cumulativeChainwork","type":"uint256","internalType":"uint256"}]},{"name":"confirmationBlocks","type":"uint8","internalType":"uint8"},{"name":"liquidityUnlockTimestamp","type":"uint64","internalType":"uint64"},{"name":"specifiedPayoutAddress","type":"address","internalType":"address"},{"name":"totalSwapFee","type":"uint256","internalType":"uint256"},{"name":"totalSwapOutput","type":"uint256","internalType":"uint256"},{"name":"state","type":"uint8","internalType":"enum Types.SwapState"}]},{"name":"proof","type":"bytes","internalType":"bytes"}],"outputs":[],"stateMutability":"nonpayable"},{"type":"function","name":"swapHashes","inputs":[{"name":"","type":"uint256","internalType":"uint256"}],"outputs":[{"name":"","type":"bytes32","internalType":"bytes32"}],"stateMutability":"view"},{"type":"function","name":"transferOwnership","inputs":[{"name":"newOwner","type":"address","internalType":"address"}],"outputs":[],"stateMutability":"payable"},{"type":"function","name":"updateLightClient","inputs":[{"name":"blockProofParams","type":"tuple","internalType":"struct Types.BlockProofParams","components":[{"name":"priorMmrRoot","type":"bytes32","internalType":"bytes32"},{"name":"newMmrRoot","type":"bytes32","internalType":"bytes32"},{"name":"compressedBlockLeaves","type":"bytes","internalType":"bytes"},{"name":"tipBlockLeaf","type":"tuple","internalType":"struct Types.BlockLeaf","components":[{"name":"blockHash","type":"bytes32","internalType":"bytes32"},{"name":"height","type":"uint32","internalType":"uint32"},{"name":"cumulativeChainwork","type":"uint256","internalType":"uint256"}]}]},{"name":"proof","type":"bytes","internalType":"bytes"}],"outputs":[],"stateMutability":"nonpayable"},{"type":"function","name":"vaultHashes","inputs":[{"name":"","type":"uint256","internalType":"uint256"}],"outputs":[{"name":"","type":"bytes32","internalType":"bytes32"}],"stateMutability":"view"},{"type":"function","name":"verifyZkProof","inputs":[{"name":"proofPublicInput","type":"tuple","internalType":"struct Types.ProofPublicInput","components":[{"name":"proofType","type":"uint8","internalType":"enum Types.ProofType"},{"name":"swaps","type":"tuple[]","internalType":"struct Types.SwapPublicInput[]","components":[{"name":"swapBitcoinTxid","type":"bytes32","internalType":"bytes32"},{"name":"swapBitcoinBlockHash","type":"bytes32","internalType":"bytes32"},{"name":"depositVaultHash","type":"bytes32","internalType":"bytes32"}]},{"name":"lightClient","type":"tuple","internalType":"struct Types.LightClientPublicInput","components":[{"name":"previousMmrRoot","type":"bytes32","internalType":"bytes32"},{"name":"newMmrRoot","type":"bytes32","internalType":"bytes32"},{"name":"compressedLeavesHash","type":"bytes32","internalType":"bytes32"},{"name":"tipBlockLeaf","type":"tuple","internalType":"struct Types.BlockLeaf","components":[{"name":"blockHash","type":"bytes32","internalType":"bytes32"},{"name":"height","type":"uint32","internalType":"uint32"},{"name":"cumulativeChainwork","type":"uint256","internalType":"uint256"}]}]}]},{"name":"proof","type":"bytes","internalType":"bytes"}],"outputs":[],"stateMutability":"view"},{"type":"function","name":"withdrawLiquidity","inputs":[{"name":"vault","type":"tuple","internalType":"struct Types.DepositVault","components":[{"name":"vaultIndex","type":"uint256","internalType":"uint256"},{"name":"depositTimestamp","type":"uint64","internalType":"uint64"},{"name":"depositUnlockTimestamp","type":"uint64","internalType":"uint64"},{"name":"depositAmount","type":"uint256","internalType":"uint256"},{"name":"depositFee","type":"uint256","internalType":"uint256"},{"name":"expectedSats","type":"uint64","internalType":"uint64"},{"name":"btcPayoutScriptPubKey","type":"bytes25","internalType":"bytes25"},{"name":"specifiedPayoutAddress","type":"address","internalType":"address"},{"name":"ownerAddress","type":"address","internalType":"address"},{"name":"salt","type":"bytes32","internalType":"bytes32"},{"name":"confirmationBlocks","type":"uint8","internalType":"uint8"},{"name":"attestedBitcoinBlockHeight","type":"uint64","internalType":"uint64"}]}],"outputs":[],"stateMutability":"nonpayable"},{"type":"event","name":"BitcoinLightClientUpdated","inputs":[{"name":"priorMmrRoot","type":"bytes32","indexed":false,"internalType":"bytes32"},{"name":"newMmrRoot","type":"bytes32","indexed":false,"internalType":"bytes32"},{"name":"compressedBlockLeaves","type":"bytes","indexed":false,"internalType":"bytes"}],"anonymous":false},{"type":"event","name":"OwnershipHandoverCanceled","inputs":[{"name":"pendingOwner","type":"address","indexed":true,"internalType":"address"}],"anonymous":false},{"type":"event","name":"OwnershipHandoverRequested","inputs":[{"name":"pendingOwner","type":"address","indexed":true,"internalType":"address"}],"anonymous":false},{"type":"event","name":"OwnershipTransferred","inputs":[{"name":"oldOwner","type":"address","indexed":true,"internalType":"address"},{"name":"newOwner","type":"address","indexed":true,"internalType":"address"}],"anonymous":false},{"type":"event","name":"SwapsUpdated","inputs":[{"name":"swaps","type":"tuple[]","indexed":false,"internalType":"struct Types.ProposedSwap[]","components":[{"name":"swapIndex","type":"uint256","internalType":"uint256"},{"name":"depositVaultHash","type":"bytes32","internalType":"bytes32"},{"name":"swapBitcoinBlockLeaf","type":"tuple","internalType":"struct Types.BlockLeaf","components":[{"name":"blockHash","type":"bytes32","internalType":"bytes32"},{"name":"height","type":"uint32","internalType":"uint32"},{"name":"cumulativeChainwork","type":"uint256","internalType":"uint256"}]},{"name":"confirmationBlocks","type":"uint8","internalType":"uint8"},{"name":"liquidityUnlockTimestamp","type":"uint64","internalType":"uint64"},{"name":"specifiedPayoutAddress","type":"address","internalType":"address"},{"name":"totalSwapFee","type":"uint256","internalType":"uint256"},{"name":"totalSwapOutput","type":"uint256","internalType":"uint256"},{"name":"state","type":"uint8","internalType":"enum Types.SwapState"}]},{"name":"context","type":"uint8","indexed":false,"internalType":"enum Types.SwapUpdateContext"}],"anonymous":false},{"type":"event","name":"VaultsUpdated","inputs":[{"name":"vaults","type":"tuple[]","indexed":false,"internalType":"struct Types.DepositVault[]","components":[{"name":"vaultIndex","type":"uint256","internalType":"uint256"},{"name":"depositTimestamp","type":"uint64","internalType":"uint64"},{"name":"depositUnlockTimestamp","type":"uint64","internalType":"uint64"},{"name":"depositAmount","type":"uint256","internalType":"uint256"},{"name":"depositFee","type":"uint256","internalType":"uint256"},{"name":"expectedSats","type":"uint64","internalType":"uint64"},{"name":"btcPayoutScriptPubKey","type":"bytes25","internalType":"bytes25"},{"name":"specifiedPayoutAddress","type":"address","internalType":"address"},{"name":"ownerAddress","type":"address","internalType":"address"},{"name":"salt","type":"bytes32","internalType":"bytes32"},{"name":"confirmationBlocks","type":"uint8","internalType":"uint8"},{"name":"attestedBitcoinBlockHeight","type":"uint64","internalType":"uint64"}]},{"name":"context","type":"uint8","indexed":false,"internalType":"enum Types.VaultUpdateContext"}],"anonymous":false},{"type":"error","name":"AlreadyInitialized","inputs":[]},{"type":"error","name":"BlockNotConfirmed","inputs":[]},{"type":"error","name":"BlockNotInChain","inputs":[]},{"type":"error","name":"CannotOverwriteOngoingSwap","inputs":[]},{"type":"error","name":"ChainworkTooLow","inputs":[]},{"type":"error","name":"CheckpointNotEstablished","inputs":[]},{"type":"error","name":"DepositAmountTooLow","inputs":[]},{"type":"error","name":"DepositStillLocked","inputs":[]},{"type":"error","name":"DepositVaultDoesNotExist","inputs":[]},{"type":"error","name":"DepositVaultNotOverwritable","inputs":[]},{"type":"error","name":"EmptyDepositVault","inputs":[]},{"type":"error","name":"InvalidScriptPubKey","inputs":[]},{"type":"error","name":"InvalidVaultHash","inputs":[{"name":"actual","type":"bytes32","internalType":"bytes32"},{"name":"expected","type":"bytes32","internalType":"bytes32"}]},{"type":"error","name":"NewOwnerIsZeroAddress","inputs":[]},{"type":"error","name":"NoFeeToPay","inputs":[]},{"type":"error","name":"NoHandoverRequest","inputs":[]},{"type":"error","name":"NoSwapsToSubmit","inputs":[]},{"type":"error","name":"NotEnoughConfirmationBlocks","inputs":[]},{"type":"error","name":"SatOutputTooLow","inputs":[]},{"type":"error","name":"StillInChallengePeriod","inputs":[]},{"type":"error","name":"SwapDoesNotExist","inputs":[]},{"type":"error","name":"SwapNotProved","inputs":[]},{"type":"error","name":"Unauthorized","inputs":[]}],"bytecode":{"object":"0x60e0604052346101f957604051612e7738819003601f8101601f191683016001600160401b038111848210176101e5578392829160405283398101039061010082126101f957805190610054602082016101fd565b604082015191610066606082016101fd565b936060610075608084016101fd565b96609f1901126101f95760405191606083016001600160401b038111848210176101e55760405260a0810151835260c08101519063ffffffff821682036101f95760e091602085015201516040830152805f5560405191604083019083821060018060401b038311176101e557600392604092835260018552602085019182525f526001602052815f209351151560ff8019865416911617845551805160018501556002840163ffffffff60208301511663ffffffff19825416179055015191015533638b78c6d81955335f7f8be0079c531659141344cd1fd0a4f28419497f9722a3daafe3b4186f6b6457e08180a360805260a0526001600160a01b0390811660c052600580546001600160a01b03191692909116919091179055604051612c6590816102128239608051818181610227015281816106f701528181610b9901528181610f55015261293a015260a05181818161084001526118dd015260c051818181611154015261182c0152f35b634e487b7160e01b5f52604160045260245ffd5b5f80fd5b51906001600160a01b03821682036101f95756fe60806040526004361015610011575f80fd5b5f3560e01c8063029774141461130b57806303af626a146112ee57806307a2ec521461118357806308c84e701461113f5780631cbeebeb1461110257806325692962146110b9578063298842fb1461109b578063333f871a146110725780634276994614610fac578063428f29b814610f84578063473d175d14610f4057806354d1f13d14610efc5780635861af0014610b29578063592b664914610a0857806360938550146109c5578063640179d81461094657806365e99ad814610929578063715018a6146108e05780637c2301a6146108635780638d5ca052146108295780638da5cb5b146107fd578063a657fbea146107df578063c190c164146105af578063ca18100d14610592578063d21ddc6114610576578063e16ddab3146103f7578063e5e78e02146103bf578063eb5e91ff1461035c578063eb9ecdd1146102a7578063f04e283e1461025a578063f23a94a9146101f7578063f2fde38b146101ba5763fee81cf414610184575f80fd5b346101b65760203660031901126101b65761019d61164d565b63389a75e1600c525f52602080600c2054604051908152f35b5f80fd5b60203660031901126101b6576101ce61164d565b6101d6612662565b8060601b156101ea576101e8906129eb565b005b637448fbae5f526004601cfd5b346101b6575f3660031901126101b657600454801561024b575f6004556005546101e891906001600160a01b03167f00000000000000000000000000000000000000000000000000000000000000006124e3565b630fbcad4560e21b5f5260045ffd5b60203660031901126101b65761026e61164d565b610276612662565b63389a75e1600c52805f526020600c20908154421161029a575f6101e892556129eb565b636f5e88185f526004601cfd5b346101b65760203660031901126101b6576004356001600160401b0381116101b6578036036101a06003198201126101b657602482016102e6816123c3565b50608483013561034d57359160048101359161018219018212156101b6578261034061031f6020956004610328966103459601016126a0565b94859193611620565b90919082549060031b91821b915f19901b1916179055565b6128c7565b604051908152f35b630faaae6760e31b5f5260045ffd5b346101b65760203660031901126101b6576004355f526001602052608060405f206103bd610391600160ff845416930161169b565b60405192151583526020830190604080918051845263ffffffff60208201511660208501520151910152565bf35b346101b65760203660031901126101b6576004356002548110156101b6576103e8602091611620565b90549060031b1c604051908152f35b346101b65760803660031901126101b6576004356001600160401b0381116101b657610427903690600401611465565b602435906001600160401b0382116101b657816004019260c060031984360301126101b6576044356001600160401b0381116101b65761046b903690600401611495565b90926064356001600160401b0381116101b65761048c9036906004016114c6565b949093873593602488013592606489019460448a01996104ac8b8d611de3565b6104b6368a6115b4565b916104c292898c612534565b6084016104ce90611e5a565b936104d894611e8b565b966104e39198611de3565b36906104ee92611e15565b805190602001209060405193610503856114f3565b84526020840152604083015236610519916115b4565b60608201526040519361052b8561150e565b600285526020850152604084015261054292611821565b60405161055081928261176b565b037fdc0391168b5903ca02f8020523ba62927809fd9d25baf94fcb8bb339e0c8f73191a1005b346101b6575f3660031901126101b65760205f54604051908152f35b346101b6575f3660031901126101b6576020600454604051908152f35b346101b657366003190161018081126101b6576105ca612400565b5060643580156107d057604435916001600160401b0383168084036101b65742106107c157610180136101b6576040519161060483611545565b60043583526024356001600160401b03811681036101b6576020840152604083015260608201908082526080830191608435835260a4356001600160401b03811681036101b65760a085015260c43566ffffffffffffff19811681036101b65760c085015260e4356001600160a01b03811681036101b65760e085015261010435906001600160a01b03821682036101b65781610100860152610124356101208601526101443560ff811681036101b65761014086015261016435936001600160401b03851685036101b6575f809261071b9661016089015252526106f56106eb85612499565b6103288651611620565b7f00000000000000000000000000000000000000000000000000000000000000006124e3565b610723611aab565b9061072d82611c60565b5261073781611c60565b50604051604081016040825282518091526020606083019301905f5b8181106107a057505050807fbcf83654bbe8d2d5a003763444fb50a895b7721b0239dcd314d345f8a3cdfb1992600160208301520390a1005b634e487b7160e01b5f52602160045260245ffd5b9091936020610180826107b66001948951611d3d565b019501929101610753565b6301b512a960e21b5f5260045ffd5b637941e9ad60e01b5f5260045ffd5b346101b65760203660031901126101b65760206103e8600435611620565b346101b6575f3660031901126101b657638b78c6d819546040516001600160a01b039091168152602090f35b346101b6575f3660031901126101b65760206040517f00000000000000000000000000000000000000000000000000000000000000008152f35b346101b65760c03660031901126101b6576108dc604051610883816114f3565b6004358152602435602082015260443560408201526108a33660646115b4565b60608201526108b96040519160208301906117bb565b60c081526108c860e08261157c565b604051918291602083526020830190611677565b0390f35b5f3660031901126101b6576108f3612662565b5f638b78c6d819547f8be0079c531659141344cd1fd0a4f28419497f9722a3daafe3b4186f6b6457e08280a35f638b78c6d81955005b346101b6575f3660031901126101b6576020600254604051908152f35b346101b65760203660031901126101b6576004356001600160401b0381116101b65761018060031982360301126101b657600254610986916004016126a0565b600254600160401b8110156109b1576020926103408361032884600161034596016002556002611638565b634e487b7160e01b5f52604160045260245ffd5b346101b65760203660031901126101b6576109de61164d565b6109e6612662565b600580546001600160a01b0319166001600160a01b0392909216919091179055005b346101b65760403660031901126101b6576004356001600160401b0381116101b657806004019060c060031982360301126101b6576024356001600160401b0381116101b657610a5c9036906004016114c6565b9160448101610a75610a6e8287611de3565b3691611e15565b60208151910120610aa6610a9487359360646024870135960198611de3565b90610a9f368a6115b4565b8686612534565b60405192610ab560208561157c565b5f84525f805b818110610b1257505095610aed916101e89760405194610ada866114f3565b85526020850152604084015236906115b4565b606082015260405191610aff8361150e565b6001835260208301526040820152611821565b602090610b1d6119a8565b82828901015201610abb565b346101b65760203660031901126101b6576004356001600160401b0381116101b657610b59903690600401611465565b90610b63826119c6565b90610b6d8361159d565b92610b7b604051948561157c565b808452601f19610b8a8261159d565b015f5b818110610ee55750505f7f0000000000000000000000000000000000000000000000000000000000000000905b828110610cab578585604051604081016040825282518091526020606083019301905f5b818110610c8a57505050807fdc0391168b5903ca02f8020523ba62927809fd9d25baf94fcb8bb339e0c8f73192600160208301520390a1604051604081016040825282518091526020606083019301905f5b818110610c6957505050807fbcf83654bbe8d2d5a003763444fb50a895b7721b0239dcd314d345f8a3cdfb1992600260208301520390a1005b909193602061018082610c7f6001948951611d3d565b019501929101610c30565b909193602061016082610ca060019489516116d3565b019501929101610bde565b610cbe610cb9828587611aeb565b612386565b50610140610ccd828587611aeb565b013560038110156101b657600190610ce4816116c9565b03610ed6576001600160401b03610d0760c0610d01848789611aeb565b01611b0e565b164210610ec757610d256101a0610d1f838688611aeb565b016123c3565b6020610d32838688611aeb565b01358103610ea35750600190610dad610d58366040610d5285898b611aeb565b016115b4565b8587610d73610d68868484611aeb565b610160810190611b22565b9060ff610da660a0610da08a610d98610d8d828b8b611aeb565b610180810190611b22565b999098611aeb565b01611b57565b169461241b565b610dc5366101a0610dbf84888a611aeb565b01611b87565b5f60608201525f6080820152610de7610ddd82612499565b6103288351611620565b610df18289611c6d565b52610dfc8188611c6d565b50610e1136610e0c838789611aeb565b611c81565b6002610100820152610e39610e25826124c1565b610328610e3385898b611aeb565b356115f4565b610e54610100610e4a84888a611aeb565b0135600454611d1c565b600455610e87610e7060e0610e6a85898b611aeb565b01611d29565b610120610e7e85898b611aeb565b013590866124e3565b610e918288611c6d565b52610e9c8187611c6d565b5001610bba565b6020610eb0838688611aeb565b013563046aaf4f60e51b5f5260045260245260445ffd5b632d5c37f560e21b5f5260045ffd5b6322fc5d4360e21b5f5260045ffd5b602090610ef0611a53565b82828901015201610b8d565b5f3660031901126101b65763389a75e1600c52335f525f6020600c2055337ffa7b8eab7da67f412cc9575ed43464468f9bfbae89d1675917346ca6d8fe3c925f80a2005b346101b6575f3660031901126101b6576040517f00000000000000000000000000000000000000000000000000000000000000006001600160a01b03168152602090f35b346101b6575f3660031901126101b6576005546040516001600160a01b039091168152602090f35b346101b657366003190160a081126101b6576060136101b657604051610fd18161150e565b600435815260243563ffffffff811681036101b657602082015260443560408201526064356001600160401b0381116101b657611012903690600401611465565b91608435916001600160401b0383116101b657602093611039611068943690600401611465565b9161105f61105a5f545f52600160205263ffffffff600260405f2001541690565b61197c565b935f5495612281565b6040519015158152f35b346101b65760203660031901126101b6576004356003548110156101b6576103e86020916115f4565b346101b65760203660031901126101b65760206103e86004356115f4565b5f3660031901126101b65763389a75e1600c52335f526202a30042016020600c2055337fdbf36a107da19e49527a7176a1babf963b4b0ff8cde35ee35d6cd8f1f9ac7e1d5f80a2005b346101b6575f3660031901126101b65760206111315f545f52600160205263ffffffff600260405f2001541690565b63ffffffff60405191168152f35b346101b6575f3660031901126101b6576040517f00000000000000000000000000000000000000000000000000000000000000006001600160a01b03168152602090f35b346101b65760403660031901126101b6576004356001600160401b0381116101b657803603906101006003198301126101b657604051916111c38361150e565b816004013560038110156101b657835260248201356001600160401b0381116101b6578201366023820112156101b65760048101356112018161159d565b9161120f604051938461157c565b818352602060046060828601940283010101903682116101b657602401915b8183106112b257505050602084015260c0604319909101126101b65761127f6040519161125a836114f3565b60448101358352606481013560208401526084810135604084015260a43691016115b4565b60608201526040820152602435906001600160401b0382116101b6576112ac6101e89236906004016114c6565b91611821565b6060833603126101b65760206060916040516112cd8161150e565b8535815282860135838201526040860135604082015281520192019161122e565b346101b6575f3660031901126101b6576020600354604051908152f35b346101b65760603660031901126101b6576004356001600160401b0381116101b65761133b903690600401611465565b906024356001600160401b0381116101b65761135b903690600401611495565b9190604435936001600160401b0385116101b6576113ce61146094611454936113a97fdc0391168b5903ca02f8020523ba62927809fd9d25baf94fcb8bb339e0c8f7319836906004016114c6565b9490966113c95f545f52600160205263ffffffff600260405f2001541690565b611e8b565b6040949194516113dd816114f3565b5f81525f60208201525f604082015260606113f66119a8565b9101526040516114058161150e565b5f81525f60208201525f604082015260405190611421826114f3565b5f82525f60208301525f60408301526060820152604051916114428361150e565b5f835260208301526040820152611821565b6040519182918261176b565b0390a1005b9181601f840112156101b6578235916001600160401b0383116101b6576020808501948460051b0101116101b657565b9181601f840112156101b6578235916001600160401b0383116101b65760208085019461016085020101116101b657565b9181601f840112156101b6578235916001600160401b0383116101b657602083818601950101116101b657565b608081019081106001600160401b038211176109b157604052565b606081019081106001600160401b038211176109b157604052565b61012081019081106001600160401b038211176109b157604052565b61018081019081106001600160401b038211176109b157604052565b604081019081106001600160401b038211176109b157604052565b90601f801991011681019081106001600160401b038211176109b157604052565b6001600160401b0381116109b15760051b60200190565b91908260609103126101b6576040516115cc8161150e565b809280358252602081013563ffffffff811681036101b6576020830152604090810135910152565b60035481101561160c5760035f5260205f2001905f90565b634e487b7160e01b5f52603260045260245ffd5b60025481101561160c5760025f5260205f2001905f90565b805482101561160c575f5260205f2001905f90565b600435906001600160a01b03821682036101b657565b35906001600160a01b03821682036101b657565b805180835260209291819084018484015e5f828201840152601f01601f1916010190565b906040516116a88161150e565b6040600282948054845263ffffffff60018201541660208501520154910152565b6003111561078c57565b80518252602080820151818401526040808301518051828601529182015163ffffffff16606085015201516080830152610140906101009060ff60608201511660a08501526001600160401b0360808201511660c085015260018060a01b0360a08201511660e085015260c08101518285015260e081015161012085015201519161175d836116c9565b0152565b6002111561078c57565b9190604083016040845281518091526020606085019201905f5b81811061179a5750919391505060205f910152565b9091926020610160826117b060019488516116d3565b019401929101611785565b906060806117ff938051845260208101516020850152604081015160408501520151910190604080918051845263ffffffff60208201511660208501520151910152565b565b908060209392818452848401375f828201840152601f01601f1916010190565b909160018060a01b037f000000000000000000000000000000000000000000000000000000000000000016604051926020808501528361014081018251611867816116c9565b604083015260208301519061010060608401528151809152602061016084019201905f5b81811061194a575050506118aa60406118b894015160808401906117bb565b03601f19810185528461157c565b803b156101b6576119125f936119246040519687958694859463020a49e360e51b86527f00000000000000000000000000000000000000000000000000000000000000006004870152606060248701526064860190611677565b84810360031901604486015291611801565b03915afa801561193f576119355750565b5f6117ff9161157c565b6040513d5f823e3d90fd5b91949350916020606060019260408851805183528481015185840152015160408201520195019101918793949261188b565b63ffffffff60019116019063ffffffff821161199457565b634e487b7160e01b5f52601160045260245ffd5b604051906119b58261150e565b5f6040838281528260208201520152565b906119d08261159d565b6119dd604051918261157c565b82815280926119ee601f199161159d565b01905f5b8281106119fe57505050565b602090604051611a0d81611529565b5f81525f83820152611a1d6119a8565b60408201525f60608201525f60808201525f60a08201525f60c08201525f60e08201525f610100820152828285010152016119f2565b60405190611a6082611545565b5f610160838281528260208201528260408201528260608201528260808201528260a08201528260c08201528260e08201528261010082015282610120820152826101408201520152565b60408051909190611abc838261157c565b6001815291601f1901825f5b828110611ad457505050565b602090611adf611a53565b82828501015201611ac8565b919081101561160c5760051b8101359061033e19813603018212156101b6570190565b356001600160401b03811681036101b65790565b903590601e19813603018212156101b657018035906001600160401b0382116101b657602001918160051b360383136101b657565b3560ff811681036101b65790565b35906001600160401b03821682036101b657565b359060ff821682036101b657565b9190826101809103126101b657604051611ba081611545565b809280358252611bb260208201611b65565b6020830152611bc360408201611b65565b60408301526060810135606083015260808101356080830152611be860a08201611b65565b60a083015260c08101359066ffffffffffffff19821682036101b657610160611c5b91819360c0860152611c1e60e08201611663565b60e0860152611c306101008201611663565b610100860152610120810135610120860152611c4f6101408201611b79565b61014086015201611b65565b910152565b80511561160c5760200190565b805182101561160c5760209160051b010190565b919091610160818403126101b65761014060405191611c9f83611529565b611cbb83958235855260208301356020860152604083016115b4565b6040840152611ccc60a08201611b79565b6060840152611cdd60c08201611b65565b6080840152611cee60e08201611663565b60a084015261010081013560c084015261012081013560e084015201359060038210156101b6576101000152565b9190820180921161199457565b356001600160a01b03811681036101b65790565b6001600160401b0361016080928051855282602082015116602086015282604082015116604086015260608101516060860152608081015160808601528260a08201511660a086015266ffffffffffffff1960c08201511660c086015260018060a01b0360e08201511660e086015260018060a01b036101008201511661010086015261012081015161012086015260ff61014082015116610140860152015116910152565b903590601e19813603018212156101b657018035906001600160401b0382116101b6576020019181360383136101b657565b9291926001600160401b0382116109b15760405191611e3e601f8201601f19166020018461157c565b8294818452818301116101b6578281602093845f960137010152565b3563ffffffff811681036101b65790565b3561ffff811681036101b65790565b919081101561160c57610160020190565b90939193841561226257611e9e8561159d565b90611eac604051928361157c565b858252601f19611ebb8761159d565b015f5b81811061224b57505081611ed1876119c6565b92600354985f995b898b101561223e57809a8060051b86013561027e19873603018112156101b65786016101a0810135600281101593846101b657611f1582611761565b816121a4575f198114611994576001019d5b60208301611f353682611b87565b608060608201519101908151918260011b928084046002149015171561199457611f6d8f92611f67908e935190612693565b946123c3565b91611fa5896101e08a0193604051611f848161150e565b8b35815285356020820152866040820152611f9f8383611c6d565b52611c6d565b50611ff6611ff1611fba6102408b018b611b22565b91906101608c611fce610260820182611b22565b9290910194611fdc86611b57565b9360ff611fe9368c6115b4565b95169461241b565b611b57565b9063ffffffff6001600160401b036120116101808c01611b0e565b169116036001600160401b038111611994576001600160401b03166085026001600160401b0381169081036119945761e3b3016001600160401b038111611994576001600160401b036103e88161012c9316041601906001600160401b038211611994576120b96001600160401b0361208e8160ff951642611d1c565b169361209d6101008c01611d29565b95604051996120ab8b611529565b8a5260208a015236906115b4565b604088015216606086015260808501526001600160a01b031660a084015260c083015260e082015260016101008201526120f3848b611c6d565b526120fe838a611c6d565b5061211261210c848b611c6d565b516124c1565b936101b6578b918b9161212481611761565b8061215a5750505050600354600160401b8110156109b157600192610328828561215394016003556003611638565b0199611ed9565b9060018096939261216a81611761565b14612179575b50505050612153565b61219b936103289261ffff6121946101c0610e339501611e6b565b1691611e7a565b895f8a81612170565b9d5f94506121b182611761565b8b8d600184146121c3575b5050611f27565b6101409192506121fa906101c08601936121ed610cb961ffff6121e588611e6b565b168385611e7a565b5061ffff61219486611e6b565b013560038110156101b657600290612211816116c9565b0361222f578c8c61ffff61219461222794611e6b565b358b8d6121bc565b63a5f611fd60e01b5f5260045ffd5b5096509650505094505050565b6020906122566119a8565b82828701015201611ebe565b6308d98c4f60e01b5f5260045ffd5b919081101561160c5760051b0190565b919093929363ffffffff6122b884516020860195604084885116910151919091606092604051928352602083015260408201522090565b935116905f925b80841061233557505050505f905f5b83811061230f575b505015612307576122e691612a28565b9081156123005763ffffffff165f5260205260405f201490565b5050505f90565b505050505f90565b8161231b828688612271565b3514612329576001016122ce565b50505060015f806122d6565b9293600183811c94929381160361236857612351858385612271565b355f52602052600160405f20945b019291906122bf565b612373858385612271565b35905f52602052600160405f209461235f565b6123a461239b6123963684611c81565b6124c1565b91356003611638565b90549060031b1c81036123b45790565b631a40316d60e01b5f5260045ffd5b6123e16123d86123d33684611b87565b612499565b91356002611638565b90549060031b1c81036123f15790565b63cd1d240d60e01b5f5260045ffd5b61240e6123d3366004611b87565b6123e16004356002611638565b949391612429939186612a79565b63ffffffff602061244d5f545f52600160205263ffffffff600260405f2001541690565b930151169063ffffffff5f1991160163ffffffff81116119945763ffffffff160163ffffffff81116119945763ffffffff80911691161061248a57565b630a47293560e31b5f5260045ffd5b6040516124aa602082018093611d3d565b61018081526124bb6101a08261157c565b51902090565b6040516124d26020820180936116d3565b61016081526124bb6101808261157c565b919060145260345263a9059cbb60601b5f5260205f6044601082855af1908160015f51141615612516575b50505f603452565b3b153d171015612527575f8061250e565b6390b8ec185f526004601cfd5b9190925f5480851461265a57835f52600160205260405f2061256d60016040519261255e84611561565b60ff815416151584520161169b565b6020820152511561264b575f526001602052600360405f2001546040830151111561263c577f6768baae39ee0e687f7c44f7006a147b15ffb56031969140096fe95461eea2fd9461263792600360408051926125c884611561565b6001845260208401908152885f526001602052815f209351151560ff8019865416911617845551805160018501556002840163ffffffff60208301511663ffffffff198254161790550151910155845f5560405194859485526020850152606060408501526060840191611801565b0390a1565b6307800bf560e21b5f5260045ffd5b63e1965c6560e01b5f5260045ffd5b505050505050565b638b78c6d81954330361267157565b6382b429005f526004601cfd5b3566ffffffffffffff19811681036101b65790565b9190820391821161199457565b9190916126ab611a53565b506040810135906107d182106128b857606081016103e86001600160401b036126d383611b0e565b16106128a95760c0820190600260ff6126eb84611b57565b161061289a5760808301936127076127028661267e565b612ab6565b1561288b5761274161271d610140860186611b22565b9061272c610160880188611b22565b92909161273c3660e08b016115b4565b612a79565b60058102818104600514821517156119945761271090049460ff61276485611b57565b16611c20029163ffffffff83169283036119945786926127849042611d1c565b6001600160401b03169661279791612693565b926127a190611b0e565b906127ab9061267e565b906127b860208701611d29565b926127c287611d29565b948a4660a08a0135916127e8929091606092604051928352602083015260408201522090565b966127f290611b57565b976101000161280090611e5a565b986040519b61280e8d611545565b8c526001600160401b0342811660208e015260408d019190915260608c019190915260808b01919091521660a089015266ffffffffffffff191660c08801526001600160a01b0390811660e08801521661010086015261012085015260ff1661014084015263ffffffff1661016083015261288882612499565b90565b63fad7db0760e01b5f5260045ffd5b63bdf8f2b360e01b5f5260045ffd5b63fde5943160e01b5f5260045ffd5b6355fcd02760e01b5f5260045ffd5b6128cf611aab565b816128d982611c60565b526128e381611c60565b50604051604081016040825282518091526020606083019301905f5b8181106129ca57505050807fbcf83654bbe8d2d5a003763444fb50a895b7721b0239dcd314d345f8a3cdfb19925f60208301520390a161296a7f0000000000000000000000000000000000000000000000000000000000000000916080606082015191015190611d1c565b9060405191606052306040523360601b602c526323b872dd60601b600c5260205f6064601c82855af1908160015f511416156129ac575b50505f606052604052565b3b153d1710156129bd575f806129a1565b637939f4245f526004601cfd5b9091936020610180826129e06001948951611d3d565b0195019291016128ff565b60018060a01b031680638b78c6d819547f8be0079c531659141344cd1fd0a4f28419497f9722a3daafe3b4186f6b6457e05f80a3638b78c6d81955565b8115612a73575f1982019180831161199457612a45838284612271565b3592805b612a535750505090565b5f190192612a62848385612271565b355f526020528260405f2093612a49565b50505f90565b92612aa094919261105f61105a5f545f52600160205263ffffffff600260405f2001541690565b15612aa757565b632814065160e01b5f5260045ffd5b5f81901a60f81b6001600160f81b03191680612b11575069ffffffffffffffffffff19165f81901a60f81b6001600160f81b031916159081612af6575090565b60011a60f81b6001600160f81b031916600560fa1b14919050565b60a960f81b8103612b8a575068ffffffffffffffffff19165f81901a60f81b6001600160f81b03191660a960f81b149081612b6b575b81612b50575090565b60161a60f81b6001600160f81b031916608760f81b14919050565b600181901a60f81b6001600160f81b031916600560fa1b149150612b47565b603b60f91b149081612b9c5750505f90565b81612c10575b81612bf1575b81612bd2575b81612bb7575090565b60181a60f81b6001600160f81b031916602b60fa1b14919050565b601781901a60f81b6001600160f81b031916601160fb1b149150612bae565b600281901a60f81b6001600160f81b031916600560fa1b149150612ba8565b600181901a60f81b6001600160f81b03191660a960f81b149150612ba256fea2646970667358221220edb32484dee97171ef0a9c482985c78cf17af4e517d3d9b58cd7cf7940eb3cdf64736f6c634300081c0033","linkReferences":{}},"methodIdentifiers":{"CIRCUIT_VERIFICATION_KEY()":"8d5ca052","ERC20_BTC()":"473d175d","VERIFIER()":"08c84e70","accumulatedFeeBalance()":"ca18100d","cancelOwnershipHandover()":"54d1f13d","checkpoints(bytes32)":"eb5e91ff","completeOwnershipHandover(address)":"f04e283e","depositLiquidity((address,address,uint256,uint64,bytes25,bytes32,uint8,(bytes32,uint32,uint256),bytes32[],bytes32[]))":"640179d8","depositLiquidityWithOverwrite(((address,address,uint256,uint64,bytes25,bytes32,uint8,(bytes32,uint32,uint256),bytes32[],bytes32[]),(uint256,uint64,uint64,uint256,uint256,uint64,bytes25,address,address,bytes32,uint8,uint64)))":"eb9ecdd1","feeRouterAddress()":"428f29b8","getLightClientHeight()":"1cbeebeb","getSwapHash(uint256)":"298842fb","getSwapHashesLength()":"03af626a","getVaultHash(uint256)":"a657fbea","getVaultHashesLength()":"65e99ad8","mmrRoot()":"d21ddc61","owner()":"8da5cb5b","ownershipHandoverExpiresAt(address)":"fee81cf4","payoutToFeeRouter()":"f23a94a9","proveBlockInclusion((bytes32,uint32,uint256),bytes32[],bytes32[])":"42769946","releaseLiquidityBatch(((uint256,bytes32,(bytes32,uint32,uint256),uint8,uint64,address,uint256,uint256,uint8),bytes32[],bytes32[],(uint256,uint64,uint64,uint256,uint256,uint64,bytes25,address,address,bytes32,uint8,uint64),uint32)[])":"5861af00","renounceOwnership()":"715018a6","requestOwnershipHandover()":"25692962","serializeLightClientPublicInput((bytes32,bytes32,bytes32,(bytes32,uint32,uint256)))":"7c2301a6","setFeeRouterAddress(address)":"60938550","submitBatchSwapProof((bytes32,(uint256,uint64,uint64,uint256,uint256,uint64,bytes25,address,address,bytes32,uint8,uint64),uint8,uint16,(bytes32,uint32,uint256),bytes32[],bytes32[])[],(uint256,bytes32,(bytes32,uint32,uint256),uint8,uint64,address,uint256,uint256,uint8)[],bytes)":"02977414","submitBatchSwapProofWithLightClientUpdate((bytes32,(uint256,uint64,uint64,uint256,uint256,uint64,bytes25,address,address,bytes32,uint8,uint64),uint8,uint16,(bytes32,uint32,uint256),bytes32[],bytes32[])[],(bytes32,bytes32,bytes,(bytes32,uint32,uint256)),(uint256,bytes32,(bytes32,uint32,uint256),uint8,uint64,address,uint256,uint256,uint8)[],bytes)":"e16ddab3","swapHashes(uint256)":"333f871a","transferOwnership(address)":"f2fde38b","updateLightClient((bytes32,bytes32,bytes,(bytes32,uint32,uint256)),bytes)":"592b6649","vaultHashes(uint256)":"e5e78e02","verifyZkProof((uint8,(bytes32,bytes32,bytes32)[],(bytes32,bytes32,bytes32,(bytes32,uint32,uint256))),bytes)":"07a2ec52","withdrawLiquidity((uint256,uint64,uint64,uint256,uint256,uint64,bytes25,address,address,bytes32,uint8,uint64))":"c190c164"},"storageLayout":{"storage":[{"astId":41653,"contract":"src/RiftExchange.sol:RiftExchange","label":"mmrRoot","offset":0,"slot":"0","type":"t_bytes32"},{"astId":41658,"contract":"src/RiftExchange.sol:RiftExchange","label":"checkpoints","offset":0,"slot":"1","type":"t_mapping(t_bytes32,t_struct(BitcoinCheckpoint)44014_storage)"},{"astId":41906,"contract":"src/RiftExchange.sol:RiftExchange","label":"vaultHashes","offset":0,"slot":"2","type":"t_array(t_bytes32)dyn_storage"},{"astId":41909,"contract":"src/RiftExchange.sol:RiftExchange","label":"swapHashes","offset":0,"slot":"3","type":"t_array(t_bytes32)dyn_storage"},{"astId":41911,"contract":"src/RiftExchange.sol:RiftExchange","label":"accumulatedFeeBalance","offset":0,"slot":"4","type":"t_uint256"},{"astId":41913,"contract":"src/RiftExchange.sol:RiftExchange","label":"feeRouterAddress","offset":0,"slot":"5","type":"t_address"}],"types":{"t_address":{"encoding":"inplace","label":"address","numberOfBytes":"20"},"t_array(t_bytes32)dyn_storage":{"encoding":"dynamic_array","label":"bytes32[]","numberOfBytes":"32","base":"t_bytes32"},"t_bool":{"encoding":"inplace","label":"bool","numberOfBytes":"1"},"t_bytes32":{"encoding":"inplace","label":"bytes32","numberOfBytes":"32"},"t_mapping(t_bytes32,t_struct(BitcoinCheckpoint)44014_storage)":{"encoding":"mapping","key":"t_bytes32","label":"mapping(bytes32 => struct Types.BitcoinCheckpoint)","numberOfBytes":"32","value":"t_struct(BitcoinCheckpoint)44014_storage"},"t_struct(BitcoinCheckpoint)44014_storage":{"encoding":"inplace","label":"struct Types.BitcoinCheckpoint","numberOfBytes":"128","members":[{"astId":44010,"contract":"src/RiftExchange.sol:RiftExchange","label":"established","offset":0,"slot":"0","type":"t_bool"},{"astId":44013,"contract":"src/RiftExchange.sol:RiftExchange","label":"tipBlockLeaf","offset":0,"slot":"1","type":"t_struct(BlockLeaf)43806_storage"}]},"t_struct(BlockLeaf)43806_storage":{"encoding":"inplace","label":"struct Types.BlockLeaf","numberOfBytes":"96","members":[{"astId":43801,"contract":"src/RiftExchange.sol:RiftExchange","label":"blockHash","offset":0,"slot":"0","type":"t_bytes32"},{"astId":43803,"contract":"src/RiftExchange.sol:RiftExchange","label":"height","offset":0,"slot":"1","type":"t_uint32"},{"astId":43805,"contract":"src/RiftExchange.sol:RiftExchange","label":"cumulativeChainwork","offset":0,"slot":"2","type":"t_uint256"}]},"t_uint256":{"encoding":"inplace","label":"uint256","numberOfBytes":"32"},"t_uint32":{"encoding":"inplace","label":"uint32","numberOfBytes":"4"}}},"id":32}