{"abi":[{"type":"constructor","inputs":[{"name":"_mmrRoot","type":"bytes32","internalType":"bytes32"},{"name":"_depositToken","type":"address","internalType":"address"},{"name":"_circuitVerificationKey","type":"bytes32","internalType":"bytes32"},{"name":"_verifier","type":"address","internalType":"address"},{"name":"_feeRouter","type":"address","internalType":"address"},{"name":"_tipBlockLeaf","type":"tuple","internalType":"struct Types.BlockLeaf","components":[{"name":"blockHash","type":"bytes32","internalType":"bytes32"},{"name":"height","type":"uint32","internalType":"uint32"},{"name":"cumulativeChainwork","type":"uint256","internalType":"uint256"}]}],"stateMutability":"nonpayable"},{"type":"function","name":"CIRCUIT_VERIFICATION_KEY","inputs":[],"outputs":[{"name":"","type":"bytes32","internalType":"bytes32"}],"stateMutability":"view"},{"type":"function","name":"ERC20_BTC","inputs":[],"outputs":[{"name":"","type":"address","internalType":"contract IERC20"}],"stateMutability":"view"},{"type":"function","name":"TOKEN_DECIMALS","inputs":[],"outputs":[{"name":"","type":"uint8","internalType":"uint8"}],"stateMutability":"view"},{"type":"function","name":"VERIFIER","inputs":[],"outputs":[{"name":"","type":"address","internalType":"contract ISP1Verifier"}],"stateMutability":"view"},{"type":"function","name":"accumulatedFeeBalance","inputs":[],"outputs":[{"name":"","type":"uint256","internalType":"uint256"}],"stateMutability":"view"},{"type":"function","name":"checkpoints","inputs":[{"name":"","type":"bytes32","internalType":"bytes32"}],"outputs":[{"name":"established","type":"bool","internalType":"bool"},{"name":"tipBlockLeaf","type":"tuple","internalType":"struct Types.BlockLeaf","components":[{"name":"blockHash","type":"bytes32","internalType":"bytes32"},{"name":"height","type":"uint32","internalType":"uint32"},{"name":"cumulativeChainwork","type":"uint256","internalType":"uint256"}]}],"stateMutability":"view"},{"type":"function","name":"depositLiquidity","inputs":[{"name":"params","type":"tuple","internalType":"struct Types.DepositLiquidityParams","components":[{"name":"depositOwnerAddress","type":"address","internalType":"address"},{"name":"specifiedPayoutAddress","type":"address","internalType":"address"},{"name":"depositAmount","type":"uint256","internalType":"uint256"},{"name":"expectedSats","type":"uint64","internalType":"uint64"},{"name":"btcPayoutScriptPubKey","type":"bytes25","internalType":"bytes25"},{"name":"depositSalt","type":"bytes32","internalType":"bytes32"},{"name":"confirmationBlocks","type":"uint8","internalType":"uint8"},{"name":"safeBlockLeaf","type":"tuple","internalType":"struct Types.BlockLeaf","components":[{"name":"blockHash","type":"bytes32","internalType":"bytes32"},{"name":"height","type":"uint32","internalType":"uint32"},{"name":"cumulativeChainwork","type":"uint256","internalType":"uint256"}]},{"name":"safeBlockSiblings","type":"bytes32[]","internalType":"bytes32[]"},{"name":"safeBlockPeaks","type":"bytes32[]","internalType":"bytes32[]"}]}],"outputs":[{"name":"","type":"bytes32","internalType":"bytes32"}],"stateMutability":"nonpayable"},{"type":"function","name":"depositLiquidityWithOverwrite","inputs":[{"name":"params","type":"tuple","internalType":"struct Types.DepositLiquidityWithOverwriteParams","components":[{"name":"depositParams","type":"tuple","internalType":"struct Types.DepositLiquidityParams","components":[{"name":"depositOwnerAddress","type":"address","internalType":"address"},{"name":"specifiedPayoutAddress","type":"address","internalType":"address"},{"name":"depositAmount","type":"uint256","internalType":"uint256"},{"name":"expectedSats","type":"uint64","internalType":"uint64"},{"name":"btcPayoutScriptPubKey","type":"bytes25","internalType":"bytes25"},{"name":"depositSalt","type":"bytes32","internalType":"bytes32"},{"name":"confirmationBlocks","type":"uint8","internalType":"uint8"},{"name":"safeBlockLeaf","type":"tuple","internalType":"struct Types.BlockLeaf","components":[{"name":"blockHash","type":"bytes32","internalType":"bytes32"},{"name":"height","type":"uint32","internalType":"uint32"},{"name":"cumulativeChainwork","type":"uint256","internalType":"uint256"}]},{"name":"safeBlockSiblings","type":"bytes32[]","internalType":"bytes32[]"},{"name":"safeBlockPeaks","type":"bytes32[]","internalType":"bytes32[]"}]},{"name":"overwriteVault","type":"tuple","internalType":"struct Types.DepositVault","components":[{"name":"vaultIndex","type":"uint256","internalType":"uint256"},{"name":"depositTimestamp","type":"uint64","internalType":"uint64"},{"name":"depositUnlockTimestamp","type":"uint64","internalType":"uint64"},{"name":"depositAmount","type":"uint256","internalType":"uint256"},{"name":"depositFee","type":"uint256","internalType":"uint256"},{"name":"expectedSats","type":"uint64","internalType":"uint64"},{"name":"btcPayoutScriptPubKey","type":"bytes25","internalType":"bytes25"},{"name":"specifiedPayoutAddress","type":"address","internalType":"address"},{"name":"ownerAddress","type":"address","internalType":"address"},{"name":"salt","type":"bytes32","internalType":"bytes32"},{"name":"confirmationBlocks","type":"uint8","internalType":"uint8"},{"name":"attestedBitcoinBlockHeight","type":"uint64","internalType":"uint64"}]}]}],"outputs":[{"name":"","type":"bytes32","internalType":"bytes32"}],"stateMutability":"nonpayable"},{"type":"function","name":"feeRouterAddress","inputs":[],"outputs":[{"name":"","type":"address","internalType":"address"}],"stateMutability":"view"},{"type":"function","name":"getLightClientHeight","inputs":[],"outputs":[{"name":"","type":"uint32","internalType":"uint32"}],"stateMutability":"view"},{"type":"function","name":"getSwapHash","inputs":[{"name":"swapIndex","type":"uint256","internalType":"uint256"}],"outputs":[{"name":"","type":"bytes32","internalType":"bytes32"}],"stateMutability":"view"},{"type":"function","name":"getSwapHashesLength","inputs":[],"outputs":[{"name":"","type":"uint256","internalType":"uint256"}],"stateMutability":"view"},{"type":"function","name":"getVaultHash","inputs":[{"name":"vaultIndex","type":"uint256","internalType":"uint256"}],"outputs":[{"name":"","type":"bytes32","internalType":"bytes32"}],"stateMutability":"view"},{"type":"function","name":"getVaultHashesLength","inputs":[],"outputs":[{"name":"","type":"uint256","internalType":"uint256"}],"stateMutability":"view"},{"type":"function","name":"mmrRoot","inputs":[],"outputs":[{"name":"","type":"bytes32","internalType":"bytes32"}],"stateMutability":"view"},{"type":"function","name":"owner","inputs":[],"outputs":[{"name":"","type":"address","internalType":"address"}],"stateMutability":"view"},{"type":"function","name":"payoutToFeeRouter","inputs":[],"outputs":[],"stateMutability":"nonpayable"},{"type":"function","name":"proveBlockInclusion","inputs":[{"name":"blockLeaf","type":"tuple","internalType":"struct Types.BlockLeaf","components":[{"name":"blockHash","type":"bytes32","internalType":"bytes32"},{"name":"height","type":"uint32","internalType":"uint32"},{"name":"cumulativeChainwork","type":"uint256","internalType":"uint256"}]},{"name":"siblings","type":"bytes32[]","internalType":"bytes32[]"},{"name":"peaks","type":"bytes32[]","internalType":"bytes32[]"}],"outputs":[{"name":"","type":"bool","internalType":"bool"}],"stateMutability":"view"},{"type":"function","name":"releaseLiquidityBatch","inputs":[{"name":"paramsArray","type":"tuple[]","internalType":"struct Types.ReleaseLiquidityParams[]","components":[{"name":"swap","type":"tuple","internalType":"struct Types.ProposedSwap","components":[{"name":"swapIndex","type":"uint256","internalType":"uint256"},{"name":"depositVaultHash","type":"bytes32","internalType":"bytes32"},{"name":"swapBitcoinBlockLeaf","type":"tuple","internalType":"struct Types.BlockLeaf","components":[{"name":"blockHash","type":"bytes32","internalType":"bytes32"},{"name":"height","type":"uint32","internalType":"uint32"},{"name":"cumulativeChainwork","type":"uint256","internalType":"uint256"}]},{"name":"confirmationBlocks","type":"uint8","internalType":"uint8"},{"name":"liquidityUnlockTimestamp","type":"uint64","internalType":"uint64"},{"name":"specifiedPayoutAddress","type":"address","internalType":"address"},{"name":"totalSwapFee","type":"uint256","internalType":"uint256"},{"name":"totalSwapOutput","type":"uint256","internalType":"uint256"},{"name":"state","type":"uint8","internalType":"enum Types.SwapState"}]},{"name":"bitcoinSwapBlockSiblings","type":"bytes32[]","internalType":"bytes32[]"},{"name":"bitcoinSwapBlockPeaks","type":"bytes32[]","internalType":"bytes32[]"},{"name":"utilizedVault","type":"tuple","internalType":"struct Types.DepositVault","components":[{"name":"vaultIndex","type":"uint256","internalType":"uint256"},{"name":"depositTimestamp","type":"uint64","internalType":"uint64"},{"name":"depositUnlockTimestamp","type":"uint64","internalType":"uint64"},{"name":"depositAmount","type":"uint256","internalType":"uint256"},{"name":"depositFee","type":"uint256","internalType":"uint256"},{"name":"expectedSats","type":"uint64","internalType":"uint64"},{"name":"btcPayoutScriptPubKey","type":"bytes25","internalType":"bytes25"},{"name":"specifiedPayoutAddress","type":"address","internalType":"address"},{"name":"ownerAddress","type":"address","internalType":"address"},{"name":"salt","type":"bytes32","internalType":"bytes32"},{"name":"confirmationBlocks","type":"uint8","internalType":"uint8"},{"name":"attestedBitcoinBlockHeight","type":"uint64","internalType":"uint64"}]},{"name":"tipBlockHeight","type":"uint32","internalType":"uint32"}]}],"outputs":[],"stateMutability":"nonpayable"},{"type":"function","name":"renounceOwnership","inputs":[],"outputs":[],"stateMutability":"nonpayable"},{"type":"function","name":"serializeLightClientPublicInput","inputs":[{"name":"input","type":"tuple","internalType":"struct Types.LightClientPublicInput","components":[{"name":"previousMmrRoot","type":"bytes32","internalType":"bytes32"},{"name":"newMmrRoot","type":"bytes32","internalType":"bytes32"},{"name":"compressedLeavesHash","type":"bytes32","internalType":"bytes32"},{"name":"tipBlockLeaf","type":"tuple","internalType":"struct Types.BlockLeaf","components":[{"name":"blockHash","type":"bytes32","internalType":"bytes32"},{"name":"height","type":"uint32","internalType":"uint32"},{"name":"cumulativeChainwork","type":"uint256","internalType":"uint256"}]}]}],"outputs":[{"name":"","type":"bytes","internalType":"bytes"}],"stateMutability":"pure"},{"type":"function","name":"setFeeRouterAddress","inputs":[{"name":"_feeRouter","type":"address","internalType":"address"}],"outputs":[],"stateMutability":"nonpayable"},{"type":"function","name":"submitBatchSwapProof","inputs":[{"name":"swapParams","type":"tuple[]","internalType":"struct Types.SubmitSwapProofParams[]","components":[{"name":"swapBitcoinTxid","type":"bytes32","internalType":"bytes32"},{"name":"vault","type":"tuple","internalType":"struct Types.DepositVault","components":[{"name":"vaultIndex","type":"uint256","internalType":"uint256"},{"name":"depositTimestamp","type":"uint64","internalType":"uint64"},{"name":"depositUnlockTimestamp","type":"uint64","internalType":"uint64"},{"name":"depositAmount","type":"uint256","internalType":"uint256"},{"name":"depositFee","type":"uint256","internalType":"uint256"},{"name":"expectedSats","type":"uint64","internalType":"uint64"},{"name":"btcPayoutScriptPubKey","type":"bytes25","internalType":"bytes25"},{"name":"specifiedPayoutAddress","type":"address","internalType":"address"},{"name":"ownerAddress","type":"address","internalType":"address"},{"name":"salt","type":"bytes32","internalType":"bytes32"},{"name":"confirmationBlocks","type":"uint8","internalType":"uint8"},{"name":"attestedBitcoinBlockHeight","type":"uint64","internalType":"uint64"}]},{"name":"storageStrategy","type":"uint8","internalType":"enum Types.StorageStrategy"},{"name":"localOverwriteIndex","type":"uint16","internalType":"uint16"},{"name":"swapBitcoinBlockLeaf","type":"tuple","internalType":"struct Types.BlockLeaf","components":[{"name":"blockHash","type":"bytes32","internalType":"bytes32"},{"name":"height","type":"uint32","internalType":"uint32"},{"name":"cumulativeChainwork","type":"uint256","internalType":"uint256"}]},{"name":"swapBitcoinBlockSiblings","type":"bytes32[]","internalType":"bytes32[]"},{"name":"swapBitcoinBlockPeaks","type":"bytes32[]","internalType":"bytes32[]"}]},{"name":"overwriteSwaps","type":"tuple[]","internalType":"struct Types.ProposedSwap[]","components":[{"name":"swapIndex","type":"uint256","internalType":"uint256"},{"name":"depositVaultHash","type":"bytes32","internalType":"bytes32"},{"name":"swapBitcoinBlockLeaf","type":"tuple","internalType":"struct Types.BlockLeaf","components":[{"name":"blockHash","type":"bytes32","internalType":"bytes32"},{"name":"height","type":"uint32","internalType":"uint32"},{"name":"cumulativeChainwork","type":"uint256","internalType":"uint256"}]},{"name":"confirmationBlocks","type":"uint8","internalType":"uint8"},{"name":"liquidityUnlockTimestamp","type":"uint64","internalType":"uint64"},{"name":"specifiedPayoutAddress","type":"address","internalType":"address"},{"name":"totalSwapFee","type":"uint256","internalType":"uint256"},{"name":"totalSwapOutput","type":"uint256","internalType":"uint256"},{"name":"state","type":"uint8","internalType":"enum Types.SwapState"}]},{"name":"proof","type":"bytes","internalType":"bytes"}],"outputs":[],"stateMutability":"nonpayable"},{"type":"function","name":"submitBatchSwapProofWithLightClientUpdate","inputs":[{"name":"swapParams","type":"tuple[]","internalType":"struct Types.SubmitSwapProofParams[]","components":[{"name":"swapBitcoinTxid","type":"bytes32","internalType":"bytes32"},{"name":"vault","type":"tuple","internalType":"struct Types.DepositVault","components":[{"name":"vaultIndex","type":"uint256","internalType":"uint256"},{"name":"depositTimestamp","type":"uint64","internalType":"uint64"},{"name":"depositUnlockTimestamp","type":"uint64","internalType":"uint64"},{"name":"depositAmount","type":"uint256","internalType":"uint256"},{"name":"depositFee","type":"uint256","internalType":"uint256"},{"name":"expectedSats","type":"uint64","internalType":"uint64"},{"name":"btcPayoutScriptPubKey","type":"bytes25","internalType":"bytes25"},{"name":"specifiedPayoutAddress","type":"address","internalType":"address"},{"name":"ownerAddress","type":"address","internalType":"address"},{"name":"salt","type":"bytes32","internalType":"bytes32"},{"name":"confirmationBlocks","type":"uint8","internalType":"uint8"},{"name":"attestedBitcoinBlockHeight","type":"uint64","internalType":"uint64"}]},{"name":"storageStrategy","type":"uint8","internalType":"enum Types.StorageStrategy"},{"name":"localOverwriteIndex","type":"uint16","internalType":"uint16"},{"name":"swapBitcoinBlockLeaf","type":"tuple","internalType":"struct Types.BlockLeaf","components":[{"name":"blockHash","type":"bytes32","internalType":"bytes32"},{"name":"height","type":"uint32","internalType":"uint32"},{"name":"cumulativeChainwork","type":"uint256","internalType":"uint256"}]},{"name":"swapBitcoinBlockSiblings","type":"bytes32[]","internalType":"bytes32[]"},{"name":"swapBitcoinBlockPeaks","type":"bytes32[]","internalType":"bytes32[]"}]},{"name":"blockProofParams","type":"tuple","internalType":"struct Types.BlockProofParams","components":[{"name":"priorMmrRoot","type":"bytes32","internalType":"bytes32"},{"name":"newMmrRoot","type":"bytes32","internalType":"bytes32"},{"name":"compressedBlockLeaves","type":"bytes","internalType":"bytes"},{"name":"tipBlockLeaf","type":"tuple","internalType":"struct Types.BlockLeaf","components":[{"name":"blockHash","type":"bytes32","internalType":"bytes32"},{"name":"height","type":"uint32","internalType":"uint32"},{"name":"cumulativeChainwork","type":"uint256","internalType":"uint256"}]}]},{"name":"overwriteSwaps","type":"tuple[]","internalType":"struct Types.ProposedSwap[]","components":[{"name":"swapIndex","type":"uint256","internalType":"uint256"},{"name":"depositVaultHash","type":"bytes32","internalType":"bytes32"},{"name":"swapBitcoinBlockLeaf","type":"tuple","internalType":"struct Types.BlockLeaf","components":[{"name":"blockHash","type":"bytes32","internalType":"bytes32"},{"name":"height","type":"uint32","internalType":"uint32"},{"name":"cumulativeChainwork","type":"uint256","internalType":"uint256"}]},{"name":"confirmationBlocks","type":"uint8","internalType":"uint8"},{"name":"liquidityUnlockTimestamp","type":"uint64","internalType":"uint64"},{"name":"specifiedPayoutAddress","type":"address","internalType":"address"},{"name":"totalSwapFee","type":"uint256","internalType":"uint256"},{"name":"totalSwapOutput","type":"uint256","internalType":"uint256"},{"name":"state","type":"uint8","internalType":"enum Types.SwapState"}]},{"name":"proof","type":"bytes","internalType":"bytes"}],"outputs":[],"stateMutability":"nonpayable"},{"type":"function","name":"swapHashes","inputs":[{"name":"","type":"uint256","internalType":"uint256"}],"outputs":[{"name":"","type":"bytes32","internalType":"bytes32"}],"stateMutability":"view"},{"type":"function","name":"transferOwnership","inputs":[{"name":"newOwner","type":"address","internalType":"address"}],"outputs":[],"stateMutability":"nonpayable"},{"type":"function","name":"updateLightClient","inputs":[{"name":"blockProofParams","type":"tuple","internalType":"struct Types.BlockProofParams","components":[{"name":"priorMmrRoot","type":"bytes32","internalType":"bytes32"},{"name":"newMmrRoot","type":"bytes32","internalType":"bytes32"},{"name":"compressedBlockLeaves","type":"bytes","internalType":"bytes"},{"name":"tipBlockLeaf","type":"tuple","internalType":"struct Types.BlockLeaf","components":[{"name":"blockHash","type":"bytes32","internalType":"bytes32"},{"name":"height","type":"uint32","internalType":"uint32"},{"name":"cumulativeChainwork","type":"uint256","internalType":"uint256"}]}]},{"name":"proof","type":"bytes","internalType":"bytes"}],"outputs":[],"stateMutability":"nonpayable"},{"type":"function","name":"vaultHashes","inputs":[{"name":"","type":"uint256","internalType":"uint256"}],"outputs":[{"name":"","type":"bytes32","internalType":"bytes32"}],"stateMutability":"view"},{"type":"function","name":"verifyZkProof","inputs":[{"name":"proofPublicInput","type":"tuple","internalType":"struct Types.ProofPublicInput","components":[{"name":"proofType","type":"uint8","internalType":"enum Types.ProofType"},{"name":"swaps","type":"tuple[]","internalType":"struct Types.SwapPublicInput[]","components":[{"name":"swapBitcoinTxid","type":"bytes32","internalType":"bytes32"},{"name":"swapBitcoinBlockHash","type":"bytes32","internalType":"bytes32"},{"name":"depositVaultHash","type":"bytes32","internalType":"bytes32"}]},{"name":"lightClient","type":"tuple","internalType":"struct Types.LightClientPublicInput","components":[{"name":"previousMmrRoot","type":"bytes32","internalType":"bytes32"},{"name":"newMmrRoot","type":"bytes32","internalType":"bytes32"},{"name":"compressedLeavesHash","type":"bytes32","internalType":"bytes32"},{"name":"tipBlockLeaf","type":"tuple","internalType":"struct Types.BlockLeaf","components":[{"name":"blockHash","type":"bytes32","internalType":"bytes32"},{"name":"height","type":"uint32","internalType":"uint32"},{"name":"cumulativeChainwork","type":"uint256","internalType":"uint256"}]}]}]},{"name":"proof","type":"bytes","internalType":"bytes"}],"outputs":[],"stateMutability":"view"},{"type":"function","name":"withdrawLiquidity","inputs":[{"name":"vault","type":"tuple","internalType":"struct Types.DepositVault","components":[{"name":"vaultIndex","type":"uint256","internalType":"uint256"},{"name":"depositTimestamp","type":"uint64","internalType":"uint64"},{"name":"depositUnlockTimestamp","type":"uint64","internalType":"uint64"},{"name":"depositAmount","type":"uint256","internalType":"uint256"},{"name":"depositFee","type":"uint256","internalType":"uint256"},{"name":"expectedSats","type":"uint64","internalType":"uint64"},{"name":"btcPayoutScriptPubKey","type":"bytes25","internalType":"bytes25"},{"name":"specifiedPayoutAddress","type":"address","internalType":"address"},{"name":"ownerAddress","type":"address","internalType":"address"},{"name":"salt","type":"bytes32","internalType":"bytes32"},{"name":"confirmationBlocks","type":"uint8","internalType":"uint8"},{"name":"attestedBitcoinBlockHeight","type":"uint64","internalType":"uint64"}]}],"outputs":[],"stateMutability":"nonpayable"},{"type":"event","name":"BitcoinLightClientUpdated","inputs":[{"name":"priorMmrRoot","type":"bytes32","indexed":false,"internalType":"bytes32"},{"name":"newMmrRoot","type":"bytes32","indexed":false,"internalType":"bytes32"},{"name":"compressedBlockLeaves","type":"bytes","indexed":false,"internalType":"bytes"}],"anonymous":false},{"type":"event","name":"OwnershipTransferred","inputs":[{"name":"previousOwner","type":"address","indexed":true,"internalType":"address"},{"name":"newOwner","type":"address","indexed":true,"internalType":"address"}],"anonymous":false},{"type":"event","name":"SwapsUpdated","inputs":[{"name":"swaps","type":"tuple[]","indexed":false,"internalType":"struct Types.ProposedSwap[]","components":[{"name":"swapIndex","type":"uint256","internalType":"uint256"},{"name":"depositVaultHash","type":"bytes32","internalType":"bytes32"},{"name":"swapBitcoinBlockLeaf","type":"tuple","internalType":"struct Types.BlockLeaf","components":[{"name":"blockHash","type":"bytes32","internalType":"bytes32"},{"name":"height","type":"uint32","internalType":"uint32"},{"name":"cumulativeChainwork","type":"uint256","internalType":"uint256"}]},{"name":"confirmationBlocks","type":"uint8","internalType":"uint8"},{"name":"liquidityUnlockTimestamp","type":"uint64","internalType":"uint64"},{"name":"specifiedPayoutAddress","type":"address","internalType":"address"},{"name":"totalSwapFee","type":"uint256","internalType":"uint256"},{"name":"totalSwapOutput","type":"uint256","internalType":"uint256"},{"name":"state","type":"uint8","internalType":"enum Types.SwapState"}]},{"name":"context","type":"uint8","indexed":false,"internalType":"enum Types.SwapUpdateContext"}],"anonymous":false},{"type":"event","name":"VaultsUpdated","inputs":[{"name":"vaults","type":"tuple[]","indexed":false,"internalType":"struct Types.DepositVault[]","components":[{"name":"vaultIndex","type":"uint256","internalType":"uint256"},{"name":"depositTimestamp","type":"uint64","internalType":"uint64"},{"name":"depositUnlockTimestamp","type":"uint64","internalType":"uint64"},{"name":"depositAmount","type":"uint256","internalType":"uint256"},{"name":"depositFee","type":"uint256","internalType":"uint256"},{"name":"expectedSats","type":"uint64","internalType":"uint64"},{"name":"btcPayoutScriptPubKey","type":"bytes25","internalType":"bytes25"},{"name":"specifiedPayoutAddress","type":"address","internalType":"address"},{"name":"ownerAddress","type":"address","internalType":"address"},{"name":"salt","type":"bytes32","internalType":"bytes32"},{"name":"confirmationBlocks","type":"uint8","internalType":"uint8"},{"name":"attestedBitcoinBlockHeight","type":"uint64","internalType":"uint64"}]},{"name":"context","type":"uint8","indexed":false,"internalType":"enum Types.VaultUpdateContext"}],"anonymous":false},{"type":"error","name":"BlockNotConfirmed","inputs":[]},{"type":"error","name":"BlockNotInChain","inputs":[]},{"type":"error","name":"CannotOverwriteOngoingSwap","inputs":[]},{"type":"error","name":"ChainworkTooLow","inputs":[]},{"type":"error","name":"CheckpointNotEstablished","inputs":[]},{"type":"error","name":"DepositAmountTooLow","inputs":[]},{"type":"error","name":"DepositStillLocked","inputs":[]},{"type":"error","name":"DepositVaultDoesNotExist","inputs":[]},{"type":"error","name":"DepositVaultNotOverwritable","inputs":[]},{"type":"error","name":"EmptyDepositVault","inputs":[]},{"type":"error","name":"InvalidScriptPubKey","inputs":[]},{"type":"error","name":"InvalidVaultHash","inputs":[{"name":"actual","type":"bytes32","internalType":"bytes32"},{"name":"expected","type":"bytes32","internalType":"bytes32"}]},{"type":"error","name":"NoFeeToPay","inputs":[]},{"type":"error","name":"NoSwapsToSubmit","inputs":[]},{"type":"error","name":"NotEnoughConfirmationBlocks","inputs":[]},{"type":"error","name":"OwnableInvalidOwner","inputs":[{"name":"owner","type":"address","internalType":"address"}]},{"type":"error","name":"OwnableUnauthorizedAccount","inputs":[{"name":"account","type":"address","internalType":"address"}]},{"type":"error","name":"SatOutputTooLow","inputs":[]},{"type":"error","name":"StillInChallengePeriod","inputs":[]},{"type":"error","name":"SwapDoesNotExist","inputs":[]},{"type":"error","name":"SwapNotProved","inputs":[]},{"type":"error","name":"TransferFailed","inputs":[]}],"bytecode":{"object":"0x610100806040523461025d5780612f96803803809161001e828561029b565b833981010390610100821261025d5780519061003c602082016102be565b60408201519161004e606082016102be565b93606061005d608084016102be565b96609f19011261025d5760405191606083016001600160401b038111848210176102875760405260a0810151835260c08101519063ffffffff8216820361025d5760e091602085015201516040830152805f5560405191604083019083821060018060401b0383111761028757600392604092835260018552602085019182525f526001602052815f209351151560ff8019865416911617845551805160018501556002840163ffffffff60208301511663ffffffff19825416179055015191015533156102745760028054336001600160a01b031982168117909255604051926020928492600492849290916001600160a01b03167f8be0079c531659141344cd1fd0a4f28419497f9722a3daafe3b4186f6b6457e05f80a36001600160a01b0316608081905263313ce56760e01b82525afa908115610269575f91610229575b5060a05260c0526001600160a01b0390811660e052600680546001600160a01b03191692909116919091179055604051612cc390816102d3823960805181818161023f0152818161075c01528181610c82015281816110680152612a06015260a05181610acd015260c0518181816108da01526119a7015260e05181818161121e01526118f60152f35b90506020813d602011610261575b816102446020938361029b565b8101031261025d575160ff8116810361025d575f61019f565b5f80fd5b3d9150610237565b6040513d5f823e3d90fd5b631e4fbdf760e01b5f525f60045260245ffd5b634e487b7160e01b5f52604160045260245ffd5b601f909101601f19168101906001600160401b0382119082101761028757604052565b51906001600160a01b038216820361025d5756fe60806040526004361015610011575f80fd5b5f3560e01c806302977414146113d557806303af626a146113b857806307a2ec521461124d57806308c84e70146112095780631cbeebeb146111cc578063298842fb146111ae578063333f871a1461118557806342769946146110bf578063428f29b814611097578063473d175d146110535780635861af0014610c14578063592b664914610af15780635b7f415c14610ab45780636093855014610a71578063640179d8146109f257806365e99ad8146109d5578063715018a61461097a5780637c2301a6146108fd5780638d5ca052146108c35780638da5cb5b1461089b578063a657fbea1461087d578063c190c164146105df578063ca18100d146105c2578063d21ddc61146105a6578063e16ddab314610427578063e5e78e02146103ef578063eb5e91ff1461038c578063eb9ecdd1146102d7578063f23a94a9146101ed5763f2fde38b14610163575f80fd5b346101e95760203660031901126101e95761017c611717565b6101846126e8565b6001600160a01b031680156101d657600280546001600160a01b0319811683179091556001600160a01b03167f8be0079c531659141344cd1fd0a4f28419497f9722a3daafe3b4186f6b6457e05f80a3005b631e4fbdf760e01b5f525f60045260245ffd5b5f80fd5b346101e9575f3660031901126101e95760055480156102c8575f60055560065460405163a9059cbb60e01b81526001600160a01b0390911660048201526024810191909152602081806044810103815f7f00000000000000000000000000000000000000000000000000000000000000006001600160a01b03165af19081156102bd575f9161028e575b501561027f57005b6312171d8360e31b5f5260045ffd5b6102b0915060203d6020116102b6575b6102a88183611646565b810190611dfc565b81610277565b503d61029e565b6040513d5f823e3d90fd5b630fbcad4560e21b5f5260045ffd5b346101e95760203660031901126101e9576004356001600160401b0381116101e9578036036101a06003198201126101e957602482016103168161249a565b50608483013561037d57359160048101359161018219018212156101e9578261037061034f602095600461035896610375960101612731565b948591936116ea565b90919082549060031b91821b915f19901b1916179055565b612958565b604051908152f35b630faaae6760e31b5f5260045ffd5b346101e95760203660031901126101e9576004355f526001602052608060405f206103ed6103c1600160ff8454169301611765565b60405192151583526020830190604080918051845263ffffffff60208201511660208501520151910152565bf35b346101e95760203660031901126101e9576004356003548110156101e9576104186020916116ea565b90549060031b1c604051908152f35b346101e95760803660031901126101e9576004356001600160401b0381116101e95761045790369060040161152f565b602435906001600160401b0382116101e957816004019260c060031984360301126101e9576044356001600160401b0381116101e95761049b90369060040161155f565b90926064356001600160401b0381116101e9576104bc903690600401611590565b949093873593602488013592606489019460448a01996104dc8b8d611eba565b6104e6368a61167e565b916104f292898c6125ba565b6084016104fe90611f31565b9361050894611f62565b966105139198611eba565b369061051e92611eec565b805190602001209060405193610533856115bd565b845260208401526040830152366105499161167e565b60608201526040519361055b856115d8565b6002855260208501526040840152610572926118eb565b604051610580819282611835565b037fdc0391168b5903ca02f8020523ba62927809fd9d25baf94fcb8bb339e0c8f73191a1005b346101e9575f3660031901126101e95760205f54604051908152f35b346101e9575f3660031901126101e9576020600554604051908152f35b346101e957366003190161018081126101e9576105fa6124d7565b50606435801561086e57604435916001600160401b0383168084036101e957421061085f57610180136101e957604051916106348361160f565b60043583526024356001600160401b03811681036101e95760208401526040830152606082018181526080830191608435835260a4356001600160401b03811681036101e95760a085015260c43566ffffffffffffff19811681036101e95760c085015260e4356001600160a01b03811681036101e95760e0850152610104356001600160a01b03811681036101e95780610100860152610124356101208601526101443560ff811681036101e95761014086015261016435926001600160401b03841684036101e957610757945f80926020966101608a0152525261072661071c86612570565b61035887516116ea565b60405163a9059cbb60e01b81526001600160a01b039091166004820152602481019190915291829081906044820190565b03815f7f00000000000000000000000000000000000000000000000000000000000000006001600160a01b03165af19081156102bd575f91610840575b501561027f576107a2611b6a565b906107ac82611d1f565b526107b681611d1f565b50604051604081016040825282518091526020606083019301905f5b81811061081f57505050807fbcf83654bbe8d2d5a003763444fb50a895b7721b0239dcd314d345f8a3cdfb1992600160208301520390a1005b634e487b7160e01b5f52602160045260245ffd5b9091936020610180826108356001948951611e14565b0195019291016107d2565b610859915060203d6020116102b6576102a88183611646565b82610794565b6301b512a960e21b5f5260045ffd5b637941e9ad60e01b5f5260045ffd5b346101e95760203660031901126101e95760206104186004356116ea565b346101e9575f3660031901126101e9576002546040516001600160a01b039091168152602090f35b346101e9575f3660031901126101e95760206040517f00000000000000000000000000000000000000000000000000000000000000008152f35b346101e95760c03660031901126101e95761097660405161091d816115bd565b60043581526024356020820152604435604082015261093d36606461167e565b6060820152610953604051916020830190611885565b60c0815261096260e082611646565b604051918291602083526020830190611741565b0390f35b346101e9575f3660031901126101e9576109926126e8565b600280546001600160a01b031981169091555f906001600160a01b03167f8be0079c531659141344cd1fd0a4f28419497f9722a3daafe3b4186f6b6457e08280a3005b346101e9575f3660031901126101e9576020600354604051908152f35b346101e95760203660031901126101e9576004356001600160401b0381116101e95761018060031982360301126101e957600354610a3291600401612731565b600354600160401b811015610a5d576020926103708361035884600161037596016003556003611702565b634e487b7160e01b5f52604160045260245ffd5b346101e95760203660031901126101e957610a8a611717565b610a926126e8565b600680546001600160a01b0319166001600160a01b0392909216919091179055005b346101e9575f3660031901126101e957602060405160ff7f0000000000000000000000000000000000000000000000000000000000000000168152f35b346101e95760403660031901126101e9576004356001600160401b0381116101e957806004019060c060031982360301126101e9576024356001600160401b0381116101e957610b45903690600401611590565b9160448101610b5e610b578287611eba565b3691611eec565b60208151910120610b8f610b7d87359360646024870135960198611eba565b90610b88368a61167e565b86866125ba565b60405192610b9e602085611646565b5f84525f805b818110610bfd57505095610bd691610bfb9760405194610bc3866115bd565b855260208501526040840152369061167e565b606082015260405191610be8836115d8565b60018352602083015260408201526118eb565b005b602090610c08611a67565b82828901015201610ba4565b346101e95760203660031901126101e9576004356001600160401b0381116101e957610c4490369060040161152f565b610c4d81611a85565b90610c5781611667565b92610c656040519485611646565b818452601f19610c7483611667565b015f5b81811061103c5750507f00000000000000000000000000000000000000000000000000000000000000006001600160a01b0316905f5b838110610d9e578585604051604081016040825282518091526020606083019301905f5b818110610d7d57505050807fdc0391168b5903ca02f8020523ba62927809fd9d25baf94fcb8bb339e0c8f73192600160208301520390a1604051604081016040825282518091526020606083019301905f5b818110610d5c57505050807fbcf83654bbe8d2d5a003763444fb50a895b7721b0239dcd314d345f8a3cdfb1992600260208301520390a1005b909193602061018082610d726001948951611e14565b019501929101610d23565b909193602061016082610d93600194895161179d565b019501929101610cd1565b610db1610dac828685611baa565b61245d565b50610140610dc0828685611baa565b013560038110156101e957600190610dd781611793565b0361102d576001600160401b03610dfa60c0610df4848887611baa565b01611bcd565b16421061101e57610e186101a0610e12838786611baa565b0161249a565b6020610e25838786611baa565b01358103610ffa5750610e9f610e48366040610e42858988611baa565b0161167e565b8286808660ff610e9860a0610e92610e89610e7e89610e76610e6b828b8b611baa565b610160810190611be1565b999098611baa565b610180810190611be1565b9890978d611baa565b01611c16565b16946124f2565b610eb7366101a0610eb1848887611baa565b01611c46565b5f60608201525f6080820152610ed9610ecf82612570565b61035883516116ea565b610ee38288611d2c565b52610eee8187611d2c565b50610f0336610efe838786611baa565b611d40565b906002610100830152610f2c610f1883612598565b610358610f26848988611baa565b356116be565b610f47610100610f3d838887611baa565b0135600554611ddb565b600555610fa36020610f6560e0610f5f858a89611baa565b01611de8565b610120610f73858a89611baa565b60405163a9059cbb60e01b81526001600160a01b0390931660048401520135602482015291829081906044820190565b03815f895af19081156102bd575f91610fdc575b501561027f57600191610fca8288611d2c565b52610fd58187611d2c565b5001610cad565b610ff4915060203d81116102b6576102a88183611646565b88610fb7565b6020611007838786611baa565b013563046aaf4f60e51b5f5260045260245260445ffd5b632d5c37f560e21b5f5260045ffd5b6322fc5d4360e21b5f5260045ffd5b602090611047611b12565b82828901015201610c77565b346101e9575f3660031901126101e9576040517f00000000000000000000000000000000000000000000000000000000000000006001600160a01b03168152602090f35b346101e9575f3660031901126101e9576006546040516001600160a01b039091168152602090f35b346101e957366003190160a081126101e9576060136101e9576040516110e4816115d8565b600435815260243563ffffffff811681036101e957602082015260443560408201526064356001600160401b0381116101e95761112590369060040161152f565b91608435916001600160401b0383116101e95760209361114c61117b94369060040161152f565b9161117261116d5f545f52600160205263ffffffff600260405f2001541690565b611a3b565b935f5495612358565b6040519015158152f35b346101e95760203660031901126101e9576004356004548110156101e9576104186020916116be565b346101e95760203660031901126101e95760206104186004356116be565b346101e9575f3660031901126101e95760206111fb5f545f52600160205263ffffffff600260405f2001541690565b63ffffffff60405191168152f35b346101e9575f3660031901126101e9576040517f00000000000000000000000000000000000000000000000000000000000000006001600160a01b03168152602090f35b346101e95760403660031901126101e9576004356001600160401b0381116101e957803603906101006003198301126101e9576040519161128d836115d8565b816004013560038110156101e957835260248201356001600160401b0381116101e9578201366023820112156101e95760048101356112cb81611667565b916112d96040519384611646565b818352602060046060828601940283010101903682116101e957602401915b81831061137c57505050602084015260c0604319909101126101e95761134960405191611324836115bd565b60448101358352606481013560208401526084810135604084015260a436910161167e565b60608201526040820152602435906001600160401b0382116101e957611376610bfb923690600401611590565b916118eb565b6060833603126101e9576020606091604051611397816115d8565b853581528286013583820152604086013560408201528152019201916112f8565b346101e9575f3660031901126101e9576020600454604051908152f35b346101e95760603660031901126101e9576004356001600160401b0381116101e95761140590369060040161152f565b906024356001600160401b0381116101e95761142590369060040161155f565b9190604435936001600160401b0385116101e95761149861152a9461151e936114737fdc0391168b5903ca02f8020523ba62927809fd9d25baf94fcb8bb339e0c8f731983690600401611590565b9490966114935f545f52600160205263ffffffff600260405f2001541690565b611f62565b6040949194516114a7816115bd565b5f81525f60208201525f604082015260606114c0611a67565b9101526040516114cf816115d8565b5f81525f60208201525f6040820152604051906114eb826115bd565b5f82525f60208301525f604083015260608201526040519161150c836115d8565b5f8352602083015260408201526118eb565b60405191829182611835565b0390a1005b9181601f840112156101e9578235916001600160401b0383116101e9576020808501948460051b0101116101e957565b9181601f840112156101e9578235916001600160401b0383116101e95760208085019461016085020101116101e957565b9181601f840112156101e9578235916001600160401b0383116101e957602083818601950101116101e957565b608081019081106001600160401b03821117610a5d57604052565b606081019081106001600160401b03821117610a5d57604052565b61012081019081106001600160401b03821117610a5d57604052565b61018081019081106001600160401b03821117610a5d57604052565b604081019081106001600160401b03821117610a5d57604052565b90601f801991011681019081106001600160401b03821117610a5d57604052565b6001600160401b038111610a5d5760051b60200190565b91908260609103126101e957604051611696816115d8565b809280358252602081013563ffffffff811681036101e9576020830152604090810135910152565b6004548110156116d65760045f5260205f2001905f90565b634e487b7160e01b5f52603260045260245ffd5b6003548110156116d65760035f5260205f2001905f90565b80548210156116d6575f5260205f2001905f90565b600435906001600160a01b03821682036101e957565b35906001600160a01b03821682036101e957565b805180835260209291819084018484015e5f828201840152601f01601f1916010190565b90604051611772816115d8565b6040600282948054845263ffffffff60018201541660208501520154910152565b6003111561080b57565b80518252602080820151818401526040808301518051828601529182015163ffffffff16606085015201516080830152610140906101009060ff60608201511660a08501526001600160401b0360808201511660c085015260018060a01b0360a08201511660e085015260c08101518285015260e081015161012085015201519161182783611793565b0152565b6002111561080b57565b9190604083016040845281518091526020606085019201905f5b8181106118645750919391505060205f910152565b90919260206101608261187a600194885161179d565b01940192910161184f565b906060806118c9938051845260208101516020850152604081015160408501520151910190604080918051845263ffffffff60208201511660208501520151910152565b565b908060209392818452848401375f828201840152601f01601f1916010190565b909160018060a01b037f00000000000000000000000000000000000000000000000000000000000000001660405192602080850152836101408101825161193181611793565b604083015260208301519061010060608401528151809152602061016084019201905f5b818110611a095750505061197460406119829401516080840190611885565b03601f198101855284611646565b803b156101e9576119dc5f936119ee6040519687958694859463020a49e360e51b86527f00000000000000000000000000000000000000000000000000000000000000006004870152606060248701526064860190611741565b848103600319016044860152916118cb565b03915afa80156102bd576119ff5750565b5f6118c991611646565b919493509160206060600192604088518051835284810151858401520151604082015201950191019187939492611955565b63ffffffff60019116019063ffffffff8211611a5357565b634e487b7160e01b5f52601160045260245ffd5b60405190611a74826115d8565b5f6040838281528260208201520152565b90611a8f82611667565b611a9c6040519182611646565b8281528092611aad601f1991611667565b01905f5b828110611abd57505050565b602090604051611acc816115f3565b5f81525f83820152611adc611a67565b60408201525f60608201525f60808201525f60a08201525f60c08201525f60e08201525f61010082015282828501015201611ab1565b60405190611b1f8261160f565b5f610160838281528260208201528260408201528260608201528260808201528260a08201528260c08201528260e08201528261010082015282610120820152826101408201520152565b60408051909190611b7b8382611646565b6001815291601f1901825f5b828110611b9357505050565b602090611b9e611b12565b82828501015201611b87565b91908110156116d65760051b8101359061033e19813603018212156101e9570190565b356001600160401b03811681036101e95790565b903590601e19813603018212156101e957018035906001600160401b0382116101e957602001918160051b360383136101e957565b3560ff811681036101e95790565b35906001600160401b03821682036101e957565b359060ff821682036101e957565b9190826101809103126101e957604051611c5f8161160f565b809280358252611c7160208201611c24565b6020830152611c8260408201611c24565b60408301526060810135606083015260808101356080830152611ca760a08201611c24565b60a083015260c08101359066ffffffffffffff19821682036101e957610160611d1a91819360c0860152611cdd60e0820161172d565b60e0860152611cef610100820161172d565b610100860152610120810135610120860152611d0e6101408201611c38565b61014086015201611c24565b910152565b8051156116d65760200190565b80518210156116d65760209160051b010190565b919091610160818403126101e95761014060405191611d5e836115f3565b611d7a839582358552602083013560208601526040830161167e565b6040840152611d8b60a08201611c38565b6060840152611d9c60c08201611c24565b6080840152611dad60e0820161172d565b60a084015261010081013560c084015261012081013560e084015201359060038210156101e9576101000152565b91908201809211611a5357565b356001600160a01b03811681036101e95790565b908160209103126101e9575180151581036101e95790565b6001600160401b0361016080928051855282602082015116602086015282604082015116604086015260608101516060860152608081015160808601528260a08201511660a086015266ffffffffffffff1960c08201511660c086015260018060a01b0360e08201511660e086015260018060a01b036101008201511661010086015261012081015161012086015260ff61014082015116610140860152015116910152565b903590601e19813603018212156101e957018035906001600160401b0382116101e9576020019181360383136101e957565b9291926001600160401b038211610a5d5760405191611f15601f8201601f191660200184611646565b8294818452818301116101e9578281602093845f960137010152565b3563ffffffff811681036101e95790565b3561ffff811681036101e95790565b91908110156116d657610160020190565b90939193841561233957611f7585611667565b90611f836040519283611646565b858252601f19611f9287611667565b015f5b81811061232257505081611fa887611a85565b92600454985f995b898b101561231557809a8060051b86013561027e19873603018112156101e95786016101a0810135600281101593846101e957611fec8261182b565b8161227b575f198114611a53576001019d5b6020830161200c3682611c46565b608060608201519101908151918260011b9280840460021490151715611a53576120448f9261203e908e935190612724565b9461249a565b9161207c896101e08a019360405161205b816115d8565b8b358152853560208201528660408201526120768383611d2c565b52611d2c565b506120cd6120c86120916102408b018b611be1565b91906101608c6120a5610260820182611be1565b92909101946120b386611c16565b9360ff6120c0368c61167e565b9516946124f2565b611c16565b9063ffffffff6001600160401b036120e86101808c01611bcd565b169116036001600160401b038111611a53576001600160401b03166085026001600160401b038116908103611a535761e3b3016001600160401b038111611a53576001600160401b036103e88161012c9316041601906001600160401b038211611a53576121906001600160401b036121658160ff951642611ddb565b16936121746101008c01611de8565b95604051996121828b6115f3565b8a5260208a0152369061167e565b604088015216606086015260808501526001600160a01b031660a084015260c083015260e082015260016101008201526121ca848b611d2c565b526121d5838a611d2c565b506121e96121e3848b611d2c565b51612598565b936101e9578b918b916121fb8161182b565b806122315750505050600454600160401b811015610a5d57600192610358828561222a94016004556004611702565b0199611fb0565b906001809693926122418161182b565b14612250575b5050505061222a565b612272936103589261ffff61226b6101c0610f269501611f42565b1691611f51565b895f8a81612247565b9d5f94506122888261182b565b8b8d6001841461229a575b5050611ffe565b6101409192506122d1906101c08601936122c4610dac61ffff6122bc88611f42565b168385611f51565b5061ffff61226b86611f42565b013560038110156101e9576002906122e881611793565b03612306578c8c61ffff61226b6122fe94611f42565b358b8d612293565b63a5f611fd60e01b5f5260045ffd5b5096509650505094505050565b60209061232d611a67565b82828701015201611f95565b6308d98c4f60e01b5f5260045ffd5b91908110156116d65760051b0190565b919093929363ffffffff61238f84516020860195604084885116910151919091606092604051928352602083015260408201522090565b935116905f925b80841061240c57505050505f905f5b8381106123e6575b5050156123de576123bd91612a86565b9081156123d75763ffffffff165f5260205260405f201490565b5050505f90565b505050505f90565b816123f2828688612348565b3514612400576001016123a5565b50505060015f806123ad565b9293600183811c94929381160361243f57612428858385612348565b355f52602052600160405f20945b01929190612396565b61244a858385612348565b35905f52602052600160405f2094612436565b61247b61247261246d3684611d40565b612598565b91356004611702565b90549060031b1c810361248b5790565b631a40316d60e01b5f5260045ffd5b6124b86124af6124aa3684611c46565b612570565b91356003611702565b90549060031b1c81036124c85790565b63cd1d240d60e01b5f5260045ffd5b6124e56124aa366004611c46565b6124b86004356003611702565b949391612500939186612ad7565b63ffffffff60206125245f545f52600160205263ffffffff600260405f2001541690565b930151169063ffffffff5f1991160163ffffffff8111611a535763ffffffff160163ffffffff8111611a535763ffffffff80911691161061256157565b630a47293560e31b5f5260045ffd5b604051612581602082018093611e14565b61018081526125926101a082611646565b51902090565b6040516125a960208201809361179d565b610160815261259261018082611646565b9190925f548085146126e057835f52600160205260405f206125f36001604051926125e48461162b565b60ff8154161515845201611765565b602082015251156126d1575f526001602052600360405f200154604083015111156126c2577f6768baae39ee0e687f7c44f7006a147b15ffb56031969140096fe95461eea2fd946126bd926003604080519261264e8461162b565b6001845260208401908152885f526001602052815f209351151560ff8019865416911617845551805160018501556002840163ffffffff60208301511663ffffffff198254161790550151910155845f55604051948594855260208501526060604085015260608401916118cb565b0390a1565b6307800bf560e21b5f5260045ffd5b63e1965c6560e01b5f5260045ffd5b505050505050565b6002546001600160a01b031633036126fc57565b63118cdaa760e01b5f523360045260245ffd5b3566ffffffffffffff19811681036101e95790565b91908203918211611a5357565b91909161273c611b12565b506040810135906107d1821061294957606081016103e86001600160401b0361276483611bcd565b161061293a5760c0820190600260ff61277c84611c16565b161061292b5760808301936127986127938661270f565b612b14565b1561291c576127d26127ae610140860186611be1565b906127bd610160880188611be1565b9290916127cd3660e08b0161167e565b612ad7565b6005810281810460051482151715611a535761271090049460ff6127f585611c16565b16611c20029163ffffffff8316928303611a535786926128159042611ddb565b6001600160401b03169661282891612724565b9261283290611bcd565b9061283c9061270f565b9061284960208701611de8565b9261285387611de8565b948a4660a08a013591612879929091606092604051928352602083015260408201522090565b9661288390611c16565b976101000161289190611f31565b986040519b61289f8d61160f565b8c526001600160401b0342811660208e015260408d019190915260608c019190915260808b01919091521660a089015266ffffffffffffff191660c08801526001600160a01b0390811660e08801521661010086015261012085015260ff1661014084015263ffffffff1661016083015261291982612570565b90565b63fad7db0760e01b5f5260045ffd5b63bdf8f2b360e01b5f5260045ffd5b63fde5943160e01b5f5260045ffd5b6355fcd02760e01b5f5260045ffd5b612960611b6a565b908061296b83611d1f565b5261297582611d1f565b5060405191604083016040845281518091526020606085019201905f5b818110612a655750505082807fbcf83654bbe8d2d5a003763444fb50a895b7721b0239dcd314d345f8a3cdfb19925f60206129dc9701520390a16080606082015191015190611ddb565b6040516323b872dd60e01b815233600482015230602482015260448101919091526020816064815f7f00000000000000000000000000000000000000000000000000000000000000006001600160a01b03165af19081156102bd575f91612a46575b501561027f57565b612a5f915060203d6020116102b6576102a88183611646565b5f612a3e565b909192602061018082612a7b6001948851611e14565b019401929101612992565b8115612ad1575f19820191808311611a5357612aa3838284612348565b3592805b612ab15750505090565b5f190192612ac0848385612348565b355f526020528260405f2093612aa7565b50505f90565b92612afe94919261117261116d5f545f52600160205263ffffffff600260405f2001541690565b15612b0557565b632814065160e01b5f5260045ffd5b5f81901a60f81b6001600160f81b03191680612b6f575069ffffffffffffffffffff19165f81901a60f81b6001600160f81b031916159081612b54575090565b60011a60f81b6001600160f81b031916600560fa1b14919050565b60a960f81b8103612be8575068ffffffffffffffffff19165f81901a60f81b6001600160f81b03191660a960f81b149081612bc9575b81612bae575090565b60161a60f81b6001600160f81b031916608760f81b14919050565b600181901a60f81b6001600160f81b031916600560fa1b149150612ba5565b603b60f91b149081612bfa5750505f90565b81612c6e575b81612c4f575b81612c30575b81612c15575090565b60181a60f81b6001600160f81b031916602b60fa1b14919050565b601781901a60f81b6001600160f81b031916601160fb1b149150612c0c565b600281901a60f81b6001600160f81b031916600560fa1b149150612c06565b600181901a60f81b6001600160f81b03191660a960f81b149150612c0056fea264697066735822122031c25a16c04d9e8683b9af12f1c42fedb011264b6301d8a43d2c95d8c891113164736f6c634300081c0033","linkReferences":{}},"methodIdentifiers":{"CIRCUIT_VERIFICATION_KEY()":"8d5ca052","ERC20_BTC()":"473d175d","TOKEN_DECIMALS()":"5b7f415c","VERIFIER()":"08c84e70","accumulatedFeeBalance()":"ca18100d","checkpoints(bytes32)":"eb5e91ff","depositLiquidity((address,address,uint256,uint64,bytes25,bytes32,uint8,(bytes32,uint32,uint256),bytes32[],bytes32[]))":"640179d8","depositLiquidityWithOverwrite(((address,address,uint256,uint64,bytes25,bytes32,uint8,(bytes32,uint32,uint256),bytes32[],bytes32[]),(uint256,uint64,uint64,uint256,uint256,uint64,bytes25,address,address,bytes32,uint8,uint64)))":"eb9ecdd1","feeRouterAddress()":"428f29b8","getLightClientHeight()":"1cbeebeb","getSwapHash(uint256)":"298842fb","getSwapHashesLength()":"03af626a","getVaultHash(uint256)":"a657fbea","getVaultHashesLength()":"65e99ad8","mmrRoot()":"d21ddc61","owner()":"8da5cb5b","payoutToFeeRouter()":"f23a94a9","proveBlockInclusion((bytes32,uint32,uint256),bytes32[],bytes32[])":"42769946","releaseLiquidityBatch(((uint256,bytes32,(bytes32,uint32,uint256),uint8,uint64,address,uint256,uint256,uint8),bytes32[],bytes32[],(uint256,uint64,uint64,uint256,uint256,uint64,bytes25,address,address,bytes32,uint8,uint64),uint32)[])":"5861af00","renounceOwnership()":"715018a6","serializeLightClientPublicInput((bytes32,bytes32,bytes32,(bytes32,uint32,uint256)))":"7c2301a6","setFeeRouterAddress(address)":"60938550","submitBatchSwapProof((bytes32,(uint256,uint64,uint64,uint256,uint256,uint64,bytes25,address,address,bytes32,uint8,uint64),uint8,uint16,(bytes32,uint32,uint256),bytes32[],bytes32[])[],(uint256,bytes32,(bytes32,uint32,uint256),uint8,uint64,address,uint256,uint256,uint8)[],bytes)":"02977414","submitBatchSwapProofWithLightClientUpdate((bytes32,(uint256,uint64,uint64,uint256,uint256,uint64,bytes25,address,address,bytes32,uint8,uint64),uint8,uint16,(bytes32,uint32,uint256),bytes32[],bytes32[])[],(bytes32,bytes32,bytes,(bytes32,uint32,uint256)),(uint256,bytes32,(bytes32,uint32,uint256),uint8,uint64,address,uint256,uint256,uint8)[],bytes)":"e16ddab3","swapHashes(uint256)":"333f871a","transferOwnership(address)":"f2fde38b","updateLightClient((bytes32,bytes32,bytes,(bytes32,uint32,uint256)),bytes)":"592b6649","vaultHashes(uint256)":"e5e78e02","verifyZkProof((uint8,(bytes32,bytes32,bytes32)[],(bytes32,bytes32,bytes32,(bytes32,uint32,uint256))),bytes)":"07a2ec52","withdrawLiquidity((uint256,uint64,uint64,uint256,uint256,uint64,bytes25,address,address,bytes32,uint8,uint64))":"c190c164"},"storageLayout":{"storage":[{"astId":42268,"contract":"src/RiftExchange.sol:RiftExchange","label":"mmrRoot","offset":0,"slot":"0","type":"t_bytes32"},{"astId":42273,"contract":"src/RiftExchange.sol:RiftExchange","label":"checkpoints","offset":0,"slot":"1","type":"t_mapping(t_bytes32,t_struct(BitcoinCheckpoint)44664_storage)"},{"astId":8,"contract":"src/RiftExchange.sol:RiftExchange","label":"_owner","offset":0,"slot":"2","type":"t_address"},{"astId":42523,"contract":"src/RiftExchange.sol:RiftExchange","label":"vaultHashes","offset":0,"slot":"3","type":"t_array(t_bytes32)dyn_storage"},{"astId":42526,"contract":"src/RiftExchange.sol:RiftExchange","label":"swapHashes","offset":0,"slot":"4","type":"t_array(t_bytes32)dyn_storage"},{"astId":42528,"contract":"src/RiftExchange.sol:RiftExchange","label":"accumulatedFeeBalance","offset":0,"slot":"5","type":"t_uint256"},{"astId":42530,"contract":"src/RiftExchange.sol:RiftExchange","label":"feeRouterAddress","offset":0,"slot":"6","type":"t_address"}],"types":{"t_address":{"encoding":"inplace","label":"address","numberOfBytes":"20"},"t_array(t_bytes32)dyn_storage":{"encoding":"dynamic_array","label":"bytes32[]","numberOfBytes":"32","base":"t_bytes32"},"t_bool":{"encoding":"inplace","label":"bool","numberOfBytes":"1"},"t_bytes32":{"encoding":"inplace","label":"bytes32","numberOfBytes":"32"},"t_mapping(t_bytes32,t_struct(BitcoinCheckpoint)44664_storage)":{"encoding":"mapping","key":"t_bytes32","label":"mapping(bytes32 => struct Types.BitcoinCheckpoint)","numberOfBytes":"32","value":"t_struct(BitcoinCheckpoint)44664_storage"},"t_struct(BitcoinCheckpoint)44664_storage":{"encoding":"inplace","label":"struct Types.BitcoinCheckpoint","numberOfBytes":"128","members":[{"astId":44660,"contract":"src/RiftExchange.sol:RiftExchange","label":"established","offset":0,"slot":"0","type":"t_bool"},{"astId":44663,"contract":"src/RiftExchange.sol:RiftExchange","label":"tipBlockLeaf","offset":0,"slot":"1","type":"t_struct(BlockLeaf)44456_storage"}]},"t_struct(BlockLeaf)44456_storage":{"encoding":"inplace","label":"struct Types.BlockLeaf","numberOfBytes":"96","members":[{"astId":44451,"contract":"src/RiftExchange.sol:RiftExchange","label":"blockHash","offset":0,"slot":"0","type":"t_bytes32"},{"astId":44453,"contract":"src/RiftExchange.sol:RiftExchange","label":"height","offset":0,"slot":"1","type":"t_uint32"},{"astId":44455,"contract":"src/RiftExchange.sol:RiftExchange","label":"cumulativeChainwork","offset":0,"slot":"2","type":"t_uint256"}]},"t_uint256":{"encoding":"inplace","label":"uint256","numberOfBytes":"32"},"t_uint32":{"encoding":"inplace","label":"uint32","numberOfBytes":"4"}}},"id":43}