{"abi":[{"type":"function","name":"verifyProof","inputs":[{"name":"","type":"bytes32","internalType":"bytes32"},{"name":"","type":"bytes","internalType":"bytes"},{"name":"proofBytes","type":"bytes","internalType":"bytes"}],"outputs":[],"stateMutability":"pure"}],"bytecode":{"object":"0x6080806040523460145760ed90816100198239f35b5f80fdfe608060405260043610156010575f80fd5b5f3560e01c6341493c60146022575f80fd5b34608857606036600319011260885760243567ffffffffffffffff8111608857604e903690600401608c565b505060443567ffffffffffffffff8111608857606d903690600401608c565b9050607457005b634e487b7160e01b5f52600160045260245ffd5b5f80fd5b9181601f8401121560885782359167ffffffffffffffff83116088576020838186019501011160885756fea26469706673582212206739b7309bd33990190477c430b38638566341a6ea03f0c0b6521230454810ae64736f6c634300081c0033","linkReferences":{}},"methodIdentifiers":{"verifyProof(bytes32,bytes,bytes)":"41493c60"},"storageLayout":{"storage":[],"types":{}},"id":42}